{
	"data": {
		"bytecode": {
			"linkReferences": {
				"localhost/contracts/v2/library/ConstantsV2.sol": {
					"ConstantsV2": [
						{
							"length": 20,
							"start": 7519
						}
					]
				}
			},
			"object": "60806040523480156200001157600080fd5b506200002d6301ffc9a760e01b6001600160e01b036200016416565b6040805180820190915260108082526f4e5345204172742045786368616e676560801b60209092019182526200006691601391620001bf565b5060408051808201909152600480825263082a4a8b60e31b60209092019182526200009491601491620001bf565b50620000b06380ac58cd60e01b6001600160e01b036200016416565b620000cb635b5e139f60e01b6001600160e01b036200016416565b620000e663780e9d6360e01b6001600160e01b036200016416565b601180546001600160a01b031916339081179091556040516000916001918390620001119062000244565b620001209493929190620002a9565b604051809103906000f0801580156200013d573d6000803e3d6000fd5b50600e80546001600160a01b0319166001600160a01b0392909216919091179055620002ef565b6001600160e01b031980821614156200019a5760405162461bcd60e51b8152600401620001919062000272565b60405180910390fd5b6001600160e01b0319166000908152602081905260409020805460ff19166001179055565b828054600181600116156101000203166002900490600052602060002090601f016020900481019282601f106200020257805160ff191683800117855562000232565b8280016001018555821562000232579182015b828111156200023257825182559160200191906001019062000215565b506200024092915062000252565b5090565b6113d1806200543483390190565b6200026f91905b8082111562000240576000815560010162000259565b90565b6020808252601c908201527f4552433136353a20696e76616c696420696e7465726661636520696400000000604082015260600190565b60a08082526006908201526515d05313115560d21b60c0820152602081019490945260408401929092526001600160a01b0316606083015260ff16608082015260e00190565b61513580620002ff6000396000f3fe60806040523480156200001157600080fd5b5060043610620001545760003560e01c80636352211e11620000c9578063a22cb4651162000087578063a22cb46514620002ed578063b88d4fde1462000304578063c87b56dd146200031b578063cf9cd8f81462000332578063e985e9c51462000349578063f1dfad8f14620003605762000154565b80636352211e146200028757806370a08231146200029e57806371df284d14620002b557806395d89b4114620002cc5780639c9a106114620002d65762000154565b806323b872dd116200011757806323b872dd14620002065780633563922f146200021d5780633ae64e0c146200023457806342842e0e14620002065780635778472a14620002615762000154565b806301ffc9a7146200015957806302a1c41d146200018857806306fdde0314620001ae578063081812fc14620001c7578063095ea7b314620001ed575b600080fd5b620001706200016a36600462003339565b62000377565b6040516200017f919062003702565b60405180910390f35b6200019f6200019936600462003390565b62000396565b6040516200017f919062003b76565b620001b862000436565b6040516200017f919062003766565b620001de620001d836600462003320565b620004d1565b6040516200017f9190620035e2565b62000204620001fe366004620032d3565b6200052d565b005b6200020462000217366004620031ab565b620005bb565b620002046200022e366004620032d3565b620005c0565b6200024b6200024536600462003320565b62000659565b6040516200017f98979695949392919062003b96565b620002786200027236600462003320565b62000726565b6040516200017f919062003ac6565b620001de6200029836600462003320565b620007e9565b6200019f620002af3660046200314f565b62000804565b62000204620002c63660046200347e565b6200081f565b620001b8620008f1565b62000204620002e736600462003320565b62000955565b62000204620002fe366004620032a1565b62000fa0565b6200020462000315366004620031f0565b62001004565b620001b86200032c36600462003320565b6200100a565b6200019f620003433660046200314f565b620010af565b620001706200035a3660046200316e565b62001138565b620002046200037136600462003525565b62001166565b6001600160e01b03191660009081526020819052604090205460ff1690565b6000828152600d6020526040808220549051636eb1769f60e11b81526001600160a01b0390911690819063dd62ed3e90620003d8908690309060040162003635565b60206040518083038186803b158015620003f157600080fd5b505afa15801562000406573d6000803e3d6000fd5b505050506040513d601f19601f820116820180604052506200042c919081019062003377565b9150505b92915050565b60138054604080516020601f6002600019610100600188161502019095169490940493840181900481028201810190925282815260609390929091830182828015620004c65780601f106200049a57610100808354040283529160200191620004c6565b820191906000526020600020905b815481529060010190602001808311620004a857829003601f168201915b505050505090505b90565b6000818152600660205260408120546001600160a01b0316620005115760405162461bcd60e51b8152600401620005089062003980565b60405180910390fd5b506000908152600a60205260409020546001600160a01b031690565b60006200053a82620007e9565b9050806001600160a01b0316836001600160a01b03161415620005715760405162461bcd60e51b81526004016200050890620039cc565b336001600160a01b038216148062000590575062000590813362001138565b620005af5760405162461bcd60e51b81526004016200050890620038ac565b620005bb838362001622565b505050565b6011546001600160a01b03163314620005ed5760405162461bcd60e51b8152600401620005089062003a8e565b600e54604051630f38ca0d60e31b81526001600160a01b03909116906379c650689062000621908590859060040162003673565b600060405180830381600087803b1580156200063c57600080fd5b505af115801562000651573d6000803e3d6000fd5b505050505050565b6000818152600d60209081526040808320546006909252808320549051637cdbcac560e11b81528392839260609283928592839283926001600160a01b039081169263f9b7958a92620006b3928e92169060040162003b7f565b60006040518083038186803b158015620006cc57600080fd5b505afa158015620006e1573d6000803e3d6000fd5b505050506040513d6000823e601f3d908101601f191682016040526200070b9190810190620033b7565b97509750975097509750975097509750919395975091939597565b6200073062002f3b565b506000908152600f602090815260409182902082516101c0810184528154610180820190815260018301546101a0830152815260028201549281019290925260038101549282019290925260048201546001600160a01b0390811660608301526005830154166080820152600682015460a0820152600782015460c0820152600882015460e08201526009820154610100820152600a820154610120820152600b820154610140820152600c9091015461016082015290565b6000908152600660205260409020546001600160a01b031690565b6001600160a01b031660009081526003602052604090205490565b6001600160a01b0383166200083357600080fd5b6011546001600160a01b031633146200084b57600080fd5b62000857338962001650565b5060008881526008602052604090206200087390838362002fb6565b506000878787878760006040516200088b906200303b565b6200089c969594939291906200370d565b604051809103906000f080158015620008b9573d6000803e3d6000fd5b506000998a52600d602052604090992080546001600160a01b0319166001600160a01b03909a16999099179098555050505050505050565b60148054604080516020601f6002600019610100600188161502019095169490940493840181900481028201810190925282815260609390929091830182828015620004c65780601f106200049a57610100808354040283529160200191620004c6565b336200096062002f3b565b506000828152600f602090815260409182902082516101c0810184528154610180820190815260018301546101a0830152815260028201549281019290925260038101549282019290925260048201546001600160a01b0390811660608301526005830154166080820152600682015460a0820152600782015460c08201819052600883015460e08301526009830154610100830152600a830154610120830152600b830154610140830152600c909201546101608201529062000a385760405162461bcd60e51b81526004016200050890620037e9565b80610160015160011462000a605760405162461bcd60e51b8152600401620005089062003805565b816001600160a01b031681606001516001600160a01b0316141562000a995760405162461bcd60e51b815260040162000508906200388f565b600062000ab98261010001518360c001516200182a90919063ffffffff16565b600e54604051636eb1769f60e11b81529192506000916001600160a01b039091169063dd62ed3e9062000af3908790309060040162003635565b60206040518083038186803b15801562000b0c57600080fd5b505afa15801562000b21573d6000803e3d6000fd5b505050506040513d601f19601f8201168201806040525062000b47919081019062003377565b905081811062000f7f5760a08301516000908152600d60205260409081902054601154606086015160c087015193516323b872dd60e01b81526001600160a01b039384169485946323b872dd9462000ba8949116929091906004016200364f565b602060405180830381600087803b15801562000bc357600080fd5b505af115801562000bd8573d6000803e3d6000fd5b505050506040513d601f19601f8201168201806040525062000bfe919081019062003301565b1562000c7457606084015160c085015160405163363798f960e11b81526001600160a01b03841692636c6f31f29262000c3a9260040162003673565b600060405180830381600087803b15801562000c5557600080fd5b505af115801562000c6a573d6000803e3d6000fd5b5050505062000c8e565b60405162461bcd60e51b8152600401620005089062003aaa565b600e5460608501516040516323b872dd60e01b81526001600160a01b03909216916323b872dd9162000cc89189919088906004016200364f565b602060405180830381600087803b15801562000ce357600080fd5b505af115801562000cf8573d6000803e3d6000fd5b505050506040513d601f19601f8201168201806040525062000d1e919081019062003301565b1562000e9257600e54606085015160405163363798f960e11b81526001600160a01b0390921691636c6f31f29162000d5b91879060040162003673565b600060405180830381600087803b15801562000d7657600080fd5b505af115801562000d8b573d6000803e3d6000fd5b50505050606084015160c08501516040516323b872dd60e01b81526001600160a01b038416926323b872dd9262000dc8928a91906004016200364f565b602060405180830381600087803b15801562000de357600080fd5b505af115801562000df8573d6000803e3d6000fd5b505050506040513d601f19601f8201168201806040525062000e1e919081019062003301565b1562000e8c5760c084015160405163363798f960e11b81526001600160a01b03831691636c6f31f29162000e5791899160040162003673565b600060405180830381600087803b15801562000e7257600080fd5b505af115801562000e87573d6000803e3d6000fd5b505050505b62000eac565b60405162461bcd60e51b8152600401620005089062003909565b600060c085015262000ebe8462001871565b508251516000908152600f6020908152604091829020855180518255820151600182015590850151600282015590840151600382015560608401516004820180546001600160a01b039283166001600160a01b031991821617909155608086015160058401805491909316911617905560a0840151600682015560c0840151600782015560e084015160088201556101008401516009820155610120840151600a820155610140840151600b820155610160840151600c9091015562000f99565b60405162461bcd60e51b8152600401620005089062003924565b5050505050565b6001600160a01b03821633141562000fcc5760405162461bcd60e51b8152600401620005089062003858565b336000908152600b602090815260408083206001600160a01b0395909516835293905291909120805460ff1916911515919091179055565b50505050565b60008181526008602090815260409182902080548351601f6002600019610100600186161502019093169290920491820184900484028101840190945280845260609392830182828015620010a35780601f106200107757610100808354040283529160200191620010a3565b820191906000526020600020905b8154815290600101906020018083116200108557829003601f168201915b50505050509050919050565b600e54604051636eb1769f60e11b81526000916001600160a01b03169063dd62ed3e90620010e4908590309060040162003635565b60206040518083038186803b158015620010fd57600080fd5b505afa15801562001112573d6000803e3d6000fd5b505050506040513d601f19601f8201168201806040525062000430919081019062003377565b6001600160a01b039182166000908152600b6020908152604080832093909416825291909152205460ff1690565b6000828152600f602052604090206006015415620011985760405162461bcd60e51b815260040162000508906200377b565b60008089620012ae5750600090503381620011ba898963ffffffff6200182a16565b6001600160a01b0380841660009081526012602052604080822054600e5491516370a0823160e01b81529495509193919216906370a082319062001203908790600401620035e2565b60206040518083038186803b1580156200121c57600080fd5b505afa15801562001231573d6000803e3d6000fd5b505050506040513d601f19601f8201168201806040525062001257919081019062003377565b03905081811062000f7f576001600160a01b0383166000908152601260205260409020546200128d908363ffffffff62001d5016565b6001600160a01b038416600090815260126020526040902055505062001478565b60018a1415620014785750506000848152600d6020526040808220549051636eb1769f60e11b81523392916001600160a01b0316908290829063dd62ed3e90620012ff908790309060040162003635565b60206040518083038186803b1580156200131857600080fd5b505afa1580156200132d573d6000803e3d6000fd5b505050506040513d601f19601f8201168201806040525062001353919081019062003377565b905089811015620013785760405162461bcd60e51b8152600401620005089062003a0d565b6011546040516323b872dd60e01b81526001600160a01b03808516926323b872dd92620013ae92899216908f906004016200364f565b602060405180830381600087803b158015620013c957600080fd5b505af1158015620013de573d6000803e3d6000fd5b505050506040513d601f19601f8201168201806040525062001404919081019062003301565b15620014755760115460405163363798f960e11b81526001600160a01b0384811692636c6f31f2926200144092909116908e9060040162003673565b600060405180830381600087803b1580156200145b57600080fd5b505af115801562001470573d6000803e3d6000fd5b505050505b50505b6200148262003049565b5060408051808201909152848152426020820152620014a062002f3b565b6040518061018001604052808381526020018d81526020018c8152602001856001600160a01b03168152602001846001600160a01b031681526020018981526020018b81526020018b81526020018a81526020016000815260200188815260200186815250905080600f600088815260200190815260200160002060008201518160000160008201518160000155602082015181600101555050602082015181600201556040820151816003015560608201518160040160006101000a8154816001600160a01b0302191690836001600160a01b0316021790555060808201518160050160006101000a8154816001600160a01b0302191690836001600160a01b0316021790555060a0820151816006015560c0820151816007015560e08201518160080155610100820151816009015561012082015181600a015561014082015181600b015561016082015181600c0155905050620016098160000151826020015162001d78565b620016148162001f7b565b505050505050505050505050565b6000908152600a6020526040902080546001600160a01b0319166001600160a01b0392909216919091179055565b6000818152600660205260408120546001600160a01b031615620016885760405162461bcd60e51b8152600401620005089062003a60565b6009546200169e90600163ffffffff62001d5016565b6009556001600160a01b038316600090815260036020526040902054620016cd90600163ffffffff62001d5016565b6001600160a01b038416600081815260036020908152604080832094909455600480548784526002835285842081905560018082019092557f8a35acfbc15ff81a39ae7d344fd709f28e8600b4aa8c65c6b64bfe7fe36bd19b018790558383526005825284832080548083018255908452828420018790558683526006825284832080546001600160a01b03191685179055838352600780835285842054888552828452958420869055939092529190915262001791919063ffffffff62001d5016565b6001600160a01b0384166000908152600760209081526040808320939093558251908101909252808252620017ca91859085906200288e565b620017e95760405162461bcd60e51b8152600401620005089062003797565b60405182906001600160a01b038516906000907fddf252ad1be2c89b69c2b068fc378daa952ba7f163c4a11628f55a4df523b3ef908290a450600192915050565b6000826200183b5750600062000430565b828202828482816200184957fe5b04146200186a5760405162461bcd60e51b815260040162000508906200393f565b9392505050565b6200187b62003049565b50805160408051808201909152600e81526d50454e44494e475f4f524445525360901b602091820152600080516020620050e083398151915260005260109052600080516020620050c083398151915254620018d8575062001d4d565b60408051808201909152600e81526d50454e44494e475f4f524445525360901b602091820152600080516020620050e083398151915260005260109052600080516020620050c08339815191525460011415620019ab5760408051808201909152600e81526d50454e44494e475f4f524445525360901b602091820152600080516020620050e083398151915260005260109052600080516020620050c08339815191528054806200198657fe5b6000828152602081206002600019909301928302018181556001015590555062001d4d565b60408051808201909152600e81526d50454e44494e475f4f524445525360901b602091820152600080516020620050e083398151915260009081526010909152600080516020620050c08339815191525462001a0f90600163ffffffff6200297816565b604080518082018252600e81526d50454e44494e475f4f524445525360901b602091820152600080516020620050e083398151915260009081526010909152905163191ee78360e01b81529192509073__$6b1d18db58843331cb7cb9cc18cf07e672$__9063191ee7839062001a9f90600080516020620050c0833981519152908590879089906004016200368c565b60206040518083038186803b15801562001ab857600080fd5b505af415801562001acd573d6000803e3d6000fd5b505050506040513d601f19601f8201168201806040525062001af3919081019062003377565b90506000811262001c6f57805b8281101562001bf85760408051808201909152600e81526d50454e44494e475f4f524445525360901b602091820152600080516020620050e083398151915260005260109052600080516020620050c083398151915280546001830190811062001b6657fe5b6000918252602080832060408051808201909152600e81526d50454e44494e475f4f524445525360901b90830152600080516020620050e083398151915290935260109052600080516020620050c08339815191528054600290920290920191908390811062001bd257fe5b600091825260209091208254600290920201908155600191820154908201550162001b00565b5060408051808201909152600e81526d50454e44494e475f4f524445525360901b602091820152600080516020620050e083398151915260005260109052600080516020620050c083398151915280548062001c5057fe5b6000828152602081206002600019909301928302018181556001015590555b505060408051808201909152600e81526d4d4154434845445f4f524445525360901b6020918201527fadaaca5c8c3f56bf72f89abb1ed95701d44c650c5e04cf89df361454308f6f7560009081526010825283517f19674d8ba4835b80717217e211d3b88a07b39e62dfdf8c59ae92ebe4cc48df488054600180820183559190935281517ffd1f7450c902ffd3bc43ab1e89f4f818299d0dca41a3851fb1c84f1f898879546002909402938401559201517ffd1f7450c902ffd3bc43ab1e89f4f818299d0dca41a3851fb1c84f1f8988795590910155610120830152505b50565b6000828201838110156200186a5760405162461bcd60e51b8152600401620005089062003821565b60408051808201909152600e81526d50454e44494e475f4f524445525360901b60209182015260108152600080516020620050c0833981519152805460018101825560009190915283517f30049bd06e924538f92eaa9f01aedb2473e51fda6e5a111254cecb0b22440e6e600290920291820155908301517f30049bd06e924538f92eaa9f01aedb2473e51fda6e5a111254cecb0b22440e6f909101558062001ecb5760408051808201909152600a8152694255595f4f524445525360b01b602091820152601081527f5e9361a9c4a6948528c31d2250a6bd39325130b61230f88e8c9155f7d744feca805460018101825560009190915283517fb092a18ff78aca3595d8461112086efb2a651cf85c051ac9830ef18087fadf9b600290920291820155908301517fb092a18ff78aca3595d8461112086efb2a651cf85c051ac9830ef18087fadf9c9091015562001f77565b60408051808201909152600b81526a53454c4c5f4f524445525360a81b602091820152601081527f14c155f8a0b578a04530f80a5d15ffd628800aad3155c7162319213f99540d73805460018101825560009190915283517f6752f46a6fd943344d0c8c9c01bd6cd6b713eb632582e0e5d971da122f2f80aa600290920291820155908301517f6752f46a6fd943344d0c8c9c01bd6cd6b713eb632582e0e5d971da122f2f80ab909101555b5050565b600062001f8762002f3b565b5060408051808201909152600e81526d50454e44494e475f4f524445525360901b602091820152600080516020620050e083398151915260005260109052600080516020620050c0833981519152548290600181141562001feb5750505062001d4d565b60006200200082600163ffffffff6200297816565b905060006103e88311620020165760006200201a565b6103e85b90505b8082101580156200202c575084155b1562000651576200203c62002f3b565b60408051808201909152600e81526d50454e44494e475f4f524445525360901b602091820152600080516020620050e083398151915260009081526010909152600080516020620050c08339815191528054600f929190869081106200209e57fe5b60009182526020808320600292830201548452838101949094526040928301822083516101c0810185528154610180820190815260018301546101a083015281529181015482860181905260038201549483019490945260048101546001600160a01b039081166060840181905260058301549091166080840152600682015460a0808501829052600784015460c0860152600884015460e08601526009840154610100860152600a840154610120860152600b840154610140860152600c90930154610160850152918b0151958b01519296509414939214911580159062002193575060808801516001600160a01b031615155b15620021be5787608001516001600160a01b031684606001516001600160a01b03161490506200220d565b60808401516001600160a01b031615801590620021e7575060608801516001600160a01b031615155b156200220d5787606001516001600160a01b031684608001516001600160a01b03161490505b61016080890151908501511460008480156200222c5750610120860151155b801562002237575083155b8015620022415750815b80156200224c575082155b905080156200285b576200225f62002f3b565b6200226962002f3b565b6200227362003060565b60208d015162002356578c92508891506200228f8383620029bc565b80518451516000908152600f602090815260409182902082516101c0810184528154610180820190815260018301546101a0830152815260028201549281019290925260038101549282019290925260048201546001600160a01b0390811660608301526005830154166080820152600682015460a0820152600782015460c0820152600882015460e08201526009820154610100820152600a820154610120820152600b820154610140820152600c90910154610160820152909f509d50905062002438565b60018d60200151141562002438578c9150889250620023768383620029bc565b80518351516000908152600f602090815260409182902082516101c0810184528154610180820190815260018301546101a0830152815260028201549281019290925260038101549282019290925260048201546001600160a01b0390811660608301526005830154166080820152600682015460a0820152600782015460c0820152600882015460e08201526009820154610100820152600a820154610120820152600b820154610140820152600c90910154610160820152909f509d5090505b600183610120015114806200245257506001826101200151145b15620028575760006200247884610100015183606001516200182a90919063ffffffff16565b60408401519091508190600114620024a9576101008401516080840151620024a69163ffffffff6200182a16565b90505b60808501516001600160a01b0316600090815260126020526040902054620024d8908363ffffffff6200297816565b60808601516001600160a01b0390811660009081526012602090815260408083209490945560a08901518252600d9052829020546011546060808901519088015194516323b872dd60e01b81529284169485946323b872dd9462002545949091169291906004016200364f565b602060405180830381600087803b1580156200256057600080fd5b505af115801562002575573d6000803e3d6000fd5b505050506040513d601f19601f820116820180604052506200259b919081019062003301565b156200260c576060808601519085015160405163363798f960e11b81526001600160a01b03841692636c6f31f292620025d79260040162003673565b600060405180830381600087803b158015620025f257600080fd5b505af115801562002607573d6000803e3d6000fd5b505050505b600e5460808701516060808801516101008a0151918801516001600160a01b03909416936323b872dd939262002649919063ffffffff6200182a16565b6040518463ffffffff1660e01b815260040162002669939291906200364f565b602060405180830381600087803b1580156200268457600080fd5b505af115801562002699573d6000803e3d6000fd5b505050506040513d601f19601f82011682018060405250620026bf919081019062003301565b156200285357600e54606080870151610100890151918701516001600160a01b0390931692636c6f31f292620026fc919063ffffffff6200182a16565b6040518363ffffffff1660e01b81526004016200271b92919062003673565b600060405180830381600087803b1580156200273657600080fd5b505af11580156200274b573d6000803e3d6000fd5b505050506060858101516080880151918601516040516323b872dd60e01b81526001600160a01b038516936323b872dd936200278c9390926004016200364f565b602060405180830381600087803b158015620027a757600080fd5b505af1158015620027bc573d6000803e3d6000fd5b505050506040513d601f19601f82011682018060405250620027e2919081019062003301565b1562002853576080860151606085015160405163363798f960e11b81526001600160a01b03841692636c6f31f2926200281e9260040162003673565b600060405180830381600087803b1580156200283957600080fd5b505af11580156200284e573d6000803e3d6000fd5b505050505b5050505b5050505b876200286d5750505050505062000651565b6200288088600163ffffffff6200297816565b97505050505050506200201d565b6000620028a4846001600160a01b031662002d65565b620028b25750600162002970565b60606200293e63150b7a0260e01b33888787604051602401620028d99493929190620035f6565b604051602081830303815290604052906001600160e01b0319166020820180516001600160e01b0383818316178352505050506040518060600160405280603281526020016200508e603291396001600160a01b038816919063ffffffff62002d6b16565b905060008180602001905162002958919081019062003358565b6001600160e01b031916630a85bd0160e11b14925050505b949350505050565b60006200186a83836040518060400160405280601e81526020017f536166654d6174683a207375627472616374696f6e206f766572666c6f77000081525062002d7c565b620029c662003060565b506040805160a08101825260008082526020820181905291810182905260608101829052608081019190915260c080840151908301516101408501511580159062002a15575042856101400151105b1562002a2357600160208401525b600084610140015111801562002a3d575042846101400151105b1562002a4b57600160408401525b8361010001518561010001511015801562002a765750602083015115801562002a7657506040830151155b1562002aee578082141562002a985762002a9283868662002dab565b62002ae8565b808211801562002aad57506001856040015114155b1562002ac05762002a9283868662002de3565b808210801562002ad557506001846040015114155b1562002ae85762002ae883868662002e26565b62002b71565b6004846040015114801562002b0557506040830151155b1562002b71578082141562002b215762002ae883868662002dab565b808211801562002b3657506001856040015114155b1562002b495762002ae883868662002de3565b808210801562002b5e57506001846040015114155b1562002b715762002b7183868662002e26565b83600f6000866000015160000151815260200190815260200160002060008201518160000160008201518160000155602082015181600101555050602082015181600201556040820151816003015560608201518160040160006101000a8154816001600160a01b0302191690836001600160a01b0316021790555060808201518160050160006101000a8154816001600160a01b0302191690836001600160a01b0316021790555060a0820151816006015560c0820151816007015560e08201518160080155610100820151816009015561012082015181600a015561014082015181600b015561016082015181600c015590505084600f6000876000015160000151815260200190815260200160002060008201518160000160008201518160000155602082015181600101555050602082015181600201556040820151816003015560608201518160040160006101000a8154816001600160a01b0302191690836001600160a01b0316021790555060808201518160050160006101000a8154816001600160a01b0302191690836001600160a01b0316021790555060a0820151816006015560c0820151816007015560e08201518160080155610100820151816009015561012082015181600a015561014082015181600b015561016082015181600c0155905050505092915050565b3b151590565b606062002970848460008562002e69565b6000818484111562002da35760405162461bcd60e51b815260040162000508919062003766565b505050900390565b60c0808301805160608601529082018051608086015260018552600090819052905262002dd88262001871565b620005bb8162001871565b60c08082018051606086015280516080860152519083015162002e0c9163ffffffff6200297816565b60c080840191909152600090820152620005bb8162001871565b60c08083018051606086015280516080860152519082015162002e4f9163ffffffff6200297816565b60c080830191909152600090830152620005bb8262001871565b606062002e768562002d65565b62002e955760405162461bcd60e51b8152600401620005089062003a29565b60006060866001600160a01b0316858760405162002eb49190620035c4565b60006040518083038185875af1925050503d806000811462002ef3576040519150601f19603f3d011682016040523d82523d6000602084013e62002ef8565b606091505b5091509150811562002f0e579150620029709050565b80511562002f1f5780518082602001fd5b8360405162461bcd60e51b815260040162000508919062003766565b60405180610180016040528062002f5162003049565b8152602001600081526020016000815260200160006001600160a01b0316815260200160006001600160a01b03168152602001600081526020016000815260200160008152602001600081526020016000815260200160008152602001600081525090565b828054600181600116156101000203166002900490600052602060002090601f016020900481019282601f1062002ff95782800160ff1982351617855562003029565b8280016001018555821562003029579182015b82811115620030295782358255916020019190600101906200300c565b50620030379291506200308e565b5090565b6113d18062003cbd83390190565b604080518082019091526000808252602082015290565b6040805160a08101825260008082526020820181905291810182905260608101829052608081019190915290565b620004ce91905b8082111562003037576000815560010162003095565b60008083601f840112620030bd578182fd5b50813567ffffffffffffffff811115620030d5578182fd5b602083019150836020828501011115620030ee57600080fd5b9250929050565b600082601f83011262003106578081fd5b81516200311d620031178262003c2c565b62003c04565b91508082528360208285010111156200313557600080fd5b6200314881602084016020860162003c51565b5092915050565b60006020828403121562003161578081fd5b81356200186a8162003c80565b6000806040838503121562003181578081fd5b82356200318e8162003c80565b91506020830135620031a08162003c80565b809150509250929050565b600080600060608486031215620031c0578081fd5b8335620031cd8162003c80565b92506020840135620031df8162003c80565b929592945050506040919091013590565b6000806000806080858703121562003206578081fd5b8435620032138162003c80565b93506020850135620032258162003c80565b925060408501359150606085013567ffffffffffffffff81111562003248578182fd5b80860187601f8201126200325a578283fd5b803591506200326d620031178362003c2c565b82815288602084840101111562003282578384fd5b8260208301602083013791820160200192909252939692955090935050565b60008060408385031215620032b4578182fd5b8235620032c18162003c80565b91506020830135620031a08162003c96565b60008060408385031215620032e6578182fd5b8235620032f38162003c80565b946020939093013593505050565b60006020828403121562003313578081fd5b81516200186a8162003c96565b60006020828403121562003332578081fd5b5035919050565b6000602082840312156200334b578081fd5b81356200186a8162003ca5565b6000602082840312156200336a578081fd5b81516200186a8162003ca5565b60006020828403121562003389578081fd5b5051919050565b60008060408385031215620033a3578182fd5b823591506020830135620031a08162003c80565b600080600080600080600080610100898b031215620033d4578586fd5b885197506020890151620033e88162003c80565b60408a0151909750620033fb8162003c80565b60608a015190965067ffffffffffffffff8082111562003419578586fd5b620034278c838d01620030f5565b965060808b01519150808211156200343d578586fd5b506200344c8b828c01620030f5565b94505060a0890151925060c0890151915060e08901516200346d8162003c80565b809150509295985092959890939650565b60008060008060008060008060c0898b0312156200349a578182fd5b88359750602089013567ffffffffffffffff80821115620034b9578384fd5b620034c78c838d01620030ab565b909950975060408b0135965060608b0135955060808b01359150620034ec8262003c80565b90935060a08a0135908082111562003502578384fd5b50620035118b828c01620030ab565b999c989b5096995094979396929594505050565b600080600080600080600080610100898b03121562003542578182fd5b505086359860208801359850604088013597606081013597506080810135965060a0810135955060c0810135945060e0013592509050565b6001600160a01b03169052565b60008151808452620035a181602086016020860162003c51565b601f01601f19169290920160200192915050565b80518252602090810151910152565b60008251620035d881846020870162003c51565b9190910192915050565b6001600160a01b0391909116815260200190565b6001600160a01b03858116825284166020820152604081018390526080606082018190526000906200362b9083018462003587565b9695505050505050565b6001600160a01b0392831681529116602082015260400190565b6001600160a01b039384168152919092166020820152604081019190915260600190565b6001600160a01b03929092168252602082015260400190565b600060a0820160a0835280875480835260c08501915088845260209250828420845b82811015620036d857815484526001808301548686015260409094019360029092019101620036ae565b505050908301869052604083018590529050620036f96060830184620035b5565b95945050505050565b901515815260200190565b600060a082528660a0830152868860c084013760c0878301810191909152602082019590955260408101939093526001600160a01b0391909116606083015260ff166080820152601f909201601f191690910101919050565b6000602082526200186a602083018462003587565b602080825260029082015261534b60f01b604082015260600190565b60208082526032908201527f4552433732313a207472616e7366657220746f206e6f6e20455243373231526560408201527131b2b4bb32b91034b6b83632b6b2b73a32b960711b606082015260800190565b602080825260029082015261232760f11b604082015260600190565b602080825260029082015261534d60f01b604082015260600190565b6020808252601b908201527f536166654d6174683a206164646974696f6e206f766572666c6f770000000000604082015260600190565b60208082526019908201527f4552433732313a20617070726f766520746f2063616c6c657200000000000000604082015260600190565b60208082526003908201526253415360e81b604082015260600190565b60208082526038908201527f4552433732313a20617070726f76652063616c6c6572206973206e6f74206f7760408201527f6e6572206e6f7220617070726f76656420666f7220616c6c0000000000000000606082015260800190565b6020808252600190820152602760f91b604082015260600190565b6020808252600190820152601360fa1b604082015260600190565b60208082526021908201527f536166654d6174683a206d756c7469706c69636174696f6e206f766572666c6f6040820152607760f81b606082015260800190565b6020808252602c908201527f4552433732313a20617070726f76656420717565727920666f72206e6f6e657860408201526b34b9ba32b73a103a37b5b2b760a11b606082015260800190565b60208082526021908201527f4552433732313a20617070726f76616c20746f2063757272656e74206f776e656040820152603960f91b606082015260800190565b6020808252600290820152614e4160f01b604082015260600190565b6020808252601d908201527f416464726573733a2063616c6c20746f206e6f6e2d636f6e7472616374000000604082015260600190565b602080825260149082015273151bdad95b88105b1c9958591e48135a5b9d195960621b604082015260600190565b60208082526002908201526127a360f11b604082015260600190565b6020808252600290820152614e4560f01b604082015260600190565b60006101a08201905062003adc828451620035b5565b6020830151604083015260408301516060830152606083015162003b0460808401826200357a565b50608083015162003b1960a08401826200357a565b5060a083015160c08381019190915283015160e08084019190915283015161010080840191909152830151610120808401919091528301516101408084019190915283015161016080840191909152909201516101809091015290565b90815260200190565b9182526001600160a01b0316602082015260400190565b8881526001600160a01b03888116602083015287811660408301526101006060830181905260009162003bcc8483018a62003587565b848103608086015262003be0818a62003587565b60a08601989098525060c08401959095525050911660e09091015295945050505050565b60405181810167ffffffffffffffff8111828210171562003c2457600080fd5b604052919050565b600067ffffffffffffffff82111562003c43578081fd5b50601f01601f191660200190565b60005b8381101562003c6e57818101518382015260200162003c54565b83811115620010045750506000910152565b6001600160a01b038116811462001d4d57600080fd5b801515811462001d4d57600080fd5b6001600160e01b03198116811462001d4d57600080fdfe60806040523480156200001157600080fd5b50604051620013d1380380620013d18339810160408190526200003491620003db565b60408051808201909152600b8082526a546f6b656e53686172657360a81b60208301908152879162000069916003916200030c565b5080516200007f9060049060208401906200030c565b50506005805460ff1916601217905550600880546001600160a01b03191633179055620000b682856001600160e01b036200010f16565b600854620000d99083906001600160a01b0316866001600160e01b036200020416565b6006839055600780546001600160a01b0319166001600160a01b0384161790556200010481620002c0565b505050505062000603565b6001600160a01b038216620001415760405162461bcd60e51b8152600401620001389062000569565b60405180910390fd5b62000158600083836001600160e01b03620002d616565b6200017481600254620002db60201b620008781790919060201c565b6002556001600160a01b03821660009081526020818152604090912054620001a791839062000878620002db821b17901c565b6001600160a01b0383166000818152602081905260408082209390935591519091907fddf252ad1be2c89b69c2b068fc378daa952ba7f163c4a11628f55a4df523b3ef90620001f8908590620005a0565b60405180910390a35050565b6001600160a01b0383166200022d5760405162461bcd60e51b8152600401620001389062000525565b6001600160a01b038216620002565760405162461bcd60e51b81526004016200013890620004ac565b6001600160a01b0380841660008181526001602090815260408083209487168084529490915290819020849055517f8c5be1e5ebec7d5bd14f71427d1e84f3dd0314c0f7b2291e5b200ac8c7c3b92590620002b3908590620005a0565b60405180910390a3505050565b6005805460ff191660ff92909216919091179055565b505050565b600082820183811015620003035760405162461bcd60e51b81526004016200013890620004ee565b90505b92915050565b828054600181600116156101000203166002900490600052602060002090601f016020900481019282601f106200034f57805160ff19168380011785556200037f565b828001600101855582156200037f579182015b828111156200037f57825182559160200191906001019062000362565b506200038d92915062000391565b5090565b620003ae91905b808211156200038d576000815560010162000398565b90565b80516001600160a01b03811681146200030657600080fd5b805160ff811681146200030657600080fd5b600080600080600060a08688031215620003f3578081fd5b85516001600160401b03808211156200040a578283fd5b81880189601f8201126200041c578384fd5b80519250818311156200042d578384fd5b62000442601f8401601f1916602001620005a9565b915082825289602084830101111562000459578384fd5b6200046c836020840160208401620005d0565b50809650505060208601519350604086015192506200048f8760608801620003b1565b9150620004a08760808801620003c9565b90509295509295909350565b60208082526022908201527f45524332303a20617070726f766520746f20746865207a65726f206164647265604082015261737360f01b606082015260800190565b6020808252601b908201527f536166654d6174683a206164646974696f6e206f766572666c6f770000000000604082015260600190565b60208082526024908201527f45524332303a20617070726f76652066726f6d20746865207a65726f206164646040820152637265737360e01b606082015260800190565b6020808252601f908201527f45524332303a206d696e7420746f20746865207a65726f206164647265737300604082015260600190565b90815260200190565b6040518181016001600160401b0381118282101715620005c857600080fd5b604052919050565b60005b83811015620005ed578181015183820152602001620005d3565b83811115620005fd576000848401525b50505050565b610dbe80620006136000396000f3fe608060405234801561001057600080fd5b50600436106101005760003560e01c806370a0823111610097578063a71b642611610066578063a71b6426146101fe578063a9059cbb14610206578063dd62ed3e14610219578063f9b7958a1461022c57610100565b806370a08231146101bd57806379c65068146101d057806395d89b41146101e3578063a457c2d7146101eb57610100565b806323b872dd116100d357806323b872dd1461016d578063313ce5671461018057806339509351146101955780636c6f31f2146101a857610100565b806306fdde0314610105578063095ea7b31461012357806318160ddd146101435780631d14384814610158575b600080fd5b61010d610253565b60405161011a9190610acd565b60405180910390f35b610136610131366004610a16565b6102e9565b60405161011a9190610ac2565b61014b610307565b60405161011a9190610c7c565b61016061030d565b60405161011a9190610aae565b61013661017b3660046109d6565b61031c565b6101886103a9565b60405161011a9190610cef565b6101366101a3366004610a16565b6103b2565b6101bb6101b6366004610a16565b610406565b005b61014b6101cb366004610987565b61047d565b6101bb6101de366004610a16565b610498565b61010d61050a565b6101366101f9366004610a16565b61056b565b61014b6105d9565b610136610214366004610a16565b6105df565b61014b6102273660046109a2565b6105f3565b61023f61023a366004610a40565b61061e565b60405161011a989796959493929190610c85565b60038054604080516020601f60026000196101006001881615020190951694909404938401819004810282018101909252828152606093909290918301828280156102df5780601f106102b4576101008083540402835291602001916102df565b820191906000526020600020905b8154815290600101906020018083116102c257829003601f168201915b5050505050905090565b60006102fd6102f6610673565b8484610677565b5060015b92915050565b60025490565b6007546001600160a01b031690565b600061032984848461072b565b61039f84610335610673565b61039a85604051806060016040528060288152602001610d3c602891396001600160a01b038a16600090815260016020526040812090610373610673565b6001600160a01b03168152602081019190915260400160002054919063ffffffff61084c16565b610677565b5060019392505050565b60055460ff1690565b60006102fd6103bf610673565b8461039a85600160006103d0610673565b6001600160a01b03908116825260208083019390935260409182016000908120918c16815292529020549063ffffffff61087816565b6008546001600160a01b031633146104395760405162461bcd60e51b815260040161043090610c25565b60405180910390fd5b6008546000906104539084906001600160a01b03166105f3565b6008549091506104789084906001600160a01b031661039a858563ffffffff61087816565b505050565b6001600160a01b031660009081526020819052604090205490565b6008546001600160a01b031633146104c25760405162461bcd60e51b815260040161043090610c25565b6008546000906104dc9084906001600160a01b03166105f3565b90506104e883836108a4565b6008546104789084906001600160a01b031661039a858563ffffffff61087816565b60048054604080516020601f60026000196101006001881615020190951694909404938401819004810282018101909252828152606093909290918301828280156102df5780601f106102b4576101008083540402835291602001916102df565b60006102fd610578610673565b8461039a85604051806060016040528060258152602001610d6460259139600160006105a2610673565b6001600160a01b03908116825260208083019390935260409182016000908120918d1681529252902054919063ffffffff61084c16565b60065490565b60006102fd6105ec610673565b848461072b565b6001600160a01b03918216600090815260016020908152604080832093909416825291909152205490565b60008060006060806000806000898930610636610253565b61063e61050a565b610646610307565b61064e6105d9565b61065661030d565b975097509750975097509750975097509295985092959890939650565b3390565b6001600160a01b03831661069d5760405162461bcd60e51b815260040161043090610be1565b6001600160a01b0382166106c35760405162461bcd60e51b815260040161043090610b23565b6001600160a01b0380841660008181526001602090815260408083209487168084529490915290819020849055517f8c5be1e5ebec7d5bd14f71427d1e84f3dd0314c0f7b2291e5b200ac8c7c3b9259061071e908590610c7c565b60405180910390a3505050565b6001600160a01b0383166107515760405162461bcd60e51b815260040161043090610b9c565b6001600160a01b0382166107775760405162461bcd60e51b815260040161043090610ae0565b610782838383610478565b6107c581604051806060016040528060268152602001610d16602691396001600160a01b038616600090815260208190526040902054919063ffffffff61084c16565b6001600160a01b0380851660009081526020819052604080822093909355908416815220546107fa908263ffffffff61087816565b6001600160a01b0380841660008181526020819052604090819020939093559151908516907fddf252ad1be2c89b69c2b068fc378daa952ba7f163c4a11628f55a4df523b3ef9061071e908590610c7c565b600081848411156108705760405162461bcd60e51b81526004016104309190610acd565b505050900390565b60008282018381101561089d5760405162461bcd60e51b815260040161043090610b65565b9392505050565b6001600160a01b0382166108ca5760405162461bcd60e51b815260040161043090610c45565b6108d660008383610478565b6002546108e9908263ffffffff61087816565b6002556001600160a01b038216600090815260208190526040902054610915908263ffffffff61087816565b6001600160a01b0383166000818152602081905260408082209390935591519091907fddf252ad1be2c89b69c2b068fc378daa952ba7f163c4a11628f55a4df523b3ef90610964908590610c7c565b60405180910390a35050565b80356001600160a01b038116811461030157600080fd5b600060208284031215610998578081fd5b61089d8383610970565b600080604083850312156109b4578081fd5b6109be8484610970565b91506109cd8460208501610970565b90509250929050565b6000806000606084860312156109ea578081fd5b83356109f581610cfd565b92506020840135610a0581610cfd565b929592945050506040919091013590565b60008060408385031215610a28578182fd5b610a328484610970565b946020939093013593505050565b60008060408385031215610a52578182fd5b823591506109cd8460208501610970565b60008151808452815b81811015610a8857602081850181015186830182015201610a6c565b81811115610a995782602083870101525b50601f01601f19169290920160200192915050565b6001600160a01b0391909116815260200190565b901515815260200190565b60006020825261089d6020830184610a63565b60208082526023908201527f45524332303a207472616e7366657220746f20746865207a65726f206164647260408201526265737360e81b606082015260800190565b60208082526022908201527f45524332303a20617070726f766520746f20746865207a65726f206164647265604082015261737360f01b606082015260800190565b6020808252601b908201527f536166654d6174683a206164646974696f6e206f766572666c6f770000000000604082015260600190565b60208082526025908201527f45524332303a207472616e736665722066726f6d20746865207a65726f206164604082015264647265737360d81b606082015260800190565b60208082526024908201527f45524332303a20617070726f76652066726f6d20746865207a65726f206164646040820152637265737360e01b606082015260800190565b60208082526006908201526526a120a6ab1960d11b604082015260600190565b6020808252601f908201527f45524332303a206d696e7420746f20746865207a65726f206164647265737300604082015260600190565b90815260200190565b8881526001600160a01b038881166020830152878116604083015261010060608301819052600091610cb98483018a610a63565b8481036080860152610ccb818a610a63565b60a08601989098525060c08401959095525050911660e09091015295945050505050565b60ff91909116815260200190565b6001600160a01b0381168114610d1257600080fd5b5056fe45524332303a207472616e7366657220616d6f756e7420657863656564732062616c616e636545524332303a207472616e7366657220616d6f756e74206578636565647320616c6c6f77616e636545524332303a2064656372656173656420616c6c6f77616e63652062656c6f77207a65726fa2646970667358221220cd278645e36e22cf11d6a7cc013fb212c72beff098e9f68133eeadc8b726839a64736f6c634300060300334552433732313a207472616e7366657220746f206e6f6e20455243373231526563656976657220696d706c656d656e746572b15163679a9cb5e25b4ec2765a03eb685656e297a332a5529e273c905e4092eae4ebe61b5154be65502ffd10f19bbd557c590ef2ce56d0959d42d567662e4e7fa2646970667358221220ce56a86b426ccae6eecb9c3c2efbe35aac8a2792587189f553c6a7c789cfddb364736f6c6343000603003360806040523480156200001157600080fd5b50604051620013d1380380620013d18339810160408190526200003491620003db565b60408051808201909152600b8082526a546f6b656e53686172657360a81b60208301908152879162000069916003916200030c565b5080516200007f9060049060208401906200030c565b50506005805460ff1916601217905550600880546001600160a01b03191633179055620000b682856001600160e01b036200010f16565b600854620000d99083906001600160a01b0316866001600160e01b036200020416565b6006839055600780546001600160a01b0319166001600160a01b0384161790556200010481620002c0565b505050505062000603565b6001600160a01b038216620001415760405162461bcd60e51b8152600401620001389062000569565b60405180910390fd5b62000158600083836001600160e01b03620002d616565b6200017481600254620002db60201b620008781790919060201c565b6002556001600160a01b03821660009081526020818152604090912054620001a791839062000878620002db821b17901c565b6001600160a01b0383166000818152602081905260408082209390935591519091907fddf252ad1be2c89b69c2b068fc378daa952ba7f163c4a11628f55a4df523b3ef90620001f8908590620005a0565b60405180910390a35050565b6001600160a01b0383166200022d5760405162461bcd60e51b8152600401620001389062000525565b6001600160a01b038216620002565760405162461bcd60e51b81526004016200013890620004ac565b6001600160a01b0380841660008181526001602090815260408083209487168084529490915290819020849055517f8c5be1e5ebec7d5bd14f71427d1e84f3dd0314c0f7b2291e5b200ac8c7c3b92590620002b3908590620005a0565b60405180910390a3505050565b6005805460ff191660ff92909216919091179055565b505050565b600082820183811015620003035760405162461bcd60e51b81526004016200013890620004ee565b90505b92915050565b828054600181600116156101000203166002900490600052602060002090601f016020900481019282601f106200034f57805160ff19168380011785556200037f565b828001600101855582156200037f579182015b828111156200037f57825182559160200191906001019062000362565b506200038d92915062000391565b5090565b620003ae91905b808211156200038d576000815560010162000398565b90565b80516001600160a01b03811681146200030657600080fd5b805160ff811681146200030657600080fd5b600080600080600060a08688031215620003f3578081fd5b85516001600160401b03808211156200040a578283fd5b81880189601f8201126200041c578384fd5b80519250818311156200042d578384fd5b62000442601f8401601f1916602001620005a9565b915082825289602084830101111562000459578384fd5b6200046c836020840160208401620005d0565b50809650505060208601519350604086015192506200048f8760608801620003b1565b9150620004a08760808801620003c9565b90509295509295909350565b60208082526022908201527f45524332303a20617070726f766520746f20746865207a65726f206164647265604082015261737360f01b606082015260800190565b6020808252601b908201527f536166654d6174683a206164646974696f6e206f766572666c6f770000000000604082015260600190565b60208082526024908201527f45524332303a20617070726f76652066726f6d20746865207a65726f206164646040820152637265737360e01b606082015260800190565b6020808252601f908201527f45524332303a206d696e7420746f20746865207a65726f206164647265737300604082015260600190565b90815260200190565b6040518181016001600160401b0381118282101715620005c857600080fd5b604052919050565b60005b83811015620005ed578181015183820152602001620005d3565b83811115620005fd576000848401525b50505050565b610dbe80620006136000396000f3fe608060405234801561001057600080fd5b50600436106101005760003560e01c806370a0823111610097578063a71b642611610066578063a71b6426146101fe578063a9059cbb14610206578063dd62ed3e14610219578063f9b7958a1461022c57610100565b806370a08231146101bd57806379c65068146101d057806395d89b41146101e3578063a457c2d7146101eb57610100565b806323b872dd116100d357806323b872dd1461016d578063313ce5671461018057806339509351146101955780636c6f31f2146101a857610100565b806306fdde0314610105578063095ea7b31461012357806318160ddd146101435780631d14384814610158575b600080fd5b61010d610253565b60405161011a9190610acd565b60405180910390f35b610136610131366004610a16565b6102e9565b60405161011a9190610ac2565b61014b610307565b60405161011a9190610c7c565b61016061030d565b60405161011a9190610aae565b61013661017b3660046109d6565b61031c565b6101886103a9565b60405161011a9190610cef565b6101366101a3366004610a16565b6103b2565b6101bb6101b6366004610a16565b610406565b005b61014b6101cb366004610987565b61047d565b6101bb6101de366004610a16565b610498565b61010d61050a565b6101366101f9366004610a16565b61056b565b61014b6105d9565b610136610214366004610a16565b6105df565b61014b6102273660046109a2565b6105f3565b61023f61023a366004610a40565b61061e565b60405161011a989796959493929190610c85565b60038054604080516020601f60026000196101006001881615020190951694909404938401819004810282018101909252828152606093909290918301828280156102df5780601f106102b4576101008083540402835291602001916102df565b820191906000526020600020905b8154815290600101906020018083116102c257829003601f168201915b5050505050905090565b60006102fd6102f6610673565b8484610677565b5060015b92915050565b60025490565b6007546001600160a01b031690565b600061032984848461072b565b61039f84610335610673565b61039a85604051806060016040528060288152602001610d3c602891396001600160a01b038a16600090815260016020526040812090610373610673565b6001600160a01b03168152602081019190915260400160002054919063ffffffff61084c16565b610677565b5060019392505050565b60055460ff1690565b60006102fd6103bf610673565b8461039a85600160006103d0610673565b6001600160a01b03908116825260208083019390935260409182016000908120918c16815292529020549063ffffffff61087816565b6008546001600160a01b031633146104395760405162461bcd60e51b815260040161043090610c25565b60405180910390fd5b6008546000906104539084906001600160a01b03166105f3565b6008549091506104789084906001600160a01b031661039a858563ffffffff61087816565b505050565b6001600160a01b031660009081526020819052604090205490565b6008546001600160a01b031633146104c25760405162461bcd60e51b815260040161043090610c25565b6008546000906104dc9084906001600160a01b03166105f3565b90506104e883836108a4565b6008546104789084906001600160a01b031661039a858563ffffffff61087816565b60048054604080516020601f60026000196101006001881615020190951694909404938401819004810282018101909252828152606093909290918301828280156102df5780601f106102b4576101008083540402835291602001916102df565b60006102fd610578610673565b8461039a85604051806060016040528060258152602001610d6460259139600160006105a2610673565b6001600160a01b03908116825260208083019390935260409182016000908120918d1681529252902054919063ffffffff61084c16565b60065490565b60006102fd6105ec610673565b848461072b565b6001600160a01b03918216600090815260016020908152604080832093909416825291909152205490565b60008060006060806000806000898930610636610253565b61063e61050a565b610646610307565b61064e6105d9565b61065661030d565b975097509750975097509750975097509295985092959890939650565b3390565b6001600160a01b03831661069d5760405162461bcd60e51b815260040161043090610be1565b6001600160a01b0382166106c35760405162461bcd60e51b815260040161043090610b23565b6001600160a01b0380841660008181526001602090815260408083209487168084529490915290819020849055517f8c5be1e5ebec7d5bd14f71427d1e84f3dd0314c0f7b2291e5b200ac8c7c3b9259061071e908590610c7c565b60405180910390a3505050565b6001600160a01b0383166107515760405162461bcd60e51b815260040161043090610b9c565b6001600160a01b0382166107775760405162461bcd60e51b815260040161043090610ae0565b610782838383610478565b6107c581604051806060016040528060268152602001610d16602691396001600160a01b038616600090815260208190526040902054919063ffffffff61084c16565b6001600160a01b0380851660009081526020819052604080822093909355908416815220546107fa908263ffffffff61087816565b6001600160a01b0380841660008181526020819052604090819020939093559151908516907fddf252ad1be2c89b69c2b068fc378daa952ba7f163c4a11628f55a4df523b3ef9061071e908590610c7c565b600081848411156108705760405162461bcd60e51b81526004016104309190610acd565b505050900390565b60008282018381101561089d5760405162461bcd60e51b815260040161043090610b65565b9392505050565b6001600160a01b0382166108ca5760405162461bcd60e51b815260040161043090610c45565b6108d660008383610478565b6002546108e9908263ffffffff61087816565b6002556001600160a01b038216600090815260208190526040902054610915908263ffffffff61087816565b6001600160a01b0383166000818152602081905260408082209390935591519091907fddf252ad1be2c89b69c2b068fc378daa952ba7f163c4a11628f55a4df523b3ef90610964908590610c7c565b60405180910390a35050565b80356001600160a01b038116811461030157600080fd5b600060208284031215610998578081fd5b61089d8383610970565b600080604083850312156109b4578081fd5b6109be8484610970565b91506109cd8460208501610970565b90509250929050565b6000806000606084860312156109ea578081fd5b83356109f581610cfd565b92506020840135610a0581610cfd565b929592945050506040919091013590565b60008060408385031215610a28578182fd5b610a328484610970565b946020939093013593505050565b60008060408385031215610a52578182fd5b823591506109cd8460208501610970565b60008151808452815b81811015610a8857602081850181015186830182015201610a6c565b81811115610a995782602083870101525b50601f01601f19169290920160200192915050565b6001600160a01b0391909116815260200190565b901515815260200190565b60006020825261089d6020830184610a63565b60208082526023908201527f45524332303a207472616e7366657220746f20746865207a65726f206164647260408201526265737360e81b606082015260800190565b60208082526022908201527f45524332303a20617070726f766520746f20746865207a65726f206164647265604082015261737360f01b606082015260800190565b6020808252601b908201527f536166654d6174683a206164646974696f6e206f766572666c6f770000000000604082015260600190565b60208082526025908201527f45524332303a207472616e736665722066726f6d20746865207a65726f206164604082015264647265737360d81b606082015260800190565b60208082526024908201527f45524332303a20617070726f76652066726f6d20746865207a65726f206164646040820152637265737360e01b606082015260800190565b60208082526006908201526526a120a6ab1960d11b604082015260600190565b6020808252601f908201527f45524332303a206d696e7420746f20746865207a65726f206164647265737300604082015260600190565b90815260200190565b8881526001600160a01b038881166020830152878116604083015261010060608301819052600091610cb98483018a610a63565b8481036080860152610ccb818a610a63565b60a08601989098525060c08401959095525050911660e09091015295945050505050565b60ff91909116815260200190565b6001600160a01b0381168114610d1257600080fd5b5056fe45524332303a207472616e7366657220616d6f756e7420657863656564732062616c616e636545524332303a207472616e7366657220616d6f756e74206578636565647320616c6c6f77616e636545524332303a2064656372656173656420616c6c6f77616e63652062656c6f77207a65726fa2646970667358221220cd278645e36e22cf11d6a7cc013fb212c72beff098e9f68133eeadc8b726839a64736f6c63430006030033",
			"opcodes": "PUSH1 0x80 PUSH1 0x40 MSTORE CALLVALUE DUP1 ISZERO PUSH3 0x11 JUMPI PUSH1 0x0 DUP1 REVERT JUMPDEST POP PUSH3 0x2D PUSH4 0x1FFC9A7 PUSH1 0xE0 SHL PUSH1 0x1 PUSH1 0x1 PUSH1 0xE0 SHL SUB PUSH3 0x164 AND JUMP JUMPDEST PUSH1 0x40 DUP1 MLOAD DUP1 DUP3 ADD SWAP1 SWAP2 MSTORE PUSH1 0x10 DUP1 DUP3 MSTORE PUSH16 0x4E5345204172742045786368616E6765 PUSH1 0x80 SHL PUSH1 0x20 SWAP1 SWAP3 ADD SWAP2 DUP3 MSTORE PUSH3 0x66 SWAP2 PUSH1 0x13 SWAP2 PUSH3 0x1BF JUMP JUMPDEST POP PUSH1 0x40 DUP1 MLOAD DUP1 DUP3 ADD SWAP1 SWAP2 MSTORE PUSH1 0x4 DUP1 DUP3 MSTORE PUSH4 0x82A4A8B PUSH1 0xE3 SHL PUSH1 0x20 SWAP1 SWAP3 ADD SWAP2 DUP3 MSTORE PUSH3 0x94 SWAP2 PUSH1 0x14 SWAP2 PUSH3 0x1BF JUMP JUMPDEST POP PUSH3 0xB0 PUSH4 0x80AC58CD PUSH1 0xE0 SHL PUSH1 0x1 PUSH1 0x1 PUSH1 0xE0 SHL SUB PUSH3 0x164 AND JUMP JUMPDEST PUSH3 0xCB PUSH4 0x5B5E139F PUSH1 0xE0 SHL PUSH1 0x1 PUSH1 0x1 PUSH1 0xE0 SHL SUB PUSH3 0x164 AND JUMP JUMPDEST PUSH3 0xE6 PUSH4 0x780E9D63 PUSH1 0xE0 SHL PUSH1 0x1 PUSH1 0x1 PUSH1 0xE0 SHL SUB PUSH3 0x164 AND JUMP JUMPDEST PUSH1 0x11 DUP1 SLOAD PUSH1 0x1 PUSH1 0x1 PUSH1 0xA0 SHL SUB NOT AND CALLER SWAP1 DUP2 OR SWAP1 SWAP2 SSTORE PUSH1 0x40 MLOAD PUSH1 0x0 SWAP2 PUSH1 0x1 SWAP2 DUP4 SWAP1 PUSH3 0x111 SWAP1 PUSH3 0x244 JUMP JUMPDEST PUSH3 0x120 SWAP5 SWAP4 SWAP3 SWAP2 SWAP1 PUSH3 0x2A9 JUMP JUMPDEST PUSH1 0x40 MLOAD DUP1 SWAP2 SUB SWAP1 PUSH1 0x0 CREATE DUP1 ISZERO DUP1 ISZERO PUSH3 0x13D JUMPI RETURNDATASIZE PUSH1 0x0 DUP1 RETURNDATACOPY RETURNDATASIZE PUSH1 0x0 REVERT JUMPDEST POP PUSH1 0xE DUP1 SLOAD PUSH1 0x1 PUSH1 0x1 PUSH1 0xA0 SHL SUB NOT AND PUSH1 0x1 PUSH1 0x1 PUSH1 0xA0 SHL SUB SWAP3 SWAP1 SWAP3 AND SWAP2 SWAP1 SWAP2 OR SWAP1 SSTORE PUSH3 0x2EF JUMP JUMPDEST PUSH1 0x1 PUSH1 0x1 PUSH1 0xE0 SHL SUB NOT DUP1 DUP3 AND EQ ISZERO PUSH3 0x19A JUMPI PUSH1 0x40 MLOAD PUSH3 0x461BCD PUSH1 0xE5 SHL DUP2 MSTORE PUSH1 0x4 ADD PUSH3 0x191 SWAP1 PUSH3 0x272 JUMP JUMPDEST PUSH1 0x40 MLOAD DUP1 SWAP2 SUB SWAP1 REVERT JUMPDEST PUSH1 0x1 PUSH1 0x1 PUSH1 0xE0 SHL SUB NOT AND PUSH1 0x0 SWAP1 DUP2 MSTORE PUSH1 0x20 DUP2 SWAP1 MSTORE PUSH1 0x40 SWAP1 KECCAK256 DUP1 SLOAD PUSH1 0xFF NOT AND PUSH1 0x1 OR SWAP1 SSTORE JUMP JUMPDEST DUP3 DUP1 SLOAD PUSH1 0x1 DUP2 PUSH1 0x1 AND ISZERO PUSH2 0x100 MUL SUB AND PUSH1 0x2 SWAP1 DIV SWAP1 PUSH1 0x0 MSTORE PUSH1 0x20 PUSH1 0x0 KECCAK256 SWAP1 PUSH1 0x1F ADD PUSH1 0x20 SWAP1 DIV DUP2 ADD SWAP3 DUP3 PUSH1 0x1F LT PUSH3 0x202 JUMPI DUP1 MLOAD PUSH1 0xFF NOT AND DUP4 DUP1 ADD OR DUP6 SSTORE PUSH3 0x232 JUMP JUMPDEST DUP3 DUP1 ADD PUSH1 0x1 ADD DUP6 SSTORE DUP3 ISZERO PUSH3 0x232 JUMPI SWAP2 DUP3 ADD JUMPDEST DUP3 DUP2 GT ISZERO PUSH3 0x232 JUMPI DUP3 MLOAD DUP3 SSTORE SWAP2 PUSH1 0x20 ADD SWAP2 SWAP1 PUSH1 0x1 ADD SWAP1 PUSH3 0x215 JUMP JUMPDEST POP PUSH3 0x240 SWAP3 SWAP2 POP PUSH3 0x252 JUMP JUMPDEST POP SWAP1 JUMP JUMPDEST PUSH2 0x13D1 DUP1 PUSH3 0x5434 DUP4 CODECOPY ADD SWAP1 JUMP JUMPDEST PUSH3 0x26F SWAP2 SWAP1 JUMPDEST DUP1 DUP3 GT ISZERO PUSH3 0x240 JUMPI PUSH1 0x0 DUP2 SSTORE PUSH1 0x1 ADD PUSH3 0x259 JUMP JUMPDEST SWAP1 JUMP JUMPDEST PUSH1 0x20 DUP1 DUP3 MSTORE PUSH1 0x1C SWAP1 DUP3 ADD MSTORE PUSH32 0x4552433136353A20696E76616C696420696E7465726661636520696400000000 PUSH1 0x40 DUP3 ADD MSTORE PUSH1 0x60 ADD SWAP1 JUMP JUMPDEST PUSH1 0xA0 DUP1 DUP3 MSTORE PUSH1 0x6 SWAP1 DUP3 ADD MSTORE PUSH6 0x15D053131155 PUSH1 0xD2 SHL PUSH1 0xC0 DUP3 ADD MSTORE PUSH1 0x20 DUP2 ADD SWAP5 SWAP1 SWAP5 MSTORE PUSH1 0x40 DUP5 ADD SWAP3 SWAP1 SWAP3 MSTORE PUSH1 0x1 PUSH1 0x1 PUSH1 0xA0 SHL SUB AND PUSH1 0x60 DUP4 ADD MSTORE PUSH1 0xFF AND PUSH1 0x80 DUP3 ADD MSTORE PUSH1 0xE0 ADD SWAP1 JUMP JUMPDEST PUSH2 0x5135 DUP1 PUSH3 0x2FF PUSH1 0x0 CODECOPY PUSH1 0x0 RETURN INVALID PUSH1 0x80 PUSH1 0x40 MSTORE CALLVALUE DUP1 ISZERO PUSH3 0x11 JUMPI PUSH1 0x0 DUP1 REVERT JUMPDEST POP PUSH1 0x4 CALLDATASIZE LT PUSH3 0x154 JUMPI PUSH1 0x0 CALLDATALOAD PUSH1 0xE0 SHR DUP1 PUSH4 0x6352211E GT PUSH3 0xC9 JUMPI DUP1 PUSH4 0xA22CB465 GT PUSH3 0x87 JUMPI DUP1 PUSH4 0xA22CB465 EQ PUSH3 0x2ED JUMPI DUP1 PUSH4 0xB88D4FDE EQ PUSH3 0x304 JUMPI DUP1 PUSH4 0xC87B56DD EQ PUSH3 0x31B JUMPI DUP1 PUSH4 0xCF9CD8F8 EQ PUSH3 0x332 JUMPI DUP1 PUSH4 0xE985E9C5 EQ PUSH3 0x349 JUMPI DUP1 PUSH4 0xF1DFAD8F EQ PUSH3 0x360 JUMPI PUSH3 0x154 JUMP JUMPDEST DUP1 PUSH4 0x6352211E EQ PUSH3 0x287 JUMPI DUP1 PUSH4 0x70A08231 EQ PUSH3 0x29E JUMPI DUP1 PUSH4 0x71DF284D EQ PUSH3 0x2B5 JUMPI DUP1 PUSH4 0x95D89B41 EQ PUSH3 0x2CC JUMPI DUP1 PUSH4 0x9C9A1061 EQ PUSH3 0x2D6 JUMPI PUSH3 0x154 JUMP JUMPDEST DUP1 PUSH4 0x23B872DD GT PUSH3 0x117 JUMPI DUP1 PUSH4 0x23B872DD EQ PUSH3 0x206 JUMPI DUP1 PUSH4 0x3563922F EQ PUSH3 0x21D JUMPI DUP1 PUSH4 0x3AE64E0C EQ PUSH3 0x234 JUMPI DUP1 PUSH4 0x42842E0E EQ PUSH3 0x206 JUMPI DUP1 PUSH4 0x5778472A EQ PUSH3 0x261 JUMPI PUSH3 0x154 JUMP JUMPDEST DUP1 PUSH4 0x1FFC9A7 EQ PUSH3 0x159 JUMPI DUP1 PUSH4 0x2A1C41D EQ PUSH3 0x188 JUMPI DUP1 PUSH4 0x6FDDE03 EQ PUSH3 0x1AE JUMPI DUP1 PUSH4 0x81812FC EQ PUSH3 0x1C7 JUMPI DUP1 PUSH4 0x95EA7B3 EQ PUSH3 0x1ED JUMPI JUMPDEST PUSH1 0x0 DUP1 REVERT JUMPDEST PUSH3 0x170 PUSH3 0x16A CALLDATASIZE PUSH1 0x4 PUSH3 0x3339 JUMP JUMPDEST PUSH3 0x377 JUMP JUMPDEST PUSH1 0x40 MLOAD PUSH3 0x17F SWAP2 SWAP1 PUSH3 0x3702 JUMP JUMPDEST PUSH1 0x40 MLOAD DUP1 SWAP2 SUB SWAP1 RETURN JUMPDEST PUSH3 0x19F PUSH3 0x199 CALLDATASIZE PUSH1 0x4 PUSH3 0x3390 JUMP JUMPDEST PUSH3 0x396 JUMP JUMPDEST PUSH1 0x40 MLOAD PUSH3 0x17F SWAP2 SWAP1 PUSH3 0x3B76 JUMP JUMPDEST PUSH3 0x1B8 PUSH3 0x436 JUMP JUMPDEST PUSH1 0x40 MLOAD PUSH3 0x17F SWAP2 SWAP1 PUSH3 0x3766 JUMP JUMPDEST PUSH3 0x1DE PUSH3 0x1D8 CALLDATASIZE PUSH1 0x4 PUSH3 0x3320 JUMP JUMPDEST PUSH3 0x4D1 JUMP JUMPDEST PUSH1 0x40 MLOAD PUSH3 0x17F SWAP2 SWAP1 PUSH3 0x35E2 JUMP JUMPDEST PUSH3 0x204 PUSH3 0x1FE CALLDATASIZE PUSH1 0x4 PUSH3 0x32D3 JUMP JUMPDEST PUSH3 0x52D JUMP JUMPDEST STOP JUMPDEST PUSH3 0x204 PUSH3 0x217 CALLDATASIZE PUSH1 0x4 PUSH3 0x31AB JUMP JUMPDEST PUSH3 0x5BB JUMP JUMPDEST PUSH3 0x204 PUSH3 0x22E CALLDATASIZE PUSH1 0x4 PUSH3 0x32D3 JUMP JUMPDEST PUSH3 0x5C0 JUMP JUMPDEST PUSH3 0x24B PUSH3 0x245 CALLDATASIZE PUSH1 0x4 PUSH3 0x3320 JUMP JUMPDEST PUSH3 0x659 JUMP JUMPDEST PUSH1 0x40 MLOAD PUSH3 0x17F SWAP9 SWAP8 SWAP7 SWAP6 SWAP5 SWAP4 SWAP3 SWAP2 SWAP1 PUSH3 0x3B96 JUMP JUMPDEST PUSH3 0x278 PUSH3 0x272 CALLDATASIZE PUSH1 0x4 PUSH3 0x3320 JUMP JUMPDEST PUSH3 0x726 JUMP JUMPDEST PUSH1 0x40 MLOAD PUSH3 0x17F SWAP2 SWAP1 PUSH3 0x3AC6 JUMP JUMPDEST PUSH3 0x1DE PUSH3 0x298 CALLDATASIZE PUSH1 0x4 PUSH3 0x3320 JUMP JUMPDEST PUSH3 0x7E9 JUMP JUMPDEST PUSH3 0x19F PUSH3 0x2AF CALLDATASIZE PUSH1 0x4 PUSH3 0x314F JUMP JUMPDEST PUSH3 0x804 JUMP JUMPDEST PUSH3 0x204 PUSH3 0x2C6 CALLDATASIZE PUSH1 0x4 PUSH3 0x347E JUMP JUMPDEST PUSH3 0x81F JUMP JUMPDEST PUSH3 0x1B8 PUSH3 0x8F1 JUMP JUMPDEST PUSH3 0x204 PUSH3 0x2E7 CALLDATASIZE PUSH1 0x4 PUSH3 0x3320 JUMP JUMPDEST PUSH3 0x955 JUMP JUMPDEST PUSH3 0x204 PUSH3 0x2FE CALLDATASIZE PUSH1 0x4 PUSH3 0x32A1 JUMP JUMPDEST PUSH3 0xFA0 JUMP JUMPDEST PUSH3 0x204 PUSH3 0x315 CALLDATASIZE PUSH1 0x4 PUSH3 0x31F0 JUMP JUMPDEST PUSH3 0x1004 JUMP JUMPDEST PUSH3 0x1B8 PUSH3 0x32C CALLDATASIZE PUSH1 0x4 PUSH3 0x3320 JUMP JUMPDEST PUSH3 0x100A JUMP JUMPDEST PUSH3 0x19F PUSH3 0x343 CALLDATASIZE PUSH1 0x4 PUSH3 0x314F JUMP JUMPDEST PUSH3 0x10AF JUMP JUMPDEST PUSH3 0x170 PUSH3 0x35A CALLDATASIZE PUSH1 0x4 PUSH3 0x316E JUMP JUMPDEST PUSH3 0x1138 JUMP JUMPDEST PUSH3 0x204 PUSH3 0x371 CALLDATASIZE PUSH1 0x4 PUSH3 0x3525 JUMP JUMPDEST PUSH3 0x1166 JUMP JUMPDEST PUSH1 0x1 PUSH1 0x1 PUSH1 0xE0 SHL SUB NOT AND PUSH1 0x0 SWAP1 DUP2 MSTORE PUSH1 0x20 DUP2 SWAP1 MSTORE PUSH1 0x40 SWAP1 KECCAK256 SLOAD PUSH1 0xFF AND SWAP1 JUMP JUMPDEST PUSH1 0x0 DUP3 DUP2 MSTORE PUSH1 0xD PUSH1 0x20 MSTORE PUSH1 0x40 DUP1 DUP3 KECCAK256 SLOAD SWAP1 MLOAD PUSH4 0x6EB1769F PUSH1 0xE1 SHL DUP2 MSTORE PUSH1 0x1 PUSH1 0x1 PUSH1 0xA0 SHL SUB SWAP1 SWAP2 AND SWAP1 DUP2 SWAP1 PUSH4 0xDD62ED3E SWAP1 PUSH3 0x3D8 SWAP1 DUP7 SWAP1 ADDRESS SWAP1 PUSH1 0x4 ADD PUSH3 0x3635 JUMP JUMPDEST PUSH1 0x20 PUSH1 0x40 MLOAD DUP1 DUP4 SUB DUP2 DUP7 DUP1 EXTCODESIZE ISZERO DUP1 ISZERO PUSH3 0x3F1 JUMPI PUSH1 0x0 DUP1 REVERT JUMPDEST POP GAS STATICCALL ISZERO DUP1 ISZERO PUSH3 0x406 JUMPI RETURNDATASIZE PUSH1 0x0 DUP1 RETURNDATACOPY RETURNDATASIZE PUSH1 0x0 REVERT JUMPDEST POP POP POP POP PUSH1 0x40 MLOAD RETURNDATASIZE PUSH1 0x1F NOT PUSH1 0x1F DUP3 ADD AND DUP3 ADD DUP1 PUSH1 0x40 MSTORE POP PUSH3 0x42C SWAP2 SWAP1 DUP2 ADD SWAP1 PUSH3 0x3377 JUMP JUMPDEST SWAP2 POP POP JUMPDEST SWAP3 SWAP2 POP POP JUMP JUMPDEST PUSH1 0x13 DUP1 SLOAD PUSH1 0x40 DUP1 MLOAD PUSH1 0x20 PUSH1 0x1F PUSH1 0x2 PUSH1 0x0 NOT PUSH2 0x100 PUSH1 0x1 DUP9 AND ISZERO MUL ADD SWAP1 SWAP6 AND SWAP5 SWAP1 SWAP5 DIV SWAP4 DUP5 ADD DUP2 SWAP1 DIV DUP2 MUL DUP3 ADD DUP2 ADD SWAP1 SWAP3 MSTORE DUP3 DUP2 MSTORE PUSH1 0x60 SWAP4 SWAP1 SWAP3 SWAP1 SWAP2 DUP4 ADD DUP3 DUP3 DUP1 ISZERO PUSH3 0x4C6 JUMPI DUP1 PUSH1 0x1F LT PUSH3 0x49A JUMPI PUSH2 0x100 DUP1 DUP4 SLOAD DIV MUL DUP4 MSTORE SWAP2 PUSH1 0x20 ADD SWAP2 PUSH3 0x4C6 JUMP JUMPDEST DUP3 ADD SWAP2 SWAP1 PUSH1 0x0 MSTORE PUSH1 0x20 PUSH1 0x0 KECCAK256 SWAP1 JUMPDEST DUP2 SLOAD DUP2 MSTORE SWAP1 PUSH1 0x1 ADD SWAP1 PUSH1 0x20 ADD DUP1 DUP4 GT PUSH3 0x4A8 JUMPI DUP3 SWAP1 SUB PUSH1 0x1F AND DUP3 ADD SWAP2 JUMPDEST POP POP POP POP POP SWAP1 POP JUMPDEST SWAP1 JUMP JUMPDEST PUSH1 0x0 DUP2 DUP2 MSTORE PUSH1 0x6 PUSH1 0x20 MSTORE PUSH1 0x40 DUP2 KECCAK256 SLOAD PUSH1 0x1 PUSH1 0x1 PUSH1 0xA0 SHL SUB AND PUSH3 0x511 JUMPI PUSH1 0x40 MLOAD PUSH3 0x461BCD PUSH1 0xE5 SHL DUP2 MSTORE PUSH1 0x4 ADD PUSH3 0x508 SWAP1 PUSH3 0x3980 JUMP JUMPDEST PUSH1 0x40 MLOAD DUP1 SWAP2 SUB SWAP1 REVERT JUMPDEST POP PUSH1 0x0 SWAP1 DUP2 MSTORE PUSH1 0xA PUSH1 0x20 MSTORE PUSH1 0x40 SWAP1 KECCAK256 SLOAD PUSH1 0x1 PUSH1 0x1 PUSH1 0xA0 SHL SUB AND SWAP1 JUMP JUMPDEST PUSH1 0x0 PUSH3 0x53A DUP3 PUSH3 0x7E9 JUMP JUMPDEST SWAP1 POP DUP1 PUSH1 0x1 PUSH1 0x1 PUSH1 0xA0 SHL SUB AND DUP4 PUSH1 0x1 PUSH1 0x1 PUSH1 0xA0 SHL SUB AND EQ ISZERO PUSH3 0x571 JUMPI PUSH1 0x40 MLOAD PUSH3 0x461BCD PUSH1 0xE5 SHL DUP2 MSTORE PUSH1 0x4 ADD PUSH3 0x508 SWAP1 PUSH3 0x39CC JUMP JUMPDEST CALLER PUSH1 0x1 PUSH1 0x1 PUSH1 0xA0 SHL SUB DUP3 AND EQ DUP1 PUSH3 0x590 JUMPI POP PUSH3 0x590 DUP2 CALLER PUSH3 0x1138 JUMP JUMPDEST PUSH3 0x5AF JUMPI PUSH1 0x40 MLOAD PUSH3 0x461BCD PUSH1 0xE5 SHL DUP2 MSTORE PUSH1 0x4 ADD PUSH3 0x508 SWAP1 PUSH3 0x38AC JUMP JUMPDEST PUSH3 0x5BB DUP4 DUP4 PUSH3 0x1622 JUMP JUMPDEST POP POP POP JUMP JUMPDEST PUSH1 0x11 SLOAD PUSH1 0x1 PUSH1 0x1 PUSH1 0xA0 SHL SUB AND CALLER EQ PUSH3 0x5ED JUMPI PUSH1 0x40 MLOAD PUSH3 0x461BCD PUSH1 0xE5 SHL DUP2 MSTORE PUSH1 0x4 ADD PUSH3 0x508 SWAP1 PUSH3 0x3A8E JUMP JUMPDEST PUSH1 0xE SLOAD PUSH1 0x40 MLOAD PUSH4 0xF38CA0D PUSH1 0xE3 SHL DUP2 MSTORE PUSH1 0x1 PUSH1 0x1 PUSH1 0xA0 SHL SUB SWAP1 SWAP2 AND SWAP1 PUSH4 0x79C65068 SWAP1 PUSH3 0x621 SWAP1 DUP6 SWAP1 DUP6 SWAP1 PUSH1 0x4 ADD PUSH3 0x3673 JUMP JUMPDEST PUSH1 0x0 PUSH1 0x40 MLOAD DUP1 DUP4 SUB DUP2 PUSH1 0x0 DUP8 DUP1 EXTCODESIZE ISZERO DUP1 ISZERO PUSH3 0x63C JUMPI PUSH1 0x0 DUP1 REVERT JUMPDEST POP GAS CALL ISZERO DUP1 ISZERO PUSH3 0x651 JUMPI RETURNDATASIZE PUSH1 0x0 DUP1 RETURNDATACOPY RETURNDATASIZE PUSH1 0x0 REVERT JUMPDEST POP POP POP POP POP POP JUMP JUMPDEST PUSH1 0x0 DUP2 DUP2 MSTORE PUSH1 0xD PUSH1 0x20 SWAP1 DUP2 MSTORE PUSH1 0x40 DUP1 DUP4 KECCAK256 SLOAD PUSH1 0x6 SWAP1 SWAP3 MSTORE DUP1 DUP4 KECCAK256 SLOAD SWAP1 MLOAD PUSH4 0x7CDBCAC5 PUSH1 0xE1 SHL DUP2 MSTORE DUP4 SWAP3 DUP4 SWAP3 PUSH1 0x60 SWAP3 DUP4 SWAP3 DUP6 SWAP3 DUP4 SWAP3 DUP4 SWAP3 PUSH1 0x1 PUSH1 0x1 PUSH1 0xA0 SHL SUB SWAP1 DUP2 AND SWAP3 PUSH4 0xF9B7958A SWAP3 PUSH3 0x6B3 SWAP3 DUP15 SWAP3 AND SWAP1 PUSH1 0x4 ADD PUSH3 0x3B7F JUMP JUMPDEST PUSH1 0x0 PUSH1 0x40 MLOAD DUP1 DUP4 SUB DUP2 DUP7 DUP1 EXTCODESIZE ISZERO DUP1 ISZERO PUSH3 0x6CC JUMPI PUSH1 0x0 DUP1 REVERT JUMPDEST POP GAS STATICCALL ISZERO DUP1 ISZERO PUSH3 0x6E1 JUMPI RETURNDATASIZE PUSH1 0x0 DUP1 RETURNDATACOPY RETURNDATASIZE PUSH1 0x0 REVERT JUMPDEST POP POP POP POP PUSH1 0x40 MLOAD RETURNDATASIZE PUSH1 0x0 DUP3 RETURNDATACOPY PUSH1 0x1F RETURNDATASIZE SWAP1 DUP2 ADD PUSH1 0x1F NOT AND DUP3 ADD PUSH1 0x40 MSTORE PUSH3 0x70B SWAP2 SWAP1 DUP2 ADD SWAP1 PUSH3 0x33B7 JUMP JUMPDEST SWAP8 POP SWAP8 POP SWAP8 POP SWAP8 POP SWAP8 POP SWAP8 POP SWAP8 POP SWAP8 POP SWAP2 SWAP4 SWAP6 SWAP8 POP SWAP2 SWAP4 SWAP6 SWAP8 JUMP JUMPDEST PUSH3 0x730 PUSH3 0x2F3B JUMP JUMPDEST POP PUSH1 0x0 SWAP1 DUP2 MSTORE PUSH1 0xF PUSH1 0x20 SWAP1 DUP2 MSTORE PUSH1 0x40 SWAP2 DUP3 SWAP1 KECCAK256 DUP3 MLOAD PUSH2 0x1C0 DUP2 ADD DUP5 MSTORE DUP2 SLOAD PUSH2 0x180 DUP3 ADD SWAP1 DUP2 MSTORE PUSH1 0x1 DUP4 ADD SLOAD PUSH2 0x1A0 DUP4 ADD MSTORE DUP2 MSTORE PUSH1 0x2 DUP3 ADD SLOAD SWAP3 DUP2 ADD SWAP3 SWAP1 SWAP3 MSTORE PUSH1 0x3 DUP2 ADD SLOAD SWAP3 DUP3 ADD SWAP3 SWAP1 SWAP3 MSTORE PUSH1 0x4 DUP3 ADD SLOAD PUSH1 0x1 PUSH1 0x1 PUSH1 0xA0 SHL SUB SWAP1 DUP2 AND PUSH1 0x60 DUP4 ADD MSTORE PUSH1 0x5 DUP4 ADD SLOAD AND PUSH1 0x80 DUP3 ADD MSTORE PUSH1 0x6 DUP3 ADD SLOAD PUSH1 0xA0 DUP3 ADD MSTORE PUSH1 0x7 DUP3 ADD SLOAD PUSH1 0xC0 DUP3 ADD MSTORE PUSH1 0x8 DUP3 ADD SLOAD PUSH1 0xE0 DUP3 ADD MSTORE PUSH1 0x9 DUP3 ADD SLOAD PUSH2 0x100 DUP3 ADD MSTORE PUSH1 0xA DUP3 ADD SLOAD PUSH2 0x120 DUP3 ADD MSTORE PUSH1 0xB DUP3 ADD SLOAD PUSH2 0x140 DUP3 ADD MSTORE PUSH1 0xC SWAP1 SWAP2 ADD SLOAD PUSH2 0x160 DUP3 ADD MSTORE SWAP1 JUMP JUMPDEST PUSH1 0x0 SWAP1 DUP2 MSTORE PUSH1 0x6 PUSH1 0x20 MSTORE PUSH1 0x40 SWAP1 KECCAK256 SLOAD PUSH1 0x1 PUSH1 0x1 PUSH1 0xA0 SHL SUB AND SWAP1 JUMP JUMPDEST PUSH1 0x1 PUSH1 0x1 PUSH1 0xA0 SHL SUB AND PUSH1 0x0 SWAP1 DUP2 MSTORE PUSH1 0x3 PUSH1 0x20 MSTORE PUSH1 0x40 SWAP1 KECCAK256 SLOAD SWAP1 JUMP JUMPDEST PUSH1 0x1 PUSH1 0x1 PUSH1 0xA0 SHL SUB DUP4 AND PUSH3 0x833 JUMPI PUSH1 0x0 DUP1 REVERT JUMPDEST PUSH1 0x11 SLOAD PUSH1 0x1 PUSH1 0x1 PUSH1 0xA0 SHL SUB AND CALLER EQ PUSH3 0x84B JUMPI PUSH1 0x0 DUP1 REVERT JUMPDEST PUSH3 0x857 CALLER DUP10 PUSH3 0x1650 JUMP JUMPDEST POP PUSH1 0x0 DUP9 DUP2 MSTORE PUSH1 0x8 PUSH1 0x20 MSTORE PUSH1 0x40 SWAP1 KECCAK256 PUSH3 0x873 SWAP1 DUP4 DUP4 PUSH3 0x2FB6 JUMP JUMPDEST POP PUSH1 0x0 DUP8 DUP8 DUP8 DUP8 DUP8 PUSH1 0x0 PUSH1 0x40 MLOAD PUSH3 0x88B SWAP1 PUSH3 0x303B JUMP JUMPDEST PUSH3 0x89C SWAP7 SWAP6 SWAP5 SWAP4 SWAP3 SWAP2 SWAP1 PUSH3 0x370D JUMP JUMPDEST PUSH1 0x40 MLOAD DUP1 SWAP2 SUB SWAP1 PUSH1 0x0 CREATE DUP1 ISZERO DUP1 ISZERO PUSH3 0x8B9 JUMPI RETURNDATASIZE PUSH1 0x0 DUP1 RETURNDATACOPY RETURNDATASIZE PUSH1 0x0 REVERT JUMPDEST POP PUSH1 0x0 SWAP10 DUP11 MSTORE PUSH1 0xD PUSH1 0x20 MSTORE PUSH1 0x40 SWAP1 SWAP10 KECCAK256 DUP1 SLOAD PUSH1 0x1 PUSH1 0x1 PUSH1 0xA0 SHL SUB NOT AND PUSH1 0x1 PUSH1 0x1 PUSH1 0xA0 SHL SUB SWAP1 SWAP11 AND SWAP10 SWAP1 SWAP10 OR SWAP1 SWAP9 SSTORE POP POP POP POP POP POP POP POP JUMP JUMPDEST PUSH1 0x14 DUP1 SLOAD PUSH1 0x40 DUP1 MLOAD PUSH1 0x20 PUSH1 0x1F PUSH1 0x2 PUSH1 0x0 NOT PUSH2 0x100 PUSH1 0x1 DUP9 AND ISZERO MUL ADD SWAP1 SWAP6 AND SWAP5 SWAP1 SWAP5 DIV SWAP4 DUP5 ADD DUP2 SWAP1 DIV DUP2 MUL DUP3 ADD DUP2 ADD SWAP1 SWAP3 MSTORE DUP3 DUP2 MSTORE PUSH1 0x60 SWAP4 SWAP1 SWAP3 SWAP1 SWAP2 DUP4 ADD DUP3 DUP3 DUP1 ISZERO PUSH3 0x4C6 JUMPI DUP1 PUSH1 0x1F LT PUSH3 0x49A JUMPI PUSH2 0x100 DUP1 DUP4 SLOAD DIV MUL DUP4 MSTORE SWAP2 PUSH1 0x20 ADD SWAP2 PUSH3 0x4C6 JUMP JUMPDEST CALLER PUSH3 0x960 PUSH3 0x2F3B JUMP JUMPDEST POP PUSH1 0x0 DUP3 DUP2 MSTORE PUSH1 0xF PUSH1 0x20 SWAP1 DUP2 MSTORE PUSH1 0x40 SWAP2 DUP3 SWAP1 KECCAK256 DUP3 MLOAD PUSH2 0x1C0 DUP2 ADD DUP5 MSTORE DUP2 SLOAD PUSH2 0x180 DUP3 ADD SWAP1 DUP2 MSTORE PUSH1 0x1 DUP4 ADD SLOAD PUSH2 0x1A0 DUP4 ADD MSTORE DUP2 MSTORE PUSH1 0x2 DUP3 ADD SLOAD SWAP3 DUP2 ADD SWAP3 SWAP1 SWAP3 MSTORE PUSH1 0x3 DUP2 ADD SLOAD SWAP3 DUP3 ADD SWAP3 SWAP1 SWAP3 MSTORE PUSH1 0x4 DUP3 ADD SLOAD PUSH1 0x1 PUSH1 0x1 PUSH1 0xA0 SHL SUB SWAP1 DUP2 AND PUSH1 0x60 DUP4 ADD MSTORE PUSH1 0x5 DUP4 ADD SLOAD AND PUSH1 0x80 DUP3 ADD MSTORE PUSH1 0x6 DUP3 ADD SLOAD PUSH1 0xA0 DUP3 ADD MSTORE PUSH1 0x7 DUP3 ADD SLOAD PUSH1 0xC0 DUP3 ADD DUP2 SWAP1 MSTORE PUSH1 0x8 DUP4 ADD SLOAD PUSH1 0xE0 DUP4 ADD MSTORE PUSH1 0x9 DUP4 ADD SLOAD PUSH2 0x100 DUP4 ADD MSTORE PUSH1 0xA DUP4 ADD SLOAD PUSH2 0x120 DUP4 ADD MSTORE PUSH1 0xB DUP4 ADD SLOAD PUSH2 0x140 DUP4 ADD MSTORE PUSH1 0xC SWAP1 SWAP3 ADD SLOAD PUSH2 0x160 DUP3 ADD MSTORE SWAP1 PUSH3 0xA38 JUMPI PUSH1 0x40 MLOAD PUSH3 0x461BCD PUSH1 0xE5 SHL DUP2 MSTORE PUSH1 0x4 ADD PUSH3 0x508 SWAP1 PUSH3 0x37E9 JUMP JUMPDEST DUP1 PUSH2 0x160 ADD MLOAD PUSH1 0x1 EQ PUSH3 0xA60 JUMPI PUSH1 0x40 MLOAD PUSH3 0x461BCD PUSH1 0xE5 SHL DUP2 MSTORE PUSH1 0x4 ADD PUSH3 0x508 SWAP1 PUSH3 0x3805 JUMP JUMPDEST DUP2 PUSH1 0x1 PUSH1 0x1 PUSH1 0xA0 SHL SUB AND DUP2 PUSH1 0x60 ADD MLOAD PUSH1 0x1 PUSH1 0x1 PUSH1 0xA0 SHL SUB AND EQ ISZERO PUSH3 0xA99 JUMPI PUSH1 0x40 MLOAD PUSH3 0x461BCD PUSH1 0xE5 SHL DUP2 MSTORE PUSH1 0x4 ADD PUSH3 0x508 SWAP1 PUSH3 0x388F JUMP JUMPDEST PUSH1 0x0 PUSH3 0xAB9 DUP3 PUSH2 0x100 ADD MLOAD DUP4 PUSH1 0xC0 ADD MLOAD PUSH3 0x182A SWAP1 SWAP2 SWAP1 PUSH4 0xFFFFFFFF AND JUMP JUMPDEST PUSH1 0xE SLOAD PUSH1 0x40 MLOAD PUSH4 0x6EB1769F PUSH1 0xE1 SHL DUP2 MSTORE SWAP2 SWAP3 POP PUSH1 0x0 SWAP2 PUSH1 0x1 PUSH1 0x1 PUSH1 0xA0 SHL SUB SWAP1 SWAP2 AND SWAP1 PUSH4 0xDD62ED3E SWAP1 PUSH3 0xAF3 SWAP1 DUP8 SWAP1 ADDRESS SWAP1 PUSH1 0x4 ADD PUSH3 0x3635 JUMP JUMPDEST PUSH1 0x20 PUSH1 0x40 MLOAD DUP1 DUP4 SUB DUP2 DUP7 DUP1 EXTCODESIZE ISZERO DUP1 ISZERO PUSH3 0xB0C JUMPI PUSH1 0x0 DUP1 REVERT JUMPDEST POP GAS STATICCALL ISZERO DUP1 ISZERO PUSH3 0xB21 JUMPI RETURNDATASIZE PUSH1 0x0 DUP1 RETURNDATACOPY RETURNDATASIZE PUSH1 0x0 REVERT JUMPDEST POP POP POP POP PUSH1 0x40 MLOAD RETURNDATASIZE PUSH1 0x1F NOT PUSH1 0x1F DUP3 ADD AND DUP3 ADD DUP1 PUSH1 0x40 MSTORE POP PUSH3 0xB47 SWAP2 SWAP1 DUP2 ADD SWAP1 PUSH3 0x3377 JUMP JUMPDEST SWAP1 POP DUP2 DUP2 LT PUSH3 0xF7F JUMPI PUSH1 0xA0 DUP4 ADD MLOAD PUSH1 0x0 SWAP1 DUP2 MSTORE PUSH1 0xD PUSH1 0x20 MSTORE PUSH1 0x40 SWAP1 DUP2 SWAP1 KECCAK256 SLOAD PUSH1 0x11 SLOAD PUSH1 0x60 DUP7 ADD MLOAD PUSH1 0xC0 DUP8 ADD MLOAD SWAP4 MLOAD PUSH4 0x23B872DD PUSH1 0xE0 SHL DUP2 MSTORE PUSH1 0x1 PUSH1 0x1 PUSH1 0xA0 SHL SUB SWAP4 DUP5 AND SWAP5 DUP6 SWAP5 PUSH4 0x23B872DD SWAP5 PUSH3 0xBA8 SWAP5 SWAP2 AND SWAP3 SWAP1 SWAP2 SWAP1 PUSH1 0x4 ADD PUSH3 0x364F JUMP JUMPDEST PUSH1 0x20 PUSH1 0x40 MLOAD DUP1 DUP4 SUB DUP2 PUSH1 0x0 DUP8 DUP1 EXTCODESIZE ISZERO DUP1 ISZERO PUSH3 0xBC3 JUMPI PUSH1 0x0 DUP1 REVERT JUMPDEST POP GAS CALL ISZERO DUP1 ISZERO PUSH3 0xBD8 JUMPI RETURNDATASIZE PUSH1 0x0 DUP1 RETURNDATACOPY RETURNDATASIZE PUSH1 0x0 REVERT JUMPDEST POP POP POP POP PUSH1 0x40 MLOAD RETURNDATASIZE PUSH1 0x1F NOT PUSH1 0x1F DUP3 ADD AND DUP3 ADD DUP1 PUSH1 0x40 MSTORE POP PUSH3 0xBFE SWAP2 SWAP1 DUP2 ADD SWAP1 PUSH3 0x3301 JUMP JUMPDEST ISZERO PUSH3 0xC74 JUMPI PUSH1 0x60 DUP5 ADD MLOAD PUSH1 0xC0 DUP6 ADD MLOAD PUSH1 0x40 MLOAD PUSH4 0x363798F9 PUSH1 0xE1 SHL DUP2 MSTORE PUSH1 0x1 PUSH1 0x1 PUSH1 0xA0 SHL SUB DUP5 AND SWAP3 PUSH4 0x6C6F31F2 SWAP3 PUSH3 0xC3A SWAP3 PUSH1 0x4 ADD PUSH3 0x3673 JUMP JUMPDEST PUSH1 0x0 PUSH1 0x40 MLOAD DUP1 DUP4 SUB DUP2 PUSH1 0x0 DUP8 DUP1 EXTCODESIZE ISZERO DUP1 ISZERO PUSH3 0xC55 JUMPI PUSH1 0x0 DUP1 REVERT JUMPDEST POP GAS CALL ISZERO DUP1 ISZERO PUSH3 0xC6A JUMPI RETURNDATASIZE PUSH1 0x0 DUP1 RETURNDATACOPY RETURNDATASIZE PUSH1 0x0 REVERT JUMPDEST POP POP POP POP PUSH3 0xC8E JUMP JUMPDEST PUSH1 0x40 MLOAD PUSH3 0x461BCD PUSH1 0xE5 SHL DUP2 MSTORE PUSH1 0x4 ADD PUSH3 0x508 SWAP1 PUSH3 0x3AAA JUMP JUMPDEST PUSH1 0xE SLOAD PUSH1 0x60 DUP6 ADD MLOAD PUSH1 0x40 MLOAD PUSH4 0x23B872DD PUSH1 0xE0 SHL DUP2 MSTORE PUSH1 0x1 PUSH1 0x1 PUSH1 0xA0 SHL SUB SWAP1 SWAP3 AND SWAP2 PUSH4 0x23B872DD SWAP2 PUSH3 0xCC8 SWAP2 DUP10 SWAP2 SWAP1 DUP9 SWAP1 PUSH1 0x4 ADD PUSH3 0x364F JUMP JUMPDEST PUSH1 0x20 PUSH1 0x40 MLOAD DUP1 DUP4 SUB DUP2 PUSH1 0x0 DUP8 DUP1 EXTCODESIZE ISZERO DUP1 ISZERO PUSH3 0xCE3 JUMPI PUSH1 0x0 DUP1 REVERT JUMPDEST POP GAS CALL ISZERO DUP1 ISZERO PUSH3 0xCF8 JUMPI RETURNDATASIZE PUSH1 0x0 DUP1 RETURNDATACOPY RETURNDATASIZE PUSH1 0x0 REVERT JUMPDEST POP POP POP POP PUSH1 0x40 MLOAD RETURNDATASIZE PUSH1 0x1F NOT PUSH1 0x1F DUP3 ADD AND DUP3 ADD DUP1 PUSH1 0x40 MSTORE POP PUSH3 0xD1E SWAP2 SWAP1 DUP2 ADD SWAP1 PUSH3 0x3301 JUMP JUMPDEST ISZERO PUSH3 0xE92 JUMPI PUSH1 0xE SLOAD PUSH1 0x60 DUP6 ADD MLOAD PUSH1 0x40 MLOAD PUSH4 0x363798F9 PUSH1 0xE1 SHL DUP2 MSTORE PUSH1 0x1 PUSH1 0x1 PUSH1 0xA0 SHL SUB SWAP1 SWAP3 AND SWAP2 PUSH4 0x6C6F31F2 SWAP2 PUSH3 0xD5B SWAP2 DUP8 SWAP1 PUSH1 0x4 ADD PUSH3 0x3673 JUMP JUMPDEST PUSH1 0x0 PUSH1 0x40 MLOAD DUP1 DUP4 SUB DUP2 PUSH1 0x0 DUP8 DUP1 EXTCODESIZE ISZERO DUP1 ISZERO PUSH3 0xD76 JUMPI PUSH1 0x0 DUP1 REVERT JUMPDEST POP GAS CALL ISZERO DUP1 ISZERO PUSH3 0xD8B JUMPI RETURNDATASIZE PUSH1 0x0 DUP1 RETURNDATACOPY RETURNDATASIZE PUSH1 0x0 REVERT JUMPDEST POP POP POP POP PUSH1 0x60 DUP5 ADD MLOAD PUSH1 0xC0 DUP6 ADD MLOAD PUSH1 0x40 MLOAD PUSH4 0x23B872DD PUSH1 0xE0 SHL DUP2 MSTORE PUSH1 0x1 PUSH1 0x1 PUSH1 0xA0 SHL SUB DUP5 AND SWAP3 PUSH4 0x23B872DD SWAP3 PUSH3 0xDC8 SWAP3 DUP11 SWAP2 SWAP1 PUSH1 0x4 ADD PUSH3 0x364F JUMP JUMPDEST PUSH1 0x20 PUSH1 0x40 MLOAD DUP1 DUP4 SUB DUP2 PUSH1 0x0 DUP8 DUP1 EXTCODESIZE ISZERO DUP1 ISZERO PUSH3 0xDE3 JUMPI PUSH1 0x0 DUP1 REVERT JUMPDEST POP GAS CALL ISZERO DUP1 ISZERO PUSH3 0xDF8 JUMPI RETURNDATASIZE PUSH1 0x0 DUP1 RETURNDATACOPY RETURNDATASIZE PUSH1 0x0 REVERT JUMPDEST POP POP POP POP PUSH1 0x40 MLOAD RETURNDATASIZE PUSH1 0x1F NOT PUSH1 0x1F DUP3 ADD AND DUP3 ADD DUP1 PUSH1 0x40 MSTORE POP PUSH3 0xE1E SWAP2 SWAP1 DUP2 ADD SWAP1 PUSH3 0x3301 JUMP JUMPDEST ISZERO PUSH3 0xE8C JUMPI PUSH1 0xC0 DUP5 ADD MLOAD PUSH1 0x40 MLOAD PUSH4 0x363798F9 PUSH1 0xE1 SHL DUP2 MSTORE PUSH1 0x1 PUSH1 0x1 PUSH1 0xA0 SHL SUB DUP4 AND SWAP2 PUSH4 0x6C6F31F2 SWAP2 PUSH3 0xE57 SWAP2 DUP10 SWAP2 PUSH1 0x4 ADD PUSH3 0x3673 JUMP JUMPDEST PUSH1 0x0 PUSH1 0x40 MLOAD DUP1 DUP4 SUB DUP2 PUSH1 0x0 DUP8 DUP1 EXTCODESIZE ISZERO DUP1 ISZERO PUSH3 0xE72 JUMPI PUSH1 0x0 DUP1 REVERT JUMPDEST POP GAS CALL ISZERO DUP1 ISZERO PUSH3 0xE87 JUMPI RETURNDATASIZE PUSH1 0x0 DUP1 RETURNDATACOPY RETURNDATASIZE PUSH1 0x0 REVERT JUMPDEST POP POP POP POP JUMPDEST PUSH3 0xEAC JUMP JUMPDEST PUSH1 0x40 MLOAD PUSH3 0x461BCD PUSH1 0xE5 SHL DUP2 MSTORE PUSH1 0x4 ADD PUSH3 0x508 SWAP1 PUSH3 0x3909 JUMP JUMPDEST PUSH1 0x0 PUSH1 0xC0 DUP6 ADD MSTORE PUSH3 0xEBE DUP5 PUSH3 0x1871 JUMP JUMPDEST POP DUP3 MLOAD MLOAD PUSH1 0x0 SWAP1 DUP2 MSTORE PUSH1 0xF PUSH1 0x20 SWAP1 DUP2 MSTORE PUSH1 0x40 SWAP2 DUP3 SWAP1 KECCAK256 DUP6 MLOAD DUP1 MLOAD DUP3 SSTORE DUP3 ADD MLOAD PUSH1 0x1 DUP3 ADD SSTORE SWAP1 DUP6 ADD MLOAD PUSH1 0x2 DUP3 ADD SSTORE SWAP1 DUP5 ADD MLOAD PUSH1 0x3 DUP3 ADD SSTORE PUSH1 0x60 DUP5 ADD MLOAD PUSH1 0x4 DUP3 ADD DUP1 SLOAD PUSH1 0x1 PUSH1 0x1 PUSH1 0xA0 SHL SUB SWAP3 DUP4 AND PUSH1 0x1 PUSH1 0x1 PUSH1 0xA0 SHL SUB NOT SWAP2 DUP3 AND OR SWAP1 SWAP2 SSTORE PUSH1 0x80 DUP7 ADD MLOAD PUSH1 0x5 DUP5 ADD DUP1 SLOAD SWAP2 SWAP1 SWAP4 AND SWAP2 AND OR SWAP1 SSTORE PUSH1 0xA0 DUP5 ADD MLOAD PUSH1 0x6 DUP3 ADD SSTORE PUSH1 0xC0 DUP5 ADD MLOAD PUSH1 0x7 DUP3 ADD SSTORE PUSH1 0xE0 DUP5 ADD MLOAD PUSH1 0x8 DUP3 ADD SSTORE PUSH2 0x100 DUP5 ADD MLOAD PUSH1 0x9 DUP3 ADD SSTORE PUSH2 0x120 DUP5 ADD MLOAD PUSH1 0xA DUP3 ADD SSTORE PUSH2 0x140 DUP5 ADD MLOAD PUSH1 0xB DUP3 ADD SSTORE PUSH2 0x160 DUP5 ADD MLOAD PUSH1 0xC SWAP1 SWAP2 ADD SSTORE PUSH3 0xF99 JUMP JUMPDEST PUSH1 0x40 MLOAD PUSH3 0x461BCD PUSH1 0xE5 SHL DUP2 MSTORE PUSH1 0x4 ADD PUSH3 0x508 SWAP1 PUSH3 0x3924 JUMP JUMPDEST POP POP POP POP POP JUMP JUMPDEST PUSH1 0x1 PUSH1 0x1 PUSH1 0xA0 SHL SUB DUP3 AND CALLER EQ ISZERO PUSH3 0xFCC JUMPI PUSH1 0x40 MLOAD PUSH3 0x461BCD PUSH1 0xE5 SHL DUP2 MSTORE PUSH1 0x4 ADD PUSH3 0x508 SWAP1 PUSH3 0x3858 JUMP JUMPDEST CALLER PUSH1 0x0 SWAP1 DUP2 MSTORE PUSH1 0xB PUSH1 0x20 SWAP1 DUP2 MSTORE PUSH1 0x40 DUP1 DUP4 KECCAK256 PUSH1 0x1 PUSH1 0x1 PUSH1 0xA0 SHL SUB SWAP6 SWAP1 SWAP6 AND DUP4 MSTORE SWAP4 SWAP1 MSTORE SWAP2 SWAP1 SWAP2 KECCAK256 DUP1 SLOAD PUSH1 0xFF NOT AND SWAP2 ISZERO ISZERO SWAP2 SWAP1 SWAP2 OR SWAP1 SSTORE JUMP JUMPDEST POP POP POP POP JUMP JUMPDEST PUSH1 0x0 DUP2 DUP2 MSTORE PUSH1 0x8 PUSH1 0x20 SWAP1 DUP2 MSTORE PUSH1 0x40 SWAP2 DUP3 SWAP1 KECCAK256 DUP1 SLOAD DUP4 MLOAD PUSH1 0x1F PUSH1 0x2 PUSH1 0x0 NOT PUSH2 0x100 PUSH1 0x1 DUP7 AND ISZERO MUL ADD SWAP1 SWAP4 AND SWAP3 SWAP1 SWAP3 DIV SWAP2 DUP3 ADD DUP5 SWAP1 DIV DUP5 MUL DUP2 ADD DUP5 ADD SWAP1 SWAP5 MSTORE DUP1 DUP5 MSTORE PUSH1 0x60 SWAP4 SWAP3 DUP4 ADD DUP3 DUP3 DUP1 ISZERO PUSH3 0x10A3 JUMPI DUP1 PUSH1 0x1F LT PUSH3 0x1077 JUMPI PUSH2 0x100 DUP1 DUP4 SLOAD DIV MUL DUP4 MSTORE SWAP2 PUSH1 0x20 ADD SWAP2 PUSH3 0x10A3 JUMP JUMPDEST DUP3 ADD SWAP2 SWAP1 PUSH1 0x0 MSTORE PUSH1 0x20 PUSH1 0x0 KECCAK256 SWAP1 JUMPDEST DUP2 SLOAD DUP2 MSTORE SWAP1 PUSH1 0x1 ADD SWAP1 PUSH1 0x20 ADD DUP1 DUP4 GT PUSH3 0x1085 JUMPI DUP3 SWAP1 SUB PUSH1 0x1F AND DUP3 ADD SWAP2 JUMPDEST POP POP POP POP POP SWAP1 POP SWAP2 SWAP1 POP JUMP JUMPDEST PUSH1 0xE SLOAD PUSH1 0x40 MLOAD PUSH4 0x6EB1769F PUSH1 0xE1 SHL DUP2 MSTORE PUSH1 0x0 SWAP2 PUSH1 0x1 PUSH1 0x1 PUSH1 0xA0 SHL SUB AND SWAP1 PUSH4 0xDD62ED3E SWAP1 PUSH3 0x10E4 SWAP1 DUP6 SWAP1 ADDRESS SWAP1 PUSH1 0x4 ADD PUSH3 0x3635 JUMP JUMPDEST PUSH1 0x20 PUSH1 0x40 MLOAD DUP1 DUP4 SUB DUP2 DUP7 DUP1 EXTCODESIZE ISZERO DUP1 ISZERO PUSH3 0x10FD JUMPI PUSH1 0x0 DUP1 REVERT JUMPDEST POP GAS STATICCALL ISZERO DUP1 ISZERO PUSH3 0x1112 JUMPI RETURNDATASIZE PUSH1 0x0 DUP1 RETURNDATACOPY RETURNDATASIZE PUSH1 0x0 REVERT JUMPDEST POP POP POP POP PUSH1 0x40 MLOAD RETURNDATASIZE PUSH1 0x1F NOT PUSH1 0x1F DUP3 ADD AND DUP3 ADD DUP1 PUSH1 0x40 MSTORE POP PUSH3 0x430 SWAP2 SWAP1 DUP2 ADD SWAP1 PUSH3 0x3377 JUMP JUMPDEST PUSH1 0x1 PUSH1 0x1 PUSH1 0xA0 SHL SUB SWAP2 DUP3 AND PUSH1 0x0 SWAP1 DUP2 MSTORE PUSH1 0xB PUSH1 0x20 SWAP1 DUP2 MSTORE PUSH1 0x40 DUP1 DUP4 KECCAK256 SWAP4 SWAP1 SWAP5 AND DUP3 MSTORE SWAP2 SWAP1 SWAP2 MSTORE KECCAK256 SLOAD PUSH1 0xFF AND SWAP1 JUMP JUMPDEST PUSH1 0x0 DUP3 DUP2 MSTORE PUSH1 0xF PUSH1 0x20 MSTORE PUSH1 0x40 SWAP1 KECCAK256 PUSH1 0x6 ADD SLOAD ISZERO PUSH3 0x1198 JUMPI PUSH1 0x40 MLOAD PUSH3 0x461BCD PUSH1 0xE5 SHL DUP2 MSTORE PUSH1 0x4 ADD PUSH3 0x508 SWAP1 PUSH3 0x377B JUMP JUMPDEST PUSH1 0x0 DUP1 DUP10 PUSH3 0x12AE JUMPI POP PUSH1 0x0 SWAP1 POP CALLER DUP2 PUSH3 0x11BA DUP10 DUP10 PUSH4 0xFFFFFFFF PUSH3 0x182A AND JUMP JUMPDEST PUSH1 0x1 PUSH1 0x1 PUSH1 0xA0 SHL SUB DUP1 DUP5 AND PUSH1 0x0 SWAP1 DUP2 MSTORE PUSH1 0x12 PUSH1 0x20 MSTORE PUSH1 0x40 DUP1 DUP3 KECCAK256 SLOAD PUSH1 0xE SLOAD SWAP2 MLOAD PUSH4 0x70A08231 PUSH1 0xE0 SHL DUP2 MSTORE SWAP5 SWAP6 POP SWAP2 SWAP4 SWAP2 SWAP3 AND SWAP1 PUSH4 0x70A08231 SWAP1 PUSH3 0x1203 SWAP1 DUP8 SWAP1 PUSH1 0x4 ADD PUSH3 0x35E2 JUMP JUMPDEST PUSH1 0x20 PUSH1 0x40 MLOAD DUP1 DUP4 SUB DUP2 DUP7 DUP1 EXTCODESIZE ISZERO DUP1 ISZERO PUSH3 0x121C JUMPI PUSH1 0x0 DUP1 REVERT JUMPDEST POP GAS STATICCALL ISZERO DUP1 ISZERO PUSH3 0x1231 JUMPI RETURNDATASIZE PUSH1 0x0 DUP1 RETURNDATACOPY RETURNDATASIZE PUSH1 0x0 REVERT JUMPDEST POP POP POP POP PUSH1 0x40 MLOAD RETURNDATASIZE PUSH1 0x1F NOT PUSH1 0x1F DUP3 ADD AND DUP3 ADD DUP1 PUSH1 0x40 MSTORE POP PUSH3 0x1257 SWAP2 SWAP1 DUP2 ADD SWAP1 PUSH3 0x3377 JUMP JUMPDEST SUB SWAP1 POP DUP2 DUP2 LT PUSH3 0xF7F JUMPI PUSH1 0x1 PUSH1 0x1 PUSH1 0xA0 SHL SUB DUP4 AND PUSH1 0x0 SWAP1 DUP2 MSTORE PUSH1 0x12 PUSH1 0x20 MSTORE PUSH1 0x40 SWAP1 KECCAK256 SLOAD PUSH3 0x128D SWAP1 DUP4 PUSH4 0xFFFFFFFF PUSH3 0x1D50 AND JUMP JUMPDEST PUSH1 0x1 PUSH1 0x1 PUSH1 0xA0 SHL SUB DUP5 AND PUSH1 0x0 SWAP1 DUP2 MSTORE PUSH1 0x12 PUSH1 0x20 MSTORE PUSH1 0x40 SWAP1 KECCAK256 SSTORE POP POP PUSH3 0x1478 JUMP JUMPDEST PUSH1 0x1 DUP11 EQ ISZERO PUSH3 0x1478 JUMPI POP POP PUSH1 0x0 DUP5 DUP2 MSTORE PUSH1 0xD PUSH1 0x20 MSTORE PUSH1 0x40 DUP1 DUP3 KECCAK256 SLOAD SWAP1 MLOAD PUSH4 0x6EB1769F PUSH1 0xE1 SHL DUP2 MSTORE CALLER SWAP3 SWAP2 PUSH1 0x1 PUSH1 0x1 PUSH1 0xA0 SHL SUB AND SWAP1 DUP3 SWAP1 DUP3 SWAP1 PUSH4 0xDD62ED3E SWAP1 PUSH3 0x12FF SWAP1 DUP8 SWAP1 ADDRESS SWAP1 PUSH1 0x4 ADD PUSH3 0x3635 JUMP JUMPDEST PUSH1 0x20 PUSH1 0x40 MLOAD DUP1 DUP4 SUB DUP2 DUP7 DUP1 EXTCODESIZE ISZERO DUP1 ISZERO PUSH3 0x1318 JUMPI PUSH1 0x0 DUP1 REVERT JUMPDEST POP GAS STATICCALL ISZERO DUP1 ISZERO PUSH3 0x132D JUMPI RETURNDATASIZE PUSH1 0x0 DUP1 RETURNDATACOPY RETURNDATASIZE PUSH1 0x0 REVERT JUMPDEST POP POP POP POP PUSH1 0x40 MLOAD RETURNDATASIZE PUSH1 0x1F NOT PUSH1 0x1F DUP3 ADD AND DUP3 ADD DUP1 PUSH1 0x40 MSTORE POP PUSH3 0x1353 SWAP2 SWAP1 DUP2 ADD SWAP1 PUSH3 0x3377 JUMP JUMPDEST SWAP1 POP DUP10 DUP2 LT ISZERO PUSH3 0x1378 JUMPI PUSH1 0x40 MLOAD PUSH3 0x461BCD PUSH1 0xE5 SHL DUP2 MSTORE PUSH1 0x4 ADD PUSH3 0x508 SWAP1 PUSH3 0x3A0D JUMP JUMPDEST PUSH1 0x11 SLOAD PUSH1 0x40 MLOAD PUSH4 0x23B872DD PUSH1 0xE0 SHL DUP2 MSTORE PUSH1 0x1 PUSH1 0x1 PUSH1 0xA0 SHL SUB DUP1 DUP6 AND SWAP3 PUSH4 0x23B872DD SWAP3 PUSH3 0x13AE SWAP3 DUP10 SWAP3 AND SWAP1 DUP16 SWAP1 PUSH1 0x4 ADD PUSH3 0x364F JUMP JUMPDEST PUSH1 0x20 PUSH1 0x40 MLOAD DUP1 DUP4 SUB DUP2 PUSH1 0x0 DUP8 DUP1 EXTCODESIZE ISZERO DUP1 ISZERO PUSH3 0x13C9 JUMPI PUSH1 0x0 DUP1 REVERT JUMPDEST POP GAS CALL ISZERO DUP1 ISZERO PUSH3 0x13DE JUMPI RETURNDATASIZE PUSH1 0x0 DUP1 RETURNDATACOPY RETURNDATASIZE PUSH1 0x0 REVERT JUMPDEST POP POP POP POP PUSH1 0x40 MLOAD RETURNDATASIZE PUSH1 0x1F NOT PUSH1 0x1F DUP3 ADD AND DUP3 ADD DUP1 PUSH1 0x40 MSTORE POP PUSH3 0x1404 SWAP2 SWAP1 DUP2 ADD SWAP1 PUSH3 0x3301 JUMP JUMPDEST ISZERO PUSH3 0x1475 JUMPI PUSH1 0x11 SLOAD PUSH1 0x40 MLOAD PUSH4 0x363798F9 PUSH1 0xE1 SHL DUP2 MSTORE PUSH1 0x1 PUSH1 0x1 PUSH1 0xA0 SHL SUB DUP5 DUP2 AND SWAP3 PUSH4 0x6C6F31F2 SWAP3 PUSH3 0x1440 SWAP3 SWAP1 SWAP2 AND SWAP1 DUP15 SWAP1 PUSH1 0x4 ADD PUSH3 0x3673 JUMP JUMPDEST PUSH1 0x0 PUSH1 0x40 MLOAD DUP1 DUP4 SUB DUP2 PUSH1 0x0 DUP8 DUP1 EXTCODESIZE ISZERO DUP1 ISZERO PUSH3 0x145B JUMPI PUSH1 0x0 DUP1 REVERT JUMPDEST POP GAS CALL ISZERO DUP1 ISZERO PUSH3 0x1470 JUMPI RETURNDATASIZE PUSH1 0x0 DUP1 RETURNDATACOPY RETURNDATASIZE PUSH1 0x0 REVERT JUMPDEST POP POP POP POP JUMPDEST POP POP JUMPDEST PUSH3 0x1482 PUSH3 0x3049 JUMP JUMPDEST POP PUSH1 0x40 DUP1 MLOAD DUP1 DUP3 ADD SWAP1 SWAP2 MSTORE DUP5 DUP2 MSTORE TIMESTAMP PUSH1 0x20 DUP3 ADD MSTORE PUSH3 0x14A0 PUSH3 0x2F3B JUMP JUMPDEST PUSH1 0x40 MLOAD DUP1 PUSH2 0x180 ADD PUSH1 0x40 MSTORE DUP1 DUP4 DUP2 MSTORE PUSH1 0x20 ADD DUP14 DUP2 MSTORE PUSH1 0x20 ADD DUP13 DUP2 MSTORE PUSH1 0x20 ADD DUP6 PUSH1 0x1 PUSH1 0x1 PUSH1 0xA0 SHL SUB AND DUP2 MSTORE PUSH1 0x20 ADD DUP5 PUSH1 0x1 PUSH1 0x1 PUSH1 0xA0 SHL SUB AND DUP2 MSTORE PUSH1 0x20 ADD DUP10 DUP2 MSTORE PUSH1 0x20 ADD DUP12 DUP2 MSTORE PUSH1 0x20 ADD DUP12 DUP2 MSTORE PUSH1 0x20 ADD DUP11 DUP2 MSTORE PUSH1 0x20 ADD PUSH1 0x0 DUP2 MSTORE PUSH1 0x20 ADD DUP9 DUP2 MSTORE PUSH1 0x20 ADD DUP7 DUP2 MSTORE POP SWAP1 POP DUP1 PUSH1 0xF PUSH1 0x0 DUP9 DUP2 MSTORE PUSH1 0x20 ADD SWAP1 DUP2 MSTORE PUSH1 0x20 ADD PUSH1 0x0 KECCAK256 PUSH1 0x0 DUP3 ADD MLOAD DUP2 PUSH1 0x0 ADD PUSH1 0x0 DUP3 ADD MLOAD DUP2 PUSH1 0x0 ADD SSTORE PUSH1 0x20 DUP3 ADD MLOAD DUP2 PUSH1 0x1 ADD SSTORE POP POP PUSH1 0x20 DUP3 ADD MLOAD DUP2 PUSH1 0x2 ADD SSTORE PUSH1 0x40 DUP3 ADD MLOAD DUP2 PUSH1 0x3 ADD SSTORE PUSH1 0x60 DUP3 ADD MLOAD DUP2 PUSH1 0x4 ADD PUSH1 0x0 PUSH2 0x100 EXP DUP2 SLOAD DUP2 PUSH1 0x1 PUSH1 0x1 PUSH1 0xA0 SHL SUB MUL NOT AND SWAP1 DUP4 PUSH1 0x1 PUSH1 0x1 PUSH1 0xA0 SHL SUB AND MUL OR SWAP1 SSTORE POP PUSH1 0x80 DUP3 ADD MLOAD DUP2 PUSH1 0x5 ADD PUSH1 0x0 PUSH2 0x100 EXP DUP2 SLOAD DUP2 PUSH1 0x1 PUSH1 0x1 PUSH1 0xA0 SHL SUB MUL NOT AND SWAP1 DUP4 PUSH1 0x1 PUSH1 0x1 PUSH1 0xA0 SHL SUB AND MUL OR SWAP1 SSTORE POP PUSH1 0xA0 DUP3 ADD MLOAD DUP2 PUSH1 0x6 ADD SSTORE PUSH1 0xC0 DUP3 ADD MLOAD DUP2 PUSH1 0x7 ADD SSTORE PUSH1 0xE0 DUP3 ADD MLOAD DUP2 PUSH1 0x8 ADD SSTORE PUSH2 0x100 DUP3 ADD MLOAD DUP2 PUSH1 0x9 ADD SSTORE PUSH2 0x120 DUP3 ADD MLOAD DUP2 PUSH1 0xA ADD SSTORE PUSH2 0x140 DUP3 ADD MLOAD DUP2 PUSH1 0xB ADD SSTORE PUSH2 0x160 DUP3 ADD MLOAD DUP2 PUSH1 0xC ADD SSTORE SWAP1 POP POP PUSH3 0x1609 DUP2 PUSH1 0x0 ADD MLOAD DUP3 PUSH1 0x20 ADD MLOAD PUSH3 0x1D78 JUMP JUMPDEST PUSH3 0x1614 DUP2 PUSH3 0x1F7B JUMP JUMPDEST POP POP POP POP POP POP POP POP POP POP POP POP JUMP JUMPDEST PUSH1 0x0 SWAP1 DUP2 MSTORE PUSH1 0xA PUSH1 0x20 MSTORE PUSH1 0x40 SWAP1 KECCAK256 DUP1 SLOAD PUSH1 0x1 PUSH1 0x1 PUSH1 0xA0 SHL SUB NOT AND PUSH1 0x1 PUSH1 0x1 PUSH1 0xA0 SHL SUB SWAP3 SWAP1 SWAP3 AND SWAP2 SWAP1 SWAP2 OR SWAP1 SSTORE JUMP JUMPDEST PUSH1 0x0 DUP2 DUP2 MSTORE PUSH1 0x6 PUSH1 0x20 MSTORE PUSH1 0x40 DUP2 KECCAK256 SLOAD PUSH1 0x1 PUSH1 0x1 PUSH1 0xA0 SHL SUB AND ISZERO PUSH3 0x1688 JUMPI PUSH1 0x40 MLOAD PUSH3 0x461BCD PUSH1 0xE5 SHL DUP2 MSTORE PUSH1 0x4 ADD PUSH3 0x508 SWAP1 PUSH3 0x3A60 JUMP JUMPDEST PUSH1 0x9 SLOAD PUSH3 0x169E SWAP1 PUSH1 0x1 PUSH4 0xFFFFFFFF PUSH3 0x1D50 AND JUMP JUMPDEST PUSH1 0x9 SSTORE PUSH1 0x1 PUSH1 0x1 PUSH1 0xA0 SHL SUB DUP4 AND PUSH1 0x0 SWAP1 DUP2 MSTORE PUSH1 0x3 PUSH1 0x20 MSTORE PUSH1 0x40 SWAP1 KECCAK256 SLOAD PUSH3 0x16CD SWAP1 PUSH1 0x1 PUSH4 0xFFFFFFFF PUSH3 0x1D50 AND JUMP JUMPDEST PUSH1 0x1 PUSH1 0x1 PUSH1 0xA0 SHL SUB DUP5 AND PUSH1 0x0 DUP2 DUP2 MSTORE PUSH1 0x3 PUSH1 0x20 SWAP1 DUP2 MSTORE PUSH1 0x40 DUP1 DUP4 KECCAK256 SWAP5 SWAP1 SWAP5 SSTORE PUSH1 0x4 DUP1 SLOAD DUP8 DUP5 MSTORE PUSH1 0x2 DUP4 MSTORE DUP6 DUP5 KECCAK256 DUP2 SWAP1 SSTORE PUSH1 0x1 DUP1 DUP3 ADD SWAP1 SWAP3 SSTORE PUSH32 0x8A35ACFBC15FF81A39AE7D344FD709F28E8600B4AA8C65C6B64BFE7FE36BD19B ADD DUP8 SWAP1 SSTORE DUP4 DUP4 MSTORE PUSH1 0x5 DUP3 MSTORE DUP5 DUP4 KECCAK256 DUP1 SLOAD DUP1 DUP4 ADD DUP3 SSTORE SWAP1 DUP5 MSTORE DUP3 DUP5 KECCAK256 ADD DUP8 SWAP1 SSTORE DUP7 DUP4 MSTORE PUSH1 0x6 DUP3 MSTORE DUP5 DUP4 KECCAK256 DUP1 SLOAD PUSH1 0x1 PUSH1 0x1 PUSH1 0xA0 SHL SUB NOT AND DUP6 OR SWAP1 SSTORE DUP4 DUP4 MSTORE PUSH1 0x7 DUP1 DUP4 MSTORE DUP6 DUP5 KECCAK256 SLOAD DUP9 DUP6 MSTORE DUP3 DUP5 MSTORE SWAP6 DUP5 KECCAK256 DUP7 SWAP1 SSTORE SWAP4 SWAP1 SWAP3 MSTORE SWAP2 SWAP1 SWAP2 MSTORE PUSH3 0x1791 SWAP2 SWAP1 PUSH4 0xFFFFFFFF PUSH3 0x1D50 AND JUMP JUMPDEST PUSH1 0x1 PUSH1 0x1 PUSH1 0xA0 SHL SUB DUP5 AND PUSH1 0x0 SWAP1 DUP2 MSTORE PUSH1 0x7 PUSH1 0x20 SWAP1 DUP2 MSTORE PUSH1 0x40 DUP1 DUP4 KECCAK256 SWAP4 SWAP1 SWAP4 SSTORE DUP3 MLOAD SWAP1 DUP2 ADD SWAP1 SWAP3 MSTORE DUP1 DUP3 MSTORE PUSH3 0x17CA SWAP2 DUP6 SWAP1 DUP6 SWAP1 PUSH3 0x288E JUMP JUMPDEST PUSH3 0x17E9 JUMPI PUSH1 0x40 MLOAD PUSH3 0x461BCD PUSH1 0xE5 SHL DUP2 MSTORE PUSH1 0x4 ADD PUSH3 0x508 SWAP1 PUSH3 0x3797 JUMP JUMPDEST PUSH1 0x40 MLOAD DUP3 SWAP1 PUSH1 0x1 PUSH1 0x1 PUSH1 0xA0 SHL SUB DUP6 AND SWAP1 PUSH1 0x0 SWAP1 PUSH32 0xDDF252AD1BE2C89B69C2B068FC378DAA952BA7F163C4A11628F55A4DF523B3EF SWAP1 DUP3 SWAP1 LOG4 POP PUSH1 0x1 SWAP3 SWAP2 POP POP JUMP JUMPDEST PUSH1 0x0 DUP3 PUSH3 0x183B JUMPI POP PUSH1 0x0 PUSH3 0x430 JUMP JUMPDEST DUP3 DUP3 MUL DUP3 DUP5 DUP3 DUP2 PUSH3 0x1849 JUMPI INVALID JUMPDEST DIV EQ PUSH3 0x186A JUMPI PUSH1 0x40 MLOAD PUSH3 0x461BCD PUSH1 0xE5 SHL DUP2 MSTORE PUSH1 0x4 ADD PUSH3 0x508 SWAP1 PUSH3 0x393F JUMP JUMPDEST SWAP4 SWAP3 POP POP POP JUMP JUMPDEST PUSH3 0x187B PUSH3 0x3049 JUMP JUMPDEST POP DUP1 MLOAD PUSH1 0x40 DUP1 MLOAD DUP1 DUP3 ADD SWAP1 SWAP2 MSTORE PUSH1 0xE DUP2 MSTORE PUSH14 0x50454E44494E475F4F5244455253 PUSH1 0x90 SHL PUSH1 0x20 SWAP2 DUP3 ADD MSTORE PUSH1 0x0 DUP1 MLOAD PUSH1 0x20 PUSH3 0x50E0 DUP4 CODECOPY DUP2 MLOAD SWAP2 MSTORE PUSH1 0x0 MSTORE PUSH1 0x10 SWAP1 MSTORE PUSH1 0x0 DUP1 MLOAD PUSH1 0x20 PUSH3 0x50C0 DUP4 CODECOPY DUP2 MLOAD SWAP2 MSTORE SLOAD PUSH3 0x18D8 JUMPI POP PUSH3 0x1D4D JUMP JUMPDEST PUSH1 0x40 DUP1 MLOAD DUP1 DUP3 ADD SWAP1 SWAP2 MSTORE PUSH1 0xE DUP2 MSTORE PUSH14 0x50454E44494E475F4F5244455253 PUSH1 0x90 SHL PUSH1 0x20 SWAP2 DUP3 ADD MSTORE PUSH1 0x0 DUP1 MLOAD PUSH1 0x20 PUSH3 0x50E0 DUP4 CODECOPY DUP2 MLOAD SWAP2 MSTORE PUSH1 0x0 MSTORE PUSH1 0x10 SWAP1 MSTORE PUSH1 0x0 DUP1 MLOAD PUSH1 0x20 PUSH3 0x50C0 DUP4 CODECOPY DUP2 MLOAD SWAP2 MSTORE SLOAD PUSH1 0x1 EQ ISZERO PUSH3 0x19AB JUMPI PUSH1 0x40 DUP1 MLOAD DUP1 DUP3 ADD SWAP1 SWAP2 MSTORE PUSH1 0xE DUP2 MSTORE PUSH14 0x50454E44494E475F4F5244455253 PUSH1 0x90 SHL PUSH1 0x20 SWAP2 DUP3 ADD MSTORE PUSH1 0x0 DUP1 MLOAD PUSH1 0x20 PUSH3 0x50E0 DUP4 CODECOPY DUP2 MLOAD SWAP2 MSTORE PUSH1 0x0 MSTORE PUSH1 0x10 SWAP1 MSTORE PUSH1 0x0 DUP1 MLOAD PUSH1 0x20 PUSH3 0x50C0 DUP4 CODECOPY DUP2 MLOAD SWAP2 MSTORE DUP1 SLOAD DUP1 PUSH3 0x1986 JUMPI INVALID JUMPDEST PUSH1 0x0 DUP3 DUP2 MSTORE PUSH1 0x20 DUP2 KECCAK256 PUSH1 0x2 PUSH1 0x0 NOT SWAP1 SWAP4 ADD SWAP3 DUP4 MUL ADD DUP2 DUP2 SSTORE PUSH1 0x1 ADD SSTORE SWAP1 SSTORE POP PUSH3 0x1D4D JUMP JUMPDEST PUSH1 0x40 DUP1 MLOAD DUP1 DUP3 ADD SWAP1 SWAP2 MSTORE PUSH1 0xE DUP2 MSTORE PUSH14 0x50454E44494E475F4F5244455253 PUSH1 0x90 SHL PUSH1 0x20 SWAP2 DUP3 ADD MSTORE PUSH1 0x0 DUP1 MLOAD PUSH1 0x20 PUSH3 0x50E0 DUP4 CODECOPY DUP2 MLOAD SWAP2 MSTORE PUSH1 0x0 SWAP1 DUP2 MSTORE PUSH1 0x10 SWAP1 SWAP2 MSTORE PUSH1 0x0 DUP1 MLOAD PUSH1 0x20 PUSH3 0x50C0 DUP4 CODECOPY DUP2 MLOAD SWAP2 MSTORE SLOAD PUSH3 0x1A0F SWAP1 PUSH1 0x1 PUSH4 0xFFFFFFFF PUSH3 0x2978 AND JUMP JUMPDEST PUSH1 0x40 DUP1 MLOAD DUP1 DUP3 ADD DUP3 MSTORE PUSH1 0xE DUP2 MSTORE PUSH14 0x50454E44494E475F4F5244455253 PUSH1 0x90 SHL PUSH1 0x20 SWAP2 DUP3 ADD MSTORE PUSH1 0x0 DUP1 MLOAD PUSH1 0x20 PUSH3 0x50E0 DUP4 CODECOPY DUP2 MLOAD SWAP2 MSTORE PUSH1 0x0 SWAP1 DUP2 MSTORE PUSH1 0x10 SWAP1 SWAP2 MSTORE SWAP1 MLOAD PUSH4 0x191EE783 PUSH1 0xE0 SHL DUP2 MSTORE SWAP2 SWAP3 POP SWAP1 PUSH20 0x0 SWAP1 PUSH4 0x191EE783 SWAP1 PUSH3 0x1A9F SWAP1 PUSH1 0x0 DUP1 MLOAD PUSH1 0x20 PUSH3 0x50C0 DUP4 CODECOPY DUP2 MLOAD SWAP2 MSTORE SWAP1 DUP6 SWAP1 DUP8 SWAP1 DUP10 SWAP1 PUSH1 0x4 ADD PUSH3 0x368C JUMP JUMPDEST PUSH1 0x20 PUSH1 0x40 MLOAD DUP1 DUP4 SUB DUP2 DUP7 DUP1 EXTCODESIZE ISZERO DUP1 ISZERO PUSH3 0x1AB8 JUMPI PUSH1 0x0 DUP1 REVERT JUMPDEST POP GAS DELEGATECALL ISZERO DUP1 ISZERO PUSH3 0x1ACD JUMPI RETURNDATASIZE PUSH1 0x0 DUP1 RETURNDATACOPY RETURNDATASIZE PUSH1 0x0 REVERT JUMPDEST POP POP POP POP PUSH1 0x40 MLOAD RETURNDATASIZE PUSH1 0x1F NOT PUSH1 0x1F DUP3 ADD AND DUP3 ADD DUP1 PUSH1 0x40 MSTORE POP PUSH3 0x1AF3 SWAP2 SWAP1 DUP2 ADD SWAP1 PUSH3 0x3377 JUMP JUMPDEST SWAP1 POP PUSH1 0x0 DUP2 SLT PUSH3 0x1C6F JUMPI DUP1 JUMPDEST DUP3 DUP2 LT ISZERO PUSH3 0x1BF8 JUMPI PUSH1 0x40 DUP1 MLOAD DUP1 DUP3 ADD SWAP1 SWAP2 MSTORE PUSH1 0xE DUP2 MSTORE PUSH14 0x50454E44494E475F4F5244455253 PUSH1 0x90 SHL PUSH1 0x20 SWAP2 DUP3 ADD MSTORE PUSH1 0x0 DUP1 MLOAD PUSH1 0x20 PUSH3 0x50E0 DUP4 CODECOPY DUP2 MLOAD SWAP2 MSTORE PUSH1 0x0 MSTORE PUSH1 0x10 SWAP1 MSTORE PUSH1 0x0 DUP1 MLOAD PUSH1 0x20 PUSH3 0x50C0 DUP4 CODECOPY DUP2 MLOAD SWAP2 MSTORE DUP1 SLOAD PUSH1 0x1 DUP4 ADD SWAP1 DUP2 LT PUSH3 0x1B66 JUMPI INVALID JUMPDEST PUSH1 0x0 SWAP2 DUP3 MSTORE PUSH1 0x20 DUP1 DUP4 KECCAK256 PUSH1 0x40 DUP1 MLOAD DUP1 DUP3 ADD SWAP1 SWAP2 MSTORE PUSH1 0xE DUP2 MSTORE PUSH14 0x50454E44494E475F4F5244455253 PUSH1 0x90 SHL SWAP1 DUP4 ADD MSTORE PUSH1 0x0 DUP1 MLOAD PUSH1 0x20 PUSH3 0x50E0 DUP4 CODECOPY DUP2 MLOAD SWAP2 MSTORE SWAP1 SWAP4 MSTORE PUSH1 0x10 SWAP1 MSTORE PUSH1 0x0 DUP1 MLOAD PUSH1 0x20 PUSH3 0x50C0 DUP4 CODECOPY DUP2 MLOAD SWAP2 MSTORE DUP1 SLOAD PUSH1 0x2 SWAP1 SWAP3 MUL SWAP1 SWAP3 ADD SWAP2 SWAP1 DUP4 SWAP1 DUP2 LT PUSH3 0x1BD2 JUMPI INVALID JUMPDEST PUSH1 0x0 SWAP2 DUP3 MSTORE PUSH1 0x20 SWAP1 SWAP2 KECCAK256 DUP3 SLOAD PUSH1 0x2 SWAP1 SWAP3 MUL ADD SWAP1 DUP2 SSTORE PUSH1 0x1 SWAP2 DUP3 ADD SLOAD SWAP1 DUP3 ADD SSTORE ADD PUSH3 0x1B00 JUMP JUMPDEST POP PUSH1 0x40 DUP1 MLOAD DUP1 DUP3 ADD SWAP1 SWAP2 MSTORE PUSH1 0xE DUP2 MSTORE PUSH14 0x50454E44494E475F4F5244455253 PUSH1 0x90 SHL PUSH1 0x20 SWAP2 DUP3 ADD MSTORE PUSH1 0x0 DUP1 MLOAD PUSH1 0x20 PUSH3 0x50E0 DUP4 CODECOPY DUP2 MLOAD SWAP2 MSTORE PUSH1 0x0 MSTORE PUSH1 0x10 SWAP1 MSTORE PUSH1 0x0 DUP1 MLOAD PUSH1 0x20 PUSH3 0x50C0 DUP4 CODECOPY DUP2 MLOAD SWAP2 MSTORE DUP1 SLOAD DUP1 PUSH3 0x1C50 JUMPI INVALID JUMPDEST PUSH1 0x0 DUP3 DUP2 MSTORE PUSH1 0x20 DUP2 KECCAK256 PUSH1 0x2 PUSH1 0x0 NOT SWAP1 SWAP4 ADD SWAP3 DUP4 MUL ADD DUP2 DUP2 SSTORE PUSH1 0x1 ADD SSTORE SWAP1 SSTORE JUMPDEST POP POP PUSH1 0x40 DUP1 MLOAD DUP1 DUP3 ADD SWAP1 SWAP2 MSTORE PUSH1 0xE DUP2 MSTORE PUSH14 0x4D4154434845445F4F5244455253 PUSH1 0x90 SHL PUSH1 0x20 SWAP2 DUP3 ADD MSTORE PUSH32 0xADAACA5C8C3F56BF72F89ABB1ED95701D44C650C5E04CF89DF361454308F6F75 PUSH1 0x0 SWAP1 DUP2 MSTORE PUSH1 0x10 DUP3 MSTORE DUP4 MLOAD PUSH32 0x19674D8BA4835B80717217E211D3B88A07B39E62DFDF8C59AE92EBE4CC48DF48 DUP1 SLOAD PUSH1 0x1 DUP1 DUP3 ADD DUP4 SSTORE SWAP2 SWAP1 SWAP4 MSTORE DUP2 MLOAD PUSH32 0xFD1F7450C902FFD3BC43AB1E89F4F818299D0DCA41A3851FB1C84F1F89887954 PUSH1 0x2 SWAP1 SWAP5 MUL SWAP4 DUP5 ADD SSTORE SWAP3 ADD MLOAD PUSH32 0xFD1F7450C902FFD3BC43AB1E89F4F818299D0DCA41A3851FB1C84F1F89887955 SWAP1 SWAP2 ADD SSTORE PUSH2 0x120 DUP4 ADD MSTORE POP JUMPDEST POP JUMP JUMPDEST PUSH1 0x0 DUP3 DUP3 ADD DUP4 DUP2 LT ISZERO PUSH3 0x186A JUMPI PUSH1 0x40 MLOAD PUSH3 0x461BCD PUSH1 0xE5 SHL DUP2 MSTORE PUSH1 0x4 ADD PUSH3 0x508 SWAP1 PUSH3 0x3821 JUMP JUMPDEST PUSH1 0x40 DUP1 MLOAD DUP1 DUP3 ADD SWAP1 SWAP2 MSTORE PUSH1 0xE DUP2 MSTORE PUSH14 0x50454E44494E475F4F5244455253 PUSH1 0x90 SHL PUSH1 0x20 SWAP2 DUP3 ADD MSTORE PUSH1 0x10 DUP2 MSTORE PUSH1 0x0 DUP1 MLOAD PUSH1 0x20 PUSH3 0x50C0 DUP4 CODECOPY DUP2 MLOAD SWAP2 MSTORE DUP1 SLOAD PUSH1 0x1 DUP2 ADD DUP3 SSTORE PUSH1 0x0 SWAP2 SWAP1 SWAP2 MSTORE DUP4 MLOAD PUSH32 0x30049BD06E924538F92EAA9F01AEDB2473E51FDA6E5A111254CECB0B22440E6E PUSH1 0x2 SWAP1 SWAP3 MUL SWAP2 DUP3 ADD SSTORE SWAP1 DUP4 ADD MLOAD PUSH32 0x30049BD06E924538F92EAA9F01AEDB2473E51FDA6E5A111254CECB0B22440E6F SWAP1 SWAP2 ADD SSTORE DUP1 PUSH3 0x1ECB JUMPI PUSH1 0x40 DUP1 MLOAD DUP1 DUP3 ADD SWAP1 SWAP2 MSTORE PUSH1 0xA DUP2 MSTORE PUSH10 0x4255595F4F5244455253 PUSH1 0xB0 SHL PUSH1 0x20 SWAP2 DUP3 ADD MSTORE PUSH1 0x10 DUP2 MSTORE PUSH32 0x5E9361A9C4A6948528C31D2250A6BD39325130B61230F88E8C9155F7D744FECA DUP1 SLOAD PUSH1 0x1 DUP2 ADD DUP3 SSTORE PUSH1 0x0 SWAP2 SWAP1 SWAP2 MSTORE DUP4 MLOAD PUSH32 0xB092A18FF78ACA3595D8461112086EFB2A651CF85C051AC9830EF18087FADF9B PUSH1 0x2 SWAP1 SWAP3 MUL SWAP2 DUP3 ADD SSTORE SWAP1 DUP4 ADD MLOAD PUSH32 0xB092A18FF78ACA3595D8461112086EFB2A651CF85C051AC9830EF18087FADF9C SWAP1 SWAP2 ADD SSTORE PUSH3 0x1F77 JUMP JUMPDEST PUSH1 0x40 DUP1 MLOAD DUP1 DUP3 ADD SWAP1 SWAP2 MSTORE PUSH1 0xB DUP2 MSTORE PUSH11 0x53454C4C5F4F5244455253 PUSH1 0xA8 SHL PUSH1 0x20 SWAP2 DUP3 ADD MSTORE PUSH1 0x10 DUP2 MSTORE PUSH32 0x14C155F8A0B578A04530F80A5D15FFD628800AAD3155C7162319213F99540D73 DUP1 SLOAD PUSH1 0x1 DUP2 ADD DUP3 SSTORE PUSH1 0x0 SWAP2 SWAP1 SWAP2 MSTORE DUP4 MLOAD PUSH32 0x6752F46A6FD943344D0C8C9C01BD6CD6B713EB632582E0E5D971DA122F2F80AA PUSH1 0x2 SWAP1 SWAP3 MUL SWAP2 DUP3 ADD SSTORE SWAP1 DUP4 ADD MLOAD PUSH32 0x6752F46A6FD943344D0C8C9C01BD6CD6B713EB632582E0E5D971DA122F2F80AB SWAP1 SWAP2 ADD SSTORE JUMPDEST POP POP JUMP JUMPDEST PUSH1 0x0 PUSH3 0x1F87 PUSH3 0x2F3B JUMP JUMPDEST POP PUSH1 0x40 DUP1 MLOAD DUP1 DUP3 ADD SWAP1 SWAP2 MSTORE PUSH1 0xE DUP2 MSTORE PUSH14 0x50454E44494E475F4F5244455253 PUSH1 0x90 SHL PUSH1 0x20 SWAP2 DUP3 ADD MSTORE PUSH1 0x0 DUP1 MLOAD PUSH1 0x20 PUSH3 0x50E0 DUP4 CODECOPY DUP2 MLOAD SWAP2 MSTORE PUSH1 0x0 MSTORE PUSH1 0x10 SWAP1 MSTORE PUSH1 0x0 DUP1 MLOAD PUSH1 0x20 PUSH3 0x50C0 DUP4 CODECOPY DUP2 MLOAD SWAP2 MSTORE SLOAD DUP3 SWAP1 PUSH1 0x1 DUP2 EQ ISZERO PUSH3 0x1FEB JUMPI POP POP POP PUSH3 0x1D4D JUMP JUMPDEST PUSH1 0x0 PUSH3 0x2000 DUP3 PUSH1 0x1 PUSH4 0xFFFFFFFF PUSH3 0x2978 AND JUMP JUMPDEST SWAP1 POP PUSH1 0x0 PUSH2 0x3E8 DUP4 GT PUSH3 0x2016 JUMPI PUSH1 0x0 PUSH3 0x201A JUMP JUMPDEST PUSH2 0x3E8 JUMPDEST SWAP1 POP JUMPDEST DUP1 DUP3 LT ISZERO DUP1 ISZERO PUSH3 0x202C JUMPI POP DUP5 ISZERO JUMPDEST ISZERO PUSH3 0x651 JUMPI PUSH3 0x203C PUSH3 0x2F3B JUMP JUMPDEST PUSH1 0x40 DUP1 MLOAD DUP1 DUP3 ADD SWAP1 SWAP2 MSTORE PUSH1 0xE DUP2 MSTORE PUSH14 0x50454E44494E475F4F5244455253 PUSH1 0x90 SHL PUSH1 0x20 SWAP2 DUP3 ADD MSTORE PUSH1 0x0 DUP1 MLOAD PUSH1 0x20 PUSH3 0x50E0 DUP4 CODECOPY DUP2 MLOAD SWAP2 MSTORE PUSH1 0x0 SWAP1 DUP2 MSTORE PUSH1 0x10 SWAP1 SWAP2 MSTORE PUSH1 0x0 DUP1 MLOAD PUSH1 0x20 PUSH3 0x50C0 DUP4 CODECOPY DUP2 MLOAD SWAP2 MSTORE DUP1 SLOAD PUSH1 0xF SWAP3 SWAP2 SWAP1 DUP7 SWAP1 DUP2 LT PUSH3 0x209E JUMPI INVALID JUMPDEST PUSH1 0x0 SWAP2 DUP3 MSTORE PUSH1 0x20 DUP1 DUP4 KECCAK256 PUSH1 0x2 SWAP3 DUP4 MUL ADD SLOAD DUP5 MSTORE DUP4 DUP2 ADD SWAP5 SWAP1 SWAP5 MSTORE PUSH1 0x40 SWAP3 DUP4 ADD DUP3 KECCAK256 DUP4 MLOAD PUSH2 0x1C0 DUP2 ADD DUP6 MSTORE DUP2 SLOAD PUSH2 0x180 DUP3 ADD SWAP1 DUP2 MSTORE PUSH1 0x1 DUP4 ADD SLOAD PUSH2 0x1A0 DUP4 ADD MSTORE DUP2 MSTORE SWAP2 DUP2 ADD SLOAD DUP3 DUP7 ADD DUP2 SWAP1 MSTORE PUSH1 0x3 DUP3 ADD SLOAD SWAP5 DUP4 ADD SWAP5 SWAP1 SWAP5 MSTORE PUSH1 0x4 DUP2 ADD SLOAD PUSH1 0x1 PUSH1 0x1 PUSH1 0xA0 SHL SUB SWAP1 DUP2 AND PUSH1 0x60 DUP5 ADD DUP2 SWAP1 MSTORE PUSH1 0x5 DUP4 ADD SLOAD SWAP1 SWAP2 AND PUSH1 0x80 DUP5 ADD MSTORE PUSH1 0x6 DUP3 ADD SLOAD PUSH1 0xA0 DUP1 DUP6 ADD DUP3 SWAP1 MSTORE PUSH1 0x7 DUP5 ADD SLOAD PUSH1 0xC0 DUP7 ADD MSTORE PUSH1 0x8 DUP5 ADD SLOAD PUSH1 0xE0 DUP7 ADD MSTORE PUSH1 0x9 DUP5 ADD SLOAD PUSH2 0x100 DUP7 ADD MSTORE PUSH1 0xA DUP5 ADD SLOAD PUSH2 0x120 DUP7 ADD MSTORE PUSH1 0xB DUP5 ADD SLOAD PUSH2 0x140 DUP7 ADD MSTORE PUSH1 0xC SWAP1 SWAP4 ADD SLOAD PUSH2 0x160 DUP6 ADD MSTORE SWAP2 DUP12 ADD MLOAD SWAP6 DUP12 ADD MLOAD SWAP3 SWAP7 POP SWAP5 EQ SWAP4 SWAP3 EQ SWAP2 ISZERO DUP1 ISZERO SWAP1 PUSH3 0x2193 JUMPI POP PUSH1 0x80 DUP9 ADD MLOAD PUSH1 0x1 PUSH1 0x1 PUSH1 0xA0 SHL SUB AND ISZERO ISZERO JUMPDEST ISZERO PUSH3 0x21BE JUMPI DUP8 PUSH1 0x80 ADD MLOAD PUSH1 0x1 PUSH1 0x1 PUSH1 0xA0 SHL SUB AND DUP5 PUSH1 0x60 ADD MLOAD PUSH1 0x1 PUSH1 0x1 PUSH1 0xA0 SHL SUB AND EQ SWAP1 POP PUSH3 0x220D JUMP JUMPDEST PUSH1 0x80 DUP5 ADD MLOAD PUSH1 0x1 PUSH1 0x1 PUSH1 0xA0 SHL SUB AND ISZERO DUP1 ISZERO SWAP1 PUSH3 0x21E7 JUMPI POP PUSH1 0x60 DUP9 ADD MLOAD PUSH1 0x1 PUSH1 0x1 PUSH1 0xA0 SHL SUB AND ISZERO ISZERO JUMPDEST ISZERO PUSH3 0x220D JUMPI DUP8 PUSH1 0x60 ADD MLOAD PUSH1 0x1 PUSH1 0x1 PUSH1 0xA0 SHL SUB AND DUP5 PUSH1 0x80 ADD MLOAD PUSH1 0x1 PUSH1 0x1 PUSH1 0xA0 SHL SUB AND EQ SWAP1 POP JUMPDEST PUSH2 0x160 DUP1 DUP10 ADD MLOAD SWAP1 DUP6 ADD MLOAD EQ PUSH1 0x0 DUP5 DUP1 ISZERO PUSH3 0x222C JUMPI POP PUSH2 0x120 DUP7 ADD MLOAD ISZERO JUMPDEST DUP1 ISZERO PUSH3 0x2237 JUMPI POP DUP4 ISZERO JUMPDEST DUP1 ISZERO PUSH3 0x2241 JUMPI POP DUP2 JUMPDEST DUP1 ISZERO PUSH3 0x224C JUMPI POP DUP3 ISZERO JUMPDEST SWAP1 POP DUP1 ISZERO PUSH3 0x285B JUMPI PUSH3 0x225F PUSH3 0x2F3B JUMP JUMPDEST PUSH3 0x2269 PUSH3 0x2F3B JUMP JUMPDEST PUSH3 0x2273 PUSH3 0x3060 JUMP JUMPDEST PUSH1 0x20 DUP14 ADD MLOAD PUSH3 0x2356 JUMPI DUP13 SWAP3 POP DUP9 SWAP2 POP PUSH3 0x228F DUP4 DUP4 PUSH3 0x29BC JUMP JUMPDEST DUP1 MLOAD DUP5 MLOAD MLOAD PUSH1 0x0 SWAP1 DUP2 MSTORE PUSH1 0xF PUSH1 0x20 SWAP1 DUP2 MSTORE PUSH1 0x40 SWAP2 DUP3 SWAP1 KECCAK256 DUP3 MLOAD PUSH2 0x1C0 DUP2 ADD DUP5 MSTORE DUP2 SLOAD PUSH2 0x180 DUP3 ADD SWAP1 DUP2 MSTORE PUSH1 0x1 DUP4 ADD SLOAD PUSH2 0x1A0 DUP4 ADD MSTORE DUP2 MSTORE PUSH1 0x2 DUP3 ADD SLOAD SWAP3 DUP2 ADD SWAP3 SWAP1 SWAP3 MSTORE PUSH1 0x3 DUP2 ADD SLOAD SWAP3 DUP3 ADD SWAP3 SWAP1 SWAP3 MSTORE PUSH1 0x4 DUP3 ADD SLOAD PUSH1 0x1 PUSH1 0x1 PUSH1 0xA0 SHL SUB SWAP1 DUP2 AND PUSH1 0x60 DUP4 ADD MSTORE PUSH1 0x5 DUP4 ADD SLOAD AND PUSH1 0x80 DUP3 ADD MSTORE PUSH1 0x6 DUP3 ADD SLOAD PUSH1 0xA0 DUP3 ADD MSTORE PUSH1 0x7 DUP3 ADD SLOAD PUSH1 0xC0 DUP3 ADD MSTORE PUSH1 0x8 DUP3 ADD SLOAD PUSH1 0xE0 DUP3 ADD MSTORE PUSH1 0x9 DUP3 ADD SLOAD PUSH2 0x100 DUP3 ADD MSTORE PUSH1 0xA DUP3 ADD SLOAD PUSH2 0x120 DUP3 ADD MSTORE PUSH1 0xB DUP3 ADD SLOAD PUSH2 0x140 DUP3 ADD MSTORE PUSH1 0xC SWAP1 SWAP2 ADD SLOAD PUSH2 0x160 DUP3 ADD MSTORE SWAP1 SWAP16 POP SWAP14 POP SWAP1 POP PUSH3 0x2438 JUMP JUMPDEST PUSH1 0x1 DUP14 PUSH1 0x20 ADD MLOAD EQ ISZERO PUSH3 0x2438 JUMPI DUP13 SWAP2 POP DUP9 SWAP3 POP PUSH3 0x2376 DUP4 DUP4 PUSH3 0x29BC JUMP JUMPDEST DUP1 MLOAD DUP4 MLOAD MLOAD PUSH1 0x0 SWAP1 DUP2 MSTORE PUSH1 0xF PUSH1 0x20 SWAP1 DUP2 MSTORE PUSH1 0x40 SWAP2 DUP3 SWAP1 KECCAK256 DUP3 MLOAD PUSH2 0x1C0 DUP2 ADD DUP5 MSTORE DUP2 SLOAD PUSH2 0x180 DUP3 ADD SWAP1 DUP2 MSTORE PUSH1 0x1 DUP4 ADD SLOAD PUSH2 0x1A0 DUP4 ADD MSTORE DUP2 MSTORE PUSH1 0x2 DUP3 ADD SLOAD SWAP3 DUP2 ADD SWAP3 SWAP1 SWAP3 MSTORE PUSH1 0x3 DUP2 ADD SLOAD SWAP3 DUP3 ADD SWAP3 SWAP1 SWAP3 MSTORE PUSH1 0x4 DUP3 ADD SLOAD PUSH1 0x1 PUSH1 0x1 PUSH1 0xA0 SHL SUB SWAP1 DUP2 AND PUSH1 0x60 DUP4 ADD MSTORE PUSH1 0x5 DUP4 ADD SLOAD AND PUSH1 0x80 DUP3 ADD MSTORE PUSH1 0x6 DUP3 ADD SLOAD PUSH1 0xA0 DUP3 ADD MSTORE PUSH1 0x7 DUP3 ADD SLOAD PUSH1 0xC0 DUP3 ADD MSTORE PUSH1 0x8 DUP3 ADD SLOAD PUSH1 0xE0 DUP3 ADD MSTORE PUSH1 0x9 DUP3 ADD SLOAD PUSH2 0x100 DUP3 ADD MSTORE PUSH1 0xA DUP3 ADD SLOAD PUSH2 0x120 DUP3 ADD MSTORE PUSH1 0xB DUP3 ADD SLOAD PUSH2 0x140 DUP3 ADD MSTORE PUSH1 0xC SWAP1 SWAP2 ADD SLOAD PUSH2 0x160 DUP3 ADD MSTORE SWAP1 SWAP16 POP SWAP14 POP SWAP1 POP JUMPDEST PUSH1 0x1 DUP4 PUSH2 0x120 ADD MLOAD EQ DUP1 PUSH3 0x2452 JUMPI POP PUSH1 0x1 DUP3 PUSH2 0x120 ADD MLOAD EQ JUMPDEST ISZERO PUSH3 0x2857 JUMPI PUSH1 0x0 PUSH3 0x2478 DUP5 PUSH2 0x100 ADD MLOAD DUP4 PUSH1 0x60 ADD MLOAD PUSH3 0x182A SWAP1 SWAP2 SWAP1 PUSH4 0xFFFFFFFF AND JUMP JUMPDEST PUSH1 0x40 DUP5 ADD MLOAD SWAP1 SWAP2 POP DUP2 SWAP1 PUSH1 0x1 EQ PUSH3 0x24A9 JUMPI PUSH2 0x100 DUP5 ADD MLOAD PUSH1 0x80 DUP5 ADD MLOAD PUSH3 0x24A6 SWAP2 PUSH4 0xFFFFFFFF PUSH3 0x182A AND JUMP JUMPDEST SWAP1 POP JUMPDEST PUSH1 0x80 DUP6 ADD MLOAD PUSH1 0x1 PUSH1 0x1 PUSH1 0xA0 SHL SUB AND PUSH1 0x0 SWAP1 DUP2 MSTORE PUSH1 0x12 PUSH1 0x20 MSTORE PUSH1 0x40 SWAP1 KECCAK256 SLOAD PUSH3 0x24D8 SWAP1 DUP4 PUSH4 0xFFFFFFFF PUSH3 0x2978 AND JUMP JUMPDEST PUSH1 0x80 DUP7 ADD MLOAD PUSH1 0x1 PUSH1 0x1 PUSH1 0xA0 SHL SUB SWAP1 DUP2 AND PUSH1 0x0 SWAP1 DUP2 MSTORE PUSH1 0x12 PUSH1 0x20 SWAP1 DUP2 MSTORE PUSH1 0x40 DUP1 DUP4 KECCAK256 SWAP5 SWAP1 SWAP5 SSTORE PUSH1 0xA0 DUP10 ADD MLOAD DUP3 MSTORE PUSH1 0xD SWAP1 MSTORE DUP3 SWAP1 KECCAK256 SLOAD PUSH1 0x11 SLOAD PUSH1 0x60 DUP1 DUP10 ADD MLOAD SWAP1 DUP9 ADD MLOAD SWAP5 MLOAD PUSH4 0x23B872DD PUSH1 0xE0 SHL DUP2 MSTORE SWAP3 DUP5 AND SWAP5 DUP6 SWAP5 PUSH4 0x23B872DD SWAP5 PUSH3 0x2545 SWAP5 SWAP1 SWAP2 AND SWAP3 SWAP2 SWAP1 PUSH1 0x4 ADD PUSH3 0x364F JUMP JUMPDEST PUSH1 0x20 PUSH1 0x40 MLOAD DUP1 DUP4 SUB DUP2 PUSH1 0x0 DUP8 DUP1 EXTCODESIZE ISZERO DUP1 ISZERO PUSH3 0x2560 JUMPI PUSH1 0x0 DUP1 REVERT JUMPDEST POP GAS CALL ISZERO DUP1 ISZERO PUSH3 0x2575 JUMPI RETURNDATASIZE PUSH1 0x0 DUP1 RETURNDATACOPY RETURNDATASIZE PUSH1 0x0 REVERT JUMPDEST POP POP POP POP PUSH1 0x40 MLOAD RETURNDATASIZE PUSH1 0x1F NOT PUSH1 0x1F DUP3 ADD AND DUP3 ADD DUP1 PUSH1 0x40 MSTORE POP PUSH3 0x259B SWAP2 SWAP1 DUP2 ADD SWAP1 PUSH3 0x3301 JUMP JUMPDEST ISZERO PUSH3 0x260C JUMPI PUSH1 0x60 DUP1 DUP7 ADD MLOAD SWAP1 DUP6 ADD MLOAD PUSH1 0x40 MLOAD PUSH4 0x363798F9 PUSH1 0xE1 SHL DUP2 MSTORE PUSH1 0x1 PUSH1 0x1 PUSH1 0xA0 SHL SUB DUP5 AND SWAP3 PUSH4 0x6C6F31F2 SWAP3 PUSH3 0x25D7 SWAP3 PUSH1 0x4 ADD PUSH3 0x3673 JUMP JUMPDEST PUSH1 0x0 PUSH1 0x40 MLOAD DUP1 DUP4 SUB DUP2 PUSH1 0x0 DUP8 DUP1 EXTCODESIZE ISZERO DUP1 ISZERO PUSH3 0x25F2 JUMPI PUSH1 0x0 DUP1 REVERT JUMPDEST POP GAS CALL ISZERO DUP1 ISZERO PUSH3 0x2607 JUMPI RETURNDATASIZE PUSH1 0x0 DUP1 RETURNDATACOPY RETURNDATASIZE PUSH1 0x0 REVERT JUMPDEST POP POP POP POP JUMPDEST PUSH1 0xE SLOAD PUSH1 0x80 DUP8 ADD MLOAD PUSH1 0x60 DUP1 DUP9 ADD MLOAD PUSH2 0x100 DUP11 ADD MLOAD SWAP2 DUP9 ADD MLOAD PUSH1 0x1 PUSH1 0x1 PUSH1 0xA0 SHL SUB SWAP1 SWAP5 AND SWAP4 PUSH4 0x23B872DD SWAP4 SWAP3 PUSH3 0x2649 SWAP2 SWAP1 PUSH4 0xFFFFFFFF PUSH3 0x182A AND JUMP JUMPDEST PUSH1 0x40 MLOAD DUP5 PUSH4 0xFFFFFFFF AND PUSH1 0xE0 SHL DUP2 MSTORE PUSH1 0x4 ADD PUSH3 0x2669 SWAP4 SWAP3 SWAP2 SWAP1 PUSH3 0x364F JUMP JUMPDEST PUSH1 0x20 PUSH1 0x40 MLOAD DUP1 DUP4 SUB DUP2 PUSH1 0x0 DUP8 DUP1 EXTCODESIZE ISZERO DUP1 ISZERO PUSH3 0x2684 JUMPI PUSH1 0x0 DUP1 REVERT JUMPDEST POP GAS CALL ISZERO DUP1 ISZERO PUSH3 0x2699 JUMPI RETURNDATASIZE PUSH1 0x0 DUP1 RETURNDATACOPY RETURNDATASIZE PUSH1 0x0 REVERT JUMPDEST POP POP POP POP PUSH1 0x40 MLOAD RETURNDATASIZE PUSH1 0x1F NOT PUSH1 0x1F DUP3 ADD AND DUP3 ADD DUP1 PUSH1 0x40 MSTORE POP PUSH3 0x26BF SWAP2 SWAP1 DUP2 ADD SWAP1 PUSH3 0x3301 JUMP JUMPDEST ISZERO PUSH3 0x2853 JUMPI PUSH1 0xE SLOAD PUSH1 0x60 DUP1 DUP8 ADD MLOAD PUSH2 0x100 DUP10 ADD MLOAD SWAP2 DUP8 ADD MLOAD PUSH1 0x1 PUSH1 0x1 PUSH1 0xA0 SHL SUB SWAP1 SWAP4 AND SWAP3 PUSH4 0x6C6F31F2 SWAP3 PUSH3 0x26FC SWAP2 SWAP1 PUSH4 0xFFFFFFFF PUSH3 0x182A AND JUMP JUMPDEST PUSH1 0x40 MLOAD DUP4 PUSH4 0xFFFFFFFF AND PUSH1 0xE0 SHL DUP2 MSTORE PUSH1 0x4 ADD PUSH3 0x271B SWAP3 SWAP2 SWAP1 PUSH3 0x3673 JUMP JUMPDEST PUSH1 0x0 PUSH1 0x40 MLOAD DUP1 DUP4 SUB DUP2 PUSH1 0x0 DUP8 DUP1 EXTCODESIZE ISZERO DUP1 ISZERO PUSH3 0x2736 JUMPI PUSH1 0x0 DUP1 REVERT JUMPDEST POP GAS CALL ISZERO DUP1 ISZERO PUSH3 0x274B JUMPI RETURNDATASIZE PUSH1 0x0 DUP1 RETURNDATACOPY RETURNDATASIZE PUSH1 0x0 REVERT JUMPDEST POP POP POP POP PUSH1 0x60 DUP6 DUP2 ADD MLOAD PUSH1 0x80 DUP9 ADD MLOAD SWAP2 DUP7 ADD MLOAD PUSH1 0x40 MLOAD PUSH4 0x23B872DD PUSH1 0xE0 SHL DUP2 MSTORE PUSH1 0x1 PUSH1 0x1 PUSH1 0xA0 SHL SUB DUP6 AND SWAP4 PUSH4 0x23B872DD SWAP4 PUSH3 0x278C SWAP4 SWAP1 SWAP3 PUSH1 0x4 ADD PUSH3 0x364F JUMP JUMPDEST PUSH1 0x20 PUSH1 0x40 MLOAD DUP1 DUP4 SUB DUP2 PUSH1 0x0 DUP8 DUP1 EXTCODESIZE ISZERO DUP1 ISZERO PUSH3 0x27A7 JUMPI PUSH1 0x0 DUP1 REVERT JUMPDEST POP GAS CALL ISZERO DUP1 ISZERO PUSH3 0x27BC JUMPI RETURNDATASIZE PUSH1 0x0 DUP1 RETURNDATACOPY RETURNDATASIZE PUSH1 0x0 REVERT JUMPDEST POP POP POP POP PUSH1 0x40 MLOAD RETURNDATASIZE PUSH1 0x1F NOT PUSH1 0x1F DUP3 ADD AND DUP3 ADD DUP1 PUSH1 0x40 MSTORE POP PUSH3 0x27E2 SWAP2 SWAP1 DUP2 ADD SWAP1 PUSH3 0x3301 JUMP JUMPDEST ISZERO PUSH3 0x2853 JUMPI PUSH1 0x80 DUP7 ADD MLOAD PUSH1 0x60 DUP6 ADD MLOAD PUSH1 0x40 MLOAD PUSH4 0x363798F9 PUSH1 0xE1 SHL DUP2 MSTORE PUSH1 0x1 PUSH1 0x1 PUSH1 0xA0 SHL SUB DUP5 AND SWAP3 PUSH4 0x6C6F31F2 SWAP3 PUSH3 0x281E SWAP3 PUSH1 0x4 ADD PUSH3 0x3673 JUMP JUMPDEST PUSH1 0x0 PUSH1 0x40 MLOAD DUP1 DUP4 SUB DUP2 PUSH1 0x0 DUP8 DUP1 EXTCODESIZE ISZERO DUP1 ISZERO PUSH3 0x2839 JUMPI PUSH1 0x0 DUP1 REVERT JUMPDEST POP GAS CALL ISZERO DUP1 ISZERO PUSH3 0x284E JUMPI RETURNDATASIZE PUSH1 0x0 DUP1 RETURNDATACOPY RETURNDATASIZE PUSH1 0x0 REVERT JUMPDEST POP POP POP POP JUMPDEST POP POP POP JUMPDEST POP POP POP JUMPDEST DUP8 PUSH3 0x286D JUMPI POP POP POP POP POP POP PUSH3 0x651 JUMP JUMPDEST PUSH3 0x2880 DUP9 PUSH1 0x1 PUSH4 0xFFFFFFFF PUSH3 0x2978 AND JUMP JUMPDEST SWAP8 POP POP POP POP POP POP POP PUSH3 0x201D JUMP JUMPDEST PUSH1 0x0 PUSH3 0x28A4 DUP5 PUSH1 0x1 PUSH1 0x1 PUSH1 0xA0 SHL SUB AND PUSH3 0x2D65 JUMP JUMPDEST PUSH3 0x28B2 JUMPI POP PUSH1 0x1 PUSH3 0x2970 JUMP JUMPDEST PUSH1 0x60 PUSH3 0x293E PUSH4 0x150B7A02 PUSH1 0xE0 SHL CALLER DUP9 DUP8 DUP8 PUSH1 0x40 MLOAD PUSH1 0x24 ADD PUSH3 0x28D9 SWAP5 SWAP4 SWAP3 SWAP2 SWAP1 PUSH3 0x35F6 JUMP JUMPDEST PUSH1 0x40 MLOAD PUSH1 0x20 DUP2 DUP4 SUB SUB DUP2 MSTORE SWAP1 PUSH1 0x40 MSTORE SWAP1 PUSH1 0x1 PUSH1 0x1 PUSH1 0xE0 SHL SUB NOT AND PUSH1 0x20 DUP3 ADD DUP1 MLOAD PUSH1 0x1 PUSH1 0x1 PUSH1 0xE0 SHL SUB DUP4 DUP2 DUP4 AND OR DUP4 MSTORE POP POP POP POP PUSH1 0x40 MLOAD DUP1 PUSH1 0x60 ADD PUSH1 0x40 MSTORE DUP1 PUSH1 0x32 DUP2 MSTORE PUSH1 0x20 ADD PUSH3 0x508E PUSH1 0x32 SWAP2 CODECOPY PUSH1 0x1 PUSH1 0x1 PUSH1 0xA0 SHL SUB DUP9 AND SWAP2 SWAP1 PUSH4 0xFFFFFFFF PUSH3 0x2D6B AND JUMP JUMPDEST SWAP1 POP PUSH1 0x0 DUP2 DUP1 PUSH1 0x20 ADD SWAP1 MLOAD PUSH3 0x2958 SWAP2 SWAP1 DUP2 ADD SWAP1 PUSH3 0x3358 JUMP JUMPDEST PUSH1 0x1 PUSH1 0x1 PUSH1 0xE0 SHL SUB NOT AND PUSH4 0xA85BD01 PUSH1 0xE1 SHL EQ SWAP3 POP POP POP JUMPDEST SWAP5 SWAP4 POP POP POP POP JUMP JUMPDEST PUSH1 0x0 PUSH3 0x186A DUP4 DUP4 PUSH1 0x40 MLOAD DUP1 PUSH1 0x40 ADD PUSH1 0x40 MSTORE DUP1 PUSH1 0x1E DUP2 MSTORE PUSH1 0x20 ADD PUSH32 0x536166654D6174683A207375627472616374696F6E206F766572666C6F770000 DUP2 MSTORE POP PUSH3 0x2D7C JUMP JUMPDEST PUSH3 0x29C6 PUSH3 0x3060 JUMP JUMPDEST POP PUSH1 0x40 DUP1 MLOAD PUSH1 0xA0 DUP2 ADD DUP3 MSTORE PUSH1 0x0 DUP1 DUP3 MSTORE PUSH1 0x20 DUP3 ADD DUP2 SWAP1 MSTORE SWAP2 DUP2 ADD DUP3 SWAP1 MSTORE PUSH1 0x60 DUP2 ADD DUP3 SWAP1 MSTORE PUSH1 0x80 DUP2 ADD SWAP2 SWAP1 SWAP2 MSTORE PUSH1 0xC0 DUP1 DUP5 ADD MLOAD SWAP1 DUP4 ADD MLOAD PUSH2 0x140 DUP6 ADD MLOAD ISZERO DUP1 ISZERO SWAP1 PUSH3 0x2A15 JUMPI POP TIMESTAMP DUP6 PUSH2 0x140 ADD MLOAD LT JUMPDEST ISZERO PUSH3 0x2A23 JUMPI PUSH1 0x1 PUSH1 0x20 DUP5 ADD MSTORE JUMPDEST PUSH1 0x0 DUP5 PUSH2 0x140 ADD MLOAD GT DUP1 ISZERO PUSH3 0x2A3D JUMPI POP TIMESTAMP DUP5 PUSH2 0x140 ADD MLOAD LT JUMPDEST ISZERO PUSH3 0x2A4B JUMPI PUSH1 0x1 PUSH1 0x40 DUP5 ADD MSTORE JUMPDEST DUP4 PUSH2 0x100 ADD MLOAD DUP6 PUSH2 0x100 ADD MLOAD LT ISZERO DUP1 ISZERO PUSH3 0x2A76 JUMPI POP PUSH1 0x20 DUP4 ADD MLOAD ISZERO DUP1 ISZERO PUSH3 0x2A76 JUMPI POP PUSH1 0x40 DUP4 ADD MLOAD ISZERO JUMPDEST ISZERO PUSH3 0x2AEE JUMPI DUP1 DUP3 EQ ISZERO PUSH3 0x2A98 JUMPI PUSH3 0x2A92 DUP4 DUP7 DUP7 PUSH3 0x2DAB JUMP JUMPDEST PUSH3 0x2AE8 JUMP JUMPDEST DUP1 DUP3 GT DUP1 ISZERO PUSH3 0x2AAD JUMPI POP PUSH1 0x1 DUP6 PUSH1 0x40 ADD MLOAD EQ ISZERO JUMPDEST ISZERO PUSH3 0x2AC0 JUMPI PUSH3 0x2A92 DUP4 DUP7 DUP7 PUSH3 0x2DE3 JUMP JUMPDEST DUP1 DUP3 LT DUP1 ISZERO PUSH3 0x2AD5 JUMPI POP PUSH1 0x1 DUP5 PUSH1 0x40 ADD MLOAD EQ ISZERO JUMPDEST ISZERO PUSH3 0x2AE8 JUMPI PUSH3 0x2AE8 DUP4 DUP7 DUP7 PUSH3 0x2E26 JUMP JUMPDEST PUSH3 0x2B71 JUMP JUMPDEST PUSH1 0x4 DUP5 PUSH1 0x40 ADD MLOAD EQ DUP1 ISZERO PUSH3 0x2B05 JUMPI POP PUSH1 0x40 DUP4 ADD MLOAD ISZERO JUMPDEST ISZERO PUSH3 0x2B71 JUMPI DUP1 DUP3 EQ ISZERO PUSH3 0x2B21 JUMPI PUSH3 0x2AE8 DUP4 DUP7 DUP7 PUSH3 0x2DAB JUMP JUMPDEST DUP1 DUP3 GT DUP1 ISZERO PUSH3 0x2B36 JUMPI POP PUSH1 0x1 DUP6 PUSH1 0x40 ADD MLOAD EQ ISZERO JUMPDEST ISZERO PUSH3 0x2B49 JUMPI PUSH3 0x2AE8 DUP4 DUP7 DUP7 PUSH3 0x2DE3 JUMP JUMPDEST DUP1 DUP3 LT DUP1 ISZERO PUSH3 0x2B5E JUMPI POP PUSH1 0x1 DUP5 PUSH1 0x40 ADD MLOAD EQ ISZERO JUMPDEST ISZERO PUSH3 0x2B71 JUMPI PUSH3 0x2B71 DUP4 DUP7 DUP7 PUSH3 0x2E26 JUMP JUMPDEST DUP4 PUSH1 0xF PUSH1 0x0 DUP7 PUSH1 0x0 ADD MLOAD PUSH1 0x0 ADD MLOAD DUP2 MSTORE PUSH1 0x20 ADD SWAP1 DUP2 MSTORE PUSH1 0x20 ADD PUSH1 0x0 KECCAK256 PUSH1 0x0 DUP3 ADD MLOAD DUP2 PUSH1 0x0 ADD PUSH1 0x0 DUP3 ADD MLOAD DUP2 PUSH1 0x0 ADD SSTORE PUSH1 0x20 DUP3 ADD MLOAD DUP2 PUSH1 0x1 ADD SSTORE POP POP PUSH1 0x20 DUP3 ADD MLOAD DUP2 PUSH1 0x2 ADD SSTORE PUSH1 0x40 DUP3 ADD MLOAD DUP2 PUSH1 0x3 ADD SSTORE PUSH1 0x60 DUP3 ADD MLOAD DUP2 PUSH1 0x4 ADD PUSH1 0x0 PUSH2 0x100 EXP DUP2 SLOAD DUP2 PUSH1 0x1 PUSH1 0x1 PUSH1 0xA0 SHL SUB MUL NOT AND SWAP1 DUP4 PUSH1 0x1 PUSH1 0x1 PUSH1 0xA0 SHL SUB AND MUL OR SWAP1 SSTORE POP PUSH1 0x80 DUP3 ADD MLOAD DUP2 PUSH1 0x5 ADD PUSH1 0x0 PUSH2 0x100 EXP DUP2 SLOAD DUP2 PUSH1 0x1 PUSH1 0x1 PUSH1 0xA0 SHL SUB MUL NOT AND SWAP1 DUP4 PUSH1 0x1 PUSH1 0x1 PUSH1 0xA0 SHL SUB AND MUL OR SWAP1 SSTORE POP PUSH1 0xA0 DUP3 ADD MLOAD DUP2 PUSH1 0x6 ADD SSTORE PUSH1 0xC0 DUP3 ADD MLOAD DUP2 PUSH1 0x7 ADD SSTORE PUSH1 0xE0 DUP3 ADD MLOAD DUP2 PUSH1 0x8 ADD SSTORE PUSH2 0x100 DUP3 ADD MLOAD DUP2 PUSH1 0x9 ADD SSTORE PUSH2 0x120 DUP3 ADD MLOAD DUP2 PUSH1 0xA ADD SSTORE PUSH2 0x140 DUP3 ADD MLOAD DUP2 PUSH1 0xB ADD SSTORE PUSH2 0x160 DUP3 ADD MLOAD DUP2 PUSH1 0xC ADD SSTORE SWAP1 POP POP DUP5 PUSH1 0xF PUSH1 0x0 DUP8 PUSH1 0x0 ADD MLOAD PUSH1 0x0 ADD MLOAD DUP2 MSTORE PUSH1 0x20 ADD SWAP1 DUP2 MSTORE PUSH1 0x20 ADD PUSH1 0x0 KECCAK256 PUSH1 0x0 DUP3 ADD MLOAD DUP2 PUSH1 0x0 ADD PUSH1 0x0 DUP3 ADD MLOAD DUP2 PUSH1 0x0 ADD SSTORE PUSH1 0x20 DUP3 ADD MLOAD DUP2 PUSH1 0x1 ADD SSTORE POP POP PUSH1 0x20 DUP3 ADD MLOAD DUP2 PUSH1 0x2 ADD SSTORE PUSH1 0x40 DUP3 ADD MLOAD DUP2 PUSH1 0x3 ADD SSTORE PUSH1 0x60 DUP3 ADD MLOAD DUP2 PUSH1 0x4 ADD PUSH1 0x0 PUSH2 0x100 EXP DUP2 SLOAD DUP2 PUSH1 0x1 PUSH1 0x1 PUSH1 0xA0 SHL SUB MUL NOT AND SWAP1 DUP4 PUSH1 0x1 PUSH1 0x1 PUSH1 0xA0 SHL SUB AND MUL OR SWAP1 SSTORE POP PUSH1 0x80 DUP3 ADD MLOAD DUP2 PUSH1 0x5 ADD PUSH1 0x0 PUSH2 0x100 EXP DUP2 SLOAD DUP2 PUSH1 0x1 PUSH1 0x1 PUSH1 0xA0 SHL SUB MUL NOT AND SWAP1 DUP4 PUSH1 0x1 PUSH1 0x1 PUSH1 0xA0 SHL SUB AND MUL OR SWAP1 SSTORE POP PUSH1 0xA0 DUP3 ADD MLOAD DUP2 PUSH1 0x6 ADD SSTORE PUSH1 0xC0 DUP3 ADD MLOAD DUP2 PUSH1 0x7 ADD SSTORE PUSH1 0xE0 DUP3 ADD MLOAD DUP2 PUSH1 0x8 ADD SSTORE PUSH2 0x100 DUP3 ADD MLOAD DUP2 PUSH1 0x9 ADD SSTORE PUSH2 0x120 DUP3 ADD MLOAD DUP2 PUSH1 0xA ADD SSTORE PUSH2 0x140 DUP3 ADD MLOAD DUP2 PUSH1 0xB ADD SSTORE PUSH2 0x160 DUP3 ADD MLOAD DUP2 PUSH1 0xC ADD SSTORE SWAP1 POP POP POP POP SWAP3 SWAP2 POP POP JUMP JUMPDEST EXTCODESIZE ISZERO ISZERO SWAP1 JUMP JUMPDEST PUSH1 0x60 PUSH3 0x2970 DUP5 DUP5 PUSH1 0x0 DUP6 PUSH3 0x2E69 JUMP JUMPDEST PUSH1 0x0 DUP2 DUP5 DUP5 GT ISZERO PUSH3 0x2DA3 JUMPI PUSH1 0x40 MLOAD PUSH3 0x461BCD PUSH1 0xE5 SHL DUP2 MSTORE PUSH1 0x4 ADD PUSH3 0x508 SWAP2 SWAP1 PUSH3 0x3766 JUMP JUMPDEST POP POP POP SWAP1 SUB SWAP1 JUMP JUMPDEST PUSH1 0xC0 DUP1 DUP4 ADD DUP1 MLOAD PUSH1 0x60 DUP7 ADD MSTORE SWAP1 DUP3 ADD DUP1 MLOAD PUSH1 0x80 DUP7 ADD MSTORE PUSH1 0x1 DUP6 MSTORE PUSH1 0x0 SWAP1 DUP2 SWAP1 MSTORE SWAP1 MSTORE PUSH3 0x2DD8 DUP3 PUSH3 0x1871 JUMP JUMPDEST PUSH3 0x5BB DUP2 PUSH3 0x1871 JUMP JUMPDEST PUSH1 0xC0 DUP1 DUP3 ADD DUP1 MLOAD PUSH1 0x60 DUP7 ADD MSTORE DUP1 MLOAD PUSH1 0x80 DUP7 ADD MSTORE MLOAD SWAP1 DUP4 ADD MLOAD PUSH3 0x2E0C SWAP2 PUSH4 0xFFFFFFFF PUSH3 0x2978 AND JUMP JUMPDEST PUSH1 0xC0 DUP1 DUP5 ADD SWAP2 SWAP1 SWAP2 MSTORE PUSH1 0x0 SWAP1 DUP3 ADD MSTORE PUSH3 0x5BB DUP2 PUSH3 0x1871 JUMP JUMPDEST PUSH1 0xC0 DUP1 DUP4 ADD DUP1 MLOAD PUSH1 0x60 DUP7 ADD MSTORE DUP1 MLOAD PUSH1 0x80 DUP7 ADD MSTORE MLOAD SWAP1 DUP3 ADD MLOAD PUSH3 0x2E4F SWAP2 PUSH4 0xFFFFFFFF PUSH3 0x2978 AND JUMP JUMPDEST PUSH1 0xC0 DUP1 DUP4 ADD SWAP2 SWAP1 SWAP2 MSTORE PUSH1 0x0 SWAP1 DUP4 ADD MSTORE PUSH3 0x5BB DUP3 PUSH3 0x1871 JUMP JUMPDEST PUSH1 0x60 PUSH3 0x2E76 DUP6 PUSH3 0x2D65 JUMP JUMPDEST PUSH3 0x2E95 JUMPI PUSH1 0x40 MLOAD PUSH3 0x461BCD PUSH1 0xE5 SHL DUP2 MSTORE PUSH1 0x4 ADD PUSH3 0x508 SWAP1 PUSH3 0x3A29 JUMP JUMPDEST PUSH1 0x0 PUSH1 0x60 DUP7 PUSH1 0x1 PUSH1 0x1 PUSH1 0xA0 SHL SUB AND DUP6 DUP8 PUSH1 0x40 MLOAD PUSH3 0x2EB4 SWAP2 SWAP1 PUSH3 0x35C4 JUMP JUMPDEST PUSH1 0x0 PUSH1 0x40 MLOAD DUP1 DUP4 SUB DUP2 DUP6 DUP8 GAS CALL SWAP3 POP POP POP RETURNDATASIZE DUP1 PUSH1 0x0 DUP2 EQ PUSH3 0x2EF3 JUMPI PUSH1 0x40 MLOAD SWAP2 POP PUSH1 0x1F NOT PUSH1 0x3F RETURNDATASIZE ADD AND DUP3 ADD PUSH1 0x40 MSTORE RETURNDATASIZE DUP3 MSTORE RETURNDATASIZE PUSH1 0x0 PUSH1 0x20 DUP5 ADD RETURNDATACOPY PUSH3 0x2EF8 JUMP JUMPDEST PUSH1 0x60 SWAP2 POP JUMPDEST POP SWAP2 POP SWAP2 POP DUP2 ISZERO PUSH3 0x2F0E JUMPI SWAP2 POP PUSH3 0x2970 SWAP1 POP JUMP JUMPDEST DUP1 MLOAD ISZERO PUSH3 0x2F1F JUMPI DUP1 MLOAD DUP1 DUP3 PUSH1 0x20 ADD REVERT JUMPDEST DUP4 PUSH1 0x40 MLOAD PUSH3 0x461BCD PUSH1 0xE5 SHL DUP2 MSTORE PUSH1 0x4 ADD PUSH3 0x508 SWAP2 SWAP1 PUSH3 0x3766 JUMP JUMPDEST PUSH1 0x40 MLOAD DUP1 PUSH2 0x180 ADD PUSH1 0x40 MSTORE DUP1 PUSH3 0x2F51 PUSH3 0x3049 JUMP JUMPDEST DUP2 MSTORE PUSH1 0x20 ADD PUSH1 0x0 DUP2 MSTORE PUSH1 0x20 ADD PUSH1 0x0 DUP2 MSTORE PUSH1 0x20 ADD PUSH1 0x0 PUSH1 0x1 PUSH1 0x1 PUSH1 0xA0 SHL SUB AND DUP2 MSTORE PUSH1 0x20 ADD PUSH1 0x0 PUSH1 0x1 PUSH1 0x1 PUSH1 0xA0 SHL SUB AND DUP2 MSTORE PUSH1 0x20 ADD PUSH1 0x0 DUP2 MSTORE PUSH1 0x20 ADD PUSH1 0x0 DUP2 MSTORE PUSH1 0x20 ADD PUSH1 0x0 DUP2 MSTORE PUSH1 0x20 ADD PUSH1 0x0 DUP2 MSTORE PUSH1 0x20 ADD PUSH1 0x0 DUP2 MSTORE PUSH1 0x20 ADD PUSH1 0x0 DUP2 MSTORE PUSH1 0x20 ADD PUSH1 0x0 DUP2 MSTORE POP SWAP1 JUMP JUMPDEST DUP3 DUP1 SLOAD PUSH1 0x1 DUP2 PUSH1 0x1 AND ISZERO PUSH2 0x100 MUL SUB AND PUSH1 0x2 SWAP1 DIV SWAP1 PUSH1 0x0 MSTORE PUSH1 0x20 PUSH1 0x0 KECCAK256 SWAP1 PUSH1 0x1F ADD PUSH1 0x20 SWAP1 DIV DUP2 ADD SWAP3 DUP3 PUSH1 0x1F LT PUSH3 0x2FF9 JUMPI DUP3 DUP1 ADD PUSH1 0xFF NOT DUP3 CALLDATALOAD AND OR DUP6 SSTORE PUSH3 0x3029 JUMP JUMPDEST DUP3 DUP1 ADD PUSH1 0x1 ADD DUP6 SSTORE DUP3 ISZERO PUSH3 0x3029 JUMPI SWAP2 DUP3 ADD JUMPDEST DUP3 DUP2 GT ISZERO PUSH3 0x3029 JUMPI DUP3 CALLDATALOAD DUP3 SSTORE SWAP2 PUSH1 0x20 ADD SWAP2 SWAP1 PUSH1 0x1 ADD SWAP1 PUSH3 0x300C JUMP JUMPDEST POP PUSH3 0x3037 SWAP3 SWAP2 POP PUSH3 0x308E JUMP JUMPDEST POP SWAP1 JUMP JUMPDEST PUSH2 0x13D1 DUP1 PUSH3 0x3CBD DUP4 CODECOPY ADD SWAP1 JUMP JUMPDEST PUSH1 0x40 DUP1 MLOAD DUP1 DUP3 ADD SWAP1 SWAP2 MSTORE PUSH1 0x0 DUP1 DUP3 MSTORE PUSH1 0x20 DUP3 ADD MSTORE SWAP1 JUMP JUMPDEST PUSH1 0x40 DUP1 MLOAD PUSH1 0xA0 DUP2 ADD DUP3 MSTORE PUSH1 0x0 DUP1 DUP3 MSTORE PUSH1 0x20 DUP3 ADD DUP2 SWAP1 MSTORE SWAP2 DUP2 ADD DUP3 SWAP1 MSTORE PUSH1 0x60 DUP2 ADD DUP3 SWAP1 MSTORE PUSH1 0x80 DUP2 ADD SWAP2 SWAP1 SWAP2 MSTORE SWAP1 JUMP JUMPDEST PUSH3 0x4CE SWAP2 SWAP1 JUMPDEST DUP1 DUP3 GT ISZERO PUSH3 0x3037 JUMPI PUSH1 0x0 DUP2 SSTORE PUSH1 0x1 ADD PUSH3 0x3095 JUMP JUMPDEST PUSH1 0x0 DUP1 DUP4 PUSH1 0x1F DUP5 ADD SLT PUSH3 0x30BD JUMPI DUP2 DUP3 REVERT JUMPDEST POP DUP2 CALLDATALOAD PUSH8 0xFFFFFFFFFFFFFFFF DUP2 GT ISZERO PUSH3 0x30D5 JUMPI DUP2 DUP3 REVERT JUMPDEST PUSH1 0x20 DUP4 ADD SWAP2 POP DUP4 PUSH1 0x20 DUP3 DUP6 ADD ADD GT ISZERO PUSH3 0x30EE JUMPI PUSH1 0x0 DUP1 REVERT JUMPDEST SWAP3 POP SWAP3 SWAP1 POP JUMP JUMPDEST PUSH1 0x0 DUP3 PUSH1 0x1F DUP4 ADD SLT PUSH3 0x3106 JUMPI DUP1 DUP2 REVERT JUMPDEST DUP2 MLOAD PUSH3 0x311D PUSH3 0x3117 DUP3 PUSH3 0x3C2C JUMP JUMPDEST PUSH3 0x3C04 JUMP JUMPDEST SWAP2 POP DUP1 DUP3 MSTORE DUP4 PUSH1 0x20 DUP3 DUP6 ADD ADD GT ISZERO PUSH3 0x3135 JUMPI PUSH1 0x0 DUP1 REVERT JUMPDEST PUSH3 0x3148 DUP2 PUSH1 0x20 DUP5 ADD PUSH1 0x20 DUP7 ADD PUSH3 0x3C51 JUMP JUMPDEST POP SWAP3 SWAP2 POP POP JUMP JUMPDEST PUSH1 0x0 PUSH1 0x20 DUP3 DUP5 SUB SLT ISZERO PUSH3 0x3161 JUMPI DUP1 DUP2 REVERT JUMPDEST DUP2 CALLDATALOAD PUSH3 0x186A DUP2 PUSH3 0x3C80 JUMP JUMPDEST PUSH1 0x0 DUP1 PUSH1 0x40 DUP4 DUP6 SUB SLT ISZERO PUSH3 0x3181 JUMPI DUP1 DUP2 REVERT JUMPDEST DUP3 CALLDATALOAD PUSH3 0x318E DUP2 PUSH3 0x3C80 JUMP JUMPDEST SWAP2 POP PUSH1 0x20 DUP4 ADD CALLDATALOAD PUSH3 0x31A0 DUP2 PUSH3 0x3C80 JUMP JUMPDEST DUP1 SWAP2 POP POP SWAP3 POP SWAP3 SWAP1 POP JUMP JUMPDEST PUSH1 0x0 DUP1 PUSH1 0x0 PUSH1 0x60 DUP5 DUP7 SUB SLT ISZERO PUSH3 0x31C0 JUMPI DUP1 DUP2 REVERT JUMPDEST DUP4 CALLDATALOAD PUSH3 0x31CD DUP2 PUSH3 0x3C80 JUMP JUMPDEST SWAP3 POP PUSH1 0x20 DUP5 ADD CALLDATALOAD PUSH3 0x31DF DUP2 PUSH3 0x3C80 JUMP JUMPDEST SWAP3 SWAP6 SWAP3 SWAP5 POP POP POP PUSH1 0x40 SWAP2 SWAP1 SWAP2 ADD CALLDATALOAD SWAP1 JUMP JUMPDEST PUSH1 0x0 DUP1 PUSH1 0x0 DUP1 PUSH1 0x80 DUP6 DUP8 SUB SLT ISZERO PUSH3 0x3206 JUMPI DUP1 DUP2 REVERT JUMPDEST DUP5 CALLDATALOAD PUSH3 0x3213 DUP2 PUSH3 0x3C80 JUMP JUMPDEST SWAP4 POP PUSH1 0x20 DUP6 ADD CALLDATALOAD PUSH3 0x3225 DUP2 PUSH3 0x3C80 JUMP JUMPDEST SWAP3 POP PUSH1 0x40 DUP6 ADD CALLDATALOAD SWAP2 POP PUSH1 0x60 DUP6 ADD CALLDATALOAD PUSH8 0xFFFFFFFFFFFFFFFF DUP2 GT ISZERO PUSH3 0x3248 JUMPI DUP2 DUP3 REVERT JUMPDEST DUP1 DUP7 ADD DUP8 PUSH1 0x1F DUP3 ADD SLT PUSH3 0x325A JUMPI DUP3 DUP4 REVERT JUMPDEST DUP1 CALLDATALOAD SWAP2 POP PUSH3 0x326D PUSH3 0x3117 DUP4 PUSH3 0x3C2C JUMP JUMPDEST DUP3 DUP2 MSTORE DUP9 PUSH1 0x20 DUP5 DUP5 ADD ADD GT ISZERO PUSH3 0x3282 JUMPI DUP4 DUP5 REVERT JUMPDEST DUP3 PUSH1 0x20 DUP4 ADD PUSH1 0x20 DUP4 ADD CALLDATACOPY SWAP2 DUP3 ADD PUSH1 0x20 ADD SWAP3 SWAP1 SWAP3 MSTORE SWAP4 SWAP7 SWAP3 SWAP6 POP SWAP1 SWAP4 POP POP JUMP JUMPDEST PUSH1 0x0 DUP1 PUSH1 0x40 DUP4 DUP6 SUB SLT ISZERO PUSH3 0x32B4 JUMPI DUP2 DUP3 REVERT JUMPDEST DUP3 CALLDATALOAD PUSH3 0x32C1 DUP2 PUSH3 0x3C80 JUMP JUMPDEST SWAP2 POP PUSH1 0x20 DUP4 ADD CALLDATALOAD PUSH3 0x31A0 DUP2 PUSH3 0x3C96 JUMP JUMPDEST PUSH1 0x0 DUP1 PUSH1 0x40 DUP4 DUP6 SUB SLT ISZERO PUSH3 0x32E6 JUMPI DUP2 DUP3 REVERT JUMPDEST DUP3 CALLDATALOAD PUSH3 0x32F3 DUP2 PUSH3 0x3C80 JUMP JUMPDEST SWAP5 PUSH1 0x20 SWAP4 SWAP1 SWAP4 ADD CALLDATALOAD SWAP4 POP POP POP JUMP JUMPDEST PUSH1 0x0 PUSH1 0x20 DUP3 DUP5 SUB SLT ISZERO PUSH3 0x3313 JUMPI DUP1 DUP2 REVERT JUMPDEST DUP2 MLOAD PUSH3 0x186A DUP2 PUSH3 0x3C96 JUMP JUMPDEST PUSH1 0x0 PUSH1 0x20 DUP3 DUP5 SUB SLT ISZERO PUSH3 0x3332 JUMPI DUP1 DUP2 REVERT JUMPDEST POP CALLDATALOAD SWAP2 SWAP1 POP JUMP JUMPDEST PUSH1 0x0 PUSH1 0x20 DUP3 DUP5 SUB SLT ISZERO PUSH3 0x334B JUMPI DUP1 DUP2 REVERT JUMPDEST DUP2 CALLDATALOAD PUSH3 0x186A DUP2 PUSH3 0x3CA5 JUMP JUMPDEST PUSH1 0x0 PUSH1 0x20 DUP3 DUP5 SUB SLT ISZERO PUSH3 0x336A JUMPI DUP1 DUP2 REVERT JUMPDEST DUP2 MLOAD PUSH3 0x186A DUP2 PUSH3 0x3CA5 JUMP JUMPDEST PUSH1 0x0 PUSH1 0x20 DUP3 DUP5 SUB SLT ISZERO PUSH3 0x3389 JUMPI DUP1 DUP2 REVERT JUMPDEST POP MLOAD SWAP2 SWAP1 POP JUMP JUMPDEST PUSH1 0x0 DUP1 PUSH1 0x40 DUP4 DUP6 SUB SLT ISZERO PUSH3 0x33A3 JUMPI DUP2 DUP3 REVERT JUMPDEST DUP3 CALLDATALOAD SWAP2 POP PUSH1 0x20 DUP4 ADD CALLDATALOAD PUSH3 0x31A0 DUP2 PUSH3 0x3C80 JUMP JUMPDEST PUSH1 0x0 DUP1 PUSH1 0x0 DUP1 PUSH1 0x0 DUP1 PUSH1 0x0 DUP1 PUSH2 0x100 DUP10 DUP12 SUB SLT ISZERO PUSH3 0x33D4 JUMPI DUP6 DUP7 REVERT JUMPDEST DUP9 MLOAD SWAP8 POP PUSH1 0x20 DUP10 ADD MLOAD PUSH3 0x33E8 DUP2 PUSH3 0x3C80 JUMP JUMPDEST PUSH1 0x40 DUP11 ADD MLOAD SWAP1 SWAP8 POP PUSH3 0x33FB DUP2 PUSH3 0x3C80 JUMP JUMPDEST PUSH1 0x60 DUP11 ADD MLOAD SWAP1 SWAP7 POP PUSH8 0xFFFFFFFFFFFFFFFF DUP1 DUP3 GT ISZERO PUSH3 0x3419 JUMPI DUP6 DUP7 REVERT JUMPDEST PUSH3 0x3427 DUP13 DUP4 DUP14 ADD PUSH3 0x30F5 JUMP JUMPDEST SWAP7 POP PUSH1 0x80 DUP12 ADD MLOAD SWAP2 POP DUP1 DUP3 GT ISZERO PUSH3 0x343D JUMPI DUP6 DUP7 REVERT JUMPDEST POP PUSH3 0x344C DUP12 DUP3 DUP13 ADD PUSH3 0x30F5 JUMP JUMPDEST SWAP5 POP POP PUSH1 0xA0 DUP10 ADD MLOAD SWAP3 POP PUSH1 0xC0 DUP10 ADD MLOAD SWAP2 POP PUSH1 0xE0 DUP10 ADD MLOAD PUSH3 0x346D DUP2 PUSH3 0x3C80 JUMP JUMPDEST DUP1 SWAP2 POP POP SWAP3 SWAP6 SWAP9 POP SWAP3 SWAP6 SWAP9 SWAP1 SWAP4 SWAP7 POP JUMP JUMPDEST PUSH1 0x0 DUP1 PUSH1 0x0 DUP1 PUSH1 0x0 DUP1 PUSH1 0x0 DUP1 PUSH1 0xC0 DUP10 DUP12 SUB SLT ISZERO PUSH3 0x349A JUMPI DUP2 DUP3 REVERT JUMPDEST DUP9 CALLDATALOAD SWAP8 POP PUSH1 0x20 DUP10 ADD CALLDATALOAD PUSH8 0xFFFFFFFFFFFFFFFF DUP1 DUP3 GT ISZERO PUSH3 0x34B9 JUMPI DUP4 DUP5 REVERT JUMPDEST PUSH3 0x34C7 DUP13 DUP4 DUP14 ADD PUSH3 0x30AB JUMP JUMPDEST SWAP1 SWAP10 POP SWAP8 POP PUSH1 0x40 DUP12 ADD CALLDATALOAD SWAP7 POP PUSH1 0x60 DUP12 ADD CALLDATALOAD SWAP6 POP PUSH1 0x80 DUP12 ADD CALLDATALOAD SWAP2 POP PUSH3 0x34EC DUP3 PUSH3 0x3C80 JUMP JUMPDEST SWAP1 SWAP4 POP PUSH1 0xA0 DUP11 ADD CALLDATALOAD SWAP1 DUP1 DUP3 GT ISZERO PUSH3 0x3502 JUMPI DUP4 DUP5 REVERT JUMPDEST POP PUSH3 0x3511 DUP12 DUP3 DUP13 ADD PUSH3 0x30AB JUMP JUMPDEST SWAP10 SWAP13 SWAP9 SWAP12 POP SWAP7 SWAP10 POP SWAP5 SWAP8 SWAP4 SWAP7 SWAP3 SWAP6 SWAP5 POP POP POP JUMP JUMPDEST PUSH1 0x0 DUP1 PUSH1 0x0 DUP1 PUSH1 0x0 DUP1 PUSH1 0x0 DUP1 PUSH2 0x100 DUP10 DUP12 SUB SLT ISZERO PUSH3 0x3542 JUMPI DUP2 DUP3 REVERT JUMPDEST POP POP DUP7 CALLDATALOAD SWAP9 PUSH1 0x20 DUP9 ADD CALLDATALOAD SWAP9 POP PUSH1 0x40 DUP9 ADD CALLDATALOAD SWAP8 PUSH1 0x60 DUP2 ADD CALLDATALOAD SWAP8 POP PUSH1 0x80 DUP2 ADD CALLDATALOAD SWAP7 POP PUSH1 0xA0 DUP2 ADD CALLDATALOAD SWAP6 POP PUSH1 0xC0 DUP2 ADD CALLDATALOAD SWAP5 POP PUSH1 0xE0 ADD CALLDATALOAD SWAP3 POP SWAP1 POP JUMP JUMPDEST PUSH1 0x1 PUSH1 0x1 PUSH1 0xA0 SHL SUB AND SWAP1 MSTORE JUMP JUMPDEST PUSH1 0x0 DUP2 MLOAD DUP1 DUP5 MSTORE PUSH3 0x35A1 DUP2 PUSH1 0x20 DUP7 ADD PUSH1 0x20 DUP7 ADD PUSH3 0x3C51 JUMP JUMPDEST PUSH1 0x1F ADD PUSH1 0x1F NOT AND SWAP3 SWAP1 SWAP3 ADD PUSH1 0x20 ADD SWAP3 SWAP2 POP POP JUMP JUMPDEST DUP1 MLOAD DUP3 MSTORE PUSH1 0x20 SWAP1 DUP2 ADD MLOAD SWAP2 ADD MSTORE JUMP JUMPDEST PUSH1 0x0 DUP3 MLOAD PUSH3 0x35D8 DUP2 DUP5 PUSH1 0x20 DUP8 ADD PUSH3 0x3C51 JUMP JUMPDEST SWAP2 SWAP1 SWAP2 ADD SWAP3 SWAP2 POP POP JUMP JUMPDEST PUSH1 0x1 PUSH1 0x1 PUSH1 0xA0 SHL SUB SWAP2 SWAP1 SWAP2 AND DUP2 MSTORE PUSH1 0x20 ADD SWAP1 JUMP JUMPDEST PUSH1 0x1 PUSH1 0x1 PUSH1 0xA0 SHL SUB DUP6 DUP2 AND DUP3 MSTORE DUP5 AND PUSH1 0x20 DUP3 ADD MSTORE PUSH1 0x40 DUP2 ADD DUP4 SWAP1 MSTORE PUSH1 0x80 PUSH1 0x60 DUP3 ADD DUP2 SWAP1 MSTORE PUSH1 0x0 SWAP1 PUSH3 0x362B SWAP1 DUP4 ADD DUP5 PUSH3 0x3587 JUMP JUMPDEST SWAP7 SWAP6 POP POP POP POP POP POP JUMP JUMPDEST PUSH1 0x1 PUSH1 0x1 PUSH1 0xA0 SHL SUB SWAP3 DUP4 AND DUP2 MSTORE SWAP2 AND PUSH1 0x20 DUP3 ADD MSTORE PUSH1 0x40 ADD SWAP1 JUMP JUMPDEST PUSH1 0x1 PUSH1 0x1 PUSH1 0xA0 SHL SUB SWAP4 DUP5 AND DUP2 MSTORE SWAP2 SWAP1 SWAP3 AND PUSH1 0x20 DUP3 ADD MSTORE PUSH1 0x40 DUP2 ADD SWAP2 SWAP1 SWAP2 MSTORE PUSH1 0x60 ADD SWAP1 JUMP JUMPDEST PUSH1 0x1 PUSH1 0x1 PUSH1 0xA0 SHL SUB SWAP3 SWAP1 SWAP3 AND DUP3 MSTORE PUSH1 0x20 DUP3 ADD MSTORE PUSH1 0x40 ADD SWAP1 JUMP JUMPDEST PUSH1 0x0 PUSH1 0xA0 DUP3 ADD PUSH1 0xA0 DUP4 MSTORE DUP1 DUP8 SLOAD DUP1 DUP4 MSTORE PUSH1 0xC0 DUP6 ADD SWAP2 POP DUP9 DUP5 MSTORE PUSH1 0x20 SWAP3 POP DUP3 DUP5 KECCAK256 DUP5 JUMPDEST DUP3 DUP2 LT ISZERO PUSH3 0x36D8 JUMPI DUP2 SLOAD DUP5 MSTORE PUSH1 0x1 DUP1 DUP4 ADD SLOAD DUP7 DUP7 ADD MSTORE PUSH1 0x40 SWAP1 SWAP5 ADD SWAP4 PUSH1 0x2 SWAP1 SWAP3 ADD SWAP2 ADD PUSH3 0x36AE JUMP JUMPDEST POP POP POP SWAP1 DUP4 ADD DUP7 SWAP1 MSTORE PUSH1 0x40 DUP4 ADD DUP6 SWAP1 MSTORE SWAP1 POP PUSH3 0x36F9 PUSH1 0x60 DUP4 ADD DUP5 PUSH3 0x35B5 JUMP JUMPDEST SWAP6 SWAP5 POP POP POP POP POP JUMP JUMPDEST SWAP1 ISZERO ISZERO DUP2 MSTORE PUSH1 0x20 ADD SWAP1 JUMP JUMPDEST PUSH1 0x0 PUSH1 0xA0 DUP3 MSTORE DUP7 PUSH1 0xA0 DUP4 ADD MSTORE DUP7 DUP9 PUSH1 0xC0 DUP5 ADD CALLDATACOPY PUSH1 0xC0 DUP8 DUP4 ADD DUP2 ADD SWAP2 SWAP1 SWAP2 MSTORE PUSH1 0x20 DUP3 ADD SWAP6 SWAP1 SWAP6 MSTORE PUSH1 0x40 DUP2 ADD SWAP4 SWAP1 SWAP4 MSTORE PUSH1 0x1 PUSH1 0x1 PUSH1 0xA0 SHL SUB SWAP2 SWAP1 SWAP2 AND PUSH1 0x60 DUP4 ADD MSTORE PUSH1 0xFF AND PUSH1 0x80 DUP3 ADD MSTORE PUSH1 0x1F SWAP1 SWAP3 ADD PUSH1 0x1F NOT AND SWAP1 SWAP2 ADD ADD SWAP2 SWAP1 POP JUMP JUMPDEST PUSH1 0x0 PUSH1 0x20 DUP3 MSTORE PUSH3 0x186A PUSH1 0x20 DUP4 ADD DUP5 PUSH3 0x3587 JUMP JUMPDEST PUSH1 0x20 DUP1 DUP3 MSTORE PUSH1 0x2 SWAP1 DUP3 ADD MSTORE PUSH2 0x534B PUSH1 0xF0 SHL PUSH1 0x40 DUP3 ADD MSTORE PUSH1 0x60 ADD SWAP1 JUMP JUMPDEST PUSH1 0x20 DUP1 DUP3 MSTORE PUSH1 0x32 SWAP1 DUP3 ADD MSTORE PUSH32 0x4552433732313A207472616E7366657220746F206E6F6E204552433732315265 PUSH1 0x40 DUP3 ADD MSTORE PUSH18 0x31B2B4BB32B91034B6B83632B6B2B73A32B9 PUSH1 0x71 SHL PUSH1 0x60 DUP3 ADD MSTORE PUSH1 0x80 ADD SWAP1 JUMP JUMPDEST PUSH1 0x20 DUP1 DUP3 MSTORE PUSH1 0x2 SWAP1 DUP3 ADD MSTORE PUSH2 0x2327 PUSH1 0xF1 SHL PUSH1 0x40 DUP3 ADD MSTORE PUSH1 0x60 ADD SWAP1 JUMP JUMPDEST PUSH1 0x20 DUP1 DUP3 MSTORE PUSH1 0x2 SWAP1 DUP3 ADD MSTORE PUSH2 0x534D PUSH1 0xF0 SHL PUSH1 0x40 DUP3 ADD MSTORE PUSH1 0x60 ADD SWAP1 JUMP JUMPDEST PUSH1 0x20 DUP1 DUP3 MSTORE PUSH1 0x1B SWAP1 DUP3 ADD MSTORE PUSH32 0x536166654D6174683A206164646974696F6E206F766572666C6F770000000000 PUSH1 0x40 DUP3 ADD MSTORE PUSH1 0x60 ADD SWAP1 JUMP JUMPDEST PUSH1 0x20 DUP1 DUP3 MSTORE PUSH1 0x19 SWAP1 DUP3 ADD MSTORE PUSH32 0x4552433732313A20617070726F766520746F2063616C6C657200000000000000 PUSH1 0x40 DUP3 ADD MSTORE PUSH1 0x60 ADD SWAP1 JUMP JUMPDEST PUSH1 0x20 DUP1 DUP3 MSTORE PUSH1 0x3 SWAP1 DUP3 ADD MSTORE PUSH3 0x534153 PUSH1 0xE8 SHL PUSH1 0x40 DUP3 ADD MSTORE PUSH1 0x60 ADD SWAP1 JUMP JUMPDEST PUSH1 0x20 DUP1 DUP3 MSTORE PUSH1 0x38 SWAP1 DUP3 ADD MSTORE PUSH32 0x4552433732313A20617070726F76652063616C6C6572206973206E6F74206F77 PUSH1 0x40 DUP3 ADD MSTORE PUSH32 0x6E6572206E6F7220617070726F76656420666F7220616C6C0000000000000000 PUSH1 0x60 DUP3 ADD MSTORE PUSH1 0x80 ADD SWAP1 JUMP JUMPDEST PUSH1 0x20 DUP1 DUP3 MSTORE PUSH1 0x1 SWAP1 DUP3 ADD MSTORE PUSH1 0x27 PUSH1 0xF9 SHL PUSH1 0x40 DUP3 ADD MSTORE PUSH1 0x60 ADD SWAP1 JUMP JUMPDEST PUSH1 0x20 DUP1 DUP3 MSTORE PUSH1 0x1 SWAP1 DUP3 ADD MSTORE PUSH1 0x13 PUSH1 0xFA SHL PUSH1 0x40 DUP3 ADD MSTORE PUSH1 0x60 ADD SWAP1 JUMP JUMPDEST PUSH1 0x20 DUP1 DUP3 MSTORE PUSH1 0x21 SWAP1 DUP3 ADD MSTORE PUSH32 0x536166654D6174683A206D756C7469706C69636174696F6E206F766572666C6F PUSH1 0x40 DUP3 ADD MSTORE PUSH1 0x77 PUSH1 0xF8 SHL PUSH1 0x60 DUP3 ADD MSTORE PUSH1 0x80 ADD SWAP1 JUMP JUMPDEST PUSH1 0x20 DUP1 DUP3 MSTORE PUSH1 0x2C SWAP1 DUP3 ADD MSTORE PUSH32 0x4552433732313A20617070726F76656420717565727920666F72206E6F6E6578 PUSH1 0x40 DUP3 ADD MSTORE PUSH12 0x34B9BA32B73A103A37B5B2B7 PUSH1 0xA1 SHL PUSH1 0x60 DUP3 ADD MSTORE PUSH1 0x80 ADD SWAP1 JUMP JUMPDEST PUSH1 0x20 DUP1 DUP3 MSTORE PUSH1 0x21 SWAP1 DUP3 ADD MSTORE PUSH32 0x4552433732313A20617070726F76616C20746F2063757272656E74206F776E65 PUSH1 0x40 DUP3 ADD MSTORE PUSH1 0x39 PUSH1 0xF9 SHL PUSH1 0x60 DUP3 ADD MSTORE PUSH1 0x80 ADD SWAP1 JUMP JUMPDEST PUSH1 0x20 DUP1 DUP3 MSTORE PUSH1 0x2 SWAP1 DUP3 ADD MSTORE PUSH2 0x4E41 PUSH1 0xF0 SHL PUSH1 0x40 DUP3 ADD MSTORE PUSH1 0x60 ADD SWAP1 JUMP JUMPDEST PUSH1 0x20 DUP1 DUP3 MSTORE PUSH1 0x1D SWAP1 DUP3 ADD MSTORE PUSH32 0x416464726573733A2063616C6C20746F206E6F6E2D636F6E7472616374000000 PUSH1 0x40 DUP3 ADD MSTORE PUSH1 0x60 ADD SWAP1 JUMP JUMPDEST PUSH1 0x20 DUP1 DUP3 MSTORE PUSH1 0x14 SWAP1 DUP3 ADD MSTORE PUSH20 0x151BDAD95B88105B1C9958591E48135A5B9D1959 PUSH1 0x62 SHL PUSH1 0x40 DUP3 ADD MSTORE PUSH1 0x60 ADD SWAP1 JUMP JUMPDEST PUSH1 0x20 DUP1 DUP3 MSTORE PUSH1 0x2 SWAP1 DUP3 ADD MSTORE PUSH2 0x27A3 PUSH1 0xF1 SHL PUSH1 0x40 DUP3 ADD MSTORE PUSH1 0x60 ADD SWAP1 JUMP JUMPDEST PUSH1 0x20 DUP1 DUP3 MSTORE PUSH1 0x2 SWAP1 DUP3 ADD MSTORE PUSH2 0x4E45 PUSH1 0xF0 SHL PUSH1 0x40 DUP3 ADD MSTORE PUSH1 0x60 ADD SWAP1 JUMP JUMPDEST PUSH1 0x0 PUSH2 0x1A0 DUP3 ADD SWAP1 POP PUSH3 0x3ADC DUP3 DUP5 MLOAD PUSH3 0x35B5 JUMP JUMPDEST PUSH1 0x20 DUP4 ADD MLOAD PUSH1 0x40 DUP4 ADD MSTORE PUSH1 0x40 DUP4 ADD MLOAD PUSH1 0x60 DUP4 ADD MSTORE PUSH1 0x60 DUP4 ADD MLOAD PUSH3 0x3B04 PUSH1 0x80 DUP5 ADD DUP3 PUSH3 0x357A JUMP JUMPDEST POP PUSH1 0x80 DUP4 ADD MLOAD PUSH3 0x3B19 PUSH1 0xA0 DUP5 ADD DUP3 PUSH3 0x357A JUMP JUMPDEST POP PUSH1 0xA0 DUP4 ADD MLOAD PUSH1 0xC0 DUP4 DUP2 ADD SWAP2 SWAP1 SWAP2 MSTORE DUP4 ADD MLOAD PUSH1 0xE0 DUP1 DUP5 ADD SWAP2 SWAP1 SWAP2 MSTORE DUP4 ADD MLOAD PUSH2 0x100 DUP1 DUP5 ADD SWAP2 SWAP1 SWAP2 MSTORE DUP4 ADD MLOAD PUSH2 0x120 DUP1 DUP5 ADD SWAP2 SWAP1 SWAP2 MSTORE DUP4 ADD MLOAD PUSH2 0x140 DUP1 DUP5 ADD SWAP2 SWAP1 SWAP2 MSTORE DUP4 ADD MLOAD PUSH2 0x160 DUP1 DUP5 ADD SWAP2 SWAP1 SWAP2 MSTORE SWAP1 SWAP3 ADD MLOAD PUSH2 0x180 SWAP1 SWAP2 ADD MSTORE SWAP1 JUMP JUMPDEST SWAP1 DUP2 MSTORE PUSH1 0x20 ADD SWAP1 JUMP JUMPDEST SWAP2 DUP3 MSTORE PUSH1 0x1 PUSH1 0x1 PUSH1 0xA0 SHL SUB AND PUSH1 0x20 DUP3 ADD MSTORE PUSH1 0x40 ADD SWAP1 JUMP JUMPDEST DUP9 DUP2 MSTORE PUSH1 0x1 PUSH1 0x1 PUSH1 0xA0 SHL SUB DUP9 DUP2 AND PUSH1 0x20 DUP4 ADD MSTORE DUP8 DUP2 AND PUSH1 0x40 DUP4 ADD MSTORE PUSH2 0x100 PUSH1 0x60 DUP4 ADD DUP2 SWAP1 MSTORE PUSH1 0x0 SWAP2 PUSH3 0x3BCC DUP5 DUP4 ADD DUP11 PUSH3 0x3587 JUMP JUMPDEST DUP5 DUP2 SUB PUSH1 0x80 DUP7 ADD MSTORE PUSH3 0x3BE0 DUP2 DUP11 PUSH3 0x3587 JUMP JUMPDEST PUSH1 0xA0 DUP7 ADD SWAP9 SWAP1 SWAP9 MSTORE POP PUSH1 0xC0 DUP5 ADD SWAP6 SWAP1 SWAP6 MSTORE POP POP SWAP2 AND PUSH1 0xE0 SWAP1 SWAP2 ADD MSTORE SWAP6 SWAP5 POP POP POP POP POP JUMP JUMPDEST PUSH1 0x40 MLOAD DUP2 DUP2 ADD PUSH8 0xFFFFFFFFFFFFFFFF DUP2 GT DUP3 DUP3 LT OR ISZERO PUSH3 0x3C24 JUMPI PUSH1 0x0 DUP1 REVERT JUMPDEST PUSH1 0x40 MSTORE SWAP2 SWAP1 POP JUMP JUMPDEST PUSH1 0x0 PUSH8 0xFFFFFFFFFFFFFFFF DUP3 GT ISZERO PUSH3 0x3C43 JUMPI DUP1 DUP2 REVERT JUMPDEST POP PUSH1 0x1F ADD PUSH1 0x1F NOT AND PUSH1 0x20 ADD SWAP1 JUMP JUMPDEST PUSH1 0x0 JUMPDEST DUP4 DUP2 LT ISZERO PUSH3 0x3C6E JUMPI DUP2 DUP2 ADD MLOAD DUP4 DUP3 ADD MSTORE PUSH1 0x20 ADD PUSH3 0x3C54 JUMP JUMPDEST DUP4 DUP2 GT ISZERO PUSH3 0x1004 JUMPI POP POP PUSH1 0x0 SWAP2 ADD MSTORE JUMP JUMPDEST PUSH1 0x1 PUSH1 0x1 PUSH1 0xA0 SHL SUB DUP2 AND DUP2 EQ PUSH3 0x1D4D JUMPI PUSH1 0x0 DUP1 REVERT JUMPDEST DUP1 ISZERO ISZERO DUP2 EQ PUSH3 0x1D4D JUMPI PUSH1 0x0 DUP1 REVERT JUMPDEST PUSH1 0x1 PUSH1 0x1 PUSH1 0xE0 SHL SUB NOT DUP2 AND DUP2 EQ PUSH3 0x1D4D JUMPI PUSH1 0x0 DUP1 REVERT INVALID PUSH1 0x80 PUSH1 0x40 MSTORE CALLVALUE DUP1 ISZERO PUSH3 0x11 JUMPI PUSH1 0x0 DUP1 REVERT JUMPDEST POP PUSH1 0x40 MLOAD PUSH3 0x13D1 CODESIZE SUB DUP1 PUSH3 0x13D1 DUP4 CODECOPY DUP2 ADD PUSH1 0x40 DUP2 SWAP1 MSTORE PUSH3 0x34 SWAP2 PUSH3 0x3DB JUMP JUMPDEST PUSH1 0x40 DUP1 MLOAD DUP1 DUP3 ADD SWAP1 SWAP2 MSTORE PUSH1 0xB DUP1 DUP3 MSTORE PUSH11 0x546F6B656E536861726573 PUSH1 0xA8 SHL PUSH1 0x20 DUP4 ADD SWAP1 DUP2 MSTORE DUP8 SWAP2 PUSH3 0x69 SWAP2 PUSH1 0x3 SWAP2 PUSH3 0x30C JUMP JUMPDEST POP DUP1 MLOAD PUSH3 0x7F SWAP1 PUSH1 0x4 SWAP1 PUSH1 0x20 DUP5 ADD SWAP1 PUSH3 0x30C JUMP JUMPDEST POP POP PUSH1 0x5 DUP1 SLOAD PUSH1 0xFF NOT AND PUSH1 0x12 OR SWAP1 SSTORE POP PUSH1 0x8 DUP1 SLOAD PUSH1 0x1 PUSH1 0x1 PUSH1 0xA0 SHL SUB NOT AND CALLER OR SWAP1 SSTORE PUSH3 0xB6 DUP3 DUP6 PUSH1 0x1 PUSH1 0x1 PUSH1 0xE0 SHL SUB PUSH3 0x10F AND JUMP JUMPDEST PUSH1 0x8 SLOAD PUSH3 0xD9 SWAP1 DUP4 SWAP1 PUSH1 0x1 PUSH1 0x1 PUSH1 0xA0 SHL SUB AND DUP7 PUSH1 0x1 PUSH1 0x1 PUSH1 0xE0 SHL SUB PUSH3 0x204 AND JUMP JUMPDEST PUSH1 0x6 DUP4 SWAP1 SSTORE PUSH1 0x7 DUP1 SLOAD PUSH1 0x1 PUSH1 0x1 PUSH1 0xA0 SHL SUB NOT AND PUSH1 0x1 PUSH1 0x1 PUSH1 0xA0 SHL SUB DUP5 AND OR SWAP1 SSTORE PUSH3 0x104 DUP2 PUSH3 0x2C0 JUMP JUMPDEST POP POP POP POP POP PUSH3 0x603 JUMP JUMPDEST PUSH1 0x1 PUSH1 0x1 PUSH1 0xA0 SHL SUB DUP3 AND PUSH3 0x141 JUMPI PUSH1 0x40 MLOAD PUSH3 0x461BCD PUSH1 0xE5 SHL DUP2 MSTORE PUSH1 0x4 ADD PUSH3 0x138 SWAP1 PUSH3 0x569 JUMP JUMPDEST PUSH1 0x40 MLOAD DUP1 SWAP2 SUB SWAP1 REVERT JUMPDEST PUSH3 0x158 PUSH1 0x0 DUP4 DUP4 PUSH1 0x1 PUSH1 0x1 PUSH1 0xE0 SHL SUB PUSH3 0x2D6 AND JUMP JUMPDEST PUSH3 0x174 DUP2 PUSH1 0x2 SLOAD PUSH3 0x2DB PUSH1 0x20 SHL PUSH3 0x878 OR SWAP1 SWAP2 SWAP1 PUSH1 0x20 SHR JUMP JUMPDEST PUSH1 0x2 SSTORE PUSH1 0x1 PUSH1 0x1 PUSH1 0xA0 SHL SUB DUP3 AND PUSH1 0x0 SWAP1 DUP2 MSTORE PUSH1 0x20 DUP2 DUP2 MSTORE PUSH1 0x40 SWAP1 SWAP2 KECCAK256 SLOAD PUSH3 0x1A7 SWAP2 DUP4 SWAP1 PUSH3 0x878 PUSH3 0x2DB DUP3 SHL OR SWAP1 SHR JUMP JUMPDEST PUSH1 0x1 PUSH1 0x1 PUSH1 0xA0 SHL SUB DUP4 AND PUSH1 0x0 DUP2 DUP2 MSTORE PUSH1 0x20 DUP2 SWAP1 MSTORE PUSH1 0x40 DUP1 DUP3 KECCAK256 SWAP4 SWAP1 SWAP4 SSTORE SWAP2 MLOAD SWAP1 SWAP2 SWAP1 PUSH32 0xDDF252AD1BE2C89B69C2B068FC378DAA952BA7F163C4A11628F55A4DF523B3EF SWAP1 PUSH3 0x1F8 SWAP1 DUP6 SWAP1 PUSH3 0x5A0 JUMP JUMPDEST PUSH1 0x40 MLOAD DUP1 SWAP2 SUB SWAP1 LOG3 POP POP JUMP JUMPDEST PUSH1 0x1 PUSH1 0x1 PUSH1 0xA0 SHL SUB DUP4 AND PUSH3 0x22D JUMPI PUSH1 0x40 MLOAD PUSH3 0x461BCD PUSH1 0xE5 SHL DUP2 MSTORE PUSH1 0x4 ADD PUSH3 0x138 SWAP1 PUSH3 0x525 JUMP JUMPDEST PUSH1 0x1 PUSH1 0x1 PUSH1 0xA0 SHL SUB DUP3 AND PUSH3 0x256 JUMPI PUSH1 0x40 MLOAD PUSH3 0x461BCD PUSH1 0xE5 SHL DUP2 MSTORE PUSH1 0x4 ADD PUSH3 0x138 SWAP1 PUSH3 0x4AC JUMP JUMPDEST PUSH1 0x1 PUSH1 0x1 PUSH1 0xA0 SHL SUB DUP1 DUP5 AND PUSH1 0x0 DUP2 DUP2 MSTORE PUSH1 0x1 PUSH1 0x20 SWAP1 DUP2 MSTORE PUSH1 0x40 DUP1 DUP4 KECCAK256 SWAP5 DUP8 AND DUP1 DUP5 MSTORE SWAP5 SWAP1 SWAP2 MSTORE SWAP1 DUP2 SWAP1 KECCAK256 DUP5 SWAP1 SSTORE MLOAD PUSH32 0x8C5BE1E5EBEC7D5BD14F71427D1E84F3DD0314C0F7B2291E5B200AC8C7C3B925 SWAP1 PUSH3 0x2B3 SWAP1 DUP6 SWAP1 PUSH3 0x5A0 JUMP JUMPDEST PUSH1 0x40 MLOAD DUP1 SWAP2 SUB SWAP1 LOG3 POP POP POP JUMP JUMPDEST PUSH1 0x5 DUP1 SLOAD PUSH1 0xFF NOT AND PUSH1 0xFF SWAP3 SWAP1 SWAP3 AND SWAP2 SWAP1 SWAP2 OR SWAP1 SSTORE JUMP JUMPDEST POP POP POP JUMP JUMPDEST PUSH1 0x0 DUP3 DUP3 ADD DUP4 DUP2 LT ISZERO PUSH3 0x303 JUMPI PUSH1 0x40 MLOAD PUSH3 0x461BCD PUSH1 0xE5 SHL DUP2 MSTORE PUSH1 0x4 ADD PUSH3 0x138 SWAP1 PUSH3 0x4EE JUMP JUMPDEST SWAP1 POP JUMPDEST SWAP3 SWAP2 POP POP JUMP JUMPDEST DUP3 DUP1 SLOAD PUSH1 0x1 DUP2 PUSH1 0x1 AND ISZERO PUSH2 0x100 MUL SUB AND PUSH1 0x2 SWAP1 DIV SWAP1 PUSH1 0x0 MSTORE PUSH1 0x20 PUSH1 0x0 KECCAK256 SWAP1 PUSH1 0x1F ADD PUSH1 0x20 SWAP1 DIV DUP2 ADD SWAP3 DUP3 PUSH1 0x1F LT PUSH3 0x34F JUMPI DUP1 MLOAD PUSH1 0xFF NOT AND DUP4 DUP1 ADD OR DUP6 SSTORE PUSH3 0x37F JUMP JUMPDEST DUP3 DUP1 ADD PUSH1 0x1 ADD DUP6 SSTORE DUP3 ISZERO PUSH3 0x37F JUMPI SWAP2 DUP3 ADD JUMPDEST DUP3 DUP2 GT ISZERO PUSH3 0x37F JUMPI DUP3 MLOAD DUP3 SSTORE SWAP2 PUSH1 0x20 ADD SWAP2 SWAP1 PUSH1 0x1 ADD SWAP1 PUSH3 0x362 JUMP JUMPDEST POP PUSH3 0x38D SWAP3 SWAP2 POP PUSH3 0x391 JUMP JUMPDEST POP SWAP1 JUMP JUMPDEST PUSH3 0x3AE SWAP2 SWAP1 JUMPDEST DUP1 DUP3 GT ISZERO PUSH3 0x38D JUMPI PUSH1 0x0 DUP2 SSTORE PUSH1 0x1 ADD PUSH3 0x398 JUMP JUMPDEST SWAP1 JUMP JUMPDEST DUP1 MLOAD PUSH1 0x1 PUSH1 0x1 PUSH1 0xA0 SHL SUB DUP2 AND DUP2 EQ PUSH3 0x306 JUMPI PUSH1 0x0 DUP1 REVERT JUMPDEST DUP1 MLOAD PUSH1 0xFF DUP2 AND DUP2 EQ PUSH3 0x306 JUMPI PUSH1 0x0 DUP1 REVERT JUMPDEST PUSH1 0x0 DUP1 PUSH1 0x0 DUP1 PUSH1 0x0 PUSH1 0xA0 DUP7 DUP9 SUB SLT ISZERO PUSH3 0x3F3 JUMPI DUP1 DUP2 REVERT JUMPDEST DUP6 MLOAD PUSH1 0x1 PUSH1 0x1 PUSH1 0x40 SHL SUB DUP1 DUP3 GT ISZERO PUSH3 0x40A JUMPI DUP3 DUP4 REVERT JUMPDEST DUP2 DUP9 ADD DUP10 PUSH1 0x1F DUP3 ADD SLT PUSH3 0x41C JUMPI DUP4 DUP5 REVERT JUMPDEST DUP1 MLOAD SWAP3 POP DUP2 DUP4 GT ISZERO PUSH3 0x42D JUMPI DUP4 DUP5 REVERT JUMPDEST PUSH3 0x442 PUSH1 0x1F DUP5 ADD PUSH1 0x1F NOT AND PUSH1 0x20 ADD PUSH3 0x5A9 JUMP JUMPDEST SWAP2 POP DUP3 DUP3 MSTORE DUP10 PUSH1 0x20 DUP5 DUP4 ADD ADD GT ISZERO PUSH3 0x459 JUMPI DUP4 DUP5 REVERT JUMPDEST PUSH3 0x46C DUP4 PUSH1 0x20 DUP5 ADD PUSH1 0x20 DUP5 ADD PUSH3 0x5D0 JUMP JUMPDEST POP DUP1 SWAP7 POP POP POP PUSH1 0x20 DUP7 ADD MLOAD SWAP4 POP PUSH1 0x40 DUP7 ADD MLOAD SWAP3 POP PUSH3 0x48F DUP8 PUSH1 0x60 DUP9 ADD PUSH3 0x3B1 JUMP JUMPDEST SWAP2 POP PUSH3 0x4A0 DUP8 PUSH1 0x80 DUP9 ADD PUSH3 0x3C9 JUMP JUMPDEST SWAP1 POP SWAP3 SWAP6 POP SWAP3 SWAP6 SWAP1 SWAP4 POP JUMP JUMPDEST PUSH1 0x20 DUP1 DUP3 MSTORE PUSH1 0x22 SWAP1 DUP3 ADD MSTORE PUSH32 0x45524332303A20617070726F766520746F20746865207A65726F206164647265 PUSH1 0x40 DUP3 ADD MSTORE PUSH2 0x7373 PUSH1 0xF0 SHL PUSH1 0x60 DUP3 ADD MSTORE PUSH1 0x80 ADD SWAP1 JUMP JUMPDEST PUSH1 0x20 DUP1 DUP3 MSTORE PUSH1 0x1B SWAP1 DUP3 ADD MSTORE PUSH32 0x536166654D6174683A206164646974696F6E206F766572666C6F770000000000 PUSH1 0x40 DUP3 ADD MSTORE PUSH1 0x60 ADD SWAP1 JUMP JUMPDEST PUSH1 0x20 DUP1 DUP3 MSTORE PUSH1 0x24 SWAP1 DUP3 ADD MSTORE PUSH32 0x45524332303A20617070726F76652066726F6D20746865207A65726F20616464 PUSH1 0x40 DUP3 ADD MSTORE PUSH4 0x72657373 PUSH1 0xE0 SHL PUSH1 0x60 DUP3 ADD MSTORE PUSH1 0x80 ADD SWAP1 JUMP JUMPDEST PUSH1 0x20 DUP1 DUP3 MSTORE PUSH1 0x1F SWAP1 DUP3 ADD MSTORE PUSH32 0x45524332303A206D696E7420746F20746865207A65726F206164647265737300 PUSH1 0x40 DUP3 ADD MSTORE PUSH1 0x60 ADD SWAP1 JUMP JUMPDEST SWAP1 DUP2 MSTORE PUSH1 0x20 ADD SWAP1 JUMP JUMPDEST PUSH1 0x40 MLOAD DUP2 DUP2 ADD PUSH1 0x1 PUSH1 0x1 PUSH1 0x40 SHL SUB DUP2 GT DUP3 DUP3 LT OR ISZERO PUSH3 0x5C8 JUMPI PUSH1 0x0 DUP1 REVERT JUMPDEST PUSH1 0x40 MSTORE SWAP2 SWAP1 POP JUMP JUMPDEST PUSH1 0x0 JUMPDEST DUP4 DUP2 LT ISZERO PUSH3 0x5ED JUMPI DUP2 DUP2 ADD MLOAD DUP4 DUP3 ADD MSTORE PUSH1 0x20 ADD PUSH3 0x5D3 JUMP JUMPDEST DUP4 DUP2 GT ISZERO PUSH3 0x5FD JUMPI PUSH1 0x0 DUP5 DUP5 ADD MSTORE JUMPDEST POP POP POP POP JUMP JUMPDEST PUSH2 0xDBE DUP1 PUSH3 0x613 PUSH1 0x0 CODECOPY PUSH1 0x0 RETURN INVALID PUSH1 0x80 PUSH1 0x40 MSTORE CALLVALUE DUP1 ISZERO PUSH2 0x10 JUMPI PUSH1 0x0 DUP1 REVERT JUMPDEST POP PUSH1 0x4 CALLDATASIZE LT PUSH2 0x100 JUMPI PUSH1 0x0 CALLDATALOAD PUSH1 0xE0 SHR DUP1 PUSH4 0x70A08231 GT PUSH2 0x97 JUMPI DUP1 PUSH4 0xA71B6426 GT PUSH2 0x66 JUMPI DUP1 PUSH4 0xA71B6426 EQ PUSH2 0x1FE JUMPI DUP1 PUSH4 0xA9059CBB EQ PUSH2 0x206 JUMPI DUP1 PUSH4 0xDD62ED3E EQ PUSH2 0x219 JUMPI DUP1 PUSH4 0xF9B7958A EQ PUSH2 0x22C JUMPI PUSH2 0x100 JUMP JUMPDEST DUP1 PUSH4 0x70A08231 EQ PUSH2 0x1BD JUMPI DUP1 PUSH4 0x79C65068 EQ PUSH2 0x1D0 JUMPI DUP1 PUSH4 0x95D89B41 EQ PUSH2 0x1E3 JUMPI DUP1 PUSH4 0xA457C2D7 EQ PUSH2 0x1EB JUMPI PUSH2 0x100 JUMP JUMPDEST DUP1 PUSH4 0x23B872DD GT PUSH2 0xD3 JUMPI DUP1 PUSH4 0x23B872DD EQ PUSH2 0x16D JUMPI DUP1 PUSH4 0x313CE567 EQ PUSH2 0x180 JUMPI DUP1 PUSH4 0x39509351 EQ PUSH2 0x195 JUMPI DUP1 PUSH4 0x6C6F31F2 EQ PUSH2 0x1A8 JUMPI PUSH2 0x100 JUMP JUMPDEST DUP1 PUSH4 0x6FDDE03 EQ PUSH2 0x105 JUMPI DUP1 PUSH4 0x95EA7B3 EQ PUSH2 0x123 JUMPI DUP1 PUSH4 0x18160DDD EQ PUSH2 0x143 JUMPI DUP1 PUSH4 0x1D143848 EQ PUSH2 0x158 JUMPI JUMPDEST PUSH1 0x0 DUP1 REVERT JUMPDEST PUSH2 0x10D PUSH2 0x253 JUMP JUMPDEST PUSH1 0x40 MLOAD PUSH2 0x11A SWAP2 SWAP1 PUSH2 0xACD JUMP JUMPDEST PUSH1 0x40 MLOAD DUP1 SWAP2 SUB SWAP1 RETURN JUMPDEST PUSH2 0x136 PUSH2 0x131 CALLDATASIZE PUSH1 0x4 PUSH2 0xA16 JUMP JUMPDEST PUSH2 0x2E9 JUMP JUMPDEST PUSH1 0x40 MLOAD PUSH2 0x11A SWAP2 SWAP1 PUSH2 0xAC2 JUMP JUMPDEST PUSH2 0x14B PUSH2 0x307 JUMP JUMPDEST PUSH1 0x40 MLOAD PUSH2 0x11A SWAP2 SWAP1 PUSH2 0xC7C JUMP JUMPDEST PUSH2 0x160 PUSH2 0x30D JUMP JUMPDEST PUSH1 0x40 MLOAD PUSH2 0x11A SWAP2 SWAP1 PUSH2 0xAAE JUMP JUMPDEST PUSH2 0x136 PUSH2 0x17B CALLDATASIZE PUSH1 0x4 PUSH2 0x9D6 JUMP JUMPDEST PUSH2 0x31C JUMP JUMPDEST PUSH2 0x188 PUSH2 0x3A9 JUMP JUMPDEST PUSH1 0x40 MLOAD PUSH2 0x11A SWAP2 SWAP1 PUSH2 0xCEF JUMP JUMPDEST PUSH2 0x136 PUSH2 0x1A3 CALLDATASIZE PUSH1 0x4 PUSH2 0xA16 JUMP JUMPDEST PUSH2 0x3B2 JUMP JUMPDEST PUSH2 0x1BB PUSH2 0x1B6 CALLDATASIZE PUSH1 0x4 PUSH2 0xA16 JUMP JUMPDEST PUSH2 0x406 JUMP JUMPDEST STOP JUMPDEST PUSH2 0x14B PUSH2 0x1CB CALLDATASIZE PUSH1 0x4 PUSH2 0x987 JUMP JUMPDEST PUSH2 0x47D JUMP JUMPDEST PUSH2 0x1BB PUSH2 0x1DE CALLDATASIZE PUSH1 0x4 PUSH2 0xA16 JUMP JUMPDEST PUSH2 0x498 JUMP JUMPDEST PUSH2 0x10D PUSH2 0x50A JUMP JUMPDEST PUSH2 0x136 PUSH2 0x1F9 CALLDATASIZE PUSH1 0x4 PUSH2 0xA16 JUMP JUMPDEST PUSH2 0x56B JUMP JUMPDEST PUSH2 0x14B PUSH2 0x5D9 JUMP JUMPDEST PUSH2 0x136 PUSH2 0x214 CALLDATASIZE PUSH1 0x4 PUSH2 0xA16 JUMP JUMPDEST PUSH2 0x5DF JUMP JUMPDEST PUSH2 0x14B PUSH2 0x227 CALLDATASIZE PUSH1 0x4 PUSH2 0x9A2 JUMP JUMPDEST PUSH2 0x5F3 JUMP JUMPDEST PUSH2 0x23F PUSH2 0x23A CALLDATASIZE PUSH1 0x4 PUSH2 0xA40 JUMP JUMPDEST PUSH2 0x61E JUMP JUMPDEST PUSH1 0x40 MLOAD PUSH2 0x11A SWAP9 SWAP8 SWAP7 SWAP6 SWAP5 SWAP4 SWAP3 SWAP2 SWAP1 PUSH2 0xC85 JUMP JUMPDEST PUSH1 0x3 DUP1 SLOAD PUSH1 0x40 DUP1 MLOAD PUSH1 0x20 PUSH1 0x1F PUSH1 0x2 PUSH1 0x0 NOT PUSH2 0x100 PUSH1 0x1 DUP9 AND ISZERO MUL ADD SWAP1 SWAP6 AND SWAP5 SWAP1 SWAP5 DIV SWAP4 DUP5 ADD DUP2 SWAP1 DIV DUP2 MUL DUP3 ADD DUP2 ADD SWAP1 SWAP3 MSTORE DUP3 DUP2 MSTORE PUSH1 0x60 SWAP4 SWAP1 SWAP3 SWAP1 SWAP2 DUP4 ADD DUP3 DUP3 DUP1 ISZERO PUSH2 0x2DF JUMPI DUP1 PUSH1 0x1F LT PUSH2 0x2B4 JUMPI PUSH2 0x100 DUP1 DUP4 SLOAD DIV MUL DUP4 MSTORE SWAP2 PUSH1 0x20 ADD SWAP2 PUSH2 0x2DF JUMP JUMPDEST DUP3 ADD SWAP2 SWAP1 PUSH1 0x0 MSTORE PUSH1 0x20 PUSH1 0x0 KECCAK256 SWAP1 JUMPDEST DUP2 SLOAD DUP2 MSTORE SWAP1 PUSH1 0x1 ADD SWAP1 PUSH1 0x20 ADD DUP1 DUP4 GT PUSH2 0x2C2 JUMPI DUP3 SWAP1 SUB PUSH1 0x1F AND DUP3 ADD SWAP2 JUMPDEST POP POP POP POP POP SWAP1 POP SWAP1 JUMP JUMPDEST PUSH1 0x0 PUSH2 0x2FD PUSH2 0x2F6 PUSH2 0x673 JUMP JUMPDEST DUP5 DUP5 PUSH2 0x677 JUMP JUMPDEST POP PUSH1 0x1 JUMPDEST SWAP3 SWAP2 POP POP JUMP JUMPDEST PUSH1 0x2 SLOAD SWAP1 JUMP JUMPDEST PUSH1 0x7 SLOAD PUSH1 0x1 PUSH1 0x1 PUSH1 0xA0 SHL SUB AND SWAP1 JUMP JUMPDEST PUSH1 0x0 PUSH2 0x329 DUP5 DUP5 DUP5 PUSH2 0x72B JUMP JUMPDEST PUSH2 0x39F DUP5 PUSH2 0x335 PUSH2 0x673 JUMP JUMPDEST PUSH2 0x39A DUP6 PUSH1 0x40 MLOAD DUP1 PUSH1 0x60 ADD PUSH1 0x40 MSTORE DUP1 PUSH1 0x28 DUP2 MSTORE PUSH1 0x20 ADD PUSH2 0xD3C PUSH1 0x28 SWAP2 CODECOPY PUSH1 0x1 PUSH1 0x1 PUSH1 0xA0 SHL SUB DUP11 AND PUSH1 0x0 SWAP1 DUP2 MSTORE PUSH1 0x1 PUSH1 0x20 MSTORE PUSH1 0x40 DUP2 KECCAK256 SWAP1 PUSH2 0x373 PUSH2 0x673 JUMP JUMPDEST PUSH1 0x1 PUSH1 0x1 PUSH1 0xA0 SHL SUB AND DUP2 MSTORE PUSH1 0x20 DUP2 ADD SWAP2 SWAP1 SWAP2 MSTORE PUSH1 0x40 ADD PUSH1 0x0 KECCAK256 SLOAD SWAP2 SWAP1 PUSH4 0xFFFFFFFF PUSH2 0x84C AND JUMP JUMPDEST PUSH2 0x677 JUMP JUMPDEST POP PUSH1 0x1 SWAP4 SWAP3 POP POP POP JUMP JUMPDEST PUSH1 0x5 SLOAD PUSH1 0xFF AND SWAP1 JUMP JUMPDEST PUSH1 0x0 PUSH2 0x2FD PUSH2 0x3BF PUSH2 0x673 JUMP JUMPDEST DUP5 PUSH2 0x39A DUP6 PUSH1 0x1 PUSH1 0x0 PUSH2 0x3D0 PUSH2 0x673 JUMP JUMPDEST PUSH1 0x1 PUSH1 0x1 PUSH1 0xA0 SHL SUB SWAP1 DUP2 AND DUP3 MSTORE PUSH1 0x20 DUP1 DUP4 ADD SWAP4 SWAP1 SWAP4 MSTORE PUSH1 0x40 SWAP2 DUP3 ADD PUSH1 0x0 SWAP1 DUP2 KECCAK256 SWAP2 DUP13 AND DUP2 MSTORE SWAP3 MSTORE SWAP1 KECCAK256 SLOAD SWAP1 PUSH4 0xFFFFFFFF PUSH2 0x878 AND JUMP JUMPDEST PUSH1 0x8 SLOAD PUSH1 0x1 PUSH1 0x1 PUSH1 0xA0 SHL SUB AND CALLER EQ PUSH2 0x439 JUMPI PUSH1 0x40 MLOAD PUSH3 0x461BCD PUSH1 0xE5 SHL DUP2 MSTORE PUSH1 0x4 ADD PUSH2 0x430 SWAP1 PUSH2 0xC25 JUMP JUMPDEST PUSH1 0x40 MLOAD DUP1 SWAP2 SUB SWAP1 REVERT JUMPDEST PUSH1 0x8 SLOAD PUSH1 0x0 SWAP1 PUSH2 0x453 SWAP1 DUP5 SWAP1 PUSH1 0x1 PUSH1 0x1 PUSH1 0xA0 SHL SUB AND PUSH2 0x5F3 JUMP JUMPDEST PUSH1 0x8 SLOAD SWAP1 SWAP2 POP PUSH2 0x478 SWAP1 DUP5 SWAP1 PUSH1 0x1 PUSH1 0x1 PUSH1 0xA0 SHL SUB AND PUSH2 0x39A DUP6 DUP6 PUSH4 0xFFFFFFFF PUSH2 0x878 AND JUMP JUMPDEST POP POP POP JUMP JUMPDEST PUSH1 0x1 PUSH1 0x1 PUSH1 0xA0 SHL SUB AND PUSH1 0x0 SWAP1 DUP2 MSTORE PUSH1 0x20 DUP2 SWAP1 MSTORE PUSH1 0x40 SWAP1 KECCAK256 SLOAD SWAP1 JUMP JUMPDEST PUSH1 0x8 SLOAD PUSH1 0x1 PUSH1 0x1 PUSH1 0xA0 SHL SUB AND CALLER EQ PUSH2 0x4C2 JUMPI PUSH1 0x40 MLOAD PUSH3 0x461BCD PUSH1 0xE5 SHL DUP2 MSTORE PUSH1 0x4 ADD PUSH2 0x430 SWAP1 PUSH2 0xC25 JUMP JUMPDEST PUSH1 0x8 SLOAD PUSH1 0x0 SWAP1 PUSH2 0x4DC SWAP1 DUP5 SWAP1 PUSH1 0x1 PUSH1 0x1 PUSH1 0xA0 SHL SUB AND PUSH2 0x5F3 JUMP JUMPDEST SWAP1 POP PUSH2 0x4E8 DUP4 DUP4 PUSH2 0x8A4 JUMP JUMPDEST PUSH1 0x8 SLOAD PUSH2 0x478 SWAP1 DUP5 SWAP1 PUSH1 0x1 PUSH1 0x1 PUSH1 0xA0 SHL SUB AND PUSH2 0x39A DUP6 DUP6 PUSH4 0xFFFFFFFF PUSH2 0x878 AND JUMP JUMPDEST PUSH1 0x4 DUP1 SLOAD PUSH1 0x40 DUP1 MLOAD PUSH1 0x20 PUSH1 0x1F PUSH1 0x2 PUSH1 0x0 NOT PUSH2 0x100 PUSH1 0x1 DUP9 AND ISZERO MUL ADD SWAP1 SWAP6 AND SWAP5 SWAP1 SWAP5 DIV SWAP4 DUP5 ADD DUP2 SWAP1 DIV DUP2 MUL DUP3 ADD DUP2 ADD SWAP1 SWAP3 MSTORE DUP3 DUP2 MSTORE PUSH1 0x60 SWAP4 SWAP1 SWAP3 SWAP1 SWAP2 DUP4 ADD DUP3 DUP3 DUP1 ISZERO PUSH2 0x2DF JUMPI DUP1 PUSH1 0x1F LT PUSH2 0x2B4 JUMPI PUSH2 0x100 DUP1 DUP4 SLOAD DIV MUL DUP4 MSTORE SWAP2 PUSH1 0x20 ADD SWAP2 PUSH2 0x2DF JUMP JUMPDEST PUSH1 0x0 PUSH2 0x2FD PUSH2 0x578 PUSH2 0x673 JUMP JUMPDEST DUP5 PUSH2 0x39A DUP6 PUSH1 0x40 MLOAD DUP1 PUSH1 0x60 ADD PUSH1 0x40 MSTORE DUP1 PUSH1 0x25 DUP2 MSTORE PUSH1 0x20 ADD PUSH2 0xD64 PUSH1 0x25 SWAP2 CODECOPY PUSH1 0x1 PUSH1 0x0 PUSH2 0x5A2 PUSH2 0x673 JUMP JUMPDEST PUSH1 0x1 PUSH1 0x1 PUSH1 0xA0 SHL SUB SWAP1 DUP2 AND DUP3 MSTORE PUSH1 0x20 DUP1 DUP4 ADD SWAP4 SWAP1 SWAP4 MSTORE PUSH1 0x40 SWAP2 DUP3 ADD PUSH1 0x0 SWAP1 DUP2 KECCAK256 SWAP2 DUP14 AND DUP2 MSTORE SWAP3 MSTORE SWAP1 KECCAK256 SLOAD SWAP2 SWAP1 PUSH4 0xFFFFFFFF PUSH2 0x84C AND JUMP JUMPDEST PUSH1 0x6 SLOAD SWAP1 JUMP JUMPDEST PUSH1 0x0 PUSH2 0x2FD PUSH2 0x5EC PUSH2 0x673 JUMP JUMPDEST DUP5 DUP5 PUSH2 0x72B JUMP JUMPDEST PUSH1 0x1 PUSH1 0x1 PUSH1 0xA0 SHL SUB SWAP2 DUP3 AND PUSH1 0x0 SWAP1 DUP2 MSTORE PUSH1 0x1 PUSH1 0x20 SWAP1 DUP2 MSTORE PUSH1 0x40 DUP1 DUP4 KECCAK256 SWAP4 SWAP1 SWAP5 AND DUP3 MSTORE SWAP2 SWAP1 SWAP2 MSTORE KECCAK256 SLOAD SWAP1 JUMP JUMPDEST PUSH1 0x0 DUP1 PUSH1 0x0 PUSH1 0x60 DUP1 PUSH1 0x0 DUP1 PUSH1 0x0 DUP10 DUP10 ADDRESS PUSH2 0x636 PUSH2 0x253 JUMP JUMPDEST PUSH2 0x63E PUSH2 0x50A JUMP JUMPDEST PUSH2 0x646 PUSH2 0x307 JUMP JUMPDEST PUSH2 0x64E PUSH2 0x5D9 JUMP JUMPDEST PUSH2 0x656 PUSH2 0x30D JUMP JUMPDEST SWAP8 POP SWAP8 POP SWAP8 POP SWAP8 POP SWAP8 POP SWAP8 POP SWAP8 POP SWAP8 POP SWAP3 SWAP6 SWAP9 POP SWAP3 SWAP6 SWAP9 SWAP1 SWAP4 SWAP7 POP JUMP JUMPDEST CALLER SWAP1 JUMP JUMPDEST PUSH1 0x1 PUSH1 0x1 PUSH1 0xA0 SHL SUB DUP4 AND PUSH2 0x69D JUMPI PUSH1 0x40 MLOAD PUSH3 0x461BCD PUSH1 0xE5 SHL DUP2 MSTORE PUSH1 0x4 ADD PUSH2 0x430 SWAP1 PUSH2 0xBE1 JUMP JUMPDEST PUSH1 0x1 PUSH1 0x1 PUSH1 0xA0 SHL SUB DUP3 AND PUSH2 0x6C3 JUMPI PUSH1 0x40 MLOAD PUSH3 0x461BCD PUSH1 0xE5 SHL DUP2 MSTORE PUSH1 0x4 ADD PUSH2 0x430 SWAP1 PUSH2 0xB23 JUMP JUMPDEST PUSH1 0x1 PUSH1 0x1 PUSH1 0xA0 SHL SUB DUP1 DUP5 AND PUSH1 0x0 DUP2 DUP2 MSTORE PUSH1 0x1 PUSH1 0x20 SWAP1 DUP2 MSTORE PUSH1 0x40 DUP1 DUP4 KECCAK256 SWAP5 DUP8 AND DUP1 DUP5 MSTORE SWAP5 SWAP1 SWAP2 MSTORE SWAP1 DUP2 SWAP1 KECCAK256 DUP5 SWAP1 SSTORE MLOAD PUSH32 0x8C5BE1E5EBEC7D5BD14F71427D1E84F3DD0314C0F7B2291E5B200AC8C7C3B925 SWAP1 PUSH2 0x71E SWAP1 DUP6 SWAP1 PUSH2 0xC7C JUMP JUMPDEST PUSH1 0x40 MLOAD DUP1 SWAP2 SUB SWAP1 LOG3 POP POP POP JUMP JUMPDEST PUSH1 0x1 PUSH1 0x1 PUSH1 0xA0 SHL SUB DUP4 AND PUSH2 0x751 JUMPI PUSH1 0x40 MLOAD PUSH3 0x461BCD PUSH1 0xE5 SHL DUP2 MSTORE PUSH1 0x4 ADD PUSH2 0x430 SWAP1 PUSH2 0xB9C JUMP JUMPDEST PUSH1 0x1 PUSH1 0x1 PUSH1 0xA0 SHL SUB DUP3 AND PUSH2 0x777 JUMPI PUSH1 0x40 MLOAD PUSH3 0x461BCD PUSH1 0xE5 SHL DUP2 MSTORE PUSH1 0x4 ADD PUSH2 0x430 SWAP1 PUSH2 0xAE0 JUMP JUMPDEST PUSH2 0x782 DUP4 DUP4 DUP4 PUSH2 0x478 JUMP JUMPDEST PUSH2 0x7C5 DUP2 PUSH1 0x40 MLOAD DUP1 PUSH1 0x60 ADD PUSH1 0x40 MSTORE DUP1 PUSH1 0x26 DUP2 MSTORE PUSH1 0x20 ADD PUSH2 0xD16 PUSH1 0x26 SWAP2 CODECOPY PUSH1 0x1 PUSH1 0x1 PUSH1 0xA0 SHL SUB DUP7 AND PUSH1 0x0 SWAP1 DUP2 MSTORE PUSH1 0x20 DUP2 SWAP1 MSTORE PUSH1 0x40 SWAP1 KECCAK256 SLOAD SWAP2 SWAP1 PUSH4 0xFFFFFFFF PUSH2 0x84C AND JUMP JUMPDEST PUSH1 0x1 PUSH1 0x1 PUSH1 0xA0 SHL SUB DUP1 DUP6 AND PUSH1 0x0 SWAP1 DUP2 MSTORE PUSH1 0x20 DUP2 SWAP1 MSTORE PUSH1 0x40 DUP1 DUP3 KECCAK256 SWAP4 SWAP1 SWAP4 SSTORE SWAP1 DUP5 AND DUP2 MSTORE KECCAK256 SLOAD PUSH2 0x7FA SWAP1 DUP3 PUSH4 0xFFFFFFFF PUSH2 0x878 AND JUMP JUMPDEST PUSH1 0x1 PUSH1 0x1 PUSH1 0xA0 SHL SUB DUP1 DUP5 AND PUSH1 0x0 DUP2 DUP2 MSTORE PUSH1 0x20 DUP2 SWAP1 MSTORE PUSH1 0x40 SWAP1 DUP2 SWAP1 KECCAK256 SWAP4 SWAP1 SWAP4 SSTORE SWAP2 MLOAD SWAP1 DUP6 AND SWAP1 PUSH32 0xDDF252AD1BE2C89B69C2B068FC378DAA952BA7F163C4A11628F55A4DF523B3EF SWAP1 PUSH2 0x71E SWAP1 DUP6 SWAP1 PUSH2 0xC7C JUMP JUMPDEST PUSH1 0x0 DUP2 DUP5 DUP5 GT ISZERO PUSH2 0x870 JUMPI PUSH1 0x40 MLOAD PUSH3 0x461BCD PUSH1 0xE5 SHL DUP2 MSTORE PUSH1 0x4 ADD PUSH2 0x430 SWAP2 SWAP1 PUSH2 0xACD JUMP JUMPDEST POP POP POP SWAP1 SUB SWAP1 JUMP JUMPDEST PUSH1 0x0 DUP3 DUP3 ADD DUP4 DUP2 LT ISZERO PUSH2 0x89D JUMPI PUSH1 0x40 MLOAD PUSH3 0x461BCD PUSH1 0xE5 SHL DUP2 MSTORE PUSH1 0x4 ADD PUSH2 0x430 SWAP1 PUSH2 0xB65 JUMP JUMPDEST SWAP4 SWAP3 POP POP POP JUMP JUMPDEST PUSH1 0x1 PUSH1 0x1 PUSH1 0xA0 SHL SUB DUP3 AND PUSH2 0x8CA JUMPI PUSH1 0x40 MLOAD PUSH3 0x461BCD PUSH1 0xE5 SHL DUP2 MSTORE PUSH1 0x4 ADD PUSH2 0x430 SWAP1 PUSH2 0xC45 JUMP JUMPDEST PUSH2 0x8D6 PUSH1 0x0 DUP4 DUP4 PUSH2 0x478 JUMP JUMPDEST PUSH1 0x2 SLOAD PUSH2 0x8E9 SWAP1 DUP3 PUSH4 0xFFFFFFFF PUSH2 0x878 AND JUMP JUMPDEST PUSH1 0x2 SSTORE PUSH1 0x1 PUSH1 0x1 PUSH1 0xA0 SHL SUB DUP3 AND PUSH1 0x0 SWAP1 DUP2 MSTORE PUSH1 0x20 DUP2 SWAP1 MSTORE PUSH1 0x40 SWAP1 KECCAK256 SLOAD PUSH2 0x915 SWAP1 DUP3 PUSH4 0xFFFFFFFF PUSH2 0x878 AND JUMP JUMPDEST PUSH1 0x1 PUSH1 0x1 PUSH1 0xA0 SHL SUB DUP4 AND PUSH1 0x0 DUP2 DUP2 MSTORE PUSH1 0x20 DUP2 SWAP1 MSTORE PUSH1 0x40 DUP1 DUP3 KECCAK256 SWAP4 SWAP1 SWAP4 SSTORE SWAP2 MLOAD SWAP1 SWAP2 SWAP1 PUSH32 0xDDF252AD1BE2C89B69C2B068FC378DAA952BA7F163C4A11628F55A4DF523B3EF SWAP1 PUSH2 0x964 SWAP1 DUP6 SWAP1 PUSH2 0xC7C JUMP JUMPDEST PUSH1 0x40 MLOAD DUP1 SWAP2 SUB SWAP1 LOG3 POP POP JUMP JUMPDEST DUP1 CALLDATALOAD PUSH1 0x1 PUSH1 0x1 PUSH1 0xA0 SHL SUB DUP2 AND DUP2 EQ PUSH2 0x301 JUMPI PUSH1 0x0 DUP1 REVERT JUMPDEST PUSH1 0x0 PUSH1 0x20 DUP3 DUP5 SUB SLT ISZERO PUSH2 0x998 JUMPI DUP1 DUP2 REVERT JUMPDEST PUSH2 0x89D DUP4 DUP4 PUSH2 0x970 JUMP JUMPDEST PUSH1 0x0 DUP1 PUSH1 0x40 DUP4 DUP6 SUB SLT ISZERO PUSH2 0x9B4 JUMPI DUP1 DUP2 REVERT JUMPDEST PUSH2 0x9BE DUP5 DUP5 PUSH2 0x970 JUMP JUMPDEST SWAP2 POP PUSH2 0x9CD DUP5 PUSH1 0x20 DUP6 ADD PUSH2 0x970 JUMP JUMPDEST SWAP1 POP SWAP3 POP SWAP3 SWAP1 POP JUMP JUMPDEST PUSH1 0x0 DUP1 PUSH1 0x0 PUSH1 0x60 DUP5 DUP7 SUB SLT ISZERO PUSH2 0x9EA JUMPI DUP1 DUP2 REVERT JUMPDEST DUP4 CALLDATALOAD PUSH2 0x9F5 DUP2 PUSH2 0xCFD JUMP JUMPDEST SWAP3 POP PUSH1 0x20 DUP5 ADD CALLDATALOAD PUSH2 0xA05 DUP2 PUSH2 0xCFD JUMP JUMPDEST SWAP3 SWAP6 SWAP3 SWAP5 POP POP POP PUSH1 0x40 SWAP2 SWAP1 SWAP2 ADD CALLDATALOAD SWAP1 JUMP JUMPDEST PUSH1 0x0 DUP1 PUSH1 0x40 DUP4 DUP6 SUB SLT ISZERO PUSH2 0xA28 JUMPI DUP2 DUP3 REVERT JUMPDEST PUSH2 0xA32 DUP5 DUP5 PUSH2 0x970 JUMP JUMPDEST SWAP5 PUSH1 0x20 SWAP4 SWAP1 SWAP4 ADD CALLDATALOAD SWAP4 POP POP POP JUMP JUMPDEST PUSH1 0x0 DUP1 PUSH1 0x40 DUP4 DUP6 SUB SLT ISZERO PUSH2 0xA52 JUMPI DUP2 DUP3 REVERT JUMPDEST DUP3 CALLDATALOAD SWAP2 POP PUSH2 0x9CD DUP5 PUSH1 0x20 DUP6 ADD PUSH2 0x970 JUMP JUMPDEST PUSH1 0x0 DUP2 MLOAD DUP1 DUP5 MSTORE DUP2 JUMPDEST DUP2 DUP2 LT ISZERO PUSH2 0xA88 JUMPI PUSH1 0x20 DUP2 DUP6 ADD DUP2 ADD MLOAD DUP7 DUP4 ADD DUP3 ADD MSTORE ADD PUSH2 0xA6C JUMP JUMPDEST DUP2 DUP2 GT ISZERO PUSH2 0xA99 JUMPI DUP3 PUSH1 0x20 DUP4 DUP8 ADD ADD MSTORE JUMPDEST POP PUSH1 0x1F ADD PUSH1 0x1F NOT AND SWAP3 SWAP1 SWAP3 ADD PUSH1 0x20 ADD SWAP3 SWAP2 POP POP JUMP JUMPDEST PUSH1 0x1 PUSH1 0x1 PUSH1 0xA0 SHL SUB SWAP2 SWAP1 SWAP2 AND DUP2 MSTORE PUSH1 0x20 ADD SWAP1 JUMP JUMPDEST SWAP1 ISZERO ISZERO DUP2 MSTORE PUSH1 0x20 ADD SWAP1 JUMP JUMPDEST PUSH1 0x0 PUSH1 0x20 DUP3 MSTORE PUSH2 0x89D PUSH1 0x20 DUP4 ADD DUP5 PUSH2 0xA63 JUMP JUMPDEST PUSH1 0x20 DUP1 DUP3 MSTORE PUSH1 0x23 SWAP1 DUP3 ADD MSTORE PUSH32 0x45524332303A207472616E7366657220746F20746865207A65726F2061646472 PUSH1 0x40 DUP3 ADD MSTORE PUSH3 0x657373 PUSH1 0xE8 SHL PUSH1 0x60 DUP3 ADD MSTORE PUSH1 0x80 ADD SWAP1 JUMP JUMPDEST PUSH1 0x20 DUP1 DUP3 MSTORE PUSH1 0x22 SWAP1 DUP3 ADD MSTORE PUSH32 0x45524332303A20617070726F766520746F20746865207A65726F206164647265 PUSH1 0x40 DUP3 ADD MSTORE PUSH2 0x7373 PUSH1 0xF0 SHL PUSH1 0x60 DUP3 ADD MSTORE PUSH1 0x80 ADD SWAP1 JUMP JUMPDEST PUSH1 0x20 DUP1 DUP3 MSTORE PUSH1 0x1B SWAP1 DUP3 ADD MSTORE PUSH32 0x536166654D6174683A206164646974696F6E206F766572666C6F770000000000 PUSH1 0x40 DUP3 ADD MSTORE PUSH1 0x60 ADD SWAP1 JUMP JUMPDEST PUSH1 0x20 DUP1 DUP3 MSTORE PUSH1 0x25 SWAP1 DUP3 ADD MSTORE PUSH32 0x45524332303A207472616E736665722066726F6D20746865207A65726F206164 PUSH1 0x40 DUP3 ADD MSTORE PUSH5 0x6472657373 PUSH1 0xD8 SHL PUSH1 0x60 DUP3 ADD MSTORE PUSH1 0x80 ADD SWAP1 JUMP JUMPDEST PUSH1 0x20 DUP1 DUP3 MSTORE PUSH1 0x24 SWAP1 DUP3 ADD MSTORE PUSH32 0x45524332303A20617070726F76652066726F6D20746865207A65726F20616464 PUSH1 0x40 DUP3 ADD MSTORE PUSH4 0x72657373 PUSH1 0xE0 SHL PUSH1 0x60 DUP3 ADD MSTORE PUSH1 0x80 ADD SWAP1 JUMP JUMPDEST PUSH1 0x20 DUP1 DUP3 MSTORE PUSH1 0x6 SWAP1 DUP3 ADD MSTORE PUSH6 0x26A120A6AB19 PUSH1 0xD1 SHL PUSH1 0x40 DUP3 ADD MSTORE PUSH1 0x60 ADD SWAP1 JUMP JUMPDEST PUSH1 0x20 DUP1 DUP3 MSTORE PUSH1 0x1F SWAP1 DUP3 ADD MSTORE PUSH32 0x45524332303A206D696E7420746F20746865207A65726F206164647265737300 PUSH1 0x40 DUP3 ADD MSTORE PUSH1 0x60 ADD SWAP1 JUMP JUMPDEST SWAP1 DUP2 MSTORE PUSH1 0x20 ADD SWAP1 JUMP JUMPDEST DUP9 DUP2 MSTORE PUSH1 0x1 PUSH1 0x1 PUSH1 0xA0 SHL SUB DUP9 DUP2 AND PUSH1 0x20 DUP4 ADD MSTORE DUP8 DUP2 AND PUSH1 0x40 DUP4 ADD MSTORE PUSH2 0x100 PUSH1 0x60 DUP4 ADD DUP2 SWAP1 MSTORE PUSH1 0x0 SWAP2 PUSH2 0xCB9 DUP5 DUP4 ADD DUP11 PUSH2 0xA63 JUMP JUMPDEST DUP5 DUP2 SUB PUSH1 0x80 DUP7 ADD MSTORE PUSH2 0xCCB DUP2 DUP11 PUSH2 0xA63 JUMP JUMPDEST PUSH1 0xA0 DUP7 ADD SWAP9 SWAP1 SWAP9 MSTORE POP PUSH1 0xC0 DUP5 ADD SWAP6 SWAP1 SWAP6 MSTORE POP POP SWAP2 AND PUSH1 0xE0 SWAP1 SWAP2 ADD MSTORE SWAP6 SWAP5 POP POP POP POP POP JUMP JUMPDEST PUSH1 0xFF SWAP2 SWAP1 SWAP2 AND DUP2 MSTORE PUSH1 0x20 ADD SWAP1 JUMP JUMPDEST PUSH1 0x1 PUSH1 0x1 PUSH1 0xA0 SHL SUB DUP2 AND DUP2 EQ PUSH2 0xD12 JUMPI PUSH1 0x0 DUP1 REVERT JUMPDEST POP JUMP INVALID GASLIMIT MSTORE NUMBER ORIGIN ADDRESS GASPRICE KECCAK256 PUSH21 0x72616E7366657220616D6F756E7420657863656564 PUSH20 0x2062616C616E636545524332303A207472616E73 PUSH7 0x657220616D6F75 PUSH15 0x74206578636565647320616C6C6F77 PUSH2 0x6E63 PUSH6 0x45524332303A KECCAK256 PUSH5 0x6563726561 PUSH20 0x656420616C6C6F77616E63652062656C6F77207A PUSH6 0x726FA2646970 PUSH7 0x7358221220CD27 DUP7 GASLIMIT 0xE3 PUSH15 0x22CF11D6A7CC013FB212C72BEFF098 0xE9 0xF6 DUP2 CALLER 0xEE 0xAD 0xC8 0xB7 0x26 DUP4 SWAP11 PUSH5 0x736F6C6343 STOP MOD SUB STOP CALLER GASLIMIT MSTORE NUMBER CALLDATACOPY ORIGIN BALANCE GASPRICE KECCAK256 PUSH21 0x72616E7366657220746F206E6F6E20455243373231 MSTORE PUSH6 0x636569766572 KECCAK256 PUSH10 0x6D706C656D656E746572 0xB1 MLOAD PUSH4 0x679A9CB5 0xE2 JUMPDEST 0x4E 0xC2 PUSH23 0x5A03EB685656E297A332A5529E273C905E4092EAE4EBE6 SHL MLOAD SLOAD 0xBE PUSH6 0x502FFD10F19B 0xBD SSTORE PUSH29 0x590EF2CE56D0959D42D567662E4E7FA2646970667358221220CE56A86B TIMESTAMP PUSH13 0xCAE6EECB9C3C2EFBE35AAC8A27 SWAP3 PC PUSH18 0x89F553C6A7C789CFDDB364736F6C63430006 SUB STOP CALLER PUSH1 0x80 PUSH1 0x40 MSTORE CALLVALUE DUP1 ISZERO PUSH3 0x11 JUMPI PUSH1 0x0 DUP1 REVERT JUMPDEST POP PUSH1 0x40 MLOAD PUSH3 0x13D1 CODESIZE SUB DUP1 PUSH3 0x13D1 DUP4 CODECOPY DUP2 ADD PUSH1 0x40 DUP2 SWAP1 MSTORE PUSH3 0x34 SWAP2 PUSH3 0x3DB JUMP JUMPDEST PUSH1 0x40 DUP1 MLOAD DUP1 DUP3 ADD SWAP1 SWAP2 MSTORE PUSH1 0xB DUP1 DUP3 MSTORE PUSH11 0x546F6B656E536861726573 PUSH1 0xA8 SHL PUSH1 0x20 DUP4 ADD SWAP1 DUP2 MSTORE DUP8 SWAP2 PUSH3 0x69 SWAP2 PUSH1 0x3 SWAP2 PUSH3 0x30C JUMP JUMPDEST POP DUP1 MLOAD PUSH3 0x7F SWAP1 PUSH1 0x4 SWAP1 PUSH1 0x20 DUP5 ADD SWAP1 PUSH3 0x30C JUMP JUMPDEST POP POP PUSH1 0x5 DUP1 SLOAD PUSH1 0xFF NOT AND PUSH1 0x12 OR SWAP1 SSTORE POP PUSH1 0x8 DUP1 SLOAD PUSH1 0x1 PUSH1 0x1 PUSH1 0xA0 SHL SUB NOT AND CALLER OR SWAP1 SSTORE PUSH3 0xB6 DUP3 DUP6 PUSH1 0x1 PUSH1 0x1 PUSH1 0xE0 SHL SUB PUSH3 0x10F AND JUMP JUMPDEST PUSH1 0x8 SLOAD PUSH3 0xD9 SWAP1 DUP4 SWAP1 PUSH1 0x1 PUSH1 0x1 PUSH1 0xA0 SHL SUB AND DUP7 PUSH1 0x1 PUSH1 0x1 PUSH1 0xE0 SHL SUB PUSH3 0x204 AND JUMP JUMPDEST PUSH1 0x6 DUP4 SWAP1 SSTORE PUSH1 0x7 DUP1 SLOAD PUSH1 0x1 PUSH1 0x1 PUSH1 0xA0 SHL SUB NOT AND PUSH1 0x1 PUSH1 0x1 PUSH1 0xA0 SHL SUB DUP5 AND OR SWAP1 SSTORE PUSH3 0x104 DUP2 PUSH3 0x2C0 JUMP JUMPDEST POP POP POP POP POP PUSH3 0x603 JUMP JUMPDEST PUSH1 0x1 PUSH1 0x1 PUSH1 0xA0 SHL SUB DUP3 AND PUSH3 0x141 JUMPI PUSH1 0x40 MLOAD PUSH3 0x461BCD PUSH1 0xE5 SHL DUP2 MSTORE PUSH1 0x4 ADD PUSH3 0x138 SWAP1 PUSH3 0x569 JUMP JUMPDEST PUSH1 0x40 MLOAD DUP1 SWAP2 SUB SWAP1 REVERT JUMPDEST PUSH3 0x158 PUSH1 0x0 DUP4 DUP4 PUSH1 0x1 PUSH1 0x1 PUSH1 0xE0 SHL SUB PUSH3 0x2D6 AND JUMP JUMPDEST PUSH3 0x174 DUP2 PUSH1 0x2 SLOAD PUSH3 0x2DB PUSH1 0x20 SHL PUSH3 0x878 OR SWAP1 SWAP2 SWAP1 PUSH1 0x20 SHR JUMP JUMPDEST PUSH1 0x2 SSTORE PUSH1 0x1 PUSH1 0x1 PUSH1 0xA0 SHL SUB DUP3 AND PUSH1 0x0 SWAP1 DUP2 MSTORE PUSH1 0x20 DUP2 DUP2 MSTORE PUSH1 0x40 SWAP1 SWAP2 KECCAK256 SLOAD PUSH3 0x1A7 SWAP2 DUP4 SWAP1 PUSH3 0x878 PUSH3 0x2DB DUP3 SHL OR SWAP1 SHR JUMP JUMPDEST PUSH1 0x1 PUSH1 0x1 PUSH1 0xA0 SHL SUB DUP4 AND PUSH1 0x0 DUP2 DUP2 MSTORE PUSH1 0x20 DUP2 SWAP1 MSTORE PUSH1 0x40 DUP1 DUP3 KECCAK256 SWAP4 SWAP1 SWAP4 SSTORE SWAP2 MLOAD SWAP1 SWAP2 SWAP1 PUSH32 0xDDF252AD1BE2C89B69C2B068FC378DAA952BA7F163C4A11628F55A4DF523B3EF SWAP1 PUSH3 0x1F8 SWAP1 DUP6 SWAP1 PUSH3 0x5A0 JUMP JUMPDEST PUSH1 0x40 MLOAD DUP1 SWAP2 SUB SWAP1 LOG3 POP POP JUMP JUMPDEST PUSH1 0x1 PUSH1 0x1 PUSH1 0xA0 SHL SUB DUP4 AND PUSH3 0x22D JUMPI PUSH1 0x40 MLOAD PUSH3 0x461BCD PUSH1 0xE5 SHL DUP2 MSTORE PUSH1 0x4 ADD PUSH3 0x138 SWAP1 PUSH3 0x525 JUMP JUMPDEST PUSH1 0x1 PUSH1 0x1 PUSH1 0xA0 SHL SUB DUP3 AND PUSH3 0x256 JUMPI PUSH1 0x40 MLOAD PUSH3 0x461BCD PUSH1 0xE5 SHL DUP2 MSTORE PUSH1 0x4 ADD PUSH3 0x138 SWAP1 PUSH3 0x4AC JUMP JUMPDEST PUSH1 0x1 PUSH1 0x1 PUSH1 0xA0 SHL SUB DUP1 DUP5 AND PUSH1 0x0 DUP2 DUP2 MSTORE PUSH1 0x1 PUSH1 0x20 SWAP1 DUP2 MSTORE PUSH1 0x40 DUP1 DUP4 KECCAK256 SWAP5 DUP8 AND DUP1 DUP5 MSTORE SWAP5 SWAP1 SWAP2 MSTORE SWAP1 DUP2 SWAP1 KECCAK256 DUP5 SWAP1 SSTORE MLOAD PUSH32 0x8C5BE1E5EBEC7D5BD14F71427D1E84F3DD0314C0F7B2291E5B200AC8C7C3B925 SWAP1 PUSH3 0x2B3 SWAP1 DUP6 SWAP1 PUSH3 0x5A0 JUMP JUMPDEST PUSH1 0x40 MLOAD DUP1 SWAP2 SUB SWAP1 LOG3 POP POP POP JUMP JUMPDEST PUSH1 0x5 DUP1 SLOAD PUSH1 0xFF NOT AND PUSH1 0xFF SWAP3 SWAP1 SWAP3 AND SWAP2 SWAP1 SWAP2 OR SWAP1 SSTORE JUMP JUMPDEST POP POP POP JUMP JUMPDEST PUSH1 0x0 DUP3 DUP3 ADD DUP4 DUP2 LT ISZERO PUSH3 0x303 JUMPI PUSH1 0x40 MLOAD PUSH3 0x461BCD PUSH1 0xE5 SHL DUP2 MSTORE PUSH1 0x4 ADD PUSH3 0x138 SWAP1 PUSH3 0x4EE JUMP JUMPDEST SWAP1 POP JUMPDEST SWAP3 SWAP2 POP POP JUMP JUMPDEST DUP3 DUP1 SLOAD PUSH1 0x1 DUP2 PUSH1 0x1 AND ISZERO PUSH2 0x100 MUL SUB AND PUSH1 0x2 SWAP1 DIV SWAP1 PUSH1 0x0 MSTORE PUSH1 0x20 PUSH1 0x0 KECCAK256 SWAP1 PUSH1 0x1F ADD PUSH1 0x20 SWAP1 DIV DUP2 ADD SWAP3 DUP3 PUSH1 0x1F LT PUSH3 0x34F JUMPI DUP1 MLOAD PUSH1 0xFF NOT AND DUP4 DUP1 ADD OR DUP6 SSTORE PUSH3 0x37F JUMP JUMPDEST DUP3 DUP1 ADD PUSH1 0x1 ADD DUP6 SSTORE DUP3 ISZERO PUSH3 0x37F JUMPI SWAP2 DUP3 ADD JUMPDEST DUP3 DUP2 GT ISZERO PUSH3 0x37F JUMPI DUP3 MLOAD DUP3 SSTORE SWAP2 PUSH1 0x20 ADD SWAP2 SWAP1 PUSH1 0x1 ADD SWAP1 PUSH3 0x362 JUMP JUMPDEST POP PUSH3 0x38D SWAP3 SWAP2 POP PUSH3 0x391 JUMP JUMPDEST POP SWAP1 JUMP JUMPDEST PUSH3 0x3AE SWAP2 SWAP1 JUMPDEST DUP1 DUP3 GT ISZERO PUSH3 0x38D JUMPI PUSH1 0x0 DUP2 SSTORE PUSH1 0x1 ADD PUSH3 0x398 JUMP JUMPDEST SWAP1 JUMP JUMPDEST DUP1 MLOAD PUSH1 0x1 PUSH1 0x1 PUSH1 0xA0 SHL SUB DUP2 AND DUP2 EQ PUSH3 0x306 JUMPI PUSH1 0x0 DUP1 REVERT JUMPDEST DUP1 MLOAD PUSH1 0xFF DUP2 AND DUP2 EQ PUSH3 0x306 JUMPI PUSH1 0x0 DUP1 REVERT JUMPDEST PUSH1 0x0 DUP1 PUSH1 0x0 DUP1 PUSH1 0x0 PUSH1 0xA0 DUP7 DUP9 SUB SLT ISZERO PUSH3 0x3F3 JUMPI DUP1 DUP2 REVERT JUMPDEST DUP6 MLOAD PUSH1 0x1 PUSH1 0x1 PUSH1 0x40 SHL SUB DUP1 DUP3 GT ISZERO PUSH3 0x40A JUMPI DUP3 DUP4 REVERT JUMPDEST DUP2 DUP9 ADD DUP10 PUSH1 0x1F DUP3 ADD SLT PUSH3 0x41C JUMPI DUP4 DUP5 REVERT JUMPDEST DUP1 MLOAD SWAP3 POP DUP2 DUP4 GT ISZERO PUSH3 0x42D JUMPI DUP4 DUP5 REVERT JUMPDEST PUSH3 0x442 PUSH1 0x1F DUP5 ADD PUSH1 0x1F NOT AND PUSH1 0x20 ADD PUSH3 0x5A9 JUMP JUMPDEST SWAP2 POP DUP3 DUP3 MSTORE DUP10 PUSH1 0x20 DUP5 DUP4 ADD ADD GT ISZERO PUSH3 0x459 JUMPI DUP4 DUP5 REVERT JUMPDEST PUSH3 0x46C DUP4 PUSH1 0x20 DUP5 ADD PUSH1 0x20 DUP5 ADD PUSH3 0x5D0 JUMP JUMPDEST POP DUP1 SWAP7 POP POP POP PUSH1 0x20 DUP7 ADD MLOAD SWAP4 POP PUSH1 0x40 DUP7 ADD MLOAD SWAP3 POP PUSH3 0x48F DUP8 PUSH1 0x60 DUP9 ADD PUSH3 0x3B1 JUMP JUMPDEST SWAP2 POP PUSH3 0x4A0 DUP8 PUSH1 0x80 DUP9 ADD PUSH3 0x3C9 JUMP JUMPDEST SWAP1 POP SWAP3 SWAP6 POP SWAP3 SWAP6 SWAP1 SWAP4 POP JUMP JUMPDEST PUSH1 0x20 DUP1 DUP3 MSTORE PUSH1 0x22 SWAP1 DUP3 ADD MSTORE PUSH32 0x45524332303A20617070726F766520746F20746865207A65726F206164647265 PUSH1 0x40 DUP3 ADD MSTORE PUSH2 0x7373 PUSH1 0xF0 SHL PUSH1 0x60 DUP3 ADD MSTORE PUSH1 0x80 ADD SWAP1 JUMP JUMPDEST PUSH1 0x20 DUP1 DUP3 MSTORE PUSH1 0x1B SWAP1 DUP3 ADD MSTORE PUSH32 0x536166654D6174683A206164646974696F6E206F766572666C6F770000000000 PUSH1 0x40 DUP3 ADD MSTORE PUSH1 0x60 ADD SWAP1 JUMP JUMPDEST PUSH1 0x20 DUP1 DUP3 MSTORE PUSH1 0x24 SWAP1 DUP3 ADD MSTORE PUSH32 0x45524332303A20617070726F76652066726F6D20746865207A65726F20616464 PUSH1 0x40 DUP3 ADD MSTORE PUSH4 0x72657373 PUSH1 0xE0 SHL PUSH1 0x60 DUP3 ADD MSTORE PUSH1 0x80 ADD SWAP1 JUMP JUMPDEST PUSH1 0x20 DUP1 DUP3 MSTORE PUSH1 0x1F SWAP1 DUP3 ADD MSTORE PUSH32 0x45524332303A206D696E7420746F20746865207A65726F206164647265737300 PUSH1 0x40 DUP3 ADD MSTORE PUSH1 0x60 ADD SWAP1 JUMP JUMPDEST SWAP1 DUP2 MSTORE PUSH1 0x20 ADD SWAP1 JUMP JUMPDEST PUSH1 0x40 MLOAD DUP2 DUP2 ADD PUSH1 0x1 PUSH1 0x1 PUSH1 0x40 SHL SUB DUP2 GT DUP3 DUP3 LT OR ISZERO PUSH3 0x5C8 JUMPI PUSH1 0x0 DUP1 REVERT JUMPDEST PUSH1 0x40 MSTORE SWAP2 SWAP1 POP JUMP JUMPDEST PUSH1 0x0 JUMPDEST DUP4 DUP2 LT ISZERO PUSH3 0x5ED JUMPI DUP2 DUP2 ADD MLOAD DUP4 DUP3 ADD MSTORE PUSH1 0x20 ADD PUSH3 0x5D3 JUMP JUMPDEST DUP4 DUP2 GT ISZERO PUSH3 0x5FD JUMPI PUSH1 0x0 DUP5 DUP5 ADD MSTORE JUMPDEST POP POP POP POP JUMP JUMPDEST PUSH2 0xDBE DUP1 PUSH3 0x613 PUSH1 0x0 CODECOPY PUSH1 0x0 RETURN INVALID PUSH1 0x80 PUSH1 0x40 MSTORE CALLVALUE DUP1 ISZERO PUSH2 0x10 JUMPI PUSH1 0x0 DUP1 REVERT JUMPDEST POP PUSH1 0x4 CALLDATASIZE LT PUSH2 0x100 JUMPI PUSH1 0x0 CALLDATALOAD PUSH1 0xE0 SHR DUP1 PUSH4 0x70A08231 GT PUSH2 0x97 JUMPI DUP1 PUSH4 0xA71B6426 GT PUSH2 0x66 JUMPI DUP1 PUSH4 0xA71B6426 EQ PUSH2 0x1FE JUMPI DUP1 PUSH4 0xA9059CBB EQ PUSH2 0x206 JUMPI DUP1 PUSH4 0xDD62ED3E EQ PUSH2 0x219 JUMPI DUP1 PUSH4 0xF9B7958A EQ PUSH2 0x22C JUMPI PUSH2 0x100 JUMP JUMPDEST DUP1 PUSH4 0x70A08231 EQ PUSH2 0x1BD JUMPI DUP1 PUSH4 0x79C65068 EQ PUSH2 0x1D0 JUMPI DUP1 PUSH4 0x95D89B41 EQ PUSH2 0x1E3 JUMPI DUP1 PUSH4 0xA457C2D7 EQ PUSH2 0x1EB JUMPI PUSH2 0x100 JUMP JUMPDEST DUP1 PUSH4 0x23B872DD GT PUSH2 0xD3 JUMPI DUP1 PUSH4 0x23B872DD EQ PUSH2 0x16D JUMPI DUP1 PUSH4 0x313CE567 EQ PUSH2 0x180 JUMPI DUP1 PUSH4 0x39509351 EQ PUSH2 0x195 JUMPI DUP1 PUSH4 0x6C6F31F2 EQ PUSH2 0x1A8 JUMPI PUSH2 0x100 JUMP JUMPDEST DUP1 PUSH4 0x6FDDE03 EQ PUSH2 0x105 JUMPI DUP1 PUSH4 0x95EA7B3 EQ PUSH2 0x123 JUMPI DUP1 PUSH4 0x18160DDD EQ PUSH2 0x143 JUMPI DUP1 PUSH4 0x1D143848 EQ PUSH2 0x158 JUMPI JUMPDEST PUSH1 0x0 DUP1 REVERT JUMPDEST PUSH2 0x10D PUSH2 0x253 JUMP JUMPDEST PUSH1 0x40 MLOAD PUSH2 0x11A SWAP2 SWAP1 PUSH2 0xACD JUMP JUMPDEST PUSH1 0x40 MLOAD DUP1 SWAP2 SUB SWAP1 RETURN JUMPDEST PUSH2 0x136 PUSH2 0x131 CALLDATASIZE PUSH1 0x4 PUSH2 0xA16 JUMP JUMPDEST PUSH2 0x2E9 JUMP JUMPDEST PUSH1 0x40 MLOAD PUSH2 0x11A SWAP2 SWAP1 PUSH2 0xAC2 JUMP JUMPDEST PUSH2 0x14B PUSH2 0x307 JUMP JUMPDEST PUSH1 0x40 MLOAD PUSH2 0x11A SWAP2 SWAP1 PUSH2 0xC7C JUMP JUMPDEST PUSH2 0x160 PUSH2 0x30D JUMP JUMPDEST PUSH1 0x40 MLOAD PUSH2 0x11A SWAP2 SWAP1 PUSH2 0xAAE JUMP JUMPDEST PUSH2 0x136 PUSH2 0x17B CALLDATASIZE PUSH1 0x4 PUSH2 0x9D6 JUMP JUMPDEST PUSH2 0x31C JUMP JUMPDEST PUSH2 0x188 PUSH2 0x3A9 JUMP JUMPDEST PUSH1 0x40 MLOAD PUSH2 0x11A SWAP2 SWAP1 PUSH2 0xCEF JUMP JUMPDEST PUSH2 0x136 PUSH2 0x1A3 CALLDATASIZE PUSH1 0x4 PUSH2 0xA16 JUMP JUMPDEST PUSH2 0x3B2 JUMP JUMPDEST PUSH2 0x1BB PUSH2 0x1B6 CALLDATASIZE PUSH1 0x4 PUSH2 0xA16 JUMP JUMPDEST PUSH2 0x406 JUMP JUMPDEST STOP JUMPDEST PUSH2 0x14B PUSH2 0x1CB CALLDATASIZE PUSH1 0x4 PUSH2 0x987 JUMP JUMPDEST PUSH2 0x47D JUMP JUMPDEST PUSH2 0x1BB PUSH2 0x1DE CALLDATASIZE PUSH1 0x4 PUSH2 0xA16 JUMP JUMPDEST PUSH2 0x498 JUMP JUMPDEST PUSH2 0x10D PUSH2 0x50A JUMP JUMPDEST PUSH2 0x136 PUSH2 0x1F9 CALLDATASIZE PUSH1 0x4 PUSH2 0xA16 JUMP JUMPDEST PUSH2 0x56B JUMP JUMPDEST PUSH2 0x14B PUSH2 0x5D9 JUMP JUMPDEST PUSH2 0x136 PUSH2 0x214 CALLDATASIZE PUSH1 0x4 PUSH2 0xA16 JUMP JUMPDEST PUSH2 0x5DF JUMP JUMPDEST PUSH2 0x14B PUSH2 0x227 CALLDATASIZE PUSH1 0x4 PUSH2 0x9A2 JUMP JUMPDEST PUSH2 0x5F3 JUMP JUMPDEST PUSH2 0x23F PUSH2 0x23A CALLDATASIZE PUSH1 0x4 PUSH2 0xA40 JUMP JUMPDEST PUSH2 0x61E JUMP JUMPDEST PUSH1 0x40 MLOAD PUSH2 0x11A SWAP9 SWAP8 SWAP7 SWAP6 SWAP5 SWAP4 SWAP3 SWAP2 SWAP1 PUSH2 0xC85 JUMP JUMPDEST PUSH1 0x3 DUP1 SLOAD PUSH1 0x40 DUP1 MLOAD PUSH1 0x20 PUSH1 0x1F PUSH1 0x2 PUSH1 0x0 NOT PUSH2 0x100 PUSH1 0x1 DUP9 AND ISZERO MUL ADD SWAP1 SWAP6 AND SWAP5 SWAP1 SWAP5 DIV SWAP4 DUP5 ADD DUP2 SWAP1 DIV DUP2 MUL DUP3 ADD DUP2 ADD SWAP1 SWAP3 MSTORE DUP3 DUP2 MSTORE PUSH1 0x60 SWAP4 SWAP1 SWAP3 SWAP1 SWAP2 DUP4 ADD DUP3 DUP3 DUP1 ISZERO PUSH2 0x2DF JUMPI DUP1 PUSH1 0x1F LT PUSH2 0x2B4 JUMPI PUSH2 0x100 DUP1 DUP4 SLOAD DIV MUL DUP4 MSTORE SWAP2 PUSH1 0x20 ADD SWAP2 PUSH2 0x2DF JUMP JUMPDEST DUP3 ADD SWAP2 SWAP1 PUSH1 0x0 MSTORE PUSH1 0x20 PUSH1 0x0 KECCAK256 SWAP1 JUMPDEST DUP2 SLOAD DUP2 MSTORE SWAP1 PUSH1 0x1 ADD SWAP1 PUSH1 0x20 ADD DUP1 DUP4 GT PUSH2 0x2C2 JUMPI DUP3 SWAP1 SUB PUSH1 0x1F AND DUP3 ADD SWAP2 JUMPDEST POP POP POP POP POP SWAP1 POP SWAP1 JUMP JUMPDEST PUSH1 0x0 PUSH2 0x2FD PUSH2 0x2F6 PUSH2 0x673 JUMP JUMPDEST DUP5 DUP5 PUSH2 0x677 JUMP JUMPDEST POP PUSH1 0x1 JUMPDEST SWAP3 SWAP2 POP POP JUMP JUMPDEST PUSH1 0x2 SLOAD SWAP1 JUMP JUMPDEST PUSH1 0x7 SLOAD PUSH1 0x1 PUSH1 0x1 PUSH1 0xA0 SHL SUB AND SWAP1 JUMP JUMPDEST PUSH1 0x0 PUSH2 0x329 DUP5 DUP5 DUP5 PUSH2 0x72B JUMP JUMPDEST PUSH2 0x39F DUP5 PUSH2 0x335 PUSH2 0x673 JUMP JUMPDEST PUSH2 0x39A DUP6 PUSH1 0x40 MLOAD DUP1 PUSH1 0x60 ADD PUSH1 0x40 MSTORE DUP1 PUSH1 0x28 DUP2 MSTORE PUSH1 0x20 ADD PUSH2 0xD3C PUSH1 0x28 SWAP2 CODECOPY PUSH1 0x1 PUSH1 0x1 PUSH1 0xA0 SHL SUB DUP11 AND PUSH1 0x0 SWAP1 DUP2 MSTORE PUSH1 0x1 PUSH1 0x20 MSTORE PUSH1 0x40 DUP2 KECCAK256 SWAP1 PUSH2 0x373 PUSH2 0x673 JUMP JUMPDEST PUSH1 0x1 PUSH1 0x1 PUSH1 0xA0 SHL SUB AND DUP2 MSTORE PUSH1 0x20 DUP2 ADD SWAP2 SWAP1 SWAP2 MSTORE PUSH1 0x40 ADD PUSH1 0x0 KECCAK256 SLOAD SWAP2 SWAP1 PUSH4 0xFFFFFFFF PUSH2 0x84C AND JUMP JUMPDEST PUSH2 0x677 JUMP JUMPDEST POP PUSH1 0x1 SWAP4 SWAP3 POP POP POP JUMP JUMPDEST PUSH1 0x5 SLOAD PUSH1 0xFF AND SWAP1 JUMP JUMPDEST PUSH1 0x0 PUSH2 0x2FD PUSH2 0x3BF PUSH2 0x673 JUMP JUMPDEST DUP5 PUSH2 0x39A DUP6 PUSH1 0x1 PUSH1 0x0 PUSH2 0x3D0 PUSH2 0x673 JUMP JUMPDEST PUSH1 0x1 PUSH1 0x1 PUSH1 0xA0 SHL SUB SWAP1 DUP2 AND DUP3 MSTORE PUSH1 0x20 DUP1 DUP4 ADD SWAP4 SWAP1 SWAP4 MSTORE PUSH1 0x40 SWAP2 DUP3 ADD PUSH1 0x0 SWAP1 DUP2 KECCAK256 SWAP2 DUP13 AND DUP2 MSTORE SWAP3 MSTORE SWAP1 KECCAK256 SLOAD SWAP1 PUSH4 0xFFFFFFFF PUSH2 0x878 AND JUMP JUMPDEST PUSH1 0x8 SLOAD PUSH1 0x1 PUSH1 0x1 PUSH1 0xA0 SHL SUB AND CALLER EQ PUSH2 0x439 JUMPI PUSH1 0x40 MLOAD PUSH3 0x461BCD PUSH1 0xE5 SHL DUP2 MSTORE PUSH1 0x4 ADD PUSH2 0x430 SWAP1 PUSH2 0xC25 JUMP JUMPDEST PUSH1 0x40 MLOAD DUP1 SWAP2 SUB SWAP1 REVERT JUMPDEST PUSH1 0x8 SLOAD PUSH1 0x0 SWAP1 PUSH2 0x453 SWAP1 DUP5 SWAP1 PUSH1 0x1 PUSH1 0x1 PUSH1 0xA0 SHL SUB AND PUSH2 0x5F3 JUMP JUMPDEST PUSH1 0x8 SLOAD SWAP1 SWAP2 POP PUSH2 0x478 SWAP1 DUP5 SWAP1 PUSH1 0x1 PUSH1 0x1 PUSH1 0xA0 SHL SUB AND PUSH2 0x39A DUP6 DUP6 PUSH4 0xFFFFFFFF PUSH2 0x878 AND JUMP JUMPDEST POP POP POP JUMP JUMPDEST PUSH1 0x1 PUSH1 0x1 PUSH1 0xA0 SHL SUB AND PUSH1 0x0 SWAP1 DUP2 MSTORE PUSH1 0x20 DUP2 SWAP1 MSTORE PUSH1 0x40 SWAP1 KECCAK256 SLOAD SWAP1 JUMP JUMPDEST PUSH1 0x8 SLOAD PUSH1 0x1 PUSH1 0x1 PUSH1 0xA0 SHL SUB AND CALLER EQ PUSH2 0x4C2 JUMPI PUSH1 0x40 MLOAD PUSH3 0x461BCD PUSH1 0xE5 SHL DUP2 MSTORE PUSH1 0x4 ADD PUSH2 0x430 SWAP1 PUSH2 0xC25 JUMP JUMPDEST PUSH1 0x8 SLOAD PUSH1 0x0 SWAP1 PUSH2 0x4DC SWAP1 DUP5 SWAP1 PUSH1 0x1 PUSH1 0x1 PUSH1 0xA0 SHL SUB AND PUSH2 0x5F3 JUMP JUMPDEST SWAP1 POP PUSH2 0x4E8 DUP4 DUP4 PUSH2 0x8A4 JUMP JUMPDEST PUSH1 0x8 SLOAD PUSH2 0x478 SWAP1 DUP5 SWAP1 PUSH1 0x1 PUSH1 0x1 PUSH1 0xA0 SHL SUB AND PUSH2 0x39A DUP6 DUP6 PUSH4 0xFFFFFFFF PUSH2 0x878 AND JUMP JUMPDEST PUSH1 0x4 DUP1 SLOAD PUSH1 0x40 DUP1 MLOAD PUSH1 0x20 PUSH1 0x1F PUSH1 0x2 PUSH1 0x0 NOT PUSH2 0x100 PUSH1 0x1 DUP9 AND ISZERO MUL ADD SWAP1 SWAP6 AND SWAP5 SWAP1 SWAP5 DIV SWAP4 DUP5 ADD DUP2 SWAP1 DIV DUP2 MUL DUP3 ADD DUP2 ADD SWAP1 SWAP3 MSTORE DUP3 DUP2 MSTORE PUSH1 0x60 SWAP4 SWAP1 SWAP3 SWAP1 SWAP2 DUP4 ADD DUP3 DUP3 DUP1 ISZERO PUSH2 0x2DF JUMPI DUP1 PUSH1 0x1F LT PUSH2 0x2B4 JUMPI PUSH2 0x100 DUP1 DUP4 SLOAD DIV MUL DUP4 MSTORE SWAP2 PUSH1 0x20 ADD SWAP2 PUSH2 0x2DF JUMP JUMPDEST PUSH1 0x0 PUSH2 0x2FD PUSH2 0x578 PUSH2 0x673 JUMP JUMPDEST DUP5 PUSH2 0x39A DUP6 PUSH1 0x40 MLOAD DUP1 PUSH1 0x60 ADD PUSH1 0x40 MSTORE DUP1 PUSH1 0x25 DUP2 MSTORE PUSH1 0x20 ADD PUSH2 0xD64 PUSH1 0x25 SWAP2 CODECOPY PUSH1 0x1 PUSH1 0x0 PUSH2 0x5A2 PUSH2 0x673 JUMP JUMPDEST PUSH1 0x1 PUSH1 0x1 PUSH1 0xA0 SHL SUB SWAP1 DUP2 AND DUP3 MSTORE PUSH1 0x20 DUP1 DUP4 ADD SWAP4 SWAP1 SWAP4 MSTORE PUSH1 0x40 SWAP2 DUP3 ADD PUSH1 0x0 SWAP1 DUP2 KECCAK256 SWAP2 DUP14 AND DUP2 MSTORE SWAP3 MSTORE SWAP1 KECCAK256 SLOAD SWAP2 SWAP1 PUSH4 0xFFFFFFFF PUSH2 0x84C AND JUMP JUMPDEST PUSH1 0x6 SLOAD SWAP1 JUMP JUMPDEST PUSH1 0x0 PUSH2 0x2FD PUSH2 0x5EC PUSH2 0x673 JUMP JUMPDEST DUP5 DUP5 PUSH2 0x72B JUMP JUMPDEST PUSH1 0x1 PUSH1 0x1 PUSH1 0xA0 SHL SUB SWAP2 DUP3 AND PUSH1 0x0 SWAP1 DUP2 MSTORE PUSH1 0x1 PUSH1 0x20 SWAP1 DUP2 MSTORE PUSH1 0x40 DUP1 DUP4 KECCAK256 SWAP4 SWAP1 SWAP5 AND DUP3 MSTORE SWAP2 SWAP1 SWAP2 MSTORE KECCAK256 SLOAD SWAP1 JUMP JUMPDEST PUSH1 0x0 DUP1 PUSH1 0x0 PUSH1 0x60 DUP1 PUSH1 0x0 DUP1 PUSH1 0x0 DUP10 DUP10 ADDRESS PUSH2 0x636 PUSH2 0x253 JUMP JUMPDEST PUSH2 0x63E PUSH2 0x50A JUMP JUMPDEST PUSH2 0x646 PUSH2 0x307 JUMP JUMPDEST PUSH2 0x64E PUSH2 0x5D9 JUMP JUMPDEST PUSH2 0x656 PUSH2 0x30D JUMP JUMPDEST SWAP8 POP SWAP8 POP SWAP8 POP SWAP8 POP SWAP8 POP SWAP8 POP SWAP8 POP SWAP8 POP SWAP3 SWAP6 SWAP9 POP SWAP3 SWAP6 SWAP9 SWAP1 SWAP4 SWAP7 POP JUMP JUMPDEST CALLER SWAP1 JUMP JUMPDEST PUSH1 0x1 PUSH1 0x1 PUSH1 0xA0 SHL SUB DUP4 AND PUSH2 0x69D JUMPI PUSH1 0x40 MLOAD PUSH3 0x461BCD PUSH1 0xE5 SHL DUP2 MSTORE PUSH1 0x4 ADD PUSH2 0x430 SWAP1 PUSH2 0xBE1 JUMP JUMPDEST PUSH1 0x1 PUSH1 0x1 PUSH1 0xA0 SHL SUB DUP3 AND PUSH2 0x6C3 JUMPI PUSH1 0x40 MLOAD PUSH3 0x461BCD PUSH1 0xE5 SHL DUP2 MSTORE PUSH1 0x4 ADD PUSH2 0x430 SWAP1 PUSH2 0xB23 JUMP JUMPDEST PUSH1 0x1 PUSH1 0x1 PUSH1 0xA0 SHL SUB DUP1 DUP5 AND PUSH1 0x0 DUP2 DUP2 MSTORE PUSH1 0x1 PUSH1 0x20 SWAP1 DUP2 MSTORE PUSH1 0x40 DUP1 DUP4 KECCAK256 SWAP5 DUP8 AND DUP1 DUP5 MSTORE SWAP5 SWAP1 SWAP2 MSTORE SWAP1 DUP2 SWAP1 KECCAK256 DUP5 SWAP1 SSTORE MLOAD PUSH32 0x8C5BE1E5EBEC7D5BD14F71427D1E84F3DD0314C0F7B2291E5B200AC8C7C3B925 SWAP1 PUSH2 0x71E SWAP1 DUP6 SWAP1 PUSH2 0xC7C JUMP JUMPDEST PUSH1 0x40 MLOAD DUP1 SWAP2 SUB SWAP1 LOG3 POP POP POP JUMP JUMPDEST PUSH1 0x1 PUSH1 0x1 PUSH1 0xA0 SHL SUB DUP4 AND PUSH2 0x751 JUMPI PUSH1 0x40 MLOAD PUSH3 0x461BCD PUSH1 0xE5 SHL DUP2 MSTORE PUSH1 0x4 ADD PUSH2 0x430 SWAP1 PUSH2 0xB9C JUMP JUMPDEST PUSH1 0x1 PUSH1 0x1 PUSH1 0xA0 SHL SUB DUP3 AND PUSH2 0x777 JUMPI PUSH1 0x40 MLOAD PUSH3 0x461BCD PUSH1 0xE5 SHL DUP2 MSTORE PUSH1 0x4 ADD PUSH2 0x430 SWAP1 PUSH2 0xAE0 JUMP JUMPDEST PUSH2 0x782 DUP4 DUP4 DUP4 PUSH2 0x478 JUMP JUMPDEST PUSH2 0x7C5 DUP2 PUSH1 0x40 MLOAD DUP1 PUSH1 0x60 ADD PUSH1 0x40 MSTORE DUP1 PUSH1 0x26 DUP2 MSTORE PUSH1 0x20 ADD PUSH2 0xD16 PUSH1 0x26 SWAP2 CODECOPY PUSH1 0x1 PUSH1 0x1 PUSH1 0xA0 SHL SUB DUP7 AND PUSH1 0x0 SWAP1 DUP2 MSTORE PUSH1 0x20 DUP2 SWAP1 MSTORE PUSH1 0x40 SWAP1 KECCAK256 SLOAD SWAP2 SWAP1 PUSH4 0xFFFFFFFF PUSH2 0x84C AND JUMP JUMPDEST PUSH1 0x1 PUSH1 0x1 PUSH1 0xA0 SHL SUB DUP1 DUP6 AND PUSH1 0x0 SWAP1 DUP2 MSTORE PUSH1 0x20 DUP2 SWAP1 MSTORE PUSH1 0x40 DUP1 DUP3 KECCAK256 SWAP4 SWAP1 SWAP4 SSTORE SWAP1 DUP5 AND DUP2 MSTORE KECCAK256 SLOAD PUSH2 0x7FA SWAP1 DUP3 PUSH4 0xFFFFFFFF PUSH2 0x878 AND JUMP JUMPDEST PUSH1 0x1 PUSH1 0x1 PUSH1 0xA0 SHL SUB DUP1 DUP5 AND PUSH1 0x0 DUP2 DUP2 MSTORE PUSH1 0x20 DUP2 SWAP1 MSTORE PUSH1 0x40 SWAP1 DUP2 SWAP1 KECCAK256 SWAP4 SWAP1 SWAP4 SSTORE SWAP2 MLOAD SWAP1 DUP6 AND SWAP1 PUSH32 0xDDF252AD1BE2C89B69C2B068FC378DAA952BA7F163C4A11628F55A4DF523B3EF SWAP1 PUSH2 0x71E SWAP1 DUP6 SWAP1 PUSH2 0xC7C JUMP JUMPDEST PUSH1 0x0 DUP2 DUP5 DUP5 GT ISZERO PUSH2 0x870 JUMPI PUSH1 0x40 MLOAD PUSH3 0x461BCD PUSH1 0xE5 SHL DUP2 MSTORE PUSH1 0x4 ADD PUSH2 0x430 SWAP2 SWAP1 PUSH2 0xACD JUMP JUMPDEST POP POP POP SWAP1 SUB SWAP1 JUMP JUMPDEST PUSH1 0x0 DUP3 DUP3 ADD DUP4 DUP2 LT ISZERO PUSH2 0x89D JUMPI PUSH1 0x40 MLOAD PUSH3 0x461BCD PUSH1 0xE5 SHL DUP2 MSTORE PUSH1 0x4 ADD PUSH2 0x430 SWAP1 PUSH2 0xB65 JUMP JUMPDEST SWAP4 SWAP3 POP POP POP JUMP JUMPDEST PUSH1 0x1 PUSH1 0x1 PUSH1 0xA0 SHL SUB DUP3 AND PUSH2 0x8CA JUMPI PUSH1 0x40 MLOAD PUSH3 0x461BCD PUSH1 0xE5 SHL DUP2 MSTORE PUSH1 0x4 ADD PUSH2 0x430 SWAP1 PUSH2 0xC45 JUMP JUMPDEST PUSH2 0x8D6 PUSH1 0x0 DUP4 DUP4 PUSH2 0x478 JUMP JUMPDEST PUSH1 0x2 SLOAD PUSH2 0x8E9 SWAP1 DUP3 PUSH4 0xFFFFFFFF PUSH2 0x878 AND JUMP JUMPDEST PUSH1 0x2 SSTORE PUSH1 0x1 PUSH1 0x1 PUSH1 0xA0 SHL SUB DUP3 AND PUSH1 0x0 SWAP1 DUP2 MSTORE PUSH1 0x20 DUP2 SWAP1 MSTORE PUSH1 0x40 SWAP1 KECCAK256 SLOAD PUSH2 0x915 SWAP1 DUP3 PUSH4 0xFFFFFFFF PUSH2 0x878 AND JUMP JUMPDEST PUSH1 0x1 PUSH1 0x1 PUSH1 0xA0 SHL SUB DUP4 AND PUSH1 0x0 DUP2 DUP2 MSTORE PUSH1 0x20 DUP2 SWAP1 MSTORE PUSH1 0x40 DUP1 DUP3 KECCAK256 SWAP4 SWAP1 SWAP4 SSTORE SWAP2 MLOAD SWAP1 SWAP2 SWAP1 PUSH32 0xDDF252AD1BE2C89B69C2B068FC378DAA952BA7F163C4A11628F55A4DF523B3EF SWAP1 PUSH2 0x964 SWAP1 DUP6 SWAP1 PUSH2 0xC7C JUMP JUMPDEST PUSH1 0x40 MLOAD DUP1 SWAP2 SUB SWAP1 LOG3 POP POP JUMP JUMPDEST DUP1 CALLDATALOAD PUSH1 0x1 PUSH1 0x1 PUSH1 0xA0 SHL SUB DUP2 AND DUP2 EQ PUSH2 0x301 JUMPI PUSH1 0x0 DUP1 REVERT JUMPDEST PUSH1 0x0 PUSH1 0x20 DUP3 DUP5 SUB SLT ISZERO PUSH2 0x998 JUMPI DUP1 DUP2 REVERT JUMPDEST PUSH2 0x89D DUP4 DUP4 PUSH2 0x970 JUMP JUMPDEST PUSH1 0x0 DUP1 PUSH1 0x40 DUP4 DUP6 SUB SLT ISZERO PUSH2 0x9B4 JUMPI DUP1 DUP2 REVERT JUMPDEST PUSH2 0x9BE DUP5 DUP5 PUSH2 0x970 JUMP JUMPDEST SWAP2 POP PUSH2 0x9CD DUP5 PUSH1 0x20 DUP6 ADD PUSH2 0x970 JUMP JUMPDEST SWAP1 POP SWAP3 POP SWAP3 SWAP1 POP JUMP JUMPDEST PUSH1 0x0 DUP1 PUSH1 0x0 PUSH1 0x60 DUP5 DUP7 SUB SLT ISZERO PUSH2 0x9EA JUMPI DUP1 DUP2 REVERT JUMPDEST DUP4 CALLDATALOAD PUSH2 0x9F5 DUP2 PUSH2 0xCFD JUMP JUMPDEST SWAP3 POP PUSH1 0x20 DUP5 ADD CALLDATALOAD PUSH2 0xA05 DUP2 PUSH2 0xCFD JUMP JUMPDEST SWAP3 SWAP6 SWAP3 SWAP5 POP POP POP PUSH1 0x40 SWAP2 SWAP1 SWAP2 ADD CALLDATALOAD SWAP1 JUMP JUMPDEST PUSH1 0x0 DUP1 PUSH1 0x40 DUP4 DUP6 SUB SLT ISZERO PUSH2 0xA28 JUMPI DUP2 DUP3 REVERT JUMPDEST PUSH2 0xA32 DUP5 DUP5 PUSH2 0x970 JUMP JUMPDEST SWAP5 PUSH1 0x20 SWAP4 SWAP1 SWAP4 ADD CALLDATALOAD SWAP4 POP POP POP JUMP JUMPDEST PUSH1 0x0 DUP1 PUSH1 0x40 DUP4 DUP6 SUB SLT ISZERO PUSH2 0xA52 JUMPI DUP2 DUP3 REVERT JUMPDEST DUP3 CALLDATALOAD SWAP2 POP PUSH2 0x9CD DUP5 PUSH1 0x20 DUP6 ADD PUSH2 0x970 JUMP JUMPDEST PUSH1 0x0 DUP2 MLOAD DUP1 DUP5 MSTORE DUP2 JUMPDEST DUP2 DUP2 LT ISZERO PUSH2 0xA88 JUMPI PUSH1 0x20 DUP2 DUP6 ADD DUP2 ADD MLOAD DUP7 DUP4 ADD DUP3 ADD MSTORE ADD PUSH2 0xA6C JUMP JUMPDEST DUP2 DUP2 GT ISZERO PUSH2 0xA99 JUMPI DUP3 PUSH1 0x20 DUP4 DUP8 ADD ADD MSTORE JUMPDEST POP PUSH1 0x1F ADD PUSH1 0x1F NOT AND SWAP3 SWAP1 SWAP3 ADD PUSH1 0x20 ADD SWAP3 SWAP2 POP POP JUMP JUMPDEST PUSH1 0x1 PUSH1 0x1 PUSH1 0xA0 SHL SUB SWAP2 SWAP1 SWAP2 AND DUP2 MSTORE PUSH1 0x20 ADD SWAP1 JUMP JUMPDEST SWAP1 ISZERO ISZERO DUP2 MSTORE PUSH1 0x20 ADD SWAP1 JUMP JUMPDEST PUSH1 0x0 PUSH1 0x20 DUP3 MSTORE PUSH2 0x89D PUSH1 0x20 DUP4 ADD DUP5 PUSH2 0xA63 JUMP JUMPDEST PUSH1 0x20 DUP1 DUP3 MSTORE PUSH1 0x23 SWAP1 DUP3 ADD MSTORE PUSH32 0x45524332303A207472616E7366657220746F20746865207A65726F2061646472 PUSH1 0x40 DUP3 ADD MSTORE PUSH3 0x657373 PUSH1 0xE8 SHL PUSH1 0x60 DUP3 ADD MSTORE PUSH1 0x80 ADD SWAP1 JUMP JUMPDEST PUSH1 0x20 DUP1 DUP3 MSTORE PUSH1 0x22 SWAP1 DUP3 ADD MSTORE PUSH32 0x45524332303A20617070726F766520746F20746865207A65726F206164647265 PUSH1 0x40 DUP3 ADD MSTORE PUSH2 0x7373 PUSH1 0xF0 SHL PUSH1 0x60 DUP3 ADD MSTORE PUSH1 0x80 ADD SWAP1 JUMP JUMPDEST PUSH1 0x20 DUP1 DUP3 MSTORE PUSH1 0x1B SWAP1 DUP3 ADD MSTORE PUSH32 0x536166654D6174683A206164646974696F6E206F766572666C6F770000000000 PUSH1 0x40 DUP3 ADD MSTORE PUSH1 0x60 ADD SWAP1 JUMP JUMPDEST PUSH1 0x20 DUP1 DUP3 MSTORE PUSH1 0x25 SWAP1 DUP3 ADD MSTORE PUSH32 0x45524332303A207472616E736665722066726F6D20746865207A65726F206164 PUSH1 0x40 DUP3 ADD MSTORE PUSH5 0x6472657373 PUSH1 0xD8 SHL PUSH1 0x60 DUP3 ADD MSTORE PUSH1 0x80 ADD SWAP1 JUMP JUMPDEST PUSH1 0x20 DUP1 DUP3 MSTORE PUSH1 0x24 SWAP1 DUP3 ADD MSTORE PUSH32 0x45524332303A20617070726F76652066726F6D20746865207A65726F20616464 PUSH1 0x40 DUP3 ADD MSTORE PUSH4 0x72657373 PUSH1 0xE0 SHL PUSH1 0x60 DUP3 ADD MSTORE PUSH1 0x80 ADD SWAP1 JUMP JUMPDEST PUSH1 0x20 DUP1 DUP3 MSTORE PUSH1 0x6 SWAP1 DUP3 ADD MSTORE PUSH6 0x26A120A6AB19 PUSH1 0xD1 SHL PUSH1 0x40 DUP3 ADD MSTORE PUSH1 0x60 ADD SWAP1 JUMP JUMPDEST PUSH1 0x20 DUP1 DUP3 MSTORE PUSH1 0x1F SWAP1 DUP3 ADD MSTORE PUSH32 0x45524332303A206D696E7420746F20746865207A65726F206164647265737300 PUSH1 0x40 DUP3 ADD MSTORE PUSH1 0x60 ADD SWAP1 JUMP JUMPDEST SWAP1 DUP2 MSTORE PUSH1 0x20 ADD SWAP1 JUMP JUMPDEST DUP9 DUP2 MSTORE PUSH1 0x1 PUSH1 0x1 PUSH1 0xA0 SHL SUB DUP9 DUP2 AND PUSH1 0x20 DUP4 ADD MSTORE DUP8 DUP2 AND PUSH1 0x40 DUP4 ADD MSTORE PUSH2 0x100 PUSH1 0x60 DUP4 ADD DUP2 SWAP1 MSTORE PUSH1 0x0 SWAP2 PUSH2 0xCB9 DUP5 DUP4 ADD DUP11 PUSH2 0xA63 JUMP JUMPDEST DUP5 DUP2 SUB PUSH1 0x80 DUP7 ADD MSTORE PUSH2 0xCCB DUP2 DUP11 PUSH2 0xA63 JUMP JUMPDEST PUSH1 0xA0 DUP7 ADD SWAP9 SWAP1 SWAP9 MSTORE POP PUSH1 0xC0 DUP5 ADD SWAP6 SWAP1 SWAP6 MSTORE POP POP SWAP2 AND PUSH1 0xE0 SWAP1 SWAP2 ADD MSTORE SWAP6 SWAP5 POP POP POP POP POP JUMP JUMPDEST PUSH1 0xFF SWAP2 SWAP1 SWAP2 AND DUP2 MSTORE PUSH1 0x20 ADD SWAP1 JUMP JUMPDEST PUSH1 0x1 PUSH1 0x1 PUSH1 0xA0 SHL SUB DUP2 AND DUP2 EQ PUSH2 0xD12 JUMPI PUSH1 0x0 DUP1 REVERT JUMPDEST POP JUMP INVALID GASLIMIT MSTORE NUMBER ORIGIN ADDRESS GASPRICE KECCAK256 PUSH21 0x72616E7366657220616D6F756E7420657863656564 PUSH20 0x2062616C616E636545524332303A207472616E73 PUSH7 0x657220616D6F75 PUSH15 0x74206578636565647320616C6C6F77 PUSH2 0x6E63 PUSH6 0x45524332303A KECCAK256 PUSH5 0x6563726561 PUSH20 0x656420616C6C6F77616E63652062656C6F77207A PUSH6 0x726FA2646970 PUSH7 0x7358221220CD27 DUP7 GASLIMIT 0xE3 PUSH15 0x22CF11D6A7CC013FB212C72BEFF098 0xE9 0xF6 DUP2 CALLER 0xEE 0xAD 0xC8 0xB7 0x26 DUP4 SWAP11 PUSH5 0x736F6C6343 STOP MOD SUB STOP CALLER "
		},
		"gasEstimates": {
			"creation": {
				"codeDepositCost": "4157800",
				"executionCost": "infinite",
				"totalCost": "infinite"
			},
			"external": {
				"approve(address,uint256)": "23457",
				"balanceOf(address)": "1309",
				"buy(bytes32)": "infinite",
				"fundWallet(address,uint256)": "infinite",
				"getApproved(uint256)": "2206",
				"getOrder(bytes32)": "infinite",
				"isApprovedForAll(address,address)": "infinite",
				"mint(uint256,string,uint256,uint256,address,string)": "infinite",
				"name()": "infinite",
				"ownedShares(uint256,address)": "infinite",
				"ownerOf(uint256)": "1236",
				"postOrder(uint256,uint256,uint256,uint256,uint256,uint256,bytes32,uint256)": "infinite",
				"safeTransferFrom(address,address,uint256)": "infinite",
				"safeTransferFrom(address,address,uint256,bytes)": "infinite",
				"setApprovalForAll(address,bool)": "infinite",
				"supportsInterface(bytes4)": "1309",
				"symbol()": "infinite",
				"tokenShares(uint256)": "infinite",
				"tokenURI(uint256)": "infinite",
				"transferFrom(address,address,uint256)": "infinite",
				"walletBalance(address)": "infinite"
			},
			"internal": {
				"_approve(address,uint256)": "20950",
				"_checkOnERC721Received(address,address,uint256,bytes memory)": "infinite",
				"_filterMatchedOrder(struct OrderModelV2.Order memory)": "infinite",
				"_matchOrder(struct OrderModelV2.Order memory)": "infinite",
				"_populateFilteredOrders(struct OrderModelV2.SortedKey memory,uint256)": "infinite",
				"_processOrder(struct OrderModelV2.Order memory,struct OrderModelV2.Order memory)": "infinite",
				"_processOrderBuyPartial(struct ConstantsV2.Values memory,struct OrderModelV2.Order memory,struct OrderModelV2.Order memory)": "infinite",
				"_processOrderSameAmount(struct ConstantsV2.Values memory,struct OrderModelV2.Order memory,struct OrderModelV2.Order memory)": "infinite",
				"_processOrderSellPartial(struct ConstantsV2.Values memory,struct OrderModelV2.Order memory,struct OrderModelV2.Order memory)": "infinite",
				"_safeMint(address,uint256)": "infinite"
			}
		},
		"methodIdentifiers": {
			"approve(address,uint256)": "095ea7b3",
			"balanceOf(address)": "70a08231",
			"buy(bytes32)": "9c9a1061",
			"fundWallet(address,uint256)": "3563922f",
			"getApproved(uint256)": "081812fc",
			"getOrder(bytes32)": "5778472a",
			"isApprovedForAll(address,address)": "e985e9c5",
			"mint(uint256,string,uint256,uint256,address,string)": "71df284d",
			"name()": "06fdde03",
			"ownedShares(uint256,address)": "02a1c41d",
			"ownerOf(uint256)": "6352211e",
			"postOrder(uint256,uint256,uint256,uint256,uint256,uint256,bytes32,uint256)": "f1dfad8f",
			"safeTransferFrom(address,address,uint256)": "42842e0e",
			"safeTransferFrom(address,address,uint256,bytes)": "b88d4fde",
			"setApprovalForAll(address,bool)": "a22cb465",
			"supportsInterface(bytes4)": "01ffc9a7",
			"symbol()": "95d89b41",
			"tokenShares(uint256)": "3ae64e0c",
			"tokenURI(uint256)": "c87b56dd",
			"transferFrom(address,address,uint256)": "23b872dd",
			"walletBalance(address)": "cf9cd8f8"
		}
	},
	"abi": [
		{
			"inputs": [],
			"stateMutability": "nonpayable",
			"type": "constructor"
		},
		{
			"anonymous": false,
			"inputs": [
				{
					"indexed": true,
					"internalType": "address",
					"name": "owner",
					"type": "address"
				},
				{
					"indexed": true,
					"internalType": "address",
					"name": "approved",
					"type": "address"
				},
				{
					"indexed": true,
					"internalType": "uint256",
					"name": "tokenId",
					"type": "uint256"
				}
			],
			"name": "Approval",
			"type": "event"
		},
		{
			"anonymous": false,
			"inputs": [
				{
					"indexed": true,
					"internalType": "address",
					"name": "owner",
					"type": "address"
				},
				{
					"indexed": true,
					"internalType": "address",
					"name": "operator",
					"type": "address"
				},
				{
					"indexed": false,
					"internalType": "bool",
					"name": "approved",
					"type": "bool"
				}
			],
			"name": "ApprovalForAll",
			"type": "event"
		},
		{
			"anonymous": false,
			"inputs": [
				{
					"indexed": true,
					"internalType": "address",
					"name": "from",
					"type": "address"
				},
				{
					"indexed": true,
					"internalType": "address",
					"name": "to",
					"type": "address"
				},
				{
					"indexed": true,
					"internalType": "uint256",
					"name": "tokenId",
					"type": "uint256"
				}
			],
			"name": "Transfer",
			"type": "event"
		},
		{
			"inputs": [
				{
					"internalType": "address",
					"name": "to",
					"type": "address"
				},
				{
					"internalType": "uint256",
					"name": "tokenId",
					"type": "uint256"
				}
			],
			"name": "approve",
			"outputs": [],
			"stateMutability": "nonpayable",
			"type": "function"
		},
		{
			"inputs": [
				{
					"internalType": "address",
					"name": "owner_",
					"type": "address"
				}
			],
			"name": "balanceOf",
			"outputs": [
				{
					"internalType": "uint256",
					"name": "",
					"type": "uint256"
				}
			],
			"stateMutability": "view",
			"type": "function"
		},
		{
			"inputs": [
				{
					"internalType": "bytes32",
					"name": "orderKey",
					"type": "bytes32"
				}
			],
			"name": "buy",
			"outputs": [],
			"stateMutability": "nonpayable",
			"type": "function"
		},
		{
			"inputs": [
				{
					"internalType": "address",
					"name": "recipient",
					"type": "address"
				},
				{
					"internalType": "uint256",
					"name": "amount",
					"type": "uint256"
				}
			],
			"name": "fundWallet",
			"outputs": [],
			"stateMutability": "nonpayable",
			"type": "function"
		},
		{
			"inputs": [
				{
					"internalType": "uint256",
					"name": "tokenId",
					"type": "uint256"
				}
			],
			"name": "getApproved",
			"outputs": [
				{
					"internalType": "address",
					"name": "",
					"type": "address"
				}
			],
			"stateMutability": "view",
			"type": "function"
		},
		{
			"inputs": [
				{
					"internalType": "bytes32",
					"name": "key",
					"type": "bytes32"
				}
			],
			"name": "getOrder",
			"outputs": [
				{
					"components": [
						{
							"components": [
								{
									"internalType": "bytes32",
									"name": "key",
									"type": "bytes32"
								},
								{
									"internalType": "uint256",
									"name": "date",
									"type": "uint256"
								}
							],
							"internalType": "struct OrderModelV2.SortedKey",
							"name": "key",
							"type": "tuple"
						},
						{
							"internalType": "uint256",
							"name": "orderType",
							"type": "uint256"
						},
						{
							"internalType": "uint256",
							"name": "orderStrategy",
							"type": "uint256"
						},
						{
							"internalType": "address",
							"name": "seller",
							"type": "address"
						},
						{
							"internalType": "address",
							"name": "buyer",
							"type": "address"
						},
						{
							"internalType": "uint256",
							"name": "tokenId",
							"type": "uint256"
						},
						{
							"internalType": "uint256",
							"name": "amountRemaining",
							"type": "uint256"
						},
						{
							"internalType": "uint256",
							"name": "originalAmount",
							"type": "uint256"
						},
						{
							"internalType": "uint256",
							"name": "price",
							"type": "uint256"
						},
						{
							"internalType": "uint256",
							"name": "status",
							"type": "uint256"
						},
						{
							"internalType": "uint256",
							"name": "goodUntil",
							"type": "uint256"
						},
						{
							"internalType": "uint256",
							"name": "marketType",
							"type": "uint256"
						}
					],
					"internalType": "struct OrderModelV2.Order",
					"name": "",
					"type": "tuple"
				}
			],
			"stateMutability": "view",
			"type": "function"
		},
		{
			"inputs": [
				{
					"internalType": "address",
					"name": "owner_",
					"type": "address"
				},
				{
					"internalType": "address",
					"name": "operator",
					"type": "address"
				}
			],
			"name": "isApprovedForAll",
			"outputs": [
				{
					"internalType": "bool",
					"name": "",
					"type": "bool"
				}
			],
			"stateMutability": "view",
			"type": "function"
		},
		{
			"inputs": [
				{
					"internalType": "uint256",
					"name": "tokenId",
					"type": "uint256"
				},
				{
					"internalType": "string",
					"name": "tokenSymbol",
					"type": "string"
				},
				{
					"internalType": "uint256",
					"name": "totalSupply",
					"type": "uint256"
				},
				{
					"internalType": "uint256",
					"name": "issuingPrice",
					"type": "uint256"
				},
				{
					"internalType": "address",
					"name": "issuer",
					"type": "address"
				},
				{
					"internalType": "string",
					"name": "uri",
					"type": "string"
				}
			],
			"name": "mint",
			"outputs": [],
			"stateMutability": "nonpayable",
			"type": "function"
		},
		{
			"inputs": [],
			"name": "name",
			"outputs": [
				{
					"internalType": "string",
					"name": "",
					"type": "string"
				}
			],
			"stateMutability": "view",
			"type": "function"
		},
		{
			"inputs": [
				{
					"internalType": "uint256",
					"name": "tokenId",
					"type": "uint256"
				},
				{
					"internalType": "address",
					"name": "userAddress",
					"type": "address"
				}
			],
			"name": "ownedShares",
			"outputs": [
				{
					"internalType": "uint256",
					"name": "",
					"type": "uint256"
				}
			],
			"stateMutability": "view",
			"type": "function"
		},
		{
			"inputs": [
				{
					"internalType": "uint256",
					"name": "tokenId",
					"type": "uint256"
				}
			],
			"name": "ownerOf",
			"outputs": [
				{
					"internalType": "address",
					"name": "",
					"type": "address"
				}
			],
			"stateMutability": "view",
			"type": "function"
		},
		{
			"inputs": [
				{
					"internalType": "uint256",
					"name": "orderType",
					"type": "uint256"
				},
				{
					"internalType": "uint256",
					"name": "orderStrategy",
					"type": "uint256"
				},
				{
					"internalType": "uint256",
					"name": "amount",
					"type": "uint256"
				},
				{
					"internalType": "uint256",
					"name": "price",
					"type": "uint256"
				},
				{
					"internalType": "uint256",
					"name": "tokenId",
					"type": "uint256"
				},
				{
					"internalType": "uint256",
					"name": "goodUntil",
					"type": "uint256"
				},
				{
					"internalType": "bytes32",
					"name": "key",
					"type": "bytes32"
				},
				{
					"internalType": "uint256",
					"name": "marketType",
					"type": "uint256"
				}
			],
			"name": "postOrder",
			"outputs": [],
			"stateMutability": "nonpayable",
			"type": "function"
		},
		{
			"inputs": [
				{
					"internalType": "address",
					"name": "from",
					"type": "address"
				},
				{
					"internalType": "address",
					"name": "to",
					"type": "address"
				},
				{
					"internalType": "uint256",
					"name": "tokenId",
					"type": "uint256"
				}
			],
			"name": "safeTransferFrom",
			"outputs": [],
			"stateMutability": "nonpayable",
			"type": "function"
		},
		{
			"inputs": [
				{
					"internalType": "address",
					"name": "from",
					"type": "address"
				},
				{
					"internalType": "address",
					"name": "to",
					"type": "address"
				},
				{
					"internalType": "uint256",
					"name": "tokenId",
					"type": "uint256"
				},
				{
					"internalType": "bytes",
					"name": "_data",
					"type": "bytes"
				}
			],
			"name": "safeTransferFrom",
			"outputs": [],
			"stateMutability": "nonpayable",
			"type": "function"
		},
		{
			"inputs": [
				{
					"internalType": "address",
					"name": "operator",
					"type": "address"
				},
				{
					"internalType": "bool",
					"name": "approved",
					"type": "bool"
				}
			],
			"name": "setApprovalForAll",
			"outputs": [],
			"stateMutability": "nonpayable",
			"type": "function"
		},
		{
			"inputs": [
				{
					"internalType": "bytes4",
					"name": "interfaceId",
					"type": "bytes4"
				}
			],
			"name": "supportsInterface",
			"outputs": [
				{
					"internalType": "bool",
					"name": "",
					"type": "bool"
				}
			],
			"stateMutability": "view",
			"type": "function"
		},
		{
			"inputs": [],
			"name": "symbol",
			"outputs": [
				{
					"internalType": "string",
					"name": "",
					"type": "string"
				}
			],
			"stateMutability": "view",
			"type": "function"
		},
		{
			"inputs": [
				{
					"internalType": "uint256",
					"name": "tokenId",
					"type": "uint256"
				}
			],
			"name": "tokenShares",
			"outputs": [
				{
					"internalType": "uint256",
					"name": "",
					"type": "uint256"
				},
				{
					"internalType": "address",
					"name": "",
					"type": "address"
				},
				{
					"internalType": "address",
					"name": "",
					"type": "address"
				},
				{
					"internalType": "string",
					"name": "",
					"type": "string"
				},
				{
					"internalType": "string",
					"name": "",
					"type": "string"
				},
				{
					"internalType": "uint256",
					"name": "",
					"type": "uint256"
				},
				{
					"internalType": "uint256",
					"name": "",
					"type": "uint256"
				},
				{
					"internalType": "address",
					"name": "",
					"type": "address"
				}
			],
			"stateMutability": "view",
			"type": "function"
		},
		{
			"inputs": [
				{
					"internalType": "uint256",
					"name": "tokenId",
					"type": "uint256"
				}
			],
			"name": "tokenURI",
			"outputs": [
				{
					"internalType": "string",
					"name": "",
					"type": "string"
				}
			],
			"stateMutability": "view",
			"type": "function"
		},
		{
			"inputs": [
				{
					"internalType": "address",
					"name": "from",
					"type": "address"
				},
				{
					"internalType": "address",
					"name": "to",
					"type": "address"
				},
				{
					"internalType": "uint256",
					"name": "tokenId",
					"type": "uint256"
				}
			],
			"name": "transferFrom",
			"outputs": [],
			"stateMutability": "nonpayable",
			"type": "function"
		},
		{
			"inputs": [
				{
					"internalType": "address",
					"name": "userAddress",
					"type": "address"
				}
			],
			"name": "walletBalance",
			"outputs": [
				{
					"internalType": "uint256",
					"name": "",
					"type": "uint256"
				}
			],
			"stateMutability": "view",
			"type": "function"
		}
	]
}