{
  "_format": "hh-sol-artifact-1",
  "contractName": "AssetManagerV2",
  "sourceName": "contracts/v2/AssetManagerV2.sol",
  "abi": [
    {
      "inputs": [],
      "stateMutability": "nonpayable",
      "type": "constructor"
    },
    {
      "anonymous": false,
      "inputs": [
        {
          "indexed": true,
          "internalType": "address",
          "name": "owner",
          "type": "address"
        },
        {
          "indexed": true,
          "internalType": "address",
          "name": "approved",
          "type": "address"
        },
        {
          "indexed": true,
          "internalType": "uint256",
          "name": "tokenId",
          "type": "uint256"
        }
      ],
      "name": "Approval",
      "type": "event"
    },
    {
      "anonymous": false,
      "inputs": [
        {
          "indexed": true,
          "internalType": "address",
          "name": "owner",
          "type": "address"
        },
        {
          "indexed": true,
          "internalType": "address",
          "name": "operator",
          "type": "address"
        },
        {
          "indexed": false,
          "internalType": "bool",
          "name": "approved",
          "type": "bool"
        }
      ],
      "name": "ApprovalForAll",
      "type": "event"
    },
    {
      "anonymous": false,
      "inputs": [
        {
          "indexed": false,
          "internalType": "bytes32",
          "name": "key",
          "type": "bytes32"
        },
        {
          "indexed": false,
          "internalType": "uint256",
          "name": "newStatus",
          "type": "uint256"
        },
        {
          "indexed": false,
          "internalType": "uint256",
          "name": "amountRemaining",
          "type": "uint256"
        }
      ],
      "name": "OrderChanged",
      "type": "event"
    },
    {
      "anonymous": false,
      "inputs": [
        {
          "indexed": true,
          "internalType": "address",
          "name": "from",
          "type": "address"
        },
        {
          "indexed": true,
          "internalType": "address",
          "name": "to",
          "type": "address"
        },
        {
          "indexed": true,
          "internalType": "uint256",
          "name": "tokenId",
          "type": "uint256"
        }
      ],
      "name": "Transfer",
      "type": "event"
    },
    {
      "inputs": [
        {
          "internalType": "address",
          "name": "to",
          "type": "address"
        },
        {
          "internalType": "uint256",
          "name": "tokenId",
          "type": "uint256"
        }
      ],
      "name": "approve",
      "outputs": [],
      "stateMutability": "nonpayable",
      "type": "function"
    },
    {
      "inputs": [
        {
          "internalType": "address",
          "name": "owner_",
          "type": "address"
        }
      ],
      "name": "balanceOf",
      "outputs": [
        {
          "internalType": "uint256",
          "name": "",
          "type": "uint256"
        }
      ],
      "stateMutability": "view",
      "type": "function"
    },
    {
      "inputs": [
        {
          "internalType": "bytes32",
          "name": "orderKey",
          "type": "bytes32"
        },
        {
          "internalType": "uint256",
          "name": "marketType",
          "type": "uint256"
        },
        {
          "internalType": "uint256",
          "name": "amount",
          "type": "uint256"
        }
      ],
      "name": "buy",
      "outputs": [],
      "stateMutability": "nonpayable",
      "type": "function"
    },
    {
      "inputs": [
        {
          "internalType": "uint256",
          "name": "tokenId",
          "type": "uint256"
        }
      ],
      "name": "concludePrimarySales",
      "outputs": [],
      "stateMutability": "nonpayable",
      "type": "function"
    },
    {
      "inputs": [
        {
          "internalType": "uint256",
          "name": "tokenId",
          "type": "uint256"
        }
      ],
      "name": "escrowBalance",
      "outputs": [
        {
          "internalType": "uint256",
          "name": "",
          "type": "uint256"
        }
      ],
      "stateMutability": "view",
      "type": "function"
    },
    {
      "inputs": [
        {
          "internalType": "address",
          "name": "recipient",
          "type": "address"
        },
        {
          "internalType": "uint256",
          "name": "amount",
          "type": "uint256"
        }
      ],
      "name": "fundWallet",
      "outputs": [],
      "stateMutability": "nonpayable",
      "type": "function"
    },
    {
      "inputs": [
        {
          "internalType": "uint256",
          "name": "tokenId",
          "type": "uint256"
        }
      ],
      "name": "getApproved",
      "outputs": [
        {
          "internalType": "address",
          "name": "",
          "type": "address"
        }
      ],
      "stateMutability": "view",
      "type": "function"
    },
    {
      "inputs": [
        {
          "internalType": "bytes32",
          "name": "key",
          "type": "bytes32"
        }
      ],
      "name": "getOrder",
      "outputs": [
        {
          "components": [
            {
              "components": [
                {
                  "internalType": "bytes32",
                  "name": "key",
                  "type": "bytes32"
                },
                {
                  "internalType": "uint256",
                  "name": "date",
                  "type": "uint256"
                }
              ],
              "internalType": "struct OrderModelV2.SortedKey",
              "name": "key",
              "type": "tuple"
            },
            {
              "internalType": "uint256",
              "name": "orderType",
              "type": "uint256"
            },
            {
              "internalType": "uint256",
              "name": "orderStrategy",
              "type": "uint256"
            },
            {
              "internalType": "address",
              "name": "seller",
              "type": "address"
            },
            {
              "internalType": "address",
              "name": "buyer",
              "type": "address"
            },
            {
              "internalType": "uint256",
              "name": "tokenId",
              "type": "uint256"
            },
            {
              "internalType": "uint256",
              "name": "amountRemaining",
              "type": "uint256"
            },
            {
              "internalType": "uint256",
              "name": "originalAmount",
              "type": "uint256"
            },
            {
              "internalType": "uint256",
              "name": "price",
              "type": "uint256"
            },
            {
              "internalType": "uint256",
              "name": "status",
              "type": "uint256"
            },
            {
              "internalType": "uint256",
              "name": "goodUntil",
              "type": "uint256"
            },
            {
              "internalType": "uint256",
              "name": "marketType",
              "type": "uint256"
            }
          ],
          "internalType": "struct OrderModelV2.Order",
          "name": "",
          "type": "tuple"
        }
      ],
      "stateMutability": "view",
      "type": "function"
    },
    {
      "inputs": [
        {
          "internalType": "address",
          "name": "owner_",
          "type": "address"
        },
        {
          "internalType": "address",
          "name": "operator",
          "type": "address"
        }
      ],
      "name": "isApprovedForAll",
      "outputs": [
        {
          "internalType": "bool",
          "name": "",
          "type": "bool"
        }
      ],
      "stateMutability": "view",
      "type": "function"
    },
    {
      "inputs": [
        {
          "internalType": "bytes32",
          "name": "order1Key",
          "type": "bytes32"
        },
        {
          "internalType": "bytes32",
          "name": "order2Key",
          "type": "bytes32"
        },
        {
          "internalType": "uint256",
          "name": "amount",
          "type": "uint256"
        }
      ],
      "name": "matchOrder",
      "outputs": [],
      "stateMutability": "nonpayable",
      "type": "function"
    },
    {
      "inputs": [
        {
          "internalType": "uint256",
          "name": "tokenId",
          "type": "uint256"
        },
        {
          "internalType": "string",
          "name": "tokenSymbol",
          "type": "string"
        },
        {
          "internalType": "uint256",
          "name": "totalSupply",
          "type": "uint256"
        },
        {
          "internalType": "uint256",
          "name": "issuingPrice",
          "type": "uint256"
        },
        {
          "internalType": "address",
          "name": "issuer",
          "type": "address"
        },
        {
          "internalType": "string",
          "name": "uri",
          "type": "string"
        }
      ],
      "name": "mint",
      "outputs": [],
      "stateMutability": "nonpayable",
      "type": "function"
    },
    {
      "inputs": [],
      "name": "name",
      "outputs": [
        {
          "internalType": "string",
          "name": "",
          "type": "string"
        }
      ],
      "stateMutability": "view",
      "type": "function"
    },
    {
      "inputs": [
        {
          "internalType": "uint256",
          "name": "tokenId",
          "type": "uint256"
        },
        {
          "internalType": "address",
          "name": "userAddress",
          "type": "address"
        }
      ],
      "name": "ownedShares",
      "outputs": [
        {
          "internalType": "uint256",
          "name": "",
          "type": "uint256"
        }
      ],
      "stateMutability": "view",
      "type": "function"
    },
    {
      "inputs": [
        {
          "internalType": "uint256",
          "name": "tokenId",
          "type": "uint256"
        }
      ],
      "name": "ownerOf",
      "outputs": [
        {
          "internalType": "address",
          "name": "",
          "type": "address"
        }
      ],
      "stateMutability": "view",
      "type": "function"
    },
    {
      "inputs": [
        {
          "internalType": "uint256",
          "name": "orderType",
          "type": "uint256"
        },
        {
          "internalType": "uint256",
          "name": "orderStrategy",
          "type": "uint256"
        },
        {
          "internalType": "uint256",
          "name": "amount",
          "type": "uint256"
        },
        {
          "internalType": "uint256",
          "name": "price",
          "type": "uint256"
        },
        {
          "internalType": "uint256",
          "name": "tokenId",
          "type": "uint256"
        },
        {
          "internalType": "uint256",
          "name": "goodUntil",
          "type": "uint256"
        },
        {
          "internalType": "bytes32",
          "name": "key",
          "type": "bytes32"
        },
        {
          "internalType": "uint256",
          "name": "marketType",
          "type": "uint256"
        }
      ],
      "name": "postOrder",
      "outputs": [],
      "stateMutability": "nonpayable",
      "type": "function"
    },
    {
      "inputs": [
        {
          "internalType": "uint256",
          "name": "tokenId",
          "type": "uint256"
        }
      ],
      "name": "primaryMarketBuyers",
      "outputs": [
        {
          "internalType": "address[]",
          "name": "",
          "type": "address[]"
        }
      ],
      "stateMutability": "view",
      "type": "function"
    },
    {
      "inputs": [
        {
          "internalType": "address",
          "name": "from",
          "type": "address"
        },
        {
          "internalType": "address",
          "name": "to",
          "type": "address"
        },
        {
          "internalType": "uint256",
          "name": "tokenId",
          "type": "uint256"
        }
      ],
      "name": "safeTransferFrom",
      "outputs": [],
      "stateMutability": "nonpayable",
      "type": "function"
    },
    {
      "inputs": [
        {
          "internalType": "address",
          "name": "from",
          "type": "address"
        },
        {
          "internalType": "address",
          "name": "to",
          "type": "address"
        },
        {
          "internalType": "uint256",
          "name": "tokenId",
          "type": "uint256"
        },
        {
          "internalType": "bytes",
          "name": "_data",
          "type": "bytes"
        }
      ],
      "name": "safeTransferFrom",
      "outputs": [],
      "stateMutability": "nonpayable",
      "type": "function"
    },
    {
      "inputs": [
        {
          "internalType": "bytes32",
          "name": "orderKey",
          "type": "bytes32"
        },
        {
          "internalType": "uint256",
          "name": "amount",
          "type": "uint256"
        }
      ],
      "name": "sell",
      "outputs": [],
      "stateMutability": "nonpayable",
      "type": "function"
    },
    {
      "inputs": [
        {
          "internalType": "address",
          "name": "operator",
          "type": "address"
        },
        {
          "internalType": "bool",
          "name": "approved",
          "type": "bool"
        }
      ],
      "name": "setApprovalForAll",
      "outputs": [],
      "stateMutability": "nonpayable",
      "type": "function"
    },
    {
      "inputs": [
        {
          "internalType": "bytes4",
          "name": "interfaceId",
          "type": "bytes4"
        }
      ],
      "name": "supportsInterface",
      "outputs": [
        {
          "internalType": "bool",
          "name": "",
          "type": "bool"
        }
      ],
      "stateMutability": "view",
      "type": "function"
    },
    {
      "inputs": [],
      "name": "symbol",
      "outputs": [
        {
          "internalType": "string",
          "name": "",
          "type": "string"
        }
      ],
      "stateMutability": "view",
      "type": "function"
    },
    {
      "inputs": [
        {
          "internalType": "uint256",
          "name": "tokenId",
          "type": "uint256"
        }
      ],
      "name": "tokenShares",
      "outputs": [
        {
          "internalType": "uint256",
          "name": "",
          "type": "uint256"
        },
        {
          "internalType": "address",
          "name": "",
          "type": "address"
        },
        {
          "internalType": "address",
          "name": "",
          "type": "address"
        },
        {
          "internalType": "string",
          "name": "",
          "type": "string"
        },
        {
          "internalType": "string",
          "name": "",
          "type": "string"
        },
        {
          "internalType": "uint256",
          "name": "",
          "type": "uint256"
        },
        {
          "internalType": "uint256",
          "name": "",
          "type": "uint256"
        },
        {
          "internalType": "address",
          "name": "",
          "type": "address"
        }
      ],
      "stateMutability": "view",
      "type": "function"
    },
    {
      "inputs": [
        {
          "internalType": "uint256",
          "name": "tokenId",
          "type": "uint256"
        }
      ],
      "name": "tokenURI",
      "outputs": [
        {
          "internalType": "string",
          "name": "",
          "type": "string"
        }
      ],
      "stateMutability": "view",
      "type": "function"
    },
    {
      "inputs": [
        {
          "internalType": "uint256",
          "name": "tokenId",
          "type": "uint256"
        }
      ],
      "name": "totalValueSold",
      "outputs": [
        {
          "internalType": "uint256",
          "name": "",
          "type": "uint256"
        }
      ],
      "stateMutability": "view",
      "type": "function"
    },
    {
      "inputs": [
        {
          "internalType": "address",
          "name": "from",
          "type": "address"
        },
        {
          "internalType": "address",
          "name": "to",
          "type": "address"
        },
        {
          "internalType": "uint256",
          "name": "tokenId",
          "type": "uint256"
        }
      ],
      "name": "transferFrom",
      "outputs": [],
      "stateMutability": "nonpayable",
      "type": "function"
    },
    {
      "inputs": [
        {
          "internalType": "uint256",
          "name": "tokenId",
          "type": "uint256"
        }
      ],
      "name": "underSubscribed",
      "outputs": [],
      "stateMutability": "nonpayable",
      "type": "function"
    },
    {
      "inputs": [
        {
          "internalType": "address",
          "name": "userAddress",
          "type": "address"
        }
      ],
      "name": "walletBalance",
      "outputs": [
        {
          "internalType": "uint256",
          "name": "",
          "type": "uint256"
        }
      ],
      "stateMutability": "view",
      "type": "function"
    }
  ],
  "bytecode": "0x60806040523480156200001157600080fd5b50620000246301ffc9a760e01b6200019c565b6040805180820190915260108082526f4e5345204172742045786368616e676560801b60209092019182526200005d91601491620001f7565b5060408051808201909152600480825263082a4a8b60e31b60209092019182526200008b91601591620001f7565b506200009e6380ac58cd60e01b6200019c565b620000b0635b5e139f60e01b6200019c565b620000c263780e9d6360e01b6200019c565b601280546001600160a01b0319163390811790915560405160019190600290600090620000ef906200027c565b620000fe9493929190620002fa565b604051809103906000f0801580156200011b573d6000803e3d6000fd5b50600f80546001600160a01b0319166001600160a01b039290921691909117905560405130906200014c906200028a565b620001589190620002af565b604051809103906000f08015801562000175573d6000803e3d6000fd5b50601080546001600160a01b0319166001600160a01b039290921691909117905562000340565b6001600160e01b03198082161415620001d25760405162461bcd60e51b8152600401620001c990620002c3565b60405180910390fd5b6001600160e01b0319166000908152602081905260409020805460ff19166001179055565b828054600181600116156101000203166002900490600052602060002090601f016020900481019282601f106200023a57805160ff19168380011785556200026a565b828001600101855582156200026a579182015b828111156200026a5782518255916020019190600101906200024d565b506200027892915062000298565b5090565b611150806200523983390190565b6103b6806200638983390190565b5b8082111562000278576000815560010162000299565b6001600160a01b0391909116815260200190565b6020808252601c908201527f4552433136353a20696e76616c696420696e7465726661636520696400000000604082015260600190565b60a08082526006908201526515d05313115560d21b60c082015260208101949094526001600160a01b0392909216604084015260ff166060830152608082015260e00190565b614ee980620003506000396000f3fe60806040523480156200001157600080fd5b5060043610620001f05760003560e01c80637727b85b1162000111578063bb099ee311620000a5578063e985e9c5116200007b578063e985e9c51462000467578063f1dfad8f146200047e578063fc18d0341462000495578063ff91945014620004ac57620001f0565b8063bb099ee31462000422578063c87b56dd1462000439578063cf9cd8f8146200045057620001f0565b8063b433a77e11620000e7578063b433a77e14620003c6578063b592de3a14620003dd578063b88d4fde14620003f4578063b9d11e86146200040b57620001f0565b80637727b85b146200038e57806395d89b4114620003a5578063a22cb46514620003af57620001f0565b80633563922f11620001895780635778472a116200015f5780635778472a14620003235780636352211e146200034957806370a08231146200036057806371df284d146200037757620001f0565b80633563922f14620002df5780633ae64e0c14620002f657806342842e0e14620002c857620001f0565b8063081812fc11620001cb578063081812fc1462000263578063095ea7b314620002895780631a3ed27514620002a257806323b872dd14620002c857620001f0565b806301ffc9a714620001f557806302a1c41d146200022457806306fdde03146200024a575b600080fd5b6200020c6200020636600462003256565b620004c3565b6040516200021b9190620035f8565b60405180910390f35b6200023b62000235366004620032ad565b620004e6565b6040516200021b919062003bc7565b6200025462000586565b6040516200021b91906200365c565b6200027a62000274366004620031da565b62000620565b6040516200021b9190620034ff565b620002a06200029a366004620030da565b6200067c565b005b620002b9620002b3366004620031da565b6200070f565b6040516200021b9190620035a9565b620002a0620002d936600462002fb6565b6200070a565b620002a0620002f0366004620030da565b6200079a565b6200030d62000307366004620031da565b62000833565b6040516200021b98979695949392919062003c0c565b6200033a62000334366004620031da565b62000900565b6040516200021b919062003b17565b6200027a6200035a366004620031da565b620009c3565b6200023b6200037136600462002f5a565b620009de565b620002a0620003883660046200339b565b620009f9565b620002a06200039f366004620031da565b62000af5565b6200025462000f18565b620002a0620003c0366004620030a8565b62000f7c565b620002a0620003d7366004620031f3565b62000fe0565b620002a0620003ee3660046200321f565b620011bd565b620002a06200040536600462002ffb565b62000f12565b6200023b6200041c366004620031da565b6200129e565b6200023b62000433366004620031da565b62001338565b620002546200044a366004620031da565b620013da565b6200023b6200046136600462002f5a565b6200147f565b6200020c6200047836600462002f79565b620014b4565b620002a06200048f36600462003442565b620014e2565b620002a0620004a636600462003241565b6200196e565b620002a0620004bd366004620031da565b62001ba0565b6001600160e01b0319811660009081526020819052604090205460ff165b919050565b6000828152600e6020526040808220549051636eb1769f60e11b81526001600160a01b0390911690819063dd62ed3e9062000528908690309060040162003552565b60206040518083038186803b1580156200054157600080fd5b505afa15801562000556573d6000803e3d6000fd5b505050506040513d601f19601f820116820180604052508101906200057c919062003294565b9150505b92915050565b60148054604080516020601f6002600019610100600188161502019095169490940493840181900481028201810190925282815260609390929091830182828015620006165780601f10620005ea5761010080835404028352916020019162000616565b820191906000526020600020905b815481529060010190602001808311620005f857829003601f168201915b5050505050905090565b6000818152600660205260408120546001600160a01b0316620006605760405162461bcd60e51b815260040162000657906200393e565b60405180910390fd5b506000908152600b60205260409020546001600160a01b031690565b60006200068982620009c3565b9050806001600160a01b0316836001600160a01b03161415620006c05760405162461bcd60e51b81526004016200065790620039c5565b336001600160a01b0382161480620006df5750620006df8133620014b4565b620006fe5760405162461bcd60e51b8152600401620006579062003830565b6200070a838362001ce9565b505050565b601054604051631e55504360e31b81526060916001600160a01b03169063f2aa8218906200074290859060040162003bc7565b60006040518083038186803b1580156200075b57600080fd5b505afa15801562000770573d6000803e3d6000fd5b505050506040513d6000823e601f3d908101601f1916820160405262000580919081019062003108565b6012546001600160a01b03163314620007c75760405162461bcd60e51b8152600401620006579062003ac1565b600f54604051630f38ca0d60e31b81526001600160a01b03909116906379c6506890620007fb908590859060040162003590565b600060405180830381600087803b1580156200081657600080fd5b505af11580156200082b573d6000803e3d6000fd5b505050505050565b6000818152600e60209081526040808320546006909252808320549051637cdbcac560e11b81528392839260609283928592839283926001600160a01b039081169263f9b7958a926200088d928e92169060040162003bd0565b60006040518083038186803b158015620008a657600080fd5b505afa158015620008bb573d6000803e3d6000fd5b505050506040513d6000823e601f3d908101601f19168201604052620008e59190810190620032d4565b97509750975097509750975097509750919395975091939597565b6200090a62002d6d565b5060009081526011602090815260409182902082516101c0810184528154610180820190815260018301546101a0830152815260028201549281019290925260038101549282019290925260048201546001600160a01b0390811660608301526005830154166080820152600682015460a0820152600782015460c0820152600882015460e08201526009820154610100820152600a820154610120820152600b820154610140820152600c9091015461016082015290565b6000908152600660205260409020546001600160a01b031690565b6001600160a01b031660009081526003602052604090205490565b6001600160a01b03831662000a0d57600080fd5b6012546001600160a01b0316331462000a2557600080fd5b62000a31338962001d17565b50600088815260096020526040902062000a4d90838362002de8565b5060008881526007602052604080822080546001600160a01b0319166001600160a01b0387161790555188908890879087906002908b9062000a8f9062002e6d565b62000aa09695949392919062003603565b604051809103906000f08015801562000abd573d6000803e3d6000fd5b506000998a52600e602052604090992080546001600160a01b0319166001600160a01b03909a16999099179098555050505050505050565b6012546001600160a01b0316331462000b0d57600080fd5b601054604051631e55504360e31b81526060916001600160a01b03169063f2aa82189062000b4090859060040162003bc7565b60006040518083038186803b15801562000b5957600080fd5b505afa15801562000b6e573d6000803e3d6000fd5b505050506040513d6000823e601f3d908101601f1916820160405262000b98919081019062003108565b6000838152600e60205260408120549192506001600160a01b03909116905b82518160ff16101562000df25760105483516000916001600160a01b0316906320000b59908790879060ff871690811062000bee57fe5b60200260200101516040518363ffffffff1660e01b815260040162000c1592919062003bd0565b60206040518083038186803b15801562000c2e57600080fd5b505afa15801562000c43573d6000803e3d6000fd5b505050506040513d601f19601f8201168201806040525081019062000c69919062003294565b9050801562000de857826001600160a01b03166323b872dd858460ff168151811062000c9157fe5b6020026020010151731337133713371337133713371337133713371337866001600160a01b031663dd62ed3e898860ff168151811062000ccd57fe5b6020026020010151306040518363ffffffff1660e01b815260040162000cf592919062003552565b60206040518083038186803b15801562000d0e57600080fd5b505afa15801562000d23573d6000803e3d6000fd5b505050506040513d601f19601f8201168201806040525081019062000d49919062003294565b6040518463ffffffff1660e01b815260040162000d69939291906200356c565b602060405180830381600087803b15801562000d8457600080fd5b505af115801562000d99573d6000803e3d6000fd5b505050506040513d601f19601f8201168201806040525081019062000dbf9190620031bb565b1562000de85762000de8848360ff168151811062000dd957fe5b6020026020010151826200079a565b5060010162000bb7565b50601254604051636eb1769f60e11b81526001600160a01b03808416926323b872dd9291169073133713371337133713371337133713371337133790849063dd62ed3e9062000e48908590309060040162003552565b60206040518083038186803b15801562000e6157600080fd5b505afa15801562000e76573d6000803e3d6000fd5b505050506040513d601f19601f8201168201806040525081019062000e9c919062003294565b6040518463ffffffff1660e01b815260040162000ebc939291906200356c565b602060405180830381600087803b15801562000ed757600080fd5b505af115801562000eec573d6000803e3d6000fd5b505050506040513d601f19601f8201168201806040525081019062000f129190620031bb565b50505050565b60158054604080516020601f6002600019610100600188161502019095169490940493840181900481028201810190925282815260609390929091830182828015620006165780601f10620005ea5761010080835404028352916020019162000616565b6001600160a01b03821633141562000fa85760405162461bcd60e51b8152600401620006579062003787565b336000908152600c602090815260408083206001600160a01b0395909516835293905291909120805460ff1916911515919091179055565b62000fea62002d6d565b5060008381526011602090815260409182902082516101c0810184528154610180820190815260018301546101a0830152815260028201549281019290925260038101549282019290925260048201546001600160a01b0390811660608301526005830154166080820152600682015460a0820152600782015460c0820152600882015460e08201526009820154610100820152600a820154610120820152600b820154610140820152600c90910154610160820152620010aa62002d6d565b5060008381526011602090815260409182902082516101c0810184528154610180820190815260018301546101a0830152815260028201548184015260038201549381019390935260048101546001600160a01b0390811660608501526005820154166080840152600681015460a0840152600781015460c0840152600881015460e08401526009810154610100840152600a810154610120840152600b810154610140840152600c01546101608301528201516200118f57608082015160608201516200117a86868362001edf565b62001187878684620024b2565b5050620011b6565b60808101516060830151620011a687868362001edf565b620011b3868684620024b2565b50505b5050505050565b620011c762002d6d565b50600082815260116020908152604080832081516101c0810183528154610180820190815260018301546101a0830152815260028201549381019390935260038101549183019190915260048101546001600160a01b0390811660608401526005820154166080830152600681015460a0830152600781015460c0830152600881015460e08301526009810154610100830152600a810154610120830152600b810154610140830152600c01546101608201529082156200128957826200128f565b8160c001515b905062000f1284823362001edf565b60105460008281526007602052604080822054905163e5c66bbd60e01b815291926001600160a01b039081169263e5c66bbd92620012e492879291169060040162003bd0565b60206040518083038186803b158015620012fd57600080fd5b505afa15801562001312573d6000803e3d6000fd5b505050506040513d601f19601f8201168201806040525081019062000580919062003294565b6000818152600e6020526040808220546012549151636eb1769f60e11b81526001600160a01b0391821692839263dd62ed3e926200137f9290911690309060040162003552565b60206040518083038186803b1580156200139857600080fd5b505afa158015620013ad573d6000803e3d6000fd5b505050506040513d601f19601f82011682018060405250810190620013d3919062003294565b9392505050565b60008181526009602090815260409182902080548351601f6002600019610100600186161502019093169290920491820184900484028101840190945280845260609392830182828015620014735780601f10620014475761010080835404028352916020019162001473565b820191906000526020600020905b8154815290600101906020018083116200145557829003601f168201915b50505050509050919050565b600f54604051636eb1769f60e11b81526000916001600160a01b03169063dd62ed3e90620012e4908590309060040162003552565b6001600160a01b039182166000908152600c6020908152604080832093909416825291909152205460ff1690565b60008281526011602052604090206006015415620015145760405162461bcd60e51b815260040162000657906200368d565b6000808962001640575060009050338162001530898962002afc565b6001600160a01b0380841660009081526013602052604080822054600f549151636eb1769f60e11b815294955091939192169063dd62ed3e906200157b908790309060040162003552565b60206040518083038186803b1580156200159457600080fd5b505afa158015620015a9573d6000803e3d6000fd5b505050506040513d601f19601f82011682018060405250810190620015cf919062003294565b0390508181106200161e576001600160a01b038316600090815260136020526040902054620015ff908362002b3c565b6001600160a01b03841660009081526013602052604090205562001638565b60405162461bcd60e51b81526004016200065790620038c6565b50506200184e565b60018a14156200184e575033905060008262001692576000868152600760205260409020546001600160a01b03838116911614620016925760405162461bcd60e51b8152600401620006579062003af9565b6000868152600e6020526040808220549051636eb1769f60e11b81526001600160a01b039091169190829063dd62ed3e90620016d5908790309060040162003552565b60206040518083038186803b158015620016ee57600080fd5b505afa15801562001703573d6000803e3d6000fd5b505050506040513d601f19601f8201168201806040525081019062001729919062003294565b9050898110156200174e5760405162461bcd60e51b8152600401620006579062003a06565b6012546040516323b872dd60e01b81526001600160a01b03808516926323b872dd926200178492899216908f906004016200356c565b602060405180830381600087803b1580156200179f57600080fd5b505af1158015620017b4573d6000803e3d6000fd5b505050506040513d601f19601f82011682018060405250810190620017da9190620031bb565b156200184b5760125460405163363798f960e11b81526001600160a01b0384811692636c6f31f2926200181692909116908e9060040162003590565b600060405180830381600087803b1580156200183157600080fd5b505af115801562001846573d6000803e3d6000fd5b505050505b50505b6200185862002e7b565b50604080518082019091528481524260208201526200187662002d6d565b50604080516101808101825291825260208083019c8d528282019b8c526001600160a01b03948516606084019081529385166080840190815260a08401998a5260c084018c815260e085019c8d5261010085019b8c526000610120860181815261014087019b8c526101608701998a5299815260118452939093209351805185559091015160018401559b5160028301559951600382015590516004820180549184166001600160a01b03199283161790559951600582018054919093169a16999099179055925160068801559451600787015592516008860155905160098501559151600a84015551600b83015551600c90910155565b6200197862002d6d565b50600083815260116020908152604080832081516101c0810183528154610180820190815260018301546101a0830152815260028201549381019390935260038101549183019190915260048101546001600160a01b0390811660608401526005820154166080830152600681015460a0830152600781015460c0830152600881015460e08301526009810154610100830152600a810154610120830152600b810154610140830152600c015461016082015290821562001a3a578262001a40565b8160c001515b90508362001b9357600062001a648361010001518362002afc90919063ffffffff16565b905062001a73868333620024b2565b600f5460608401516040516323b872dd60e01b81526001600160a01b03909216916323b872dd9162001ac0917313371337133713371337133713371337133713379086906004016200356c565b602060405180830381600087803b15801562001adb57600080fd5b505af115801562001af0573d6000803e3d6000fd5b505050506040513d601f19601f8201168201806040525081019062001b169190620031bb565b5060105460a084015160608501516040516302bf1efd60e21b81526001600160a01b0390931692630afc7bf49262001b58929091339190879060040162003be7565b600060405180830381600087803b15801562001b7357600080fd5b505af115801562001b88573d6000803e3d6000fd5b5050505050620011b6565b620011b6858233620024b2565b6012546001600160a01b0316331462001bb857600080fd5b6000818152600e602052604090819020546012549151636eb1769f60e11b81526001600160a01b039182169283926323b872dd9291169073133713371337133713371337133713371337133790849063dd62ed3e9062001c1f908590309060040162003552565b60206040518083038186803b15801562001c3857600080fd5b505afa15801562001c4d573d6000803e3d6000fd5b505050506040513d601f19601f8201168201806040525081019062001c73919062003294565b6040518463ffffffff1660e01b815260040162001c93939291906200356c565b602060405180830381600087803b15801562001cae57600080fd5b505af115801562001cc3573d6000803e3d6000fd5b505050506040513d601f19601f820116820180604052508101906200070a9190620031bb565b6000908152600b6020526040902080546001600160a01b0319166001600160a01b0392909216919091179055565b6000818152600660205260408120546001600160a01b03161562001d4f5760405162461bcd60e51b8152600401620006579062003a76565b600a5462001d5f90600162002b3c565b600a556001600160a01b03831660009081526003602052604090205462001d8890600162002b3c565b6001600160a01b038416600081815260036020908152604080832094909455600480548784526002835285842081905560018082019092557f8a35acfbc15ff81a39ae7d344fd709f28e8600b4aa8c65c6b64bfe7fe36bd19b018790558383526005825284832080548083018255908452828420018790558683526006825284832080546001600160a01b03191685179055838352600880835285842054888552828452958420869055939092529190915262001e46919062002b3c565b6001600160a01b038416600090815260086020908152604080832093909355825190810190925280825262001e7f918590859062002b64565b62001e9e5760405162461bcd60e51b81526004016200065790620036a9565b60405182906001600160a01b038516906000907fddf252ad1be2c89b69c2b068fc378daa952ba7f163c4a11628f55a4df523b3ef908290a450600192915050565b62001ee962002d6d565b5060008381526011602090815260409182902082516101c0810184528154610180820190815260018301546101a0830152815260028201549281019290925260038101549282019290925260048201546001600160a01b03908116606083015260058301541660808201819052600683015460a0830152600783015460c0830152600883015460e08301526009830154610100830152600a830154610120830152600b830154610140830152600c90920154610160820152908362001fc25760405162461bcd60e51b815260040162000657906200398a565b8160c0015184111562001fe95760405162461bcd60e51b8152600401620006579062003aa4565b826001600160a01b031682606001516001600160a01b03161415620020225760405162461bcd60e51b81526004016200065790620038a8565b602082015115620020475760405162461bcd60e51b8152600401620006579062003812565b6000620020598360a0015185620004e6565b9050848110156200207e5760405162461bcd60e51b81526004016200065790620039a7565b60006200209a8461010001518762002afc90919063ffffffff16565b600f54604051636eb1769f60e11b81529192506000916001600160a01b039091169063dd62ed3e90620020d4908790309060040162003552565b60206040518083038186803b158015620020ed57600080fd5b505afa15801562002102573d6000803e3d6000fd5b505050506040513d601f19601f8201168201806040525081019062002128919062003294565b9050818110156200214d5760405162461bcd60e51b8152600401620006579062003717565b6001600160a01b038416600090815260136020526040902054821115620021885760405162461bcd60e51b815260040162000657906200376a565b6001600160a01b038416600090815260136020526040902054620021ad908362002c48565b6001600160a01b0380861660009081526013602090815260408083209490945560a08901518252600e905282902054600f5492516323b872dd60e01b815290821692909116906323b872dd906200220d9088908b9088906004016200356c565b602060405180830381600087803b1580156200222857600080fd5b505af11580156200223d573d6000803e3d6000fd5b505050506040513d601f19601f82011682018060405250810190620022639190620031bb565b15620023ca57600f5460405163363798f960e11b81526001600160a01b0390911690636c6f31f2906200229d908a90879060040162003590565b600060405180830381600087803b158015620022b857600080fd5b505af1158015620022cd573d6000803e3d6000fd5b50506040516323b872dd60e01b81526001600160a01b03841692506323b872dd915062002303908a9089908d906004016200356c565b602060405180830381600087803b1580156200231e57600080fd5b505af115801562002333573d6000803e3d6000fd5b505050506040513d601f19601f82011682018060405250810190620023599190620031bb565b15620023c45760405163363798f960e11b81526001600160a01b03821690636c6f31f2906200238f9088908c9060040162003590565b600060405180830381600087803b158015620023aa57600080fd5b505af1158015620023bf573d6000803e3d6000fd5b505050505b620023e4565b60405162461bcd60e51b81526004016200065790620038e1565b50505060c0830180519590950385525050805151600090815260116020908152604091829020835180518255820151600182015590830151600282015590820151600382015560608201516004820180546001600160a01b039283166001600160a01b031991821617909155608084015160058401805491909316911617905560a082015160068201559251600784015560e081015160088401556101008101516009840155610120810151600a840155610140810151600b8401556101600151600c909201919091555050565b620024bc62002d6d565b5060008381526011602090815260409182902082516101c0810184528154610180820190815260018301546101a0830152815260028201549281019290925260038101549282019290925260048201546001600160a01b039081166060830181905260058401549091166080830152600683015460a0830152600783015460c0830152600883015460e08301526009830154610100830152600a830154610120830152600b830154610140830152600c909201546101608201529083620025975760405162461bcd60e51b81526004016200065790620036fb565b8160c00151841115620025be5760405162461bcd60e51b8152600401620006579062003671565b826001600160a01b0316816001600160a01b03161415620025f35760405162461bcd60e51b81526004016200065790620037be565b60018260200151146200261a5760405162461bcd60e51b8152600401620006579062003a59565b6000620026368361010001518662002afc90919063ffffffff16565b600f54604051636eb1769f60e11b81529192506000916001600160a01b039091169063dd62ed3e9062002670908890309060040162003552565b60206040518083038186803b1580156200268957600080fd5b505afa1580156200269e573d6000803e3d6000fd5b505050506040513d601f19601f82011682018060405250810190620026c4919062003294565b905081811015620026e95760405162461bcd60e51b81526004016200065790620038c6565b60a08401516000908152600e6020526040908190205460125491516323b872dd60e01b81526001600160a01b039182169283926323b872dd9262002738929091169088908c906004016200356c565b602060405180830381600087803b1580156200275357600080fd5b505af115801562002768573d6000803e3d6000fd5b505050506040513d601f19601f820116820180604052508101906200278e9190620031bb565b156200280257606085015160405163363798f960e11b81526001600160a01b03831691636c6f31f291620027c891908b9060040162003590565b600060405180830381600087803b158015620027e357600080fd5b505af1158015620027f8573d6000803e3d6000fd5b505050506200281c565b60405162461bcd60e51b8152600401620006579062003add565b600f546040516323b872dd60e01b81526001600160a01b03909116906323b872dd9062002852908990889088906004016200356c565b602060405180830381600087803b1580156200286d57600080fd5b505af115801562002882573d6000803e3d6000fd5b505050506040513d601f19601f82011682018060405250810190620028a89190620031bb565b1562002a1557600f54606086015160405163363798f960e11b81526001600160a01b0390921691636c6f31f291620028e591879060040162003590565b600060405180830381600087803b1580156200290057600080fd5b505af115801562002915573d6000803e3d6000fd5b50505060608601516040516323b872dd60e01b81526001600160a01b03841692506323b872dd916200294e918a908c906004016200356c565b602060405180830381600087803b1580156200296957600080fd5b505af11580156200297e573d6000803e3d6000fd5b505050506040513d601f19601f82011682018060405250810190620029a49190620031bb565b1562002a0f5760405163363798f960e11b81526001600160a01b03821690636c6f31f290620029da9089908b9060040162003590565b600060405180830381600087803b158015620029f557600080fd5b505af115801562002a0a573d6000803e3d6000fd5b505050505b62002a2f565b60405162461bcd60e51b815260040162000657906200388d565b50505060c08201805194909403845250805151600090815260116020908152604091829020835180518255820151600182015590830151600282015590820151600382015560608201516004820180546001600160a01b039283166001600160a01b031991821617909155608084015160058401805491909316911617905560a082015160068201559251600784015560e081015160088401556101008101516009840155610120810151600a840155610140810151600b8401556101600151600c909201919091555050565b60008262002b0d5750600062000580565b8282028284828162002b1b57fe5b0414620013d35760405162461bcd60e51b81526004016200065790620038fd565b600082820183811015620013d35760405162461bcd60e51b8152600401620006579062003733565b600062002b7a846001600160a01b031662002c73565b62002b885750600162002c40565b606062002c0e63150b7a0260e01b3388878760405160240162002baf949392919062003513565b604051602081830303815290604052906001600160e01b0319166020820180516001600160e01b03838183161783525050505060405180606001604052806032815260200162004e82603291396001600160a01b038816919062002c79565b905060008180602001905181019062002c28919062003275565b6001600160e01b031916630a85bd0160e11b14925050505b949350505050565b60008282111562002c6d5760405162461bcd60e51b81526004016200065790620037db565b50900390565b3b151590565b606062002c4084846000858562002c908562002c73565b62002caf5760405162461bcd60e51b8152600401620006579062003a22565b60006060866001600160a01b0316858760405162002cce9190620034e1565b60006040518083038185875af1925050503d806000811462002d0d576040519150601f19603f3d011682016040523d82523d6000602084013e62002d12565b606091505b509150915062002d2482828662002d2f565b979650505050505050565b6060831562002d40575081620013d3565b82511562002d515782518084602001fd5b8160405162461bcd60e51b81526004016200065791906200365c565b60405180610180016040528062002d8362002e7b565b8152602001600081526020016000815260200160006001600160a01b0316815260200160006001600160a01b03168152602001600081526020016000815260200160008152602001600081526020016000815260200160008152602001600081525090565b828054600181600116156101000203166002900490600052602060002090601f016020900481019282601f1062002e2b5782800160ff1982351617855562002e5b565b8280016001018555821562002e5b579182015b8281111562002e5b57823582559160200191906001019062002e3e565b5062002e6992915062002e92565b5090565b6111508062003d3283390190565b604080518082019091526000808252602082015290565b5b8082111562002e69576000815560010162002e93565b8051620004e18162003cf2565b60008083601f84011262002ec8578182fd5b50813567ffffffffffffffff81111562002ee0578182fd5b60208301915083602082850101111562002ef957600080fd5b9250929050565b600082601f83011262002f11578081fd5b815162002f2862002f228262003ca0565b62003c7b565b915080825283602082850101111562002f4057600080fd5b62002f5381602084016020860162003cc3565b5092915050565b60006020828403121562002f6c578081fd5b8135620013d38162003cf2565b6000806040838503121562002f8c578081fd5b823562002f998162003cf2565b9150602083013562002fab8162003cf2565b809150509250929050565b60008060006060848603121562002fcb578081fd5b833562002fd88162003cf2565b9250602084013562002fea8162003cf2565b929592945050506040919091013590565b6000806000806080858703121562003011578081fd5b84356200301e8162003cf2565b93506020850135620030308162003cf2565b925060408501359150606085013567ffffffffffffffff81111562003053578182fd5b8501601f8101871362003064578182fd5b80356200307562002f228262003ca0565b8181528860208385010111156200308a578384fd5b81602084016020830137908101602001929092525092959194509250565b60008060408385031215620030bb578182fd5b8235620030c88162003cf2565b9150602083013562002fab8162003d0b565b60008060408385031215620030ed578182fd5b8235620030fa8162003cf2565b946020939093013593505050565b600060208083850312156200311b578182fd5b825167ffffffffffffffff8082111562003133578384fd5b818501915085601f83011262003147578384fd5b8151818111156200315457fe5b83810291506200316684830162003c7b565b8181528481019084860184860187018a101562003181578788fd5b8795505b83861015620031ae57620031998162002ea9565b83526001959095019491860191860162003185565b5098975050505050505050565b600060208284031215620031cd578081fd5b8151620013d38162003d0b565b600060208284031215620031ec578081fd5b5035919050565b60008060006060848603121562003208578283fd5b505081359360208301359350604090920135919050565b6000806040838503121562003232578182fd5b50508035926020909101359150565b60008060006060848603121562003208578081fd5b60006020828403121562003268578081fd5b8135620013d38162003d1a565b60006020828403121562003287578081fd5b8151620013d38162003d1a565b600060208284031215620032a6578081fd5b5051919050565b60008060408385031215620032c0578182fd5b82359150602083013562002fab8162003cf2565b600080600080600080600080610100898b031215620032f1578586fd5b885197506020890151620033058162003cf2565b60408a0151909750620033188162003cf2565b60608a015190965067ffffffffffffffff8082111562003336578586fd5b620033448c838d0162002f00565b965060808b01519150808211156200335a578586fd5b50620033698b828c0162002f00565b94505060a0890151925060c0890151915060e08901516200338a8162003cf2565b809150509295985092959890939650565b60008060008060008060008060c0898b031215620033b7578182fd5b88359750602089013567ffffffffffffffff80821115620033d6578384fd5b620033e48c838d0162002eb6565b909950975060408b0135965060608b0135955060808b01359150620034098262003cf2565b90935060a08a013590808211156200341f578384fd5b506200342e8b828c0162002eb6565b999c989b5096995094979396929594505050565b600080600080600080600080610100898b0312156200345f578182fd5b505086359860208801359850604088013597606081013597506080810135965060a0810135955060c0810135945060e0013592509050565b6001600160a01b03169052565b60008151808452620034be81602086016020860162003cc3565b601f01601f19169290920160200192915050565b80518252602090810151910152565b60008251620034f581846020870162003cc3565b9190910192915050565b6001600160a01b0391909116815260200190565b6001600160a01b03858116825284166020820152604081018390526080606082018190526000906200354890830184620034a4565b9695505050505050565b6001600160a01b0392831681529116602082015260400190565b6001600160a01b039384168152919092166020820152604081019190915260600190565b6001600160a01b03929092168252602082015260400190565b6020808252825182820181905260009190848201906040850190845b81811015620035ec5783516001600160a01b031683529284019291840191600101620035c5565b50909695505050505050565b901515815260200190565b600060a082528660a0830152868860c084013760c087830181019190915260208201959095526001600160a01b0393909316604084015260ff9190911660608301526080820152601f909201601f191690910101919050565b600060208252620013d36020830184620034a4565b602080825260029082015261544d60f01b604082015260600190565b602080825260029082015261534b60f01b604082015260600190565b60208082526032908201527f4552433732313a207472616e7366657220746f206e6f6e20455243373231526560408201527131b2b4bb32b91034b6b83632b6b2b73a32b960711b606082015260800190565b602080825260029082015261232760f11b604082015260600190565b6020808252600290820152614c5360f01b604082015260600190565b6020808252601b908201527f536166654d6174683a206164646974696f6e206f766572666c6f770000000000604082015260600190565b60208082526003908201526245445360e81b604082015260600190565b60208082526019908201527f4552433732313a20617070726f766520746f2063616c6c657200000000000000604082015260600190565b60208082526003908201526253415360e81b604082015260600190565b6020808252601e908201527f536166654d6174683a207375627472616374696f6e206f766572666c6f770000604082015260600190565b6020808252600490820152634d42425360e01b604082015260600190565b60208082526038908201527f4552433732313a20617070726f76652063616c6c6572206973206e6f74206f7760408201527f6e6572206e6f7220617070726f76656420666f7220616c6c0000000000000000606082015260800190565b6020808252600190820152602760f91b604082015260600190565b6020808252600490820152635341535360e01b604082015260600190565b6020808252600190820152601360fa1b604082015260600190565b6020808252600290820152614e5360f01b604082015260600190565b60208082526021908201527f536166654d6174683a206d756c7469706c69636174696f6e206f766572666c6f6040820152607760f81b606082015260800190565b6020808252602c908201527f4552433732313a20617070726f76656420717565727920666f72206e6f6e657860408201526b34b9ba32b73a103a37b5b2b760a11b606082015260800190565b602080825260039082015262464e5360e81b604082015260600190565b6020808252600490820152634e45415360e01b604082015260600190565b60208082526021908201527f4552433732313a20617070726f76616c20746f2063757272656e74206f776e656040820152603960f91b606082015260800190565b6020808252600290820152614e4160f01b604082015260600190565b6020808252601d908201527f416464726573733a2063616c6c20746f206e6f6e2d636f6e7472616374000000604082015260600190565b6020808252600390820152624d425360e81b604082015260600190565b602080825260149082015273151bdad95b88105b1c9958591e48135a5b9d195960621b604082015260600190565b602080825260039082015262544d5360e81b604082015260600190565b60208082526002908201526127a360f11b604082015260600190565b6020808252600290820152614e4560f01b604082015260600190565b602080825260049082015263534d424960e01b604082015260600190565b60006101a08201905062003b2d828451620034d2565b6020830151604083015260408301516060830152606083015162003b55608084018262003497565b50608083015162003b6a60a084018262003497565b5060a083015160c08381019190915283015160e08084019190915283015161010080840191909152830151610120808401919091528301516101408084019190915283015161016080840191909152909201516101809091015290565b90815260200190565b9182526001600160a01b0316602082015260400190565b9384526001600160a01b03928316602085015291166040830152606082015260800190565b8881526001600160a01b03888116602083015287811660408301526101006060830181905260009162003c428483018a620034a4565b9150838203608085015262003c588289620034a4565b60a085019790975260c08401959095525050911660e09091015295945050505050565b60405181810167ffffffffffffffff8111828210171562003c9857fe5b604052919050565b600067ffffffffffffffff82111562003cb557fe5b50601f01601f191660200190565b60005b8381101562003ce057818101518382015260200162003cc6565b8381111562000f125750506000910152565b6001600160a01b038116811462003d0857600080fd5b50565b801515811462003d0857600080fd5b6001600160e01b03198116811462003d0857600080fdfe60806040523480156200001157600080fd5b506040516200115038038062001150833981016040819052620000349162000222565b600280546001600160a01b03191633179055600084905584516200006090600790602088019062000157565b50600180546001600160a01b0319166001600160a01b0385161790556008805460ff191660ff8416179055600554620000a690826200011f602090811b6200098e17901c565b6005556001600160a01b038316600090815260036020908152604090912054620000db9183906200098e6200011f821b17901c565b6001600160a01b0393841660009081526003602090815260408083209390935560048152828220600254909616825294909452909220919091555062000352915050565b600082820183811015620001505760405162461bcd60e51b815260040162000147906200031b565b60405180910390fd5b9392505050565b828054600181600116156101000203166002900490600052602060002090601f016020900481019282601f106200019a57805160ff1916838001178555620001ca565b82800160010185558215620001ca579182015b82811115620001ca578251825591602001919060010190620001ad565b50620001d8929150620001dc565b5090565b5b80821115620001d85760008155600101620001dd565b80516001600160a01b03811681146200020b57600080fd5b919050565b805160ff811681146200020b57600080fd5b600080600080600060a086880312156200023a578081fd5b85516001600160401b038082111562000251578283fd5b818801915088601f83011262000265578283fd5b8151818111156200027257fe5b6040516020601f8301601f19168201810184811183821017156200029257fe5b60405282825284830181018c1015620002a9578586fd5b8593505b82841015620002cc5784840181015182850182015292830192620002ad565b82841115620002dd57858184840101525b8a01519098509650620002f8925050604088019050620001f3565b9250620003086060870162000210565b9150608086015190509295509295909350565b6020808252601b908201527f536166654d6174683a206164646974696f6e206f766572666c6f770000000000604082015260600190565b610dee80620003626000396000f3fe608060405234801561001057600080fd5b50600436106100ea5760003560e01c806370a082311161008c578063a71b642611610066578063a71b6426146101c2578063a9059cbb146101ca578063dd62ed3e146101dd578063f9b7958a146101f0576100ea565b806370a082311461019457806379c65068146101a757806395d89b41146101ba576100ea565b80631d143848116100c85780631d1438481461014257806323b872dd14610157578063313ce5671461016a5780636c6f31f21461017f576100ea565b806306fdde03146100ef578063095ea7b31461010d57806318160ddd1461012d575b600080fd5b6100f7610217565b6040516101049190610b39565b60405180910390f35b61012061011b366004610a84565b6102ad565b6040516101049190610b2e565b61013561039e565b6040516101049190610ce8565b61014a6103a4565b6040516101049190610b1a565b610120610165366004610a49565b6103b3565b6101726105da565b6040516101049190610d5c565b61019261018d366004610a84565b6105e3565b005b6101356101a23660046109fd565b6106c0565b6101926101b5366004610a84565b6106df565b6100f76107a3565b610135610804565b6101206101d8366004610a84565b61080a565b6101356101eb366004610a17565b61090e565b6102036101fe366004610aad565b610939565b604051610104989796959493929190610cf1565b60068054604080516020601f60026000196101006001881615020190951694909404938401819004810282018101909252828152606093909290918301828280156102a35780601f10610278576101008083540402835291602001916102a3565b820191906000526020600020905b81548152906001019060200180831161028657829003601f168201915b5050505050905090565b600033806102d65760405162461bcd60e51b81526004016102cd90610c4d565b60405180910390fd5b6001600160a01b0384166102fc5760405162461bcd60e51b81526004016102cd90610b8f565b6001600160a01b0380821660009081526004602090815260408083209388168352929052205461032c908461098e565b6001600160a01b038083166000818152600460209081526040808320948a1680845294909152908190209390935591519091907f8c5be1e5ebec7d5bd14f71427d1e84f3dd0314c0f7b2291e5b200ac8c7c3b9259061038c908790610ce8565b60405180910390a35060019392505050565b60055490565b6001546001600160a01b031690565b60006001600160a01b0384166103db5760405162461bcd60e51b81526004016102cd90610c08565b6001600160a01b0383166104015760405162461bcd60e51b81526004016102cd90610b4c565b61043e82604051806060016040528060268152602001610d6b602691396001600160a01b03871660009081526003602052604090205491906109ba565b6001600160a01b03808616600090815260036020526040808220939093559085168152205461046d908361098e565b6001600160a01b0380851660008181526003602052604090819020939093559151908616907fddf252ad1be2c89b69c2b068fc378daa952ba7f163c4a11628f55a4df523b3ef906104bf908690610ce8565b60405180910390a360025484906001600160a01b039081169082166104f65760405162461bcd60e51b81526004016102cd90610c4d565b6001600160a01b03811661051c5760405162461bcd60e51b81526004016102cd90610b8f565b61056684604051806060016040528060288152602001610d91602891396001600160a01b03808a1660009081526004602090815260408083209388168352929052205491906109ba565b6001600160a01b03808416600081815260046020908152604080832094871680845294909152908190209390935591519091907f8c5be1e5ebec7d5bd14f71427d1e84f3dd0314c0f7b2291e5b200ac8c7c3b925906105c6908890610ce8565b60405180910390a350600195945050505050565b60085460ff1690565b6002546001600160a01b0316331461060d5760405162461bcd60e51b81526004016102cd90610c91565b6002546001600160a01b0390811690831661063a5760405162461bcd60e51b81526004016102cd90610c4d565b6001600160a01b0381166106605760405162461bcd60e51b81526004016102cd90610b8f565b6001600160a01b03808416600090815260046020908152604080832093851683529290522054610690908361098e565b6001600160a01b039384166000908152600460209081526040808320949096168252929092529290209190915550565b6001600160a01b0381166000908152600360205260409020545b919050565b6002546001600160a01b031633146107095760405162461bcd60e51b81526004016102cd90610c91565b6001600160a01b03821661072f5760405162461bcd60e51b81526004016102cd90610cb1565b60055461073c908261098e565b6005556001600160a01b038216600090815260036020526040902054610762908261098e565b6001600160a01b038084166000908152600360209081526040808320949094556002546004825284832093168083529290529190912054610690908361098e565b60078054604080516020601f60026000196101006001881615020190951694909404938401819004810282018101909252828152606093909290918301828280156102a35780601f10610278576101008083540402835291602001916102a3565b60005490565b6000338061082a5760405162461bcd60e51b81526004016102cd90610c08565b6001600160a01b0384166108505760405162461bcd60e51b81526004016102cd90610b4c565b61088d83604051806060016040528060268152602001610d6b602691396001600160a01b03841660009081526003602052604090205491906109ba565b6001600160a01b0380831660009081526003602052604080822093909355908616815220546108bc908461098e565b6001600160a01b0380861660008181526003602052604090819020939093559151908316907fddf252ad1be2c89b69c2b068fc378daa952ba7f163c4a11628f55a4df523b3ef9061038c908790610ce8565b6001600160a01b03918216600090815260046020908152604080832093909416825291909152205490565b60008060006060806000806000898930610951610217565b6109596107a3565b61096161039e565b610969610804565b6109716103a4565b975097509750975097509750975097509295985092959890939650565b6000828201838110156109b35760405162461bcd60e51b81526004016102cd90610bd1565b9392505050565b600081848411156109de5760405162461bcd60e51b81526004016102cd9190610b39565b505050900390565b80356001600160a01b03811681146106da57600080fd5b600060208284031215610a0e578081fd5b6109b3826109e6565b60008060408385031215610a29578081fd5b610a32836109e6565b9150610a40602084016109e6565b90509250929050565b600080600060608486031215610a5d578081fd5b610a66846109e6565b9250610a74602085016109e6565b9150604084013590509250925092565b60008060408385031215610a96578182fd5b610a9f836109e6565b946020939093013593505050565b60008060408385031215610abf578182fd5b82359150610a40602084016109e6565b60008151808452815b81811015610af457602081850181015186830182015201610ad8565b81811115610b055782602083870101525b50601f01601f19169290920160200192915050565b6001600160a01b0391909116815260200190565b901515815260200190565b6000602082526109b36020830184610acf565b60208082526023908201527f45524332303a207472616e7366657220746f20746865207a65726f206164647260408201526265737360e81b606082015260800190565b60208082526022908201527f45524332303a20617070726f766520746f20746865207a65726f206164647265604082015261737360f01b606082015260800190565b6020808252601b908201527f536166654d6174683a206164646974696f6e206f766572666c6f770000000000604082015260600190565b60208082526025908201527f45524332303a207472616e736665722066726f6d20746865207a65726f206164604082015264647265737360d81b606082015260800190565b60208082526024908201527f45524332303a20617070726f76652066726f6d20746865207a65726f206164646040820152637265737360e01b606082015260800190565b60208082526006908201526526a120a6ab1960d11b604082015260600190565b6020808252601f908201527f45524332303a206d696e7420746f20746865207a65726f206164647265737300604082015260600190565b90815260200190565b8881526001600160a01b038881166020830152878116604083015261010060608301819052600091610d258483018a610acf565b91508382036080850152610d398289610acf565b60a085019790975260c08401959095525050911660e09091015295945050505050565b60ff9190911681526020019056fe45524332303a207472616e7366657220616d6f756e7420657863656564732062616c616e636545524332303a207472616e7366657220616d6f756e74206578636565647320616c6c6f77616e6365a26469706673582212201346f7ef011a6a01ea254859ddef3f3c7a250978d9adafbc2d99700092c80e6864736f6c634300070300334552433732313a207472616e7366657220746f206e6f6e20455243373231526563656976657220696d706c656d656e746572a26469706673582212200c2111f5f9ce69e7724291a29bf944acbf0cd5b1bfb97c4208a11ae073ca92ac64736f6c6343000703003360806040523480156200001157600080fd5b506040516200115038038062001150833981016040819052620000349162000222565b600280546001600160a01b03191633179055600084905584516200006090600790602088019062000157565b50600180546001600160a01b0319166001600160a01b0385161790556008805460ff191660ff8416179055600554620000a690826200011f602090811b6200098e17901c565b6005556001600160a01b038316600090815260036020908152604090912054620000db9183906200098e6200011f821b17901c565b6001600160a01b0393841660009081526003602090815260408083209390935560048152828220600254909616825294909452909220919091555062000352915050565b600082820183811015620001505760405162461bcd60e51b815260040162000147906200031b565b60405180910390fd5b9392505050565b828054600181600116156101000203166002900490600052602060002090601f016020900481019282601f106200019a57805160ff1916838001178555620001ca565b82800160010185558215620001ca579182015b82811115620001ca578251825591602001919060010190620001ad565b50620001d8929150620001dc565b5090565b5b80821115620001d85760008155600101620001dd565b80516001600160a01b03811681146200020b57600080fd5b919050565b805160ff811681146200020b57600080fd5b600080600080600060a086880312156200023a578081fd5b85516001600160401b038082111562000251578283fd5b818801915088601f83011262000265578283fd5b8151818111156200027257fe5b6040516020601f8301601f19168201810184811183821017156200029257fe5b60405282825284830181018c1015620002a9578586fd5b8593505b82841015620002cc5784840181015182850182015292830192620002ad565b82841115620002dd57858184840101525b8a01519098509650620002f8925050604088019050620001f3565b9250620003086060870162000210565b9150608086015190509295509295909350565b6020808252601b908201527f536166654d6174683a206164646974696f6e206f766572666c6f770000000000604082015260600190565b610dee80620003626000396000f3fe608060405234801561001057600080fd5b50600436106100ea5760003560e01c806370a082311161008c578063a71b642611610066578063a71b6426146101c2578063a9059cbb146101ca578063dd62ed3e146101dd578063f9b7958a146101f0576100ea565b806370a082311461019457806379c65068146101a757806395d89b41146101ba576100ea565b80631d143848116100c85780631d1438481461014257806323b872dd14610157578063313ce5671461016a5780636c6f31f21461017f576100ea565b806306fdde03146100ef578063095ea7b31461010d57806318160ddd1461012d575b600080fd5b6100f7610217565b6040516101049190610b39565b60405180910390f35b61012061011b366004610a84565b6102ad565b6040516101049190610b2e565b61013561039e565b6040516101049190610ce8565b61014a6103a4565b6040516101049190610b1a565b610120610165366004610a49565b6103b3565b6101726105da565b6040516101049190610d5c565b61019261018d366004610a84565b6105e3565b005b6101356101a23660046109fd565b6106c0565b6101926101b5366004610a84565b6106df565b6100f76107a3565b610135610804565b6101206101d8366004610a84565b61080a565b6101356101eb366004610a17565b61090e565b6102036101fe366004610aad565b610939565b604051610104989796959493929190610cf1565b60068054604080516020601f60026000196101006001881615020190951694909404938401819004810282018101909252828152606093909290918301828280156102a35780601f10610278576101008083540402835291602001916102a3565b820191906000526020600020905b81548152906001019060200180831161028657829003601f168201915b5050505050905090565b600033806102d65760405162461bcd60e51b81526004016102cd90610c4d565b60405180910390fd5b6001600160a01b0384166102fc5760405162461bcd60e51b81526004016102cd90610b8f565b6001600160a01b0380821660009081526004602090815260408083209388168352929052205461032c908461098e565b6001600160a01b038083166000818152600460209081526040808320948a1680845294909152908190209390935591519091907f8c5be1e5ebec7d5bd14f71427d1e84f3dd0314c0f7b2291e5b200ac8c7c3b9259061038c908790610ce8565b60405180910390a35060019392505050565b60055490565b6001546001600160a01b031690565b60006001600160a01b0384166103db5760405162461bcd60e51b81526004016102cd90610c08565b6001600160a01b0383166104015760405162461bcd60e51b81526004016102cd90610b4c565b61043e82604051806060016040528060268152602001610d6b602691396001600160a01b03871660009081526003602052604090205491906109ba565b6001600160a01b03808616600090815260036020526040808220939093559085168152205461046d908361098e565b6001600160a01b0380851660008181526003602052604090819020939093559151908616907fddf252ad1be2c89b69c2b068fc378daa952ba7f163c4a11628f55a4df523b3ef906104bf908690610ce8565b60405180910390a360025484906001600160a01b039081169082166104f65760405162461bcd60e51b81526004016102cd90610c4d565b6001600160a01b03811661051c5760405162461bcd60e51b81526004016102cd90610b8f565b61056684604051806060016040528060288152602001610d91602891396001600160a01b03808a1660009081526004602090815260408083209388168352929052205491906109ba565b6001600160a01b03808416600081815260046020908152604080832094871680845294909152908190209390935591519091907f8c5be1e5ebec7d5bd14f71427d1e84f3dd0314c0f7b2291e5b200ac8c7c3b925906105c6908890610ce8565b60405180910390a350600195945050505050565b60085460ff1690565b6002546001600160a01b0316331461060d5760405162461bcd60e51b81526004016102cd90610c91565b6002546001600160a01b0390811690831661063a5760405162461bcd60e51b81526004016102cd90610c4d565b6001600160a01b0381166106605760405162461bcd60e51b81526004016102cd90610b8f565b6001600160a01b03808416600090815260046020908152604080832093851683529290522054610690908361098e565b6001600160a01b039384166000908152600460209081526040808320949096168252929092529290209190915550565b6001600160a01b0381166000908152600360205260409020545b919050565b6002546001600160a01b031633146107095760405162461bcd60e51b81526004016102cd90610c91565b6001600160a01b03821661072f5760405162461bcd60e51b81526004016102cd90610cb1565b60055461073c908261098e565b6005556001600160a01b038216600090815260036020526040902054610762908261098e565b6001600160a01b038084166000908152600360209081526040808320949094556002546004825284832093168083529290529190912054610690908361098e565b60078054604080516020601f60026000196101006001881615020190951694909404938401819004810282018101909252828152606093909290918301828280156102a35780601f10610278576101008083540402835291602001916102a3565b60005490565b6000338061082a5760405162461bcd60e51b81526004016102cd90610c08565b6001600160a01b0384166108505760405162461bcd60e51b81526004016102cd90610b4c565b61088d83604051806060016040528060268152602001610d6b602691396001600160a01b03841660009081526003602052604090205491906109ba565b6001600160a01b0380831660009081526003602052604080822093909355908616815220546108bc908461098e565b6001600160a01b0380861660008181526003602052604090819020939093559151908316907fddf252ad1be2c89b69c2b068fc378daa952ba7f163c4a11628f55a4df523b3ef9061038c908790610ce8565b6001600160a01b03918216600090815260046020908152604080832093909416825291909152205490565b60008060006060806000806000898930610951610217565b6109596107a3565b61096161039e565b610969610804565b6109716103a4565b975097509750975097509750975097509295985092959890939650565b6000828201838110156109b35760405162461bcd60e51b81526004016102cd90610bd1565b9392505050565b600081848411156109de5760405162461bcd60e51b81526004016102cd9190610b39565b505050900390565b80356001600160a01b03811681146106da57600080fd5b600060208284031215610a0e578081fd5b6109b3826109e6565b60008060408385031215610a29578081fd5b610a32836109e6565b9150610a40602084016109e6565b90509250929050565b600080600060608486031215610a5d578081fd5b610a66846109e6565b9250610a74602085016109e6565b9150604084013590509250925092565b60008060408385031215610a96578182fd5b610a9f836109e6565b946020939093013593505050565b60008060408385031215610abf578182fd5b82359150610a40602084016109e6565b60008151808452815b81811015610af457602081850181015186830182015201610ad8565b81811115610b055782602083870101525b50601f01601f19169290920160200192915050565b6001600160a01b0391909116815260200190565b901515815260200190565b6000602082526109b36020830184610acf565b60208082526023908201527f45524332303a207472616e7366657220746f20746865207a65726f206164647260408201526265737360e81b606082015260800190565b60208082526022908201527f45524332303a20617070726f766520746f20746865207a65726f206164647265604082015261737360f01b606082015260800190565b6020808252601b908201527f536166654d6174683a206164646974696f6e206f766572666c6f770000000000604082015260600190565b60208082526025908201527f45524332303a207472616e736665722066726f6d20746865207a65726f206164604082015264647265737360d81b606082015260800190565b60208082526024908201527f45524332303a20617070726f76652066726f6d20746865207a65726f206164646040820152637265737360e01b606082015260800190565b60208082526006908201526526a120a6ab1960d11b604082015260600190565b6020808252601f908201527f45524332303a206d696e7420746f20746865207a65726f206164647265737300604082015260600190565b90815260200190565b8881526001600160a01b038881166020830152878116604083015261010060608301819052600091610d258483018a610acf565b91508382036080850152610d398289610acf565b60a085019790975260c08401959095525050911660e09091015295945050505050565b60ff9190911681526020019056fe45524332303a207472616e7366657220616d6f756e7420657863656564732062616c616e636545524332303a207472616e7366657220616d6f756e74206578636565647320616c6c6f77616e6365a26469706673582212201346f7ef011a6a01ea254859ddef3f3c7a250978d9adafbc2d99700092c80e6864736f6c63430007030033608060405234801561001057600080fd5b506040516103b63803806103b68339818101604052602081101561003357600080fd5b50516001600160a01b038116610076576040805162461bcd60e51b81526020600482015260036024820152622b20a760e91b604482015290519081900360640190fd5b600080546001600160a01b039092166001600160a01b0319909216919091179055610310806100a66000396000f3fe608060405234801561001057600080fd5b506004361061004c5760003560e01c80630afc7bf41461005157806320000b591461008f578063e5c66bbd146100cd578063f2aa8218146100f9575b600080fd5b61008d6004803603608081101561006757600080fd5b508035906001600160a01b03602082013581169160408101359091169060600135610166565b005b6100bb600480360360408110156100a557600080fd5b50803590602001356001600160a01b031661021e565b60408051918252519081900360200190f35b6100bb600480360360408110156100e357600080fd5b50803590602001356001600160a01b0316610246565b6101166004803603602081101561010f57600080fd5b503561026e565b60408051602080825283518183015283519192839290830191858101910280838360005b8381101561015257818101518382015260200161013a565b505050509050019250505060405180910390f35b6000546001600160a01b031633146101ab576040805162461bcd60e51b81526020600482015260036024820152622727a160e91b604482015290519081900360640190fd5b60008481526001602081815260408084206001600160a01b03968716855282528084208054860190558784526002825280842096909516808452958152848320805490940190935594815260038252918220805494850181558252902090910180546001600160a01b0319169091179055565b60009182526002602090815260408084206001600160a01b0393909316845291905290205490565b60009182526001602090815260408084206001600160a01b0393909316845291905290205490565b6000818152600360209081526040918290208054835181840281018401909452808452606093928301828280156102ce57602002820191906000526020600020905b81546001600160a01b031681526001909101906020018083116102b0575b5050505050905091905056fea2646970667358221220a42ab35ac93d27044a4e196aeda7b8ab5b848fe23d51baf5743c0c8f7a13dfff64736f6c63430007030033",
  "linkReferences": {},
  "deployedLinkReferences": {}
}