{
  "_format": "hh-sol-artifact-1",
  "contractName": "AssetManagerV2",
  "sourceName": "contracts/v2/AssetManagerV2.sol",
  "abi": [
    {
      "inputs": [],
      "stateMutability": "nonpayable",
      "type": "constructor"
    },
    {
      "anonymous": false,
      "inputs": [
        {
          "indexed": true,
          "internalType": "address",
          "name": "owner",
          "type": "address"
        },
        {
          "indexed": true,
          "internalType": "address",
          "name": "approved",
          "type": "address"
        },
        {
          "indexed": true,
          "internalType": "uint256",
          "name": "tokenId",
          "type": "uint256"
        }
      ],
      "name": "Approval",
      "type": "event"
    },
    {
      "anonymous": false,
      "inputs": [
        {
          "indexed": true,
          "internalType": "address",
          "name": "owner",
          "type": "address"
        },
        {
          "indexed": true,
          "internalType": "address",
          "name": "operator",
          "type": "address"
        },
        {
          "indexed": false,
          "internalType": "bool",
          "name": "approved",
          "type": "bool"
        }
      ],
      "name": "ApprovalForAll",
      "type": "event"
    },
    {
      "anonymous": false,
      "inputs": [
        {
          "indexed": false,
          "internalType": "bytes32",
          "name": "key",
          "type": "bytes32"
        },
        {
          "indexed": false,
          "internalType": "uint256",
          "name": "newStatus",
          "type": "uint256"
        },
        {
          "indexed": false,
          "internalType": "uint256",
          "name": "amountRemaining",
          "type": "uint256"
        }
      ],
      "name": "OrderChanged",
      "type": "event"
    },
    {
      "anonymous": false,
      "inputs": [
        {
          "indexed": true,
          "internalType": "address",
          "name": "from",
          "type": "address"
        },
        {
          "indexed": true,
          "internalType": "address",
          "name": "to",
          "type": "address"
        },
        {
          "indexed": true,
          "internalType": "uint256",
          "name": "tokenId",
          "type": "uint256"
        }
      ],
      "name": "Transfer",
      "type": "event"
    },
    {
      "inputs": [
        {
          "internalType": "address",
          "name": "to",
          "type": "address"
        },
        {
          "internalType": "uint256",
          "name": "tokenId",
          "type": "uint256"
        }
      ],
      "name": "approve",
      "outputs": [],
      "stateMutability": "nonpayable",
      "type": "function"
    },
    {
      "inputs": [
        {
          "internalType": "address",
          "name": "owner_",
          "type": "address"
        }
      ],
      "name": "balanceOf",
      "outputs": [
        {
          "internalType": "uint256",
          "name": "",
          "type": "uint256"
        }
      ],
      "stateMutability": "view",
      "type": "function"
    },
    {
      "inputs": [
        {
          "internalType": "bytes32",
          "name": "orderKey",
          "type": "bytes32"
        },
        {
          "internalType": "uint256",
          "name": "marketType",
          "type": "uint256"
        },
        {
          "internalType": "uint256",
          "name": "amount",
          "type": "uint256"
        }
      ],
      "name": "buy",
      "outputs": [],
      "stateMutability": "nonpayable",
      "type": "function"
    },
    {
      "inputs": [
        {
          "internalType": "uint256",
          "name": "tokenId",
          "type": "uint256"
        }
      ],
      "name": "concludePrimarySales",
      "outputs": [],
      "stateMutability": "nonpayable",
      "type": "function"
    },
    {
      "inputs": [
        {
          "internalType": "uint256",
          "name": "tokenId",
          "type": "uint256"
        }
      ],
      "name": "escrowBalance",
      "outputs": [
        {
          "internalType": "uint256",
          "name": "",
          "type": "uint256"
        }
      ],
      "stateMutability": "view",
      "type": "function"
    },
    {
      "inputs": [
        {
          "internalType": "address",
          "name": "recipient",
          "type": "address"
        },
        {
          "internalType": "uint256",
          "name": "amount",
          "type": "uint256"
        }
      ],
      "name": "fundWallet",
      "outputs": [],
      "stateMutability": "nonpayable",
      "type": "function"
    },
    {
      "inputs": [
        {
          "internalType": "uint256",
          "name": "tokenId",
          "type": "uint256"
        }
      ],
      "name": "getApproved",
      "outputs": [
        {
          "internalType": "address",
          "name": "",
          "type": "address"
        }
      ],
      "stateMutability": "view",
      "type": "function"
    },
    {
      "inputs": [
        {
          "internalType": "bytes32",
          "name": "key",
          "type": "bytes32"
        }
      ],
      "name": "getOrder",
      "outputs": [
        {
          "components": [
            {
              "components": [
                {
                  "internalType": "bytes32",
                  "name": "key",
                  "type": "bytes32"
                },
                {
                  "internalType": "uint256",
                  "name": "date",
                  "type": "uint256"
                }
              ],
              "internalType": "struct OrderModelV2.SortedKey",
              "name": "key",
              "type": "tuple"
            },
            {
              "internalType": "uint256",
              "name": "orderType",
              "type": "uint256"
            },
            {
              "internalType": "uint256",
              "name": "orderStrategy",
              "type": "uint256"
            },
            {
              "internalType": "address",
              "name": "seller",
              "type": "address"
            },
            {
              "internalType": "address",
              "name": "buyer",
              "type": "address"
            },
            {
              "internalType": "uint256",
              "name": "tokenId",
              "type": "uint256"
            },
            {
              "internalType": "uint256",
              "name": "amountRemaining",
              "type": "uint256"
            },
            {
              "internalType": "uint256",
              "name": "originalAmount",
              "type": "uint256"
            },
            {
              "internalType": "uint256",
              "name": "price",
              "type": "uint256"
            },
            {
              "internalType": "uint256",
              "name": "status",
              "type": "uint256"
            },
            {
              "internalType": "uint256",
              "name": "goodUntil",
              "type": "uint256"
            },
            {
              "internalType": "uint256",
              "name": "marketType",
              "type": "uint256"
            }
          ],
          "internalType": "struct OrderModelV2.Order",
          "name": "",
          "type": "tuple"
        }
      ],
      "stateMutability": "view",
      "type": "function"
    },
    {
      "inputs": [
        {
          "internalType": "address",
          "name": "owner_",
          "type": "address"
        },
        {
          "internalType": "address",
          "name": "operator",
          "type": "address"
        }
      ],
      "name": "isApprovedForAll",
      "outputs": [
        {
          "internalType": "bool",
          "name": "",
          "type": "bool"
        }
      ],
      "stateMutability": "view",
      "type": "function"
    },
    {
      "inputs": [
        {
          "internalType": "uint256",
          "name": "tokenId",
          "type": "uint256"
        },
        {
          "internalType": "string",
          "name": "tokenSymbol",
          "type": "string"
        },
        {
          "internalType": "uint256",
          "name": "totalSupply",
          "type": "uint256"
        },
        {
          "internalType": "uint256",
          "name": "issuingPrice",
          "type": "uint256"
        },
        {
          "internalType": "address",
          "name": "issuer",
          "type": "address"
        },
        {
          "internalType": "string",
          "name": "uri",
          "type": "string"
        }
      ],
      "name": "mint",
      "outputs": [],
      "stateMutability": "nonpayable",
      "type": "function"
    },
    {
      "inputs": [],
      "name": "name",
      "outputs": [
        {
          "internalType": "string",
          "name": "",
          "type": "string"
        }
      ],
      "stateMutability": "view",
      "type": "function"
    },
    {
      "inputs": [
        {
          "internalType": "uint256",
          "name": "tokenId",
          "type": "uint256"
        },
        {
          "internalType": "address",
          "name": "userAddress",
          "type": "address"
        }
      ],
      "name": "ownedShares",
      "outputs": [
        {
          "internalType": "uint256",
          "name": "",
          "type": "uint256"
        }
      ],
      "stateMutability": "view",
      "type": "function"
    },
    {
      "inputs": [
        {
          "internalType": "uint256",
          "name": "tokenId",
          "type": "uint256"
        }
      ],
      "name": "ownerOf",
      "outputs": [
        {
          "internalType": "address",
          "name": "",
          "type": "address"
        }
      ],
      "stateMutability": "view",
      "type": "function"
    },
    {
      "inputs": [
        {
          "internalType": "uint256",
          "name": "orderType",
          "type": "uint256"
        },
        {
          "internalType": "uint256",
          "name": "orderStrategy",
          "type": "uint256"
        },
        {
          "internalType": "uint256",
          "name": "amount",
          "type": "uint256"
        },
        {
          "internalType": "uint256",
          "name": "price",
          "type": "uint256"
        },
        {
          "internalType": "uint256",
          "name": "tokenId",
          "type": "uint256"
        },
        {
          "internalType": "uint256",
          "name": "goodUntil",
          "type": "uint256"
        },
        {
          "internalType": "bytes32",
          "name": "key",
          "type": "bytes32"
        },
        {
          "internalType": "uint256",
          "name": "marketType",
          "type": "uint256"
        }
      ],
      "name": "postOrder",
      "outputs": [],
      "stateMutability": "nonpayable",
      "type": "function"
    },
    {
      "inputs": [
        {
          "internalType": "uint256",
          "name": "tokenId",
          "type": "uint256"
        }
      ],
      "name": "primaryMarketBuyers",
      "outputs": [
        {
          "internalType": "address[]",
          "name": "",
          "type": "address[]"
        }
      ],
      "stateMutability": "view",
      "type": "function"
    },
    {
      "inputs": [
        {
          "internalType": "address",
          "name": "from",
          "type": "address"
        },
        {
          "internalType": "address",
          "name": "to",
          "type": "address"
        },
        {
          "internalType": "uint256",
          "name": "tokenId",
          "type": "uint256"
        }
      ],
      "name": "safeTransferFrom",
      "outputs": [],
      "stateMutability": "nonpayable",
      "type": "function"
    },
    {
      "inputs": [
        {
          "internalType": "address",
          "name": "from",
          "type": "address"
        },
        {
          "internalType": "address",
          "name": "to",
          "type": "address"
        },
        {
          "internalType": "uint256",
          "name": "tokenId",
          "type": "uint256"
        },
        {
          "internalType": "bytes",
          "name": "_data",
          "type": "bytes"
        }
      ],
      "name": "safeTransferFrom",
      "outputs": [],
      "stateMutability": "nonpayable",
      "type": "function"
    },
    {
      "inputs": [
        {
          "internalType": "address",
          "name": "operator",
          "type": "address"
        },
        {
          "internalType": "bool",
          "name": "approved",
          "type": "bool"
        }
      ],
      "name": "setApprovalForAll",
      "outputs": [],
      "stateMutability": "nonpayable",
      "type": "function"
    },
    {
      "inputs": [
        {
          "internalType": "bytes4",
          "name": "interfaceId",
          "type": "bytes4"
        }
      ],
      "name": "supportsInterface",
      "outputs": [
        {
          "internalType": "bool",
          "name": "",
          "type": "bool"
        }
      ],
      "stateMutability": "view",
      "type": "function"
    },
    {
      "inputs": [],
      "name": "symbol",
      "outputs": [
        {
          "internalType": "string",
          "name": "",
          "type": "string"
        }
      ],
      "stateMutability": "view",
      "type": "function"
    },
    {
      "inputs": [
        {
          "internalType": "uint256",
          "name": "tokenId",
          "type": "uint256"
        }
      ],
      "name": "tokenShares",
      "outputs": [
        {
          "internalType": "uint256",
          "name": "",
          "type": "uint256"
        },
        {
          "internalType": "address",
          "name": "",
          "type": "address"
        },
        {
          "internalType": "address",
          "name": "",
          "type": "address"
        },
        {
          "internalType": "string",
          "name": "",
          "type": "string"
        },
        {
          "internalType": "string",
          "name": "",
          "type": "string"
        },
        {
          "internalType": "uint256",
          "name": "",
          "type": "uint256"
        },
        {
          "internalType": "uint256",
          "name": "",
          "type": "uint256"
        },
        {
          "internalType": "address",
          "name": "",
          "type": "address"
        }
      ],
      "stateMutability": "view",
      "type": "function"
    },
    {
      "inputs": [
        {
          "internalType": "uint256",
          "name": "tokenId",
          "type": "uint256"
        }
      ],
      "name": "tokenURI",
      "outputs": [
        {
          "internalType": "string",
          "name": "",
          "type": "string"
        }
      ],
      "stateMutability": "view",
      "type": "function"
    },
    {
      "inputs": [
        {
          "internalType": "uint256",
          "name": "tokenId",
          "type": "uint256"
        }
      ],
      "name": "totalValueSold",
      "outputs": [
        {
          "internalType": "uint256",
          "name": "",
          "type": "uint256"
        }
      ],
      "stateMutability": "view",
      "type": "function"
    },
    {
      "inputs": [
        {
          "internalType": "address",
          "name": "from",
          "type": "address"
        },
        {
          "internalType": "address",
          "name": "to",
          "type": "address"
        },
        {
          "internalType": "uint256",
          "name": "tokenId",
          "type": "uint256"
        }
      ],
      "name": "transferFrom",
      "outputs": [],
      "stateMutability": "nonpayable",
      "type": "function"
    },
    {
      "inputs": [
        {
          "internalType": "uint256",
          "name": "tokenId",
          "type": "uint256"
        }
      ],
      "name": "underSubscribed",
      "outputs": [],
      "stateMutability": "nonpayable",
      "type": "function"
    },
    {
      "inputs": [
        {
          "internalType": "address",
          "name": "userAddress",
          "type": "address"
        }
      ],
      "name": "walletBalance",
      "outputs": [
        {
          "internalType": "uint256",
          "name": "",
          "type": "uint256"
        }
      ],
      "stateMutability": "view",
      "type": "function"
    }
  ],
  "bytecode": "0x60806040523480156200001157600080fd5b50620000246301ffc9a760e01b6200019b565b6040805180820190915260108082526f4e5345204172742045786368616e676560801b60209092019182526200005d91601591620001f6565b5060408051808201909152600480825263082a4a8b60e31b60209092019182526200008b91601691620001f6565b506200009e6380ac58cd60e01b6200019b565b620000b0635b5e139f60e01b6200019b565b620000c263780e9d6360e01b6200019b565b601380546001600160a01b03191633908117909155604051600191906000908190620000ee906200027b565b620000fd9493929190620002f9565b604051809103906000f0801580156200011a573d6000803e3d6000fd5b50600f80546001600160a01b0319166001600160a01b039290921691909117905560405130906200014b9062000289565b620001579190620002ae565b604051809103906000f08015801562000174573d6000803e3d6000fd5b50601080546001600160a01b0319166001600160a01b03929092169190911790556200033f565b6001600160e01b03198082161415620001d15760405162461bcd60e51b8152600401620001c890620002c2565b60405180910390fd5b6001600160e01b0319166000908152602081905260409020805460ff19166001179055565b828054600181600116156101000203166002900490600052602060002090601f016020900481019282601f106200023957805160ff191683800117855562000269565b8280016001018555821562000269579182015b82811115620002695782518255916020019190600101906200024c565b506200027792915062000297565b5090565b6111508062005f2f83390190565b6103b6806200707f83390190565b5b8082111562000277576000815560010162000298565b6001600160a01b0391909116815260200190565b6020808252601c908201527f4552433136353a20696e76616c696420696e7465726661636520696400000000604082015260600190565b60a08082526006908201526515d05313115560d21b60c082015260208101949094526001600160a01b0392909216604084015260ff166060830152608082015260e00190565b615be0806200034f6000396000f3fe60806040523480156200001157600080fd5b5060043610620001b45760003560e01c806371df284d11620000f3578063bb099ee311620000a5578063e985e9c5116200007b578063e985e9c514620003fd578063f1dfad8f1462000414578063fc18d034146200042b578063ff919450146200044257620001b4565b8063bb099ee314620003b8578063c87b56dd14620003cf578063cf9cd8f814620003e657620001b4565b806371df284d146200033b5780637727b85b146200035257806395d89b411462000369578063a22cb4651462000373578063b88d4fde146200038a578063b9d11e8614620003a157620001b4565b806323b872dd116200016b57806342842e0e116200014157806342842e0e146200028c5780635778472a14620002e75780636352211e146200030d57806370a08231146200032457620001b4565b806323b872dd146200028c5780633563922f14620002a35780633ae64e0c14620002ba57620001b4565b806301ffc9a714620001b957806302a1c41d14620001e857806306fdde03146200020e578063081812fc1462000227578063095ea7b3146200024d5780631a3ed2751462000266575b600080fd5b620001d0620001ca36600462003eed565b62000459565b604051620001df919062004305565b60405180910390f35b620001ff620001f936600462003f44565b6200047c565b604051620001df919062004881565b620002186200051c565b604051620001df91906200437f565b6200023e6200023836600462003ea8565b620005b6565b604051620001df919062004196565b620002646200025e36600462003da8565b62000612565b005b6200027d6200027736600462003ea8565b620006a5565b604051620001df919062004240565b620002646200029d36600462003c84565b620006a0565b62000264620002b436600462003da8565b62000730565b620002d1620002cb36600462003ea8565b620007c9565b604051620001df989796959493929190620048c6565b620002fe620002f836600462003ea8565b62000896565b604051620001df9190620047d1565b6200023e6200031e36600462003ea8565b62000959565b620001ff6200033536600462003c28565b62000974565b620002646200034c36600462004032565b6200098f565b620002646200036336600462003ea8565b62000a8a565b6200021862000ead565b620002646200038436600462003d76565b62000f11565b620002646200039b36600462003cc9565b62000ea7565b620001ff620003b236600462003ea8565b62000f75565b620001ff620003c936600462003ea8565b6200100f565b62000218620003e036600462003ea8565b620010b1565b620001ff620003f736600462003c28565b62001156565b620001d06200040e36600462003c47565b6200118b565b6200026462000425366004620040d9565b620011b9565b620002646200043c36600462003ec1565b620016cf565b620002646200045336600462003ea8565b62001906565b6001600160e01b0319811660009081526020819052604090205460ff165b919050565b6000828152600e6020526040808220549051636eb1769f60e11b81526001600160a01b0390911690819063dd62ed3e90620004be9086903090600401620041e9565b60206040518083038186803b158015620004d757600080fd5b505afa158015620004ec573d6000803e3d6000fd5b505050506040513d601f19601f8201168201806040525081019062000512919062003f2b565b9150505b92915050565b60158054604080516020601f6002600019610100600188161502019095169490940493840181900481028201810190925282815260609390929091830182828015620005ac5780601f106200058057610100808354040283529160200191620005ac565b820191906000526020600020905b8154815290600101906020018083116200058e57829003601f168201915b5050505050905090565b6000818152600660205260408120546001600160a01b0316620005f65760405162461bcd60e51b8152600401620005ed9062004650565b60405180910390fd5b506000908152600b60205260409020546001600160a01b031690565b60006200061f8262000959565b9050806001600160a01b0316836001600160a01b03161415620006565760405162461bcd60e51b8152600401620005ed906200469c565b336001600160a01b03821614806200067557506200067581336200118b565b620006945760405162461bcd60e51b8152600401620005ed906200457c565b620006a0838362001a4f565b505050565b601054604051631e55504360e31b81526060916001600160a01b03169063f2aa821890620006d890859060040162004881565b60006040518083038186803b158015620006f157600080fd5b505afa15801562000706573d6000803e3d6000fd5b505050506040513d6000823e601f3d908101601f1916820160405262000516919081019062003dd6565b6013546001600160a01b031633146200075d5760405162461bcd60e51b8152600401620005ed906200475e565b600f54604051630f38ca0d60e31b81526001600160a01b03909116906379c650689062000791908590859060040162004227565b600060405180830381600087803b158015620007ac57600080fd5b505af1158015620007c1573d6000803e3d6000fd5b505050505050565b6000818152600e60209081526040808320546006909252808320549051637cdbcac560e11b81528392839260609283928592839283926001600160a01b039081169263f9b7958a9262000823928e9216906004016200488a565b60006040518083038186803b1580156200083c57600080fd5b505afa15801562000851573d6000803e3d6000fd5b505050506040513d6000823e601f3d908101601f191682016040526200087b919081019062003f6b565b97509750975097509750975097509750919395975091939597565b620008a062003a0d565b5060009081526011602090815260409182902082516101c0810184528154610180820190815260018301546101a0830152815260028201549281019290925260038101549282019290925260048201546001600160a01b0390811660608301526005830154166080820152600682015460a0820152600782015460c0820152600882015460e08201526009820154610100820152600a820154610120820152600b820154610140820152600c9091015461016082015290565b6000908152600660205260409020546001600160a01b031690565b6001600160a01b031660009081526003602052604090205490565b6001600160a01b038316620009a357600080fd5b6013546001600160a01b03163314620009bb57600080fd5b620009c7338962001a7d565b506000888152600960205260409020620009e390838362003a88565b5060008881526007602052604080822080546001600160a01b0319166001600160a01b03871617905551889088908790879085908b9062000a249062003b0d565b62000a359695949392919062004326565b604051809103906000f08015801562000a52573d6000803e3d6000fd5b506000998a52600e602052604090992080546001600160a01b0319166001600160a01b03909a16999099179098555050505050505050565b6013546001600160a01b0316331462000aa257600080fd5b601054604051631e55504360e31b81526060916001600160a01b03169063f2aa82189062000ad590859060040162004881565b60006040518083038186803b15801562000aee57600080fd5b505afa15801562000b03573d6000803e3d6000fd5b505050506040513d6000823e601f3d908101601f1916820160405262000b2d919081019062003dd6565b6000838152600e60205260408120549192506001600160a01b03909116905b82518160ff16101562000d875760105483516000916001600160a01b0316906320000b59908790879060ff871690811062000b8357fe5b60200260200101516040518363ffffffff1660e01b815260040162000baa9291906200488a565b60206040518083038186803b15801562000bc357600080fd5b505afa15801562000bd8573d6000803e3d6000fd5b505050506040513d601f19601f8201168201806040525081019062000bfe919062003f2b565b9050801562000d7d57826001600160a01b03166323b872dd858460ff168151811062000c2657fe5b6020026020010151731337133713371337133713371337133713371337866001600160a01b031663dd62ed3e898860ff168151811062000c6257fe5b6020026020010151306040518363ffffffff1660e01b815260040162000c8a929190620041e9565b60206040518083038186803b15801562000ca357600080fd5b505afa15801562000cb8573d6000803e3d6000fd5b505050506040513d601f19601f8201168201806040525081019062000cde919062003f2b565b6040518463ffffffff1660e01b815260040162000cfe9392919062004203565b602060405180830381600087803b15801562000d1957600080fd5b505af115801562000d2e573d6000803e3d6000fd5b505050506040513d601f19601f8201168201806040525081019062000d54919062003e89565b1562000d7d5762000d7d848360ff168151811062000d6e57fe5b60200260200101518262000730565b5060010162000b4c565b50601354604051636eb1769f60e11b81526001600160a01b03808416926323b872dd9291169073133713371337133713371337133713371337133790849063dd62ed3e9062000ddd9085903090600401620041e9565b60206040518083038186803b15801562000df657600080fd5b505afa15801562000e0b573d6000803e3d6000fd5b505050506040513d601f19601f8201168201806040525081019062000e31919062003f2b565b6040518463ffffffff1660e01b815260040162000e519392919062004203565b602060405180830381600087803b15801562000e6c57600080fd5b505af115801562000e81573d6000803e3d6000fd5b505050506040513d601f19601f8201168201806040525081019062000ea7919062003e89565b50505050565b60168054604080516020601f6002600019610100600188161502019095169490940493840181900481028201810190925282815260609390929091830182828015620005ac5780601f106200058057610100808354040283529160200191620005ac565b6001600160a01b03821633141562000f3d5760405162461bcd60e51b8152600401620005ed906200448e565b336000908152600c602090815260408083206001600160a01b0395909516835293905291909120805460ff1916911515919091179055565b60105460008281526007602052604080822054905163e5c66bbd60e01b815291926001600160a01b039081169263e5c66bbd9262000fbb9287929116906004016200488a565b60206040518083038186803b15801562000fd457600080fd5b505afa15801562000fe9573d6000803e3d6000fd5b505050506040513d601f19601f8201168201806040525081019062000516919062003f2b565b6000818152600e6020526040808220546013549151636eb1769f60e11b81526001600160a01b0391821692839263dd62ed3e926200105692909116903090600401620041e9565b60206040518083038186803b1580156200106f57600080fd5b505afa15801562001084573d6000803e3d6000fd5b505050506040513d601f19601f82011682018060405250810190620010aa919062003f2b565b9392505050565b60008181526009602090815260409182902080548351601f60026000196101006001861615020190931692909204918201849004840281018401909452808452606093928301828280156200114a5780601f106200111e576101008083540402835291602001916200114a565b820191906000526020600020905b8154815290600101906020018083116200112c57829003601f168201915b50505050509050919050565b600f54604051636eb1769f60e11b81526000916001600160a01b03169063dd62ed3e9062000fbb9085903090600401620041e9565b6001600160a01b039182166000908152600c6020908152604080832093909416825291909152205460ff1690565b60008281526011602052604090206006015415620011eb5760405162461bcd60e51b8152600401620005ed90620043cd565b6000808962001317575060009050338162001207898962001c45565b6001600160a01b0380841660009081526014602052604080822054600f549151636eb1769f60e11b815294955091939192169063dd62ed3e90620012529087903090600401620041e9565b60206040518083038186803b1580156200126b57600080fd5b505afa15801562001280573d6000803e3d6000fd5b505050506040513d601f19601f82011682018060405250810190620012a6919062003f2b565b039050818110620012f5576001600160a01b038316600090815260146020526040902054620012d6908362001c85565b6001600160a01b0384166000908152601460205260409020556200130f565b60405162461bcd60e51b8152600401620005ed90620045f4565b505062001525565b60018a141562001525575033905060008262001369576000868152600760205260409020546001600160a01b03838116911614620013695760405162461bcd60e51b8152600401620005ed90620047b3565b6000868152600e6020526040808220549051636eb1769f60e11b81526001600160a01b039091169190829063dd62ed3e90620013ac9087903090600401620041e9565b60206040518083038186803b158015620013c557600080fd5b505afa158015620013da573d6000803e3d6000fd5b505050506040513d601f19601f8201168201806040525081019062001400919062003f2b565b905089811015620014255760405162461bcd60e51b8152600401620005ed90620046dd565b6013546040516323b872dd60e01b81526001600160a01b03808516926323b872dd926200145b92899216908f9060040162004203565b602060405180830381600087803b1580156200147657600080fd5b505af11580156200148b573d6000803e3d6000fd5b505050506040513d601f19601f82011682018060405250810190620014b1919062003e89565b15620015225760135460405163363798f960e11b81526001600160a01b0384811692636c6f31f292620014ed92909116908e9060040162004227565b600060405180830381600087803b1580156200150857600080fd5b505af11580156200151d573d6000803e3d6000fd5b505050505b50505b6200152f62003b1b565b50604080518082019091528481524260208201526200154d62003a0d565b6040518061018001604052808381526020018d81526020018c8152602001856001600160a01b03168152602001846001600160a01b031681526020018981526020018b81526020018b81526020018a815260200160008152602001888152602001868152509050806011600088815260200190815260200160002060008201518160000160008201518160000155602082015181600101555050602082015181600201556040820151816003015560608201518160040160006101000a8154816001600160a01b0302191690836001600160a01b0316021790555060808201518160050160006101000a8154816001600160a01b0302191690836001600160a01b0316021790555060a0820151816006015560c0820151816007015560e08201518160080155610100820151816009015561012082015181600a015561014082015181600b015561016082015181600c0155905050620016b68160000151826020015162001cad565b620016c18162001eb0565b505050505050505050505050565b620016d962003a0d565b50600083815260116020908152604080832081516101c0810183528154610180820190815260018301546101a0830152815260028201549381019390935260038101549183019190915260048101546001600160a01b0390811660608401526005820154166080830152600681015460a0830152600781015460c0830152600881015460e08301526009810154610100830152600a810154610120830152600b810154610140830152600c01546101608201529082156200179b5782620017a1565b8160c001515b905083620018f3576000620017c58361010001518362001c4590919063ffffffff16565b9050620017d386836200283d565b600f5460608401516040516323b872dd60e01b81526001600160a01b03909216916323b872dd91620018209173133713371337133713371337133713371337133790869060040162004203565b602060405180830381600087803b1580156200183b57600080fd5b505af115801562001850573d6000803e3d6000fd5b505050506040513d601f19601f8201168201806040525081019062001876919062003e89565b5060105460a084015160608501516040516302bf1efd60e21b81526001600160a01b0390931692630afc7bf492620018b89290913391908790600401620048a1565b600060405180830381600087803b158015620018d357600080fd5b505af1158015620018e8573d6000803e3d6000fd5b5050505050620018ff565b620018ff85826200283d565b5050505050565b6013546001600160a01b031633146200191e57600080fd5b6000818152600e602052604090819020546013549151636eb1769f60e11b81526001600160a01b039182169283926323b872dd9291169073133713371337133713371337133713371337133790849063dd62ed3e90620019859085903090600401620041e9565b60206040518083038186803b1580156200199e57600080fd5b505afa158015620019b3573d6000803e3d6000fd5b505050506040513d601f19601f82011682018060405250810190620019d9919062003f2b565b6040518463ffffffff1660e01b8152600401620019f99392919062004203565b602060405180830381600087803b15801562001a1457600080fd5b505af115801562001a29573d6000803e3d6000fd5b505050506040513d601f19601f82011682018060405250810190620006a0919062003e89565b6000908152600b6020526040902080546001600160a01b0319166001600160a01b0392909216919091179055565b6000818152600660205260408120546001600160a01b03161562001ab55760405162461bcd60e51b8152600401620005ed9062004730565b600a5462001ac590600162001c85565b600a556001600160a01b03831660009081526003602052604090205462001aee90600162001c85565b6001600160a01b038416600081815260036020908152604080832094909455600480548784526002835285842081905560018082019092557f8a35acfbc15ff81a39ae7d344fd709f28e8600b4aa8c65c6b64bfe7fe36bd19b018790558383526005825284832080548083018255908452828420018790558683526006825284832080546001600160a01b03191685179055838352600880835285842054888552828452958420869055939092529190915262001bac919062001c85565b6001600160a01b038416600090815260086020908152604080832093909355825190810190925280825262001be5918590859062002e56565b62001c045760405162461bcd60e51b8152600401620005ed90620043e9565b60405182906001600160a01b038516906000907fddf252ad1be2c89b69c2b068fc378daa952ba7f163c4a11628f55a4df523b3ef908290a450600192915050565b60008262001c565750600062000516565b8282028284828162001c6457fe5b0414620010aa5760405162461bcd60e51b8152600401620005ed906200460f565b600082820183811015620010aa5760405162461bcd60e51b8152600401620005ed9062004457565b60408051808201909152600e81526d50454e44494e475f4f524445525360901b6020918201526012815260008051602062005b8b833981519152805460018101825560009190915283517f772be0ea410d083b9faa7620a637a2ef4d4134620e54336f1b23152f42425556600290920291820155908301517f772be0ea410d083b9faa7620a637a2ef4d4134620e54336f1b23152f42425557909101558062001e005760408051808201909152600a8152694255595f4f524445525360b01b602091820152601281527fa856f6f6ba39055e273c3d1058784d00bc2dab91b2353e69862ab8df53b0d6a9805460018101825560009190915283517f36efb38fd59827d5911e3b141a286794701d27e978342642a4e798ccbcb6d0b0600290920291820155908301517f36efb38fd59827d5911e3b141a286794701d27e978342642a4e798ccbcb6d0b19091015562001eac565b60408051808201909152600b81526a53454c4c5f4f524445525360a81b602091820152601281527f059c3c45dfa5b970085a7d7ea669a7672d22ba456db726211d2174701a35eebf805460018101825560009190915283517fd3e445f601822a3f1c3e46dee42be703ac2b01d125c66d6525359d9d1673b162600290920291820155908301517fd3e445f601822a3f1c3e46dee42be703ac2b01d125c66d6525359d9d1673b163909101555b5050565b600062001ebc62003a0d565b5060408051808201909152600e81526d50454e44494e475f4f524445525360901b60209182015260008051602062005b6b8339815191526000526012905260008051602062005b8b833981519152548290600181141562001f20575050506200283a565b600062001f2f82600162002f3a565b905060006103e8831162001f4557600062001f49565b6103e85b90505b80821015801562001f5b575084155b15620007c15762001f6b62003a0d565b60408051808201909152600e81526d50454e44494e475f4f524445525360901b60209182015260008051602062005b6b8339815191526000908152601290915260008051602062005b8b833981519152805460119291908690811062001fcd57fe5b60009182526020808320600292830201548452838101949094526040928301822083516101c0810185528154610180820190815260018301546101a083015281529181015482860181905260038201549483019490945260048101546001600160a01b039081166060840181905260058301549091166080840152600682015460a0808501829052600784015460c0860152600884015460e08601526009840154610100860152600a840154610120860152600b840154610140860152600c90930154610160850152918b0151958b015192965094149392149115801590620020c2575060808801516001600160a01b031615155b15620020ed5787608001516001600160a01b031684606001516001600160a01b03161490506200213c565b60808401516001600160a01b03161580159062002116575060608801516001600160a01b031615155b156200213c5787606001516001600160a01b031684608001516001600160a01b03161490505b61016080890151908501511460008480156200215b5750610120860151155b801562002166575083155b8015620021705750815b80156200217b575082155b905080806200219d575060048a6040015114806200219d575060048660400151145b156200280d57620021ad62003a0d565b620021b762003a0d565b620021c162003b32565b60208d0151620022a4578c9250889150620021dd838362002f65565b805184515160009081526011602090815260409182902082516101c0810184528154610180820190815260018301546101a0830152815260028201549281019290925260038101549282019290925260048201546001600160a01b0390811660608301526005830154166080820152600682015460a0820152600782015460c0820152600882015460e08201526009820154610100820152600a820154610120820152600b820154610140820152600c90910154610160820152909f509d50905062002386565b60018d60200151141562002386578c9150889250620022c4838362002f65565b805183515160009081526011602090815260409182902082516101c0810184528154610180820190815260018301546101a0830152815260028201549281019290925260038101549282019290925260048201546001600160a01b0390811660608301526005830154166080820152600682015460a0820152600782015460c0820152600882015460e08201526009820154610100820152600a820154610120820152600b820154610140820152600c90910154610160820152909f509d5090505b60608201516001600160a01b0316620023b35760405162461bcd60e51b8152600401620005ed90620044c5565b60808301516001600160a01b0316620023e05760405162461bcd60e51b8152600401620005ed90620043b0565b60018361012001511480620023fa57506001826101200151145b1562002809576101008301516040840151600414156200241c57506101008201515b606082015160009062002430908362001c45565b604085015190915081906001146200245657608084015162002453908462001c45565b90505b60808601516001600160a01b03166000908152601460205260409020546200247f908362002f3a565b60808701516001600160a01b0390811660009081526014602090815260408083209490945560a08a01518252600e9052829020546013546060808a01519089015194516323b872dd60e01b81529284169485946323b872dd94620024ec9490911692919060040162004203565b602060405180830381600087803b1580156200250757600080fd5b505af11580156200251c573d6000803e3d6000fd5b505050506040513d601f19601f8201168201806040525081019062002542919062003e89565b15620025b3576060808701519086015160405163363798f960e11b81526001600160a01b03841692636c6f31f2926200257e9260040162004227565b600060405180830381600087803b1580156200259957600080fd5b505af1158015620025ae573d6000803e3d6000fd5b505050505b600f546080880151606080890151908801516001600160a01b03909316926323b872dd929190620025e5908962001c45565b6040518463ffffffff1660e01b8152600401620026059392919062004203565b602060405180830381600087803b1580156200262057600080fd5b505af115801562002635573d6000803e3d6000fd5b505050506040513d601f19601f820116820180604052508101906200265b919062003e89565b15620027ea57600f54606080880151908701516001600160a01b0390921691636c6f31f291906200268d908862001c45565b6040518363ffffffff1660e01b8152600401620026ac92919062004227565b600060405180830381600087803b158015620026c757600080fd5b505af1158015620026dc573d6000803e3d6000fd5b505050506060868101516080890151918701516040516323b872dd60e01b81526001600160a01b038516936323b872dd936200271d93909260040162004203565b602060405180830381600087803b1580156200273857600080fd5b505af11580156200274d573d6000803e3d6000fd5b505050506040513d601f19601f8201168201806040525081019062002773919062003e89565b15620027e4576080870151606086015160405163363798f960e11b81526001600160a01b03841692636c6f31f292620027af9260040162004227565b600060405180830381600087803b158015620027ca57600080fd5b505af1158015620027df573d6000803e3d6000fd5b505050505b62002804565b60405162461bcd60e51b8152600401620005ed906200477a565b505050505b5050505b876200281f57505050505050620007c1565b6200282c88600162002f3a565b975050505050505062001f4c565b50565b336200284862003a0d565b5060008381526011602090815260409182902082516101c0810184528154610180820190815260018301546101a0830152815260028201549281019290925260038101549282019290925260048201546001600160a01b0390811660608301526005830154166080820152600682015460a0820152600782015460c0820152600882015460e08201526009820154610100820152600a820154610120820152600b820154610140820152600c90910154610160820152826200291e5760405162461bcd60e51b8152600401620005ed906200443b565b8060c00151831115620029455760405162461bcd60e51b8152600401620005ed9062004394565b816001600160a01b031681606001516001600160a01b031614156200297e5760405162461bcd60e51b8152600401620005ed90620044e2565b60006200299a8261010001518562001c4590919063ffffffff16565b600f54604051636eb1769f60e11b81529192506000916001600160a01b039091169063dd62ed3e90620029d49087903090600401620041e9565b60206040518083038186803b158015620029ed57600080fd5b505afa15801562002a02573d6000803e3d6000fd5b505050506040513d601f19601f8201168201806040525081019062002a28919062003f2b565b9050818110620012f55760a08301516000908152600e60205260409081902054601354606086015192516323b872dd60e01b81526001600160a01b039283169384936323b872dd9362002a8493911691908b9060040162004203565b602060405180830381600087803b15801562002a9f57600080fd5b505af115801562002ab4573d6000803e3d6000fd5b505050506040513d601f19601f8201168201806040525081019062002ada919062003e89565b1562002b4e57606084015160405163363798f960e11b81526001600160a01b03831691636c6f31f29162002b1491908a9060040162004227565b600060405180830381600087803b15801562002b2f57600080fd5b505af115801562002b44573d6000803e3d6000fd5b5050505062002b68565b60405162461bcd60e51b8152600401620005ed9062004797565b600f5460608501516040516323b872dd60e01b81526001600160a01b03909216916323b872dd9162002ba291899190889060040162004203565b602060405180830381600087803b15801562002bbd57600080fd5b505af115801562002bd2573d6000803e3d6000fd5b505050506040513d601f19601f8201168201806040525081019062002bf8919062003e89565b1562002d6557600f54606085015160405163363798f960e11b81526001600160a01b0390921691636c6f31f29162002c3591879060040162004227565b600060405180830381600087803b15801562002c5057600080fd5b505af115801562002c65573d6000803e3d6000fd5b50505060608501516040516323b872dd60e01b81526001600160a01b03841692506323b872dd9162002c9e9189908b9060040162004203565b602060405180830381600087803b15801562002cb957600080fd5b505af115801562002cce573d6000803e3d6000fd5b505050506040513d601f19601f8201168201806040525081019062002cf4919062003e89565b1562002d5f5760405163363798f960e11b81526001600160a01b03821690636c6f31f29062002d2a9088908a9060040162004227565b600060405180830381600087803b15801562002d4557600080fd5b505af115801562002d5a573d6000803e3d6000fd5b505050505b62002d7f565b60405162461bcd60e51b8152600401620005ed90620045d9565b60c084018051879003905262002d95846200331e565b50825151600090815260116020908152604091829020855180518255820151600182015590850151600282015590840151600382015560608401516004820180546001600160a01b039283166001600160a01b031991821617909155608086015160058401805491909316911617905560a0840151600682015560c0840151600782015560e084015160088201556101008401516009820155610120840151600a820155610140840151600b820155610160840151600c90910155620007c1565b600062002e6c846001600160a01b031662003837565b62002e7a5750600162002f32565b606062002f0063150b7a0260e01b3388878760405160240162002ea19493929190620041aa565b604051602081830303815290604052906001600160e01b0319166020820180516001600160e01b03838183161783525050505060405180606001604052806032815260200162005b39603291396001600160a01b03881691906200383d565b905060008180602001905181019062002f1a919062003f0c565b6001600160e01b031916630a85bd0160e11b14925050505b949350505050565b60008282111562002f5f5760405162461bcd60e51b8152600401620005ed90620044ff565b50900390565b62002f6f62003b32565b506040805160a08101825260008082526020820181905291810182905260608101829052608081019190915260c080840151908301516101408501511580159062002fbe575042856101400151105b1562002fcc57600160208401525b600084610140015111801562002fe6575042846101400151105b1562002ff457600160408401525b836101000151856101000151101580156200301f575060208301511580156200301f57506040830151155b1562003097578082141562003041576200303b8386866200384e565b62003091565b80821180156200305657506001856040015114155b1562003069576200303b83868662003886565b80821080156200307e57506001846040015114155b15620030915762003091838686620038c3565b6200312a565b600484604001511480620030af575060048560400151145b8015620030be57506040830151155b156200312a5780821415620030da57620030918386866200384e565b8082118015620030ef57506001856040015114155b1562003102576200309183868662003886565b80821080156200311757506001846040015114155b156200312a576200312a838686620038c3565b8360116000866000015160000151815260200190815260200160002060008201518160000160008201518160000155602082015181600101555050602082015181600201556040820151816003015560608201518160040160006101000a8154816001600160a01b0302191690836001600160a01b0316021790555060808201518160050160006101000a8154816001600160a01b0302191690836001600160a01b0316021790555060a0820151816006015560c0820151816007015560e08201518160080155610100820151816009015561012082015181600a015561014082015181600b015561016082015181600c01559050508460116000876000015160000151815260200190815260200160002060008201518160000160008201518160000155602082015181600101555050602082015181600201556040820151816003015560608201518160040160006101000a8154816001600160a01b0302191690836001600160a01b0316021790555060808201518160050160006101000a8154816001600160a01b0302191690836001600160a01b0316021790555060a0820151816006015560c0820151816007015560e08201518160080155610100820151816009015561012082015181600a015561014082015181600b015561016082015181600c0155905050505092915050565b6200332862003b1b565b50805160408051808201909152600e81526d50454e44494e475f4f524445525360901b60209182015260008051602062005b6b8339815191526000526012905260008051602062005b8b833981519152546200338557506200283a565b60408051808201909152600e81526d50454e44494e475f4f524445525360901b60209182015260008051602062005b6b8339815191526000526012905260008051602062005b8b8339815191525460011415620034585760408051808201909152600e81526d50454e44494e475f4f524445525360901b60209182015260008051602062005b6b8339815191526000526012905260008051602062005b8b8339815191528054806200343357fe5b600082815260208120600260001990930192830201818155600101559055506200283a565b60408051808201909152600e81526d50454e44494e475f4f524445525360901b60209182015260008051602062005b6b8339815191526000908152601290915260008051602062005b8b83398151915254620034b690600162002f3a565b604080518082018252600e81526d50454e44494e475f4f524445525360901b60209182015260008051602062005b6b83398151915260009081526012909152905163191ee78360e01b81529192509073__$8d10f2abd9a16686d4761bf9f20b9577f1$__9063191ee78390620035469060008051602062005b8b833981519152908590879089906004016200428f565b60206040518083038186803b1580156200355f57600080fd5b505af415801562003574573d6000803e3d6000fd5b505050506040513d601f19601f820116820180604052508101906200359a919062003f2b565b9050600081126200371657805b828110156200369f5760408051808201909152600e81526d50454e44494e475f4f524445525360901b60209182015260008051602062005b6b8339815191526000526012905260008051602062005b8b8339815191528054600183019081106200360d57fe5b6000918252602080832060408051808201909152600e81526d50454e44494e475f4f524445525360901b9083015260008051602062005b6b8339815191529093526012905260008051602062005b8b833981519152805460029092029092019190839081106200367957fe5b6000918252602090912082546002909202019081556001918201549082015501620035a7565b5060408051808201909152600e81526d50454e44494e475f4f524445525360901b60209182015260008051602062005b6b8339815191526000526012905260008051602062005b8b833981519152805480620036f757fe5b6000828152602081206002600019909301928302018181556001015590555b604080518082018252600e81526d4d4154434845445f4f524445525360901b6020918201527fadaaca5c8c3f56bf72f89abb1ed95701d44c650c5e04cf89df361454308f6f7560009081526012825286517f92d0a53f538622bca91c42e630f2f4e0fec4e1b11a94d6186ab25384d5937ec78054600180820183559190935281517fe2d9790a678e3b0673838eafa73d02e4a0231dbd47e14efb927ab4dd28257ad76002909402938401559201517fe2d9790a678e3b0673838eafa73d02e4a0231dbd47e14efb927ab4dd28257ad890910155610120860181905285515160c087015192517fa92256317007b464ac01a5c18945adaf2e60f51e49405f69820066f35c1ff63d9362003829939162004310565b60405180910390a150505050565b3b151590565b606062002f32848460008562003900565b60c080830180516060860152908201805160808601526001855260009081905290526200387b826200331e565b620006a0816200331e565b60c080820180516060860152805160808601525190830151620038a99162002f3a565b60c080840191909152600090820152620006a0816200331e565b60c080830180516060860152805160808601525190820151620038e69162002f3a565b60c080830191909152600090830152620006a0826200331e565b606082471015620039255760405162461bcd60e51b8152600401620005ed9062004536565b620039308562003837565b6200394f5760405162461bcd60e51b8152600401620005ed90620046f9565b60006060866001600160a01b031685876040516200396e919062004178565b60006040518083038185875af1925050503d8060008114620039ad576040519150601f19603f3d011682016040523d82523d6000602084013e620039b2565b606091505b5091509150620039c4828286620039cf565b979650505050505050565b60608315620039e0575081620010aa565b825115620039f15782518084602001fd5b8160405162461bcd60e51b8152600401620005ed91906200437f565b60405180610180016040528062003a2362003b1b565b8152602001600081526020016000815260200160006001600160a01b0316815260200160006001600160a01b03168152602001600081526020016000815260200160008152602001600081526020016000815260200160008152602001600081525090565b828054600181600116156101000203166002900490600052602060002090601f016020900481019282601f1062003acb5782800160ff1982351617855562003afb565b8280016001018555821562003afb579182015b8281111562003afb57823582559160200191906001019062003ade565b5062003b0992915062003b60565b5090565b61115080620049e983390190565b604080518082019091526000808252602082015290565b6040805160a08101825260008082526020820181905291810182905260608101829052608081019190915290565b5b8082111562003b09576000815560010162003b61565b80516200047781620049ac565b60008083601f84011262003b96578182fd5b50813567ffffffffffffffff81111562003bae578182fd5b60208301915083602082850101111562003bc757600080fd5b9250929050565b600082601f83011262003bdf578081fd5b815162003bf662003bf0826200495a565b62004935565b915080825283602082850101111562003c0e57600080fd5b62003c218160208401602086016200497d565b5092915050565b60006020828403121562003c3a578081fd5b8135620010aa81620049ac565b6000806040838503121562003c5a578081fd5b823562003c6781620049ac565b9150602083013562003c7981620049ac565b809150509250929050565b60008060006060848603121562003c99578081fd5b833562003ca681620049ac565b9250602084013562003cb881620049ac565b929592945050506040919091013590565b6000806000806080858703121562003cdf578081fd5b843562003cec81620049ac565b9350602085013562003cfe81620049ac565b925060408501359150606085013567ffffffffffffffff81111562003d21578182fd5b8501601f8101871362003d32578182fd5b803562003d4362003bf0826200495a565b81815288602083850101111562003d58578384fd5b81602084016020830137908101602001929092525092959194509250565b6000806040838503121562003d89578182fd5b823562003d9681620049ac565b9150602083013562003c7981620049c2565b6000806040838503121562003dbb578182fd5b823562003dc881620049ac565b946020939093013593505050565b6000602080838503121562003de9578182fd5b825167ffffffffffffffff8082111562003e01578384fd5b818501915085601f83011262003e15578384fd5b81518181111562003e2257fe5b838102915062003e3484830162004935565b8181528481019084860184860187018a101562003e4f578788fd5b8795505b8386101562003e7c5762003e678162003b77565b83526001959095019491860191860162003e53565b5098975050505050505050565b60006020828403121562003e9b578081fd5b8151620010aa81620049c2565b60006020828403121562003eba578081fd5b5035919050565b60008060006060848603121562003ed6578283fd5b505081359360208301359350604090920135919050565b60006020828403121562003eff578081fd5b8135620010aa81620049d1565b60006020828403121562003f1e578081fd5b8151620010aa81620049d1565b60006020828403121562003f3d578081fd5b5051919050565b6000806040838503121562003f57578182fd5b82359150602083013562003c7981620049ac565b600080600080600080600080610100898b03121562003f88578586fd5b88519750602089015162003f9c81620049ac565b60408a015190975062003faf81620049ac565b60608a015190965067ffffffffffffffff8082111562003fcd578586fd5b62003fdb8c838d0162003bce565b965060808b015191508082111562003ff1578586fd5b50620040008b828c0162003bce565b94505060a0890151925060c0890151915060e08901516200402181620049ac565b809150509295985092959890939650565b60008060008060008060008060c0898b0312156200404e578182fd5b88359750602089013567ffffffffffffffff808211156200406d578384fd5b6200407b8c838d0162003b84565b909950975060408b0135965060608b0135955060808b01359150620040a082620049ac565b90935060a08a01359080821115620040b6578384fd5b50620040c58b828c0162003b84565b999c989b5096995094979396929594505050565b600080600080600080600080610100898b031215620040f6578182fd5b505086359860208801359850604088013597606081013597506080810135965060a0810135955060c0810135945060e0013592509050565b6001600160a01b03169052565b60008151808452620041558160208601602086016200497d565b601f01601f19169290920160200192915050565b80518252602090810151910152565b600082516200418c8184602087016200497d565b9190910192915050565b6001600160a01b0391909116815260200190565b6001600160a01b0385811682528416602082015260408101839052608060608201819052600090620041df908301846200413b565b9695505050505050565b6001600160a01b0392831681529116602082015260400190565b6001600160a01b039384168152919092166020820152604081019190915260600190565b6001600160a01b03929092168252602082015260400190565b6020808252825182820181905260009190848201906040850190845b81811015620042835783516001600160a01b0316835292840192918401916001016200425c565b50909695505050505050565b600060a0820160a0835280875480835260c08501915088845260209250828420845b82811015620042db57815484526001808301548686015260409094019360029092019101620042b1565b505050908301869052604083018590529050620042fc606083018462004169565b95945050505050565b901515815260200190565b9283526020830191909152604082015260600190565b600060a082528660a0830152868860c084013760c087830181019190915260208201959095526001600160a01b0393909316604084015260ff9190911660608301526080820152601f909201601f191690910101919050565b600060208252620010aa60208301846200413b565b602080825260029082015261544d60f01b604082015260600190565b6020808252600390820152620424f360ec1b604082015260600190565b602080825260029082015261534b60f01b604082015260600190565b60208082526032908201527f4552433732313a207472616e7366657220746f206e6f6e20455243373231526560408201527131b2b4bb32b91034b6b83632b6b2b73a32b960711b606082015260800190565b602080825260029082015261232760f11b604082015260600190565b6020808252601b908201527f536166654d6174683a206164646974696f6e206f766572666c6f770000000000604082015260600190565b60208082526019908201527f4552433732313a20617070726f766520746f2063616c6c657200000000000000604082015260600190565b6020808252600390820152620534f360ec1b604082015260600190565b60208082526003908201526253415360e81b604082015260600190565b6020808252601e908201527f536166654d6174683a207375627472616374696f6e206f766572666c6f770000604082015260600190565b60208082526026908201527f416464726573733a20696e73756666696369656e742062616c616e636520666f6040820152651c8818d85b1b60d21b606082015260800190565b60208082526038908201527f4552433732313a20617070726f76652063616c6c6572206973206e6f74206f7760408201527f6e6572206e6f7220617070726f76656420666f7220616c6c0000000000000000606082015260800190565b6020808252600190820152602760f91b604082015260600190565b6020808252600190820152601360fa1b604082015260600190565b60208082526021908201527f536166654d6174683a206d756c7469706c69636174696f6e206f766572666c6f6040820152607760f81b606082015260800190565b6020808252602c908201527f4552433732313a20617070726f76656420717565727920666f72206e6f6e657860408201526b34b9ba32b73a103a37b5b2b760a11b606082015260800190565b60208082526021908201527f4552433732313a20617070726f76616c20746f2063757272656e74206f776e656040820152603960f91b606082015260800190565b6020808252600290820152614e4160f01b604082015260600190565b6020808252601d908201527f416464726573733a2063616c6c20746f206e6f6e2d636f6e7472616374000000604082015260600190565b602080825260149082015273151bdad95b88105b1c9958591e48135a5b9d195960621b604082015260600190565b60208082526002908201526127a360f11b604082015260600190565b6020808252600390820152624e454d60e81b604082015260600190565b6020808252600290820152614e4560f01b604082015260600190565b602080825260049082015263534d424960e01b604082015260600190565b60006101a082019050620047e782845162004169565b602083015160408301526040830151606083015260608301516200480f60808401826200412e565b5060808301516200482460a08401826200412e565b5060a083015160c08381019190915283015160e08084019190915283015161010080840191909152830151610120808401919091528301516101408084019190915283015161016080840191909152909201516101809091015290565b90815260200190565b9182526001600160a01b0316602082015260400190565b9384526001600160a01b03928316602085015291166040830152606082015260800190565b8881526001600160a01b038881166020830152878116604083015261010060608301819052600091620048fc8483018a6200413b565b915083820360808501526200491282896200413b565b60a085019790975260c08401959095525050911660e09091015295945050505050565b60405181810167ffffffffffffffff811182821017156200495257fe5b604052919050565b600067ffffffffffffffff8211156200496f57fe5b50601f01601f191660200190565b60005b838110156200499a57818101518382015260200162004980565b8381111562000ea75750506000910152565b6001600160a01b03811681146200283a57600080fd5b80151581146200283a57600080fd5b6001600160e01b0319811681146200283a57600080fdfe60806040523480156200001157600080fd5b506040516200115038038062001150833981016040819052620000349162000222565b600280546001600160a01b03191633179055600084905584516200006090600790602088019062000157565b50600180546001600160a01b0319166001600160a01b0385161790556008805460ff191660ff8416179055600554620000a690826200011f602090811b6200098e17901c565b6005556001600160a01b038316600090815260036020908152604090912054620000db9183906200098e6200011f821b17901c565b6001600160a01b0393841660009081526003602090815260408083209390935560048152828220600254909616825294909452909220919091555062000352915050565b600082820183811015620001505760405162461bcd60e51b815260040162000147906200031b565b60405180910390fd5b9392505050565b828054600181600116156101000203166002900490600052602060002090601f016020900481019282601f106200019a57805160ff1916838001178555620001ca565b82800160010185558215620001ca579182015b82811115620001ca578251825591602001919060010190620001ad565b50620001d8929150620001dc565b5090565b5b80821115620001d85760008155600101620001dd565b80516001600160a01b03811681146200020b57600080fd5b919050565b805160ff811681146200020b57600080fd5b600080600080600060a086880312156200023a578081fd5b85516001600160401b038082111562000251578283fd5b818801915088601f83011262000265578283fd5b8151818111156200027257fe5b6040516020601f8301601f19168201810184811183821017156200029257fe5b60405282825284830181018c1015620002a9578586fd5b8593505b82841015620002cc5784840181015182850182015292830192620002ad565b82841115620002dd57858184840101525b8a01519098509650620002f8925050604088019050620001f3565b9250620003086060870162000210565b9150608086015190509295509295909350565b6020808252601b908201527f536166654d6174683a206164646974696f6e206f766572666c6f770000000000604082015260600190565b610dee80620003626000396000f3fe608060405234801561001057600080fd5b50600436106100ea5760003560e01c806370a082311161008c578063a71b642611610066578063a71b6426146101c2578063a9059cbb146101ca578063dd62ed3e146101dd578063f9b7958a146101f0576100ea565b806370a082311461019457806379c65068146101a757806395d89b41146101ba576100ea565b80631d143848116100c85780631d1438481461014257806323b872dd14610157578063313ce5671461016a5780636c6f31f21461017f576100ea565b806306fdde03146100ef578063095ea7b31461010d57806318160ddd1461012d575b600080fd5b6100f7610217565b6040516101049190610b39565b60405180910390f35b61012061011b366004610a84565b6102ad565b6040516101049190610b2e565b61013561039e565b6040516101049190610ce8565b61014a6103a4565b6040516101049190610b1a565b610120610165366004610a49565b6103b3565b6101726105da565b6040516101049190610d5c565b61019261018d366004610a84565b6105e3565b005b6101356101a23660046109fd565b6106c0565b6101926101b5366004610a84565b6106df565b6100f76107a3565b610135610804565b6101206101d8366004610a84565b61080a565b6101356101eb366004610a17565b61090e565b6102036101fe366004610aad565b610939565b604051610104989796959493929190610cf1565b60068054604080516020601f60026000196101006001881615020190951694909404938401819004810282018101909252828152606093909290918301828280156102a35780601f10610278576101008083540402835291602001916102a3565b820191906000526020600020905b81548152906001019060200180831161028657829003601f168201915b5050505050905090565b600033806102d65760405162461bcd60e51b81526004016102cd90610c4d565b60405180910390fd5b6001600160a01b0384166102fc5760405162461bcd60e51b81526004016102cd90610b8f565b6001600160a01b0380821660009081526004602090815260408083209388168352929052205461032c908461098e565b6001600160a01b038083166000818152600460209081526040808320948a1680845294909152908190209390935591519091907f8c5be1e5ebec7d5bd14f71427d1e84f3dd0314c0f7b2291e5b200ac8c7c3b9259061038c908790610ce8565b60405180910390a35060019392505050565b60055490565b6001546001600160a01b031690565b60006001600160a01b0384166103db5760405162461bcd60e51b81526004016102cd90610c08565b6001600160a01b0383166104015760405162461bcd60e51b81526004016102cd90610b4c565b61043e82604051806060016040528060268152602001610d6b602691396001600160a01b03871660009081526003602052604090205491906109ba565b6001600160a01b03808616600090815260036020526040808220939093559085168152205461046d908361098e565b6001600160a01b0380851660008181526003602052604090819020939093559151908616907fddf252ad1be2c89b69c2b068fc378daa952ba7f163c4a11628f55a4df523b3ef906104bf908690610ce8565b60405180910390a360025484906001600160a01b039081169082166104f65760405162461bcd60e51b81526004016102cd90610c4d565b6001600160a01b03811661051c5760405162461bcd60e51b81526004016102cd90610b8f565b61056684604051806060016040528060288152602001610d91602891396001600160a01b03808a1660009081526004602090815260408083209388168352929052205491906109ba565b6001600160a01b03808416600081815260046020908152604080832094871680845294909152908190209390935591519091907f8c5be1e5ebec7d5bd14f71427d1e84f3dd0314c0f7b2291e5b200ac8c7c3b925906105c6908890610ce8565b60405180910390a350600195945050505050565b60085460ff1690565b6002546001600160a01b0316331461060d5760405162461bcd60e51b81526004016102cd90610c91565b6002546001600160a01b0390811690831661063a5760405162461bcd60e51b81526004016102cd90610c4d565b6001600160a01b0381166106605760405162461bcd60e51b81526004016102cd90610b8f565b6001600160a01b03808416600090815260046020908152604080832093851683529290522054610690908361098e565b6001600160a01b039384166000908152600460209081526040808320949096168252929092529290209190915550565b6001600160a01b0381166000908152600360205260409020545b919050565b6002546001600160a01b031633146107095760405162461bcd60e51b81526004016102cd90610c91565b6001600160a01b03821661072f5760405162461bcd60e51b81526004016102cd90610cb1565b60055461073c908261098e565b6005556001600160a01b038216600090815260036020526040902054610762908261098e565b6001600160a01b038084166000908152600360209081526040808320949094556002546004825284832093168083529290529190912054610690908361098e565b60078054604080516020601f60026000196101006001881615020190951694909404938401819004810282018101909252828152606093909290918301828280156102a35780601f10610278576101008083540402835291602001916102a3565b60005490565b6000338061082a5760405162461bcd60e51b81526004016102cd90610c08565b6001600160a01b0384166108505760405162461bcd60e51b81526004016102cd90610b4c565b61088d83604051806060016040528060268152602001610d6b602691396001600160a01b03841660009081526003602052604090205491906109ba565b6001600160a01b0380831660009081526003602052604080822093909355908616815220546108bc908461098e565b6001600160a01b0380861660008181526003602052604090819020939093559151908316907fddf252ad1be2c89b69c2b068fc378daa952ba7f163c4a11628f55a4df523b3ef9061038c908790610ce8565b6001600160a01b03918216600090815260046020908152604080832093909416825291909152205490565b60008060006060806000806000898930610951610217565b6109596107a3565b61096161039e565b610969610804565b6109716103a4565b975097509750975097509750975097509295985092959890939650565b6000828201838110156109b35760405162461bcd60e51b81526004016102cd90610bd1565b9392505050565b600081848411156109de5760405162461bcd60e51b81526004016102cd9190610b39565b505050900390565b80356001600160a01b03811681146106da57600080fd5b600060208284031215610a0e578081fd5b6109b3826109e6565b60008060408385031215610a29578081fd5b610a32836109e6565b9150610a40602084016109e6565b90509250929050565b600080600060608486031215610a5d578081fd5b610a66846109e6565b9250610a74602085016109e6565b9150604084013590509250925092565b60008060408385031215610a96578182fd5b610a9f836109e6565b946020939093013593505050565b60008060408385031215610abf578182fd5b82359150610a40602084016109e6565b60008151808452815b81811015610af457602081850181015186830182015201610ad8565b81811115610b055782602083870101525b50601f01601f19169290920160200192915050565b6001600160a01b0391909116815260200190565b901515815260200190565b6000602082526109b36020830184610acf565b60208082526023908201527f45524332303a207472616e7366657220746f20746865207a65726f206164647260408201526265737360e81b606082015260800190565b60208082526022908201527f45524332303a20617070726f766520746f20746865207a65726f206164647265604082015261737360f01b606082015260800190565b6020808252601b908201527f536166654d6174683a206164646974696f6e206f766572666c6f770000000000604082015260600190565b60208082526025908201527f45524332303a207472616e736665722066726f6d20746865207a65726f206164604082015264647265737360d81b606082015260800190565b60208082526024908201527f45524332303a20617070726f76652066726f6d20746865207a65726f206164646040820152637265737360e01b606082015260800190565b60208082526006908201526526a120a6ab1960d11b604082015260600190565b6020808252601f908201527f45524332303a206d696e7420746f20746865207a65726f206164647265737300604082015260600190565b90815260200190565b8881526001600160a01b038881166020830152878116604083015261010060608301819052600091610d258483018a610acf565b91508382036080850152610d398289610acf565b60a085019790975260c08401959095525050911660e09091015295945050505050565b60ff9190911681526020019056fe45524332303a207472616e7366657220616d6f756e7420657863656564732062616c616e636545524332303a207472616e7366657220616d6f756e74206578636565647320616c6c6f77616e6365a26469706673582212201346f7ef011a6a01ea254859ddef3f3c7a250978d9adafbc2d99700092c80e6864736f6c634300070300334552433732313a207472616e7366657220746f206e6f6e20455243373231526563656976657220696d706c656d656e746572e4ebe61b5154be65502ffd10f19bbd557c590ef2ce56d0959d42d567662e4e7f6727b66909e21e3d4259bec112189fa790cf6b1c961b369e562302ae5ea6128ca264697066735822122085d068d14207a705a9fb735cd32e089c6cccc200d98021b20279fd2d95c203cc64736f6c6343000703003360806040523480156200001157600080fd5b506040516200115038038062001150833981016040819052620000349162000222565b600280546001600160a01b03191633179055600084905584516200006090600790602088019062000157565b50600180546001600160a01b0319166001600160a01b0385161790556008805460ff191660ff8416179055600554620000a690826200011f602090811b6200098e17901c565b6005556001600160a01b038316600090815260036020908152604090912054620000db9183906200098e6200011f821b17901c565b6001600160a01b0393841660009081526003602090815260408083209390935560048152828220600254909616825294909452909220919091555062000352915050565b600082820183811015620001505760405162461bcd60e51b815260040162000147906200031b565b60405180910390fd5b9392505050565b828054600181600116156101000203166002900490600052602060002090601f016020900481019282601f106200019a57805160ff1916838001178555620001ca565b82800160010185558215620001ca579182015b82811115620001ca578251825591602001919060010190620001ad565b50620001d8929150620001dc565b5090565b5b80821115620001d85760008155600101620001dd565b80516001600160a01b03811681146200020b57600080fd5b919050565b805160ff811681146200020b57600080fd5b600080600080600060a086880312156200023a578081fd5b85516001600160401b038082111562000251578283fd5b818801915088601f83011262000265578283fd5b8151818111156200027257fe5b6040516020601f8301601f19168201810184811183821017156200029257fe5b60405282825284830181018c1015620002a9578586fd5b8593505b82841015620002cc5784840181015182850182015292830192620002ad565b82841115620002dd57858184840101525b8a01519098509650620002f8925050604088019050620001f3565b9250620003086060870162000210565b9150608086015190509295509295909350565b6020808252601b908201527f536166654d6174683a206164646974696f6e206f766572666c6f770000000000604082015260600190565b610dee80620003626000396000f3fe608060405234801561001057600080fd5b50600436106100ea5760003560e01c806370a082311161008c578063a71b642611610066578063a71b6426146101c2578063a9059cbb146101ca578063dd62ed3e146101dd578063f9b7958a146101f0576100ea565b806370a082311461019457806379c65068146101a757806395d89b41146101ba576100ea565b80631d143848116100c85780631d1438481461014257806323b872dd14610157578063313ce5671461016a5780636c6f31f21461017f576100ea565b806306fdde03146100ef578063095ea7b31461010d57806318160ddd1461012d575b600080fd5b6100f7610217565b6040516101049190610b39565b60405180910390f35b61012061011b366004610a84565b6102ad565b6040516101049190610b2e565b61013561039e565b6040516101049190610ce8565b61014a6103a4565b6040516101049190610b1a565b610120610165366004610a49565b6103b3565b6101726105da565b6040516101049190610d5c565b61019261018d366004610a84565b6105e3565b005b6101356101a23660046109fd565b6106c0565b6101926101b5366004610a84565b6106df565b6100f76107a3565b610135610804565b6101206101d8366004610a84565b61080a565b6101356101eb366004610a17565b61090e565b6102036101fe366004610aad565b610939565b604051610104989796959493929190610cf1565b60068054604080516020601f60026000196101006001881615020190951694909404938401819004810282018101909252828152606093909290918301828280156102a35780601f10610278576101008083540402835291602001916102a3565b820191906000526020600020905b81548152906001019060200180831161028657829003601f168201915b5050505050905090565b600033806102d65760405162461bcd60e51b81526004016102cd90610c4d565b60405180910390fd5b6001600160a01b0384166102fc5760405162461bcd60e51b81526004016102cd90610b8f565b6001600160a01b0380821660009081526004602090815260408083209388168352929052205461032c908461098e565b6001600160a01b038083166000818152600460209081526040808320948a1680845294909152908190209390935591519091907f8c5be1e5ebec7d5bd14f71427d1e84f3dd0314c0f7b2291e5b200ac8c7c3b9259061038c908790610ce8565b60405180910390a35060019392505050565b60055490565b6001546001600160a01b031690565b60006001600160a01b0384166103db5760405162461bcd60e51b81526004016102cd90610c08565b6001600160a01b0383166104015760405162461bcd60e51b81526004016102cd90610b4c565b61043e82604051806060016040528060268152602001610d6b602691396001600160a01b03871660009081526003602052604090205491906109ba565b6001600160a01b03808616600090815260036020526040808220939093559085168152205461046d908361098e565b6001600160a01b0380851660008181526003602052604090819020939093559151908616907fddf252ad1be2c89b69c2b068fc378daa952ba7f163c4a11628f55a4df523b3ef906104bf908690610ce8565b60405180910390a360025484906001600160a01b039081169082166104f65760405162461bcd60e51b81526004016102cd90610c4d565b6001600160a01b03811661051c5760405162461bcd60e51b81526004016102cd90610b8f565b61056684604051806060016040528060288152602001610d91602891396001600160a01b03808a1660009081526004602090815260408083209388168352929052205491906109ba565b6001600160a01b03808416600081815260046020908152604080832094871680845294909152908190209390935591519091907f8c5be1e5ebec7d5bd14f71427d1e84f3dd0314c0f7b2291e5b200ac8c7c3b925906105c6908890610ce8565b60405180910390a350600195945050505050565b60085460ff1690565b6002546001600160a01b0316331461060d5760405162461bcd60e51b81526004016102cd90610c91565b6002546001600160a01b0390811690831661063a5760405162461bcd60e51b81526004016102cd90610c4d565b6001600160a01b0381166106605760405162461bcd60e51b81526004016102cd90610b8f565b6001600160a01b03808416600090815260046020908152604080832093851683529290522054610690908361098e565b6001600160a01b039384166000908152600460209081526040808320949096168252929092529290209190915550565b6001600160a01b0381166000908152600360205260409020545b919050565b6002546001600160a01b031633146107095760405162461bcd60e51b81526004016102cd90610c91565b6001600160a01b03821661072f5760405162461bcd60e51b81526004016102cd90610cb1565b60055461073c908261098e565b6005556001600160a01b038216600090815260036020526040902054610762908261098e565b6001600160a01b038084166000908152600360209081526040808320949094556002546004825284832093168083529290529190912054610690908361098e565b60078054604080516020601f60026000196101006001881615020190951694909404938401819004810282018101909252828152606093909290918301828280156102a35780601f10610278576101008083540402835291602001916102a3565b60005490565b6000338061082a5760405162461bcd60e51b81526004016102cd90610c08565b6001600160a01b0384166108505760405162461bcd60e51b81526004016102cd90610b4c565b61088d83604051806060016040528060268152602001610d6b602691396001600160a01b03841660009081526003602052604090205491906109ba565b6001600160a01b0380831660009081526003602052604080822093909355908616815220546108bc908461098e565b6001600160a01b0380861660008181526003602052604090819020939093559151908316907fddf252ad1be2c89b69c2b068fc378daa952ba7f163c4a11628f55a4df523b3ef9061038c908790610ce8565b6001600160a01b03918216600090815260046020908152604080832093909416825291909152205490565b60008060006060806000806000898930610951610217565b6109596107a3565b61096161039e565b610969610804565b6109716103a4565b975097509750975097509750975097509295985092959890939650565b6000828201838110156109b35760405162461bcd60e51b81526004016102cd90610bd1565b9392505050565b600081848411156109de5760405162461bcd60e51b81526004016102cd9190610b39565b505050900390565b80356001600160a01b03811681146106da57600080fd5b600060208284031215610a0e578081fd5b6109b3826109e6565b60008060408385031215610a29578081fd5b610a32836109e6565b9150610a40602084016109e6565b90509250929050565b600080600060608486031215610a5d578081fd5b610a66846109e6565b9250610a74602085016109e6565b9150604084013590509250925092565b60008060408385031215610a96578182fd5b610a9f836109e6565b946020939093013593505050565b60008060408385031215610abf578182fd5b82359150610a40602084016109e6565b60008151808452815b81811015610af457602081850181015186830182015201610ad8565b81811115610b055782602083870101525b50601f01601f19169290920160200192915050565b6001600160a01b0391909116815260200190565b901515815260200190565b6000602082526109b36020830184610acf565b60208082526023908201527f45524332303a207472616e7366657220746f20746865207a65726f206164647260408201526265737360e81b606082015260800190565b60208082526022908201527f45524332303a20617070726f766520746f20746865207a65726f206164647265604082015261737360f01b606082015260800190565b6020808252601b908201527f536166654d6174683a206164646974696f6e206f766572666c6f770000000000604082015260600190565b60208082526025908201527f45524332303a207472616e736665722066726f6d20746865207a65726f206164604082015264647265737360d81b606082015260800190565b60208082526024908201527f45524332303a20617070726f76652066726f6d20746865207a65726f206164646040820152637265737360e01b606082015260800190565b60208082526006908201526526a120a6ab1960d11b604082015260600190565b6020808252601f908201527f45524332303a206d696e7420746f20746865207a65726f206164647265737300604082015260600190565b90815260200190565b8881526001600160a01b038881166020830152878116604083015261010060608301819052600091610d258483018a610acf565b91508382036080850152610d398289610acf565b60a085019790975260c08401959095525050911660e09091015295945050505050565b60ff9190911681526020019056fe45524332303a207472616e7366657220616d6f756e7420657863656564732062616c616e636545524332303a207472616e7366657220616d6f756e74206578636565647320616c6c6f77616e6365a26469706673582212201346f7ef011a6a01ea254859ddef3f3c7a250978d9adafbc2d99700092c80e6864736f6c63430007030033608060405234801561001057600080fd5b506040516103b63803806103b68339818101604052602081101561003357600080fd5b50516001600160a01b038116610076576040805162461bcd60e51b81526020600482015260036024820152622b20a760e91b604482015290519081900360640190fd5b600080546001600160a01b039092166001600160a01b0319909216919091179055610310806100a66000396000f3fe608060405234801561001057600080fd5b506004361061004c5760003560e01c80630afc7bf41461005157806320000b591461008f578063e5c66bbd146100cd578063f2aa8218146100f9575b600080fd5b61008d6004803603608081101561006757600080fd5b508035906001600160a01b03602082013581169160408101359091169060600135610166565b005b6100bb600480360360408110156100a557600080fd5b50803590602001356001600160a01b031661021e565b60408051918252519081900360200190f35b6100bb600480360360408110156100e357600080fd5b50803590602001356001600160a01b0316610246565b6101166004803603602081101561010f57600080fd5b503561026e565b60408051602080825283518183015283519192839290830191858101910280838360005b8381101561015257818101518382015260200161013a565b505050509050019250505060405180910390f35b6000546001600160a01b031633146101ab576040805162461bcd60e51b81526020600482015260036024820152622727a160e91b604482015290519081900360640190fd5b60008481526001602081815260408084206001600160a01b03968716855282528084208054860190558784526002825280842096909516808452958152848320805490940190935594815260038252918220805494850181558252902090910180546001600160a01b0319169091179055565b60009182526002602090815260408084206001600160a01b0393909316845291905290205490565b60009182526001602090815260408084206001600160a01b0393909316845291905290205490565b6000818152600360209081526040918290208054835181840281018401909452808452606093928301828280156102ce57602002820191906000526020600020905b81546001600160a01b031681526001909101906020018083116102b0575b5050505050905091905056fea2646970667358221220a42ab35ac93d27044a4e196aeda7b8ab5b848fe23d51baf5743c0c8f7a13dfff64736f6c63430007030033",
  "linkReferences": {
    "contracts/v2/library/ConstantsV2.sol": {
      "ConstantsV2": [
        {
          "length": 20,
          "start": 14422
        }
      ]
    }
  },
  "deployedLinkReferences": {
    "contracts/v2/library/ConstantsV2.sol": {
      "ConstantsV2": [
        {
          "length": 20,
          "start": 13575
        }
      ]
    }
  }
}