{
	"data": {
		"bytecode": {
			"linkReferences": {
				"localhost/contracts/v2/library/ConstantsV2.sol": {
					"ConstantsV2": [
						{
							"length": 20,
							"start": 14732
						}
					]
				}
			},
			"object": "60806040523480156200001157600080fd5b50604080518082018252601081526f4e5345204172742045786368616e676560801b60208083019190915282518084019093526004835263082a4a8b60e31b9083015290620000676301ffc9a760e01b62000149565b81516200007c906006906020850190620001a4565b50805162000092906007906020840190620001a4565b50620000a56380ac58cd60e01b62000149565b620000b7635b5e139f60e01b62000149565b620000c963780e9d6360e01b62000149565b5050600f80546001600160a01b03191633908117909155604051600160fa1b91600191620000f79062000229565b620001059392919062000285565b604051809103906000f08015801562000122573d6000803e3d6000fd5b50600b80546001600160a01b0319166001600160a01b0392909216919091179055620002e9565b6001600160e01b031980821614156200017f5760405162461bcd60e51b815260040162000176906200024e565b60405180910390fd5b6001600160e01b0319166000908152602081905260409020805460ff19166001179055565b828054600181600116156101000203166002900490600052602060002090601f016020900481019282601f10620001e757805160ff191683800117855562000217565b8280016001018555821562000217579182015b8281111562000217578251825591602001919060010190620001fa565b506200022592915062000237565b5090565b6110db8062005f7c83390190565b5b8082111562000225576000815560010162000238565b6020808252601c908201527f4552433136353a20696e76616c696420696e7465726661636520696400000000604082015260600190565b60a0808252600c908201526b2a32ba3432b9102a37b5b2b760a11b60c082015260e0602082018190526006908201526515d05313115560d21b610100820152604081019390935260608301919091526001600160a01b031660808201526101200190565b615c8380620002f96000396000f3fe60806040523480156200001157600080fd5b5060043610620001785760003560e01c80634f6ccce711620000d557806395d89b41116200008757806395d89b411462000359578063a22cb4651462000363578063b88d4fde146200037a578063c87b56dd1462000391578063cf9cd8f814620003a8578063e985e9c514620003bf5762000178565b80634f6ccce714620002cd5780635778472a14620002e45780636352211e146200030a5780636c0360eb146200032157806370a08231146200032b5780637b8bb0b714620003425762000178565b806323b872dd116200012f57806323b872dd14620002345780632f745c59146200024b5780633563922f14620002625780633ae64e0c146200027957806342842e0e146200029f5780634bbef4ba14620002b65762000178565b806301ffc9a7146200017d57806302a1c41d14620001ac57806306fdde0314620001d2578063081812fc14620001eb578063095ea7b3146200021157806318160ddd146200022a575b600080fd5b620001946200018e36600462003eb6565b620003d6565b604051620001a3919062004229565b60405180910390f35b620001c3620001bd36600462003fa2565b620003f9565b604051620001a39190620049ce565b620001dc62000499565b604051620001a3919062004288565b62000202620001fc36600462003e9d565b62000533565b604051620001a3919062004109565b620002286200022236600462003e50565b62000584565b005b620001c36200062c565b620002286200024536600462003c86565b6200063f565b620001c36200025c36600462003e50565b62000680565b620002286200027336600462003e50565b620006ab565b620002906200028a36600462003e9d565b620007d1565b604051620001a3919062004926565b62000228620002b036600462003c86565b620008f5565b62000228620002c736600462003f4f565b62000912565b620001c3620002de36600462003e9d565b62000ad8565b620002fb620002f536600462003e9d565b62000af0565b604051620001a3919062004847565b620002026200031b36600462003e9d565b62000c22565b620001dc62000c4d565b620001c36200033c36600462003c2a565b62000cb1565b620002286200035336600462003f8a565b62000cff565b620001dc620012e5565b620002286200037436600462003d78565b62001349565b620002286200038b36600462003ccb565b62001422565b620001dc620003a236600462003e9d565b6200146a565b620001c3620003b936600462003c2a565b620015c7565b62000194620003d036600462003c49565b62001650565b6001600160e01b0319811660009081526020819052604090205460ff165b919050565b6000828152600a6020526040808220549051636eb1769f60e11b81526001600160a01b0390911690819063dd62ed3e906200043b908690309060040162004180565b60206040518083038186803b1580156200045457600080fd5b505afa15801562000469573d6000803e3d6000fd5b505050506040513d601f19601f820116820180604052508101906200048f919062003f36565b9150505b92915050565b60068054604080516020601f6002600019610100600188161502019095169490940493840181900481028201810190925282815260609390929091830182828015620005295780601f10620004fd5761010080835404028352916020019162000529565b820191906000526020600020905b8154815290600101906020018083116200050b57829003601f168201915b5050505050905090565b600062000540826200167e565b620005685760405162461bcd60e51b81526004016200055f906200460b565b60405180910390fd5b506000908152600460205260409020546001600160a01b031690565b6000620005918262000c22565b9050806001600160a01b0316836001600160a01b03161415620005c85760405162461bcd60e51b81526004016200055f90620046ef565b806001600160a01b0316620005dc6200168d565b6001600160a01b03161480620005fc5750620005fc81620003d06200168d565b6200061b5760405162461bcd60e51b81526004016200055f90620044ac565b62000627838362001691565b505050565b60006200063a600262001701565b905090565b620006546200064d6200168d565b826200170e565b620006735760405162461bcd60e51b81526004016200055f906200474d565b6200062783838362001798565b6001600160a01b0382166000908152600160205260408120620006a49083620018b8565b9392505050565b600f546001600160a01b03163314620006d85760405162461bcd60e51b81526004016200055f90620047f2565b600b546040516323b872dd60e01b81526001600160a01b03909116906323b872dd906200070e903390869086906004016200411d565b602060405180830381600087803b1580156200072957600080fd5b505af11580156200073e573d6000803e3d6000fd5b505050506040513d601f19601f8201168201806040525081019062000764919062003e7e565b50600b5460405163363798f960e11b81526001600160a01b0390911690636c6f31f2906200079990859085906004016200419a565b600060405180830381600087803b158015620007b457600080fd5b505af1158015620007c9573d6000803e3d6000fd5b505050505050565b620007db62003a96565b6000620007e88362000c22565b6000848152600a602052604080822054815163565974d360e01b815291519394506001600160a01b0316926060918291849182918291889163565974d3916004808201928692909190829003018186803b1580156200084657600080fd5b505afa1580156200085b573d6000803e3d6000fd5b505050506040513d6000823e601f3d908101601f1916820160405262000885919081019062003daa565b9550955095509550955095506040518061010001604052808b8152602001896001600160a01b03168152602001876001600160a01b03168152602001868152602001858152602001848152602001838152602001826001600160a01b031681525098505050505050505050919050565b620006278383836040518060200160405280600081525062001422565b6060620009236020830183620049d7565b8080601f016020809104026020016040519081016040528093929190818152602001838380828437600092019190915250929350606092506200096d9150506040840184620049d7565b8080601f0160208091040260200160405190810160405280939291908181526020018383808284376000920191909152505084519293505050620009b057600080fd5b6000815111620009bf57600080fd5b8235620009cb57600080fd5b6000836060013511620009dd57600080fd5b6000620009f160c0850160a0860162003c2a565b6001600160a01b0316141562000a0657600080fd5b600f546001600160a01b0316331462000a1e57600080fd5b62000a2b338435620018c6565b600062000a3c6020850185620049d7565b62000a4b6040870187620049d7565b6060880135608089013562000a6760c08b0160a08c0162003c2a565b60405162000a759062003af6565b62000a87979695949392919062004234565b604051809103906000f08015801562000aa4573d6000803e3d6000fd5b5093356000908152600a6020526040902080546001600160a01b0319166001600160a01b0390951694909417909355505050565b60008062000ae8600284620018e6565b509392505050565b62000afa62003b04565b6000828152600c602090815260409182902082516101e0810190935280546101a084019081526001808301546101c08601529084526002820154919284019160ff169081111562000b4757fe5b600181111562000b5357fe5b81526020016002820160019054906101000a900460ff16600481111562000b7657fe5b600481111562000b8257fe5b815260028201546001600160a01b03620100009091048116602083015260038084015490911660408301526004830154606083015260058301546080830152600683015460a0830152600783015460c0830152600883015460e09092019160ff169081111562000bee57fe5b600381111562000bfa57fe5b815260098201546020820152600a8201546040820152600b9091015460609091015292915050565b6000620004938260405180606001604052806029815260200162005c25602991396002919062001906565b60098054604080516020601f6002600019610100600188161502019095169490940493840181900481028201810190925282815260609390929091830182828015620005295780601f10620004fd5761010080835404028352916020019162000529565b60006001600160a01b03821662000cdc5760405162461bcd60e51b81526004016200055f9062004509565b6001600160a01b0382166000908152600160205260409020620004939062001701565b600081608001351162000d1157600080fd5b600081604001351162000d2357600080fd5b600081606001351162000d3557600080fd5b6000808062000d48602085018562003f15565b600181111562000d5457fe5b141562000e82575060009050338162000d76604085013560608601356200191d565b600b54604051636eb1769f60e11b81529192506000916001600160a01b039091169063dd62ed3e9062000db0908690309060040162004180565b60206040518083038186803b15801562000dc957600080fd5b505afa15801562000dde573d6000803e3d6000fd5b505050506040513d601f19601f8201168201806040525081019062000e04919062003f36565b905081811062000e605762000e1c838360006200195d565b6001600160a01b03831660009081526010602052604090205462000e41908362001af4565b6001600160a01b03841660009081526010602052604090205562000e7a565b60405162461bcd60e51b81526004016200055f906200482b565b505062001079565b600162000e93602085018562003f15565b600181111562000e9f57fe5b14156200107957505060808101356000908152600a6020526040808220549051636eb1769f60e11b81523392916001600160a01b0316908290829063dd62ed3e9062000ef2908790309060040162004180565b60206040518083038186803b15801562000f0b57600080fd5b505afa15801562000f20573d6000803e3d6000fd5b505050506040513d601f19601f8201168201806040525081019062000f46919062003f36565b9050846040013581101562000f6f5760405162461bcd60e51b81526004016200055f906200479e565b600f54604080516323b872dd60e01b81526001600160a01b03858116936323b872dd9362000fab938a9390921691908b0135906004016200411d565b602060405180830381600087803b15801562000fc657600080fd5b505af115801562000fdb573d6000803e3d6000fd5b505050506040513d601f19601f8201168201806040525081019062001001919062003e7e565b156200107657600f546040805163363798f960e11b81526001600160a01b0380861693636c6f31f293620010419391909216918a0135906004016200419a565b600060405180830381600087803b1580156200105c57600080fd5b505af115801562001071573d6000803e3d6000fd5b505050505b50505b6200108362003b92565b506040805180820190915260c08401358152426020820152620010a562003b04565b604080516101a08101909152828152602080820190620010c89088018862003f15565b6001811115620010d457fe5b8152602001866020016020810190620010ee919062003ef4565b6004811115620010fa57fe5b8152602001856001600160a01b03168152602001846001600160a01b0316815260200186608001358152602001866040013581526020018660400135815260200186606001358152602001600060038111156200115357fe5b81526020014281526020014281526020018660a00135815250905080600c60008760c0013581526020019081526020016000206000820151816000016000820151816000015560208201518160010155505060208201518160020160006101000a81548160ff02191690836001811115620011ca57fe5b0217905550604082015160028201805461ff001916610100836004811115620011ef57fe5b0217905550606082015160028201805462010000600160b01b031916620100006001600160a01b03938416021790556080830151600380840180546001600160a01b031916929093169190911790915560a0830151600483015560c0830151600583015560e0830151600683015561010083015160078301556101208301516008830180549192909160ff19169060019084908111156200128c57fe5b0217905550610140820151816009015561016082015181600a015561018082015181600b0155905050620012d3816000015182602001518360800151846060015162001b1c565b620012de8162001d9a565b5050505050565b60078054604080516020601f6002600019610100600188161502019095169490940493840181900481028201810190925282815260609390929091830182828015620005295780601f10620004fd5761010080835404028352916020019162000529565b620013536200168d565b6001600160a01b0316826001600160a01b03161415620013875760405162461bcd60e51b81526004016200055f90620043e3565b8060056000620013966200168d565b6001600160a01b03908116825260208083019390935260409182016000908120918716808252919093529120805460ff191692151592909217909155620013dc6200168d565b6001600160a01b03167f17307eab39ab6107e8899845ad3d59bd9653f200f220920489ca2b5937696c318360405162001416919062004229565b60405180910390a35050565b62001437620014306200168d565b836200170e565b620014565760405162461bcd60e51b81526004016200055f906200474d565b6200146484848484620028d9565b50505050565b606062001477826200167e565b620014965760405162461bcd60e51b81526004016200055f90620046a0565b60008281526008602090815260409182902080548351601f60026000196101006001861615020190931692909204918201849004840281018401909452808452606093928301828280156200152f5780601f1062001503576101008083540402835291602001916200152f565b820191906000526020600020905b8154815290600101906020018083116200151157829003601f168201915b5050600954939450505050600260001961010060018416150201909116046200155a579050620003f4565b80511562001590576009816040516020016200157892919062004080565b604051602081830303815290604052915050620003f4565b60096200159d8462002913565b604051602001620015b092919062004080565b604051602081830303815290604052915050919050565b600b54604051636eb1769f60e11b81526000916001600160a01b03169063dd62ed3e90620015fc908590309060040162004180565b60206040518083038186803b1580156200161557600080fd5b505afa1580156200162a573d6000803e3d6000fd5b505050506040513d601f19601f8201168201806040525081019062000493919062003f36565b6001600160a01b03918216600090815260056020908152604080832093909416825291909152205460ff1690565b600062000493600283620029f7565b3390565b600081815260046020526040902080546001600160a01b0319166001600160a01b0384169081179091558190620016c88262000c22565b6001600160a01b03167f8c5be1e5ebec7d5bd14f71427d1e84f3dd0314c0f7b2291e5b200ac8c7c3b92560405160405180910390a45050565b6000620004938262002a05565b60006200171b826200167e565b6200173a5760405162461bcd60e51b81526004016200055f9062004460565b6000620017478362000c22565b9050806001600160a01b0316846001600160a01b03161480620017855750836001600160a01b03166200177a8462000533565b6001600160a01b0316145b806200048f57506200048f818562001650565b826001600160a01b0316620017ad8262000c22565b6001600160a01b031614620017d65760405162461bcd60e51b81526004016200055f9062004657565b6001600160a01b038216620017ff5760405162461bcd60e51b81526004016200055f906200439f565b6200180c83838362000627565b6200181960008262001691565b6001600160a01b03831660009081526001602052604090206200183d908262002a09565b506001600160a01b038216600090815260016020526040902062001862908262002a17565b50620018716002828462002a25565b5080826001600160a01b0316846001600160a01b03167fddf252ad1be2c89b69c2b068fc378daa952ba7f163c4a11628f55a4df523b3ef60405160405180910390a4505050565b6000620006a4838362002a3d565b620018e282826040518060200160405280600081525062002a86565b5050565b6000808080620018f7868662002ac0565b909450925050505b9250929050565b60006200191584848462002b20565b949350505050565b6000826200192e5750600062000493565b828202828482816200193c57fe5b0414620006a45760405162461bcd60e51b81526004016200055f90620045ca565b801562001a6357600b54600f546040516323b872dd60e01b81526001600160a01b03928316926323b872dd926200199e92911690879087906004016200411d565b602060405180830381600087803b158015620019b957600080fd5b505af1158015620019ce573d6000803e3d6000fd5b505050506040513d601f19601f82011682018060405250810190620019f4919062003e7e565b50600b5460405163363798f960e11b81526001600160a01b0390911690636c6f31f29062001a2990869086906004016200419a565b600060405180830381600087803b15801562001a4457600080fd5b505af115801562001a59573d6000803e3d6000fd5b5050505062000627565b600b54600f546040516323b872dd60e01b81526001600160a01b03928316926323b872dd9262001a9e9288929091169087906004016200411d565b602060405180830381600087803b15801562001ab957600080fd5b505af115801562001ace573d6000803e3d6000fd5b505050506040513d601f19601f8201168201806040525081019062001464919062003e7e565b600082820183811015620006a45760405162461bcd60e51b81526004016200055f9062004368565b60408051808201909152600e81526d50454e44494e475f4f524445525360901b602091820152600d815260008051602062005bb38339815191528054600181018255600091825286517f034b52baf7691f83d40dfbe47e7633aab79f1d5ff22e1d7eb52db0f053a4386d600290920291820155918601517f034b52baf7691f83d40dfbe47e7633aab79f1d5ff22e1d7eb52db0f053a4386e9092019190915583600181111562001bc857fe5b141562001cb457604080518082018252600a8152694255595f4f524445525360b01b602091820152600d81527ff34c455ecb5de31f82d36825bad0aeb58d036a39fd40a24fec0ec35de170b3558054600181810183556000928352885160029283027f7825a2e82dba6400485829f8f9949481adf4dd15bacab3d9360b5903cb060a0981019190915589850180517f7825a2e82dba6400485829f8f9949481adf4dd15bacab3d9360b5903cb060a0a909201919091556001600160a01b0388168452600e8552948320805480830182559084529390922088519390910201918255915191015562001464565b604080518082018252600b81526a53454c4c5f4f524445525360a81b602091820152600d81527f48c1c91527eb21aa80d2b076de8e4ab8fb1bcbd06905b9762cb5ba913a9d61c08054600181810183556000928352885160029283027fa62a6c2ca9635ef0f603da97b3e7e3b717763e8236a23ee14977899e7f4ea81581019190915589850180517fa62a6c2ca9635ef0f603da97b3e7e3b717763e8236a23ee14977899e7f4ea816909201919091556001600160a01b0387168452600e8552948320805480830182559084529390922088519390910201918255915191015550505050565b600062001da662003b04565b5060408051808201909152600e81526d50454e44494e475f4f524445525360901b60209182015260008051602062005c05833981519152600052600d905260008051602062005bb3833981519152548290600181141562001e0a57505050620028d6565b600062001e1982600162002b83565b905060006103e8831162001e2f57600062001e33565b6103e85b90505b80821015801562001e45575084155b15620007c95762001e5562003b04565b60408051808201909152600e81526d50454e44494e475f4f524445525360901b60209182015260008051602062005c058339815191526000908152600d90915260008051602062005bb38339815191528054600c9291908690811062001eb757fe5b6000918252602080832060029283020154845283810194909452604092830190912082516101e0810190935280546101a084019081526001808301546101c086015290845291810154929390929084019160ff9091169081111562001f1857fe5b600181111562001f2457fe5b81526020016002820160019054906101000a900460ff16600481111562001f4757fe5b600481111562001f5357fe5b815260028201546001600160a01b03620100009091048116602083015260038084015490911660408301526004830154606083015260058301546080830152600683015460a0830152600783015460c0830152600883015460e09092019160ff169081111562001fbf57fe5b600381111562001fcb57fe5b815260200160098201548152602001600a8201548152602001600b82015481525050905060008160a001518660a001511490506000866020015160018111156200201157fe5b836020015160018111156200202257fe5b6060850151911491506000906001600160a01b03161580159062002052575060808801516001600160a01b031615155b156200207d5787608001516001600160a01b031684606001516001600160a01b0316149050620020cc565b60808401516001600160a01b031615801590620020a6575060608801516001600160a01b031615155b15620020cc5787606001516001600160a01b031684608001516001600160a01b03161490505b6000838015620020ed575060008561012001516003811115620020eb57fe5b145b8015620020f8575082155b801562002103575081155b90508015620028ab576200211662003b04565b6200212062003b04565b6200212a62003ba9565b60008c6020015160018111156200213d57fe5b1415620022aa578b925087915062002156838362002bc7565b905080600001519c50600c60008460000151600001518152602001908152602001600020604051806101a0016040529081600082016040518060400160405290816000820154815260200160018201548152505081526020016002820160009054906101000a900460ff166001811115620021cd57fe5b6001811115620021d957fe5b81526020016002820160019054906101000a900460ff166004811115620021fc57fe5b60048111156200220857fe5b815260028201546001600160a01b03620100009091048116602083015260038084015490911660408301526004830154606083015260058301546080830152600683015460a0830152600783015460c0830152600883015460e09092019160ff16908111156200227457fe5b60038111156200228057fe5b815260200160098201548152602001600a8201548152602001600b820154815250509b5062002425565b60018c602001516001811115620022bd57fe5b141562002425578b9150879250620022d6838362002bc7565b905080600001519c50600c60008360000151600001518152602001908152602001600020604051806101a0016040529081600082016040518060400160405290816000820154815260200160018201548152505081526020016002820160009054906101000a900460ff1660018111156200234d57fe5b60018111156200235957fe5b81526020016002820160019054906101000a900460ff1660048111156200237c57fe5b60048111156200238857fe5b815260028201546001600160a01b03620100009091048116602083015260038084015490911660408301526004830154606083015260058301546080830152600683015460a0830152600783015460c0830152600883015460e09092019160ff1690811115620023f457fe5b60038111156200240057fe5b815260200160098201548152602001600a8201548152602001600b820154815250509b505b600183610120015160038111156200243957fe5b1480620024575750600182610120015160038111156200245557fe5b145b15620028a75760006200247d84610100015183606001516200191d90919063ffffffff16565b9050806001846040015160048111156200249357fe5b14620024b2576101008401516080840151620024af916200191d565b90505b60808501516001600160a01b0316600090815260106020526040902054620024db908362002b83565b6080860180516001600160a01b0316600090815260106020526040902091909155516200250b908360016200195d565b60a08501516000908152600a60205260409081902054600f546060808801519087015193516323b872dd60e01b81526001600160a01b039384169485946323b872dd9462002562949116929091906004016200411d565b602060405180830381600087803b1580156200257d57600080fd5b505af115801562002592573d6000803e3d6000fd5b505050506040513d601f19601f82011682018060405250810190620025b8919062003e7e565b156200262e576060808601519085015160405163363798f960e11b81526001600160a01b03841692636c6f31f292620025f4926004016200419a565b600060405180830381600087803b1580156200260f57600080fd5b505af115801562002624573d6000803e3d6000fd5b5050505062002648565b60405162461bcd60e51b81526004016200055f9062004730565b600b5460808701516060808801516101008a0151918801516001600160a01b03909416936323b872dd93926200267f91906200191d565b6040518463ffffffff1660e01b81526004016200269f939291906200411d565b602060405180830381600087803b158015620026ba57600080fd5b505af1158015620026cf573d6000803e3d6000fd5b505050506040513d601f19601f82011682018060405250810190620026f5919062003e7e565b156200288957600b54606080870151610100890151918701516001600160a01b0390931692636c6f31f2926200272c91906200191d565b6040518363ffffffff1660e01b81526004016200274b9291906200419a565b600060405180830381600087803b1580156200276657600080fd5b505af11580156200277b573d6000803e3d6000fd5b505050506060858101516080880151918601516040516323b872dd60e01b81526001600160a01b038516936323b872dd93620027bc9390926004016200411d565b602060405180830381600087803b158015620027d757600080fd5b505af1158015620027ec573d6000803e3d6000fd5b505050506040513d601f19601f8201168201806040525081019062002812919062003e7e565b1562002883576080860151606085015160405163363798f960e11b81526001600160a01b03841692636c6f31f2926200284e926004016200419a565b600060405180830381600087803b1580156200286957600080fd5b505af11580156200287e573d6000803e3d6000fd5b505050505b620028a3565b60405162461bcd60e51b81526004016200055f906200480e565b5050505b5050505b86620028bc575050505050620007c9565b620028c987600162002b83565b9650505050505062001e36565b50565b620028e684848462001798565b620028f4848484846200301f565b620014645760405162461bcd60e51b81526004016200055f90620042df565b6060816200293a57506040805180820190915260018152600360fc1b6020820152620003f4565b8160005b81156200295457600101600a820491506200293e565b60608167ffffffffffffffff811180156200296e57600080fd5b506040519080825280601f01601f1916602001820160405280156200299a576020820181803683370190505b50859350905060001982015b8315620029ee57600a840660300160f81b82828060019003935081518110620029cb57fe5b60200101906001600160f81b031916908160001a905350600a84049350620029a6565b50949350505050565b6000620006a483836200310b565b5490565b6000620006a4838362003123565b6000620006a48383620031f6565b60006200191584846001600160a01b03851662003245565b8154600090821062002a635760405162461bcd60e51b81526004016200055f906200429d565b82600001828154811062002a7357fe5b9060005260206000200154905092915050565b62002a928383620032e0565b62002aa160008484846200301f565b620006275760405162461bcd60e51b81526004016200055f90620042df565b81546000908190831062002ae85760405162461bcd60e51b81526004016200055f9062004553565b600084600001848154811062002afa57fe5b906000526020600020906002020190508060000154816001015492509250509250929050565b6000828152600184016020526040812054828162002b535760405162461bcd60e51b81526004016200055f919062004288565b5084600001600182038154811062002b6757fe5b9060005260206000209060020201600101549150509392505050565b6000620006a483836040518060400160405280601e81526020017f536166654d6174683a207375627472616374696f6e206f766572666c6f770000815250620033b2565b62002bd162003ba9565b506040805160a08101825260008082526020820181905291810182905260608101829052608081019190915260c080840151908301516101808501511580159062002c20575042856101800151105b1562002c2e57600160208401525b600084610180015111801562002c48575042846101800151105b1562002c5657600160408401525b8361010001518561010001511015801562002c815750602083015115801562002c8157506040830151155b1562002d11578082141562002ca35762002c9d838686620033e1565b62002d0b565b808211801562002cc4575060018560400151600481111562002cc157fe5b14155b1562002cd75762002c9d83868662003419565b808210801562002cf8575060018460400151600481111562002cf557fe5b14155b1562002d0b5762002d0b83868662003456565b62002db8565b60048460400151600481111562002d2457fe5b14801562002d3457506040830151155b1562002db8578082141562002d505762002d0b838686620033e1565b808211801562002d71575060018560400151600481111562002d6e57fe5b14155b1562002d845762002d0b83868662003419565b808210801562002da5575060018460400151600481111562002da257fe5b14155b1562002db85762002db883868662003456565b8351516000908152600c6020908152604090912085518051825582015160018083019190915591860151600282018054889460ff1990911690838181111562002dfd57fe5b0217905550604082015160028201805461ff00191661010083600481111562002e2257fe5b0217905550606082015160028201805462010000600160b01b031916620100006001600160a01b03938416021790556080830151600380840180546001600160a01b031916929093169190911790915560a0830151600483015560c0830151600583015560e0830151600683015561010083015160078301556101208301516008830180549192909160ff191690600190849081111562002ebf57fe5b02179055506101408201516009820155610160820151600a82015561018090910151600b909101558451516000908152600c6020908152604090912086518051825582015160018083019190915591870151600282018054899460ff1990911690838181111562002f2c57fe5b0217905550604082015160028201805461ff00191661010083600481111562002f5157fe5b0217905550606082015160028201805462010000600160b01b031916620100006001600160a01b03938416021790556080830151600380840180546001600160a01b031916929093169190911790915560a0830151600483015560c0830151600583015560e0830151600683015561010083015160078301556101208301516008830180549192909160ff191690600190849081111562002fee57fe5b0217905550610140820151816009015561016082015181600a015561018082015181600b0155905050505092915050565b600062003035846001600160a01b031662003493565b620030435750600162001915565b6060620030d2630a85bd0160e11b6200305b6200168d565b88878760405160240162003073949392919062004141565b604051602081830303815290604052906001600160e01b0319166020820180516001600160e01b03838183161783525050505060405180606001604052806032815260200162005bd3603291396001600160a01b038816919062003499565b9050600081806020019051810190620030ec919062003ed5565b6001600160e01b031916630a85bd0160e11b1492505050949350505050565b60009081526001919091016020526040902054151590565b60008181526001830160205260408120548015620031e457835460001980830191908101906000908790839081106200315857fe5b90600052602060002001549050808760000184815481106200317657fe5b600091825260208083209091019290925582815260018981019092526040902090840190558654879080620031a757fe5b6001900381819060005260206000200160009055905586600101600087815260200190815260200160002060009055600194505050505062000493565b600091505062000493565b5092915050565b60006200320483836200310b565b6200323c5750815460018181018455600084815260208082209093018490558454848252828601909352604090209190915562000493565b50600062000493565b600082815260018401602052604081205480620032ac575050604080518082018252838152602080820184815286546001818101895560008981528481209551600290930290950191825591519082015586548684528188019092529290912055620006a4565b82856000016001830381548110620032c057fe5b9060005260206000209060020201600101819055506000915050620006a4565b6001600160a01b038216620033095760405162461bcd60e51b81526004016200055f9062004595565b62003314816200167e565b15620033345760405162461bcd60e51b81526004016200055f9062004331565b620033426000838362000627565b6001600160a01b038216600090815260016020526040902062003366908262002a17565b50620033756002828462002a25565b5060405181906001600160a01b038416906000907fddf252ad1be2c89b69c2b068fc378daa952ba7f163c4a11628f55a4df523b3ef908290a45050565b60008184841115620033d95760405162461bcd60e51b81526004016200055f919062004288565b505050900390565b60c080830180516060860152908201805160808601526001855260009081905290526200340e82620034aa565b6200062781620034aa565b60c0808201805160608601528051608086015251908301516200343c9162002b83565b60c0808401919091526000908201526200062781620034aa565b60c080830180516060860152805160808601525190820151620034799162002b83565b60c0808301919091526000908301526200062782620034aa565b3b151590565b606062001915848460008562003989565b620034b462003b92565b50805160408051808201909152600e81526d50454e44494e475f4f524445525360901b60209182015260008051602062005c05833981519152600052600d905260008051602062005bb383398151915254620035115750620028d6565b60408051808201909152600e81526d50454e44494e475f4f524445525360901b60209182015260008051602062005c05833981519152600052600d905260008051602062005bb38339815191525460011415620035e45760408051808201909152600e81526d50454e44494e475f4f524445525360901b60209182015260008051602062005c05833981519152600052600d905260008051602062005bb3833981519152805480620035bf57fe5b60008281526020812060026000199093019283020181815560010155905550620028d6565b60408051808201909152600e81526d50454e44494e475f4f524445525360901b60209182015260008051602062005c058339815191526000908152600d90915260008051602062005bb3833981519152546200364290600162002b83565b604080518082018252600e81526d50454e44494e475f4f524445525360901b60209182015260008051602062005c058339815191526000908152600d909152905163191ee78360e01b81529192509073__$6b1d18db58843331cb7cb9cc18cf07e672$__9063191ee78390620036d29060008051602062005bb383398151915290859087908990600401620041b3565b60206040518083038186803b158015620036eb57600080fd5b505af415801562003700573d6000803e3d6000fd5b505050506040513d601f19601f8201168201806040525081019062003726919062003f36565b905060008112620038a257805b828110156200382b5760408051808201909152600e81526d50454e44494e475f4f524445525360901b60209182015260008051602062005c05833981519152600052600d905260008051602062005bb38339815191528054600183019081106200379957fe5b6000918252602080832060408051808201909152600e81526d50454e44494e475f4f524445525360901b9083015260008051602062005c05833981519152909352600d905260008051602062005bb3833981519152805460029092029092019190839081106200380557fe5b600091825260209091208254600290920201908155600191820154908201550162003733565b5060408051808201909152600e81526d50454e44494e475f4f524445525360901b60209182015260008051602062005c05833981519152600052600d905260008051602062005bb38339815191528054806200388357fe5b6000828152602081206002600019909301928302018181556001015590555b505060408051808201909152600e81526d4d4154434845445f4f524445525360901b6020918201527fadaaca5c8c3f56bf72f89abb1ed95701d44c650c5e04cf89df361454308f6f756000908152600d825283517fe0a80a76b0f7474dd1c95f95aeb280da4c84e313166cf753213a3f81fd868ff38054600180820183559190935281517f9902fc2ada66d7ac10fdf04358b59edcd8609e9aadaa0654b4ff4c3a5d09166e6002909402938401559201517f9902fc2ada66d7ac10fdf04358b59edcd8609e9aadaa0654b4ff4c3a5d09166f90910155610120830152504261016090910152565b606082471015620039ae5760405162461bcd60e51b81526004016200055f906200441a565b620039b98562003493565b620039d85760405162461bcd60e51b81526004016200055f90620047bb565b60006060866001600160a01b03168587604051620039f7919062004062565b60006040518083038185875af1925050503d806000811462003a36576040519150601f19603f3d011682016040523d82523d6000602084013e62003a3b565b606091505b509150915062003a4d82828662003a58565b979650505050505050565b6060831562003a69575081620006a4565b82511562003a7a5782518084602001fd5b8160405162461bcd60e51b81526004016200055f919062004288565b6040518061010001604052806000815260200160006001600160a01b0316815260200160006001600160a01b031681526020016060815260200160608152602001600081526020016000815260200160006001600160a01b031681525090565b6110db8062004ad883390190565b604051806101a0016040528062003b1a62003b92565b8152602001600081526020016000815260200160006001600160a01b0316815260200160006001600160a01b03168152602001600081526020016000815260200160008152602001600081526020016000600381111562003b7757fe5b81526020016000815260200160008152602001600081525090565b604080518082019091526000808252602082015290565b6040805160a08101825260008082526020820181905291810182905260608101829052608081019190915290565b600082601f83011262003be8578081fd5b815162003bff62003bf98262004a47565b62004a1f565b915080825283602082850101111562003c1757600080fd5b620031ef81602084016020860162004a6c565b60006020828403121562003c3c578081fd5b8135620006a48162004a9b565b6000806040838503121562003c5c578081fd5b823562003c698162004a9b565b9150602083013562003c7b8162004a9b565b809150509250929050565b60008060006060848603121562003c9b578081fd5b833562003ca88162004a9b565b9250602084013562003cba8162004a9b565b929592945050506040919091013590565b6000806000806080858703121562003ce1578081fd5b843562003cee8162004a9b565b9350602085013562003d008162004a9b565b925060408501359150606085013567ffffffffffffffff81111562003d23578182fd5b8501601f8101871362003d34578182fd5b803562003d4562003bf98262004a47565b81815288602083850101111562003d5a578384fd5b81602084016020830137908101602001929092525092959194509250565b6000806040838503121562003d8b578182fd5b823562003d988162004a9b565b9150602083013562003c7b8162004ab1565b60008060008060008060c0878903121562003dc3578182fd5b865162003dd08162004a9b565b602088015190965067ffffffffffffffff8082111562003dee578384fd5b62003dfc8a838b0162003bd7565b9650604089015191508082111562003e12578384fd5b5062003e2189828a0162003bd7565b945050606087015192506080870151915060a087015162003e428162004a9b565b809150509295509295509295565b6000806040838503121562003e63578182fd5b823562003e708162004a9b565b946020939093013593505050565b60006020828403121562003e90578081fd5b8151620006a48162004ab1565b60006020828403121562003eaf578081fd5b5035919050565b60006020828403121562003ec8578081fd5b8135620006a48162004ac0565b60006020828403121562003ee7578081fd5b8151620006a48162004ac0565b60006020828403121562003f06578081fd5b813560058110620006a4578182fd5b60006020828403121562003f27578081fd5b813560028110620006a4578182fd5b60006020828403121562003f48578081fd5b5051919050565b60006020828403121562003f61578081fd5b813567ffffffffffffffff81111562003f78578182fd5b820160c08185031215620006a4578182fd5b600060e0828403121562003f9c578081fd5b50919050565b6000806040838503121562003fb5578182fd5b82359150602083013562003c7b8162004a9b565b6001600160a01b03169052565b6000815180845262003ff081602086016020860162004a6c565b601f01601f19169290920160200192915050565b600481106200400f57fe5b9052565b600581106200400f57fe5b600281106200400f57fe5b60008284528282602086013780602084860101526020601f19601f85011685010190509392505050565b80518252602090810151910152565b600082516200407681846020870162004a6c565b9190910192915050565b6000808454600180821660008114620040a25760018114620040ba57620040eb565b60ff198316865260028304607f1686019350620040eb565b600283048886526020808720875b83811015620040e35781548a820152908501908201620040c8565b505050860193505b50505083516200410081836020880162004a6c565b01949350505050565b6001600160a01b0391909116815260200190565b6001600160a01b039384168152919092166020820152604081019190915260600190565b6001600160a01b0385811682528416602082015260408101839052608060608201819052600090620041769083018462003fd6565b9695505050505050565b6001600160a01b0392831681529116602082015260400190565b6001600160a01b03929092168252602082015260400190565b600060a0820160a0835280875480835260c08501915088845260209250828420845b82811015620041ff57815484526001808301548686015260409094019360029092019101620041d5565b50505090830186905260408301859052905062004220606083018462004053565b95945050505050565b901515815260200190565b600060a082526200424a60a08301898b62004029565b82810360208401526200425f81888a62004029565b6040840196909652505060608101929092526001600160a01b0316608090910152949350505050565b600060208252620006a4602083018462003fd6565b60208082526022908201527f456e756d657261626c655365743a20696e646578206f7574206f6620626f756e604082015261647360f01b606082015260800190565b60208082526032908201527f4552433732313a207472616e7366657220746f206e6f6e20455243373231526560408201527131b2b4bb32b91034b6b83632b6b2b73a32b960711b606082015260800190565b6020808252601c908201527f4552433732313a20746f6b656e20616c7265616479206d696e74656400000000604082015260600190565b6020808252601b908201527f536166654d6174683a206164646974696f6e206f766572666c6f770000000000604082015260600190565b60208082526024908201527f4552433732313a207472616e7366657220746f20746865207a65726f206164646040820152637265737360e01b606082015260800190565b60208082526019908201527f4552433732313a20617070726f766520746f2063616c6c657200000000000000604082015260600190565b60208082526026908201527f416464726573733a20696e73756666696369656e742062616c616e636520666f6040820152651c8818d85b1b60d21b606082015260800190565b6020808252602c908201527f4552433732313a206f70657261746f7220717565727920666f72206e6f6e657860408201526b34b9ba32b73a103a37b5b2b760a11b606082015260800190565b60208082526038908201527f4552433732313a20617070726f76652063616c6c6572206973206e6f74206f7760408201527f6e6572206e6f7220617070726f76656420666f7220616c6c0000000000000000606082015260800190565b6020808252602a908201527f4552433732313a2062616c616e636520717565727920666f7220746865207a65604082015269726f206164647265737360b01b606082015260800190565b60208082526022908201527f456e756d657261626c654d61703a20696e646578206f7574206f6620626f756e604082015261647360f01b606082015260800190565b6020808252818101527f4552433732313a206d696e7420746f20746865207a65726f2061646472657373604082015260600190565b60208082526021908201527f536166654d6174683a206d756c7469706c69636174696f6e206f766572666c6f6040820152607760f81b606082015260800190565b6020808252602c908201527f4552433732313a20617070726f76656420717565727920666f72206e6f6e657860408201526b34b9ba32b73a103a37b5b2b760a11b606082015260800190565b60208082526029908201527f4552433732313a207472616e73666572206f6620746f6b656e2074686174206960408201526839903737ba1037bbb760b91b606082015260800190565b6020808252602f908201527f4552433732314d657461646174613a2055524920717565727920666f72206e6f60408201526e3732bc34b9ba32b73a103a37b5b2b760891b606082015260800190565b60208082526021908201527f4552433732313a20617070726f76616c20746f2063757272656e74206f776e656040820152603960f91b606082015260800190565b60208082526003908201526227229960e91b604082015260600190565b60208082526031908201527f4552433732313a207472616e736665722063616c6c6572206973206e6f74206f6040820152701ddb995c881b9bdc88185c1c1c9bdd9959607a1b606082015260800190565b6020808252600390820152624e454160e81b604082015260600190565b6020808252601d908201527f416464726573733a2063616c6c20746f206e6f6e2d636f6e7472616374000000604082015260600190565b60208082526002908201526127a360f11b604082015260600190565b6020808252600390820152624e454d60e81b604082015260600190565b602080825260029082015261262160f11b604082015260600190565b60006101c0820190506200485d82845162004053565b60208301516200487160408401826200401e565b50604083015162004886606084018262004013565b5060608301516200489b608084018262003fc9565b506080830151620048b060a084018262003fc9565b5060a083015160c083015260c083015160e083015260e0830151610100818185015280850151915050610120818185015280850151915050610140620048f98185018362004004565b8401516101608481019190915284015161018080850191909152909301516101a090920191909152919050565b60006020825282516020830152602083015162004947604084018262003fc9565b5060408301516200495c606084018262003fc9565b5060608301516101008060808501526200497b61012085018362003fd6565b91506080850151601f198584030160a08601526200499a838262003fd6565b92505060a085015160c085015260c085015160e085015260e0850151620049c48286018262003fc9565b5090949350505050565b90815260200190565b6000808335601e19843603018112620049ee578283fd5b83018035915067ffffffffffffffff82111562004a09578283fd5b602001915036819003821315620018ff57600080fd5b60405181810167ffffffffffffffff8111828210171562004a3f57600080fd5b604052919050565b600067ffffffffffffffff82111562004a5e578081fd5b50601f01601f191660200190565b60005b8381101562004a8957818101518382015260200162004a6f565b83811115620014645750506000910152565b6001600160a01b0381168114620028d657600080fd5b8015158114620028d657600080fd5b6001600160e01b031981168114620028d657600080fdfe60806040523480156200001157600080fd5b50604051620010db380380620010db8339810160408190526200003491620003dc565b8451859085906200004d90600390602085019062000299565b5080516200006390600490602084019062000299565b50506005805460ff191660121790555033620000808285620000bd565b6200008d828286620001a9565b50600691909155600780546001600160a01b0319166001600160a01b039092169190911790555062000577915050565b6001600160a01b038216620000ef5760405162461bcd60e51b8152600401620000e69062000537565b60405180910390fd5b620000fd6000838362000265565b62000119816002546200026a60201b620005621790919060201c565b6002556001600160a01b038216600090815260208181526040909120546200014c918390620005626200026a821b17901c565b6001600160a01b0383166000818152602081905260408082209390935591519091907fddf252ad1be2c89b69c2b068fc378daa952ba7f163c4a11628f55a4df523b3ef906200019d9085906200056e565b60405180910390a35050565b6001600160a01b038316620001d25760405162461bcd60e51b8152600401620000e690620004f3565b6001600160a01b038216620001fb5760405162461bcd60e51b8152600401620000e6906200047a565b6001600160a01b0380841660008181526001602090815260408083209487168084529490915290819020849055517f8c5be1e5ebec7d5bd14f71427d1e84f3dd0314c0f7b2291e5b200ac8c7c3b92590620002589085906200056e565b60405180910390a3505050565b505050565b600082820183811015620002925760405162461bcd60e51b8152600401620000e690620004bc565b9392505050565b828054600181600116156101000203166002900490600052602060002090601f016020900481019282601f10620002dc57805160ff19168380011785556200030c565b828001600101855582156200030c579182015b828111156200030c578251825591602001919060010190620002ef565b506200031a9291506200031e565b5090565b5b808211156200031a57600081556001016200031f565b600082601f83011262000346578081fd5b81516001600160401b03808211156200035d578283fd5b6040516020601f8401601f19168201810183811183821017156200037f578586fd5b806040525081945083825286818588010111156200039c57600080fd5b600092505b83831015620003c05785830181015182840182015291820191620003a1565b83831115620003d25760008185840101525b5050505092915050565b600080600080600060a08688031215620003f4578081fd5b85516001600160401b03808211156200040b578283fd5b6200041989838a0162000335565b965060208801519150808211156200042f578283fd5b506200043e8882890162000335565b6040880151606089015160808a0151929750909550935090506001600160a01b03811681146200046c578182fd5b809150509295509295909350565b60208082526022908201527f45524332303a20617070726f766520746f20746865207a65726f206164647265604082015261737360f01b606082015260800190565b6020808252601b908201527f536166654d6174683a206164646974696f6e206f766572666c6f770000000000604082015260600190565b60208082526024908201527f45524332303a20617070726f76652066726f6d20746865207a65726f206164646040820152637265737360e01b606082015260800190565b6020808252601f908201527f45524332303a206d696e7420746f20746865207a65726f206164647265737300604082015260600190565b90815260200190565b610b5480620005876000396000f3fe608060405234801561001057600080fd5b50600436106100f55760003560e01c8063565974d311610097578063a457c2d711610066578063a457c2d7146101e7578063a71b6426146101fa578063a9059cbb14610202578063dd62ed3e14610215576100f5565b8063565974d31461019d5780636c6f31f2146101b757806370a08231146101cc57806395d89b41146101df576100f5565b80631d143848116100d35780631d1438481461014d57806323b872dd14610162578063313ce56714610175578063395093511461018a576100f5565b806306fdde03146100fa578063095ea7b31461011857806318160ddd14610138575b600080fd5b610102610228565b60405161010f9190610924565b60405180910390f35b61012b61012636600461083b565b6102be565b60405161010f9190610919565b6101406102dc565b60405161010f9190610a7c565b6101556102e2565b60405161010f91906108b0565b61012b6101703660046107fb565b6102f1565b61017d610378565b60405161010f9190610a85565b61012b61019836600461083b565b610381565b6101a56103cf565b60405161010f969594939291906108c4565b6101ca6101c536600461083b565b610415565b005b6101406101da3660046107ac565b610439565b610102610454565b61012b6101f536600461083b565b6104b5565b61014061051d565b61012b61021036600461083b565b610523565b6101406102233660046107c7565b610537565b60038054604080516020601f60026000196101006001881615020190951694909404938401819004810282018101909252828152606093909290918301828280156102b45780601f10610289576101008083540402835291602001916102b4565b820191906000526020600020905b81548152906001019060200180831161029757829003601f168201915b5050505050905090565b60006102d26102cb610597565b848461059b565b5060015b92915050565b60025490565b6007546001600160a01b031690565b60006102fe84848461064f565b61036e8461030a610597565b61036985604051806060016040528060288152602001610ad2602891396001600160a01b038a16600090815260016020526040812090610348610597565b6001600160a01b031681526020810191909152604001600020549190610764565b61059b565b5060019392505050565b60055460ff1690565b60006102d261038e610597565b84610369856001600061039f610597565b6001600160a01b03908116825260208083019390935260409182016000908120918c168152925290205490610562565b60006060806000806000306103e2610228565b6103ea610454565b6103f26102dc565b6103fa61051d565b6104026102e2565b949b939a50919850965094509092509050565b3360006104228483610537565b905061043384836103698685610562565b50505050565b6001600160a01b031660009081526020819052604090205490565b60048054604080516020601f60026000196101006001881615020190951694909404938401819004810282018101909252828152606093909290918301828280156102b45780601f10610289576101008083540402835291602001916102b4565b60006102d26104c2610597565b8461036985604051806060016040528060258152602001610afa60259139600160006104ec610597565b6001600160a01b03908116825260208083019390935260409182016000908120918d16815292529020549190610764565b60065490565b60006102d2610530610597565b848461064f565b6001600160a01b03918216600090815260016020908152604080832093909416825291909152205490565b6000828201838110156105905760405162461bcd60e51b8152600401610587906109bc565b60405180910390fd5b9392505050565b3390565b6001600160a01b0383166105c15760405162461bcd60e51b815260040161058790610a38565b6001600160a01b0382166105e75760405162461bcd60e51b81526004016105879061097a565b6001600160a01b0380841660008181526001602090815260408083209487168084529490915290819020849055517f8c5be1e5ebec7d5bd14f71427d1e84f3dd0314c0f7b2291e5b200ac8c7c3b92590610642908590610a7c565b60405180910390a3505050565b6001600160a01b0383166106755760405162461bcd60e51b8152600401610587906109f3565b6001600160a01b03821661069b5760405162461bcd60e51b815260040161058790610937565b6106a6838383610790565b6106e381604051806060016040528060268152602001610aac602691396001600160a01b0386166000908152602081905260409020549190610764565b6001600160a01b0380851660009081526020819052604080822093909355908416815220546107129082610562565b6001600160a01b0380841660008181526020819052604090819020939093559151908516907fddf252ad1be2c89b69c2b068fc378daa952ba7f163c4a11628f55a4df523b3ef90610642908590610a7c565b600081848411156107885760405162461bcd60e51b81526004016105879190610924565b505050900390565b505050565b80356001600160a01b03811681146102d657600080fd5b6000602082840312156107bd578081fd5b6105908383610795565b600080604083850312156107d9578081fd5b6107e38484610795565b91506107f28460208501610795565b90509250929050565b60008060006060848603121561080f578081fd5b833561081a81610a93565b9250602084013561082a81610a93565b929592945050506040919091013590565b6000806040838503121561084d578182fd5b6108578484610795565b946020939093013593505050565b60008151808452815b8181101561088a5760208185018101518683018201520161086e565b8181111561089b5782602083870101525b50601f01601f19169290920160200192915050565b6001600160a01b0391909116815260200190565b600060018060a01b03808916835260c060208401526108e660c0840189610865565b83810360408501526108f88189610865565b606085019790975250608083019490945250911660a0909101529392505050565b901515815260200190565b6000602082526105906020830184610865565b60208082526023908201527f45524332303a207472616e7366657220746f20746865207a65726f206164647260408201526265737360e81b606082015260800190565b60208082526022908201527f45524332303a20617070726f766520746f20746865207a65726f206164647265604082015261737360f01b606082015260800190565b6020808252601b908201527f536166654d6174683a206164646974696f6e206f766572666c6f770000000000604082015260600190565b60208082526025908201527f45524332303a207472616e736665722066726f6d20746865207a65726f206164604082015264647265737360d81b606082015260800190565b60208082526024908201527f45524332303a20617070726f76652066726f6d20746865207a65726f206164646040820152637265737360e01b606082015260800190565b90815260200190565b60ff91909116815260200190565b6001600160a01b0381168114610aa857600080fd5b5056fe45524332303a207472616e7366657220616d6f756e7420657863656564732062616c616e636545524332303a207472616e7366657220616d6f756e74206578636565647320616c6c6f77616e636545524332303a2064656372656173656420616c6c6f77616e63652062656c6f77207a65726fa26469706673582212201f92b0339ba2ee6a9a26f460aeff8f0f6bb2d3ec8a1021d6c16304a502fd744664736f6c634300060c00330f4b50b212a0af592f6b337de665fe7e50a5abd9c6040f4136b76bee99d83afe4552433732313a207472616e7366657220746f206e6f6e20455243373231526563656976657220696d706c656d656e746572e4ebe61b5154be65502ffd10f19bbd557c590ef2ce56d0959d42d567662e4e7f4552433732313a206f776e657220717565727920666f72206e6f6e6578697374656e7420746f6b656ea2646970667358221220f92ea2c3949ebeb2aa0ddd9133a18eddd361e61dd6b3ffed7d69a44fe190c35e64736f6c634300060c003360806040523480156200001157600080fd5b50604051620010db380380620010db8339810160408190526200003491620003dc565b8451859085906200004d90600390602085019062000299565b5080516200006390600490602084019062000299565b50506005805460ff191660121790555033620000808285620000bd565b6200008d828286620001a9565b50600691909155600780546001600160a01b0319166001600160a01b039092169190911790555062000577915050565b6001600160a01b038216620000ef5760405162461bcd60e51b8152600401620000e69062000537565b60405180910390fd5b620000fd6000838362000265565b62000119816002546200026a60201b620005621790919060201c565b6002556001600160a01b038216600090815260208181526040909120546200014c918390620005626200026a821b17901c565b6001600160a01b0383166000818152602081905260408082209390935591519091907fddf252ad1be2c89b69c2b068fc378daa952ba7f163c4a11628f55a4df523b3ef906200019d9085906200056e565b60405180910390a35050565b6001600160a01b038316620001d25760405162461bcd60e51b8152600401620000e690620004f3565b6001600160a01b038216620001fb5760405162461bcd60e51b8152600401620000e6906200047a565b6001600160a01b0380841660008181526001602090815260408083209487168084529490915290819020849055517f8c5be1e5ebec7d5bd14f71427d1e84f3dd0314c0f7b2291e5b200ac8c7c3b92590620002589085906200056e565b60405180910390a3505050565b505050565b600082820183811015620002925760405162461bcd60e51b8152600401620000e690620004bc565b9392505050565b828054600181600116156101000203166002900490600052602060002090601f016020900481019282601f10620002dc57805160ff19168380011785556200030c565b828001600101855582156200030c579182015b828111156200030c578251825591602001919060010190620002ef565b506200031a9291506200031e565b5090565b5b808211156200031a57600081556001016200031f565b600082601f83011262000346578081fd5b81516001600160401b03808211156200035d578283fd5b6040516020601f8401601f19168201810183811183821017156200037f578586fd5b806040525081945083825286818588010111156200039c57600080fd5b600092505b83831015620003c05785830181015182840182015291820191620003a1565b83831115620003d25760008185840101525b5050505092915050565b600080600080600060a08688031215620003f4578081fd5b85516001600160401b03808211156200040b578283fd5b6200041989838a0162000335565b965060208801519150808211156200042f578283fd5b506200043e8882890162000335565b6040880151606089015160808a0151929750909550935090506001600160a01b03811681146200046c578182fd5b809150509295509295909350565b60208082526022908201527f45524332303a20617070726f766520746f20746865207a65726f206164647265604082015261737360f01b606082015260800190565b6020808252601b908201527f536166654d6174683a206164646974696f6e206f766572666c6f770000000000604082015260600190565b60208082526024908201527f45524332303a20617070726f76652066726f6d20746865207a65726f206164646040820152637265737360e01b606082015260800190565b6020808252601f908201527f45524332303a206d696e7420746f20746865207a65726f206164647265737300604082015260600190565b90815260200190565b610b5480620005876000396000f3fe608060405234801561001057600080fd5b50600436106100f55760003560e01c8063565974d311610097578063a457c2d711610066578063a457c2d7146101e7578063a71b6426146101fa578063a9059cbb14610202578063dd62ed3e14610215576100f5565b8063565974d31461019d5780636c6f31f2146101b757806370a08231146101cc57806395d89b41146101df576100f5565b80631d143848116100d35780631d1438481461014d57806323b872dd14610162578063313ce56714610175578063395093511461018a576100f5565b806306fdde03146100fa578063095ea7b31461011857806318160ddd14610138575b600080fd5b610102610228565b60405161010f9190610924565b60405180910390f35b61012b61012636600461083b565b6102be565b60405161010f9190610919565b6101406102dc565b60405161010f9190610a7c565b6101556102e2565b60405161010f91906108b0565b61012b6101703660046107fb565b6102f1565b61017d610378565b60405161010f9190610a85565b61012b61019836600461083b565b610381565b6101a56103cf565b60405161010f969594939291906108c4565b6101ca6101c536600461083b565b610415565b005b6101406101da3660046107ac565b610439565b610102610454565b61012b6101f536600461083b565b6104b5565b61014061051d565b61012b61021036600461083b565b610523565b6101406102233660046107c7565b610537565b60038054604080516020601f60026000196101006001881615020190951694909404938401819004810282018101909252828152606093909290918301828280156102b45780601f10610289576101008083540402835291602001916102b4565b820191906000526020600020905b81548152906001019060200180831161029757829003601f168201915b5050505050905090565b60006102d26102cb610597565b848461059b565b5060015b92915050565b60025490565b6007546001600160a01b031690565b60006102fe84848461064f565b61036e8461030a610597565b61036985604051806060016040528060288152602001610ad2602891396001600160a01b038a16600090815260016020526040812090610348610597565b6001600160a01b031681526020810191909152604001600020549190610764565b61059b565b5060019392505050565b60055460ff1690565b60006102d261038e610597565b84610369856001600061039f610597565b6001600160a01b03908116825260208083019390935260409182016000908120918c168152925290205490610562565b60006060806000806000306103e2610228565b6103ea610454565b6103f26102dc565b6103fa61051d565b6104026102e2565b949b939a50919850965094509092509050565b3360006104228483610537565b905061043384836103698685610562565b50505050565b6001600160a01b031660009081526020819052604090205490565b60048054604080516020601f60026000196101006001881615020190951694909404938401819004810282018101909252828152606093909290918301828280156102b45780601f10610289576101008083540402835291602001916102b4565b60006102d26104c2610597565b8461036985604051806060016040528060258152602001610afa60259139600160006104ec610597565b6001600160a01b03908116825260208083019390935260409182016000908120918d16815292529020549190610764565b60065490565b60006102d2610530610597565b848461064f565b6001600160a01b03918216600090815260016020908152604080832093909416825291909152205490565b6000828201838110156105905760405162461bcd60e51b8152600401610587906109bc565b60405180910390fd5b9392505050565b3390565b6001600160a01b0383166105c15760405162461bcd60e51b815260040161058790610a38565b6001600160a01b0382166105e75760405162461bcd60e51b81526004016105879061097a565b6001600160a01b0380841660008181526001602090815260408083209487168084529490915290819020849055517f8c5be1e5ebec7d5bd14f71427d1e84f3dd0314c0f7b2291e5b200ac8c7c3b92590610642908590610a7c565b60405180910390a3505050565b6001600160a01b0383166106755760405162461bcd60e51b8152600401610587906109f3565b6001600160a01b03821661069b5760405162461bcd60e51b815260040161058790610937565b6106a6838383610790565b6106e381604051806060016040528060268152602001610aac602691396001600160a01b0386166000908152602081905260409020549190610764565b6001600160a01b0380851660009081526020819052604080822093909355908416815220546107129082610562565b6001600160a01b0380841660008181526020819052604090819020939093559151908516907fddf252ad1be2c89b69c2b068fc378daa952ba7f163c4a11628f55a4df523b3ef90610642908590610a7c565b600081848411156107885760405162461bcd60e51b81526004016105879190610924565b505050900390565b505050565b80356001600160a01b03811681146102d657600080fd5b6000602082840312156107bd578081fd5b6105908383610795565b600080604083850312156107d9578081fd5b6107e38484610795565b91506107f28460208501610795565b90509250929050565b60008060006060848603121561080f578081fd5b833561081a81610a93565b9250602084013561082a81610a93565b929592945050506040919091013590565b6000806040838503121561084d578182fd5b6108578484610795565b946020939093013593505050565b60008151808452815b8181101561088a5760208185018101518683018201520161086e565b8181111561089b5782602083870101525b50601f01601f19169290920160200192915050565b6001600160a01b0391909116815260200190565b600060018060a01b03808916835260c060208401526108e660c0840189610865565b83810360408501526108f88189610865565b606085019790975250608083019490945250911660a0909101529392505050565b901515815260200190565b6000602082526105906020830184610865565b60208082526023908201527f45524332303a207472616e7366657220746f20746865207a65726f206164647260408201526265737360e81b606082015260800190565b60208082526022908201527f45524332303a20617070726f766520746f20746865207a65726f206164647265604082015261737360f01b606082015260800190565b6020808252601b908201527f536166654d6174683a206164646974696f6e206f766572666c6f770000000000604082015260600190565b60208082526025908201527f45524332303a207472616e736665722066726f6d20746865207a65726f206164604082015264647265737360d81b606082015260800190565b60208082526024908201527f45524332303a20617070726f76652066726f6d20746865207a65726f206164646040820152637265737360e01b606082015260800190565b90815260200190565b60ff91909116815260200190565b6001600160a01b0381168114610aa857600080fd5b5056fe45524332303a207472616e7366657220616d6f756e7420657863656564732062616c616e636545524332303a207472616e7366657220616d6f756e74206578636565647320616c6c6f77616e636545524332303a2064656372656173656420616c6c6f77616e63652062656c6f77207a65726fa26469706673582212201f92b0339ba2ee6a9a26f460aeff8f0f6bb2d3ec8a1021d6c16304a502fd744664736f6c634300060c0033",
			"opcodes": "PUSH1 0x80 PUSH1 0x40 MSTORE CALLVALUE DUP1 ISZERO PUSH3 0x11 JUMPI PUSH1 0x0 DUP1 REVERT JUMPDEST POP PUSH1 0x40 DUP1 MLOAD DUP1 DUP3 ADD DUP3 MSTORE PUSH1 0x10 DUP2 MSTORE PUSH16 0x4E5345204172742045786368616E6765 PUSH1 0x80 SHL PUSH1 0x20 DUP1 DUP4 ADD SWAP2 SWAP1 SWAP2 MSTORE DUP3 MLOAD DUP1 DUP5 ADD SWAP1 SWAP4 MSTORE PUSH1 0x4 DUP4 MSTORE PUSH4 0x82A4A8B PUSH1 0xE3 SHL SWAP1 DUP4 ADD MSTORE SWAP1 PUSH3 0x67 PUSH4 0x1FFC9A7 PUSH1 0xE0 SHL PUSH3 0x149 JUMP JUMPDEST DUP2 MLOAD PUSH3 0x7C SWAP1 PUSH1 0x6 SWAP1 PUSH1 0x20 DUP6 ADD SWAP1 PUSH3 0x1A4 JUMP JUMPDEST POP DUP1 MLOAD PUSH3 0x92 SWAP1 PUSH1 0x7 SWAP1 PUSH1 0x20 DUP5 ADD SWAP1 PUSH3 0x1A4 JUMP JUMPDEST POP PUSH3 0xA5 PUSH4 0x80AC58CD PUSH1 0xE0 SHL PUSH3 0x149 JUMP JUMPDEST PUSH3 0xB7 PUSH4 0x5B5E139F PUSH1 0xE0 SHL PUSH3 0x149 JUMP JUMPDEST PUSH3 0xC9 PUSH4 0x780E9D63 PUSH1 0xE0 SHL PUSH3 0x149 JUMP JUMPDEST POP POP PUSH1 0xF DUP1 SLOAD PUSH1 0x1 PUSH1 0x1 PUSH1 0xA0 SHL SUB NOT AND CALLER SWAP1 DUP2 OR SWAP1 SWAP2 SSTORE PUSH1 0x40 MLOAD PUSH1 0x1 PUSH1 0xFA SHL SWAP2 PUSH1 0x1 SWAP2 PUSH3 0xF7 SWAP1 PUSH3 0x229 JUMP JUMPDEST PUSH3 0x105 SWAP4 SWAP3 SWAP2 SWAP1 PUSH3 0x285 JUMP JUMPDEST PUSH1 0x40 MLOAD DUP1 SWAP2 SUB SWAP1 PUSH1 0x0 CREATE DUP1 ISZERO DUP1 ISZERO PUSH3 0x122 JUMPI RETURNDATASIZE PUSH1 0x0 DUP1 RETURNDATACOPY RETURNDATASIZE PUSH1 0x0 REVERT JUMPDEST POP PUSH1 0xB DUP1 SLOAD PUSH1 0x1 PUSH1 0x1 PUSH1 0xA0 SHL SUB NOT AND PUSH1 0x1 PUSH1 0x1 PUSH1 0xA0 SHL SUB SWAP3 SWAP1 SWAP3 AND SWAP2 SWAP1 SWAP2 OR SWAP1 SSTORE PUSH3 0x2E9 JUMP JUMPDEST PUSH1 0x1 PUSH1 0x1 PUSH1 0xE0 SHL SUB NOT DUP1 DUP3 AND EQ ISZERO PUSH3 0x17F JUMPI PUSH1 0x40 MLOAD PUSH3 0x461BCD PUSH1 0xE5 SHL DUP2 MSTORE PUSH1 0x4 ADD PUSH3 0x176 SWAP1 PUSH3 0x24E JUMP JUMPDEST PUSH1 0x40 MLOAD DUP1 SWAP2 SUB SWAP1 REVERT JUMPDEST PUSH1 0x1 PUSH1 0x1 PUSH1 0xE0 SHL SUB NOT AND PUSH1 0x0 SWAP1 DUP2 MSTORE PUSH1 0x20 DUP2 SWAP1 MSTORE PUSH1 0x40 SWAP1 KECCAK256 DUP1 SLOAD PUSH1 0xFF NOT AND PUSH1 0x1 OR SWAP1 SSTORE JUMP JUMPDEST DUP3 DUP1 SLOAD PUSH1 0x1 DUP2 PUSH1 0x1 AND ISZERO PUSH2 0x100 MUL SUB AND PUSH1 0x2 SWAP1 DIV SWAP1 PUSH1 0x0 MSTORE PUSH1 0x20 PUSH1 0x0 KECCAK256 SWAP1 PUSH1 0x1F ADD PUSH1 0x20 SWAP1 DIV DUP2 ADD SWAP3 DUP3 PUSH1 0x1F LT PUSH3 0x1E7 JUMPI DUP1 MLOAD PUSH1 0xFF NOT AND DUP4 DUP1 ADD OR DUP6 SSTORE PUSH3 0x217 JUMP JUMPDEST DUP3 DUP1 ADD PUSH1 0x1 ADD DUP6 SSTORE DUP3 ISZERO PUSH3 0x217 JUMPI SWAP2 DUP3 ADD JUMPDEST DUP3 DUP2 GT ISZERO PUSH3 0x217 JUMPI DUP3 MLOAD DUP3 SSTORE SWAP2 PUSH1 0x20 ADD SWAP2 SWAP1 PUSH1 0x1 ADD SWAP1 PUSH3 0x1FA JUMP JUMPDEST POP PUSH3 0x225 SWAP3 SWAP2 POP PUSH3 0x237 JUMP JUMPDEST POP SWAP1 JUMP JUMPDEST PUSH2 0x10DB DUP1 PUSH3 0x5F7C DUP4 CODECOPY ADD SWAP1 JUMP JUMPDEST JUMPDEST DUP1 DUP3 GT ISZERO PUSH3 0x225 JUMPI PUSH1 0x0 DUP2 SSTORE PUSH1 0x1 ADD PUSH3 0x238 JUMP JUMPDEST PUSH1 0x20 DUP1 DUP3 MSTORE PUSH1 0x1C SWAP1 DUP3 ADD MSTORE PUSH32 0x4552433136353A20696E76616C696420696E7465726661636520696400000000 PUSH1 0x40 DUP3 ADD MSTORE PUSH1 0x60 ADD SWAP1 JUMP JUMPDEST PUSH1 0xA0 DUP1 DUP3 MSTORE PUSH1 0xC SWAP1 DUP3 ADD MSTORE PUSH12 0x2A32BA3432B9102A37B5B2B7 PUSH1 0xA1 SHL PUSH1 0xC0 DUP3 ADD MSTORE PUSH1 0xE0 PUSH1 0x20 DUP3 ADD DUP2 SWAP1 MSTORE PUSH1 0x6 SWAP1 DUP3 ADD MSTORE PUSH6 0x15D053131155 PUSH1 0xD2 SHL PUSH2 0x100 DUP3 ADD MSTORE PUSH1 0x40 DUP2 ADD SWAP4 SWAP1 SWAP4 MSTORE PUSH1 0x60 DUP4 ADD SWAP2 SWAP1 SWAP2 MSTORE PUSH1 0x1 PUSH1 0x1 PUSH1 0xA0 SHL SUB AND PUSH1 0x80 DUP3 ADD MSTORE PUSH2 0x120 ADD SWAP1 JUMP JUMPDEST PUSH2 0x5C83 DUP1 PUSH3 0x2F9 PUSH1 0x0 CODECOPY PUSH1 0x0 RETURN INVALID PUSH1 0x80 PUSH1 0x40 MSTORE CALLVALUE DUP1 ISZERO PUSH3 0x11 JUMPI PUSH1 0x0 DUP1 REVERT JUMPDEST POP PUSH1 0x4 CALLDATASIZE LT PUSH3 0x178 JUMPI PUSH1 0x0 CALLDATALOAD PUSH1 0xE0 SHR DUP1 PUSH4 0x4F6CCCE7 GT PUSH3 0xD5 JUMPI DUP1 PUSH4 0x95D89B41 GT PUSH3 0x87 JUMPI DUP1 PUSH4 0x95D89B41 EQ PUSH3 0x359 JUMPI DUP1 PUSH4 0xA22CB465 EQ PUSH3 0x363 JUMPI DUP1 PUSH4 0xB88D4FDE EQ PUSH3 0x37A JUMPI DUP1 PUSH4 0xC87B56DD EQ PUSH3 0x391 JUMPI DUP1 PUSH4 0xCF9CD8F8 EQ PUSH3 0x3A8 JUMPI DUP1 PUSH4 0xE985E9C5 EQ PUSH3 0x3BF JUMPI PUSH3 0x178 JUMP JUMPDEST DUP1 PUSH4 0x4F6CCCE7 EQ PUSH3 0x2CD JUMPI DUP1 PUSH4 0x5778472A EQ PUSH3 0x2E4 JUMPI DUP1 PUSH4 0x6352211E EQ PUSH3 0x30A JUMPI DUP1 PUSH4 0x6C0360EB EQ PUSH3 0x321 JUMPI DUP1 PUSH4 0x70A08231 EQ PUSH3 0x32B JUMPI DUP1 PUSH4 0x7B8BB0B7 EQ PUSH3 0x342 JUMPI PUSH3 0x178 JUMP JUMPDEST DUP1 PUSH4 0x23B872DD GT PUSH3 0x12F JUMPI DUP1 PUSH4 0x23B872DD EQ PUSH3 0x234 JUMPI DUP1 PUSH4 0x2F745C59 EQ PUSH3 0x24B JUMPI DUP1 PUSH4 0x3563922F EQ PUSH3 0x262 JUMPI DUP1 PUSH4 0x3AE64E0C EQ PUSH3 0x279 JUMPI DUP1 PUSH4 0x42842E0E EQ PUSH3 0x29F JUMPI DUP1 PUSH4 0x4BBEF4BA EQ PUSH3 0x2B6 JUMPI PUSH3 0x178 JUMP JUMPDEST DUP1 PUSH4 0x1FFC9A7 EQ PUSH3 0x17D JUMPI DUP1 PUSH4 0x2A1C41D EQ PUSH3 0x1AC JUMPI DUP1 PUSH4 0x6FDDE03 EQ PUSH3 0x1D2 JUMPI DUP1 PUSH4 0x81812FC EQ PUSH3 0x1EB JUMPI DUP1 PUSH4 0x95EA7B3 EQ PUSH3 0x211 JUMPI DUP1 PUSH4 0x18160DDD EQ PUSH3 0x22A JUMPI JUMPDEST PUSH1 0x0 DUP1 REVERT JUMPDEST PUSH3 0x194 PUSH3 0x18E CALLDATASIZE PUSH1 0x4 PUSH3 0x3EB6 JUMP JUMPDEST PUSH3 0x3D6 JUMP JUMPDEST PUSH1 0x40 MLOAD PUSH3 0x1A3 SWAP2 SWAP1 PUSH3 0x4229 JUMP JUMPDEST PUSH1 0x40 MLOAD DUP1 SWAP2 SUB SWAP1 RETURN JUMPDEST PUSH3 0x1C3 PUSH3 0x1BD CALLDATASIZE PUSH1 0x4 PUSH3 0x3FA2 JUMP JUMPDEST PUSH3 0x3F9 JUMP JUMPDEST PUSH1 0x40 MLOAD PUSH3 0x1A3 SWAP2 SWAP1 PUSH3 0x49CE JUMP JUMPDEST PUSH3 0x1DC PUSH3 0x499 JUMP JUMPDEST PUSH1 0x40 MLOAD PUSH3 0x1A3 SWAP2 SWAP1 PUSH3 0x4288 JUMP JUMPDEST PUSH3 0x202 PUSH3 0x1FC CALLDATASIZE PUSH1 0x4 PUSH3 0x3E9D JUMP JUMPDEST PUSH3 0x533 JUMP JUMPDEST PUSH1 0x40 MLOAD PUSH3 0x1A3 SWAP2 SWAP1 PUSH3 0x4109 JUMP JUMPDEST PUSH3 0x228 PUSH3 0x222 CALLDATASIZE PUSH1 0x4 PUSH3 0x3E50 JUMP JUMPDEST PUSH3 0x584 JUMP JUMPDEST STOP JUMPDEST PUSH3 0x1C3 PUSH3 0x62C JUMP JUMPDEST PUSH3 0x228 PUSH3 0x245 CALLDATASIZE PUSH1 0x4 PUSH3 0x3C86 JUMP JUMPDEST PUSH3 0x63F JUMP JUMPDEST PUSH3 0x1C3 PUSH3 0x25C CALLDATASIZE PUSH1 0x4 PUSH3 0x3E50 JUMP JUMPDEST PUSH3 0x680 JUMP JUMPDEST PUSH3 0x228 PUSH3 0x273 CALLDATASIZE PUSH1 0x4 PUSH3 0x3E50 JUMP JUMPDEST PUSH3 0x6AB JUMP JUMPDEST PUSH3 0x290 PUSH3 0x28A CALLDATASIZE PUSH1 0x4 PUSH3 0x3E9D JUMP JUMPDEST PUSH3 0x7D1 JUMP JUMPDEST PUSH1 0x40 MLOAD PUSH3 0x1A3 SWAP2 SWAP1 PUSH3 0x4926 JUMP JUMPDEST PUSH3 0x228 PUSH3 0x2B0 CALLDATASIZE PUSH1 0x4 PUSH3 0x3C86 JUMP JUMPDEST PUSH3 0x8F5 JUMP JUMPDEST PUSH3 0x228 PUSH3 0x2C7 CALLDATASIZE PUSH1 0x4 PUSH3 0x3F4F JUMP JUMPDEST PUSH3 0x912 JUMP JUMPDEST PUSH3 0x1C3 PUSH3 0x2DE CALLDATASIZE PUSH1 0x4 PUSH3 0x3E9D JUMP JUMPDEST PUSH3 0xAD8 JUMP JUMPDEST PUSH3 0x2FB PUSH3 0x2F5 CALLDATASIZE PUSH1 0x4 PUSH3 0x3E9D JUMP JUMPDEST PUSH3 0xAF0 JUMP JUMPDEST PUSH1 0x40 MLOAD PUSH3 0x1A3 SWAP2 SWAP1 PUSH3 0x4847 JUMP JUMPDEST PUSH3 0x202 PUSH3 0x31B CALLDATASIZE PUSH1 0x4 PUSH3 0x3E9D JUMP JUMPDEST PUSH3 0xC22 JUMP JUMPDEST PUSH3 0x1DC PUSH3 0xC4D JUMP JUMPDEST PUSH3 0x1C3 PUSH3 0x33C CALLDATASIZE PUSH1 0x4 PUSH3 0x3C2A JUMP JUMPDEST PUSH3 0xCB1 JUMP JUMPDEST PUSH3 0x228 PUSH3 0x353 CALLDATASIZE PUSH1 0x4 PUSH3 0x3F8A JUMP JUMPDEST PUSH3 0xCFF JUMP JUMPDEST PUSH3 0x1DC PUSH3 0x12E5 JUMP JUMPDEST PUSH3 0x228 PUSH3 0x374 CALLDATASIZE PUSH1 0x4 PUSH3 0x3D78 JUMP JUMPDEST PUSH3 0x1349 JUMP JUMPDEST PUSH3 0x228 PUSH3 0x38B CALLDATASIZE PUSH1 0x4 PUSH3 0x3CCB JUMP JUMPDEST PUSH3 0x1422 JUMP JUMPDEST PUSH3 0x1DC PUSH3 0x3A2 CALLDATASIZE PUSH1 0x4 PUSH3 0x3E9D JUMP JUMPDEST PUSH3 0x146A JUMP JUMPDEST PUSH3 0x1C3 PUSH3 0x3B9 CALLDATASIZE PUSH1 0x4 PUSH3 0x3C2A JUMP JUMPDEST PUSH3 0x15C7 JUMP JUMPDEST PUSH3 0x194 PUSH3 0x3D0 CALLDATASIZE PUSH1 0x4 PUSH3 0x3C49 JUMP JUMPDEST PUSH3 0x1650 JUMP JUMPDEST PUSH1 0x1 PUSH1 0x1 PUSH1 0xE0 SHL SUB NOT DUP2 AND PUSH1 0x0 SWAP1 DUP2 MSTORE PUSH1 0x20 DUP2 SWAP1 MSTORE PUSH1 0x40 SWAP1 KECCAK256 SLOAD PUSH1 0xFF AND JUMPDEST SWAP2 SWAP1 POP JUMP JUMPDEST PUSH1 0x0 DUP3 DUP2 MSTORE PUSH1 0xA PUSH1 0x20 MSTORE PUSH1 0x40 DUP1 DUP3 KECCAK256 SLOAD SWAP1 MLOAD PUSH4 0x6EB1769F PUSH1 0xE1 SHL DUP2 MSTORE PUSH1 0x1 PUSH1 0x1 PUSH1 0xA0 SHL SUB SWAP1 SWAP2 AND SWAP1 DUP2 SWAP1 PUSH4 0xDD62ED3E SWAP1 PUSH3 0x43B SWAP1 DUP7 SWAP1 ADDRESS SWAP1 PUSH1 0x4 ADD PUSH3 0x4180 JUMP JUMPDEST PUSH1 0x20 PUSH1 0x40 MLOAD DUP1 DUP4 SUB DUP2 DUP7 DUP1 EXTCODESIZE ISZERO DUP1 ISZERO PUSH3 0x454 JUMPI PUSH1 0x0 DUP1 REVERT JUMPDEST POP GAS STATICCALL ISZERO DUP1 ISZERO PUSH3 0x469 JUMPI RETURNDATASIZE PUSH1 0x0 DUP1 RETURNDATACOPY RETURNDATASIZE PUSH1 0x0 REVERT JUMPDEST POP POP POP POP PUSH1 0x40 MLOAD RETURNDATASIZE PUSH1 0x1F NOT PUSH1 0x1F DUP3 ADD AND DUP3 ADD DUP1 PUSH1 0x40 MSTORE POP DUP2 ADD SWAP1 PUSH3 0x48F SWAP2 SWAP1 PUSH3 0x3F36 JUMP JUMPDEST SWAP2 POP POP JUMPDEST SWAP3 SWAP2 POP POP JUMP JUMPDEST PUSH1 0x6 DUP1 SLOAD PUSH1 0x40 DUP1 MLOAD PUSH1 0x20 PUSH1 0x1F PUSH1 0x2 PUSH1 0x0 NOT PUSH2 0x100 PUSH1 0x1 DUP9 AND ISZERO MUL ADD SWAP1 SWAP6 AND SWAP5 SWAP1 SWAP5 DIV SWAP4 DUP5 ADD DUP2 SWAP1 DIV DUP2 MUL DUP3 ADD DUP2 ADD SWAP1 SWAP3 MSTORE DUP3 DUP2 MSTORE PUSH1 0x60 SWAP4 SWAP1 SWAP3 SWAP1 SWAP2 DUP4 ADD DUP3 DUP3 DUP1 ISZERO PUSH3 0x529 JUMPI DUP1 PUSH1 0x1F LT PUSH3 0x4FD JUMPI PUSH2 0x100 DUP1 DUP4 SLOAD DIV MUL DUP4 MSTORE SWAP2 PUSH1 0x20 ADD SWAP2 PUSH3 0x529 JUMP JUMPDEST DUP3 ADD SWAP2 SWAP1 PUSH1 0x0 MSTORE PUSH1 0x20 PUSH1 0x0 KECCAK256 SWAP1 JUMPDEST DUP2 SLOAD DUP2 MSTORE SWAP1 PUSH1 0x1 ADD SWAP1 PUSH1 0x20 ADD DUP1 DUP4 GT PUSH3 0x50B JUMPI DUP3 SWAP1 SUB PUSH1 0x1F AND DUP3 ADD SWAP2 JUMPDEST POP POP POP POP POP SWAP1 POP SWAP1 JUMP JUMPDEST PUSH1 0x0 PUSH3 0x540 DUP3 PUSH3 0x167E JUMP JUMPDEST PUSH3 0x568 JUMPI PUSH1 0x40 MLOAD PUSH3 0x461BCD PUSH1 0xE5 SHL DUP2 MSTORE PUSH1 0x4 ADD PUSH3 0x55F SWAP1 PUSH3 0x460B JUMP JUMPDEST PUSH1 0x40 MLOAD DUP1 SWAP2 SUB SWAP1 REVERT JUMPDEST POP PUSH1 0x0 SWAP1 DUP2 MSTORE PUSH1 0x4 PUSH1 0x20 MSTORE PUSH1 0x40 SWAP1 KECCAK256 SLOAD PUSH1 0x1 PUSH1 0x1 PUSH1 0xA0 SHL SUB AND SWAP1 JUMP JUMPDEST PUSH1 0x0 PUSH3 0x591 DUP3 PUSH3 0xC22 JUMP JUMPDEST SWAP1 POP DUP1 PUSH1 0x1 PUSH1 0x1 PUSH1 0xA0 SHL SUB AND DUP4 PUSH1 0x1 PUSH1 0x1 PUSH1 0xA0 SHL SUB AND EQ ISZERO PUSH3 0x5C8 JUMPI PUSH1 0x40 MLOAD PUSH3 0x461BCD PUSH1 0xE5 SHL DUP2 MSTORE PUSH1 0x4 ADD PUSH3 0x55F SWAP1 PUSH3 0x46EF JUMP JUMPDEST DUP1 PUSH1 0x1 PUSH1 0x1 PUSH1 0xA0 SHL SUB AND PUSH3 0x5DC PUSH3 0x168D JUMP JUMPDEST PUSH1 0x1 PUSH1 0x1 PUSH1 0xA0 SHL SUB AND EQ DUP1 PUSH3 0x5FC JUMPI POP PUSH3 0x5FC DUP2 PUSH3 0x3D0 PUSH3 0x168D JUMP JUMPDEST PUSH3 0x61B JUMPI PUSH1 0x40 MLOAD PUSH3 0x461BCD PUSH1 0xE5 SHL DUP2 MSTORE PUSH1 0x4 ADD PUSH3 0x55F SWAP1 PUSH3 0x44AC JUMP JUMPDEST PUSH3 0x627 DUP4 DUP4 PUSH3 0x1691 JUMP JUMPDEST POP POP POP JUMP JUMPDEST PUSH1 0x0 PUSH3 0x63A PUSH1 0x2 PUSH3 0x1701 JUMP JUMPDEST SWAP1 POP SWAP1 JUMP JUMPDEST PUSH3 0x654 PUSH3 0x64D PUSH3 0x168D JUMP JUMPDEST DUP3 PUSH3 0x170E JUMP JUMPDEST PUSH3 0x673 JUMPI PUSH1 0x40 MLOAD PUSH3 0x461BCD PUSH1 0xE5 SHL DUP2 MSTORE PUSH1 0x4 ADD PUSH3 0x55F SWAP1 PUSH3 0x474D JUMP JUMPDEST PUSH3 0x627 DUP4 DUP4 DUP4 PUSH3 0x1798 JUMP JUMPDEST PUSH1 0x1 PUSH1 0x1 PUSH1 0xA0 SHL SUB DUP3 AND PUSH1 0x0 SWAP1 DUP2 MSTORE PUSH1 0x1 PUSH1 0x20 MSTORE PUSH1 0x40 DUP2 KECCAK256 PUSH3 0x6A4 SWAP1 DUP4 PUSH3 0x18B8 JUMP JUMPDEST SWAP4 SWAP3 POP POP POP JUMP JUMPDEST PUSH1 0xF SLOAD PUSH1 0x1 PUSH1 0x1 PUSH1 0xA0 SHL SUB AND CALLER EQ PUSH3 0x6D8 JUMPI PUSH1 0x40 MLOAD PUSH3 0x461BCD PUSH1 0xE5 SHL DUP2 MSTORE PUSH1 0x4 ADD PUSH3 0x55F SWAP1 PUSH3 0x47F2 JUMP JUMPDEST PUSH1 0xB SLOAD PUSH1 0x40 MLOAD PUSH4 0x23B872DD PUSH1 0xE0 SHL DUP2 MSTORE PUSH1 0x1 PUSH1 0x1 PUSH1 0xA0 SHL SUB SWAP1 SWAP2 AND SWAP1 PUSH4 0x23B872DD SWAP1 PUSH3 0x70E SWAP1 CALLER SWAP1 DUP7 SWAP1 DUP7 SWAP1 PUSH1 0x4 ADD PUSH3 0x411D JUMP JUMPDEST PUSH1 0x20 PUSH1 0x40 MLOAD DUP1 DUP4 SUB DUP2 PUSH1 0x0 DUP8 DUP1 EXTCODESIZE ISZERO DUP1 ISZERO PUSH3 0x729 JUMPI PUSH1 0x0 DUP1 REVERT JUMPDEST POP GAS CALL ISZERO DUP1 ISZERO PUSH3 0x73E JUMPI RETURNDATASIZE PUSH1 0x0 DUP1 RETURNDATACOPY RETURNDATASIZE PUSH1 0x0 REVERT JUMPDEST POP POP POP POP PUSH1 0x40 MLOAD RETURNDATASIZE PUSH1 0x1F NOT PUSH1 0x1F DUP3 ADD AND DUP3 ADD DUP1 PUSH1 0x40 MSTORE POP DUP2 ADD SWAP1 PUSH3 0x764 SWAP2 SWAP1 PUSH3 0x3E7E JUMP JUMPDEST POP PUSH1 0xB SLOAD PUSH1 0x40 MLOAD PUSH4 0x363798F9 PUSH1 0xE1 SHL DUP2 MSTORE PUSH1 0x1 PUSH1 0x1 PUSH1 0xA0 SHL SUB SWAP1 SWAP2 AND SWAP1 PUSH4 0x6C6F31F2 SWAP1 PUSH3 0x799 SWAP1 DUP6 SWAP1 DUP6 SWAP1 PUSH1 0x4 ADD PUSH3 0x419A JUMP JUMPDEST PUSH1 0x0 PUSH1 0x40 MLOAD DUP1 DUP4 SUB DUP2 PUSH1 0x0 DUP8 DUP1 EXTCODESIZE ISZERO DUP1 ISZERO PUSH3 0x7B4 JUMPI PUSH1 0x0 DUP1 REVERT JUMPDEST POP GAS CALL ISZERO DUP1 ISZERO PUSH3 0x7C9 JUMPI RETURNDATASIZE PUSH1 0x0 DUP1 RETURNDATACOPY RETURNDATASIZE PUSH1 0x0 REVERT JUMPDEST POP POP POP POP POP POP JUMP JUMPDEST PUSH3 0x7DB PUSH3 0x3A96 JUMP JUMPDEST PUSH1 0x0 PUSH3 0x7E8 DUP4 PUSH3 0xC22 JUMP JUMPDEST PUSH1 0x0 DUP5 DUP2 MSTORE PUSH1 0xA PUSH1 0x20 MSTORE PUSH1 0x40 DUP1 DUP3 KECCAK256 SLOAD DUP2 MLOAD PUSH4 0x565974D3 PUSH1 0xE0 SHL DUP2 MSTORE SWAP2 MLOAD SWAP4 SWAP5 POP PUSH1 0x1 PUSH1 0x1 PUSH1 0xA0 SHL SUB AND SWAP3 PUSH1 0x60 SWAP2 DUP3 SWAP2 DUP5 SWAP2 DUP3 SWAP2 DUP3 SWAP2 DUP9 SWAP2 PUSH4 0x565974D3 SWAP2 PUSH1 0x4 DUP1 DUP3 ADD SWAP3 DUP7 SWAP3 SWAP1 SWAP2 SWAP1 DUP3 SWAP1 SUB ADD DUP2 DUP7 DUP1 EXTCODESIZE ISZERO DUP1 ISZERO PUSH3 0x846 JUMPI PUSH1 0x0 DUP1 REVERT JUMPDEST POP GAS STATICCALL ISZERO DUP1 ISZERO PUSH3 0x85B JUMPI RETURNDATASIZE PUSH1 0x0 DUP1 RETURNDATACOPY RETURNDATASIZE PUSH1 0x0 REVERT JUMPDEST POP POP POP POP PUSH1 0x40 MLOAD RETURNDATASIZE PUSH1 0x0 DUP3 RETURNDATACOPY PUSH1 0x1F RETURNDATASIZE SWAP1 DUP2 ADD PUSH1 0x1F NOT AND DUP3 ADD PUSH1 0x40 MSTORE PUSH3 0x885 SWAP2 SWAP1 DUP2 ADD SWAP1 PUSH3 0x3DAA JUMP JUMPDEST SWAP6 POP SWAP6 POP SWAP6 POP SWAP6 POP SWAP6 POP SWAP6 POP PUSH1 0x40 MLOAD DUP1 PUSH2 0x100 ADD PUSH1 0x40 MSTORE DUP1 DUP12 DUP2 MSTORE PUSH1 0x20 ADD DUP10 PUSH1 0x1 PUSH1 0x1 PUSH1 0xA0 SHL SUB AND DUP2 MSTORE PUSH1 0x20 ADD DUP8 PUSH1 0x1 PUSH1 0x1 PUSH1 0xA0 SHL SUB AND DUP2 MSTORE PUSH1 0x20 ADD DUP7 DUP2 MSTORE PUSH1 0x20 ADD DUP6 DUP2 MSTORE PUSH1 0x20 ADD DUP5 DUP2 MSTORE PUSH1 0x20 ADD DUP4 DUP2 MSTORE PUSH1 0x20 ADD DUP3 PUSH1 0x1 PUSH1 0x1 PUSH1 0xA0 SHL SUB AND DUP2 MSTORE POP SWAP9 POP POP POP POP POP POP POP POP POP SWAP2 SWAP1 POP JUMP JUMPDEST PUSH3 0x627 DUP4 DUP4 DUP4 PUSH1 0x40 MLOAD DUP1 PUSH1 0x20 ADD PUSH1 0x40 MSTORE DUP1 PUSH1 0x0 DUP2 MSTORE POP PUSH3 0x1422 JUMP JUMPDEST PUSH1 0x60 PUSH3 0x923 PUSH1 0x20 DUP4 ADD DUP4 PUSH3 0x49D7 JUMP JUMPDEST DUP1 DUP1 PUSH1 0x1F ADD PUSH1 0x20 DUP1 SWAP2 DIV MUL PUSH1 0x20 ADD PUSH1 0x40 MLOAD SWAP1 DUP2 ADD PUSH1 0x40 MSTORE DUP1 SWAP4 SWAP3 SWAP2 SWAP1 DUP2 DUP2 MSTORE PUSH1 0x20 ADD DUP4 DUP4 DUP1 DUP3 DUP5 CALLDATACOPY PUSH1 0x0 SWAP3 ADD SWAP2 SWAP1 SWAP2 MSTORE POP SWAP3 SWAP4 POP PUSH1 0x60 SWAP3 POP PUSH3 0x96D SWAP2 POP POP PUSH1 0x40 DUP5 ADD DUP5 PUSH3 0x49D7 JUMP JUMPDEST DUP1 DUP1 PUSH1 0x1F ADD PUSH1 0x20 DUP1 SWAP2 DIV MUL PUSH1 0x20 ADD PUSH1 0x40 MLOAD SWAP1 DUP2 ADD PUSH1 0x40 MSTORE DUP1 SWAP4 SWAP3 SWAP2 SWAP1 DUP2 DUP2 MSTORE PUSH1 0x20 ADD DUP4 DUP4 DUP1 DUP3 DUP5 CALLDATACOPY PUSH1 0x0 SWAP3 ADD SWAP2 SWAP1 SWAP2 MSTORE POP POP DUP5 MLOAD SWAP3 SWAP4 POP POP POP PUSH3 0x9B0 JUMPI PUSH1 0x0 DUP1 REVERT JUMPDEST PUSH1 0x0 DUP2 MLOAD GT PUSH3 0x9BF JUMPI PUSH1 0x0 DUP1 REVERT JUMPDEST DUP3 CALLDATALOAD PUSH3 0x9CB JUMPI PUSH1 0x0 DUP1 REVERT JUMPDEST PUSH1 0x0 DUP4 PUSH1 0x60 ADD CALLDATALOAD GT PUSH3 0x9DD JUMPI PUSH1 0x0 DUP1 REVERT JUMPDEST PUSH1 0x0 PUSH3 0x9F1 PUSH1 0xC0 DUP6 ADD PUSH1 0xA0 DUP7 ADD PUSH3 0x3C2A JUMP JUMPDEST PUSH1 0x1 PUSH1 0x1 PUSH1 0xA0 SHL SUB AND EQ ISZERO PUSH3 0xA06 JUMPI PUSH1 0x0 DUP1 REVERT JUMPDEST PUSH1 0xF SLOAD PUSH1 0x1 PUSH1 0x1 PUSH1 0xA0 SHL SUB AND CALLER EQ PUSH3 0xA1E JUMPI PUSH1 0x0 DUP1 REVERT JUMPDEST PUSH3 0xA2B CALLER DUP5 CALLDATALOAD PUSH3 0x18C6 JUMP JUMPDEST PUSH1 0x0 PUSH3 0xA3C PUSH1 0x20 DUP6 ADD DUP6 PUSH3 0x49D7 JUMP JUMPDEST PUSH3 0xA4B PUSH1 0x40 DUP8 ADD DUP8 PUSH3 0x49D7 JUMP JUMPDEST PUSH1 0x60 DUP9 ADD CALLDATALOAD PUSH1 0x80 DUP10 ADD CALLDATALOAD PUSH3 0xA67 PUSH1 0xC0 DUP12 ADD PUSH1 0xA0 DUP13 ADD PUSH3 0x3C2A JUMP JUMPDEST PUSH1 0x40 MLOAD PUSH3 0xA75 SWAP1 PUSH3 0x3AF6 JUMP JUMPDEST PUSH3 0xA87 SWAP8 SWAP7 SWAP6 SWAP5 SWAP4 SWAP3 SWAP2 SWAP1 PUSH3 0x4234 JUMP JUMPDEST PUSH1 0x40 MLOAD DUP1 SWAP2 SUB SWAP1 PUSH1 0x0 CREATE DUP1 ISZERO DUP1 ISZERO PUSH3 0xAA4 JUMPI RETURNDATASIZE PUSH1 0x0 DUP1 RETURNDATACOPY RETURNDATASIZE PUSH1 0x0 REVERT JUMPDEST POP SWAP4 CALLDATALOAD PUSH1 0x0 SWAP1 DUP2 MSTORE PUSH1 0xA PUSH1 0x20 MSTORE PUSH1 0x40 SWAP1 KECCAK256 DUP1 SLOAD PUSH1 0x1 PUSH1 0x1 PUSH1 0xA0 SHL SUB NOT AND PUSH1 0x1 PUSH1 0x1 PUSH1 0xA0 SHL SUB SWAP1 SWAP6 AND SWAP5 SWAP1 SWAP5 OR SWAP1 SWAP4 SSTORE POP POP POP JUMP JUMPDEST PUSH1 0x0 DUP1 PUSH3 0xAE8 PUSH1 0x2 DUP5 PUSH3 0x18E6 JUMP JUMPDEST POP SWAP4 SWAP3 POP POP POP JUMP JUMPDEST PUSH3 0xAFA PUSH3 0x3B04 JUMP JUMPDEST PUSH1 0x0 DUP3 DUP2 MSTORE PUSH1 0xC PUSH1 0x20 SWAP1 DUP2 MSTORE PUSH1 0x40 SWAP2 DUP3 SWAP1 KECCAK256 DUP3 MLOAD PUSH2 0x1E0 DUP2 ADD SWAP1 SWAP4 MSTORE DUP1 SLOAD PUSH2 0x1A0 DUP5 ADD SWAP1 DUP2 MSTORE PUSH1 0x1 DUP1 DUP4 ADD SLOAD PUSH2 0x1C0 DUP7 ADD MSTORE SWAP1 DUP5 MSTORE PUSH1 0x2 DUP3 ADD SLOAD SWAP2 SWAP3 DUP5 ADD SWAP2 PUSH1 0xFF AND SWAP1 DUP2 GT ISZERO PUSH3 0xB47 JUMPI INVALID JUMPDEST PUSH1 0x1 DUP2 GT ISZERO PUSH3 0xB53 JUMPI INVALID JUMPDEST DUP2 MSTORE PUSH1 0x20 ADD PUSH1 0x2 DUP3 ADD PUSH1 0x1 SWAP1 SLOAD SWAP1 PUSH2 0x100 EXP SWAP1 DIV PUSH1 0xFF AND PUSH1 0x4 DUP2 GT ISZERO PUSH3 0xB76 JUMPI INVALID JUMPDEST PUSH1 0x4 DUP2 GT ISZERO PUSH3 0xB82 JUMPI INVALID JUMPDEST DUP2 MSTORE PUSH1 0x2 DUP3 ADD SLOAD PUSH1 0x1 PUSH1 0x1 PUSH1 0xA0 SHL SUB PUSH3 0x10000 SWAP1 SWAP2 DIV DUP2 AND PUSH1 0x20 DUP4 ADD MSTORE PUSH1 0x3 DUP1 DUP5 ADD SLOAD SWAP1 SWAP2 AND PUSH1 0x40 DUP4 ADD MSTORE PUSH1 0x4 DUP4 ADD SLOAD PUSH1 0x60 DUP4 ADD MSTORE PUSH1 0x5 DUP4 ADD SLOAD PUSH1 0x80 DUP4 ADD MSTORE PUSH1 0x6 DUP4 ADD SLOAD PUSH1 0xA0 DUP4 ADD MSTORE PUSH1 0x7 DUP4 ADD SLOAD PUSH1 0xC0 DUP4 ADD MSTORE PUSH1 0x8 DUP4 ADD SLOAD PUSH1 0xE0 SWAP1 SWAP3 ADD SWAP2 PUSH1 0xFF AND SWAP1 DUP2 GT ISZERO PUSH3 0xBEE JUMPI INVALID JUMPDEST PUSH1 0x3 DUP2 GT ISZERO PUSH3 0xBFA JUMPI INVALID JUMPDEST DUP2 MSTORE PUSH1 0x9 DUP3 ADD SLOAD PUSH1 0x20 DUP3 ADD MSTORE PUSH1 0xA DUP3 ADD SLOAD PUSH1 0x40 DUP3 ADD MSTORE PUSH1 0xB SWAP1 SWAP2 ADD SLOAD PUSH1 0x60 SWAP1 SWAP2 ADD MSTORE SWAP3 SWAP2 POP POP JUMP JUMPDEST PUSH1 0x0 PUSH3 0x493 DUP3 PUSH1 0x40 MLOAD DUP1 PUSH1 0x60 ADD PUSH1 0x40 MSTORE DUP1 PUSH1 0x29 DUP2 MSTORE PUSH1 0x20 ADD PUSH3 0x5C25 PUSH1 0x29 SWAP2 CODECOPY PUSH1 0x2 SWAP2 SWAP1 PUSH3 0x1906 JUMP JUMPDEST PUSH1 0x9 DUP1 SLOAD PUSH1 0x40 DUP1 MLOAD PUSH1 0x20 PUSH1 0x1F PUSH1 0x2 PUSH1 0x0 NOT PUSH2 0x100 PUSH1 0x1 DUP9 AND ISZERO MUL ADD SWAP1 SWAP6 AND SWAP5 SWAP1 SWAP5 DIV SWAP4 DUP5 ADD DUP2 SWAP1 DIV DUP2 MUL DUP3 ADD DUP2 ADD SWAP1 SWAP3 MSTORE DUP3 DUP2 MSTORE PUSH1 0x60 SWAP4 SWAP1 SWAP3 SWAP1 SWAP2 DUP4 ADD DUP3 DUP3 DUP1 ISZERO PUSH3 0x529 JUMPI DUP1 PUSH1 0x1F LT PUSH3 0x4FD JUMPI PUSH2 0x100 DUP1 DUP4 SLOAD DIV MUL DUP4 MSTORE SWAP2 PUSH1 0x20 ADD SWAP2 PUSH3 0x529 JUMP JUMPDEST PUSH1 0x0 PUSH1 0x1 PUSH1 0x1 PUSH1 0xA0 SHL SUB DUP3 AND PUSH3 0xCDC JUMPI PUSH1 0x40 MLOAD PUSH3 0x461BCD PUSH1 0xE5 SHL DUP2 MSTORE PUSH1 0x4 ADD PUSH3 0x55F SWAP1 PUSH3 0x4509 JUMP JUMPDEST PUSH1 0x1 PUSH1 0x1 PUSH1 0xA0 SHL SUB DUP3 AND PUSH1 0x0 SWAP1 DUP2 MSTORE PUSH1 0x1 PUSH1 0x20 MSTORE PUSH1 0x40 SWAP1 KECCAK256 PUSH3 0x493 SWAP1 PUSH3 0x1701 JUMP JUMPDEST PUSH1 0x0 DUP2 PUSH1 0x80 ADD CALLDATALOAD GT PUSH3 0xD11 JUMPI PUSH1 0x0 DUP1 REVERT JUMPDEST PUSH1 0x0 DUP2 PUSH1 0x40 ADD CALLDATALOAD GT PUSH3 0xD23 JUMPI PUSH1 0x0 DUP1 REVERT JUMPDEST PUSH1 0x0 DUP2 PUSH1 0x60 ADD CALLDATALOAD GT PUSH3 0xD35 JUMPI PUSH1 0x0 DUP1 REVERT JUMPDEST PUSH1 0x0 DUP1 DUP1 PUSH3 0xD48 PUSH1 0x20 DUP6 ADD DUP6 PUSH3 0x3F15 JUMP JUMPDEST PUSH1 0x1 DUP2 GT ISZERO PUSH3 0xD54 JUMPI INVALID JUMPDEST EQ ISZERO PUSH3 0xE82 JUMPI POP PUSH1 0x0 SWAP1 POP CALLER DUP2 PUSH3 0xD76 PUSH1 0x40 DUP6 ADD CALLDATALOAD PUSH1 0x60 DUP7 ADD CALLDATALOAD PUSH3 0x191D JUMP JUMPDEST PUSH1 0xB SLOAD PUSH1 0x40 MLOAD PUSH4 0x6EB1769F PUSH1 0xE1 SHL DUP2 MSTORE SWAP2 SWAP3 POP PUSH1 0x0 SWAP2 PUSH1 0x1 PUSH1 0x1 PUSH1 0xA0 SHL SUB SWAP1 SWAP2 AND SWAP1 PUSH4 0xDD62ED3E SWAP1 PUSH3 0xDB0 SWAP1 DUP7 SWAP1 ADDRESS SWAP1 PUSH1 0x4 ADD PUSH3 0x4180 JUMP JUMPDEST PUSH1 0x20 PUSH1 0x40 MLOAD DUP1 DUP4 SUB DUP2 DUP7 DUP1 EXTCODESIZE ISZERO DUP1 ISZERO PUSH3 0xDC9 JUMPI PUSH1 0x0 DUP1 REVERT JUMPDEST POP GAS STATICCALL ISZERO DUP1 ISZERO PUSH3 0xDDE JUMPI RETURNDATASIZE PUSH1 0x0 DUP1 RETURNDATACOPY RETURNDATASIZE PUSH1 0x0 REVERT JUMPDEST POP POP POP POP PUSH1 0x40 MLOAD RETURNDATASIZE PUSH1 0x1F NOT PUSH1 0x1F DUP3 ADD AND DUP3 ADD DUP1 PUSH1 0x40 MSTORE POP DUP2 ADD SWAP1 PUSH3 0xE04 SWAP2 SWAP1 PUSH3 0x3F36 JUMP JUMPDEST SWAP1 POP DUP2 DUP2 LT PUSH3 0xE60 JUMPI PUSH3 0xE1C DUP4 DUP4 PUSH1 0x0 PUSH3 0x195D JUMP JUMPDEST PUSH1 0x1 PUSH1 0x1 PUSH1 0xA0 SHL SUB DUP4 AND PUSH1 0x0 SWAP1 DUP2 MSTORE PUSH1 0x10 PUSH1 0x20 MSTORE PUSH1 0x40 SWAP1 KECCAK256 SLOAD PUSH3 0xE41 SWAP1 DUP4 PUSH3 0x1AF4 JUMP JUMPDEST PUSH1 0x1 PUSH1 0x1 PUSH1 0xA0 SHL SUB DUP5 AND PUSH1 0x0 SWAP1 DUP2 MSTORE PUSH1 0x10 PUSH1 0x20 MSTORE PUSH1 0x40 SWAP1 KECCAK256 SSTORE PUSH3 0xE7A JUMP JUMPDEST PUSH1 0x40 MLOAD PUSH3 0x461BCD PUSH1 0xE5 SHL DUP2 MSTORE PUSH1 0x4 ADD PUSH3 0x55F SWAP1 PUSH3 0x482B JUMP JUMPDEST POP POP PUSH3 0x1079 JUMP JUMPDEST PUSH1 0x1 PUSH3 0xE93 PUSH1 0x20 DUP6 ADD DUP6 PUSH3 0x3F15 JUMP JUMPDEST PUSH1 0x1 DUP2 GT ISZERO PUSH3 0xE9F JUMPI INVALID JUMPDEST EQ ISZERO PUSH3 0x1079 JUMPI POP POP PUSH1 0x80 DUP2 ADD CALLDATALOAD PUSH1 0x0 SWAP1 DUP2 MSTORE PUSH1 0xA PUSH1 0x20 MSTORE PUSH1 0x40 DUP1 DUP3 KECCAK256 SLOAD SWAP1 MLOAD PUSH4 0x6EB1769F PUSH1 0xE1 SHL DUP2 MSTORE CALLER SWAP3 SWAP2 PUSH1 0x1 PUSH1 0x1 PUSH1 0xA0 SHL SUB AND SWAP1 DUP3 SWAP1 DUP3 SWAP1 PUSH4 0xDD62ED3E SWAP1 PUSH3 0xEF2 SWAP1 DUP8 SWAP1 ADDRESS SWAP1 PUSH1 0x4 ADD PUSH3 0x4180 JUMP JUMPDEST PUSH1 0x20 PUSH1 0x40 MLOAD DUP1 DUP4 SUB DUP2 DUP7 DUP1 EXTCODESIZE ISZERO DUP1 ISZERO PUSH3 0xF0B JUMPI PUSH1 0x0 DUP1 REVERT JUMPDEST POP GAS STATICCALL ISZERO DUP1 ISZERO PUSH3 0xF20 JUMPI RETURNDATASIZE PUSH1 0x0 DUP1 RETURNDATACOPY RETURNDATASIZE PUSH1 0x0 REVERT JUMPDEST POP POP POP POP PUSH1 0x40 MLOAD RETURNDATASIZE PUSH1 0x1F NOT PUSH1 0x1F DUP3 ADD AND DUP3 ADD DUP1 PUSH1 0x40 MSTORE POP DUP2 ADD SWAP1 PUSH3 0xF46 SWAP2 SWAP1 PUSH3 0x3F36 JUMP JUMPDEST SWAP1 POP DUP5 PUSH1 0x40 ADD CALLDATALOAD DUP2 LT ISZERO PUSH3 0xF6F JUMPI PUSH1 0x40 MLOAD PUSH3 0x461BCD PUSH1 0xE5 SHL DUP2 MSTORE PUSH1 0x4 ADD PUSH3 0x55F SWAP1 PUSH3 0x479E JUMP JUMPDEST PUSH1 0xF SLOAD PUSH1 0x40 DUP1 MLOAD PUSH4 0x23B872DD PUSH1 0xE0 SHL DUP2 MSTORE PUSH1 0x1 PUSH1 0x1 PUSH1 0xA0 SHL SUB DUP6 DUP2 AND SWAP4 PUSH4 0x23B872DD SWAP4 PUSH3 0xFAB SWAP4 DUP11 SWAP4 SWAP1 SWAP3 AND SWAP2 SWAP1 DUP12 ADD CALLDATALOAD SWAP1 PUSH1 0x4 ADD PUSH3 0x411D JUMP JUMPDEST PUSH1 0x20 PUSH1 0x40 MLOAD DUP1 DUP4 SUB DUP2 PUSH1 0x0 DUP8 DUP1 EXTCODESIZE ISZERO DUP1 ISZERO PUSH3 0xFC6 JUMPI PUSH1 0x0 DUP1 REVERT JUMPDEST POP GAS CALL ISZERO DUP1 ISZERO PUSH3 0xFDB JUMPI RETURNDATASIZE PUSH1 0x0 DUP1 RETURNDATACOPY RETURNDATASIZE PUSH1 0x0 REVERT JUMPDEST POP POP POP POP PUSH1 0x40 MLOAD RETURNDATASIZE PUSH1 0x1F NOT PUSH1 0x1F DUP3 ADD AND DUP3 ADD DUP1 PUSH1 0x40 MSTORE POP DUP2 ADD SWAP1 PUSH3 0x1001 SWAP2 SWAP1 PUSH3 0x3E7E JUMP JUMPDEST ISZERO PUSH3 0x1076 JUMPI PUSH1 0xF SLOAD PUSH1 0x40 DUP1 MLOAD PUSH4 0x363798F9 PUSH1 0xE1 SHL DUP2 MSTORE PUSH1 0x1 PUSH1 0x1 PUSH1 0xA0 SHL SUB DUP1 DUP7 AND SWAP4 PUSH4 0x6C6F31F2 SWAP4 PUSH3 0x1041 SWAP4 SWAP2 SWAP1 SWAP3 AND SWAP2 DUP11 ADD CALLDATALOAD SWAP1 PUSH1 0x4 ADD PUSH3 0x419A JUMP JUMPDEST PUSH1 0x0 PUSH1 0x40 MLOAD DUP1 DUP4 SUB DUP2 PUSH1 0x0 DUP8 DUP1 EXTCODESIZE ISZERO DUP1 ISZERO PUSH3 0x105C JUMPI PUSH1 0x0 DUP1 REVERT JUMPDEST POP GAS CALL ISZERO DUP1 ISZERO PUSH3 0x1071 JUMPI RETURNDATASIZE PUSH1 0x0 DUP1 RETURNDATACOPY RETURNDATASIZE PUSH1 0x0 REVERT JUMPDEST POP POP POP POP JUMPDEST POP POP JUMPDEST PUSH3 0x1083 PUSH3 0x3B92 JUMP JUMPDEST POP PUSH1 0x40 DUP1 MLOAD DUP1 DUP3 ADD SWAP1 SWAP2 MSTORE PUSH1 0xC0 DUP5 ADD CALLDATALOAD DUP2 MSTORE TIMESTAMP PUSH1 0x20 DUP3 ADD MSTORE PUSH3 0x10A5 PUSH3 0x3B04 JUMP JUMPDEST PUSH1 0x40 DUP1 MLOAD PUSH2 0x1A0 DUP2 ADD SWAP1 SWAP2 MSTORE DUP3 DUP2 MSTORE PUSH1 0x20 DUP1 DUP3 ADD SWAP1 PUSH3 0x10C8 SWAP1 DUP9 ADD DUP9 PUSH3 0x3F15 JUMP JUMPDEST PUSH1 0x1 DUP2 GT ISZERO PUSH3 0x10D4 JUMPI INVALID JUMPDEST DUP2 MSTORE PUSH1 0x20 ADD DUP7 PUSH1 0x20 ADD PUSH1 0x20 DUP2 ADD SWAP1 PUSH3 0x10EE SWAP2 SWAP1 PUSH3 0x3EF4 JUMP JUMPDEST PUSH1 0x4 DUP2 GT ISZERO PUSH3 0x10FA JUMPI INVALID JUMPDEST DUP2 MSTORE PUSH1 0x20 ADD DUP6 PUSH1 0x1 PUSH1 0x1 PUSH1 0xA0 SHL SUB AND DUP2 MSTORE PUSH1 0x20 ADD DUP5 PUSH1 0x1 PUSH1 0x1 PUSH1 0xA0 SHL SUB AND DUP2 MSTORE PUSH1 0x20 ADD DUP7 PUSH1 0x80 ADD CALLDATALOAD DUP2 MSTORE PUSH1 0x20 ADD DUP7 PUSH1 0x40 ADD CALLDATALOAD DUP2 MSTORE PUSH1 0x20 ADD DUP7 PUSH1 0x40 ADD CALLDATALOAD DUP2 MSTORE PUSH1 0x20 ADD DUP7 PUSH1 0x60 ADD CALLDATALOAD DUP2 MSTORE PUSH1 0x20 ADD PUSH1 0x0 PUSH1 0x3 DUP2 GT ISZERO PUSH3 0x1153 JUMPI INVALID JUMPDEST DUP2 MSTORE PUSH1 0x20 ADD TIMESTAMP DUP2 MSTORE PUSH1 0x20 ADD TIMESTAMP DUP2 MSTORE PUSH1 0x20 ADD DUP7 PUSH1 0xA0 ADD CALLDATALOAD DUP2 MSTORE POP SWAP1 POP DUP1 PUSH1 0xC PUSH1 0x0 DUP8 PUSH1 0xC0 ADD CALLDATALOAD DUP2 MSTORE PUSH1 0x20 ADD SWAP1 DUP2 MSTORE PUSH1 0x20 ADD PUSH1 0x0 KECCAK256 PUSH1 0x0 DUP3 ADD MLOAD DUP2 PUSH1 0x0 ADD PUSH1 0x0 DUP3 ADD MLOAD DUP2 PUSH1 0x0 ADD SSTORE PUSH1 0x20 DUP3 ADD MLOAD DUP2 PUSH1 0x1 ADD SSTORE POP POP PUSH1 0x20 DUP3 ADD MLOAD DUP2 PUSH1 0x2 ADD PUSH1 0x0 PUSH2 0x100 EXP DUP2 SLOAD DUP2 PUSH1 0xFF MUL NOT AND SWAP1 DUP4 PUSH1 0x1 DUP2 GT ISZERO PUSH3 0x11CA JUMPI INVALID JUMPDEST MUL OR SWAP1 SSTORE POP PUSH1 0x40 DUP3 ADD MLOAD PUSH1 0x2 DUP3 ADD DUP1 SLOAD PUSH2 0xFF00 NOT AND PUSH2 0x100 DUP4 PUSH1 0x4 DUP2 GT ISZERO PUSH3 0x11EF JUMPI INVALID JUMPDEST MUL OR SWAP1 SSTORE POP PUSH1 0x60 DUP3 ADD MLOAD PUSH1 0x2 DUP3 ADD DUP1 SLOAD PUSH3 0x10000 PUSH1 0x1 PUSH1 0xB0 SHL SUB NOT AND PUSH3 0x10000 PUSH1 0x1 PUSH1 0x1 PUSH1 0xA0 SHL SUB SWAP4 DUP5 AND MUL OR SWAP1 SSTORE PUSH1 0x80 DUP4 ADD MLOAD PUSH1 0x3 DUP1 DUP5 ADD DUP1 SLOAD PUSH1 0x1 PUSH1 0x1 PUSH1 0xA0 SHL SUB NOT AND SWAP3 SWAP1 SWAP4 AND SWAP2 SWAP1 SWAP2 OR SWAP1 SWAP2 SSTORE PUSH1 0xA0 DUP4 ADD MLOAD PUSH1 0x4 DUP4 ADD SSTORE PUSH1 0xC0 DUP4 ADD MLOAD PUSH1 0x5 DUP4 ADD SSTORE PUSH1 0xE0 DUP4 ADD MLOAD PUSH1 0x6 DUP4 ADD SSTORE PUSH2 0x100 DUP4 ADD MLOAD PUSH1 0x7 DUP4 ADD SSTORE PUSH2 0x120 DUP4 ADD MLOAD PUSH1 0x8 DUP4 ADD DUP1 SLOAD SWAP2 SWAP3 SWAP1 SWAP2 PUSH1 0xFF NOT AND SWAP1 PUSH1 0x1 SWAP1 DUP5 SWAP1 DUP2 GT ISZERO PUSH3 0x128C JUMPI INVALID JUMPDEST MUL OR SWAP1 SSTORE POP PUSH2 0x140 DUP3 ADD MLOAD DUP2 PUSH1 0x9 ADD SSTORE PUSH2 0x160 DUP3 ADD MLOAD DUP2 PUSH1 0xA ADD SSTORE PUSH2 0x180 DUP3 ADD MLOAD DUP2 PUSH1 0xB ADD SSTORE SWAP1 POP POP PUSH3 0x12D3 DUP2 PUSH1 0x0 ADD MLOAD DUP3 PUSH1 0x20 ADD MLOAD DUP4 PUSH1 0x80 ADD MLOAD DUP5 PUSH1 0x60 ADD MLOAD PUSH3 0x1B1C JUMP JUMPDEST PUSH3 0x12DE DUP2 PUSH3 0x1D9A JUMP JUMPDEST POP POP POP POP POP JUMP JUMPDEST PUSH1 0x7 DUP1 SLOAD PUSH1 0x40 DUP1 MLOAD PUSH1 0x20 PUSH1 0x1F PUSH1 0x2 PUSH1 0x0 NOT PUSH2 0x100 PUSH1 0x1 DUP9 AND ISZERO MUL ADD SWAP1 SWAP6 AND SWAP5 SWAP1 SWAP5 DIV SWAP4 DUP5 ADD DUP2 SWAP1 DIV DUP2 MUL DUP3 ADD DUP2 ADD SWAP1 SWAP3 MSTORE DUP3 DUP2 MSTORE PUSH1 0x60 SWAP4 SWAP1 SWAP3 SWAP1 SWAP2 DUP4 ADD DUP3 DUP3 DUP1 ISZERO PUSH3 0x529 JUMPI DUP1 PUSH1 0x1F LT PUSH3 0x4FD JUMPI PUSH2 0x100 DUP1 DUP4 SLOAD DIV MUL DUP4 MSTORE SWAP2 PUSH1 0x20 ADD SWAP2 PUSH3 0x529 JUMP JUMPDEST PUSH3 0x1353 PUSH3 0x168D JUMP JUMPDEST PUSH1 0x1 PUSH1 0x1 PUSH1 0xA0 SHL SUB AND DUP3 PUSH1 0x1 PUSH1 0x1 PUSH1 0xA0 SHL SUB AND EQ ISZERO PUSH3 0x1387 JUMPI PUSH1 0x40 MLOAD PUSH3 0x461BCD PUSH1 0xE5 SHL DUP2 MSTORE PUSH1 0x4 ADD PUSH3 0x55F SWAP1 PUSH3 0x43E3 JUMP JUMPDEST DUP1 PUSH1 0x5 PUSH1 0x0 PUSH3 0x1396 PUSH3 0x168D JUMP JUMPDEST PUSH1 0x1 PUSH1 0x1 PUSH1 0xA0 SHL SUB SWAP1 DUP2 AND DUP3 MSTORE PUSH1 0x20 DUP1 DUP4 ADD SWAP4 SWAP1 SWAP4 MSTORE PUSH1 0x40 SWAP2 DUP3 ADD PUSH1 0x0 SWAP1 DUP2 KECCAK256 SWAP2 DUP8 AND DUP1 DUP3 MSTORE SWAP2 SWAP1 SWAP4 MSTORE SWAP2 KECCAK256 DUP1 SLOAD PUSH1 0xFF NOT AND SWAP3 ISZERO ISZERO SWAP3 SWAP1 SWAP3 OR SWAP1 SWAP2 SSTORE PUSH3 0x13DC PUSH3 0x168D JUMP JUMPDEST PUSH1 0x1 PUSH1 0x1 PUSH1 0xA0 SHL SUB AND PUSH32 0x17307EAB39AB6107E8899845AD3D59BD9653F200F220920489CA2B5937696C31 DUP4 PUSH1 0x40 MLOAD PUSH3 0x1416 SWAP2 SWAP1 PUSH3 0x4229 JUMP JUMPDEST PUSH1 0x40 MLOAD DUP1 SWAP2 SUB SWAP1 LOG3 POP POP JUMP JUMPDEST PUSH3 0x1437 PUSH3 0x1430 PUSH3 0x168D JUMP JUMPDEST DUP4 PUSH3 0x170E JUMP JUMPDEST PUSH3 0x1456 JUMPI PUSH1 0x40 MLOAD PUSH3 0x461BCD PUSH1 0xE5 SHL DUP2 MSTORE PUSH1 0x4 ADD PUSH3 0x55F SWAP1 PUSH3 0x474D JUMP JUMPDEST PUSH3 0x1464 DUP5 DUP5 DUP5 DUP5 PUSH3 0x28D9 JUMP JUMPDEST POP POP POP POP JUMP JUMPDEST PUSH1 0x60 PUSH3 0x1477 DUP3 PUSH3 0x167E JUMP JUMPDEST PUSH3 0x1496 JUMPI PUSH1 0x40 MLOAD PUSH3 0x461BCD PUSH1 0xE5 SHL DUP2 MSTORE PUSH1 0x4 ADD PUSH3 0x55F SWAP1 PUSH3 0x46A0 JUMP JUMPDEST PUSH1 0x0 DUP3 DUP2 MSTORE PUSH1 0x8 PUSH1 0x20 SWAP1 DUP2 MSTORE PUSH1 0x40 SWAP2 DUP3 SWAP1 KECCAK256 DUP1 SLOAD DUP4 MLOAD PUSH1 0x1F PUSH1 0x2 PUSH1 0x0 NOT PUSH2 0x100 PUSH1 0x1 DUP7 AND ISZERO MUL ADD SWAP1 SWAP4 AND SWAP3 SWAP1 SWAP3 DIV SWAP2 DUP3 ADD DUP5 SWAP1 DIV DUP5 MUL DUP2 ADD DUP5 ADD SWAP1 SWAP5 MSTORE DUP1 DUP5 MSTORE PUSH1 0x60 SWAP4 SWAP3 DUP4 ADD DUP3 DUP3 DUP1 ISZERO PUSH3 0x152F JUMPI DUP1 PUSH1 0x1F LT PUSH3 0x1503 JUMPI PUSH2 0x100 DUP1 DUP4 SLOAD DIV MUL DUP4 MSTORE SWAP2 PUSH1 0x20 ADD SWAP2 PUSH3 0x152F JUMP JUMPDEST DUP3 ADD SWAP2 SWAP1 PUSH1 0x0 MSTORE PUSH1 0x20 PUSH1 0x0 KECCAK256 SWAP1 JUMPDEST DUP2 SLOAD DUP2 MSTORE SWAP1 PUSH1 0x1 ADD SWAP1 PUSH1 0x20 ADD DUP1 DUP4 GT PUSH3 0x1511 JUMPI DUP3 SWAP1 SUB PUSH1 0x1F AND DUP3 ADD SWAP2 JUMPDEST POP POP PUSH1 0x9 SLOAD SWAP4 SWAP5 POP POP POP POP PUSH1 0x2 PUSH1 0x0 NOT PUSH2 0x100 PUSH1 0x1 DUP5 AND ISZERO MUL ADD SWAP1 SWAP2 AND DIV PUSH3 0x155A JUMPI SWAP1 POP PUSH3 0x3F4 JUMP JUMPDEST DUP1 MLOAD ISZERO PUSH3 0x1590 JUMPI PUSH1 0x9 DUP2 PUSH1 0x40 MLOAD PUSH1 0x20 ADD PUSH3 0x1578 SWAP3 SWAP2 SWAP1 PUSH3 0x4080 JUMP JUMPDEST PUSH1 0x40 MLOAD PUSH1 0x20 DUP2 DUP4 SUB SUB DUP2 MSTORE SWAP1 PUSH1 0x40 MSTORE SWAP2 POP POP PUSH3 0x3F4 JUMP JUMPDEST PUSH1 0x9 PUSH3 0x159D DUP5 PUSH3 0x2913 JUMP JUMPDEST PUSH1 0x40 MLOAD PUSH1 0x20 ADD PUSH3 0x15B0 SWAP3 SWAP2 SWAP1 PUSH3 0x4080 JUMP JUMPDEST PUSH1 0x40 MLOAD PUSH1 0x20 DUP2 DUP4 SUB SUB DUP2 MSTORE SWAP1 PUSH1 0x40 MSTORE SWAP2 POP POP SWAP2 SWAP1 POP JUMP JUMPDEST PUSH1 0xB SLOAD PUSH1 0x40 MLOAD PUSH4 0x6EB1769F PUSH1 0xE1 SHL DUP2 MSTORE PUSH1 0x0 SWAP2 PUSH1 0x1 PUSH1 0x1 PUSH1 0xA0 SHL SUB AND SWAP1 PUSH4 0xDD62ED3E SWAP1 PUSH3 0x15FC SWAP1 DUP6 SWAP1 ADDRESS SWAP1 PUSH1 0x4 ADD PUSH3 0x4180 JUMP JUMPDEST PUSH1 0x20 PUSH1 0x40 MLOAD DUP1 DUP4 SUB DUP2 DUP7 DUP1 EXTCODESIZE ISZERO DUP1 ISZERO PUSH3 0x1615 JUMPI PUSH1 0x0 DUP1 REVERT JUMPDEST POP GAS STATICCALL ISZERO DUP1 ISZERO PUSH3 0x162A JUMPI RETURNDATASIZE PUSH1 0x0 DUP1 RETURNDATACOPY RETURNDATASIZE PUSH1 0x0 REVERT JUMPDEST POP POP POP POP PUSH1 0x40 MLOAD RETURNDATASIZE PUSH1 0x1F NOT PUSH1 0x1F DUP3 ADD AND DUP3 ADD DUP1 PUSH1 0x40 MSTORE POP DUP2 ADD SWAP1 PUSH3 0x493 SWAP2 SWAP1 PUSH3 0x3F36 JUMP JUMPDEST PUSH1 0x1 PUSH1 0x1 PUSH1 0xA0 SHL SUB SWAP2 DUP3 AND PUSH1 0x0 SWAP1 DUP2 MSTORE PUSH1 0x5 PUSH1 0x20 SWAP1 DUP2 MSTORE PUSH1 0x40 DUP1 DUP4 KECCAK256 SWAP4 SWAP1 SWAP5 AND DUP3 MSTORE SWAP2 SWAP1 SWAP2 MSTORE KECCAK256 SLOAD PUSH1 0xFF AND SWAP1 JUMP JUMPDEST PUSH1 0x0 PUSH3 0x493 PUSH1 0x2 DUP4 PUSH3 0x29F7 JUMP JUMPDEST CALLER SWAP1 JUMP JUMPDEST PUSH1 0x0 DUP2 DUP2 MSTORE PUSH1 0x4 PUSH1 0x20 MSTORE PUSH1 0x40 SWAP1 KECCAK256 DUP1 SLOAD PUSH1 0x1 PUSH1 0x1 PUSH1 0xA0 SHL SUB NOT AND PUSH1 0x1 PUSH1 0x1 PUSH1 0xA0 SHL SUB DUP5 AND SWAP1 DUP2 OR SWAP1 SWAP2 SSTORE DUP2 SWAP1 PUSH3 0x16C8 DUP3 PUSH3 0xC22 JUMP JUMPDEST PUSH1 0x1 PUSH1 0x1 PUSH1 0xA0 SHL SUB AND PUSH32 0x8C5BE1E5EBEC7D5BD14F71427D1E84F3DD0314C0F7B2291E5B200AC8C7C3B925 PUSH1 0x40 MLOAD PUSH1 0x40 MLOAD DUP1 SWAP2 SUB SWAP1 LOG4 POP POP JUMP JUMPDEST PUSH1 0x0 PUSH3 0x493 DUP3 PUSH3 0x2A05 JUMP JUMPDEST PUSH1 0x0 PUSH3 0x171B DUP3 PUSH3 0x167E JUMP JUMPDEST PUSH3 0x173A JUMPI PUSH1 0x40 MLOAD PUSH3 0x461BCD PUSH1 0xE5 SHL DUP2 MSTORE PUSH1 0x4 ADD PUSH3 0x55F SWAP1 PUSH3 0x4460 JUMP JUMPDEST PUSH1 0x0 PUSH3 0x1747 DUP4 PUSH3 0xC22 JUMP JUMPDEST SWAP1 POP DUP1 PUSH1 0x1 PUSH1 0x1 PUSH1 0xA0 SHL SUB AND DUP5 PUSH1 0x1 PUSH1 0x1 PUSH1 0xA0 SHL SUB AND EQ DUP1 PUSH3 0x1785 JUMPI POP DUP4 PUSH1 0x1 PUSH1 0x1 PUSH1 0xA0 SHL SUB AND PUSH3 0x177A DUP5 PUSH3 0x533 JUMP JUMPDEST PUSH1 0x1 PUSH1 0x1 PUSH1 0xA0 SHL SUB AND EQ JUMPDEST DUP1 PUSH3 0x48F JUMPI POP PUSH3 0x48F DUP2 DUP6 PUSH3 0x1650 JUMP JUMPDEST DUP3 PUSH1 0x1 PUSH1 0x1 PUSH1 0xA0 SHL SUB AND PUSH3 0x17AD DUP3 PUSH3 0xC22 JUMP JUMPDEST PUSH1 0x1 PUSH1 0x1 PUSH1 0xA0 SHL SUB AND EQ PUSH3 0x17D6 JUMPI PUSH1 0x40 MLOAD PUSH3 0x461BCD PUSH1 0xE5 SHL DUP2 MSTORE PUSH1 0x4 ADD PUSH3 0x55F SWAP1 PUSH3 0x4657 JUMP JUMPDEST PUSH1 0x1 PUSH1 0x1 PUSH1 0xA0 SHL SUB DUP3 AND PUSH3 0x17FF JUMPI PUSH1 0x40 MLOAD PUSH3 0x461BCD PUSH1 0xE5 SHL DUP2 MSTORE PUSH1 0x4 ADD PUSH3 0x55F SWAP1 PUSH3 0x439F JUMP JUMPDEST PUSH3 0x180C DUP4 DUP4 DUP4 PUSH3 0x627 JUMP JUMPDEST PUSH3 0x1819 PUSH1 0x0 DUP3 PUSH3 0x1691 JUMP JUMPDEST PUSH1 0x1 PUSH1 0x1 PUSH1 0xA0 SHL SUB DUP4 AND PUSH1 0x0 SWAP1 DUP2 MSTORE PUSH1 0x1 PUSH1 0x20 MSTORE PUSH1 0x40 SWAP1 KECCAK256 PUSH3 0x183D SWAP1 DUP3 PUSH3 0x2A09 JUMP JUMPDEST POP PUSH1 0x1 PUSH1 0x1 PUSH1 0xA0 SHL SUB DUP3 AND PUSH1 0x0 SWAP1 DUP2 MSTORE PUSH1 0x1 PUSH1 0x20 MSTORE PUSH1 0x40 SWAP1 KECCAK256 PUSH3 0x1862 SWAP1 DUP3 PUSH3 0x2A17 JUMP JUMPDEST POP PUSH3 0x1871 PUSH1 0x2 DUP3 DUP5 PUSH3 0x2A25 JUMP JUMPDEST POP DUP1 DUP3 PUSH1 0x1 PUSH1 0x1 PUSH1 0xA0 SHL SUB AND DUP5 PUSH1 0x1 PUSH1 0x1 PUSH1 0xA0 SHL SUB AND PUSH32 0xDDF252AD1BE2C89B69C2B068FC378DAA952BA7F163C4A11628F55A4DF523B3EF PUSH1 0x40 MLOAD PUSH1 0x40 MLOAD DUP1 SWAP2 SUB SWAP1 LOG4 POP POP POP JUMP JUMPDEST PUSH1 0x0 PUSH3 0x6A4 DUP4 DUP4 PUSH3 0x2A3D JUMP JUMPDEST PUSH3 0x18E2 DUP3 DUP3 PUSH1 0x40 MLOAD DUP1 PUSH1 0x20 ADD PUSH1 0x40 MSTORE DUP1 PUSH1 0x0 DUP2 MSTORE POP PUSH3 0x2A86 JUMP JUMPDEST POP POP JUMP JUMPDEST PUSH1 0x0 DUP1 DUP1 DUP1 PUSH3 0x18F7 DUP7 DUP7 PUSH3 0x2AC0 JUMP JUMPDEST SWAP1 SWAP5 POP SWAP3 POP POP POP JUMPDEST SWAP3 POP SWAP3 SWAP1 POP JUMP JUMPDEST PUSH1 0x0 PUSH3 0x1915 DUP5 DUP5 DUP5 PUSH3 0x2B20 JUMP JUMPDEST SWAP5 SWAP4 POP POP POP POP JUMP JUMPDEST PUSH1 0x0 DUP3 PUSH3 0x192E JUMPI POP PUSH1 0x0 PUSH3 0x493 JUMP JUMPDEST DUP3 DUP3 MUL DUP3 DUP5 DUP3 DUP2 PUSH3 0x193C JUMPI INVALID JUMPDEST DIV EQ PUSH3 0x6A4 JUMPI PUSH1 0x40 MLOAD PUSH3 0x461BCD PUSH1 0xE5 SHL DUP2 MSTORE PUSH1 0x4 ADD PUSH3 0x55F SWAP1 PUSH3 0x45CA JUMP JUMPDEST DUP1 ISZERO PUSH3 0x1A63 JUMPI PUSH1 0xB SLOAD PUSH1 0xF SLOAD PUSH1 0x40 MLOAD PUSH4 0x23B872DD PUSH1 0xE0 SHL DUP2 MSTORE PUSH1 0x1 PUSH1 0x1 PUSH1 0xA0 SHL SUB SWAP3 DUP4 AND SWAP3 PUSH4 0x23B872DD SWAP3 PUSH3 0x199E SWAP3 SWAP2 AND SWAP1 DUP8 SWAP1 DUP8 SWAP1 PUSH1 0x4 ADD PUSH3 0x411D JUMP JUMPDEST PUSH1 0x20 PUSH1 0x40 MLOAD DUP1 DUP4 SUB DUP2 PUSH1 0x0 DUP8 DUP1 EXTCODESIZE ISZERO DUP1 ISZERO PUSH3 0x19B9 JUMPI PUSH1 0x0 DUP1 REVERT JUMPDEST POP GAS CALL ISZERO DUP1 ISZERO PUSH3 0x19CE JUMPI RETURNDATASIZE PUSH1 0x0 DUP1 RETURNDATACOPY RETURNDATASIZE PUSH1 0x0 REVERT JUMPDEST POP POP POP POP PUSH1 0x40 MLOAD RETURNDATASIZE PUSH1 0x1F NOT PUSH1 0x1F DUP3 ADD AND DUP3 ADD DUP1 PUSH1 0x40 MSTORE POP DUP2 ADD SWAP1 PUSH3 0x19F4 SWAP2 SWAP1 PUSH3 0x3E7E JUMP JUMPDEST POP PUSH1 0xB SLOAD PUSH1 0x40 MLOAD PUSH4 0x363798F9 PUSH1 0xE1 SHL DUP2 MSTORE PUSH1 0x1 PUSH1 0x1 PUSH1 0xA0 SHL SUB SWAP1 SWAP2 AND SWAP1 PUSH4 0x6C6F31F2 SWAP1 PUSH3 0x1A29 SWAP1 DUP7 SWAP1 DUP7 SWAP1 PUSH1 0x4 ADD PUSH3 0x419A JUMP JUMPDEST PUSH1 0x0 PUSH1 0x40 MLOAD DUP1 DUP4 SUB DUP2 PUSH1 0x0 DUP8 DUP1 EXTCODESIZE ISZERO DUP1 ISZERO PUSH3 0x1A44 JUMPI PUSH1 0x0 DUP1 REVERT JUMPDEST POP GAS CALL ISZERO DUP1 ISZERO PUSH3 0x1A59 JUMPI RETURNDATASIZE PUSH1 0x0 DUP1 RETURNDATACOPY RETURNDATASIZE PUSH1 0x0 REVERT JUMPDEST POP POP POP POP PUSH3 0x627 JUMP JUMPDEST PUSH1 0xB SLOAD PUSH1 0xF SLOAD PUSH1 0x40 MLOAD PUSH4 0x23B872DD PUSH1 0xE0 SHL DUP2 MSTORE PUSH1 0x1 PUSH1 0x1 PUSH1 0xA0 SHL SUB SWAP3 DUP4 AND SWAP3 PUSH4 0x23B872DD SWAP3 PUSH3 0x1A9E SWAP3 DUP9 SWAP3 SWAP1 SWAP2 AND SWAP1 DUP8 SWAP1 PUSH1 0x4 ADD PUSH3 0x411D JUMP JUMPDEST PUSH1 0x20 PUSH1 0x40 MLOAD DUP1 DUP4 SUB DUP2 PUSH1 0x0 DUP8 DUP1 EXTCODESIZE ISZERO DUP1 ISZERO PUSH3 0x1AB9 JUMPI PUSH1 0x0 DUP1 REVERT JUMPDEST POP GAS CALL ISZERO DUP1 ISZERO PUSH3 0x1ACE JUMPI RETURNDATASIZE PUSH1 0x0 DUP1 RETURNDATACOPY RETURNDATASIZE PUSH1 0x0 REVERT JUMPDEST POP POP POP POP PUSH1 0x40 MLOAD RETURNDATASIZE PUSH1 0x1F NOT PUSH1 0x1F DUP3 ADD AND DUP3 ADD DUP1 PUSH1 0x40 MSTORE POP DUP2 ADD SWAP1 PUSH3 0x1464 SWAP2 SWAP1 PUSH3 0x3E7E JUMP JUMPDEST PUSH1 0x0 DUP3 DUP3 ADD DUP4 DUP2 LT ISZERO PUSH3 0x6A4 JUMPI PUSH1 0x40 MLOAD PUSH3 0x461BCD PUSH1 0xE5 SHL DUP2 MSTORE PUSH1 0x4 ADD PUSH3 0x55F SWAP1 PUSH3 0x4368 JUMP JUMPDEST PUSH1 0x40 DUP1 MLOAD DUP1 DUP3 ADD SWAP1 SWAP2 MSTORE PUSH1 0xE DUP2 MSTORE PUSH14 0x50454E44494E475F4F5244455253 PUSH1 0x90 SHL PUSH1 0x20 SWAP2 DUP3 ADD MSTORE PUSH1 0xD DUP2 MSTORE PUSH1 0x0 DUP1 MLOAD PUSH1 0x20 PUSH3 0x5BB3 DUP4 CODECOPY DUP2 MLOAD SWAP2 MSTORE DUP1 SLOAD PUSH1 0x1 DUP2 ADD DUP3 SSTORE PUSH1 0x0 SWAP2 DUP3 MSTORE DUP7 MLOAD PUSH32 0x34B52BAF7691F83D40DFBE47E7633AAB79F1D5FF22E1D7EB52DB0F053A4386D PUSH1 0x2 SWAP1 SWAP3 MUL SWAP2 DUP3 ADD SSTORE SWAP2 DUP7 ADD MLOAD PUSH32 0x34B52BAF7691F83D40DFBE47E7633AAB79F1D5FF22E1D7EB52DB0F053A4386E SWAP1 SWAP3 ADD SWAP2 SWAP1 SWAP2 SSTORE DUP4 PUSH1 0x1 DUP2 GT ISZERO PUSH3 0x1BC8 JUMPI INVALID JUMPDEST EQ ISZERO PUSH3 0x1CB4 JUMPI PUSH1 0x40 DUP1 MLOAD DUP1 DUP3 ADD DUP3 MSTORE PUSH1 0xA DUP2 MSTORE PUSH10 0x4255595F4F5244455253 PUSH1 0xB0 SHL PUSH1 0x20 SWAP2 DUP3 ADD MSTORE PUSH1 0xD DUP2 MSTORE PUSH32 0xF34C455ECB5DE31F82D36825BAD0AEB58D036A39FD40A24FEC0EC35DE170B355 DUP1 SLOAD PUSH1 0x1 DUP2 DUP2 ADD DUP4 SSTORE PUSH1 0x0 SWAP3 DUP4 MSTORE DUP9 MLOAD PUSH1 0x2 SWAP3 DUP4 MUL PUSH32 0x7825A2E82DBA6400485829F8F9949481ADF4DD15BACAB3D9360B5903CB060A09 DUP2 ADD SWAP2 SWAP1 SWAP2 SSTORE DUP10 DUP6 ADD DUP1 MLOAD PUSH32 0x7825A2E82DBA6400485829F8F9949481ADF4DD15BACAB3D9360B5903CB060A0A SWAP1 SWAP3 ADD SWAP2 SWAP1 SWAP2 SSTORE PUSH1 0x1 PUSH1 0x1 PUSH1 0xA0 SHL SUB DUP9 AND DUP5 MSTORE PUSH1 0xE DUP6 MSTORE SWAP5 DUP4 KECCAK256 DUP1 SLOAD DUP1 DUP4 ADD DUP3 SSTORE SWAP1 DUP5 MSTORE SWAP4 SWAP1 SWAP3 KECCAK256 DUP9 MLOAD SWAP4 SWAP1 SWAP2 MUL ADD SWAP2 DUP3 SSTORE SWAP2 MLOAD SWAP2 ADD SSTORE PUSH3 0x1464 JUMP JUMPDEST PUSH1 0x40 DUP1 MLOAD DUP1 DUP3 ADD DUP3 MSTORE PUSH1 0xB DUP2 MSTORE PUSH11 0x53454C4C5F4F5244455253 PUSH1 0xA8 SHL PUSH1 0x20 SWAP2 DUP3 ADD MSTORE PUSH1 0xD DUP2 MSTORE PUSH32 0x48C1C91527EB21AA80D2B076DE8E4AB8FB1BCBD06905B9762CB5BA913A9D61C0 DUP1 SLOAD PUSH1 0x1 DUP2 DUP2 ADD DUP4 SSTORE PUSH1 0x0 SWAP3 DUP4 MSTORE DUP9 MLOAD PUSH1 0x2 SWAP3 DUP4 MUL PUSH32 0xA62A6C2CA9635EF0F603DA97B3E7E3B717763E8236A23EE14977899E7F4EA815 DUP2 ADD SWAP2 SWAP1 SWAP2 SSTORE DUP10 DUP6 ADD DUP1 MLOAD PUSH32 0xA62A6C2CA9635EF0F603DA97B3E7E3B717763E8236A23EE14977899E7F4EA816 SWAP1 SWAP3 ADD SWAP2 SWAP1 SWAP2 SSTORE PUSH1 0x1 PUSH1 0x1 PUSH1 0xA0 SHL SUB DUP8 AND DUP5 MSTORE PUSH1 0xE DUP6 MSTORE SWAP5 DUP4 KECCAK256 DUP1 SLOAD DUP1 DUP4 ADD DUP3 SSTORE SWAP1 DUP5 MSTORE SWAP4 SWAP1 SWAP3 KECCAK256 DUP9 MLOAD SWAP4 SWAP1 SWAP2 MUL ADD SWAP2 DUP3 SSTORE SWAP2 MLOAD SWAP2 ADD SSTORE POP POP POP POP JUMP JUMPDEST PUSH1 0x0 PUSH3 0x1DA6 PUSH3 0x3B04 JUMP JUMPDEST POP PUSH1 0x40 DUP1 MLOAD DUP1 DUP3 ADD SWAP1 SWAP2 MSTORE PUSH1 0xE DUP2 MSTORE PUSH14 0x50454E44494E475F4F5244455253 PUSH1 0x90 SHL PUSH1 0x20 SWAP2 DUP3 ADD MSTORE PUSH1 0x0 DUP1 MLOAD PUSH1 0x20 PUSH3 0x5C05 DUP4 CODECOPY DUP2 MLOAD SWAP2 MSTORE PUSH1 0x0 MSTORE PUSH1 0xD SWAP1 MSTORE PUSH1 0x0 DUP1 MLOAD PUSH1 0x20 PUSH3 0x5BB3 DUP4 CODECOPY DUP2 MLOAD SWAP2 MSTORE SLOAD DUP3 SWAP1 PUSH1 0x1 DUP2 EQ ISZERO PUSH3 0x1E0A JUMPI POP POP POP PUSH3 0x28D6 JUMP JUMPDEST PUSH1 0x0 PUSH3 0x1E19 DUP3 PUSH1 0x1 PUSH3 0x2B83 JUMP JUMPDEST SWAP1 POP PUSH1 0x0 PUSH2 0x3E8 DUP4 GT PUSH3 0x1E2F JUMPI PUSH1 0x0 PUSH3 0x1E33 JUMP JUMPDEST PUSH2 0x3E8 JUMPDEST SWAP1 POP JUMPDEST DUP1 DUP3 LT ISZERO DUP1 ISZERO PUSH3 0x1E45 JUMPI POP DUP5 ISZERO JUMPDEST ISZERO PUSH3 0x7C9 JUMPI PUSH3 0x1E55 PUSH3 0x3B04 JUMP JUMPDEST PUSH1 0x40 DUP1 MLOAD DUP1 DUP3 ADD SWAP1 SWAP2 MSTORE PUSH1 0xE DUP2 MSTORE PUSH14 0x50454E44494E475F4F5244455253 PUSH1 0x90 SHL PUSH1 0x20 SWAP2 DUP3 ADD MSTORE PUSH1 0x0 DUP1 MLOAD PUSH1 0x20 PUSH3 0x5C05 DUP4 CODECOPY DUP2 MLOAD SWAP2 MSTORE PUSH1 0x0 SWAP1 DUP2 MSTORE PUSH1 0xD SWAP1 SWAP2 MSTORE PUSH1 0x0 DUP1 MLOAD PUSH1 0x20 PUSH3 0x5BB3 DUP4 CODECOPY DUP2 MLOAD SWAP2 MSTORE DUP1 SLOAD PUSH1 0xC SWAP3 SWAP2 SWAP1 DUP7 SWAP1 DUP2 LT PUSH3 0x1EB7 JUMPI INVALID JUMPDEST PUSH1 0x0 SWAP2 DUP3 MSTORE PUSH1 0x20 DUP1 DUP4 KECCAK256 PUSH1 0x2 SWAP3 DUP4 MUL ADD SLOAD DUP5 MSTORE DUP4 DUP2 ADD SWAP5 SWAP1 SWAP5 MSTORE PUSH1 0x40 SWAP3 DUP4 ADD SWAP1 SWAP2 KECCAK256 DUP3 MLOAD PUSH2 0x1E0 DUP2 ADD SWAP1 SWAP4 MSTORE DUP1 SLOAD PUSH2 0x1A0 DUP5 ADD SWAP1 DUP2 MSTORE PUSH1 0x1 DUP1 DUP4 ADD SLOAD PUSH2 0x1C0 DUP7 ADD MSTORE SWAP1 DUP5 MSTORE SWAP2 DUP2 ADD SLOAD SWAP3 SWAP4 SWAP1 SWAP3 SWAP1 DUP5 ADD SWAP2 PUSH1 0xFF SWAP1 SWAP2 AND SWAP1 DUP2 GT ISZERO PUSH3 0x1F18 JUMPI INVALID JUMPDEST PUSH1 0x1 DUP2 GT ISZERO PUSH3 0x1F24 JUMPI INVALID JUMPDEST DUP2 MSTORE PUSH1 0x20 ADD PUSH1 0x2 DUP3 ADD PUSH1 0x1 SWAP1 SLOAD SWAP1 PUSH2 0x100 EXP SWAP1 DIV PUSH1 0xFF AND PUSH1 0x4 DUP2 GT ISZERO PUSH3 0x1F47 JUMPI INVALID JUMPDEST PUSH1 0x4 DUP2 GT ISZERO PUSH3 0x1F53 JUMPI INVALID JUMPDEST DUP2 MSTORE PUSH1 0x2 DUP3 ADD SLOAD PUSH1 0x1 PUSH1 0x1 PUSH1 0xA0 SHL SUB PUSH3 0x10000 SWAP1 SWAP2 DIV DUP2 AND PUSH1 0x20 DUP4 ADD MSTORE PUSH1 0x3 DUP1 DUP5 ADD SLOAD SWAP1 SWAP2 AND PUSH1 0x40 DUP4 ADD MSTORE PUSH1 0x4 DUP4 ADD SLOAD PUSH1 0x60 DUP4 ADD MSTORE PUSH1 0x5 DUP4 ADD SLOAD PUSH1 0x80 DUP4 ADD MSTORE PUSH1 0x6 DUP4 ADD SLOAD PUSH1 0xA0 DUP4 ADD MSTORE PUSH1 0x7 DUP4 ADD SLOAD PUSH1 0xC0 DUP4 ADD MSTORE PUSH1 0x8 DUP4 ADD SLOAD PUSH1 0xE0 SWAP1 SWAP3 ADD SWAP2 PUSH1 0xFF AND SWAP1 DUP2 GT ISZERO PUSH3 0x1FBF JUMPI INVALID JUMPDEST PUSH1 0x3 DUP2 GT ISZERO PUSH3 0x1FCB JUMPI INVALID JUMPDEST DUP2 MSTORE PUSH1 0x20 ADD PUSH1 0x9 DUP3 ADD SLOAD DUP2 MSTORE PUSH1 0x20 ADD PUSH1 0xA DUP3 ADD SLOAD DUP2 MSTORE PUSH1 0x20 ADD PUSH1 0xB DUP3 ADD SLOAD DUP2 MSTORE POP POP SWAP1 POP PUSH1 0x0 DUP2 PUSH1 0xA0 ADD MLOAD DUP7 PUSH1 0xA0 ADD MLOAD EQ SWAP1 POP PUSH1 0x0 DUP7 PUSH1 0x20 ADD MLOAD PUSH1 0x1 DUP2 GT ISZERO PUSH3 0x2011 JUMPI INVALID JUMPDEST DUP4 PUSH1 0x20 ADD MLOAD PUSH1 0x1 DUP2 GT ISZERO PUSH3 0x2022 JUMPI INVALID JUMPDEST PUSH1 0x60 DUP6 ADD MLOAD SWAP2 EQ SWAP2 POP PUSH1 0x0 SWAP1 PUSH1 0x1 PUSH1 0x1 PUSH1 0xA0 SHL SUB AND ISZERO DUP1 ISZERO SWAP1 PUSH3 0x2052 JUMPI POP PUSH1 0x80 DUP9 ADD MLOAD PUSH1 0x1 PUSH1 0x1 PUSH1 0xA0 SHL SUB AND ISZERO ISZERO JUMPDEST ISZERO PUSH3 0x207D JUMPI DUP8 PUSH1 0x80 ADD MLOAD PUSH1 0x1 PUSH1 0x1 PUSH1 0xA0 SHL SUB AND DUP5 PUSH1 0x60 ADD MLOAD PUSH1 0x1 PUSH1 0x1 PUSH1 0xA0 SHL SUB AND EQ SWAP1 POP PUSH3 0x20CC JUMP JUMPDEST PUSH1 0x80 DUP5 ADD MLOAD PUSH1 0x1 PUSH1 0x1 PUSH1 0xA0 SHL SUB AND ISZERO DUP1 ISZERO SWAP1 PUSH3 0x20A6 JUMPI POP PUSH1 0x60 DUP9 ADD MLOAD PUSH1 0x1 PUSH1 0x1 PUSH1 0xA0 SHL SUB AND ISZERO ISZERO JUMPDEST ISZERO PUSH3 0x20CC JUMPI DUP8 PUSH1 0x60 ADD MLOAD PUSH1 0x1 PUSH1 0x1 PUSH1 0xA0 SHL SUB AND DUP5 PUSH1 0x80 ADD MLOAD PUSH1 0x1 PUSH1 0x1 PUSH1 0xA0 SHL SUB AND EQ SWAP1 POP JUMPDEST PUSH1 0x0 DUP4 DUP1 ISZERO PUSH3 0x20ED JUMPI POP PUSH1 0x0 DUP6 PUSH2 0x120 ADD MLOAD PUSH1 0x3 DUP2 GT ISZERO PUSH3 0x20EB JUMPI INVALID JUMPDEST EQ JUMPDEST DUP1 ISZERO PUSH3 0x20F8 JUMPI POP DUP3 ISZERO JUMPDEST DUP1 ISZERO PUSH3 0x2103 JUMPI POP DUP2 ISZERO JUMPDEST SWAP1 POP DUP1 ISZERO PUSH3 0x28AB JUMPI PUSH3 0x2116 PUSH3 0x3B04 JUMP JUMPDEST PUSH3 0x2120 PUSH3 0x3B04 JUMP JUMPDEST PUSH3 0x212A PUSH3 0x3BA9 JUMP JUMPDEST PUSH1 0x0 DUP13 PUSH1 0x20 ADD MLOAD PUSH1 0x1 DUP2 GT ISZERO PUSH3 0x213D JUMPI INVALID JUMPDEST EQ ISZERO PUSH3 0x22AA JUMPI DUP12 SWAP3 POP DUP8 SWAP2 POP PUSH3 0x2156 DUP4 DUP4 PUSH3 0x2BC7 JUMP JUMPDEST SWAP1 POP DUP1 PUSH1 0x0 ADD MLOAD SWAP13 POP PUSH1 0xC PUSH1 0x0 DUP5 PUSH1 0x0 ADD MLOAD PUSH1 0x0 ADD MLOAD DUP2 MSTORE PUSH1 0x20 ADD SWAP1 DUP2 MSTORE PUSH1 0x20 ADD PUSH1 0x0 KECCAK256 PUSH1 0x40 MLOAD DUP1 PUSH2 0x1A0 ADD PUSH1 0x40 MSTORE SWAP1 DUP2 PUSH1 0x0 DUP3 ADD PUSH1 0x40 MLOAD DUP1 PUSH1 0x40 ADD PUSH1 0x40 MSTORE SWAP1 DUP2 PUSH1 0x0 DUP3 ADD SLOAD DUP2 MSTORE PUSH1 0x20 ADD PUSH1 0x1 DUP3 ADD SLOAD DUP2 MSTORE POP POP DUP2 MSTORE PUSH1 0x20 ADD PUSH1 0x2 DUP3 ADD PUSH1 0x0 SWAP1 SLOAD SWAP1 PUSH2 0x100 EXP SWAP1 DIV PUSH1 0xFF AND PUSH1 0x1 DUP2 GT ISZERO PUSH3 0x21CD JUMPI INVALID JUMPDEST PUSH1 0x1 DUP2 GT ISZERO PUSH3 0x21D9 JUMPI INVALID JUMPDEST DUP2 MSTORE PUSH1 0x20 ADD PUSH1 0x2 DUP3 ADD PUSH1 0x1 SWAP1 SLOAD SWAP1 PUSH2 0x100 EXP SWAP1 DIV PUSH1 0xFF AND PUSH1 0x4 DUP2 GT ISZERO PUSH3 0x21FC JUMPI INVALID JUMPDEST PUSH1 0x4 DUP2 GT ISZERO PUSH3 0x2208 JUMPI INVALID JUMPDEST DUP2 MSTORE PUSH1 0x2 DUP3 ADD SLOAD PUSH1 0x1 PUSH1 0x1 PUSH1 0xA0 SHL SUB PUSH3 0x10000 SWAP1 SWAP2 DIV DUP2 AND PUSH1 0x20 DUP4 ADD MSTORE PUSH1 0x3 DUP1 DUP5 ADD SLOAD SWAP1 SWAP2 AND PUSH1 0x40 DUP4 ADD MSTORE PUSH1 0x4 DUP4 ADD SLOAD PUSH1 0x60 DUP4 ADD MSTORE PUSH1 0x5 DUP4 ADD SLOAD PUSH1 0x80 DUP4 ADD MSTORE PUSH1 0x6 DUP4 ADD SLOAD PUSH1 0xA0 DUP4 ADD MSTORE PUSH1 0x7 DUP4 ADD SLOAD PUSH1 0xC0 DUP4 ADD MSTORE PUSH1 0x8 DUP4 ADD SLOAD PUSH1 0xE0 SWAP1 SWAP3 ADD SWAP2 PUSH1 0xFF AND SWAP1 DUP2 GT ISZERO PUSH3 0x2274 JUMPI INVALID JUMPDEST PUSH1 0x3 DUP2 GT ISZERO PUSH3 0x2280 JUMPI INVALID JUMPDEST DUP2 MSTORE PUSH1 0x20 ADD PUSH1 0x9 DUP3 ADD SLOAD DUP2 MSTORE PUSH1 0x20 ADD PUSH1 0xA DUP3 ADD SLOAD DUP2 MSTORE PUSH1 0x20 ADD PUSH1 0xB DUP3 ADD SLOAD DUP2 MSTORE POP POP SWAP12 POP PUSH3 0x2425 JUMP JUMPDEST PUSH1 0x1 DUP13 PUSH1 0x20 ADD MLOAD PUSH1 0x1 DUP2 GT ISZERO PUSH3 0x22BD JUMPI INVALID JUMPDEST EQ ISZERO PUSH3 0x2425 JUMPI DUP12 SWAP2 POP DUP8 SWAP3 POP PUSH3 0x22D6 DUP4 DUP4 PUSH3 0x2BC7 JUMP JUMPDEST SWAP1 POP DUP1 PUSH1 0x0 ADD MLOAD SWAP13 POP PUSH1 0xC PUSH1 0x0 DUP4 PUSH1 0x0 ADD MLOAD PUSH1 0x0 ADD MLOAD DUP2 MSTORE PUSH1 0x20 ADD SWAP1 DUP2 MSTORE PUSH1 0x20 ADD PUSH1 0x0 KECCAK256 PUSH1 0x40 MLOAD DUP1 PUSH2 0x1A0 ADD PUSH1 0x40 MSTORE SWAP1 DUP2 PUSH1 0x0 DUP3 ADD PUSH1 0x40 MLOAD DUP1 PUSH1 0x40 ADD PUSH1 0x40 MSTORE SWAP1 DUP2 PUSH1 0x0 DUP3 ADD SLOAD DUP2 MSTORE PUSH1 0x20 ADD PUSH1 0x1 DUP3 ADD SLOAD DUP2 MSTORE POP POP DUP2 MSTORE PUSH1 0x20 ADD PUSH1 0x2 DUP3 ADD PUSH1 0x0 SWAP1 SLOAD SWAP1 PUSH2 0x100 EXP SWAP1 DIV PUSH1 0xFF AND PUSH1 0x1 DUP2 GT ISZERO PUSH3 0x234D JUMPI INVALID JUMPDEST PUSH1 0x1 DUP2 GT ISZERO PUSH3 0x2359 JUMPI INVALID JUMPDEST DUP2 MSTORE PUSH1 0x20 ADD PUSH1 0x2 DUP3 ADD PUSH1 0x1 SWAP1 SLOAD SWAP1 PUSH2 0x100 EXP SWAP1 DIV PUSH1 0xFF AND PUSH1 0x4 DUP2 GT ISZERO PUSH3 0x237C JUMPI INVALID JUMPDEST PUSH1 0x4 DUP2 GT ISZERO PUSH3 0x2388 JUMPI INVALID JUMPDEST DUP2 MSTORE PUSH1 0x2 DUP3 ADD SLOAD PUSH1 0x1 PUSH1 0x1 PUSH1 0xA0 SHL SUB PUSH3 0x10000 SWAP1 SWAP2 DIV DUP2 AND PUSH1 0x20 DUP4 ADD MSTORE PUSH1 0x3 DUP1 DUP5 ADD SLOAD SWAP1 SWAP2 AND PUSH1 0x40 DUP4 ADD MSTORE PUSH1 0x4 DUP4 ADD SLOAD PUSH1 0x60 DUP4 ADD MSTORE PUSH1 0x5 DUP4 ADD SLOAD PUSH1 0x80 DUP4 ADD MSTORE PUSH1 0x6 DUP4 ADD SLOAD PUSH1 0xA0 DUP4 ADD MSTORE PUSH1 0x7 DUP4 ADD SLOAD PUSH1 0xC0 DUP4 ADD MSTORE PUSH1 0x8 DUP4 ADD SLOAD PUSH1 0xE0 SWAP1 SWAP3 ADD SWAP2 PUSH1 0xFF AND SWAP1 DUP2 GT ISZERO PUSH3 0x23F4 JUMPI INVALID JUMPDEST PUSH1 0x3 DUP2 GT ISZERO PUSH3 0x2400 JUMPI INVALID JUMPDEST DUP2 MSTORE PUSH1 0x20 ADD PUSH1 0x9 DUP3 ADD SLOAD DUP2 MSTORE PUSH1 0x20 ADD PUSH1 0xA DUP3 ADD SLOAD DUP2 MSTORE PUSH1 0x20 ADD PUSH1 0xB DUP3 ADD SLOAD DUP2 MSTORE POP POP SWAP12 POP JUMPDEST PUSH1 0x1 DUP4 PUSH2 0x120 ADD MLOAD PUSH1 0x3 DUP2 GT ISZERO PUSH3 0x2439 JUMPI INVALID JUMPDEST EQ DUP1 PUSH3 0x2457 JUMPI POP PUSH1 0x1 DUP3 PUSH2 0x120 ADD MLOAD PUSH1 0x3 DUP2 GT ISZERO PUSH3 0x2455 JUMPI INVALID JUMPDEST EQ JUMPDEST ISZERO PUSH3 0x28A7 JUMPI PUSH1 0x0 PUSH3 0x247D DUP5 PUSH2 0x100 ADD MLOAD DUP4 PUSH1 0x60 ADD MLOAD PUSH3 0x191D SWAP1 SWAP2 SWAP1 PUSH4 0xFFFFFFFF AND JUMP JUMPDEST SWAP1 POP DUP1 PUSH1 0x1 DUP5 PUSH1 0x40 ADD MLOAD PUSH1 0x4 DUP2 GT ISZERO PUSH3 0x2493 JUMPI INVALID JUMPDEST EQ PUSH3 0x24B2 JUMPI PUSH2 0x100 DUP5 ADD MLOAD PUSH1 0x80 DUP5 ADD MLOAD PUSH3 0x24AF SWAP2 PUSH3 0x191D JUMP JUMPDEST SWAP1 POP JUMPDEST PUSH1 0x80 DUP6 ADD MLOAD PUSH1 0x1 PUSH1 0x1 PUSH1 0xA0 SHL SUB AND PUSH1 0x0 SWAP1 DUP2 MSTORE PUSH1 0x10 PUSH1 0x20 MSTORE PUSH1 0x40 SWAP1 KECCAK256 SLOAD PUSH3 0x24DB SWAP1 DUP4 PUSH3 0x2B83 JUMP JUMPDEST PUSH1 0x80 DUP7 ADD DUP1 MLOAD PUSH1 0x1 PUSH1 0x1 PUSH1 0xA0 SHL SUB AND PUSH1 0x0 SWAP1 DUP2 MSTORE PUSH1 0x10 PUSH1 0x20 MSTORE PUSH1 0x40 SWAP1 KECCAK256 SWAP2 SWAP1 SWAP2 SSTORE MLOAD PUSH3 0x250B SWAP1 DUP4 PUSH1 0x1 PUSH3 0x195D JUMP JUMPDEST PUSH1 0xA0 DUP6 ADD MLOAD PUSH1 0x0 SWAP1 DUP2 MSTORE PUSH1 0xA PUSH1 0x20 MSTORE PUSH1 0x40 SWAP1 DUP2 SWAP1 KECCAK256 SLOAD PUSH1 0xF SLOAD PUSH1 0x60 DUP1 DUP9 ADD MLOAD SWAP1 DUP8 ADD MLOAD SWAP4 MLOAD PUSH4 0x23B872DD PUSH1 0xE0 SHL DUP2 MSTORE PUSH1 0x1 PUSH1 0x1 PUSH1 0xA0 SHL SUB SWAP4 DUP5 AND SWAP5 DUP6 SWAP5 PUSH4 0x23B872DD SWAP5 PUSH3 0x2562 SWAP5 SWAP2 AND SWAP3 SWAP1 SWAP2 SWAP1 PUSH1 0x4 ADD PUSH3 0x411D JUMP JUMPDEST PUSH1 0x20 PUSH1 0x40 MLOAD DUP1 DUP4 SUB DUP2 PUSH1 0x0 DUP8 DUP1 EXTCODESIZE ISZERO DUP1 ISZERO PUSH3 0x257D JUMPI PUSH1 0x0 DUP1 REVERT JUMPDEST POP GAS CALL ISZERO DUP1 ISZERO PUSH3 0x2592 JUMPI RETURNDATASIZE PUSH1 0x0 DUP1 RETURNDATACOPY RETURNDATASIZE PUSH1 0x0 REVERT JUMPDEST POP POP POP POP PUSH1 0x40 MLOAD RETURNDATASIZE PUSH1 0x1F NOT PUSH1 0x1F DUP3 ADD AND DUP3 ADD DUP1 PUSH1 0x40 MSTORE POP DUP2 ADD SWAP1 PUSH3 0x25B8 SWAP2 SWAP1 PUSH3 0x3E7E JUMP JUMPDEST ISZERO PUSH3 0x262E JUMPI PUSH1 0x60 DUP1 DUP7 ADD MLOAD SWAP1 DUP6 ADD MLOAD PUSH1 0x40 MLOAD PUSH4 0x363798F9 PUSH1 0xE1 SHL DUP2 MSTORE PUSH1 0x1 PUSH1 0x1 PUSH1 0xA0 SHL SUB DUP5 AND SWAP3 PUSH4 0x6C6F31F2 SWAP3 PUSH3 0x25F4 SWAP3 PUSH1 0x4 ADD PUSH3 0x419A JUMP JUMPDEST PUSH1 0x0 PUSH1 0x40 MLOAD DUP1 DUP4 SUB DUP2 PUSH1 0x0 DUP8 DUP1 EXTCODESIZE ISZERO DUP1 ISZERO PUSH3 0x260F JUMPI PUSH1 0x0 DUP1 REVERT JUMPDEST POP GAS CALL ISZERO DUP1 ISZERO PUSH3 0x2624 JUMPI RETURNDATASIZE PUSH1 0x0 DUP1 RETURNDATACOPY RETURNDATASIZE PUSH1 0x0 REVERT JUMPDEST POP POP POP POP PUSH3 0x2648 JUMP JUMPDEST PUSH1 0x40 MLOAD PUSH3 0x461BCD PUSH1 0xE5 SHL DUP2 MSTORE PUSH1 0x4 ADD PUSH3 0x55F SWAP1 PUSH3 0x4730 JUMP JUMPDEST PUSH1 0xB SLOAD PUSH1 0x80 DUP8 ADD MLOAD PUSH1 0x60 DUP1 DUP9 ADD MLOAD PUSH2 0x100 DUP11 ADD MLOAD SWAP2 DUP9 ADD MLOAD PUSH1 0x1 PUSH1 0x1 PUSH1 0xA0 SHL SUB SWAP1 SWAP5 AND SWAP4 PUSH4 0x23B872DD SWAP4 SWAP3 PUSH3 0x267F SWAP2 SWAP1 PUSH3 0x191D JUMP JUMPDEST PUSH1 0x40 MLOAD DUP5 PUSH4 0xFFFFFFFF AND PUSH1 0xE0 SHL DUP2 MSTORE PUSH1 0x4 ADD PUSH3 0x269F SWAP4 SWAP3 SWAP2 SWAP1 PUSH3 0x411D JUMP JUMPDEST PUSH1 0x20 PUSH1 0x40 MLOAD DUP1 DUP4 SUB DUP2 PUSH1 0x0 DUP8 DUP1 EXTCODESIZE ISZERO DUP1 ISZERO PUSH3 0x26BA JUMPI PUSH1 0x0 DUP1 REVERT JUMPDEST POP GAS CALL ISZERO DUP1 ISZERO PUSH3 0x26CF JUMPI RETURNDATASIZE PUSH1 0x0 DUP1 RETURNDATACOPY RETURNDATASIZE PUSH1 0x0 REVERT JUMPDEST POP POP POP POP PUSH1 0x40 MLOAD RETURNDATASIZE PUSH1 0x1F NOT PUSH1 0x1F DUP3 ADD AND DUP3 ADD DUP1 PUSH1 0x40 MSTORE POP DUP2 ADD SWAP1 PUSH3 0x26F5 SWAP2 SWAP1 PUSH3 0x3E7E JUMP JUMPDEST ISZERO PUSH3 0x2889 JUMPI PUSH1 0xB SLOAD PUSH1 0x60 DUP1 DUP8 ADD MLOAD PUSH2 0x100 DUP10 ADD MLOAD SWAP2 DUP8 ADD MLOAD PUSH1 0x1 PUSH1 0x1 PUSH1 0xA0 SHL SUB SWAP1 SWAP4 AND SWAP3 PUSH4 0x6C6F31F2 SWAP3 PUSH3 0x272C SWAP2 SWAP1 PUSH3 0x191D JUMP JUMPDEST PUSH1 0x40 MLOAD DUP4 PUSH4 0xFFFFFFFF AND PUSH1 0xE0 SHL DUP2 MSTORE PUSH1 0x4 ADD PUSH3 0x274B SWAP3 SWAP2 SWAP1 PUSH3 0x419A JUMP JUMPDEST PUSH1 0x0 PUSH1 0x40 MLOAD DUP1 DUP4 SUB DUP2 PUSH1 0x0 DUP8 DUP1 EXTCODESIZE ISZERO DUP1 ISZERO PUSH3 0x2766 JUMPI PUSH1 0x0 DUP1 REVERT JUMPDEST POP GAS CALL ISZERO DUP1 ISZERO PUSH3 0x277B JUMPI RETURNDATASIZE PUSH1 0x0 DUP1 RETURNDATACOPY RETURNDATASIZE PUSH1 0x0 REVERT JUMPDEST POP POP POP POP PUSH1 0x60 DUP6 DUP2 ADD MLOAD PUSH1 0x80 DUP9 ADD MLOAD SWAP2 DUP7 ADD MLOAD PUSH1 0x40 MLOAD PUSH4 0x23B872DD PUSH1 0xE0 SHL DUP2 MSTORE PUSH1 0x1 PUSH1 0x1 PUSH1 0xA0 SHL SUB DUP6 AND SWAP4 PUSH4 0x23B872DD SWAP4 PUSH3 0x27BC SWAP4 SWAP1 SWAP3 PUSH1 0x4 ADD PUSH3 0x411D JUMP JUMPDEST PUSH1 0x20 PUSH1 0x40 MLOAD DUP1 DUP4 SUB DUP2 PUSH1 0x0 DUP8 DUP1 EXTCODESIZE ISZERO DUP1 ISZERO PUSH3 0x27D7 JUMPI PUSH1 0x0 DUP1 REVERT JUMPDEST POP GAS CALL ISZERO DUP1 ISZERO PUSH3 0x27EC JUMPI RETURNDATASIZE PUSH1 0x0 DUP1 RETURNDATACOPY RETURNDATASIZE PUSH1 0x0 REVERT JUMPDEST POP POP POP POP PUSH1 0x40 MLOAD RETURNDATASIZE PUSH1 0x1F NOT PUSH1 0x1F DUP3 ADD AND DUP3 ADD DUP1 PUSH1 0x40 MSTORE POP DUP2 ADD SWAP1 PUSH3 0x2812 SWAP2 SWAP1 PUSH3 0x3E7E JUMP JUMPDEST ISZERO PUSH3 0x2883 JUMPI PUSH1 0x80 DUP7 ADD MLOAD PUSH1 0x60 DUP6 ADD MLOAD PUSH1 0x40 MLOAD PUSH4 0x363798F9 PUSH1 0xE1 SHL DUP2 MSTORE PUSH1 0x1 PUSH1 0x1 PUSH1 0xA0 SHL SUB DUP5 AND SWAP3 PUSH4 0x6C6F31F2 SWAP3 PUSH3 0x284E SWAP3 PUSH1 0x4 ADD PUSH3 0x419A JUMP JUMPDEST PUSH1 0x0 PUSH1 0x40 MLOAD DUP1 DUP4 SUB DUP2 PUSH1 0x0 DUP8 DUP1 EXTCODESIZE ISZERO DUP1 ISZERO PUSH3 0x2869 JUMPI PUSH1 0x0 DUP1 REVERT JUMPDEST POP GAS CALL ISZERO DUP1 ISZERO PUSH3 0x287E JUMPI RETURNDATASIZE PUSH1 0x0 DUP1 RETURNDATACOPY RETURNDATASIZE PUSH1 0x0 REVERT JUMPDEST POP POP POP POP JUMPDEST PUSH3 0x28A3 JUMP JUMPDEST PUSH1 0x40 MLOAD PUSH3 0x461BCD PUSH1 0xE5 SHL DUP2 MSTORE PUSH1 0x4 ADD PUSH3 0x55F SWAP1 PUSH3 0x480E JUMP JUMPDEST POP POP POP JUMPDEST POP POP POP JUMPDEST DUP7 PUSH3 0x28BC JUMPI POP POP POP POP POP PUSH3 0x7C9 JUMP JUMPDEST PUSH3 0x28C9 DUP8 PUSH1 0x1 PUSH3 0x2B83 JUMP JUMPDEST SWAP7 POP POP POP POP POP POP PUSH3 0x1E36 JUMP JUMPDEST POP JUMP JUMPDEST PUSH3 0x28E6 DUP5 DUP5 DUP5 PUSH3 0x1798 JUMP JUMPDEST PUSH3 0x28F4 DUP5 DUP5 DUP5 DUP5 PUSH3 0x301F JUMP JUMPDEST PUSH3 0x1464 JUMPI PUSH1 0x40 MLOAD PUSH3 0x461BCD PUSH1 0xE5 SHL DUP2 MSTORE PUSH1 0x4 ADD PUSH3 0x55F SWAP1 PUSH3 0x42DF JUMP JUMPDEST PUSH1 0x60 DUP2 PUSH3 0x293A JUMPI POP PUSH1 0x40 DUP1 MLOAD DUP1 DUP3 ADD SWAP1 SWAP2 MSTORE PUSH1 0x1 DUP2 MSTORE PUSH1 0x3 PUSH1 0xFC SHL PUSH1 0x20 DUP3 ADD MSTORE PUSH3 0x3F4 JUMP JUMPDEST DUP2 PUSH1 0x0 JUMPDEST DUP2 ISZERO PUSH3 0x2954 JUMPI PUSH1 0x1 ADD PUSH1 0xA DUP3 DIV SWAP2 POP PUSH3 0x293E JUMP JUMPDEST PUSH1 0x60 DUP2 PUSH8 0xFFFFFFFFFFFFFFFF DUP2 GT DUP1 ISZERO PUSH3 0x296E JUMPI PUSH1 0x0 DUP1 REVERT JUMPDEST POP PUSH1 0x40 MLOAD SWAP1 DUP1 DUP3 MSTORE DUP1 PUSH1 0x1F ADD PUSH1 0x1F NOT AND PUSH1 0x20 ADD DUP3 ADD PUSH1 0x40 MSTORE DUP1 ISZERO PUSH3 0x299A JUMPI PUSH1 0x20 DUP3 ADD DUP2 DUP1 CALLDATASIZE DUP4 CALLDATACOPY ADD SWAP1 POP JUMPDEST POP DUP6 SWAP4 POP SWAP1 POP PUSH1 0x0 NOT DUP3 ADD JUMPDEST DUP4 ISZERO PUSH3 0x29EE JUMPI PUSH1 0xA DUP5 MOD PUSH1 0x30 ADD PUSH1 0xF8 SHL DUP3 DUP3 DUP1 PUSH1 0x1 SWAP1 SUB SWAP4 POP DUP2 MLOAD DUP2 LT PUSH3 0x29CB JUMPI INVALID JUMPDEST PUSH1 0x20 ADD ADD SWAP1 PUSH1 0x1 PUSH1 0x1 PUSH1 0xF8 SHL SUB NOT AND SWAP1 DUP2 PUSH1 0x0 BYTE SWAP1 MSTORE8 POP PUSH1 0xA DUP5 DIV SWAP4 POP PUSH3 0x29A6 JUMP JUMPDEST POP SWAP5 SWAP4 POP POP POP POP JUMP JUMPDEST PUSH1 0x0 PUSH3 0x6A4 DUP4 DUP4 PUSH3 0x310B JUMP JUMPDEST SLOAD SWAP1 JUMP JUMPDEST PUSH1 0x0 PUSH3 0x6A4 DUP4 DUP4 PUSH3 0x3123 JUMP JUMPDEST PUSH1 0x0 PUSH3 0x6A4 DUP4 DUP4 PUSH3 0x31F6 JUMP JUMPDEST PUSH1 0x0 PUSH3 0x1915 DUP5 DUP5 PUSH1 0x1 PUSH1 0x1 PUSH1 0xA0 SHL SUB DUP6 AND PUSH3 0x3245 JUMP JUMPDEST DUP2 SLOAD PUSH1 0x0 SWAP1 DUP3 LT PUSH3 0x2A63 JUMPI PUSH1 0x40 MLOAD PUSH3 0x461BCD PUSH1 0xE5 SHL DUP2 MSTORE PUSH1 0x4 ADD PUSH3 0x55F SWAP1 PUSH3 0x429D JUMP JUMPDEST DUP3 PUSH1 0x0 ADD DUP3 DUP2 SLOAD DUP2 LT PUSH3 0x2A73 JUMPI INVALID JUMPDEST SWAP1 PUSH1 0x0 MSTORE PUSH1 0x20 PUSH1 0x0 KECCAK256 ADD SLOAD SWAP1 POP SWAP3 SWAP2 POP POP JUMP JUMPDEST PUSH3 0x2A92 DUP4 DUP4 PUSH3 0x32E0 JUMP JUMPDEST PUSH3 0x2AA1 PUSH1 0x0 DUP5 DUP5 DUP5 PUSH3 0x301F JUMP JUMPDEST PUSH3 0x627 JUMPI PUSH1 0x40 MLOAD PUSH3 0x461BCD PUSH1 0xE5 SHL DUP2 MSTORE PUSH1 0x4 ADD PUSH3 0x55F SWAP1 PUSH3 0x42DF JUMP JUMPDEST DUP2 SLOAD PUSH1 0x0 SWAP1 DUP2 SWAP1 DUP4 LT PUSH3 0x2AE8 JUMPI PUSH1 0x40 MLOAD PUSH3 0x461BCD PUSH1 0xE5 SHL DUP2 MSTORE PUSH1 0x4 ADD PUSH3 0x55F SWAP1 PUSH3 0x4553 JUMP JUMPDEST PUSH1 0x0 DUP5 PUSH1 0x0 ADD DUP5 DUP2 SLOAD DUP2 LT PUSH3 0x2AFA JUMPI INVALID JUMPDEST SWAP1 PUSH1 0x0 MSTORE PUSH1 0x20 PUSH1 0x0 KECCAK256 SWAP1 PUSH1 0x2 MUL ADD SWAP1 POP DUP1 PUSH1 0x0 ADD SLOAD DUP2 PUSH1 0x1 ADD SLOAD SWAP3 POP SWAP3 POP POP SWAP3 POP SWAP3 SWAP1 POP JUMP JUMPDEST PUSH1 0x0 DUP3 DUP2 MSTORE PUSH1 0x1 DUP5 ADD PUSH1 0x20 MSTORE PUSH1 0x40 DUP2 KECCAK256 SLOAD DUP3 DUP2 PUSH3 0x2B53 JUMPI PUSH1 0x40 MLOAD PUSH3 0x461BCD PUSH1 0xE5 SHL DUP2 MSTORE PUSH1 0x4 ADD PUSH3 0x55F SWAP2 SWAP1 PUSH3 0x4288 JUMP JUMPDEST POP DUP5 PUSH1 0x0 ADD PUSH1 0x1 DUP3 SUB DUP2 SLOAD DUP2 LT PUSH3 0x2B67 JUMPI INVALID JUMPDEST SWAP1 PUSH1 0x0 MSTORE PUSH1 0x20 PUSH1 0x0 KECCAK256 SWAP1 PUSH1 0x2 MUL ADD PUSH1 0x1 ADD SLOAD SWAP2 POP POP SWAP4 SWAP3 POP POP POP JUMP JUMPDEST PUSH1 0x0 PUSH3 0x6A4 DUP4 DUP4 PUSH1 0x40 MLOAD DUP1 PUSH1 0x40 ADD PUSH1 0x40 MSTORE DUP1 PUSH1 0x1E DUP2 MSTORE PUSH1 0x20 ADD PUSH32 0x536166654D6174683A207375627472616374696F6E206F766572666C6F770000 DUP2 MSTORE POP PUSH3 0x33B2 JUMP JUMPDEST PUSH3 0x2BD1 PUSH3 0x3BA9 JUMP JUMPDEST POP PUSH1 0x40 DUP1 MLOAD PUSH1 0xA0 DUP2 ADD DUP3 MSTORE PUSH1 0x0 DUP1 DUP3 MSTORE PUSH1 0x20 DUP3 ADD DUP2 SWAP1 MSTORE SWAP2 DUP2 ADD DUP3 SWAP1 MSTORE PUSH1 0x60 DUP2 ADD DUP3 SWAP1 MSTORE PUSH1 0x80 DUP2 ADD SWAP2 SWAP1 SWAP2 MSTORE PUSH1 0xC0 DUP1 DUP5 ADD MLOAD SWAP1 DUP4 ADD MLOAD PUSH2 0x180 DUP6 ADD MLOAD ISZERO DUP1 ISZERO SWAP1 PUSH3 0x2C20 JUMPI POP TIMESTAMP DUP6 PUSH2 0x180 ADD MLOAD LT JUMPDEST ISZERO PUSH3 0x2C2E JUMPI PUSH1 0x1 PUSH1 0x20 DUP5 ADD MSTORE JUMPDEST PUSH1 0x0 DUP5 PUSH2 0x180 ADD MLOAD GT DUP1 ISZERO PUSH3 0x2C48 JUMPI POP TIMESTAMP DUP5 PUSH2 0x180 ADD MLOAD LT JUMPDEST ISZERO PUSH3 0x2C56 JUMPI PUSH1 0x1 PUSH1 0x40 DUP5 ADD MSTORE JUMPDEST DUP4 PUSH2 0x100 ADD MLOAD DUP6 PUSH2 0x100 ADD MLOAD LT ISZERO DUP1 ISZERO PUSH3 0x2C81 JUMPI POP PUSH1 0x20 DUP4 ADD MLOAD ISZERO DUP1 ISZERO PUSH3 0x2C81 JUMPI POP PUSH1 0x40 DUP4 ADD MLOAD ISZERO JUMPDEST ISZERO PUSH3 0x2D11 JUMPI DUP1 DUP3 EQ ISZERO PUSH3 0x2CA3 JUMPI PUSH3 0x2C9D DUP4 DUP7 DUP7 PUSH3 0x33E1 JUMP JUMPDEST PUSH3 0x2D0B JUMP JUMPDEST DUP1 DUP3 GT DUP1 ISZERO PUSH3 0x2CC4 JUMPI POP PUSH1 0x1 DUP6 PUSH1 0x40 ADD MLOAD PUSH1 0x4 DUP2 GT ISZERO PUSH3 0x2CC1 JUMPI INVALID JUMPDEST EQ ISZERO JUMPDEST ISZERO PUSH3 0x2CD7 JUMPI PUSH3 0x2C9D DUP4 DUP7 DUP7 PUSH3 0x3419 JUMP JUMPDEST DUP1 DUP3 LT DUP1 ISZERO PUSH3 0x2CF8 JUMPI POP PUSH1 0x1 DUP5 PUSH1 0x40 ADD MLOAD PUSH1 0x4 DUP2 GT ISZERO PUSH3 0x2CF5 JUMPI INVALID JUMPDEST EQ ISZERO JUMPDEST ISZERO PUSH3 0x2D0B JUMPI PUSH3 0x2D0B DUP4 DUP7 DUP7 PUSH3 0x3456 JUMP JUMPDEST PUSH3 0x2DB8 JUMP JUMPDEST PUSH1 0x4 DUP5 PUSH1 0x40 ADD MLOAD PUSH1 0x4 DUP2 GT ISZERO PUSH3 0x2D24 JUMPI INVALID JUMPDEST EQ DUP1 ISZERO PUSH3 0x2D34 JUMPI POP PUSH1 0x40 DUP4 ADD MLOAD ISZERO JUMPDEST ISZERO PUSH3 0x2DB8 JUMPI DUP1 DUP3 EQ ISZERO PUSH3 0x2D50 JUMPI PUSH3 0x2D0B DUP4 DUP7 DUP7 PUSH3 0x33E1 JUMP JUMPDEST DUP1 DUP3 GT DUP1 ISZERO PUSH3 0x2D71 JUMPI POP PUSH1 0x1 DUP6 PUSH1 0x40 ADD MLOAD PUSH1 0x4 DUP2 GT ISZERO PUSH3 0x2D6E JUMPI INVALID JUMPDEST EQ ISZERO JUMPDEST ISZERO PUSH3 0x2D84 JUMPI PUSH3 0x2D0B DUP4 DUP7 DUP7 PUSH3 0x3419 JUMP JUMPDEST DUP1 DUP3 LT DUP1 ISZERO PUSH3 0x2DA5 JUMPI POP PUSH1 0x1 DUP5 PUSH1 0x40 ADD MLOAD PUSH1 0x4 DUP2 GT ISZERO PUSH3 0x2DA2 JUMPI INVALID JUMPDEST EQ ISZERO JUMPDEST ISZERO PUSH3 0x2DB8 JUMPI PUSH3 0x2DB8 DUP4 DUP7 DUP7 PUSH3 0x3456 JUMP JUMPDEST DUP4 MLOAD MLOAD PUSH1 0x0 SWAP1 DUP2 MSTORE PUSH1 0xC PUSH1 0x20 SWAP1 DUP2 MSTORE PUSH1 0x40 SWAP1 SWAP2 KECCAK256 DUP6 MLOAD DUP1 MLOAD DUP3 SSTORE DUP3 ADD MLOAD PUSH1 0x1 DUP1 DUP4 ADD SWAP2 SWAP1 SWAP2 SSTORE SWAP2 DUP7 ADD MLOAD PUSH1 0x2 DUP3 ADD DUP1 SLOAD DUP9 SWAP5 PUSH1 0xFF NOT SWAP1 SWAP2 AND SWAP1 DUP4 DUP2 DUP2 GT ISZERO PUSH3 0x2DFD JUMPI INVALID JUMPDEST MUL OR SWAP1 SSTORE POP PUSH1 0x40 DUP3 ADD MLOAD PUSH1 0x2 DUP3 ADD DUP1 SLOAD PUSH2 0xFF00 NOT AND PUSH2 0x100 DUP4 PUSH1 0x4 DUP2 GT ISZERO PUSH3 0x2E22 JUMPI INVALID JUMPDEST MUL OR SWAP1 SSTORE POP PUSH1 0x60 DUP3 ADD MLOAD PUSH1 0x2 DUP3 ADD DUP1 SLOAD PUSH3 0x10000 PUSH1 0x1 PUSH1 0xB0 SHL SUB NOT AND PUSH3 0x10000 PUSH1 0x1 PUSH1 0x1 PUSH1 0xA0 SHL SUB SWAP4 DUP5 AND MUL OR SWAP1 SSTORE PUSH1 0x80 DUP4 ADD MLOAD PUSH1 0x3 DUP1 DUP5 ADD DUP1 SLOAD PUSH1 0x1 PUSH1 0x1 PUSH1 0xA0 SHL SUB NOT AND SWAP3 SWAP1 SWAP4 AND SWAP2 SWAP1 SWAP2 OR SWAP1 SWAP2 SSTORE PUSH1 0xA0 DUP4 ADD MLOAD PUSH1 0x4 DUP4 ADD SSTORE PUSH1 0xC0 DUP4 ADD MLOAD PUSH1 0x5 DUP4 ADD SSTORE PUSH1 0xE0 DUP4 ADD MLOAD PUSH1 0x6 DUP4 ADD SSTORE PUSH2 0x100 DUP4 ADD MLOAD PUSH1 0x7 DUP4 ADD SSTORE PUSH2 0x120 DUP4 ADD MLOAD PUSH1 0x8 DUP4 ADD DUP1 SLOAD SWAP2 SWAP3 SWAP1 SWAP2 PUSH1 0xFF NOT AND SWAP1 PUSH1 0x1 SWAP1 DUP5 SWAP1 DUP2 GT ISZERO PUSH3 0x2EBF JUMPI INVALID JUMPDEST MUL OR SWAP1 SSTORE POP PUSH2 0x140 DUP3 ADD MLOAD PUSH1 0x9 DUP3 ADD SSTORE PUSH2 0x160 DUP3 ADD MLOAD PUSH1 0xA DUP3 ADD SSTORE PUSH2 0x180 SWAP1 SWAP2 ADD MLOAD PUSH1 0xB SWAP1 SWAP2 ADD SSTORE DUP5 MLOAD MLOAD PUSH1 0x0 SWAP1 DUP2 MSTORE PUSH1 0xC PUSH1 0x20 SWAP1 DUP2 MSTORE PUSH1 0x40 SWAP1 SWAP2 KECCAK256 DUP7 MLOAD DUP1 MLOAD DUP3 SSTORE DUP3 ADD MLOAD PUSH1 0x1 DUP1 DUP4 ADD SWAP2 SWAP1 SWAP2 SSTORE SWAP2 DUP8 ADD MLOAD PUSH1 0x2 DUP3 ADD DUP1 SLOAD DUP10 SWAP5 PUSH1 0xFF NOT SWAP1 SWAP2 AND SWAP1 DUP4 DUP2 DUP2 GT ISZERO PUSH3 0x2F2C JUMPI INVALID JUMPDEST MUL OR SWAP1 SSTORE POP PUSH1 0x40 DUP3 ADD MLOAD PUSH1 0x2 DUP3 ADD DUP1 SLOAD PUSH2 0xFF00 NOT AND PUSH2 0x100 DUP4 PUSH1 0x4 DUP2 GT ISZERO PUSH3 0x2F51 JUMPI INVALID JUMPDEST MUL OR SWAP1 SSTORE POP PUSH1 0x60 DUP3 ADD MLOAD PUSH1 0x2 DUP3 ADD DUP1 SLOAD PUSH3 0x10000 PUSH1 0x1 PUSH1 0xB0 SHL SUB NOT AND PUSH3 0x10000 PUSH1 0x1 PUSH1 0x1 PUSH1 0xA0 SHL SUB SWAP4 DUP5 AND MUL OR SWAP1 SSTORE PUSH1 0x80 DUP4 ADD MLOAD PUSH1 0x3 DUP1 DUP5 ADD DUP1 SLOAD PUSH1 0x1 PUSH1 0x1 PUSH1 0xA0 SHL SUB NOT AND SWAP3 SWAP1 SWAP4 AND SWAP2 SWAP1 SWAP2 OR SWAP1 SWAP2 SSTORE PUSH1 0xA0 DUP4 ADD MLOAD PUSH1 0x4 DUP4 ADD SSTORE PUSH1 0xC0 DUP4 ADD MLOAD PUSH1 0x5 DUP4 ADD SSTORE PUSH1 0xE0 DUP4 ADD MLOAD PUSH1 0x6 DUP4 ADD SSTORE PUSH2 0x100 DUP4 ADD MLOAD PUSH1 0x7 DUP4 ADD SSTORE PUSH2 0x120 DUP4 ADD MLOAD PUSH1 0x8 DUP4 ADD DUP1 SLOAD SWAP2 SWAP3 SWAP1 SWAP2 PUSH1 0xFF NOT AND SWAP1 PUSH1 0x1 SWAP1 DUP5 SWAP1 DUP2 GT ISZERO PUSH3 0x2FEE JUMPI INVALID JUMPDEST MUL OR SWAP1 SSTORE POP PUSH2 0x140 DUP3 ADD MLOAD DUP2 PUSH1 0x9 ADD SSTORE PUSH2 0x160 DUP3 ADD MLOAD DUP2 PUSH1 0xA ADD SSTORE PUSH2 0x180 DUP3 ADD MLOAD DUP2 PUSH1 0xB ADD SSTORE SWAP1 POP POP POP POP SWAP3 SWAP2 POP POP JUMP JUMPDEST PUSH1 0x0 PUSH3 0x3035 DUP5 PUSH1 0x1 PUSH1 0x1 PUSH1 0xA0 SHL SUB AND PUSH3 0x3493 JUMP JUMPDEST PUSH3 0x3043 JUMPI POP PUSH1 0x1 PUSH3 0x1915 JUMP JUMPDEST PUSH1 0x60 PUSH3 0x30D2 PUSH4 0xA85BD01 PUSH1 0xE1 SHL PUSH3 0x305B PUSH3 0x168D JUMP JUMPDEST DUP9 DUP8 DUP8 PUSH1 0x40 MLOAD PUSH1 0x24 ADD PUSH3 0x3073 SWAP5 SWAP4 SWAP3 SWAP2 SWAP1 PUSH3 0x4141 JUMP JUMPDEST PUSH1 0x40 MLOAD PUSH1 0x20 DUP2 DUP4 SUB SUB DUP2 MSTORE SWAP1 PUSH1 0x40 MSTORE SWAP1 PUSH1 0x1 PUSH1 0x1 PUSH1 0xE0 SHL SUB NOT AND PUSH1 0x20 DUP3 ADD DUP1 MLOAD PUSH1 0x1 PUSH1 0x1 PUSH1 0xE0 SHL SUB DUP4 DUP2 DUP4 AND OR DUP4 MSTORE POP POP POP POP PUSH1 0x40 MLOAD DUP1 PUSH1 0x60 ADD PUSH1 0x40 MSTORE DUP1 PUSH1 0x32 DUP2 MSTORE PUSH1 0x20 ADD PUSH3 0x5BD3 PUSH1 0x32 SWAP2 CODECOPY PUSH1 0x1 PUSH1 0x1 PUSH1 0xA0 SHL SUB DUP9 AND SWAP2 SWAP1 PUSH3 0x3499 JUMP JUMPDEST SWAP1 POP PUSH1 0x0 DUP2 DUP1 PUSH1 0x20 ADD SWAP1 MLOAD DUP2 ADD SWAP1 PUSH3 0x30EC SWAP2 SWAP1 PUSH3 0x3ED5 JUMP JUMPDEST PUSH1 0x1 PUSH1 0x1 PUSH1 0xE0 SHL SUB NOT AND PUSH4 0xA85BD01 PUSH1 0xE1 SHL EQ SWAP3 POP POP POP SWAP5 SWAP4 POP POP POP POP JUMP JUMPDEST PUSH1 0x0 SWAP1 DUP2 MSTORE PUSH1 0x1 SWAP2 SWAP1 SWAP2 ADD PUSH1 0x20 MSTORE PUSH1 0x40 SWAP1 KECCAK256 SLOAD ISZERO ISZERO SWAP1 JUMP JUMPDEST PUSH1 0x0 DUP2 DUP2 MSTORE PUSH1 0x1 DUP4 ADD PUSH1 0x20 MSTORE PUSH1 0x40 DUP2 KECCAK256 SLOAD DUP1 ISZERO PUSH3 0x31E4 JUMPI DUP4 SLOAD PUSH1 0x0 NOT DUP1 DUP4 ADD SWAP2 SWAP1 DUP2 ADD SWAP1 PUSH1 0x0 SWAP1 DUP8 SWAP1 DUP4 SWAP1 DUP2 LT PUSH3 0x3158 JUMPI INVALID JUMPDEST SWAP1 PUSH1 0x0 MSTORE PUSH1 0x20 PUSH1 0x0 KECCAK256 ADD SLOAD SWAP1 POP DUP1 DUP8 PUSH1 0x0 ADD DUP5 DUP2 SLOAD DUP2 LT PUSH3 0x3176 JUMPI INVALID JUMPDEST PUSH1 0x0 SWAP2 DUP3 MSTORE PUSH1 0x20 DUP1 DUP4 KECCAK256 SWAP1 SWAP2 ADD SWAP3 SWAP1 SWAP3 SSTORE DUP3 DUP2 MSTORE PUSH1 0x1 DUP10 DUP2 ADD SWAP1 SWAP3 MSTORE PUSH1 0x40 SWAP1 KECCAK256 SWAP1 DUP5 ADD SWAP1 SSTORE DUP7 SLOAD DUP8 SWAP1 DUP1 PUSH3 0x31A7 JUMPI INVALID JUMPDEST PUSH1 0x1 SWAP1 SUB DUP2 DUP2 SWAP1 PUSH1 0x0 MSTORE PUSH1 0x20 PUSH1 0x0 KECCAK256 ADD PUSH1 0x0 SWAP1 SSTORE SWAP1 SSTORE DUP7 PUSH1 0x1 ADD PUSH1 0x0 DUP8 DUP2 MSTORE PUSH1 0x20 ADD SWAP1 DUP2 MSTORE PUSH1 0x20 ADD PUSH1 0x0 KECCAK256 PUSH1 0x0 SWAP1 SSTORE PUSH1 0x1 SWAP5 POP POP POP POP POP PUSH3 0x493 JUMP JUMPDEST PUSH1 0x0 SWAP2 POP POP PUSH3 0x493 JUMP JUMPDEST POP SWAP3 SWAP2 POP POP JUMP JUMPDEST PUSH1 0x0 PUSH3 0x3204 DUP4 DUP4 PUSH3 0x310B JUMP JUMPDEST PUSH3 0x323C JUMPI POP DUP2 SLOAD PUSH1 0x1 DUP2 DUP2 ADD DUP5 SSTORE PUSH1 0x0 DUP5 DUP2 MSTORE PUSH1 0x20 DUP1 DUP3 KECCAK256 SWAP1 SWAP4 ADD DUP5 SWAP1 SSTORE DUP5 SLOAD DUP5 DUP3 MSTORE DUP3 DUP7 ADD SWAP1 SWAP4 MSTORE PUSH1 0x40 SWAP1 KECCAK256 SWAP2 SWAP1 SWAP2 SSTORE PUSH3 0x493 JUMP JUMPDEST POP PUSH1 0x0 PUSH3 0x493 JUMP JUMPDEST PUSH1 0x0 DUP3 DUP2 MSTORE PUSH1 0x1 DUP5 ADD PUSH1 0x20 MSTORE PUSH1 0x40 DUP2 KECCAK256 SLOAD DUP1 PUSH3 0x32AC JUMPI POP POP PUSH1 0x40 DUP1 MLOAD DUP1 DUP3 ADD DUP3 MSTORE DUP4 DUP2 MSTORE PUSH1 0x20 DUP1 DUP3 ADD DUP5 DUP2 MSTORE DUP7 SLOAD PUSH1 0x1 DUP2 DUP2 ADD DUP10 SSTORE PUSH1 0x0 DUP10 DUP2 MSTORE DUP5 DUP2 KECCAK256 SWAP6 MLOAD PUSH1 0x2 SWAP1 SWAP4 MUL SWAP1 SWAP6 ADD SWAP2 DUP3 SSTORE SWAP2 MLOAD SWAP1 DUP3 ADD SSTORE DUP7 SLOAD DUP7 DUP5 MSTORE DUP2 DUP9 ADD SWAP1 SWAP3 MSTORE SWAP3 SWAP1 SWAP2 KECCAK256 SSTORE PUSH3 0x6A4 JUMP JUMPDEST DUP3 DUP6 PUSH1 0x0 ADD PUSH1 0x1 DUP4 SUB DUP2 SLOAD DUP2 LT PUSH3 0x32C0 JUMPI INVALID JUMPDEST SWAP1 PUSH1 0x0 MSTORE PUSH1 0x20 PUSH1 0x0 KECCAK256 SWAP1 PUSH1 0x2 MUL ADD PUSH1 0x1 ADD DUP2 SWAP1 SSTORE POP PUSH1 0x0 SWAP2 POP POP PUSH3 0x6A4 JUMP JUMPDEST PUSH1 0x1 PUSH1 0x1 PUSH1 0xA0 SHL SUB DUP3 AND PUSH3 0x3309 JUMPI PUSH1 0x40 MLOAD PUSH3 0x461BCD PUSH1 0xE5 SHL DUP2 MSTORE PUSH1 0x4 ADD PUSH3 0x55F SWAP1 PUSH3 0x4595 JUMP JUMPDEST PUSH3 0x3314 DUP2 PUSH3 0x167E JUMP JUMPDEST ISZERO PUSH3 0x3334 JUMPI PUSH1 0x40 MLOAD PUSH3 0x461BCD PUSH1 0xE5 SHL DUP2 MSTORE PUSH1 0x4 ADD PUSH3 0x55F SWAP1 PUSH3 0x4331 JUMP JUMPDEST PUSH3 0x3342 PUSH1 0x0 DUP4 DUP4 PUSH3 0x627 JUMP JUMPDEST PUSH1 0x1 PUSH1 0x1 PUSH1 0xA0 SHL SUB DUP3 AND PUSH1 0x0 SWAP1 DUP2 MSTORE PUSH1 0x1 PUSH1 0x20 MSTORE PUSH1 0x40 SWAP1 KECCAK256 PUSH3 0x3366 SWAP1 DUP3 PUSH3 0x2A17 JUMP JUMPDEST POP PUSH3 0x3375 PUSH1 0x2 DUP3 DUP5 PUSH3 0x2A25 JUMP JUMPDEST POP PUSH1 0x40 MLOAD DUP2 SWAP1 PUSH1 0x1 PUSH1 0x1 PUSH1 0xA0 SHL SUB DUP5 AND SWAP1 PUSH1 0x0 SWAP1 PUSH32 0xDDF252AD1BE2C89B69C2B068FC378DAA952BA7F163C4A11628F55A4DF523B3EF SWAP1 DUP3 SWAP1 LOG4 POP POP JUMP JUMPDEST PUSH1 0x0 DUP2 DUP5 DUP5 GT ISZERO PUSH3 0x33D9 JUMPI PUSH1 0x40 MLOAD PUSH3 0x461BCD PUSH1 0xE5 SHL DUP2 MSTORE PUSH1 0x4 ADD PUSH3 0x55F SWAP2 SWAP1 PUSH3 0x4288 JUMP JUMPDEST POP POP POP SWAP1 SUB SWAP1 JUMP JUMPDEST PUSH1 0xC0 DUP1 DUP4 ADD DUP1 MLOAD PUSH1 0x60 DUP7 ADD MSTORE SWAP1 DUP3 ADD DUP1 MLOAD PUSH1 0x80 DUP7 ADD MSTORE PUSH1 0x1 DUP6 MSTORE PUSH1 0x0 SWAP1 DUP2 SWAP1 MSTORE SWAP1 MSTORE PUSH3 0x340E DUP3 PUSH3 0x34AA JUMP JUMPDEST PUSH3 0x627 DUP2 PUSH3 0x34AA JUMP JUMPDEST PUSH1 0xC0 DUP1 DUP3 ADD DUP1 MLOAD PUSH1 0x60 DUP7 ADD MSTORE DUP1 MLOAD PUSH1 0x80 DUP7 ADD MSTORE MLOAD SWAP1 DUP4 ADD MLOAD PUSH3 0x343C SWAP2 PUSH3 0x2B83 JUMP JUMPDEST PUSH1 0xC0 DUP1 DUP5 ADD SWAP2 SWAP1 SWAP2 MSTORE PUSH1 0x0 SWAP1 DUP3 ADD MSTORE PUSH3 0x627 DUP2 PUSH3 0x34AA JUMP JUMPDEST PUSH1 0xC0 DUP1 DUP4 ADD DUP1 MLOAD PUSH1 0x60 DUP7 ADD MSTORE DUP1 MLOAD PUSH1 0x80 DUP7 ADD MSTORE MLOAD SWAP1 DUP3 ADD MLOAD PUSH3 0x3479 SWAP2 PUSH3 0x2B83 JUMP JUMPDEST PUSH1 0xC0 DUP1 DUP4 ADD SWAP2 SWAP1 SWAP2 MSTORE PUSH1 0x0 SWAP1 DUP4 ADD MSTORE PUSH3 0x627 DUP3 PUSH3 0x34AA JUMP JUMPDEST EXTCODESIZE ISZERO ISZERO SWAP1 JUMP JUMPDEST PUSH1 0x60 PUSH3 0x1915 DUP5 DUP5 PUSH1 0x0 DUP6 PUSH3 0x3989 JUMP JUMPDEST PUSH3 0x34B4 PUSH3 0x3B92 JUMP JUMPDEST POP DUP1 MLOAD PUSH1 0x40 DUP1 MLOAD DUP1 DUP3 ADD SWAP1 SWAP2 MSTORE PUSH1 0xE DUP2 MSTORE PUSH14 0x50454E44494E475F4F5244455253 PUSH1 0x90 SHL PUSH1 0x20 SWAP2 DUP3 ADD MSTORE PUSH1 0x0 DUP1 MLOAD PUSH1 0x20 PUSH3 0x5C05 DUP4 CODECOPY DUP2 MLOAD SWAP2 MSTORE PUSH1 0x0 MSTORE PUSH1 0xD SWAP1 MSTORE PUSH1 0x0 DUP1 MLOAD PUSH1 0x20 PUSH3 0x5BB3 DUP4 CODECOPY DUP2 MLOAD SWAP2 MSTORE SLOAD PUSH3 0x3511 JUMPI POP PUSH3 0x28D6 JUMP JUMPDEST PUSH1 0x40 DUP1 MLOAD DUP1 DUP3 ADD SWAP1 SWAP2 MSTORE PUSH1 0xE DUP2 MSTORE PUSH14 0x50454E44494E475F4F5244455253 PUSH1 0x90 SHL PUSH1 0x20 SWAP2 DUP3 ADD MSTORE PUSH1 0x0 DUP1 MLOAD PUSH1 0x20 PUSH3 0x5C05 DUP4 CODECOPY DUP2 MLOAD SWAP2 MSTORE PUSH1 0x0 MSTORE PUSH1 0xD SWAP1 MSTORE PUSH1 0x0 DUP1 MLOAD PUSH1 0x20 PUSH3 0x5BB3 DUP4 CODECOPY DUP2 MLOAD SWAP2 MSTORE SLOAD PUSH1 0x1 EQ ISZERO PUSH3 0x35E4 JUMPI PUSH1 0x40 DUP1 MLOAD DUP1 DUP3 ADD SWAP1 SWAP2 MSTORE PUSH1 0xE DUP2 MSTORE PUSH14 0x50454E44494E475F4F5244455253 PUSH1 0x90 SHL PUSH1 0x20 SWAP2 DUP3 ADD MSTORE PUSH1 0x0 DUP1 MLOAD PUSH1 0x20 PUSH3 0x5C05 DUP4 CODECOPY DUP2 MLOAD SWAP2 MSTORE PUSH1 0x0 MSTORE PUSH1 0xD SWAP1 MSTORE PUSH1 0x0 DUP1 MLOAD PUSH1 0x20 PUSH3 0x5BB3 DUP4 CODECOPY DUP2 MLOAD SWAP2 MSTORE DUP1 SLOAD DUP1 PUSH3 0x35BF JUMPI INVALID JUMPDEST PUSH1 0x0 DUP3 DUP2 MSTORE PUSH1 0x20 DUP2 KECCAK256 PUSH1 0x2 PUSH1 0x0 NOT SWAP1 SWAP4 ADD SWAP3 DUP4 MUL ADD DUP2 DUP2 SSTORE PUSH1 0x1 ADD SSTORE SWAP1 SSTORE POP PUSH3 0x28D6 JUMP JUMPDEST PUSH1 0x40 DUP1 MLOAD DUP1 DUP3 ADD SWAP1 SWAP2 MSTORE PUSH1 0xE DUP2 MSTORE PUSH14 0x50454E44494E475F4F5244455253 PUSH1 0x90 SHL PUSH1 0x20 SWAP2 DUP3 ADD MSTORE PUSH1 0x0 DUP1 MLOAD PUSH1 0x20 PUSH3 0x5C05 DUP4 CODECOPY DUP2 MLOAD SWAP2 MSTORE PUSH1 0x0 SWAP1 DUP2 MSTORE PUSH1 0xD SWAP1 SWAP2 MSTORE PUSH1 0x0 DUP1 MLOAD PUSH1 0x20 PUSH3 0x5BB3 DUP4 CODECOPY DUP2 MLOAD SWAP2 MSTORE SLOAD PUSH3 0x3642 SWAP1 PUSH1 0x1 PUSH3 0x2B83 JUMP JUMPDEST PUSH1 0x40 DUP1 MLOAD DUP1 DUP3 ADD DUP3 MSTORE PUSH1 0xE DUP2 MSTORE PUSH14 0x50454E44494E475F4F5244455253 PUSH1 0x90 SHL PUSH1 0x20 SWAP2 DUP3 ADD MSTORE PUSH1 0x0 DUP1 MLOAD PUSH1 0x20 PUSH3 0x5C05 DUP4 CODECOPY DUP2 MLOAD SWAP2 MSTORE PUSH1 0x0 SWAP1 DUP2 MSTORE PUSH1 0xD SWAP1 SWAP2 MSTORE SWAP1 MLOAD PUSH4 0x191EE783 PUSH1 0xE0 SHL DUP2 MSTORE SWAP2 SWAP3 POP SWAP1 PUSH20 0x0 SWAP1 PUSH4 0x191EE783 SWAP1 PUSH3 0x36D2 SWAP1 PUSH1 0x0 DUP1 MLOAD PUSH1 0x20 PUSH3 0x5BB3 DUP4 CODECOPY DUP2 MLOAD SWAP2 MSTORE SWAP1 DUP6 SWAP1 DUP8 SWAP1 DUP10 SWAP1 PUSH1 0x4 ADD PUSH3 0x41B3 JUMP JUMPDEST PUSH1 0x20 PUSH1 0x40 MLOAD DUP1 DUP4 SUB DUP2 DUP7 DUP1 EXTCODESIZE ISZERO DUP1 ISZERO PUSH3 0x36EB JUMPI PUSH1 0x0 DUP1 REVERT JUMPDEST POP GAS DELEGATECALL ISZERO DUP1 ISZERO PUSH3 0x3700 JUMPI RETURNDATASIZE PUSH1 0x0 DUP1 RETURNDATACOPY RETURNDATASIZE PUSH1 0x0 REVERT JUMPDEST POP POP POP POP PUSH1 0x40 MLOAD RETURNDATASIZE PUSH1 0x1F NOT PUSH1 0x1F DUP3 ADD AND DUP3 ADD DUP1 PUSH1 0x40 MSTORE POP DUP2 ADD SWAP1 PUSH3 0x3726 SWAP2 SWAP1 PUSH3 0x3F36 JUMP JUMPDEST SWAP1 POP PUSH1 0x0 DUP2 SLT PUSH3 0x38A2 JUMPI DUP1 JUMPDEST DUP3 DUP2 LT ISZERO PUSH3 0x382B JUMPI PUSH1 0x40 DUP1 MLOAD DUP1 DUP3 ADD SWAP1 SWAP2 MSTORE PUSH1 0xE DUP2 MSTORE PUSH14 0x50454E44494E475F4F5244455253 PUSH1 0x90 SHL PUSH1 0x20 SWAP2 DUP3 ADD MSTORE PUSH1 0x0 DUP1 MLOAD PUSH1 0x20 PUSH3 0x5C05 DUP4 CODECOPY DUP2 MLOAD SWAP2 MSTORE PUSH1 0x0 MSTORE PUSH1 0xD SWAP1 MSTORE PUSH1 0x0 DUP1 MLOAD PUSH1 0x20 PUSH3 0x5BB3 DUP4 CODECOPY DUP2 MLOAD SWAP2 MSTORE DUP1 SLOAD PUSH1 0x1 DUP4 ADD SWAP1 DUP2 LT PUSH3 0x3799 JUMPI INVALID JUMPDEST PUSH1 0x0 SWAP2 DUP3 MSTORE PUSH1 0x20 DUP1 DUP4 KECCAK256 PUSH1 0x40 DUP1 MLOAD DUP1 DUP3 ADD SWAP1 SWAP2 MSTORE PUSH1 0xE DUP2 MSTORE PUSH14 0x50454E44494E475F4F5244455253 PUSH1 0x90 SHL SWAP1 DUP4 ADD MSTORE PUSH1 0x0 DUP1 MLOAD PUSH1 0x20 PUSH3 0x5C05 DUP4 CODECOPY DUP2 MLOAD SWAP2 MSTORE SWAP1 SWAP4 MSTORE PUSH1 0xD SWAP1 MSTORE PUSH1 0x0 DUP1 MLOAD PUSH1 0x20 PUSH3 0x5BB3 DUP4 CODECOPY DUP2 MLOAD SWAP2 MSTORE DUP1 SLOAD PUSH1 0x2 SWAP1 SWAP3 MUL SWAP1 SWAP3 ADD SWAP2 SWAP1 DUP4 SWAP1 DUP2 LT PUSH3 0x3805 JUMPI INVALID JUMPDEST PUSH1 0x0 SWAP2 DUP3 MSTORE PUSH1 0x20 SWAP1 SWAP2 KECCAK256 DUP3 SLOAD PUSH1 0x2 SWAP1 SWAP3 MUL ADD SWAP1 DUP2 SSTORE PUSH1 0x1 SWAP2 DUP3 ADD SLOAD SWAP1 DUP3 ADD SSTORE ADD PUSH3 0x3733 JUMP JUMPDEST POP PUSH1 0x40 DUP1 MLOAD DUP1 DUP3 ADD SWAP1 SWAP2 MSTORE PUSH1 0xE DUP2 MSTORE PUSH14 0x50454E44494E475F4F5244455253 PUSH1 0x90 SHL PUSH1 0x20 SWAP2 DUP3 ADD MSTORE PUSH1 0x0 DUP1 MLOAD PUSH1 0x20 PUSH3 0x5C05 DUP4 CODECOPY DUP2 MLOAD SWAP2 MSTORE PUSH1 0x0 MSTORE PUSH1 0xD SWAP1 MSTORE PUSH1 0x0 DUP1 MLOAD PUSH1 0x20 PUSH3 0x5BB3 DUP4 CODECOPY DUP2 MLOAD SWAP2 MSTORE DUP1 SLOAD DUP1 PUSH3 0x3883 JUMPI INVALID JUMPDEST PUSH1 0x0 DUP3 DUP2 MSTORE PUSH1 0x20 DUP2 KECCAK256 PUSH1 0x2 PUSH1 0x0 NOT SWAP1 SWAP4 ADD SWAP3 DUP4 MUL ADD DUP2 DUP2 SSTORE PUSH1 0x1 ADD SSTORE SWAP1 SSTORE JUMPDEST POP POP PUSH1 0x40 DUP1 MLOAD DUP1 DUP3 ADD SWAP1 SWAP2 MSTORE PUSH1 0xE DUP2 MSTORE PUSH14 0x4D4154434845445F4F5244455253 PUSH1 0x90 SHL PUSH1 0x20 SWAP2 DUP3 ADD MSTORE PUSH32 0xADAACA5C8C3F56BF72F89ABB1ED95701D44C650C5E04CF89DF361454308F6F75 PUSH1 0x0 SWAP1 DUP2 MSTORE PUSH1 0xD DUP3 MSTORE DUP4 MLOAD PUSH32 0xE0A80A76B0F7474DD1C95F95AEB280DA4C84E313166CF753213A3F81FD868FF3 DUP1 SLOAD PUSH1 0x1 DUP1 DUP3 ADD DUP4 SSTORE SWAP2 SWAP1 SWAP4 MSTORE DUP2 MLOAD PUSH32 0x9902FC2ADA66D7AC10FDF04358B59EDCD8609E9AADAA0654B4FF4C3A5D09166E PUSH1 0x2 SWAP1 SWAP5 MUL SWAP4 DUP5 ADD SSTORE SWAP3 ADD MLOAD PUSH32 0x9902FC2ADA66D7AC10FDF04358B59EDCD8609E9AADAA0654B4FF4C3A5D09166F SWAP1 SWAP2 ADD SSTORE PUSH2 0x120 DUP4 ADD MSTORE POP TIMESTAMP PUSH2 0x160 SWAP1 SWAP2 ADD MSTORE JUMP JUMPDEST PUSH1 0x60 DUP3 SELFBALANCE LT ISZERO PUSH3 0x39AE JUMPI PUSH1 0x40 MLOAD PUSH3 0x461BCD PUSH1 0xE5 SHL DUP2 MSTORE PUSH1 0x4 ADD PUSH3 0x55F SWAP1 PUSH3 0x441A JUMP JUMPDEST PUSH3 0x39B9 DUP6 PUSH3 0x3493 JUMP JUMPDEST PUSH3 0x39D8 JUMPI PUSH1 0x40 MLOAD PUSH3 0x461BCD PUSH1 0xE5 SHL DUP2 MSTORE PUSH1 0x4 ADD PUSH3 0x55F SWAP1 PUSH3 0x47BB JUMP JUMPDEST PUSH1 0x0 PUSH1 0x60 DUP7 PUSH1 0x1 PUSH1 0x1 PUSH1 0xA0 SHL SUB AND DUP6 DUP8 PUSH1 0x40 MLOAD PUSH3 0x39F7 SWAP2 SWAP1 PUSH3 0x4062 JUMP JUMPDEST PUSH1 0x0 PUSH1 0x40 MLOAD DUP1 DUP4 SUB DUP2 DUP6 DUP8 GAS CALL SWAP3 POP POP POP RETURNDATASIZE DUP1 PUSH1 0x0 DUP2 EQ PUSH3 0x3A36 JUMPI PUSH1 0x40 MLOAD SWAP2 POP PUSH1 0x1F NOT PUSH1 0x3F RETURNDATASIZE ADD AND DUP3 ADD PUSH1 0x40 MSTORE RETURNDATASIZE DUP3 MSTORE RETURNDATASIZE PUSH1 0x0 PUSH1 0x20 DUP5 ADD RETURNDATACOPY PUSH3 0x3A3B JUMP JUMPDEST PUSH1 0x60 SWAP2 POP JUMPDEST POP SWAP2 POP SWAP2 POP PUSH3 0x3A4D DUP3 DUP3 DUP7 PUSH3 0x3A58 JUMP JUMPDEST SWAP8 SWAP7 POP POP POP POP POP POP POP JUMP JUMPDEST PUSH1 0x60 DUP4 ISZERO PUSH3 0x3A69 JUMPI POP DUP2 PUSH3 0x6A4 JUMP JUMPDEST DUP3 MLOAD ISZERO PUSH3 0x3A7A JUMPI DUP3 MLOAD DUP1 DUP5 PUSH1 0x20 ADD REVERT JUMPDEST DUP2 PUSH1 0x40 MLOAD PUSH3 0x461BCD PUSH1 0xE5 SHL DUP2 MSTORE PUSH1 0x4 ADD PUSH3 0x55F SWAP2 SWAP1 PUSH3 0x4288 JUMP JUMPDEST PUSH1 0x40 MLOAD DUP1 PUSH2 0x100 ADD PUSH1 0x40 MSTORE DUP1 PUSH1 0x0 DUP2 MSTORE PUSH1 0x20 ADD PUSH1 0x0 PUSH1 0x1 PUSH1 0x1 PUSH1 0xA0 SHL SUB AND DUP2 MSTORE PUSH1 0x20 ADD PUSH1 0x0 PUSH1 0x1 PUSH1 0x1 PUSH1 0xA0 SHL SUB AND DUP2 MSTORE PUSH1 0x20 ADD PUSH1 0x60 DUP2 MSTORE PUSH1 0x20 ADD PUSH1 0x60 DUP2 MSTORE PUSH1 0x20 ADD PUSH1 0x0 DUP2 MSTORE PUSH1 0x20 ADD PUSH1 0x0 DUP2 MSTORE PUSH1 0x20 ADD PUSH1 0x0 PUSH1 0x1 PUSH1 0x1 PUSH1 0xA0 SHL SUB AND DUP2 MSTORE POP SWAP1 JUMP JUMPDEST PUSH2 0x10DB DUP1 PUSH3 0x4AD8 DUP4 CODECOPY ADD SWAP1 JUMP JUMPDEST PUSH1 0x40 MLOAD DUP1 PUSH2 0x1A0 ADD PUSH1 0x40 MSTORE DUP1 PUSH3 0x3B1A PUSH3 0x3B92 JUMP JUMPDEST DUP2 MSTORE PUSH1 0x20 ADD PUSH1 0x0 DUP2 MSTORE PUSH1 0x20 ADD PUSH1 0x0 DUP2 MSTORE PUSH1 0x20 ADD PUSH1 0x0 PUSH1 0x1 PUSH1 0x1 PUSH1 0xA0 SHL SUB AND DUP2 MSTORE PUSH1 0x20 ADD PUSH1 0x0 PUSH1 0x1 PUSH1 0x1 PUSH1 0xA0 SHL SUB AND DUP2 MSTORE PUSH1 0x20 ADD PUSH1 0x0 DUP2 MSTORE PUSH1 0x20 ADD PUSH1 0x0 DUP2 MSTORE PUSH1 0x20 ADD PUSH1 0x0 DUP2 MSTORE PUSH1 0x20 ADD PUSH1 0x0 DUP2 MSTORE PUSH1 0x20 ADD PUSH1 0x0 PUSH1 0x3 DUP2 GT ISZERO PUSH3 0x3B77 JUMPI INVALID JUMPDEST DUP2 MSTORE PUSH1 0x20 ADD PUSH1 0x0 DUP2 MSTORE PUSH1 0x20 ADD PUSH1 0x0 DUP2 MSTORE PUSH1 0x20 ADD PUSH1 0x0 DUP2 MSTORE POP SWAP1 JUMP JUMPDEST PUSH1 0x40 DUP1 MLOAD DUP1 DUP3 ADD SWAP1 SWAP2 MSTORE PUSH1 0x0 DUP1 DUP3 MSTORE PUSH1 0x20 DUP3 ADD MSTORE SWAP1 JUMP JUMPDEST PUSH1 0x40 DUP1 MLOAD PUSH1 0xA0 DUP2 ADD DUP3 MSTORE PUSH1 0x0 DUP1 DUP3 MSTORE PUSH1 0x20 DUP3 ADD DUP2 SWAP1 MSTORE SWAP2 DUP2 ADD DUP3 SWAP1 MSTORE PUSH1 0x60 DUP2 ADD DUP3 SWAP1 MSTORE PUSH1 0x80 DUP2 ADD SWAP2 SWAP1 SWAP2 MSTORE SWAP1 JUMP JUMPDEST PUSH1 0x0 DUP3 PUSH1 0x1F DUP4 ADD SLT PUSH3 0x3BE8 JUMPI DUP1 DUP2 REVERT JUMPDEST DUP2 MLOAD PUSH3 0x3BFF PUSH3 0x3BF9 DUP3 PUSH3 0x4A47 JUMP JUMPDEST PUSH3 0x4A1F JUMP JUMPDEST SWAP2 POP DUP1 DUP3 MSTORE DUP4 PUSH1 0x20 DUP3 DUP6 ADD ADD GT ISZERO PUSH3 0x3C17 JUMPI PUSH1 0x0 DUP1 REVERT JUMPDEST PUSH3 0x31EF DUP2 PUSH1 0x20 DUP5 ADD PUSH1 0x20 DUP7 ADD PUSH3 0x4A6C JUMP JUMPDEST PUSH1 0x0 PUSH1 0x20 DUP3 DUP5 SUB SLT ISZERO PUSH3 0x3C3C JUMPI DUP1 DUP2 REVERT JUMPDEST DUP2 CALLDATALOAD PUSH3 0x6A4 DUP2 PUSH3 0x4A9B JUMP JUMPDEST PUSH1 0x0 DUP1 PUSH1 0x40 DUP4 DUP6 SUB SLT ISZERO PUSH3 0x3C5C JUMPI DUP1 DUP2 REVERT JUMPDEST DUP3 CALLDATALOAD PUSH3 0x3C69 DUP2 PUSH3 0x4A9B JUMP JUMPDEST SWAP2 POP PUSH1 0x20 DUP4 ADD CALLDATALOAD PUSH3 0x3C7B DUP2 PUSH3 0x4A9B JUMP JUMPDEST DUP1 SWAP2 POP POP SWAP3 POP SWAP3 SWAP1 POP JUMP JUMPDEST PUSH1 0x0 DUP1 PUSH1 0x0 PUSH1 0x60 DUP5 DUP7 SUB SLT ISZERO PUSH3 0x3C9B JUMPI DUP1 DUP2 REVERT JUMPDEST DUP4 CALLDATALOAD PUSH3 0x3CA8 DUP2 PUSH3 0x4A9B JUMP JUMPDEST SWAP3 POP PUSH1 0x20 DUP5 ADD CALLDATALOAD PUSH3 0x3CBA DUP2 PUSH3 0x4A9B JUMP JUMPDEST SWAP3 SWAP6 SWAP3 SWAP5 POP POP POP PUSH1 0x40 SWAP2 SWAP1 SWAP2 ADD CALLDATALOAD SWAP1 JUMP JUMPDEST PUSH1 0x0 DUP1 PUSH1 0x0 DUP1 PUSH1 0x80 DUP6 DUP8 SUB SLT ISZERO PUSH3 0x3CE1 JUMPI DUP1 DUP2 REVERT JUMPDEST DUP5 CALLDATALOAD PUSH3 0x3CEE DUP2 PUSH3 0x4A9B JUMP JUMPDEST SWAP4 POP PUSH1 0x20 DUP6 ADD CALLDATALOAD PUSH3 0x3D00 DUP2 PUSH3 0x4A9B JUMP JUMPDEST SWAP3 POP PUSH1 0x40 DUP6 ADD CALLDATALOAD SWAP2 POP PUSH1 0x60 DUP6 ADD CALLDATALOAD PUSH8 0xFFFFFFFFFFFFFFFF DUP2 GT ISZERO PUSH3 0x3D23 JUMPI DUP2 DUP3 REVERT JUMPDEST DUP6 ADD PUSH1 0x1F DUP2 ADD DUP8 SGT PUSH3 0x3D34 JUMPI DUP2 DUP3 REVERT JUMPDEST DUP1 CALLDATALOAD PUSH3 0x3D45 PUSH3 0x3BF9 DUP3 PUSH3 0x4A47 JUMP JUMPDEST DUP2 DUP2 MSTORE DUP9 PUSH1 0x20 DUP4 DUP6 ADD ADD GT ISZERO PUSH3 0x3D5A JUMPI DUP4 DUP5 REVERT JUMPDEST DUP2 PUSH1 0x20 DUP5 ADD PUSH1 0x20 DUP4 ADD CALLDATACOPY SWAP1 DUP2 ADD PUSH1 0x20 ADD SWAP3 SWAP1 SWAP3 MSTORE POP SWAP3 SWAP6 SWAP2 SWAP5 POP SWAP3 POP JUMP JUMPDEST PUSH1 0x0 DUP1 PUSH1 0x40 DUP4 DUP6 SUB SLT ISZERO PUSH3 0x3D8B JUMPI DUP2 DUP3 REVERT JUMPDEST DUP3 CALLDATALOAD PUSH3 0x3D98 DUP2 PUSH3 0x4A9B JUMP JUMPDEST SWAP2 POP PUSH1 0x20 DUP4 ADD CALLDATALOAD PUSH3 0x3C7B DUP2 PUSH3 0x4AB1 JUMP JUMPDEST PUSH1 0x0 DUP1 PUSH1 0x0 DUP1 PUSH1 0x0 DUP1 PUSH1 0xC0 DUP8 DUP10 SUB SLT ISZERO PUSH3 0x3DC3 JUMPI DUP2 DUP3 REVERT JUMPDEST DUP7 MLOAD PUSH3 0x3DD0 DUP2 PUSH3 0x4A9B JUMP JUMPDEST PUSH1 0x20 DUP9 ADD MLOAD SWAP1 SWAP7 POP PUSH8 0xFFFFFFFFFFFFFFFF DUP1 DUP3 GT ISZERO PUSH3 0x3DEE JUMPI DUP4 DUP5 REVERT JUMPDEST PUSH3 0x3DFC DUP11 DUP4 DUP12 ADD PUSH3 0x3BD7 JUMP JUMPDEST SWAP7 POP PUSH1 0x40 DUP10 ADD MLOAD SWAP2 POP DUP1 DUP3 GT ISZERO PUSH3 0x3E12 JUMPI DUP4 DUP5 REVERT JUMPDEST POP PUSH3 0x3E21 DUP10 DUP3 DUP11 ADD PUSH3 0x3BD7 JUMP JUMPDEST SWAP5 POP POP PUSH1 0x60 DUP8 ADD MLOAD SWAP3 POP PUSH1 0x80 DUP8 ADD MLOAD SWAP2 POP PUSH1 0xA0 DUP8 ADD MLOAD PUSH3 0x3E42 DUP2 PUSH3 0x4A9B JUMP JUMPDEST DUP1 SWAP2 POP POP SWAP3 SWAP6 POP SWAP3 SWAP6 POP SWAP3 SWAP6 JUMP JUMPDEST PUSH1 0x0 DUP1 PUSH1 0x40 DUP4 DUP6 SUB SLT ISZERO PUSH3 0x3E63 JUMPI DUP2 DUP3 REVERT JUMPDEST DUP3 CALLDATALOAD PUSH3 0x3E70 DUP2 PUSH3 0x4A9B JUMP JUMPDEST SWAP5 PUSH1 0x20 SWAP4 SWAP1 SWAP4 ADD CALLDATALOAD SWAP4 POP POP POP JUMP JUMPDEST PUSH1 0x0 PUSH1 0x20 DUP3 DUP5 SUB SLT ISZERO PUSH3 0x3E90 JUMPI DUP1 DUP2 REVERT JUMPDEST DUP2 MLOAD PUSH3 0x6A4 DUP2 PUSH3 0x4AB1 JUMP JUMPDEST PUSH1 0x0 PUSH1 0x20 DUP3 DUP5 SUB SLT ISZERO PUSH3 0x3EAF JUMPI DUP1 DUP2 REVERT JUMPDEST POP CALLDATALOAD SWAP2 SWAP1 POP JUMP JUMPDEST PUSH1 0x0 PUSH1 0x20 DUP3 DUP5 SUB SLT ISZERO PUSH3 0x3EC8 JUMPI DUP1 DUP2 REVERT JUMPDEST DUP2 CALLDATALOAD PUSH3 0x6A4 DUP2 PUSH3 0x4AC0 JUMP JUMPDEST PUSH1 0x0 PUSH1 0x20 DUP3 DUP5 SUB SLT ISZERO PUSH3 0x3EE7 JUMPI DUP1 DUP2 REVERT JUMPDEST DUP2 MLOAD PUSH3 0x6A4 DUP2 PUSH3 0x4AC0 JUMP JUMPDEST PUSH1 0x0 PUSH1 0x20 DUP3 DUP5 SUB SLT ISZERO PUSH3 0x3F06 JUMPI DUP1 DUP2 REVERT JUMPDEST DUP2 CALLDATALOAD PUSH1 0x5 DUP2 LT PUSH3 0x6A4 JUMPI DUP2 DUP3 REVERT JUMPDEST PUSH1 0x0 PUSH1 0x20 DUP3 DUP5 SUB SLT ISZERO PUSH3 0x3F27 JUMPI DUP1 DUP2 REVERT JUMPDEST DUP2 CALLDATALOAD PUSH1 0x2 DUP2 LT PUSH3 0x6A4 JUMPI DUP2 DUP3 REVERT JUMPDEST PUSH1 0x0 PUSH1 0x20 DUP3 DUP5 SUB SLT ISZERO PUSH3 0x3F48 JUMPI DUP1 DUP2 REVERT JUMPDEST POP MLOAD SWAP2 SWAP1 POP JUMP JUMPDEST PUSH1 0x0 PUSH1 0x20 DUP3 DUP5 SUB SLT ISZERO PUSH3 0x3F61 JUMPI DUP1 DUP2 REVERT JUMPDEST DUP2 CALLDATALOAD PUSH8 0xFFFFFFFFFFFFFFFF DUP2 GT ISZERO PUSH3 0x3F78 JUMPI DUP2 DUP3 REVERT JUMPDEST DUP3 ADD PUSH1 0xC0 DUP2 DUP6 SUB SLT ISZERO PUSH3 0x6A4 JUMPI DUP2 DUP3 REVERT JUMPDEST PUSH1 0x0 PUSH1 0xE0 DUP3 DUP5 SUB SLT ISZERO PUSH3 0x3F9C JUMPI DUP1 DUP2 REVERT JUMPDEST POP SWAP2 SWAP1 POP JUMP JUMPDEST PUSH1 0x0 DUP1 PUSH1 0x40 DUP4 DUP6 SUB SLT ISZERO PUSH3 0x3FB5 JUMPI DUP2 DUP3 REVERT JUMPDEST DUP3 CALLDATALOAD SWAP2 POP PUSH1 0x20 DUP4 ADD CALLDATALOAD PUSH3 0x3C7B DUP2 PUSH3 0x4A9B JUMP JUMPDEST PUSH1 0x1 PUSH1 0x1 PUSH1 0xA0 SHL SUB AND SWAP1 MSTORE JUMP JUMPDEST PUSH1 0x0 DUP2 MLOAD DUP1 DUP5 MSTORE PUSH3 0x3FF0 DUP2 PUSH1 0x20 DUP7 ADD PUSH1 0x20 DUP7 ADD PUSH3 0x4A6C JUMP JUMPDEST PUSH1 0x1F ADD PUSH1 0x1F NOT AND SWAP3 SWAP1 SWAP3 ADD PUSH1 0x20 ADD SWAP3 SWAP2 POP POP JUMP JUMPDEST PUSH1 0x4 DUP2 LT PUSH3 0x400F JUMPI INVALID JUMPDEST SWAP1 MSTORE JUMP JUMPDEST PUSH1 0x5 DUP2 LT PUSH3 0x400F JUMPI INVALID JUMPDEST PUSH1 0x2 DUP2 LT PUSH3 0x400F JUMPI INVALID JUMPDEST PUSH1 0x0 DUP3 DUP5 MSTORE DUP3 DUP3 PUSH1 0x20 DUP7 ADD CALLDATACOPY DUP1 PUSH1 0x20 DUP5 DUP7 ADD ADD MSTORE PUSH1 0x20 PUSH1 0x1F NOT PUSH1 0x1F DUP6 ADD AND DUP6 ADD ADD SWAP1 POP SWAP4 SWAP3 POP POP POP JUMP JUMPDEST DUP1 MLOAD DUP3 MSTORE PUSH1 0x20 SWAP1 DUP2 ADD MLOAD SWAP2 ADD MSTORE JUMP JUMPDEST PUSH1 0x0 DUP3 MLOAD PUSH3 0x4076 DUP2 DUP5 PUSH1 0x20 DUP8 ADD PUSH3 0x4A6C JUMP JUMPDEST SWAP2 SWAP1 SWAP2 ADD SWAP3 SWAP2 POP POP JUMP JUMPDEST PUSH1 0x0 DUP1 DUP5 SLOAD PUSH1 0x1 DUP1 DUP3 AND PUSH1 0x0 DUP2 EQ PUSH3 0x40A2 JUMPI PUSH1 0x1 DUP2 EQ PUSH3 0x40BA JUMPI PUSH3 0x40EB JUMP JUMPDEST PUSH1 0xFF NOT DUP4 AND DUP7 MSTORE PUSH1 0x2 DUP4 DIV PUSH1 0x7F AND DUP7 ADD SWAP4 POP PUSH3 0x40EB JUMP JUMPDEST PUSH1 0x2 DUP4 DIV DUP9 DUP7 MSTORE PUSH1 0x20 DUP1 DUP8 KECCAK256 DUP8 JUMPDEST DUP4 DUP2 LT ISZERO PUSH3 0x40E3 JUMPI DUP2 SLOAD DUP11 DUP3 ADD MSTORE SWAP1 DUP6 ADD SWAP1 DUP3 ADD PUSH3 0x40C8 JUMP JUMPDEST POP POP POP DUP7 ADD SWAP4 POP JUMPDEST POP POP POP DUP4 MLOAD PUSH3 0x4100 DUP2 DUP4 PUSH1 0x20 DUP9 ADD PUSH3 0x4A6C JUMP JUMPDEST ADD SWAP5 SWAP4 POP POP POP POP JUMP JUMPDEST PUSH1 0x1 PUSH1 0x1 PUSH1 0xA0 SHL SUB SWAP2 SWAP1 SWAP2 AND DUP2 MSTORE PUSH1 0x20 ADD SWAP1 JUMP JUMPDEST PUSH1 0x1 PUSH1 0x1 PUSH1 0xA0 SHL SUB SWAP4 DUP5 AND DUP2 MSTORE SWAP2 SWAP1 SWAP3 AND PUSH1 0x20 DUP3 ADD MSTORE PUSH1 0x40 DUP2 ADD SWAP2 SWAP1 SWAP2 MSTORE PUSH1 0x60 ADD SWAP1 JUMP JUMPDEST PUSH1 0x1 PUSH1 0x1 PUSH1 0xA0 SHL SUB DUP6 DUP2 AND DUP3 MSTORE DUP5 AND PUSH1 0x20 DUP3 ADD MSTORE PUSH1 0x40 DUP2 ADD DUP4 SWAP1 MSTORE PUSH1 0x80 PUSH1 0x60 DUP3 ADD DUP2 SWAP1 MSTORE PUSH1 0x0 SWAP1 PUSH3 0x4176 SWAP1 DUP4 ADD DUP5 PUSH3 0x3FD6 JUMP JUMPDEST SWAP7 SWAP6 POP POP POP POP POP POP JUMP JUMPDEST PUSH1 0x1 PUSH1 0x1 PUSH1 0xA0 SHL SUB SWAP3 DUP4 AND DUP2 MSTORE SWAP2 AND PUSH1 0x20 DUP3 ADD MSTORE PUSH1 0x40 ADD SWAP1 JUMP JUMPDEST PUSH1 0x1 PUSH1 0x1 PUSH1 0xA0 SHL SUB SWAP3 SWAP1 SWAP3 AND DUP3 MSTORE PUSH1 0x20 DUP3 ADD MSTORE PUSH1 0x40 ADD SWAP1 JUMP JUMPDEST PUSH1 0x0 PUSH1 0xA0 DUP3 ADD PUSH1 0xA0 DUP4 MSTORE DUP1 DUP8 SLOAD DUP1 DUP4 MSTORE PUSH1 0xC0 DUP6 ADD SWAP2 POP DUP9 DUP5 MSTORE PUSH1 0x20 SWAP3 POP DUP3 DUP5 KECCAK256 DUP5 JUMPDEST DUP3 DUP2 LT ISZERO PUSH3 0x41FF JUMPI DUP2 SLOAD DUP5 MSTORE PUSH1 0x1 DUP1 DUP4 ADD SLOAD DUP7 DUP7 ADD MSTORE PUSH1 0x40 SWAP1 SWAP5 ADD SWAP4 PUSH1 0x2 SWAP1 SWAP3 ADD SWAP2 ADD PUSH3 0x41D5 JUMP JUMPDEST POP POP POP SWAP1 DUP4 ADD DUP7 SWAP1 MSTORE PUSH1 0x40 DUP4 ADD DUP6 SWAP1 MSTORE SWAP1 POP PUSH3 0x4220 PUSH1 0x60 DUP4 ADD DUP5 PUSH3 0x4053 JUMP JUMPDEST SWAP6 SWAP5 POP POP POP POP POP JUMP JUMPDEST SWAP1 ISZERO ISZERO DUP2 MSTORE PUSH1 0x20 ADD SWAP1 JUMP JUMPDEST PUSH1 0x0 PUSH1 0xA0 DUP3 MSTORE PUSH3 0x424A PUSH1 0xA0 DUP4 ADD DUP10 DUP12 PUSH3 0x4029 JUMP JUMPDEST DUP3 DUP2 SUB PUSH1 0x20 DUP5 ADD MSTORE PUSH3 0x425F DUP2 DUP9 DUP11 PUSH3 0x4029 JUMP JUMPDEST PUSH1 0x40 DUP5 ADD SWAP7 SWAP1 SWAP7 MSTORE POP POP PUSH1 0x60 DUP2 ADD SWAP3 SWAP1 SWAP3 MSTORE PUSH1 0x1 PUSH1 0x1 PUSH1 0xA0 SHL SUB AND PUSH1 0x80 SWAP1 SWAP2 ADD MSTORE SWAP5 SWAP4 POP POP POP POP JUMP JUMPDEST PUSH1 0x0 PUSH1 0x20 DUP3 MSTORE PUSH3 0x6A4 PUSH1 0x20 DUP4 ADD DUP5 PUSH3 0x3FD6 JUMP JUMPDEST PUSH1 0x20 DUP1 DUP3 MSTORE PUSH1 0x22 SWAP1 DUP3 ADD MSTORE PUSH32 0x456E756D657261626C655365743A20696E646578206F7574206F6620626F756E PUSH1 0x40 DUP3 ADD MSTORE PUSH2 0x6473 PUSH1 0xF0 SHL PUSH1 0x60 DUP3 ADD MSTORE PUSH1 0x80 ADD SWAP1 JUMP JUMPDEST PUSH1 0x20 DUP1 DUP3 MSTORE PUSH1 0x32 SWAP1 DUP3 ADD MSTORE PUSH32 0x4552433732313A207472616E7366657220746F206E6F6E204552433732315265 PUSH1 0x40 DUP3 ADD MSTORE PUSH18 0x31B2B4BB32B91034B6B83632B6B2B73A32B9 PUSH1 0x71 SHL PUSH1 0x60 DUP3 ADD MSTORE PUSH1 0x80 ADD SWAP1 JUMP JUMPDEST PUSH1 0x20 DUP1 DUP3 MSTORE PUSH1 0x1C SWAP1 DUP3 ADD MSTORE PUSH32 0x4552433732313A20746F6B656E20616C7265616479206D696E74656400000000 PUSH1 0x40 DUP3 ADD MSTORE PUSH1 0x60 ADD SWAP1 JUMP JUMPDEST PUSH1 0x20 DUP1 DUP3 MSTORE PUSH1 0x1B SWAP1 DUP3 ADD MSTORE PUSH32 0x536166654D6174683A206164646974696F6E206F766572666C6F770000000000 PUSH1 0x40 DUP3 ADD MSTORE PUSH1 0x60 ADD SWAP1 JUMP JUMPDEST PUSH1 0x20 DUP1 DUP3 MSTORE PUSH1 0x24 SWAP1 DUP3 ADD MSTORE PUSH32 0x4552433732313A207472616E7366657220746F20746865207A65726F20616464 PUSH1 0x40 DUP3 ADD MSTORE PUSH4 0x72657373 PUSH1 0xE0 SHL PUSH1 0x60 DUP3 ADD MSTORE PUSH1 0x80 ADD SWAP1 JUMP JUMPDEST PUSH1 0x20 DUP1 DUP3 MSTORE PUSH1 0x19 SWAP1 DUP3 ADD MSTORE PUSH32 0x4552433732313A20617070726F766520746F2063616C6C657200000000000000 PUSH1 0x40 DUP3 ADD MSTORE PUSH1 0x60 ADD SWAP1 JUMP JUMPDEST PUSH1 0x20 DUP1 DUP3 MSTORE PUSH1 0x26 SWAP1 DUP3 ADD MSTORE PUSH32 0x416464726573733A20696E73756666696369656E742062616C616E636520666F PUSH1 0x40 DUP3 ADD MSTORE PUSH6 0x1C8818D85B1B PUSH1 0xD2 SHL PUSH1 0x60 DUP3 ADD MSTORE PUSH1 0x80 ADD SWAP1 JUMP JUMPDEST PUSH1 0x20 DUP1 DUP3 MSTORE PUSH1 0x2C SWAP1 DUP3 ADD MSTORE PUSH32 0x4552433732313A206F70657261746F7220717565727920666F72206E6F6E6578 PUSH1 0x40 DUP3 ADD MSTORE PUSH12 0x34B9BA32B73A103A37B5B2B7 PUSH1 0xA1 SHL PUSH1 0x60 DUP3 ADD MSTORE PUSH1 0x80 ADD SWAP1 JUMP JUMPDEST PUSH1 0x20 DUP1 DUP3 MSTORE PUSH1 0x38 SWAP1 DUP3 ADD MSTORE PUSH32 0x4552433732313A20617070726F76652063616C6C6572206973206E6F74206F77 PUSH1 0x40 DUP3 ADD MSTORE PUSH32 0x6E6572206E6F7220617070726F76656420666F7220616C6C0000000000000000 PUSH1 0x60 DUP3 ADD MSTORE PUSH1 0x80 ADD SWAP1 JUMP JUMPDEST PUSH1 0x20 DUP1 DUP3 MSTORE PUSH1 0x2A SWAP1 DUP3 ADD MSTORE PUSH32 0x4552433732313A2062616C616E636520717565727920666F7220746865207A65 PUSH1 0x40 DUP3 ADD MSTORE PUSH10 0x726F2061646472657373 PUSH1 0xB0 SHL PUSH1 0x60 DUP3 ADD MSTORE PUSH1 0x80 ADD SWAP1 JUMP JUMPDEST PUSH1 0x20 DUP1 DUP3 MSTORE PUSH1 0x22 SWAP1 DUP3 ADD MSTORE PUSH32 0x456E756D657261626C654D61703A20696E646578206F7574206F6620626F756E PUSH1 0x40 DUP3 ADD MSTORE PUSH2 0x6473 PUSH1 0xF0 SHL PUSH1 0x60 DUP3 ADD MSTORE PUSH1 0x80 ADD SWAP1 JUMP JUMPDEST PUSH1 0x20 DUP1 DUP3 MSTORE DUP2 DUP2 ADD MSTORE PUSH32 0x4552433732313A206D696E7420746F20746865207A65726F2061646472657373 PUSH1 0x40 DUP3 ADD MSTORE PUSH1 0x60 ADD SWAP1 JUMP JUMPDEST PUSH1 0x20 DUP1 DUP3 MSTORE PUSH1 0x21 SWAP1 DUP3 ADD MSTORE PUSH32 0x536166654D6174683A206D756C7469706C69636174696F6E206F766572666C6F PUSH1 0x40 DUP3 ADD MSTORE PUSH1 0x77 PUSH1 0xF8 SHL PUSH1 0x60 DUP3 ADD MSTORE PUSH1 0x80 ADD SWAP1 JUMP JUMPDEST PUSH1 0x20 DUP1 DUP3 MSTORE PUSH1 0x2C SWAP1 DUP3 ADD MSTORE PUSH32 0x4552433732313A20617070726F76656420717565727920666F72206E6F6E6578 PUSH1 0x40 DUP3 ADD MSTORE PUSH12 0x34B9BA32B73A103A37B5B2B7 PUSH1 0xA1 SHL PUSH1 0x60 DUP3 ADD MSTORE PUSH1 0x80 ADD SWAP1 JUMP JUMPDEST PUSH1 0x20 DUP1 DUP3 MSTORE PUSH1 0x29 SWAP1 DUP3 ADD MSTORE PUSH32 0x4552433732313A207472616E73666572206F6620746F6B656E20746861742069 PUSH1 0x40 DUP3 ADD MSTORE PUSH9 0x39903737BA1037BBB7 PUSH1 0xB9 SHL PUSH1 0x60 DUP3 ADD MSTORE PUSH1 0x80 ADD SWAP1 JUMP JUMPDEST PUSH1 0x20 DUP1 DUP3 MSTORE PUSH1 0x2F SWAP1 DUP3 ADD MSTORE PUSH32 0x4552433732314D657461646174613A2055524920717565727920666F72206E6F PUSH1 0x40 DUP3 ADD MSTORE PUSH15 0x3732BC34B9BA32B73A103A37B5B2B7 PUSH1 0x89 SHL PUSH1 0x60 DUP3 ADD MSTORE PUSH1 0x80 ADD SWAP1 JUMP JUMPDEST PUSH1 0x20 DUP1 DUP3 MSTORE PUSH1 0x21 SWAP1 DUP3 ADD MSTORE PUSH32 0x4552433732313A20617070726F76616C20746F2063757272656E74206F776E65 PUSH1 0x40 DUP3 ADD MSTORE PUSH1 0x39 PUSH1 0xF9 SHL PUSH1 0x60 DUP3 ADD MSTORE PUSH1 0x80 ADD SWAP1 JUMP JUMPDEST PUSH1 0x20 DUP1 DUP3 MSTORE PUSH1 0x3 SWAP1 DUP3 ADD MSTORE PUSH3 0x272299 PUSH1 0xE9 SHL PUSH1 0x40 DUP3 ADD MSTORE PUSH1 0x60 ADD SWAP1 JUMP JUMPDEST PUSH1 0x20 DUP1 DUP3 MSTORE PUSH1 0x31 SWAP1 DUP3 ADD MSTORE PUSH32 0x4552433732313A207472616E736665722063616C6C6572206973206E6F74206F PUSH1 0x40 DUP3 ADD MSTORE PUSH17 0x1DDB995C881B9BDC88185C1C1C9BDD9959 PUSH1 0x7A SHL PUSH1 0x60 DUP3 ADD MSTORE PUSH1 0x80 ADD SWAP1 JUMP JUMPDEST PUSH1 0x20 DUP1 DUP3 MSTORE PUSH1 0x3 SWAP1 DUP3 ADD MSTORE PUSH3 0x4E4541 PUSH1 0xE8 SHL PUSH1 0x40 DUP3 ADD MSTORE PUSH1 0x60 ADD SWAP1 JUMP JUMPDEST PUSH1 0x20 DUP1 DUP3 MSTORE PUSH1 0x1D SWAP1 DUP3 ADD MSTORE PUSH32 0x416464726573733A2063616C6C20746F206E6F6E2D636F6E7472616374000000 PUSH1 0x40 DUP3 ADD MSTORE PUSH1 0x60 ADD SWAP1 JUMP JUMPDEST PUSH1 0x20 DUP1 DUP3 MSTORE PUSH1 0x2 SWAP1 DUP3 ADD MSTORE PUSH2 0x27A3 PUSH1 0xF1 SHL PUSH1 0x40 DUP3 ADD MSTORE PUSH1 0x60 ADD SWAP1 JUMP JUMPDEST PUSH1 0x20 DUP1 DUP3 MSTORE PUSH1 0x3 SWAP1 DUP3 ADD MSTORE PUSH3 0x4E454D PUSH1 0xE8 SHL PUSH1 0x40 DUP3 ADD MSTORE PUSH1 0x60 ADD SWAP1 JUMP JUMPDEST PUSH1 0x20 DUP1 DUP3 MSTORE PUSH1 0x2 SWAP1 DUP3 ADD MSTORE PUSH2 0x2621 PUSH1 0xF1 SHL PUSH1 0x40 DUP3 ADD MSTORE PUSH1 0x60 ADD SWAP1 JUMP JUMPDEST PUSH1 0x0 PUSH2 0x1C0 DUP3 ADD SWAP1 POP PUSH3 0x485D DUP3 DUP5 MLOAD PUSH3 0x4053 JUMP JUMPDEST PUSH1 0x20 DUP4 ADD MLOAD PUSH3 0x4871 PUSH1 0x40 DUP5 ADD DUP3 PUSH3 0x401E JUMP JUMPDEST POP PUSH1 0x40 DUP4 ADD MLOAD PUSH3 0x4886 PUSH1 0x60 DUP5 ADD DUP3 PUSH3 0x4013 JUMP JUMPDEST POP PUSH1 0x60 DUP4 ADD MLOAD PUSH3 0x489B PUSH1 0x80 DUP5 ADD DUP3 PUSH3 0x3FC9 JUMP JUMPDEST POP PUSH1 0x80 DUP4 ADD MLOAD PUSH3 0x48B0 PUSH1 0xA0 DUP5 ADD DUP3 PUSH3 0x3FC9 JUMP JUMPDEST POP PUSH1 0xA0 DUP4 ADD MLOAD PUSH1 0xC0 DUP4 ADD MSTORE PUSH1 0xC0 DUP4 ADD MLOAD PUSH1 0xE0 DUP4 ADD MSTORE PUSH1 0xE0 DUP4 ADD MLOAD PUSH2 0x100 DUP2 DUP2 DUP6 ADD MSTORE DUP1 DUP6 ADD MLOAD SWAP2 POP POP PUSH2 0x120 DUP2 DUP2 DUP6 ADD MSTORE DUP1 DUP6 ADD MLOAD SWAP2 POP POP PUSH2 0x140 PUSH3 0x48F9 DUP2 DUP6 ADD DUP4 PUSH3 0x4004 JUMP JUMPDEST DUP5 ADD MLOAD PUSH2 0x160 DUP5 DUP2 ADD SWAP2 SWAP1 SWAP2 MSTORE DUP5 ADD MLOAD PUSH2 0x180 DUP1 DUP6 ADD SWAP2 SWAP1 SWAP2 MSTORE SWAP1 SWAP4 ADD MLOAD PUSH2 0x1A0 SWAP1 SWAP3 ADD SWAP2 SWAP1 SWAP2 MSTORE SWAP2 SWAP1 POP JUMP JUMPDEST PUSH1 0x0 PUSH1 0x20 DUP3 MSTORE DUP3 MLOAD PUSH1 0x20 DUP4 ADD MSTORE PUSH1 0x20 DUP4 ADD MLOAD PUSH3 0x4947 PUSH1 0x40 DUP5 ADD DUP3 PUSH3 0x3FC9 JUMP JUMPDEST POP PUSH1 0x40 DUP4 ADD MLOAD PUSH3 0x495C PUSH1 0x60 DUP5 ADD DUP3 PUSH3 0x3FC9 JUMP JUMPDEST POP PUSH1 0x60 DUP4 ADD MLOAD PUSH2 0x100 DUP1 PUSH1 0x80 DUP6 ADD MSTORE PUSH3 0x497B PUSH2 0x120 DUP6 ADD DUP4 PUSH3 0x3FD6 JUMP JUMPDEST SWAP2 POP PUSH1 0x80 DUP6 ADD MLOAD PUSH1 0x1F NOT DUP6 DUP5 SUB ADD PUSH1 0xA0 DUP7 ADD MSTORE PUSH3 0x499A DUP4 DUP3 PUSH3 0x3FD6 JUMP JUMPDEST SWAP3 POP POP PUSH1 0xA0 DUP6 ADD MLOAD PUSH1 0xC0 DUP6 ADD MSTORE PUSH1 0xC0 DUP6 ADD MLOAD PUSH1 0xE0 DUP6 ADD MSTORE PUSH1 0xE0 DUP6 ADD MLOAD PUSH3 0x49C4 DUP3 DUP7 ADD DUP3 PUSH3 0x3FC9 JUMP JUMPDEST POP SWAP1 SWAP5 SWAP4 POP POP POP POP JUMP JUMPDEST SWAP1 DUP2 MSTORE PUSH1 0x20 ADD SWAP1 JUMP JUMPDEST PUSH1 0x0 DUP1 DUP4 CALLDATALOAD PUSH1 0x1E NOT DUP5 CALLDATASIZE SUB ADD DUP2 SLT PUSH3 0x49EE JUMPI DUP3 DUP4 REVERT JUMPDEST DUP4 ADD DUP1 CALLDATALOAD SWAP2 POP PUSH8 0xFFFFFFFFFFFFFFFF DUP3 GT ISZERO PUSH3 0x4A09 JUMPI DUP3 DUP4 REVERT JUMPDEST PUSH1 0x20 ADD SWAP2 POP CALLDATASIZE DUP2 SWAP1 SUB DUP3 SGT ISZERO PUSH3 0x18FF JUMPI PUSH1 0x0 DUP1 REVERT JUMPDEST PUSH1 0x40 MLOAD DUP2 DUP2 ADD PUSH8 0xFFFFFFFFFFFFFFFF DUP2 GT DUP3 DUP3 LT OR ISZERO PUSH3 0x4A3F JUMPI PUSH1 0x0 DUP1 REVERT JUMPDEST PUSH1 0x40 MSTORE SWAP2 SWAP1 POP JUMP JUMPDEST PUSH1 0x0 PUSH8 0xFFFFFFFFFFFFFFFF DUP3 GT ISZERO PUSH3 0x4A5E JUMPI DUP1 DUP2 REVERT JUMPDEST POP PUSH1 0x1F ADD PUSH1 0x1F NOT AND PUSH1 0x20 ADD SWAP1 JUMP JUMPDEST PUSH1 0x0 JUMPDEST DUP4 DUP2 LT ISZERO PUSH3 0x4A89 JUMPI DUP2 DUP2 ADD MLOAD DUP4 DUP3 ADD MSTORE PUSH1 0x20 ADD PUSH3 0x4A6F JUMP JUMPDEST DUP4 DUP2 GT ISZERO PUSH3 0x1464 JUMPI POP POP PUSH1 0x0 SWAP2 ADD MSTORE JUMP JUMPDEST PUSH1 0x1 PUSH1 0x1 PUSH1 0xA0 SHL SUB DUP2 AND DUP2 EQ PUSH3 0x28D6 JUMPI PUSH1 0x0 DUP1 REVERT JUMPDEST DUP1 ISZERO ISZERO DUP2 EQ PUSH3 0x28D6 JUMPI PUSH1 0x0 DUP1 REVERT JUMPDEST PUSH1 0x1 PUSH1 0x1 PUSH1 0xE0 SHL SUB NOT DUP2 AND DUP2 EQ PUSH3 0x28D6 JUMPI PUSH1 0x0 DUP1 REVERT INVALID PUSH1 0x80 PUSH1 0x40 MSTORE CALLVALUE DUP1 ISZERO PUSH3 0x11 JUMPI PUSH1 0x0 DUP1 REVERT JUMPDEST POP PUSH1 0x40 MLOAD PUSH3 0x10DB CODESIZE SUB DUP1 PUSH3 0x10DB DUP4 CODECOPY DUP2 ADD PUSH1 0x40 DUP2 SWAP1 MSTORE PUSH3 0x34 SWAP2 PUSH3 0x3DC JUMP JUMPDEST DUP5 MLOAD DUP6 SWAP1 DUP6 SWAP1 PUSH3 0x4D SWAP1 PUSH1 0x3 SWAP1 PUSH1 0x20 DUP6 ADD SWAP1 PUSH3 0x299 JUMP JUMPDEST POP DUP1 MLOAD PUSH3 0x63 SWAP1 PUSH1 0x4 SWAP1 PUSH1 0x20 DUP5 ADD SWAP1 PUSH3 0x299 JUMP JUMPDEST POP POP PUSH1 0x5 DUP1 SLOAD PUSH1 0xFF NOT AND PUSH1 0x12 OR SWAP1 SSTORE POP CALLER PUSH3 0x80 DUP3 DUP6 PUSH3 0xBD JUMP JUMPDEST PUSH3 0x8D DUP3 DUP3 DUP7 PUSH3 0x1A9 JUMP JUMPDEST POP PUSH1 0x6 SWAP2 SWAP1 SWAP2 SSTORE PUSH1 0x7 DUP1 SLOAD PUSH1 0x1 PUSH1 0x1 PUSH1 0xA0 SHL SUB NOT AND PUSH1 0x1 PUSH1 0x1 PUSH1 0xA0 SHL SUB SWAP1 SWAP3 AND SWAP2 SWAP1 SWAP2 OR SWAP1 SSTORE POP PUSH3 0x577 SWAP2 POP POP JUMP JUMPDEST PUSH1 0x1 PUSH1 0x1 PUSH1 0xA0 SHL SUB DUP3 AND PUSH3 0xEF JUMPI PUSH1 0x40 MLOAD PUSH3 0x461BCD PUSH1 0xE5 SHL DUP2 MSTORE PUSH1 0x4 ADD PUSH3 0xE6 SWAP1 PUSH3 0x537 JUMP JUMPDEST PUSH1 0x40 MLOAD DUP1 SWAP2 SUB SWAP1 REVERT JUMPDEST PUSH3 0xFD PUSH1 0x0 DUP4 DUP4 PUSH3 0x265 JUMP JUMPDEST PUSH3 0x119 DUP2 PUSH1 0x2 SLOAD PUSH3 0x26A PUSH1 0x20 SHL PUSH3 0x562 OR SWAP1 SWAP2 SWAP1 PUSH1 0x20 SHR JUMP JUMPDEST PUSH1 0x2 SSTORE PUSH1 0x1 PUSH1 0x1 PUSH1 0xA0 SHL SUB DUP3 AND PUSH1 0x0 SWAP1 DUP2 MSTORE PUSH1 0x20 DUP2 DUP2 MSTORE PUSH1 0x40 SWAP1 SWAP2 KECCAK256 SLOAD PUSH3 0x14C SWAP2 DUP4 SWAP1 PUSH3 0x562 PUSH3 0x26A DUP3 SHL OR SWAP1 SHR JUMP JUMPDEST PUSH1 0x1 PUSH1 0x1 PUSH1 0xA0 SHL SUB DUP4 AND PUSH1 0x0 DUP2 DUP2 MSTORE PUSH1 0x20 DUP2 SWAP1 MSTORE PUSH1 0x40 DUP1 DUP3 KECCAK256 SWAP4 SWAP1 SWAP4 SSTORE SWAP2 MLOAD SWAP1 SWAP2 SWAP1 PUSH32 0xDDF252AD1BE2C89B69C2B068FC378DAA952BA7F163C4A11628F55A4DF523B3EF SWAP1 PUSH3 0x19D SWAP1 DUP6 SWAP1 PUSH3 0x56E JUMP JUMPDEST PUSH1 0x40 MLOAD DUP1 SWAP2 SUB SWAP1 LOG3 POP POP JUMP JUMPDEST PUSH1 0x1 PUSH1 0x1 PUSH1 0xA0 SHL SUB DUP4 AND PUSH3 0x1D2 JUMPI PUSH1 0x40 MLOAD PUSH3 0x461BCD PUSH1 0xE5 SHL DUP2 MSTORE PUSH1 0x4 ADD PUSH3 0xE6 SWAP1 PUSH3 0x4F3 JUMP JUMPDEST PUSH1 0x1 PUSH1 0x1 PUSH1 0xA0 SHL SUB DUP3 AND PUSH3 0x1FB JUMPI PUSH1 0x40 MLOAD PUSH3 0x461BCD PUSH1 0xE5 SHL DUP2 MSTORE PUSH1 0x4 ADD PUSH3 0xE6 SWAP1 PUSH3 0x47A JUMP JUMPDEST PUSH1 0x1 PUSH1 0x1 PUSH1 0xA0 SHL SUB DUP1 DUP5 AND PUSH1 0x0 DUP2 DUP2 MSTORE PUSH1 0x1 PUSH1 0x20 SWAP1 DUP2 MSTORE PUSH1 0x40 DUP1 DUP4 KECCAK256 SWAP5 DUP8 AND DUP1 DUP5 MSTORE SWAP5 SWAP1 SWAP2 MSTORE SWAP1 DUP2 SWAP1 KECCAK256 DUP5 SWAP1 SSTORE MLOAD PUSH32 0x8C5BE1E5EBEC7D5BD14F71427D1E84F3DD0314C0F7B2291E5B200AC8C7C3B925 SWAP1 PUSH3 0x258 SWAP1 DUP6 SWAP1 PUSH3 0x56E JUMP JUMPDEST PUSH1 0x40 MLOAD DUP1 SWAP2 SUB SWAP1 LOG3 POP POP POP JUMP JUMPDEST POP POP POP JUMP JUMPDEST PUSH1 0x0 DUP3 DUP3 ADD DUP4 DUP2 LT ISZERO PUSH3 0x292 JUMPI PUSH1 0x40 MLOAD PUSH3 0x461BCD PUSH1 0xE5 SHL DUP2 MSTORE PUSH1 0x4 ADD PUSH3 0xE6 SWAP1 PUSH3 0x4BC JUMP JUMPDEST SWAP4 SWAP3 POP POP POP JUMP JUMPDEST DUP3 DUP1 SLOAD PUSH1 0x1 DUP2 PUSH1 0x1 AND ISZERO PUSH2 0x100 MUL SUB AND PUSH1 0x2 SWAP1 DIV SWAP1 PUSH1 0x0 MSTORE PUSH1 0x20 PUSH1 0x0 KECCAK256 SWAP1 PUSH1 0x1F ADD PUSH1 0x20 SWAP1 DIV DUP2 ADD SWAP3 DUP3 PUSH1 0x1F LT PUSH3 0x2DC JUMPI DUP1 MLOAD PUSH1 0xFF NOT AND DUP4 DUP1 ADD OR DUP6 SSTORE PUSH3 0x30C JUMP JUMPDEST DUP3 DUP1 ADD PUSH1 0x1 ADD DUP6 SSTORE DUP3 ISZERO PUSH3 0x30C JUMPI SWAP2 DUP3 ADD JUMPDEST DUP3 DUP2 GT ISZERO PUSH3 0x30C JUMPI DUP3 MLOAD DUP3 SSTORE SWAP2 PUSH1 0x20 ADD SWAP2 SWAP1 PUSH1 0x1 ADD SWAP1 PUSH3 0x2EF JUMP JUMPDEST POP PUSH3 0x31A SWAP3 SWAP2 POP PUSH3 0x31E JUMP JUMPDEST POP SWAP1 JUMP JUMPDEST JUMPDEST DUP1 DUP3 GT ISZERO PUSH3 0x31A JUMPI PUSH1 0x0 DUP2 SSTORE PUSH1 0x1 ADD PUSH3 0x31F JUMP JUMPDEST PUSH1 0x0 DUP3 PUSH1 0x1F DUP4 ADD SLT PUSH3 0x346 JUMPI DUP1 DUP2 REVERT JUMPDEST DUP2 MLOAD PUSH1 0x1 PUSH1 0x1 PUSH1 0x40 SHL SUB DUP1 DUP3 GT ISZERO PUSH3 0x35D JUMPI DUP3 DUP4 REVERT JUMPDEST PUSH1 0x40 MLOAD PUSH1 0x20 PUSH1 0x1F DUP5 ADD PUSH1 0x1F NOT AND DUP3 ADD DUP2 ADD DUP4 DUP2 GT DUP4 DUP3 LT OR ISZERO PUSH3 0x37F JUMPI DUP6 DUP7 REVERT JUMPDEST DUP1 PUSH1 0x40 MSTORE POP DUP2 SWAP5 POP DUP4 DUP3 MSTORE DUP7 DUP2 DUP6 DUP9 ADD ADD GT ISZERO PUSH3 0x39C JUMPI PUSH1 0x0 DUP1 REVERT JUMPDEST PUSH1 0x0 SWAP3 POP JUMPDEST DUP4 DUP4 LT ISZERO PUSH3 0x3C0 JUMPI DUP6 DUP4 ADD DUP2 ADD MLOAD DUP3 DUP5 ADD DUP3 ADD MSTORE SWAP2 DUP3 ADD SWAP2 PUSH3 0x3A1 JUMP JUMPDEST DUP4 DUP4 GT ISZERO PUSH3 0x3D2 JUMPI PUSH1 0x0 DUP2 DUP6 DUP5 ADD ADD MSTORE JUMPDEST POP POP POP POP SWAP3 SWAP2 POP POP JUMP JUMPDEST PUSH1 0x0 DUP1 PUSH1 0x0 DUP1 PUSH1 0x0 PUSH1 0xA0 DUP7 DUP9 SUB SLT ISZERO PUSH3 0x3F4 JUMPI DUP1 DUP2 REVERT JUMPDEST DUP6 MLOAD PUSH1 0x1 PUSH1 0x1 PUSH1 0x40 SHL SUB DUP1 DUP3 GT ISZERO PUSH3 0x40B JUMPI DUP3 DUP4 REVERT JUMPDEST PUSH3 0x419 DUP10 DUP4 DUP11 ADD PUSH3 0x335 JUMP JUMPDEST SWAP7 POP PUSH1 0x20 DUP9 ADD MLOAD SWAP2 POP DUP1 DUP3 GT ISZERO PUSH3 0x42F JUMPI DUP3 DUP4 REVERT JUMPDEST POP PUSH3 0x43E DUP9 DUP3 DUP10 ADD PUSH3 0x335 JUMP JUMPDEST PUSH1 0x40 DUP9 ADD MLOAD PUSH1 0x60 DUP10 ADD MLOAD PUSH1 0x80 DUP11 ADD MLOAD SWAP3 SWAP8 POP SWAP1 SWAP6 POP SWAP4 POP SWAP1 POP PUSH1 0x1 PUSH1 0x1 PUSH1 0xA0 SHL SUB DUP2 AND DUP2 EQ PUSH3 0x46C JUMPI DUP2 DUP3 REVERT JUMPDEST DUP1 SWAP2 POP POP SWAP3 SWAP6 POP SWAP3 SWAP6 SWAP1 SWAP4 POP JUMP JUMPDEST PUSH1 0x20 DUP1 DUP3 MSTORE PUSH1 0x22 SWAP1 DUP3 ADD MSTORE PUSH32 0x45524332303A20617070726F766520746F20746865207A65726F206164647265 PUSH1 0x40 DUP3 ADD MSTORE PUSH2 0x7373 PUSH1 0xF0 SHL PUSH1 0x60 DUP3 ADD MSTORE PUSH1 0x80 ADD SWAP1 JUMP JUMPDEST PUSH1 0x20 DUP1 DUP3 MSTORE PUSH1 0x1B SWAP1 DUP3 ADD MSTORE PUSH32 0x536166654D6174683A206164646974696F6E206F766572666C6F770000000000 PUSH1 0x40 DUP3 ADD MSTORE PUSH1 0x60 ADD SWAP1 JUMP JUMPDEST PUSH1 0x20 DUP1 DUP3 MSTORE PUSH1 0x24 SWAP1 DUP3 ADD MSTORE PUSH32 0x45524332303A20617070726F76652066726F6D20746865207A65726F20616464 PUSH1 0x40 DUP3 ADD MSTORE PUSH4 0x72657373 PUSH1 0xE0 SHL PUSH1 0x60 DUP3 ADD MSTORE PUSH1 0x80 ADD SWAP1 JUMP JUMPDEST PUSH1 0x20 DUP1 DUP3 MSTORE PUSH1 0x1F SWAP1 DUP3 ADD MSTORE PUSH32 0x45524332303A206D696E7420746F20746865207A65726F206164647265737300 PUSH1 0x40 DUP3 ADD MSTORE PUSH1 0x60 ADD SWAP1 JUMP JUMPDEST SWAP1 DUP2 MSTORE PUSH1 0x20 ADD SWAP1 JUMP JUMPDEST PUSH2 0xB54 DUP1 PUSH3 0x587 PUSH1 0x0 CODECOPY PUSH1 0x0 RETURN INVALID PUSH1 0x80 PUSH1 0x40 MSTORE CALLVALUE DUP1 ISZERO PUSH2 0x10 JUMPI PUSH1 0x0 DUP1 REVERT JUMPDEST POP PUSH1 0x4 CALLDATASIZE LT PUSH2 0xF5 JUMPI PUSH1 0x0 CALLDATALOAD PUSH1 0xE0 SHR DUP1 PUSH4 0x565974D3 GT PUSH2 0x97 JUMPI DUP1 PUSH4 0xA457C2D7 GT PUSH2 0x66 JUMPI DUP1 PUSH4 0xA457C2D7 EQ PUSH2 0x1E7 JUMPI DUP1 PUSH4 0xA71B6426 EQ PUSH2 0x1FA JUMPI DUP1 PUSH4 0xA9059CBB EQ PUSH2 0x202 JUMPI DUP1 PUSH4 0xDD62ED3E EQ PUSH2 0x215 JUMPI PUSH2 0xF5 JUMP JUMPDEST DUP1 PUSH4 0x565974D3 EQ PUSH2 0x19D JUMPI DUP1 PUSH4 0x6C6F31F2 EQ PUSH2 0x1B7 JUMPI DUP1 PUSH4 0x70A08231 EQ PUSH2 0x1CC JUMPI DUP1 PUSH4 0x95D89B41 EQ PUSH2 0x1DF JUMPI PUSH2 0xF5 JUMP JUMPDEST DUP1 PUSH4 0x1D143848 GT PUSH2 0xD3 JUMPI DUP1 PUSH4 0x1D143848 EQ PUSH2 0x14D JUMPI DUP1 PUSH4 0x23B872DD EQ PUSH2 0x162 JUMPI DUP1 PUSH4 0x313CE567 EQ PUSH2 0x175 JUMPI DUP1 PUSH4 0x39509351 EQ PUSH2 0x18A JUMPI PUSH2 0xF5 JUMP JUMPDEST DUP1 PUSH4 0x6FDDE03 EQ PUSH2 0xFA JUMPI DUP1 PUSH4 0x95EA7B3 EQ PUSH2 0x118 JUMPI DUP1 PUSH4 0x18160DDD EQ PUSH2 0x138 JUMPI JUMPDEST PUSH1 0x0 DUP1 REVERT JUMPDEST PUSH2 0x102 PUSH2 0x228 JUMP JUMPDEST PUSH1 0x40 MLOAD PUSH2 0x10F SWAP2 SWAP1 PUSH2 0x924 JUMP JUMPDEST PUSH1 0x40 MLOAD DUP1 SWAP2 SUB SWAP1 RETURN JUMPDEST PUSH2 0x12B PUSH2 0x126 CALLDATASIZE PUSH1 0x4 PUSH2 0x83B JUMP JUMPDEST PUSH2 0x2BE JUMP JUMPDEST PUSH1 0x40 MLOAD PUSH2 0x10F SWAP2 SWAP1 PUSH2 0x919 JUMP JUMPDEST PUSH2 0x140 PUSH2 0x2DC JUMP JUMPDEST PUSH1 0x40 MLOAD PUSH2 0x10F SWAP2 SWAP1 PUSH2 0xA7C JUMP JUMPDEST PUSH2 0x155 PUSH2 0x2E2 JUMP JUMPDEST PUSH1 0x40 MLOAD PUSH2 0x10F SWAP2 SWAP1 PUSH2 0x8B0 JUMP JUMPDEST PUSH2 0x12B PUSH2 0x170 CALLDATASIZE PUSH1 0x4 PUSH2 0x7FB JUMP JUMPDEST PUSH2 0x2F1 JUMP JUMPDEST PUSH2 0x17D PUSH2 0x378 JUMP JUMPDEST PUSH1 0x40 MLOAD PUSH2 0x10F SWAP2 SWAP1 PUSH2 0xA85 JUMP JUMPDEST PUSH2 0x12B PUSH2 0x198 CALLDATASIZE PUSH1 0x4 PUSH2 0x83B JUMP JUMPDEST PUSH2 0x381 JUMP JUMPDEST PUSH2 0x1A5 PUSH2 0x3CF JUMP JUMPDEST PUSH1 0x40 MLOAD PUSH2 0x10F SWAP7 SWAP6 SWAP5 SWAP4 SWAP3 SWAP2 SWAP1 PUSH2 0x8C4 JUMP JUMPDEST PUSH2 0x1CA PUSH2 0x1C5 CALLDATASIZE PUSH1 0x4 PUSH2 0x83B JUMP JUMPDEST PUSH2 0x415 JUMP JUMPDEST STOP JUMPDEST PUSH2 0x140 PUSH2 0x1DA CALLDATASIZE PUSH1 0x4 PUSH2 0x7AC JUMP JUMPDEST PUSH2 0x439 JUMP JUMPDEST PUSH2 0x102 PUSH2 0x454 JUMP JUMPDEST PUSH2 0x12B PUSH2 0x1F5 CALLDATASIZE PUSH1 0x4 PUSH2 0x83B JUMP JUMPDEST PUSH2 0x4B5 JUMP JUMPDEST PUSH2 0x140 PUSH2 0x51D JUMP JUMPDEST PUSH2 0x12B PUSH2 0x210 CALLDATASIZE PUSH1 0x4 PUSH2 0x83B JUMP JUMPDEST PUSH2 0x523 JUMP JUMPDEST PUSH2 0x140 PUSH2 0x223 CALLDATASIZE PUSH1 0x4 PUSH2 0x7C7 JUMP JUMPDEST PUSH2 0x537 JUMP JUMPDEST PUSH1 0x3 DUP1 SLOAD PUSH1 0x40 DUP1 MLOAD PUSH1 0x20 PUSH1 0x1F PUSH1 0x2 PUSH1 0x0 NOT PUSH2 0x100 PUSH1 0x1 DUP9 AND ISZERO MUL ADD SWAP1 SWAP6 AND SWAP5 SWAP1 SWAP5 DIV SWAP4 DUP5 ADD DUP2 SWAP1 DIV DUP2 MUL DUP3 ADD DUP2 ADD SWAP1 SWAP3 MSTORE DUP3 DUP2 MSTORE PUSH1 0x60 SWAP4 SWAP1 SWAP3 SWAP1 SWAP2 DUP4 ADD DUP3 DUP3 DUP1 ISZERO PUSH2 0x2B4 JUMPI DUP1 PUSH1 0x1F LT PUSH2 0x289 JUMPI PUSH2 0x100 DUP1 DUP4 SLOAD DIV MUL DUP4 MSTORE SWAP2 PUSH1 0x20 ADD SWAP2 PUSH2 0x2B4 JUMP JUMPDEST DUP3 ADD SWAP2 SWAP1 PUSH1 0x0 MSTORE PUSH1 0x20 PUSH1 0x0 KECCAK256 SWAP1 JUMPDEST DUP2 SLOAD DUP2 MSTORE SWAP1 PUSH1 0x1 ADD SWAP1 PUSH1 0x20 ADD DUP1 DUP4 GT PUSH2 0x297 JUMPI DUP3 SWAP1 SUB PUSH1 0x1F AND DUP3 ADD SWAP2 JUMPDEST POP POP POP POP POP SWAP1 POP SWAP1 JUMP JUMPDEST PUSH1 0x0 PUSH2 0x2D2 PUSH2 0x2CB PUSH2 0x597 JUMP JUMPDEST DUP5 DUP5 PUSH2 0x59B JUMP JUMPDEST POP PUSH1 0x1 JUMPDEST SWAP3 SWAP2 POP POP JUMP JUMPDEST PUSH1 0x2 SLOAD SWAP1 JUMP JUMPDEST PUSH1 0x7 SLOAD PUSH1 0x1 PUSH1 0x1 PUSH1 0xA0 SHL SUB AND SWAP1 JUMP JUMPDEST PUSH1 0x0 PUSH2 0x2FE DUP5 DUP5 DUP5 PUSH2 0x64F JUMP JUMPDEST PUSH2 0x36E DUP5 PUSH2 0x30A PUSH2 0x597 JUMP JUMPDEST PUSH2 0x369 DUP6 PUSH1 0x40 MLOAD DUP1 PUSH1 0x60 ADD PUSH1 0x40 MSTORE DUP1 PUSH1 0x28 DUP2 MSTORE PUSH1 0x20 ADD PUSH2 0xAD2 PUSH1 0x28 SWAP2 CODECOPY PUSH1 0x1 PUSH1 0x1 PUSH1 0xA0 SHL SUB DUP11 AND PUSH1 0x0 SWAP1 DUP2 MSTORE PUSH1 0x1 PUSH1 0x20 MSTORE PUSH1 0x40 DUP2 KECCAK256 SWAP1 PUSH2 0x348 PUSH2 0x597 JUMP JUMPDEST PUSH1 0x1 PUSH1 0x1 PUSH1 0xA0 SHL SUB AND DUP2 MSTORE PUSH1 0x20 DUP2 ADD SWAP2 SWAP1 SWAP2 MSTORE PUSH1 0x40 ADD PUSH1 0x0 KECCAK256 SLOAD SWAP2 SWAP1 PUSH2 0x764 JUMP JUMPDEST PUSH2 0x59B JUMP JUMPDEST POP PUSH1 0x1 SWAP4 SWAP3 POP POP POP JUMP JUMPDEST PUSH1 0x5 SLOAD PUSH1 0xFF AND SWAP1 JUMP JUMPDEST PUSH1 0x0 PUSH2 0x2D2 PUSH2 0x38E PUSH2 0x597 JUMP JUMPDEST DUP5 PUSH2 0x369 DUP6 PUSH1 0x1 PUSH1 0x0 PUSH2 0x39F PUSH2 0x597 JUMP JUMPDEST PUSH1 0x1 PUSH1 0x1 PUSH1 0xA0 SHL SUB SWAP1 DUP2 AND DUP3 MSTORE PUSH1 0x20 DUP1 DUP4 ADD SWAP4 SWAP1 SWAP4 MSTORE PUSH1 0x40 SWAP2 DUP3 ADD PUSH1 0x0 SWAP1 DUP2 KECCAK256 SWAP2 DUP13 AND DUP2 MSTORE SWAP3 MSTORE SWAP1 KECCAK256 SLOAD SWAP1 PUSH2 0x562 JUMP JUMPDEST PUSH1 0x0 PUSH1 0x60 DUP1 PUSH1 0x0 DUP1 PUSH1 0x0 ADDRESS PUSH2 0x3E2 PUSH2 0x228 JUMP JUMPDEST PUSH2 0x3EA PUSH2 0x454 JUMP JUMPDEST PUSH2 0x3F2 PUSH2 0x2DC JUMP JUMPDEST PUSH2 0x3FA PUSH2 0x51D JUMP JUMPDEST PUSH2 0x402 PUSH2 0x2E2 JUMP JUMPDEST SWAP5 SWAP12 SWAP4 SWAP11 POP SWAP2 SWAP9 POP SWAP7 POP SWAP5 POP SWAP1 SWAP3 POP SWAP1 POP JUMP JUMPDEST CALLER PUSH1 0x0 PUSH2 0x422 DUP5 DUP4 PUSH2 0x537 JUMP JUMPDEST SWAP1 POP PUSH2 0x433 DUP5 DUP4 PUSH2 0x369 DUP7 DUP6 PUSH2 0x562 JUMP JUMPDEST POP POP POP POP JUMP JUMPDEST PUSH1 0x1 PUSH1 0x1 PUSH1 0xA0 SHL SUB AND PUSH1 0x0 SWAP1 DUP2 MSTORE PUSH1 0x20 DUP2 SWAP1 MSTORE PUSH1 0x40 SWAP1 KECCAK256 SLOAD SWAP1 JUMP JUMPDEST PUSH1 0x4 DUP1 SLOAD PUSH1 0x40 DUP1 MLOAD PUSH1 0x20 PUSH1 0x1F PUSH1 0x2 PUSH1 0x0 NOT PUSH2 0x100 PUSH1 0x1 DUP9 AND ISZERO MUL ADD SWAP1 SWAP6 AND SWAP5 SWAP1 SWAP5 DIV SWAP4 DUP5 ADD DUP2 SWAP1 DIV DUP2 MUL DUP3 ADD DUP2 ADD SWAP1 SWAP3 MSTORE DUP3 DUP2 MSTORE PUSH1 0x60 SWAP4 SWAP1 SWAP3 SWAP1 SWAP2 DUP4 ADD DUP3 DUP3 DUP1 ISZERO PUSH2 0x2B4 JUMPI DUP1 PUSH1 0x1F LT PUSH2 0x289 JUMPI PUSH2 0x100 DUP1 DUP4 SLOAD DIV MUL DUP4 MSTORE SWAP2 PUSH1 0x20 ADD SWAP2 PUSH2 0x2B4 JUMP JUMPDEST PUSH1 0x0 PUSH2 0x2D2 PUSH2 0x4C2 PUSH2 0x597 JUMP JUMPDEST DUP5 PUSH2 0x369 DUP6 PUSH1 0x40 MLOAD DUP1 PUSH1 0x60 ADD PUSH1 0x40 MSTORE DUP1 PUSH1 0x25 DUP2 MSTORE PUSH1 0x20 ADD PUSH2 0xAFA PUSH1 0x25 SWAP2 CODECOPY PUSH1 0x1 PUSH1 0x0 PUSH2 0x4EC PUSH2 0x597 JUMP JUMPDEST PUSH1 0x1 PUSH1 0x1 PUSH1 0xA0 SHL SUB SWAP1 DUP2 AND DUP3 MSTORE PUSH1 0x20 DUP1 DUP4 ADD SWAP4 SWAP1 SWAP4 MSTORE PUSH1 0x40 SWAP2 DUP3 ADD PUSH1 0x0 SWAP1 DUP2 KECCAK256 SWAP2 DUP14 AND DUP2 MSTORE SWAP3 MSTORE SWAP1 KECCAK256 SLOAD SWAP2 SWAP1 PUSH2 0x764 JUMP JUMPDEST PUSH1 0x6 SLOAD SWAP1 JUMP JUMPDEST PUSH1 0x0 PUSH2 0x2D2 PUSH2 0x530 PUSH2 0x597 JUMP JUMPDEST DUP5 DUP5 PUSH2 0x64F JUMP JUMPDEST PUSH1 0x1 PUSH1 0x1 PUSH1 0xA0 SHL SUB SWAP2 DUP3 AND PUSH1 0x0 SWAP1 DUP2 MSTORE PUSH1 0x1 PUSH1 0x20 SWAP1 DUP2 MSTORE PUSH1 0x40 DUP1 DUP4 KECCAK256 SWAP4 SWAP1 SWAP5 AND DUP3 MSTORE SWAP2 SWAP1 SWAP2 MSTORE KECCAK256 SLOAD SWAP1 JUMP JUMPDEST PUSH1 0x0 DUP3 DUP3 ADD DUP4 DUP2 LT ISZERO PUSH2 0x590 JUMPI PUSH1 0x40 MLOAD PUSH3 0x461BCD PUSH1 0xE5 SHL DUP2 MSTORE PUSH1 0x4 ADD PUSH2 0x587 SWAP1 PUSH2 0x9BC JUMP JUMPDEST PUSH1 0x40 MLOAD DUP1 SWAP2 SUB SWAP1 REVERT JUMPDEST SWAP4 SWAP3 POP POP POP JUMP JUMPDEST CALLER SWAP1 JUMP JUMPDEST PUSH1 0x1 PUSH1 0x1 PUSH1 0xA0 SHL SUB DUP4 AND PUSH2 0x5C1 JUMPI PUSH1 0x40 MLOAD PUSH3 0x461BCD PUSH1 0xE5 SHL DUP2 MSTORE PUSH1 0x4 ADD PUSH2 0x587 SWAP1 PUSH2 0xA38 JUMP JUMPDEST PUSH1 0x1 PUSH1 0x1 PUSH1 0xA0 SHL SUB DUP3 AND PUSH2 0x5E7 JUMPI PUSH1 0x40 MLOAD PUSH3 0x461BCD PUSH1 0xE5 SHL DUP2 MSTORE PUSH1 0x4 ADD PUSH2 0x587 SWAP1 PUSH2 0x97A JUMP JUMPDEST PUSH1 0x1 PUSH1 0x1 PUSH1 0xA0 SHL SUB DUP1 DUP5 AND PUSH1 0x0 DUP2 DUP2 MSTORE PUSH1 0x1 PUSH1 0x20 SWAP1 DUP2 MSTORE PUSH1 0x40 DUP1 DUP4 KECCAK256 SWAP5 DUP8 AND DUP1 DUP5 MSTORE SWAP5 SWAP1 SWAP2 MSTORE SWAP1 DUP2 SWAP1 KECCAK256 DUP5 SWAP1 SSTORE MLOAD PUSH32 0x8C5BE1E5EBEC7D5BD14F71427D1E84F3DD0314C0F7B2291E5B200AC8C7C3B925 SWAP1 PUSH2 0x642 SWAP1 DUP6 SWAP1 PUSH2 0xA7C JUMP JUMPDEST PUSH1 0x40 MLOAD DUP1 SWAP2 SUB SWAP1 LOG3 POP POP POP JUMP JUMPDEST PUSH1 0x1 PUSH1 0x1 PUSH1 0xA0 SHL SUB DUP4 AND PUSH2 0x675 JUMPI PUSH1 0x40 MLOAD PUSH3 0x461BCD PUSH1 0xE5 SHL DUP2 MSTORE PUSH1 0x4 ADD PUSH2 0x587 SWAP1 PUSH2 0x9F3 JUMP JUMPDEST PUSH1 0x1 PUSH1 0x1 PUSH1 0xA0 SHL SUB DUP3 AND PUSH2 0x69B JUMPI PUSH1 0x40 MLOAD PUSH3 0x461BCD PUSH1 0xE5 SHL DUP2 MSTORE PUSH1 0x4 ADD PUSH2 0x587 SWAP1 PUSH2 0x937 JUMP JUMPDEST PUSH2 0x6A6 DUP4 DUP4 DUP4 PUSH2 0x790 JUMP JUMPDEST PUSH2 0x6E3 DUP2 PUSH1 0x40 MLOAD DUP1 PUSH1 0x60 ADD PUSH1 0x40 MSTORE DUP1 PUSH1 0x26 DUP2 MSTORE PUSH1 0x20 ADD PUSH2 0xAAC PUSH1 0x26 SWAP2 CODECOPY PUSH1 0x1 PUSH1 0x1 PUSH1 0xA0 SHL SUB DUP7 AND PUSH1 0x0 SWAP1 DUP2 MSTORE PUSH1 0x20 DUP2 SWAP1 MSTORE PUSH1 0x40 SWAP1 KECCAK256 SLOAD SWAP2 SWAP1 PUSH2 0x764 JUMP JUMPDEST PUSH1 0x1 PUSH1 0x1 PUSH1 0xA0 SHL SUB DUP1 DUP6 AND PUSH1 0x0 SWAP1 DUP2 MSTORE PUSH1 0x20 DUP2 SWAP1 MSTORE PUSH1 0x40 DUP1 DUP3 KECCAK256 SWAP4 SWAP1 SWAP4 SSTORE SWAP1 DUP5 AND DUP2 MSTORE KECCAK256 SLOAD PUSH2 0x712 SWAP1 DUP3 PUSH2 0x562 JUMP JUMPDEST PUSH1 0x1 PUSH1 0x1 PUSH1 0xA0 SHL SUB DUP1 DUP5 AND PUSH1 0x0 DUP2 DUP2 MSTORE PUSH1 0x20 DUP2 SWAP1 MSTORE PUSH1 0x40 SWAP1 DUP2 SWAP1 KECCAK256 SWAP4 SWAP1 SWAP4 SSTORE SWAP2 MLOAD SWAP1 DUP6 AND SWAP1 PUSH32 0xDDF252AD1BE2C89B69C2B068FC378DAA952BA7F163C4A11628F55A4DF523B3EF SWAP1 PUSH2 0x642 SWAP1 DUP6 SWAP1 PUSH2 0xA7C JUMP JUMPDEST PUSH1 0x0 DUP2 DUP5 DUP5 GT ISZERO PUSH2 0x788 JUMPI PUSH1 0x40 MLOAD PUSH3 0x461BCD PUSH1 0xE5 SHL DUP2 MSTORE PUSH1 0x4 ADD PUSH2 0x587 SWAP2 SWAP1 PUSH2 0x924 JUMP JUMPDEST POP POP POP SWAP1 SUB SWAP1 JUMP JUMPDEST POP POP POP JUMP JUMPDEST DUP1 CALLDATALOAD PUSH1 0x1 PUSH1 0x1 PUSH1 0xA0 SHL SUB DUP2 AND DUP2 EQ PUSH2 0x2D6 JUMPI PUSH1 0x0 DUP1 REVERT JUMPDEST PUSH1 0x0 PUSH1 0x20 DUP3 DUP5 SUB SLT ISZERO PUSH2 0x7BD JUMPI DUP1 DUP2 REVERT JUMPDEST PUSH2 0x590 DUP4 DUP4 PUSH2 0x795 JUMP JUMPDEST PUSH1 0x0 DUP1 PUSH1 0x40 DUP4 DUP6 SUB SLT ISZERO PUSH2 0x7D9 JUMPI DUP1 DUP2 REVERT JUMPDEST PUSH2 0x7E3 DUP5 DUP5 PUSH2 0x795 JUMP JUMPDEST SWAP2 POP PUSH2 0x7F2 DUP5 PUSH1 0x20 DUP6 ADD PUSH2 0x795 JUMP JUMPDEST SWAP1 POP SWAP3 POP SWAP3 SWAP1 POP JUMP JUMPDEST PUSH1 0x0 DUP1 PUSH1 0x0 PUSH1 0x60 DUP5 DUP7 SUB SLT ISZERO PUSH2 0x80F JUMPI DUP1 DUP2 REVERT JUMPDEST DUP4 CALLDATALOAD PUSH2 0x81A DUP2 PUSH2 0xA93 JUMP JUMPDEST SWAP3 POP PUSH1 0x20 DUP5 ADD CALLDATALOAD PUSH2 0x82A DUP2 PUSH2 0xA93 JUMP JUMPDEST SWAP3 SWAP6 SWAP3 SWAP5 POP POP POP PUSH1 0x40 SWAP2 SWAP1 SWAP2 ADD CALLDATALOAD SWAP1 JUMP JUMPDEST PUSH1 0x0 DUP1 PUSH1 0x40 DUP4 DUP6 SUB SLT ISZERO PUSH2 0x84D JUMPI DUP2 DUP3 REVERT JUMPDEST PUSH2 0x857 DUP5 DUP5 PUSH2 0x795 JUMP JUMPDEST SWAP5 PUSH1 0x20 SWAP4 SWAP1 SWAP4 ADD CALLDATALOAD SWAP4 POP POP POP JUMP JUMPDEST PUSH1 0x0 DUP2 MLOAD DUP1 DUP5 MSTORE DUP2 JUMPDEST DUP2 DUP2 LT ISZERO PUSH2 0x88A JUMPI PUSH1 0x20 DUP2 DUP6 ADD DUP2 ADD MLOAD DUP7 DUP4 ADD DUP3 ADD MSTORE ADD PUSH2 0x86E JUMP JUMPDEST DUP2 DUP2 GT ISZERO PUSH2 0x89B JUMPI DUP3 PUSH1 0x20 DUP4 DUP8 ADD ADD MSTORE JUMPDEST POP PUSH1 0x1F ADD PUSH1 0x1F NOT AND SWAP3 SWAP1 SWAP3 ADD PUSH1 0x20 ADD SWAP3 SWAP2 POP POP JUMP JUMPDEST PUSH1 0x1 PUSH1 0x1 PUSH1 0xA0 SHL SUB SWAP2 SWAP1 SWAP2 AND DUP2 MSTORE PUSH1 0x20 ADD SWAP1 JUMP JUMPDEST PUSH1 0x0 PUSH1 0x1 DUP1 PUSH1 0xA0 SHL SUB DUP1 DUP10 AND DUP4 MSTORE PUSH1 0xC0 PUSH1 0x20 DUP5 ADD MSTORE PUSH2 0x8E6 PUSH1 0xC0 DUP5 ADD DUP10 PUSH2 0x865 JUMP JUMPDEST DUP4 DUP2 SUB PUSH1 0x40 DUP6 ADD MSTORE PUSH2 0x8F8 DUP2 DUP10 PUSH2 0x865 JUMP JUMPDEST PUSH1 0x60 DUP6 ADD SWAP8 SWAP1 SWAP8 MSTORE POP PUSH1 0x80 DUP4 ADD SWAP5 SWAP1 SWAP5 MSTORE POP SWAP2 AND PUSH1 0xA0 SWAP1 SWAP2 ADD MSTORE SWAP4 SWAP3 POP POP POP JUMP JUMPDEST SWAP1 ISZERO ISZERO DUP2 MSTORE PUSH1 0x20 ADD SWAP1 JUMP JUMPDEST PUSH1 0x0 PUSH1 0x20 DUP3 MSTORE PUSH2 0x590 PUSH1 0x20 DUP4 ADD DUP5 PUSH2 0x865 JUMP JUMPDEST PUSH1 0x20 DUP1 DUP3 MSTORE PUSH1 0x23 SWAP1 DUP3 ADD MSTORE PUSH32 0x45524332303A207472616E7366657220746F20746865207A65726F2061646472 PUSH1 0x40 DUP3 ADD MSTORE PUSH3 0x657373 PUSH1 0xE8 SHL PUSH1 0x60 DUP3 ADD MSTORE PUSH1 0x80 ADD SWAP1 JUMP JUMPDEST PUSH1 0x20 DUP1 DUP3 MSTORE PUSH1 0x22 SWAP1 DUP3 ADD MSTORE PUSH32 0x45524332303A20617070726F766520746F20746865207A65726F206164647265 PUSH1 0x40 DUP3 ADD MSTORE PUSH2 0x7373 PUSH1 0xF0 SHL PUSH1 0x60 DUP3 ADD MSTORE PUSH1 0x80 ADD SWAP1 JUMP JUMPDEST PUSH1 0x20 DUP1 DUP3 MSTORE PUSH1 0x1B SWAP1 DUP3 ADD MSTORE PUSH32 0x536166654D6174683A206164646974696F6E206F766572666C6F770000000000 PUSH1 0x40 DUP3 ADD MSTORE PUSH1 0x60 ADD SWAP1 JUMP JUMPDEST PUSH1 0x20 DUP1 DUP3 MSTORE PUSH1 0x25 SWAP1 DUP3 ADD MSTORE PUSH32 0x45524332303A207472616E736665722066726F6D20746865207A65726F206164 PUSH1 0x40 DUP3 ADD MSTORE PUSH5 0x6472657373 PUSH1 0xD8 SHL PUSH1 0x60 DUP3 ADD MSTORE PUSH1 0x80 ADD SWAP1 JUMP JUMPDEST PUSH1 0x20 DUP1 DUP3 MSTORE PUSH1 0x24 SWAP1 DUP3 ADD MSTORE PUSH32 0x45524332303A20617070726F76652066726F6D20746865207A65726F20616464 PUSH1 0x40 DUP3 ADD MSTORE PUSH4 0x72657373 PUSH1 0xE0 SHL PUSH1 0x60 DUP3 ADD MSTORE PUSH1 0x80 ADD SWAP1 JUMP JUMPDEST SWAP1 DUP2 MSTORE PUSH1 0x20 ADD SWAP1 JUMP JUMPDEST PUSH1 0xFF SWAP2 SWAP1 SWAP2 AND DUP2 MSTORE PUSH1 0x20 ADD SWAP1 JUMP JUMPDEST PUSH1 0x1 PUSH1 0x1 PUSH1 0xA0 SHL SUB DUP2 AND DUP2 EQ PUSH2 0xAA8 JUMPI PUSH1 0x0 DUP1 REVERT JUMPDEST POP JUMP INVALID GASLIMIT MSTORE NUMBER ORIGIN ADDRESS GASPRICE KECCAK256 PUSH21 0x72616E7366657220616D6F756E7420657863656564 PUSH20 0x2062616C616E636545524332303A207472616E73 PUSH7 0x657220616D6F75 PUSH15 0x74206578636565647320616C6C6F77 PUSH2 0x6E63 PUSH6 0x45524332303A KECCAK256 PUSH5 0x6563726561 PUSH20 0x656420616C6C6F77616E63652062656C6F77207A PUSH6 0x726FA2646970 PUSH7 0x73582212201F92 0xB0 CALLER SWAP12 LOG2 0xEE PUSH11 0x9A26F460AEFF8F0F6BB2D3 0xEC DUP11 LT 0x21 0xD6 0xC1 PUSH4 0x4A502FD PUSH21 0x4664736F6C634300060C00330F4B50B212A0AF592F PUSH12 0x337DE665FE7E50A5ABD9C604 0xF COINBASE CALLDATASIZE 0xB7 PUSH12 0xEE99D83AFE4552433732313A KECCAK256 PUSH21 0x72616E7366657220746F206E6F6E20455243373231 MSTORE PUSH6 0x636569766572 KECCAK256 PUSH10 0x6D706C656D656E746572 0xE4 0xEB 0xE6 SHL MLOAD SLOAD 0xBE PUSH6 0x502FFD10F19B 0xBD SSTORE PUSH29 0x590EF2CE56D0959D42D567662E4E7F4552433732313A206F776E657220 PUSH18 0x7565727920666F72206E6F6E657869737465 PUSH15 0x7420746F6B656EA264697066735822 SLT KECCAK256 0xF9 0x2E LOG2 0xC3 SWAP5 SWAP15 0xBE 0xB2 0xAA 0xD 0xDD SWAP2 CALLER LOG1 DUP15 0xDD 0xD3 PUSH2 0xE61D 0xD6 0xB3 SELFDESTRUCT 0xED PUSH30 0x69A44FE190C35E64736F6C634300060C0033608060405234801562000011 JUMPI PUSH1 0x0 DUP1 REVERT JUMPDEST POP PUSH1 0x40 MLOAD PUSH3 0x10DB CODESIZE SUB DUP1 PUSH3 0x10DB DUP4 CODECOPY DUP2 ADD PUSH1 0x40 DUP2 SWAP1 MSTORE PUSH3 0x34 SWAP2 PUSH3 0x3DC JUMP JUMPDEST DUP5 MLOAD DUP6 SWAP1 DUP6 SWAP1 PUSH3 0x4D SWAP1 PUSH1 0x3 SWAP1 PUSH1 0x20 DUP6 ADD SWAP1 PUSH3 0x299 JUMP JUMPDEST POP DUP1 MLOAD PUSH3 0x63 SWAP1 PUSH1 0x4 SWAP1 PUSH1 0x20 DUP5 ADD SWAP1 PUSH3 0x299 JUMP JUMPDEST POP POP PUSH1 0x5 DUP1 SLOAD PUSH1 0xFF NOT AND PUSH1 0x12 OR SWAP1 SSTORE POP CALLER PUSH3 0x80 DUP3 DUP6 PUSH3 0xBD JUMP JUMPDEST PUSH3 0x8D DUP3 DUP3 DUP7 PUSH3 0x1A9 JUMP JUMPDEST POP PUSH1 0x6 SWAP2 SWAP1 SWAP2 SSTORE PUSH1 0x7 DUP1 SLOAD PUSH1 0x1 PUSH1 0x1 PUSH1 0xA0 SHL SUB NOT AND PUSH1 0x1 PUSH1 0x1 PUSH1 0xA0 SHL SUB SWAP1 SWAP3 AND SWAP2 SWAP1 SWAP2 OR SWAP1 SSTORE POP PUSH3 0x577 SWAP2 POP POP JUMP JUMPDEST PUSH1 0x1 PUSH1 0x1 PUSH1 0xA0 SHL SUB DUP3 AND PUSH3 0xEF JUMPI PUSH1 0x40 MLOAD PUSH3 0x461BCD PUSH1 0xE5 SHL DUP2 MSTORE PUSH1 0x4 ADD PUSH3 0xE6 SWAP1 PUSH3 0x537 JUMP JUMPDEST PUSH1 0x40 MLOAD DUP1 SWAP2 SUB SWAP1 REVERT JUMPDEST PUSH3 0xFD PUSH1 0x0 DUP4 DUP4 PUSH3 0x265 JUMP JUMPDEST PUSH3 0x119 DUP2 PUSH1 0x2 SLOAD PUSH3 0x26A PUSH1 0x20 SHL PUSH3 0x562 OR SWAP1 SWAP2 SWAP1 PUSH1 0x20 SHR JUMP JUMPDEST PUSH1 0x2 SSTORE PUSH1 0x1 PUSH1 0x1 PUSH1 0xA0 SHL SUB DUP3 AND PUSH1 0x0 SWAP1 DUP2 MSTORE PUSH1 0x20 DUP2 DUP2 MSTORE PUSH1 0x40 SWAP1 SWAP2 KECCAK256 SLOAD PUSH3 0x14C SWAP2 DUP4 SWAP1 PUSH3 0x562 PUSH3 0x26A DUP3 SHL OR SWAP1 SHR JUMP JUMPDEST PUSH1 0x1 PUSH1 0x1 PUSH1 0xA0 SHL SUB DUP4 AND PUSH1 0x0 DUP2 DUP2 MSTORE PUSH1 0x20 DUP2 SWAP1 MSTORE PUSH1 0x40 DUP1 DUP3 KECCAK256 SWAP4 SWAP1 SWAP4 SSTORE SWAP2 MLOAD SWAP1 SWAP2 SWAP1 PUSH32 0xDDF252AD1BE2C89B69C2B068FC378DAA952BA7F163C4A11628F55A4DF523B3EF SWAP1 PUSH3 0x19D SWAP1 DUP6 SWAP1 PUSH3 0x56E JUMP JUMPDEST PUSH1 0x40 MLOAD DUP1 SWAP2 SUB SWAP1 LOG3 POP POP JUMP JUMPDEST PUSH1 0x1 PUSH1 0x1 PUSH1 0xA0 SHL SUB DUP4 AND PUSH3 0x1D2 JUMPI PUSH1 0x40 MLOAD PUSH3 0x461BCD PUSH1 0xE5 SHL DUP2 MSTORE PUSH1 0x4 ADD PUSH3 0xE6 SWAP1 PUSH3 0x4F3 JUMP JUMPDEST PUSH1 0x1 PUSH1 0x1 PUSH1 0xA0 SHL SUB DUP3 AND PUSH3 0x1FB JUMPI PUSH1 0x40 MLOAD PUSH3 0x461BCD PUSH1 0xE5 SHL DUP2 MSTORE PUSH1 0x4 ADD PUSH3 0xE6 SWAP1 PUSH3 0x47A JUMP JUMPDEST PUSH1 0x1 PUSH1 0x1 PUSH1 0xA0 SHL SUB DUP1 DUP5 AND PUSH1 0x0 DUP2 DUP2 MSTORE PUSH1 0x1 PUSH1 0x20 SWAP1 DUP2 MSTORE PUSH1 0x40 DUP1 DUP4 KECCAK256 SWAP5 DUP8 AND DUP1 DUP5 MSTORE SWAP5 SWAP1 SWAP2 MSTORE SWAP1 DUP2 SWAP1 KECCAK256 DUP5 SWAP1 SSTORE MLOAD PUSH32 0x8C5BE1E5EBEC7D5BD14F71427D1E84F3DD0314C0F7B2291E5B200AC8C7C3B925 SWAP1 PUSH3 0x258 SWAP1 DUP6 SWAP1 PUSH3 0x56E JUMP JUMPDEST PUSH1 0x40 MLOAD DUP1 SWAP2 SUB SWAP1 LOG3 POP POP POP JUMP JUMPDEST POP POP POP JUMP JUMPDEST PUSH1 0x0 DUP3 DUP3 ADD DUP4 DUP2 LT ISZERO PUSH3 0x292 JUMPI PUSH1 0x40 MLOAD PUSH3 0x461BCD PUSH1 0xE5 SHL DUP2 MSTORE PUSH1 0x4 ADD PUSH3 0xE6 SWAP1 PUSH3 0x4BC JUMP JUMPDEST SWAP4 SWAP3 POP POP POP JUMP JUMPDEST DUP3 DUP1 SLOAD PUSH1 0x1 DUP2 PUSH1 0x1 AND ISZERO PUSH2 0x100 MUL SUB AND PUSH1 0x2 SWAP1 DIV SWAP1 PUSH1 0x0 MSTORE PUSH1 0x20 PUSH1 0x0 KECCAK256 SWAP1 PUSH1 0x1F ADD PUSH1 0x20 SWAP1 DIV DUP2 ADD SWAP3 DUP3 PUSH1 0x1F LT PUSH3 0x2DC JUMPI DUP1 MLOAD PUSH1 0xFF NOT AND DUP4 DUP1 ADD OR DUP6 SSTORE PUSH3 0x30C JUMP JUMPDEST DUP3 DUP1 ADD PUSH1 0x1 ADD DUP6 SSTORE DUP3 ISZERO PUSH3 0x30C JUMPI SWAP2 DUP3 ADD JUMPDEST DUP3 DUP2 GT ISZERO PUSH3 0x30C JUMPI DUP3 MLOAD DUP3 SSTORE SWAP2 PUSH1 0x20 ADD SWAP2 SWAP1 PUSH1 0x1 ADD SWAP1 PUSH3 0x2EF JUMP JUMPDEST POP PUSH3 0x31A SWAP3 SWAP2 POP PUSH3 0x31E JUMP JUMPDEST POP SWAP1 JUMP JUMPDEST JUMPDEST DUP1 DUP3 GT ISZERO PUSH3 0x31A JUMPI PUSH1 0x0 DUP2 SSTORE PUSH1 0x1 ADD PUSH3 0x31F JUMP JUMPDEST PUSH1 0x0 DUP3 PUSH1 0x1F DUP4 ADD SLT PUSH3 0x346 JUMPI DUP1 DUP2 REVERT JUMPDEST DUP2 MLOAD PUSH1 0x1 PUSH1 0x1 PUSH1 0x40 SHL SUB DUP1 DUP3 GT ISZERO PUSH3 0x35D JUMPI DUP3 DUP4 REVERT JUMPDEST PUSH1 0x40 MLOAD PUSH1 0x20 PUSH1 0x1F DUP5 ADD PUSH1 0x1F NOT AND DUP3 ADD DUP2 ADD DUP4 DUP2 GT DUP4 DUP3 LT OR ISZERO PUSH3 0x37F JUMPI DUP6 DUP7 REVERT JUMPDEST DUP1 PUSH1 0x40 MSTORE POP DUP2 SWAP5 POP DUP4 DUP3 MSTORE DUP7 DUP2 DUP6 DUP9 ADD ADD GT ISZERO PUSH3 0x39C JUMPI PUSH1 0x0 DUP1 REVERT JUMPDEST PUSH1 0x0 SWAP3 POP JUMPDEST DUP4 DUP4 LT ISZERO PUSH3 0x3C0 JUMPI DUP6 DUP4 ADD DUP2 ADD MLOAD DUP3 DUP5 ADD DUP3 ADD MSTORE SWAP2 DUP3 ADD SWAP2 PUSH3 0x3A1 JUMP JUMPDEST DUP4 DUP4 GT ISZERO PUSH3 0x3D2 JUMPI PUSH1 0x0 DUP2 DUP6 DUP5 ADD ADD MSTORE JUMPDEST POP POP POP POP SWAP3 SWAP2 POP POP JUMP JUMPDEST PUSH1 0x0 DUP1 PUSH1 0x0 DUP1 PUSH1 0x0 PUSH1 0xA0 DUP7 DUP9 SUB SLT ISZERO PUSH3 0x3F4 JUMPI DUP1 DUP2 REVERT JUMPDEST DUP6 MLOAD PUSH1 0x1 PUSH1 0x1 PUSH1 0x40 SHL SUB DUP1 DUP3 GT ISZERO PUSH3 0x40B JUMPI DUP3 DUP4 REVERT JUMPDEST PUSH3 0x419 DUP10 DUP4 DUP11 ADD PUSH3 0x335 JUMP JUMPDEST SWAP7 POP PUSH1 0x20 DUP9 ADD MLOAD SWAP2 POP DUP1 DUP3 GT ISZERO PUSH3 0x42F JUMPI DUP3 DUP4 REVERT JUMPDEST POP PUSH3 0x43E DUP9 DUP3 DUP10 ADD PUSH3 0x335 JUMP JUMPDEST PUSH1 0x40 DUP9 ADD MLOAD PUSH1 0x60 DUP10 ADD MLOAD PUSH1 0x80 DUP11 ADD MLOAD SWAP3 SWAP8 POP SWAP1 SWAP6 POP SWAP4 POP SWAP1 POP PUSH1 0x1 PUSH1 0x1 PUSH1 0xA0 SHL SUB DUP2 AND DUP2 EQ PUSH3 0x46C JUMPI DUP2 DUP3 REVERT JUMPDEST DUP1 SWAP2 POP POP SWAP3 SWAP6 POP SWAP3 SWAP6 SWAP1 SWAP4 POP JUMP JUMPDEST PUSH1 0x20 DUP1 DUP3 MSTORE PUSH1 0x22 SWAP1 DUP3 ADD MSTORE PUSH32 0x45524332303A20617070726F766520746F20746865207A65726F206164647265 PUSH1 0x40 DUP3 ADD MSTORE PUSH2 0x7373 PUSH1 0xF0 SHL PUSH1 0x60 DUP3 ADD MSTORE PUSH1 0x80 ADD SWAP1 JUMP JUMPDEST PUSH1 0x20 DUP1 DUP3 MSTORE PUSH1 0x1B SWAP1 DUP3 ADD MSTORE PUSH32 0x536166654D6174683A206164646974696F6E206F766572666C6F770000000000 PUSH1 0x40 DUP3 ADD MSTORE PUSH1 0x60 ADD SWAP1 JUMP JUMPDEST PUSH1 0x20 DUP1 DUP3 MSTORE PUSH1 0x24 SWAP1 DUP3 ADD MSTORE PUSH32 0x45524332303A20617070726F76652066726F6D20746865207A65726F20616464 PUSH1 0x40 DUP3 ADD MSTORE PUSH4 0x72657373 PUSH1 0xE0 SHL PUSH1 0x60 DUP3 ADD MSTORE PUSH1 0x80 ADD SWAP1 JUMP JUMPDEST PUSH1 0x20 DUP1 DUP3 MSTORE PUSH1 0x1F SWAP1 DUP3 ADD MSTORE PUSH32 0x45524332303A206D696E7420746F20746865207A65726F206164647265737300 PUSH1 0x40 DUP3 ADD MSTORE PUSH1 0x60 ADD SWAP1 JUMP JUMPDEST SWAP1 DUP2 MSTORE PUSH1 0x20 ADD SWAP1 JUMP JUMPDEST PUSH2 0xB54 DUP1 PUSH3 0x587 PUSH1 0x0 CODECOPY PUSH1 0x0 RETURN INVALID PUSH1 0x80 PUSH1 0x40 MSTORE CALLVALUE DUP1 ISZERO PUSH2 0x10 JUMPI PUSH1 0x0 DUP1 REVERT JUMPDEST POP PUSH1 0x4 CALLDATASIZE LT PUSH2 0xF5 JUMPI PUSH1 0x0 CALLDATALOAD PUSH1 0xE0 SHR DUP1 PUSH4 0x565974D3 GT PUSH2 0x97 JUMPI DUP1 PUSH4 0xA457C2D7 GT PUSH2 0x66 JUMPI DUP1 PUSH4 0xA457C2D7 EQ PUSH2 0x1E7 JUMPI DUP1 PUSH4 0xA71B6426 EQ PUSH2 0x1FA JUMPI DUP1 PUSH4 0xA9059CBB EQ PUSH2 0x202 JUMPI DUP1 PUSH4 0xDD62ED3E EQ PUSH2 0x215 JUMPI PUSH2 0xF5 JUMP JUMPDEST DUP1 PUSH4 0x565974D3 EQ PUSH2 0x19D JUMPI DUP1 PUSH4 0x6C6F31F2 EQ PUSH2 0x1B7 JUMPI DUP1 PUSH4 0x70A08231 EQ PUSH2 0x1CC JUMPI DUP1 PUSH4 0x95D89B41 EQ PUSH2 0x1DF JUMPI PUSH2 0xF5 JUMP JUMPDEST DUP1 PUSH4 0x1D143848 GT PUSH2 0xD3 JUMPI DUP1 PUSH4 0x1D143848 EQ PUSH2 0x14D JUMPI DUP1 PUSH4 0x23B872DD EQ PUSH2 0x162 JUMPI DUP1 PUSH4 0x313CE567 EQ PUSH2 0x175 JUMPI DUP1 PUSH4 0x39509351 EQ PUSH2 0x18A JUMPI PUSH2 0xF5 JUMP JUMPDEST DUP1 PUSH4 0x6FDDE03 EQ PUSH2 0xFA JUMPI DUP1 PUSH4 0x95EA7B3 EQ PUSH2 0x118 JUMPI DUP1 PUSH4 0x18160DDD EQ PUSH2 0x138 JUMPI JUMPDEST PUSH1 0x0 DUP1 REVERT JUMPDEST PUSH2 0x102 PUSH2 0x228 JUMP JUMPDEST PUSH1 0x40 MLOAD PUSH2 0x10F SWAP2 SWAP1 PUSH2 0x924 JUMP JUMPDEST PUSH1 0x40 MLOAD DUP1 SWAP2 SUB SWAP1 RETURN JUMPDEST PUSH2 0x12B PUSH2 0x126 CALLDATASIZE PUSH1 0x4 PUSH2 0x83B JUMP JUMPDEST PUSH2 0x2BE JUMP JUMPDEST PUSH1 0x40 MLOAD PUSH2 0x10F SWAP2 SWAP1 PUSH2 0x919 JUMP JUMPDEST PUSH2 0x140 PUSH2 0x2DC JUMP JUMPDEST PUSH1 0x40 MLOAD PUSH2 0x10F SWAP2 SWAP1 PUSH2 0xA7C JUMP JUMPDEST PUSH2 0x155 PUSH2 0x2E2 JUMP JUMPDEST PUSH1 0x40 MLOAD PUSH2 0x10F SWAP2 SWAP1 PUSH2 0x8B0 JUMP JUMPDEST PUSH2 0x12B PUSH2 0x170 CALLDATASIZE PUSH1 0x4 PUSH2 0x7FB JUMP JUMPDEST PUSH2 0x2F1 JUMP JUMPDEST PUSH2 0x17D PUSH2 0x378 JUMP JUMPDEST PUSH1 0x40 MLOAD PUSH2 0x10F SWAP2 SWAP1 PUSH2 0xA85 JUMP JUMPDEST PUSH2 0x12B PUSH2 0x198 CALLDATASIZE PUSH1 0x4 PUSH2 0x83B JUMP JUMPDEST PUSH2 0x381 JUMP JUMPDEST PUSH2 0x1A5 PUSH2 0x3CF JUMP JUMPDEST PUSH1 0x40 MLOAD PUSH2 0x10F SWAP7 SWAP6 SWAP5 SWAP4 SWAP3 SWAP2 SWAP1 PUSH2 0x8C4 JUMP JUMPDEST PUSH2 0x1CA PUSH2 0x1C5 CALLDATASIZE PUSH1 0x4 PUSH2 0x83B JUMP JUMPDEST PUSH2 0x415 JUMP JUMPDEST STOP JUMPDEST PUSH2 0x140 PUSH2 0x1DA CALLDATASIZE PUSH1 0x4 PUSH2 0x7AC JUMP JUMPDEST PUSH2 0x439 JUMP JUMPDEST PUSH2 0x102 PUSH2 0x454 JUMP JUMPDEST PUSH2 0x12B PUSH2 0x1F5 CALLDATASIZE PUSH1 0x4 PUSH2 0x83B JUMP JUMPDEST PUSH2 0x4B5 JUMP JUMPDEST PUSH2 0x140 PUSH2 0x51D JUMP JUMPDEST PUSH2 0x12B PUSH2 0x210 CALLDATASIZE PUSH1 0x4 PUSH2 0x83B JUMP JUMPDEST PUSH2 0x523 JUMP JUMPDEST PUSH2 0x140 PUSH2 0x223 CALLDATASIZE PUSH1 0x4 PUSH2 0x7C7 JUMP JUMPDEST PUSH2 0x537 JUMP JUMPDEST PUSH1 0x3 DUP1 SLOAD PUSH1 0x40 DUP1 MLOAD PUSH1 0x20 PUSH1 0x1F PUSH1 0x2 PUSH1 0x0 NOT PUSH2 0x100 PUSH1 0x1 DUP9 AND ISZERO MUL ADD SWAP1 SWAP6 AND SWAP5 SWAP1 SWAP5 DIV SWAP4 DUP5 ADD DUP2 SWAP1 DIV DUP2 MUL DUP3 ADD DUP2 ADD SWAP1 SWAP3 MSTORE DUP3 DUP2 MSTORE PUSH1 0x60 SWAP4 SWAP1 SWAP3 SWAP1 SWAP2 DUP4 ADD DUP3 DUP3 DUP1 ISZERO PUSH2 0x2B4 JUMPI DUP1 PUSH1 0x1F LT PUSH2 0x289 JUMPI PUSH2 0x100 DUP1 DUP4 SLOAD DIV MUL DUP4 MSTORE SWAP2 PUSH1 0x20 ADD SWAP2 PUSH2 0x2B4 JUMP JUMPDEST DUP3 ADD SWAP2 SWAP1 PUSH1 0x0 MSTORE PUSH1 0x20 PUSH1 0x0 KECCAK256 SWAP1 JUMPDEST DUP2 SLOAD DUP2 MSTORE SWAP1 PUSH1 0x1 ADD SWAP1 PUSH1 0x20 ADD DUP1 DUP4 GT PUSH2 0x297 JUMPI DUP3 SWAP1 SUB PUSH1 0x1F AND DUP3 ADD SWAP2 JUMPDEST POP POP POP POP POP SWAP1 POP SWAP1 JUMP JUMPDEST PUSH1 0x0 PUSH2 0x2D2 PUSH2 0x2CB PUSH2 0x597 JUMP JUMPDEST DUP5 DUP5 PUSH2 0x59B JUMP JUMPDEST POP PUSH1 0x1 JUMPDEST SWAP3 SWAP2 POP POP JUMP JUMPDEST PUSH1 0x2 SLOAD SWAP1 JUMP JUMPDEST PUSH1 0x7 SLOAD PUSH1 0x1 PUSH1 0x1 PUSH1 0xA0 SHL SUB AND SWAP1 JUMP JUMPDEST PUSH1 0x0 PUSH2 0x2FE DUP5 DUP5 DUP5 PUSH2 0x64F JUMP JUMPDEST PUSH2 0x36E DUP5 PUSH2 0x30A PUSH2 0x597 JUMP JUMPDEST PUSH2 0x369 DUP6 PUSH1 0x40 MLOAD DUP1 PUSH1 0x60 ADD PUSH1 0x40 MSTORE DUP1 PUSH1 0x28 DUP2 MSTORE PUSH1 0x20 ADD PUSH2 0xAD2 PUSH1 0x28 SWAP2 CODECOPY PUSH1 0x1 PUSH1 0x1 PUSH1 0xA0 SHL SUB DUP11 AND PUSH1 0x0 SWAP1 DUP2 MSTORE PUSH1 0x1 PUSH1 0x20 MSTORE PUSH1 0x40 DUP2 KECCAK256 SWAP1 PUSH2 0x348 PUSH2 0x597 JUMP JUMPDEST PUSH1 0x1 PUSH1 0x1 PUSH1 0xA0 SHL SUB AND DUP2 MSTORE PUSH1 0x20 DUP2 ADD SWAP2 SWAP1 SWAP2 MSTORE PUSH1 0x40 ADD PUSH1 0x0 KECCAK256 SLOAD SWAP2 SWAP1 PUSH2 0x764 JUMP JUMPDEST PUSH2 0x59B JUMP JUMPDEST POP PUSH1 0x1 SWAP4 SWAP3 POP POP POP JUMP JUMPDEST PUSH1 0x5 SLOAD PUSH1 0xFF AND SWAP1 JUMP JUMPDEST PUSH1 0x0 PUSH2 0x2D2 PUSH2 0x38E PUSH2 0x597 JUMP JUMPDEST DUP5 PUSH2 0x369 DUP6 PUSH1 0x1 PUSH1 0x0 PUSH2 0x39F PUSH2 0x597 JUMP JUMPDEST PUSH1 0x1 PUSH1 0x1 PUSH1 0xA0 SHL SUB SWAP1 DUP2 AND DUP3 MSTORE PUSH1 0x20 DUP1 DUP4 ADD SWAP4 SWAP1 SWAP4 MSTORE PUSH1 0x40 SWAP2 DUP3 ADD PUSH1 0x0 SWAP1 DUP2 KECCAK256 SWAP2 DUP13 AND DUP2 MSTORE SWAP3 MSTORE SWAP1 KECCAK256 SLOAD SWAP1 PUSH2 0x562 JUMP JUMPDEST PUSH1 0x0 PUSH1 0x60 DUP1 PUSH1 0x0 DUP1 PUSH1 0x0 ADDRESS PUSH2 0x3E2 PUSH2 0x228 JUMP JUMPDEST PUSH2 0x3EA PUSH2 0x454 JUMP JUMPDEST PUSH2 0x3F2 PUSH2 0x2DC JUMP JUMPDEST PUSH2 0x3FA PUSH2 0x51D JUMP JUMPDEST PUSH2 0x402 PUSH2 0x2E2 JUMP JUMPDEST SWAP5 SWAP12 SWAP4 SWAP11 POP SWAP2 SWAP9 POP SWAP7 POP SWAP5 POP SWAP1 SWAP3 POP SWAP1 POP JUMP JUMPDEST CALLER PUSH1 0x0 PUSH2 0x422 DUP5 DUP4 PUSH2 0x537 JUMP JUMPDEST SWAP1 POP PUSH2 0x433 DUP5 DUP4 PUSH2 0x369 DUP7 DUP6 PUSH2 0x562 JUMP JUMPDEST POP POP POP POP JUMP JUMPDEST PUSH1 0x1 PUSH1 0x1 PUSH1 0xA0 SHL SUB AND PUSH1 0x0 SWAP1 DUP2 MSTORE PUSH1 0x20 DUP2 SWAP1 MSTORE PUSH1 0x40 SWAP1 KECCAK256 SLOAD SWAP1 JUMP JUMPDEST PUSH1 0x4 DUP1 SLOAD PUSH1 0x40 DUP1 MLOAD PUSH1 0x20 PUSH1 0x1F PUSH1 0x2 PUSH1 0x0 NOT PUSH2 0x100 PUSH1 0x1 DUP9 AND ISZERO MUL ADD SWAP1 SWAP6 AND SWAP5 SWAP1 SWAP5 DIV SWAP4 DUP5 ADD DUP2 SWAP1 DIV DUP2 MUL DUP3 ADD DUP2 ADD SWAP1 SWAP3 MSTORE DUP3 DUP2 MSTORE PUSH1 0x60 SWAP4 SWAP1 SWAP3 SWAP1 SWAP2 DUP4 ADD DUP3 DUP3 DUP1 ISZERO PUSH2 0x2B4 JUMPI DUP1 PUSH1 0x1F LT PUSH2 0x289 JUMPI PUSH2 0x100 DUP1 DUP4 SLOAD DIV MUL DUP4 MSTORE SWAP2 PUSH1 0x20 ADD SWAP2 PUSH2 0x2B4 JUMP JUMPDEST PUSH1 0x0 PUSH2 0x2D2 PUSH2 0x4C2 PUSH2 0x597 JUMP JUMPDEST DUP5 PUSH2 0x369 DUP6 PUSH1 0x40 MLOAD DUP1 PUSH1 0x60 ADD PUSH1 0x40 MSTORE DUP1 PUSH1 0x25 DUP2 MSTORE PUSH1 0x20 ADD PUSH2 0xAFA PUSH1 0x25 SWAP2 CODECOPY PUSH1 0x1 PUSH1 0x0 PUSH2 0x4EC PUSH2 0x597 JUMP JUMPDEST PUSH1 0x1 PUSH1 0x1 PUSH1 0xA0 SHL SUB SWAP1 DUP2 AND DUP3 MSTORE PUSH1 0x20 DUP1 DUP4 ADD SWAP4 SWAP1 SWAP4 MSTORE PUSH1 0x40 SWAP2 DUP3 ADD PUSH1 0x0 SWAP1 DUP2 KECCAK256 SWAP2 DUP14 AND DUP2 MSTORE SWAP3 MSTORE SWAP1 KECCAK256 SLOAD SWAP2 SWAP1 PUSH2 0x764 JUMP JUMPDEST PUSH1 0x6 SLOAD SWAP1 JUMP JUMPDEST PUSH1 0x0 PUSH2 0x2D2 PUSH2 0x530 PUSH2 0x597 JUMP JUMPDEST DUP5 DUP5 PUSH2 0x64F JUMP JUMPDEST PUSH1 0x1 PUSH1 0x1 PUSH1 0xA0 SHL SUB SWAP2 DUP3 AND PUSH1 0x0 SWAP1 DUP2 MSTORE PUSH1 0x1 PUSH1 0x20 SWAP1 DUP2 MSTORE PUSH1 0x40 DUP1 DUP4 KECCAK256 SWAP4 SWAP1 SWAP5 AND DUP3 MSTORE SWAP2 SWAP1 SWAP2 MSTORE KECCAK256 SLOAD SWAP1 JUMP JUMPDEST PUSH1 0x0 DUP3 DUP3 ADD DUP4 DUP2 LT ISZERO PUSH2 0x590 JUMPI PUSH1 0x40 MLOAD PUSH3 0x461BCD PUSH1 0xE5 SHL DUP2 MSTORE PUSH1 0x4 ADD PUSH2 0x587 SWAP1 PUSH2 0x9BC JUMP JUMPDEST PUSH1 0x40 MLOAD DUP1 SWAP2 SUB SWAP1 REVERT JUMPDEST SWAP4 SWAP3 POP POP POP JUMP JUMPDEST CALLER SWAP1 JUMP JUMPDEST PUSH1 0x1 PUSH1 0x1 PUSH1 0xA0 SHL SUB DUP4 AND PUSH2 0x5C1 JUMPI PUSH1 0x40 MLOAD PUSH3 0x461BCD PUSH1 0xE5 SHL DUP2 MSTORE PUSH1 0x4 ADD PUSH2 0x587 SWAP1 PUSH2 0xA38 JUMP JUMPDEST PUSH1 0x1 PUSH1 0x1 PUSH1 0xA0 SHL SUB DUP3 AND PUSH2 0x5E7 JUMPI PUSH1 0x40 MLOAD PUSH3 0x461BCD PUSH1 0xE5 SHL DUP2 MSTORE PUSH1 0x4 ADD PUSH2 0x587 SWAP1 PUSH2 0x97A JUMP JUMPDEST PUSH1 0x1 PUSH1 0x1 PUSH1 0xA0 SHL SUB DUP1 DUP5 AND PUSH1 0x0 DUP2 DUP2 MSTORE PUSH1 0x1 PUSH1 0x20 SWAP1 DUP2 MSTORE PUSH1 0x40 DUP1 DUP4 KECCAK256 SWAP5 DUP8 AND DUP1 DUP5 MSTORE SWAP5 SWAP1 SWAP2 MSTORE SWAP1 DUP2 SWAP1 KECCAK256 DUP5 SWAP1 SSTORE MLOAD PUSH32 0x8C5BE1E5EBEC7D5BD14F71427D1E84F3DD0314C0F7B2291E5B200AC8C7C3B925 SWAP1 PUSH2 0x642 SWAP1 DUP6 SWAP1 PUSH2 0xA7C JUMP JUMPDEST PUSH1 0x40 MLOAD DUP1 SWAP2 SUB SWAP1 LOG3 POP POP POP JUMP JUMPDEST PUSH1 0x1 PUSH1 0x1 PUSH1 0xA0 SHL SUB DUP4 AND PUSH2 0x675 JUMPI PUSH1 0x40 MLOAD PUSH3 0x461BCD PUSH1 0xE5 SHL DUP2 MSTORE PUSH1 0x4 ADD PUSH2 0x587 SWAP1 PUSH2 0x9F3 JUMP JUMPDEST PUSH1 0x1 PUSH1 0x1 PUSH1 0xA0 SHL SUB DUP3 AND PUSH2 0x69B JUMPI PUSH1 0x40 MLOAD PUSH3 0x461BCD PUSH1 0xE5 SHL DUP2 MSTORE PUSH1 0x4 ADD PUSH2 0x587 SWAP1 PUSH2 0x937 JUMP JUMPDEST PUSH2 0x6A6 DUP4 DUP4 DUP4 PUSH2 0x790 JUMP JUMPDEST PUSH2 0x6E3 DUP2 PUSH1 0x40 MLOAD DUP1 PUSH1 0x60 ADD PUSH1 0x40 MSTORE DUP1 PUSH1 0x26 DUP2 MSTORE PUSH1 0x20 ADD PUSH2 0xAAC PUSH1 0x26 SWAP2 CODECOPY PUSH1 0x1 PUSH1 0x1 PUSH1 0xA0 SHL SUB DUP7 AND PUSH1 0x0 SWAP1 DUP2 MSTORE PUSH1 0x20 DUP2 SWAP1 MSTORE PUSH1 0x40 SWAP1 KECCAK256 SLOAD SWAP2 SWAP1 PUSH2 0x764 JUMP JUMPDEST PUSH1 0x1 PUSH1 0x1 PUSH1 0xA0 SHL SUB DUP1 DUP6 AND PUSH1 0x0 SWAP1 DUP2 MSTORE PUSH1 0x20 DUP2 SWAP1 MSTORE PUSH1 0x40 DUP1 DUP3 KECCAK256 SWAP4 SWAP1 SWAP4 SSTORE SWAP1 DUP5 AND DUP2 MSTORE KECCAK256 SLOAD PUSH2 0x712 SWAP1 DUP3 PUSH2 0x562 JUMP JUMPDEST PUSH1 0x1 PUSH1 0x1 PUSH1 0xA0 SHL SUB DUP1 DUP5 AND PUSH1 0x0 DUP2 DUP2 MSTORE PUSH1 0x20 DUP2 SWAP1 MSTORE PUSH1 0x40 SWAP1 DUP2 SWAP1 KECCAK256 SWAP4 SWAP1 SWAP4 SSTORE SWAP2 MLOAD SWAP1 DUP6 AND SWAP1 PUSH32 0xDDF252AD1BE2C89B69C2B068FC378DAA952BA7F163C4A11628F55A4DF523B3EF SWAP1 PUSH2 0x642 SWAP1 DUP6 SWAP1 PUSH2 0xA7C JUMP JUMPDEST PUSH1 0x0 DUP2 DUP5 DUP5 GT ISZERO PUSH2 0x788 JUMPI PUSH1 0x40 MLOAD PUSH3 0x461BCD PUSH1 0xE5 SHL DUP2 MSTORE PUSH1 0x4 ADD PUSH2 0x587 SWAP2 SWAP1 PUSH2 0x924 JUMP JUMPDEST POP POP POP SWAP1 SUB SWAP1 JUMP JUMPDEST POP POP POP JUMP JUMPDEST DUP1 CALLDATALOAD PUSH1 0x1 PUSH1 0x1 PUSH1 0xA0 SHL SUB DUP2 AND DUP2 EQ PUSH2 0x2D6 JUMPI PUSH1 0x0 DUP1 REVERT JUMPDEST PUSH1 0x0 PUSH1 0x20 DUP3 DUP5 SUB SLT ISZERO PUSH2 0x7BD JUMPI DUP1 DUP2 REVERT JUMPDEST PUSH2 0x590 DUP4 DUP4 PUSH2 0x795 JUMP JUMPDEST PUSH1 0x0 DUP1 PUSH1 0x40 DUP4 DUP6 SUB SLT ISZERO PUSH2 0x7D9 JUMPI DUP1 DUP2 REVERT JUMPDEST PUSH2 0x7E3 DUP5 DUP5 PUSH2 0x795 JUMP JUMPDEST SWAP2 POP PUSH2 0x7F2 DUP5 PUSH1 0x20 DUP6 ADD PUSH2 0x795 JUMP JUMPDEST SWAP1 POP SWAP3 POP SWAP3 SWAP1 POP JUMP JUMPDEST PUSH1 0x0 DUP1 PUSH1 0x0 PUSH1 0x60 DUP5 DUP7 SUB SLT ISZERO PUSH2 0x80F JUMPI DUP1 DUP2 REVERT JUMPDEST DUP4 CALLDATALOAD PUSH2 0x81A DUP2 PUSH2 0xA93 JUMP JUMPDEST SWAP3 POP PUSH1 0x20 DUP5 ADD CALLDATALOAD PUSH2 0x82A DUP2 PUSH2 0xA93 JUMP JUMPDEST SWAP3 SWAP6 SWAP3 SWAP5 POP POP POP PUSH1 0x40 SWAP2 SWAP1 SWAP2 ADD CALLDATALOAD SWAP1 JUMP JUMPDEST PUSH1 0x0 DUP1 PUSH1 0x40 DUP4 DUP6 SUB SLT ISZERO PUSH2 0x84D JUMPI DUP2 DUP3 REVERT JUMPDEST PUSH2 0x857 DUP5 DUP5 PUSH2 0x795 JUMP JUMPDEST SWAP5 PUSH1 0x20 SWAP4 SWAP1 SWAP4 ADD CALLDATALOAD SWAP4 POP POP POP JUMP JUMPDEST PUSH1 0x0 DUP2 MLOAD DUP1 DUP5 MSTORE DUP2 JUMPDEST DUP2 DUP2 LT ISZERO PUSH2 0x88A JUMPI PUSH1 0x20 DUP2 DUP6 ADD DUP2 ADD MLOAD DUP7 DUP4 ADD DUP3 ADD MSTORE ADD PUSH2 0x86E JUMP JUMPDEST DUP2 DUP2 GT ISZERO PUSH2 0x89B JUMPI DUP3 PUSH1 0x20 DUP4 DUP8 ADD ADD MSTORE JUMPDEST POP PUSH1 0x1F ADD PUSH1 0x1F NOT AND SWAP3 SWAP1 SWAP3 ADD PUSH1 0x20 ADD SWAP3 SWAP2 POP POP JUMP JUMPDEST PUSH1 0x1 PUSH1 0x1 PUSH1 0xA0 SHL SUB SWAP2 SWAP1 SWAP2 AND DUP2 MSTORE PUSH1 0x20 ADD SWAP1 JUMP JUMPDEST PUSH1 0x0 PUSH1 0x1 DUP1 PUSH1 0xA0 SHL SUB DUP1 DUP10 AND DUP4 MSTORE PUSH1 0xC0 PUSH1 0x20 DUP5 ADD MSTORE PUSH2 0x8E6 PUSH1 0xC0 DUP5 ADD DUP10 PUSH2 0x865 JUMP JUMPDEST DUP4 DUP2 SUB PUSH1 0x40 DUP6 ADD MSTORE PUSH2 0x8F8 DUP2 DUP10 PUSH2 0x865 JUMP JUMPDEST PUSH1 0x60 DUP6 ADD SWAP8 SWAP1 SWAP8 MSTORE POP PUSH1 0x80 DUP4 ADD SWAP5 SWAP1 SWAP5 MSTORE POP SWAP2 AND PUSH1 0xA0 SWAP1 SWAP2 ADD MSTORE SWAP4 SWAP3 POP POP POP JUMP JUMPDEST SWAP1 ISZERO ISZERO DUP2 MSTORE PUSH1 0x20 ADD SWAP1 JUMP JUMPDEST PUSH1 0x0 PUSH1 0x20 DUP3 MSTORE PUSH2 0x590 PUSH1 0x20 DUP4 ADD DUP5 PUSH2 0x865 JUMP JUMPDEST PUSH1 0x20 DUP1 DUP3 MSTORE PUSH1 0x23 SWAP1 DUP3 ADD MSTORE PUSH32 0x45524332303A207472616E7366657220746F20746865207A65726F2061646472 PUSH1 0x40 DUP3 ADD MSTORE PUSH3 0x657373 PUSH1 0xE8 SHL PUSH1 0x60 DUP3 ADD MSTORE PUSH1 0x80 ADD SWAP1 JUMP JUMPDEST PUSH1 0x20 DUP1 DUP3 MSTORE PUSH1 0x22 SWAP1 DUP3 ADD MSTORE PUSH32 0x45524332303A20617070726F766520746F20746865207A65726F206164647265 PUSH1 0x40 DUP3 ADD MSTORE PUSH2 0x7373 PUSH1 0xF0 SHL PUSH1 0x60 DUP3 ADD MSTORE PUSH1 0x80 ADD SWAP1 JUMP JUMPDEST PUSH1 0x20 DUP1 DUP3 MSTORE PUSH1 0x1B SWAP1 DUP3 ADD MSTORE PUSH32 0x536166654D6174683A206164646974696F6E206F766572666C6F770000000000 PUSH1 0x40 DUP3 ADD MSTORE PUSH1 0x60 ADD SWAP1 JUMP JUMPDEST PUSH1 0x20 DUP1 DUP3 MSTORE PUSH1 0x25 SWAP1 DUP3 ADD MSTORE PUSH32 0x45524332303A207472616E736665722066726F6D20746865207A65726F206164 PUSH1 0x40 DUP3 ADD MSTORE PUSH5 0x6472657373 PUSH1 0xD8 SHL PUSH1 0x60 DUP3 ADD MSTORE PUSH1 0x80 ADD SWAP1 JUMP JUMPDEST PUSH1 0x20 DUP1 DUP3 MSTORE PUSH1 0x24 SWAP1 DUP3 ADD MSTORE PUSH32 0x45524332303A20617070726F76652066726F6D20746865207A65726F20616464 PUSH1 0x40 DUP3 ADD MSTORE PUSH4 0x72657373 PUSH1 0xE0 SHL PUSH1 0x60 DUP3 ADD MSTORE PUSH1 0x80 ADD SWAP1 JUMP JUMPDEST SWAP1 DUP2 MSTORE PUSH1 0x20 ADD SWAP1 JUMP JUMPDEST PUSH1 0xFF SWAP2 SWAP1 SWAP2 AND DUP2 MSTORE PUSH1 0x20 ADD SWAP1 JUMP JUMPDEST PUSH1 0x1 PUSH1 0x1 PUSH1 0xA0 SHL SUB DUP2 AND DUP2 EQ PUSH2 0xAA8 JUMPI PUSH1 0x0 DUP1 REVERT JUMPDEST POP JUMP INVALID GASLIMIT MSTORE NUMBER ORIGIN ADDRESS GASPRICE KECCAK256 PUSH21 0x72616E7366657220616D6F756E7420657863656564 PUSH20 0x2062616C616E636545524332303A207472616E73 PUSH7 0x657220616D6F75 PUSH15 0x74206578636565647320616C6C6F77 PUSH2 0x6E63 PUSH6 0x45524332303A KECCAK256 PUSH5 0x6563726561 PUSH20 0x656420616C6C6F77616E63652062656C6F77207A PUSH6 0x726FA2646970 PUSH7 0x73582212201F92 0xB0 CALLER SWAP12 LOG2 0xEE PUSH11 0x9A26F460AEFF8F0F6BB2D3 0xEC DUP11 LT 0x21 0xD6 0xC1 PUSH4 0x4A502FD PUSH21 0x4664736F6C634300060C0033000000000000000000 "
		},
		"gasEstimates": {
			"creation": {
				"codeDepositCost": "4736600",
				"executionCost": "infinite",
				"totalCost": "infinite"
			},
			"external": {
				"approve(address,uint256)": "infinite",
				"balanceOf(address)": "infinite",
				"baseURI()": "infinite",
				"fundWallet(address,uint256)": "infinite",
				"getApproved(uint256)": "2327",
				"getOrder(bytes32)": "infinite",
				"isApprovedForAll(address,address)": "infinite",
				"mint((uint256,string,string,uint256,uint256,address))": "infinite",
				"name()": "infinite",
				"ownedShares(uint256,address)": "infinite",
				"ownerOf(uint256)": "infinite",
				"postOrder((uint8,uint8,uint256,uint256,uint256,uint256,bytes32))": "infinite",
				"safeTransferFrom(address,address,uint256)": "infinite",
				"safeTransferFrom(address,address,uint256,bytes)": "infinite",
				"setApprovalForAll(address,bool)": "infinite",
				"supportsInterface(bytes4)": "1318",
				"symbol()": "infinite",
				"tokenByIndex(uint256)": "3831",
				"tokenOfOwnerByIndex(address,uint256)": "infinite",
				"tokenShares(uint256)": "infinite",
				"tokenURI(uint256)": "infinite",
				"totalSupply()": "1237",
				"transferFrom(address,address,uint256)": "infinite",
				"walletBalance(address)": "infinite"
			},
			"internal": {
				"_filterMatchedOrder(struct OrderModelV2.Order memory)": "infinite",
				"_matchOrder(struct OrderModelV2.Order memory)": "infinite",
				"_populateFilteredOrders(struct OrderModelV2.SortedKey memory,enum OrderModelV2.OrderType,address,address)": "infinite",
				"_processOrder(struct OrderModelV2.Order memory,struct OrderModelV2.Order memory)": "infinite",
				"_processOrderBuyPartial(struct ConstantsV2.Values memory,struct OrderModelV2.Order memory,struct OrderModelV2.Order memory)": "infinite",
				"_processOrderSameAmount(struct ConstantsV2.Values memory,struct OrderModelV2.Order memory,struct OrderModelV2.Order memory)": "infinite",
				"_processOrderSellPartial(struct ConstantsV2.Values memory,struct OrderModelV2.Order memory,struct OrderModelV2.Order memory)": "infinite",
				"_updateWalletBalance(address,uint256,bool)": "infinite"
			}
		},
		"methodIdentifiers": {
			"approve(address,uint256)": "095ea7b3",
			"balanceOf(address)": "70a08231",
			"baseURI()": "6c0360eb",
			"fundWallet(address,uint256)": "3563922f",
			"getApproved(uint256)": "081812fc",
			"getOrder(bytes32)": "5778472a",
			"isApprovedForAll(address,address)": "e985e9c5",
			"mint((uint256,string,string,uint256,uint256,address))": "4bbef4ba",
			"name()": "06fdde03",
			"ownedShares(uint256,address)": "02a1c41d",
			"ownerOf(uint256)": "6352211e",
			"postOrder((uint8,uint8,uint256,uint256,uint256,uint256,bytes32))": "7b8bb0b7",
			"safeTransferFrom(address,address,uint256)": "42842e0e",
			"safeTransferFrom(address,address,uint256,bytes)": "b88d4fde",
			"setApprovalForAll(address,bool)": "a22cb465",
			"supportsInterface(bytes4)": "01ffc9a7",
			"symbol()": "95d89b41",
			"tokenByIndex(uint256)": "4f6ccce7",
			"tokenOfOwnerByIndex(address,uint256)": "2f745c59",
			"tokenShares(uint256)": "3ae64e0c",
			"tokenURI(uint256)": "c87b56dd",
			"totalSupply()": "18160ddd",
			"transferFrom(address,address,uint256)": "23b872dd",
			"walletBalance(address)": "cf9cd8f8"
		}
	},
	"abi": [
		{
			"inputs": [],
			"stateMutability": "nonpayable",
			"type": "constructor"
		},
		{
			"anonymous": false,
			"inputs": [
				{
					"indexed": true,
					"internalType": "address",
					"name": "owner",
					"type": "address"
				},
				{
					"indexed": true,
					"internalType": "address",
					"name": "approved",
					"type": "address"
				},
				{
					"indexed": true,
					"internalType": "uint256",
					"name": "tokenId",
					"type": "uint256"
				}
			],
			"name": "Approval",
			"type": "event"
		},
		{
			"anonymous": false,
			"inputs": [
				{
					"indexed": true,
					"internalType": "address",
					"name": "owner",
					"type": "address"
				},
				{
					"indexed": true,
					"internalType": "address",
					"name": "operator",
					"type": "address"
				},
				{
					"indexed": false,
					"internalType": "bool",
					"name": "approved",
					"type": "bool"
				}
			],
			"name": "ApprovalForAll",
			"type": "event"
		},
		{
			"anonymous": false,
			"inputs": [
				{
					"indexed": true,
					"internalType": "address",
					"name": "from",
					"type": "address"
				},
				{
					"indexed": true,
					"internalType": "address",
					"name": "to",
					"type": "address"
				},
				{
					"indexed": true,
					"internalType": "uint256",
					"name": "tokenId",
					"type": "uint256"
				}
			],
			"name": "Transfer",
			"type": "event"
		},
		{
			"inputs": [
				{
					"internalType": "address",
					"name": "to",
					"type": "address"
				},
				{
					"internalType": "uint256",
					"name": "tokenId",
					"type": "uint256"
				}
			],
			"name": "approve",
			"outputs": [],
			"stateMutability": "nonpayable",
			"type": "function"
		},
		{
			"inputs": [
				{
					"internalType": "address",
					"name": "owner",
					"type": "address"
				}
			],
			"name": "balanceOf",
			"outputs": [
				{
					"internalType": "uint256",
					"name": "",
					"type": "uint256"
				}
			],
			"stateMutability": "view",
			"type": "function"
		},
		{
			"inputs": [],
			"name": "baseURI",
			"outputs": [
				{
					"internalType": "string",
					"name": "",
					"type": "string"
				}
			],
			"stateMutability": "view",
			"type": "function"
		},
		{
			"inputs": [
				{
					"internalType": "address",
					"name": "recipient",
					"type": "address"
				},
				{
					"internalType": "uint256",
					"name": "amount",
					"type": "uint256"
				}
			],
			"name": "fundWallet",
			"outputs": [],
			"stateMutability": "nonpayable",
			"type": "function"
		},
		{
			"inputs": [
				{
					"internalType": "uint256",
					"name": "tokenId",
					"type": "uint256"
				}
			],
			"name": "getApproved",
			"outputs": [
				{
					"internalType": "address",
					"name": "",
					"type": "address"
				}
			],
			"stateMutability": "view",
			"type": "function"
		},
		{
			"inputs": [
				{
					"internalType": "bytes32",
					"name": "key",
					"type": "bytes32"
				}
			],
			"name": "getOrder",
			"outputs": [
				{
					"components": [
						{
							"components": [
								{
									"internalType": "bytes32",
									"name": "key",
									"type": "bytes32"
								},
								{
									"internalType": "uint256",
									"name": "date",
									"type": "uint256"
								}
							],
							"internalType": "struct OrderModelV2.SortedKey",
							"name": "key",
							"type": "tuple"
						},
						{
							"internalType": "enum OrderModelV2.OrderType",
							"name": "orderType",
							"type": "uint8"
						},
						{
							"internalType": "enum OrderModelV2.OrderStrategy",
							"name": "orderStrategy",
							"type": "uint8"
						},
						{
							"internalType": "address",
							"name": "seller",
							"type": "address"
						},
						{
							"internalType": "address",
							"name": "buyer",
							"type": "address"
						},
						{
							"internalType": "uint256",
							"name": "tokenId",
							"type": "uint256"
						},
						{
							"internalType": "uint256",
							"name": "amountRemaining",
							"type": "uint256"
						},
						{
							"internalType": "uint256",
							"name": "originalAmount",
							"type": "uint256"
						},
						{
							"internalType": "uint256",
							"name": "price",
							"type": "uint256"
						},
						{
							"internalType": "enum OrderModelV2.OrderStatus",
							"name": "status",
							"type": "uint8"
						},
						{
							"internalType": "uint256",
							"name": "orderDate",
							"type": "uint256"
						},
						{
							"internalType": "uint256",
							"name": "statusDate",
							"type": "uint256"
						},
						{
							"internalType": "uint256",
							"name": "goodUntil",
							"type": "uint256"
						}
					],
					"internalType": "struct OrderModelV2.Order",
					"name": "",
					"type": "tuple"
				}
			],
			"stateMutability": "view",
			"type": "function"
		},
		{
			"inputs": [
				{
					"internalType": "address",
					"name": "owner",
					"type": "address"
				},
				{
					"internalType": "address",
					"name": "operator",
					"type": "address"
				}
			],
			"name": "isApprovedForAll",
			"outputs": [
				{
					"internalType": "bool",
					"name": "",
					"type": "bool"
				}
			],
			"stateMutability": "view",
			"type": "function"
		},
		{
			"inputs": [
				{
					"components": [
						{
							"internalType": "uint256",
							"name": "tokenId",
							"type": "uint256"
						},
						{
							"internalType": "string",
							"name": "description",
							"type": "string"
						},
						{
							"internalType": "string",
							"name": "symbol",
							"type": "string"
						},
						{
							"internalType": "uint256",
							"name": "totalSupply",
							"type": "uint256"
						},
						{
							"internalType": "uint256",
							"name": "issuingPrice",
							"type": "uint256"
						},
						{
							"internalType": "address",
							"name": "issuer",
							"type": "address"
						}
					],
					"internalType": "struct AssetModelV2.AssetRequest",
					"name": "ar",
					"type": "tuple"
				}
			],
			"name": "mint",
			"outputs": [],
			"stateMutability": "nonpayable",
			"type": "function"
		},
		{
			"inputs": [],
			"name": "name",
			"outputs": [
				{
					"internalType": "string",
					"name": "",
					"type": "string"
				}
			],
			"stateMutability": "view",
			"type": "function"
		},
		{
			"inputs": [
				{
					"internalType": "uint256",
					"name": "tokenId",
					"type": "uint256"
				},
				{
					"internalType": "address",
					"name": "userAddress",
					"type": "address"
				}
			],
			"name": "ownedShares",
			"outputs": [
				{
					"internalType": "uint256",
					"name": "",
					"type": "uint256"
				}
			],
			"stateMutability": "view",
			"type": "function"
		},
		{
			"inputs": [
				{
					"internalType": "uint256",
					"name": "tokenId",
					"type": "uint256"
				}
			],
			"name": "ownerOf",
			"outputs": [
				{
					"internalType": "address",
					"name": "",
					"type": "address"
				}
			],
			"stateMutability": "view",
			"type": "function"
		},
		{
			"inputs": [
				{
					"components": [
						{
							"internalType": "enum OrderModelV2.OrderType",
							"name": "orderType",
							"type": "uint8"
						},
						{
							"internalType": "enum OrderModelV2.OrderStrategy",
							"name": "orderStrategy",
							"type": "uint8"
						},
						{
							"internalType": "uint256",
							"name": "amount",
							"type": "uint256"
						},
						{
							"internalType": "uint256",
							"name": "price",
							"type": "uint256"
						},
						{
							"internalType": "uint256",
							"name": "tokenId",
							"type": "uint256"
						},
						{
							"internalType": "uint256",
							"name": "goodUntil",
							"type": "uint256"
						},
						{
							"internalType": "bytes32",
							"name": "key",
							"type": "bytes32"
						}
					],
					"internalType": "struct OrderModelV2.OrderRequest",
					"name": "or",
					"type": "tuple"
				}
			],
			"name": "postOrder",
			"outputs": [],
			"stateMutability": "nonpayable",
			"type": "function"
		},
		{
			"inputs": [
				{
					"internalType": "address",
					"name": "from",
					"type": "address"
				},
				{
					"internalType": "address",
					"name": "to",
					"type": "address"
				},
				{
					"internalType": "uint256",
					"name": "tokenId",
					"type": "uint256"
				}
			],
			"name": "safeTransferFrom",
			"outputs": [],
			"stateMutability": "nonpayable",
			"type": "function"
		},
		{
			"inputs": [
				{
					"internalType": "address",
					"name": "from",
					"type": "address"
				},
				{
					"internalType": "address",
					"name": "to",
					"type": "address"
				},
				{
					"internalType": "uint256",
					"name": "tokenId",
					"type": "uint256"
				},
				{
					"internalType": "bytes",
					"name": "_data",
					"type": "bytes"
				}
			],
			"name": "safeTransferFrom",
			"outputs": [],
			"stateMutability": "nonpayable",
			"type": "function"
		},
		{
			"inputs": [
				{
					"internalType": "address",
					"name": "operator",
					"type": "address"
				},
				{
					"internalType": "bool",
					"name": "approved",
					"type": "bool"
				}
			],
			"name": "setApprovalForAll",
			"outputs": [],
			"stateMutability": "nonpayable",
			"type": "function"
		},
		{
			"inputs": [
				{
					"internalType": "bytes4",
					"name": "interfaceId",
					"type": "bytes4"
				}
			],
			"name": "supportsInterface",
			"outputs": [
				{
					"internalType": "bool",
					"name": "",
					"type": "bool"
				}
			],
			"stateMutability": "view",
			"type": "function"
		},
		{
			"inputs": [],
			"name": "symbol",
			"outputs": [
				{
					"internalType": "string",
					"name": "",
					"type": "string"
				}
			],
			"stateMutability": "view",
			"type": "function"
		},
		{
			"inputs": [
				{
					"internalType": "uint256",
					"name": "index",
					"type": "uint256"
				}
			],
			"name": "tokenByIndex",
			"outputs": [
				{
					"internalType": "uint256",
					"name": "",
					"type": "uint256"
				}
			],
			"stateMutability": "view",
			"type": "function"
		},
		{
			"inputs": [
				{
					"internalType": "address",
					"name": "owner",
					"type": "address"
				},
				{
					"internalType": "uint256",
					"name": "index",
					"type": "uint256"
				}
			],
			"name": "tokenOfOwnerByIndex",
			"outputs": [
				{
					"internalType": "uint256",
					"name": "",
					"type": "uint256"
				}
			],
			"stateMutability": "view",
			"type": "function"
		},
		{
			"inputs": [
				{
					"internalType": "uint256",
					"name": "tokenId",
					"type": "uint256"
				}
			],
			"name": "tokenShares",
			"outputs": [
				{
					"components": [
						{
							"internalType": "uint256",
							"name": "tokenId",
							"type": "uint256"
						},
						{
							"internalType": "address",
							"name": "owner",
							"type": "address"
						},
						{
							"internalType": "address",
							"name": "sharesContract",
							"type": "address"
						},
						{
							"internalType": "string",
							"name": "description",
							"type": "string"
						},
						{
							"internalType": "string",
							"name": "symbol",
							"type": "string"
						},
						{
							"internalType": "uint256",
							"name": "totalSupply",
							"type": "uint256"
						},
						{
							"internalType": "uint256",
							"name": "issuingPrice",
							"type": "uint256"
						},
						{
							"internalType": "address",
							"name": "issuer",
							"type": "address"
						}
					],
					"internalType": "struct AssetModelV2.TokenShares",
					"name": "",
					"type": "tuple"
				}
			],
			"stateMutability": "view",
			"type": "function"
		},
		{
			"inputs": [
				{
					"internalType": "uint256",
					"name": "tokenId",
					"type": "uint256"
				}
			],
			"name": "tokenURI",
			"outputs": [
				{
					"internalType": "string",
					"name": "",
					"type": "string"
				}
			],
			"stateMutability": "view",
			"type": "function"
		},
		{
			"inputs": [],
			"name": "totalSupply",
			"outputs": [
				{
					"internalType": "uint256",
					"name": "",
					"type": "uint256"
				}
			],
			"stateMutability": "view",
			"type": "function"
		},
		{
			"inputs": [
				{
					"internalType": "address",
					"name": "from",
					"type": "address"
				},
				{
					"internalType": "address",
					"name": "to",
					"type": "address"
				},
				{
					"internalType": "uint256",
					"name": "tokenId",
					"type": "uint256"
				}
			],
			"name": "transferFrom",
			"outputs": [],
			"stateMutability": "nonpayable",
			"type": "function"
		},
		{
			"inputs": [
				{
					"internalType": "address",
					"name": "userAddress",
					"type": "address"
				}
			],
			"name": "walletBalance",
			"outputs": [
				{
					"internalType": "uint256",
					"name": "",
					"type": "uint256"
				}
			],
			"stateMutability": "view",
			"type": "function"
		}
	]
}