{
	"data": {
		"bytecode": {
			"linkReferences": {
				"browser/ConstantsV2.sol": {
					"ConstantsV2": [
						{
							"length": 20,
							"start": 14272
						}
					]
				}
			},
			"object": "60806040523480156200001157600080fd5b50620000246301ffc9a760e01b6200019b565b6040805180820190915260108082526f4e5345204172742045786368616e676560801b60209092019182526200005d91601591620001f6565b5060408051808201909152600480825263082a4a8b60e31b60209092019182526200008b91601691620001f6565b506200009e6380ac58cd60e01b6200019b565b620000b0635b5e139f60e01b6200019b565b620000c263780e9d6360e01b6200019b565b601380546001600160a01b03191633908117909155604051600191906000908190620000ee906200027b565b620000fd9493929190620002f9565b604051809103906000f0801580156200011a573d6000803e3d6000fd5b50600f80546001600160a01b0319166001600160a01b039290921691909117905560405130906200014b9062000289565b620001579190620002ae565b604051809103906000f08015801562000174573d6000803e3d6000fd5b50601080546001600160a01b0319166001600160a01b03929092169190911790556200033f565b6001600160e01b03198082161415620001d15760405162461bcd60e51b8152600401620001c890620002c2565b60405180910390fd5b6001600160e01b0319166000908152602081905260409020805460ff19166001179055565b828054600181600116156101000203166002900490600052602060002090601f016020900481019282601f106200023957805160ff191683800117855562000269565b8280016001018555821562000269579182015b82811115620002695782518255916020019190600101906200024c565b506200027792915062000297565b5090565b61119f8062005e9183390190565b6103b6806200703083390190565b5b8082111562000277576000815560010162000298565b6001600160a01b0391909116815260200190565b6020808252601c908201527f4552433136353a20696e76616c696420696e7465726661636520696400000000604082015260600190565b60a08082526006908201526515d05313115560d21b60c082015260208101949094526001600160a01b0392909216604084015260ff166060830152608082015260e00190565b615b42806200034f6000396000f3fe60806040523480156200001157600080fd5b5060043610620001b45760003560e01c806371df284d11620000f3578063bb099ee311620000a5578063e985e9c5116200007b578063e985e9c514620003fd578063f1dfad8f1462000414578063fc18d034146200042b578063ff919450146200044257620001b4565b8063bb099ee314620003b8578063c87b56dd14620003cf578063cf9cd8f814620003e657620001b4565b806371df284d146200033b5780637727b85b146200035257806395d89b411462000369578063a22cb4651462000373578063b88d4fde146200038a578063b9d11e8614620003a157620001b4565b806323b872dd116200016b57806342842e0e116200014157806342842e0e146200028c5780635778472a14620002e75780636352211e146200030d57806370a08231146200032457620001b4565b806323b872dd146200028c5780633563922f14620002a35780633ae64e0c14620002ba57620001b4565b806301ffc9a714620001b957806302a1c41d14620001e857806306fdde03146200020e578063081812fc1462000227578063095ea7b3146200024d5780631a3ed2751462000266575b600080fd5b620001d0620001ca36600462003e89565b62000459565b604051620001df9190620042a1565b60405180910390f35b620001ff620001f936600462003ee0565b62000478565b604051620001df91906200478f565b6200021862000518565b604051620001df91906200431b565b6200023e6200023836600462003e44565b620005b2565b604051620001df919062004132565b620002646200025e36600462003d41565b6200060e565b005b6200027d6200027736600462003e44565b620006a1565b604051620001df9190620041dc565b620002646200029d36600462003c1d565b6200069c565b62000264620002b436600462003d41565b6200072c565b620002d1620002cb36600462003e44565b620007c5565b604051620001df989796959493929190620047d4565b620002fe620002f836600462003e44565b62000892565b604051620001df9190620046df565b6200023e6200031e36600462003e44565b62000955565b620001ff6200033536600462003bc1565b62000970565b620002646200034c36600462003fce565b6200098b565b620002646200036336600462003e44565b62000a86565b6200021862000ea9565b620002646200038436600462003d0f565b62000f0d565b620002646200039b36600462003c62565b62000ea3565b620001ff620003b236600462003e44565b62000f71565b620001ff620003c936600462003e44565b6200100b565b62000218620003e036600462003e44565b620010ad565b620001ff620003f736600462003bc1565b62001152565b620001d06200040e36600462003be0565b62001187565b620002646200042536600462004075565b620011b5565b620002646200043c36600462003e5d565b620016cb565b620002646200045336600462003e44565b62001902565b6001600160e01b03191660009081526020819052604090205460ff1690565b6000828152600e6020526040808220549051636eb1769f60e11b81526001600160a01b0390911690819063dd62ed3e90620004ba908690309060040162004185565b60206040518083038186803b158015620004d357600080fd5b505afa158015620004e8573d6000803e3d6000fd5b505050506040513d601f19601f820116820180604052508101906200050e919062003ec7565b9150505b92915050565b60158054604080516020601f6002600019610100600188161502019095169490940493840181900481028201810190925282815260609390929091830182828015620005a85780601f106200057c57610100808354040283529160200191620005a8565b820191906000526020600020905b8154815290600101906020018083116200058a57829003601f168201915b5050505050905090565b6000818152600660205260408120546001600160a01b0316620005f25760405162461bcd60e51b8152600401620005e9906200457b565b60405180910390fd5b506000908152600b60205260409020546001600160a01b031690565b60006200061b8262000955565b9050806001600160a01b0316836001600160a01b03161415620006525760405162461bcd60e51b8152600401620005e990620045c7565b336001600160a01b038216148062000671575062000671813362001187565b620006905760405162461bcd60e51b8152600401620005e990620044a7565b6200069c838362001a4b565b505050565b601054604051631e55504360e31b81526060916001600160a01b03169063f2aa821890620006d49085906004016200478f565b60006040518083038186803b158015620006ed57600080fd5b505afa15801562000702573d6000803e3d6000fd5b505050506040513d6000823e601f3d908101601f1916820160405262000512919081019062003d6f565b6013546001600160a01b03163314620007595760405162461bcd60e51b8152600401620005e99062004689565b600f54604051630f38ca0d60e31b81526001600160a01b03909116906379c65068906200078d9085908590600401620041c3565b600060405180830381600087803b158015620007a857600080fd5b505af1158015620007bd573d6000803e3d6000fd5b505050505050565b6000818152600e60209081526040808320546006909252808320549051637cdbcac560e11b81528392839260609283928592839283926001600160a01b039081169263f9b7958a926200081f928e92169060040162004798565b60006040518083038186803b1580156200083857600080fd5b505afa1580156200084d573d6000803e3d6000fd5b505050506040513d6000823e601f3d908101601f1916820160405262000877919081019062003f07565b97509750975097509750975097509750919395975091939597565b6200089c620039a6565b5060009081526011602090815260409182902082516101c0810184528154610180820190815260018301546101a0830152815260028201549281019290925260038101549282019290925260048201546001600160a01b0390811660608301526005830154166080820152600682015460a0820152600782015460c0820152600882015460e08201526009820154610100820152600a820154610120820152600b820154610140820152600c9091015461016082015290565b6000908152600660205260409020546001600160a01b031690565b6001600160a01b031660009081526003602052604090205490565b6001600160a01b0383166200099f57600080fd5b6013546001600160a01b03163314620009b757600080fd5b620009c3338962001a79565b506000888152600960205260409020620009df90838362003a21565b5060008881526007602052604080822080546001600160a01b0319166001600160a01b03871617905551889088908790879085908b9062000a209062003aa6565b62000a3196959493929190620042c2565b604051809103906000f08015801562000a4e573d6000803e3d6000fd5b506000998a52600e602052604090992080546001600160a01b0319166001600160a01b03909a16999099179098555050505050505050565b6013546001600160a01b0316331462000a9e57600080fd5b601054604051631e55504360e31b81526060916001600160a01b03169063f2aa82189062000ad19085906004016200478f565b60006040518083038186803b15801562000aea57600080fd5b505afa15801562000aff573d6000803e3d6000fd5b505050506040513d6000823e601f3d908101601f1916820160405262000b29919081019062003d6f565b6000838152600e60205260408120549192506001600160a01b03909116905b82518160ff16101562000d835760105483516000916001600160a01b0316906320000b59908790879060ff871690811062000b7f57fe5b60200260200101516040518363ffffffff1660e01b815260040162000ba692919062004798565b60206040518083038186803b15801562000bbf57600080fd5b505afa15801562000bd4573d6000803e3d6000fd5b505050506040513d601f19601f8201168201806040525081019062000bfa919062003ec7565b9050801562000d7957826001600160a01b03166323b872dd858460ff168151811062000c2257fe5b6020026020010151731337133713371337133713371337133713371337866001600160a01b031663dd62ed3e898860ff168151811062000c5e57fe5b6020026020010151306040518363ffffffff1660e01b815260040162000c8692919062004185565b60206040518083038186803b15801562000c9f57600080fd5b505afa15801562000cb4573d6000803e3d6000fd5b505050506040513d601f19601f8201168201806040525081019062000cda919062003ec7565b6040518463ffffffff1660e01b815260040162000cfa939291906200419f565b602060405180830381600087803b15801562000d1557600080fd5b505af115801562000d2a573d6000803e3d6000fd5b505050506040513d601f19601f8201168201806040525081019062000d50919062003e25565b1562000d795762000d79848360ff168151811062000d6a57fe5b6020026020010151826200072c565b5060010162000b48565b50601354604051636eb1769f60e11b81526001600160a01b03808416926323b872dd9291169073133713371337133713371337133713371337133790849063dd62ed3e9062000dd9908590309060040162004185565b60206040518083038186803b15801562000df257600080fd5b505afa15801562000e07573d6000803e3d6000fd5b505050506040513d601f19601f8201168201806040525081019062000e2d919062003ec7565b6040518463ffffffff1660e01b815260040162000e4d939291906200419f565b602060405180830381600087803b15801562000e6857600080fd5b505af115801562000e7d573d6000803e3d6000fd5b505050506040513d601f19601f8201168201806040525081019062000ea3919062003e25565b50505050565b60168054604080516020601f6002600019610100600188161502019095169490940493840181900481028201810190925282815260609390929091830182828015620005a85780601f106200057c57610100808354040283529160200191620005a8565b6001600160a01b03821633141562000f395760405162461bcd60e51b8152600401620005e9906200440d565b336000908152600c602090815260408083206001600160a01b0395909516835293905291909120805460ff1916911515919091179055565b60105460008281526007602052604080822054905163e5c66bbd60e01b815291926001600160a01b039081169263e5c66bbd9262000fb792879291169060040162004798565b60206040518083038186803b15801562000fd057600080fd5b505afa15801562000fe5573d6000803e3d6000fd5b505050506040513d601f19601f8201168201806040525081019062000512919062003ec7565b6000818152600e6020526040808220546013549151636eb1769f60e11b81526001600160a01b0391821692839263dd62ed3e92620010529290911690309060040162004185565b60206040518083038186803b1580156200106b57600080fd5b505afa15801562001080573d6000803e3d6000fd5b505050506040513d601f19601f82011682018060405250810190620010a6919062003ec7565b9392505050565b60008181526009602090815260409182902080548351601f6002600019610100600186161502019093169290920491820184900484028101840190945280845260609392830182828015620011465780601f106200111a5761010080835404028352916020019162001146565b820191906000526020600020905b8154815290600101906020018083116200112857829003601f168201915b50505050509050919050565b600f54604051636eb1769f60e11b81526000916001600160a01b03169063dd62ed3e9062000fb7908590309060040162004185565b6001600160a01b039182166000908152600c6020908152604080832093909416825291909152205460ff1690565b60008281526011602052604090206006015415620011e75760405162461bcd60e51b8152600401620005e9906200434c565b6000808962001313575060009050338162001203898962001c41565b6001600160a01b0380841660009081526014602052604080822054600f549151636eb1769f60e11b815294955091939192169063dd62ed3e906200124e908790309060040162004185565b60206040518083038186803b1580156200126757600080fd5b505afa1580156200127c573d6000803e3d6000fd5b505050506040513d601f19601f82011682018060405250810190620012a2919062003ec7565b039050818110620012f1576001600160a01b038316600090815260146020526040902054620012d2908362001c81565b6001600160a01b0384166000908152601460205260409020556200130b565b60405162461bcd60e51b8152600401620005e9906200451f565b505062001521565b60018a141562001521575033905060008262001365576000868152600760205260409020546001600160a01b03838116911614620013655760405162461bcd60e51b8152600401620005e990620046c1565b6000868152600e6020526040808220549051636eb1769f60e11b81526001600160a01b039091169190829063dd62ed3e90620013a8908790309060040162004185565b60206040518083038186803b158015620013c157600080fd5b505afa158015620013d6573d6000803e3d6000fd5b505050506040513d601f19601f82011682018060405250810190620013fc919062003ec7565b905089811015620014215760405162461bcd60e51b8152600401620005e99062004608565b6013546040516323b872dd60e01b81526001600160a01b03808516926323b872dd926200145792899216908f906004016200419f565b602060405180830381600087803b1580156200147257600080fd5b505af115801562001487573d6000803e3d6000fd5b505050506040513d601f19601f82011682018060405250810190620014ad919062003e25565b156200151e5760135460405163363798f960e11b81526001600160a01b0384811692636c6f31f292620014e992909116908e90600401620041c3565b600060405180830381600087803b1580156200150457600080fd5b505af115801562001519573d6000803e3d6000fd5b505050505b50505b6200152b62003ab4565b506040805180820190915284815242602082015262001549620039a6565b6040518061018001604052808381526020018d81526020018c8152602001856001600160a01b03168152602001846001600160a01b031681526020018981526020018b81526020018b81526020018a815260200160008152602001888152602001868152509050806011600088815260200190815260200160002060008201518160000160008201518160000155602082015181600101555050602082015181600201556040820151816003015560608201518160040160006101000a8154816001600160a01b0302191690836001600160a01b0316021790555060808201518160050160006101000a8154816001600160a01b0302191690836001600160a01b0316021790555060a0820151816006015560c0820151816007015560e08201518160080155610100820151816009015561012082015181600a015561014082015181600b015561016082015181600c0155905050620016b28160000151826020015162001ca9565b620016bd8162001eac565b505050505050505050505050565b620016d5620039a6565b50600083815260116020908152604080832081516101c0810183528154610180820190815260018301546101a0830152815260028201549381019390935260038101549183019190915260048101546001600160a01b0390811660608401526005820154166080830152600681015460a0830152600781015460c0830152600881015460e08301526009810154610100830152600a810154610120830152600b810154610140830152600c01546101608201529082156200179757826200179d565b8160c001515b905083620018ef576000620017c18361010001518362001c4190919063ffffffff16565b9050620017cf86836200279e565b600f5460608401516040516323b872dd60e01b81526001600160a01b03909216916323b872dd916200181c917313371337133713371337133713371337133713379086906004016200419f565b602060405180830381600087803b1580156200183757600080fd5b505af11580156200184c573d6000803e3d6000fd5b505050506040513d601f19601f8201168201806040525081019062001872919062003e25565b5060105460a084015160608501516040516302bf1efd60e21b81526001600160a01b0390931692630afc7bf492620018b49290913391908790600401620047af565b600060405180830381600087803b158015620018cf57600080fd5b505af1158015620018e4573d6000803e3d6000fd5b5050505050620018fb565b620018fb85826200279e565b5050505050565b6013546001600160a01b031633146200191a57600080fd5b6000818152600e602052604090819020546013549151636eb1769f60e11b81526001600160a01b039182169283926323b872dd9291169073133713371337133713371337133713371337133790849063dd62ed3e9062001981908590309060040162004185565b60206040518083038186803b1580156200199a57600080fd5b505afa158015620019af573d6000803e3d6000fd5b505050506040513d601f19601f82011682018060405250810190620019d5919062003ec7565b6040518463ffffffff1660e01b8152600401620019f5939291906200419f565b602060405180830381600087803b15801562001a1057600080fd5b505af115801562001a25573d6000803e3d6000fd5b505050506040513d601f19601f820116820180604052508101906200069c919062003e25565b6000908152600b6020526040902080546001600160a01b0319166001600160a01b0392909216919091179055565b6000818152600660205260408120546001600160a01b03161562001ab15760405162461bcd60e51b8152600401620005e9906200465b565b600a5462001ac190600162001c81565b600a556001600160a01b03831660009081526003602052604090205462001aea90600162001c81565b6001600160a01b038416600081815260036020908152604080832094909455600480548784526002835285842081905560018082019092557f8a35acfbc15ff81a39ae7d344fd709f28e8600b4aa8c65c6b64bfe7fe36bd19b018790558383526005825284832080548083018255908452828420018790558683526006825284832080546001600160a01b03191685179055838352600880835285842054888552828452958420869055939092529190915262001ba8919062001c81565b6001600160a01b038416600090815260086020908152604080832093909355825190810190925280825262001be1918590859062002db7565b62001c005760405162461bcd60e51b8152600401620005e99062004368565b60405182906001600160a01b038516906000907fddf252ad1be2c89b69c2b068fc378daa952ba7f163c4a11628f55a4df523b3ef908290a450600192915050565b60008262001c525750600062000512565b8282028284828162001c6057fe5b0414620010a65760405162461bcd60e51b8152600401620005e9906200453a565b600082820183811015620010a65760405162461bcd60e51b8152600401620005e990620043d6565b60408051808201909152600e81526d50454e44494e475f4f524445525360901b6020918201526012815260008051602062005aed833981519152805460018101825560009190915283517f772be0ea410d083b9faa7620a637a2ef4d4134620e54336f1b23152f42425556600290920291820155908301517f772be0ea410d083b9faa7620a637a2ef4d4134620e54336f1b23152f42425557909101558062001dfc5760408051808201909152600a8152694255595f4f524445525360b01b602091820152601281527fa856f6f6ba39055e273c3d1058784d00bc2dab91b2353e69862ab8df53b0d6a9805460018101825560009190915283517f36efb38fd59827d5911e3b141a286794701d27e978342642a4e798ccbcb6d0b0600290920291820155908301517f36efb38fd59827d5911e3b141a286794701d27e978342642a4e798ccbcb6d0b19091015562001ea8565b60408051808201909152600b81526a53454c4c5f4f524445525360a81b602091820152601281527f059c3c45dfa5b970085a7d7ea669a7672d22ba456db726211d2174701a35eebf805460018101825560009190915283517fd3e445f601822a3f1c3e46dee42be703ac2b01d125c66d6525359d9d1673b162600290920291820155908301517fd3e445f601822a3f1c3e46dee42be703ac2b01d125c66d6525359d9d1673b163909101555b5050565b600062001eb8620039a6565b5060408051808201909152600e81526d50454e44494e475f4f524445525360901b60209182015260008051602062005acd8339815191526000526012905260008051602062005aed833981519152548290600181141562001f1c575050506200279b565b600062001f2b82600162002e9b565b905060006103e8831162001f4157600062001f45565b6103e85b90505b80821015801562001f57575084155b15620007bd5762001f67620039a6565b60408051808201909152600e81526d50454e44494e475f4f524445525360901b60209182015260008051602062005acd8339815191526000908152601290915260008051602062005aed833981519152805460119291908690811062001fc957fe5b60009182526020808320600292830201548452838101949094526040928301822083516101c0810185528154610180820190815260018301546101a083015281529181015482860181905260038201549483019490945260048101546001600160a01b039081166060840181905260058301549091166080840152600682015460a0808501829052600784015460c0860152600884015460e08601526009840154610100860152600a840154610120860152600b840154610140860152600c90930154610160850152918b0151958b015192965094149392149115801590620020be575060808801516001600160a01b031615155b15620020e95787608001516001600160a01b031684606001516001600160a01b031614905062002138565b60808401516001600160a01b03161580159062002112575060608801516001600160a01b031615155b15620021385787606001516001600160a01b031684608001516001600160a01b03161490505b6101608089015190850151146000848015620021575750610120860151155b801562002162575083155b80156200216c5750815b801562002177575082155b905080156200276e576200218a620039a6565b62002194620039a6565b6200219e62003acb565b60208d015162002281578c9250889150620021ba838362002edf565b805184515160009081526011602090815260409182902082516101c0810184528154610180820190815260018301546101a0830152815260028201549281019290925260038101549282019290925260048201546001600160a01b0390811660608301526005830154166080820152600682015460a0820152600782015460c0820152600882015460e08201526009820154610100820152600a820154610120820152600b820154610140820152600c90910154610160820152909f509d50905062002363565b60018d60200151141562002363578c9150889250620022a1838362002edf565b805183515160009081526011602090815260409182902082516101c0810184528154610180820190815260018301546101a0830152815260028201549281019290925260038101549282019290925260048201546001600160a01b0390811660608301526005830154166080820152600682015460a0820152600782015460c0820152600882015460e08201526009820154610100820152600a820154610120820152600b820154610140820152600c90910154610160820152909f509d5090505b600183610120015114806200237d57506001826101200151145b156200276a576000620023a3846101000151836060015162001c4190919063ffffffff16565b60408401519091508190600114620023ce576101008401516080840151620023cb9162001c41565b90505b60808501516001600160a01b0316600090815260146020526040902054620023f7908362002e9b565b60808601516001600160a01b0390811660009081526014602090815260408083209490945560a08901518252600e9052829020546013546060808901519088015194516323b872dd60e01b81529284169485946323b872dd9462002464949091169291906004016200419f565b602060405180830381600087803b1580156200247f57600080fd5b505af115801562002494573d6000803e3d6000fd5b505050506040513d601f19601f82011682018060405250810190620024ba919062003e25565b156200252b576060808601519085015160405163363798f960e11b81526001600160a01b03841692636c6f31f292620024f692600401620041c3565b600060405180830381600087803b1580156200251157600080fd5b505af115801562002526573d6000803e3d6000fd5b505050505b600f5460808701516060808801516101008a0151918801516001600160a01b03909416936323b872dd939262002562919062001c41565b6040518463ffffffff1660e01b815260040162002582939291906200419f565b602060405180830381600087803b1580156200259d57600080fd5b505af1158015620025b2573d6000803e3d6000fd5b505050506040513d601f19601f82011682018060405250810190620025d8919062003e25565b156200276657600f54606080870151610100890151918701516001600160a01b0390931692636c6f31f2926200260f919062001c41565b6040518363ffffffff1660e01b81526004016200262e929190620041c3565b600060405180830381600087803b1580156200264957600080fd5b505af11580156200265e573d6000803e3d6000fd5b505050506060858101516080880151918601516040516323b872dd60e01b81526001600160a01b038516936323b872dd936200269f9390926004016200419f565b602060405180830381600087803b158015620026ba57600080fd5b505af1158015620026cf573d6000803e3d6000fd5b505050506040513d601f19601f82011682018060405250810190620026f5919062003e25565b1562002766576080860151606085015160405163363798f960e11b81526001600160a01b03841692636c6f31f2926200273192600401620041c3565b600060405180830381600087803b1580156200274c57600080fd5b505af115801562002761573d6000803e3d6000fd5b505050505b5050505b5050505b876200278057505050505050620007bd565b6200278d88600162002e9b565b975050505050505062001f48565b50565b33620027a9620039a6565b5060008381526011602090815260409182902082516101c0810184528154610180820190815260018301546101a0830152815260028201549281019290925260038101549282019290925260048201546001600160a01b0390811660608301526005830154166080820152600682015460a0820152600782015460c0820152600882015460e08201526009820154610100820152600a820154610120820152600b820154610140820152600c90910154610160820152826200287f5760405162461bcd60e51b8152600401620005e990620043ba565b8060c00151831115620028a65760405162461bcd60e51b8152600401620005e99062004330565b816001600160a01b031681606001516001600160a01b03161415620028df5760405162461bcd60e51b8152600401620005e99062004444565b6000620028fb8261010001518562001c4190919063ffffffff16565b600f54604051636eb1769f60e11b81529192506000916001600160a01b039091169063dd62ed3e9062002935908790309060040162004185565b60206040518083038186803b1580156200294e57600080fd5b505afa15801562002963573d6000803e3d6000fd5b505050506040513d601f19601f8201168201806040525081019062002989919062003ec7565b9050818110620012f15760a08301516000908152600e60205260409081902054601354606086015192516323b872dd60e01b81526001600160a01b039283169384936323b872dd93620029e593911691908b906004016200419f565b602060405180830381600087803b15801562002a0057600080fd5b505af115801562002a15573d6000803e3d6000fd5b505050506040513d601f19601f8201168201806040525081019062002a3b919062003e25565b1562002aaf57606084015160405163363798f960e11b81526001600160a01b03831691636c6f31f29162002a7591908a90600401620041c3565b600060405180830381600087803b15801562002a9057600080fd5b505af115801562002aa5573d6000803e3d6000fd5b5050505062002ac9565b60405162461bcd60e51b8152600401620005e990620046a5565b600f5460608501516040516323b872dd60e01b81526001600160a01b03909216916323b872dd9162002b039189919088906004016200419f565b602060405180830381600087803b15801562002b1e57600080fd5b505af115801562002b33573d6000803e3d6000fd5b505050506040513d601f19601f8201168201806040525081019062002b59919062003e25565b1562002cc657600f54606085015160405163363798f960e11b81526001600160a01b0390921691636c6f31f29162002b96918790600401620041c3565b600060405180830381600087803b15801562002bb157600080fd5b505af115801562002bc6573d6000803e3d6000fd5b50505060608501516040516323b872dd60e01b81526001600160a01b03841692506323b872dd9162002bff9189908b906004016200419f565b602060405180830381600087803b15801562002c1a57600080fd5b505af115801562002c2f573d6000803e3d6000fd5b505050506040513d601f19601f8201168201806040525081019062002c55919062003e25565b1562002cc05760405163363798f960e11b81526001600160a01b03821690636c6f31f29062002c8b9088908a90600401620041c3565b600060405180830381600087803b15801562002ca657600080fd5b505af115801562002cbb573d6000803e3d6000fd5b505050505b62002ce0565b60405162461bcd60e51b8152600401620005e99062004504565b60c084018051879003905262002cf68462003288565b50825151600090815260116020908152604091829020855180518255820151600182015590850151600282015590840151600382015560608401516004820180546001600160a01b039283166001600160a01b031991821617909155608086015160058401805491909316911617905560a0840151600682015560c0840151600782015560e084015160088201556101008401516009820155610120840151600a820155610140840151600b820155610160840151600c90910155620007bd565b600062002dcd846001600160a01b0316620037a1565b62002ddb5750600162002e93565b606062002e6163150b7a0260e01b3388878760405160240162002e02949392919062004146565b604051602081830303815290604052906001600160e01b0319166020820180516001600160e01b03838183161783525050505060405180606001604052806032815260200162005a9b603291396001600160a01b0388169190620037a7565b905060008180602001905181019062002e7b919062003ea8565b6001600160e01b031916630a85bd0160e11b14925050505b949350505050565b6000620010a683836040518060400160405280601e81526020017f536166654d6174683a207375627472616374696f6e206f766572666c6f770000815250620037b8565b62002ee962003acb565b506040805160a08101825260008082526020820181905291810182905260608101829052608081019190915260c080840151908301516101408501511580159062002f38575042856101400151105b1562002f4657600160208401525b600084610140015111801562002f60575042846101400151105b1562002f6e57600160408401525b8361010001518561010001511015801562002f995750602083015115801562002f9957506040830151155b1562003011578082141562002fbb5762002fb5838686620037e7565b6200300b565b808211801562002fd057506001856040015114155b1562002fe35762002fb58386866200381f565b808210801562002ff857506001846040015114155b156200300b576200300b8386866200385c565b62003094565b600484604001511480156200302857506040830151155b1562003094578082141562003044576200300b838686620037e7565b80821180156200305957506001856040015114155b156200306c576200300b8386866200381f565b80821080156200308157506001846040015114155b156200309457620030948386866200385c565b8360116000866000015160000151815260200190815260200160002060008201518160000160008201518160000155602082015181600101555050602082015181600201556040820151816003015560608201518160040160006101000a8154816001600160a01b0302191690836001600160a01b0316021790555060808201518160050160006101000a8154816001600160a01b0302191690836001600160a01b0316021790555060a0820151816006015560c0820151816007015560e08201518160080155610100820151816009015561012082015181600a015561014082015181600b015561016082015181600c01559050508460116000876000015160000151815260200190815260200160002060008201518160000160008201518160000155602082015181600101555050602082015181600201556040820151816003015560608201518160040160006101000a8154816001600160a01b0302191690836001600160a01b0316021790555060808201518160050160006101000a8154816001600160a01b0302191690836001600160a01b0316021790555060a0820151816006015560c0820151816007015560e08201518160080155610100820151816009015561012082015181600a015561014082015181600b015561016082015181600c0155905050505092915050565b6200329262003ab4565b50805160408051808201909152600e81526d50454e44494e475f4f524445525360901b60209182015260008051602062005acd8339815191526000526012905260008051602062005aed83398151915254620032ef57506200279b565b60408051808201909152600e81526d50454e44494e475f4f524445525360901b60209182015260008051602062005acd8339815191526000526012905260008051602062005aed8339815191525460011415620033c25760408051808201909152600e81526d50454e44494e475f4f524445525360901b60209182015260008051602062005acd8339815191526000526012905260008051602062005aed8339815191528054806200339d57fe5b600082815260208120600260001990930192830201818155600101559055506200279b565b60408051808201909152600e81526d50454e44494e475f4f524445525360901b60209182015260008051602062005acd8339815191526000908152601290915260008051602062005aed833981519152546200342090600162002e9b565b604080518082018252600e81526d50454e44494e475f4f524445525360901b60209182015260008051602062005acd83398151915260009081526012909152905163191ee78360e01b81529192509073__$61254895f40d540a080027067221400677$__9063191ee78390620034b09060008051602062005aed833981519152908590879089906004016200422b565b60206040518083038186803b158015620034c957600080fd5b505af4158015620034de573d6000803e3d6000fd5b505050506040513d601f19601f8201168201806040525081019062003504919062003ec7565b9050600081126200368057805b82811015620036095760408051808201909152600e81526d50454e44494e475f4f524445525360901b60209182015260008051602062005acd8339815191526000526012905260008051602062005aed8339815191528054600183019081106200357757fe5b6000918252602080832060408051808201909152600e81526d50454e44494e475f4f524445525360901b9083015260008051602062005acd8339815191529093526012905260008051602062005aed83398151915280546002909202909201919083908110620035e357fe5b600091825260209091208254600290920201908155600191820154908201550162003511565b5060408051808201909152600e81526d50454e44494e475f4f524445525360901b60209182015260008051602062005acd8339815191526000526012905260008051602062005aed8339815191528054806200366157fe5b6000828152602081206002600019909301928302018181556001015590555b604080518082018252600e81526d4d4154434845445f4f524445525360901b6020918201527fadaaca5c8c3f56bf72f89abb1ed95701d44c650c5e04cf89df361454308f6f7560009081526012825286517f92d0a53f538622bca91c42e630f2f4e0fec4e1b11a94d6186ab25384d5937ec78054600180820183559190935281517fe2d9790a678e3b0673838eafa73d02e4a0231dbd47e14efb927ab4dd28257ad76002909402938401559201517fe2d9790a678e3b0673838eafa73d02e4a0231dbd47e14efb927ab4dd28257ad890910155610120860181905285515160c087015192517fa92256317007b464ac01a5c18945adaf2e60f51e49405f69820066f35c1ff63d93620037939391620042ac565b60405180910390a150505050565b3b151590565b606062002e93848460008562003899565b60008184841115620037df5760405162461bcd60e51b8152600401620005e991906200431b565b505050900390565b60c08083018051606086015290820180516080860152600185526000908190529052620038148262003288565b6200069c8162003288565b60c080820180516060860152805160808601525190830151620038429162002e9b565b60c0808401919091526000908201526200069c8162003288565b60c0808301805160608601528051608086015251908201516200387f9162002e9b565b60c0808301919091526000908301526200069c8262003288565b606082471015620038be5760405162461bcd60e51b8152600401620005e99062004461565b620038c985620037a1565b620038e85760405162461bcd60e51b8152600401620005e99062004624565b60006060866001600160a01b0316858760405162003907919062004114565b60006040518083038185875af1925050503d806000811462003946576040519150601f19603f3d011682016040523d82523d6000602084013e6200394b565b606091505b50915091506200395d82828662003968565b979650505050505050565b6060831562003979575081620010a6565b8251156200398a5782518084602001fd5b8160405162461bcd60e51b8152600401620005e991906200431b565b604051806101800160405280620039bc62003ab4565b8152602001600081526020016000815260200160006001600160a01b0316815260200160006001600160a01b03168152602001600081526020016000815260200160008152602001600081526020016000815260200160008152602001600081525090565b828054600181600116156101000203166002900490600052602060002090601f016020900481019282601f1062003a645782800160ff1982351617855562003a94565b8280016001018555821562003a94579182015b8281111562003a9457823582559160200191906001019062003a77565b5062003aa292915062003af9565b5090565b61119f80620048fc83390190565b604080518082019091526000808252602082015290565b6040805160a08101825260008082526020820181905291810182905260608101829052608081019190915290565b5b8082111562003aa2576000815560010162003afa565b80516200051281620048bf565b60008083601f84011262003b2f578182fd5b50813567ffffffffffffffff81111562003b47578182fd5b60208301915083602082850101111562003b6057600080fd5b9250929050565b600082601f83011262003b78578081fd5b815162003b8f62003b89826200486b565b62004843565b915080825283602082850101111562003ba757600080fd5b62003bba81602084016020860162004890565b5092915050565b60006020828403121562003bd3578081fd5b8135620010a681620048bf565b6000806040838503121562003bf3578081fd5b823562003c0081620048bf565b9150602083013562003c1281620048bf565b809150509250929050565b60008060006060848603121562003c32578081fd5b833562003c3f81620048bf565b9250602084013562003c5181620048bf565b929592945050506040919091013590565b6000806000806080858703121562003c78578081fd5b843562003c8581620048bf565b9350602085013562003c9781620048bf565b925060408501359150606085013567ffffffffffffffff81111562003cba578182fd5b8501601f8101871362003ccb578182fd5b803562003cdc62003b89826200486b565b81815288602083850101111562003cf1578384fd5b81602084016020830137908101602001929092525092959194509250565b6000806040838503121562003d22578182fd5b823562003d2f81620048bf565b9150602083013562003c1281620048d5565b6000806040838503121562003d54578182fd5b823562003d6181620048bf565b946020939093013593505050565b6000602080838503121562003d82578182fd5b825167ffffffffffffffff8082111562003d9a578384fd5b818501915085601f83011262003dae578384fd5b81518181111562003dbd578485fd5b838102915062003dcf84830162004843565b8181528481019084860184860187018a101562003dea578788fd5b8795505b8386101562003e185762003e038a8262003b10565b83526001959095019491860191860162003dee565b5098975050505050505050565b60006020828403121562003e37578081fd5b8151620010a681620048d5565b60006020828403121562003e56578081fd5b5035919050565b60008060006060848603121562003e72578283fd5b505081359360208301359350604090920135919050565b60006020828403121562003e9b578081fd5b8135620010a681620048e4565b60006020828403121562003eba578081fd5b8151620010a681620048e4565b60006020828403121562003ed9578081fd5b5051919050565b6000806040838503121562003ef3578182fd5b82359150602083013562003c1281620048bf565b600080600080600080600080610100898b03121562003f24578586fd5b88519750602089015162003f3881620048bf565b60408a015190975062003f4b81620048bf565b60608a015190965067ffffffffffffffff8082111562003f69578586fd5b62003f778c838d0162003b67565b965060808b015191508082111562003f8d578586fd5b5062003f9c8b828c0162003b67565b94505060a0890151925060c0890151915060e089015162003fbd81620048bf565b809150509295985092959890939650565b60008060008060008060008060c0898b03121562003fea578182fd5b88359750602089013567ffffffffffffffff8082111562004009578384fd5b620040178c838d0162003b1d565b909950975060408b0135965060608b0135955060808b013591506200403c82620048bf565b90935060a08a0135908082111562004052578384fd5b50620040618b828c0162003b1d565b999c989b5096995094979396929594505050565b600080600080600080600080610100898b03121562004092578182fd5b505086359860208801359850604088013597606081013597506080810135965060a0810135955060c0810135945060e0013592509050565b6001600160a01b03169052565b60008151808452620040f181602086016020860162004890565b601f01601f19169290920160200192915050565b80518252602090810151910152565b600082516200412881846020870162004890565b9190910192915050565b6001600160a01b0391909116815260200190565b6001600160a01b03858116825284166020820152604081018390526080606082018190526000906200417b90830184620040d7565b9695505050505050565b6001600160a01b0392831681529116602082015260400190565b6001600160a01b039384168152919092166020820152604081019190915260600190565b6001600160a01b03929092168252602082015260400190565b6020808252825182820181905260009190848201906040850190845b818110156200421f5783516001600160a01b031683529284019291840191600101620041f8565b50909695505050505050565b600060a0820160a0835280875480835260c08501915088845260209250828420845b8281101562004277578154845260018083015486860152604090940193600290920191016200424d565b50505090830186905260408301859052905062004298606083018462004105565b95945050505050565b901515815260200190565b9283526020830191909152604082015260600190565b600060a082528660a0830152868860c084013760c087830181019190915260208201959095526001600160a01b0393909316604084015260ff9190911660608301526080820152601f909201601f191690910101919050565b600060208252620010a66020830184620040d7565b602080825260029082015261544d60f01b604082015260600190565b602080825260029082015261534b60f01b604082015260600190565b60208082526032908201527f4552433732313a207472616e7366657220746f206e6f6e20455243373231526560408201527131b2b4bb32b91034b6b83632b6b2b73a32b960711b606082015260800190565b602080825260029082015261232760f11b604082015260600190565b6020808252601b908201527f536166654d6174683a206164646974696f6e206f766572666c6f770000000000604082015260600190565b60208082526019908201527f4552433732313a20617070726f766520746f2063616c6c657200000000000000604082015260600190565b60208082526003908201526253415360e81b604082015260600190565b60208082526026908201527f416464726573733a20696e73756666696369656e742062616c616e636520666f6040820152651c8818d85b1b60d21b606082015260800190565b60208082526038908201527f4552433732313a20617070726f76652063616c6c6572206973206e6f74206f7760408201527f6e6572206e6f7220617070726f76656420666f7220616c6c0000000000000000606082015260800190565b6020808252600190820152602760f91b604082015260600190565b6020808252600190820152601360fa1b604082015260600190565b60208082526021908201527f536166654d6174683a206d756c7469706c69636174696f6e206f766572666c6f6040820152607760f81b606082015260800190565b6020808252602c908201527f4552433732313a20617070726f76656420717565727920666f72206e6f6e657860408201526b34b9ba32b73a103a37b5b2b760a11b606082015260800190565b60208082526021908201527f4552433732313a20617070726f76616c20746f2063757272656e74206f776e656040820152603960f91b606082015260800190565b6020808252600290820152614e4160f01b604082015260600190565b6020808252601d908201527f416464726573733a2063616c6c20746f206e6f6e2d636f6e7472616374000000604082015260600190565b602080825260149082015273151bdad95b88105b1c9958591e48135a5b9d195960621b604082015260600190565b60208082526002908201526127a360f11b604082015260600190565b6020808252600290820152614e4560f01b604082015260600190565b602080825260049082015263534d424960e01b604082015260600190565b60006101a082019050620046f582845162004105565b602083015160408301526040830151606083015260608301516200471d6080840182620040ca565b5060808301516200473260a0840182620040ca565b5060a083015160c08381019190915283015160e08084019190915283015161010080840191909152830151610120808401919091528301516101408084019190915283015161016080840191909152909201516101809091015290565b90815260200190565b9182526001600160a01b0316602082015260400190565b9384526001600160a01b03928316602085015291166040830152606082015260800190565b8881526001600160a01b0388811660208301528781166040830152610100606083018190526000916200480a8483018a620040d7565b91508382036080850152620048208289620040d7565b60a085019790975260c08401959095525050911660e09091015295945050505050565b60405181810167ffffffffffffffff811182821017156200486357600080fd5b604052919050565b600067ffffffffffffffff82111562004882578081fd5b50601f01601f191660200190565b60005b83811015620048ad57818101518382015260200162004893565b8381111562000ea35750506000910152565b6001600160a01b03811681146200279b57600080fd5b80151581146200279b57600080fd5b6001600160e01b0319811681146200279b57600080fdfe60806040523480156200001157600080fd5b506040516200119f3803806200119f83398101604081905262000034916200021f565b600280546001600160a01b03191633179055600084905584516200006090600790602088019062000159565b50600180546001600160a01b0319166001600160a01b0385161790556008805460ff191660ff8416179055600554620000a690826200011f602090811b6200098c17901c565b6005556001600160a01b038316600090815260036020908152604090912054620000db9183906200098c6200011f821b17901c565b6001600160a01b0393841660009081526003602090815260408083209390935560048152828220600254909616825294909452909220919091555062000381915050565b600082820183811015620001505760405162461bcd60e51b81526004016200014790620002f0565b60405180910390fd5b90505b92915050565b828054600181600116156101000203166002900490600052602060002090601f016020900481019282601f106200019c57805160ff1916838001178555620001cc565b82800160010185558215620001cc579182015b82811115620001cc578251825591602001919060010190620001af565b50620001da929150620001de565b5090565b5b80821115620001da5760008155600101620001df565b80516001600160a01b03811681146200015357600080fd5b805160ff811681146200015357600080fd5b600080600080600060a0868803121562000237578081fd5b85516001600160401b03808211156200024e578283fd5b818801915088601f83011262000262578283fd5b81518181111562000271578384fd5b62000286601f8201601f191660200162000327565b91508082528960208285010111156200029d578384fd5b620002b08160208401602086016200034e565b50809650505060208601519350620002cc8760408801620001f5565b9250620002dd87606088016200020d565b9150608086015190509295509295909350565b6020808252601b908201527f536166654d6174683a206164646974696f6e206f766572666c6f770000000000604082015260600190565b6040518181016001600160401b03811182821017156200034657600080fd5b604052919050565b60005b838110156200036b57818101518382015260200162000351565b838111156200037b576000848401525b50505050565b610e0e80620003916000396000f3fe608060405234801561001057600080fd5b50600436106100ea5760003560e01c806370a082311161008c578063a71b642611610066578063a71b6426146101c2578063a9059cbb146101ca578063dd62ed3e146101dd578063f9b7958a146101f0576100ea565b806370a082311461019457806379c65068146101a757806395d89b41146101ba576100ea565b80631d143848116100c85780631d1438481461014257806323b872dd14610157578063313ce5671461016a5780636c6f31f21461017f576100ea565b806306fdde03146100ef578063095ea7b31461010d57806318160ddd1461012d575b600080fd5b6100f7610217565b6040516101049190610b41565b60405180910390f35b61012061011b366004610a8a565b6102ad565b6040516101049190610b36565b6101356103a0565b6040516101049190610cf0565b61014a6103a6565b6040516101049190610b22565b610120610165366004610a4a565b6103b5565b6101726105dc565b6040516101049190610d64565b61019261018d366004610a8a565b6105e5565b005b6101356101a23660046109fb565b6106c2565b6101926101b5366004610a8a565b6106dd565b6100f76107a1565b610135610802565b6101206101d8366004610a8a565b610808565b6101356101eb366004610a16565b61090c565b6102036101fe366004610ab4565b610937565b604051610104989796959493929190610cf9565b60068054604080516020601f60026000196101006001881615020190951694909404938401819004810282018101909252828152606093909290918301828280156102a35780601f10610278576101008083540402835291602001916102a3565b820191906000526020600020905b81548152906001019060200180831161028657829003601f168201915b5050505050905090565b600033806102d65760405162461bcd60e51b81526004016102cd90610c55565b60405180910390fd5b6001600160a01b0384166102fc5760405162461bcd60e51b81526004016102cd90610b97565b6001600160a01b0380821660009081526004602090815260408083209388168352929052205461032c908461098c565b6001600160a01b038083166000818152600460209081526040808320948a1680845294909152908190209390935591519091907f8c5be1e5ebec7d5bd14f71427d1e84f3dd0314c0f7b2291e5b200ac8c7c3b9259061038c908790610cf0565b60405180910390a360019150505b92915050565b60055490565b6001546001600160a01b031690565b60006001600160a01b0384166103dd5760405162461bcd60e51b81526004016102cd90610c10565b6001600160a01b0383166104035760405162461bcd60e51b81526004016102cd90610b54565b61044082604051806060016040528060268152602001610d8b602691396001600160a01b03871660009081526003602052604090205491906109b8565b6001600160a01b03808616600090815260036020526040808220939093559085168152205461046f908361098c565b6001600160a01b0380851660008181526003602052604090819020939093559151908616907fddf252ad1be2c89b69c2b068fc378daa952ba7f163c4a11628f55a4df523b3ef906104c1908690610cf0565b60405180910390a360025484906001600160a01b039081169082166104f85760405162461bcd60e51b81526004016102cd90610c55565b6001600160a01b03811661051e5760405162461bcd60e51b81526004016102cd90610b97565b61056884604051806060016040528060288152602001610db1602891396001600160a01b03808a1660009081526004602090815260408083209388168352929052205491906109b8565b6001600160a01b03808416600081815260046020908152604080832094871680845294909152908190209390935591519091907f8c5be1e5ebec7d5bd14f71427d1e84f3dd0314c0f7b2291e5b200ac8c7c3b925906105c8908890610cf0565b60405180910390a350600195945050505050565b60085460ff1690565b6002546001600160a01b0316331461060f5760405162461bcd60e51b81526004016102cd90610c99565b6002546001600160a01b0390811690831661063c5760405162461bcd60e51b81526004016102cd90610c55565b6001600160a01b0381166106625760405162461bcd60e51b81526004016102cd90610b97565b6001600160a01b03808416600090815260046020908152604080832093851683529290522054610692908361098c565b6001600160a01b039384166000908152600460209081526040808320949096168252929092529290209190915550565b6001600160a01b031660009081526003602052604090205490565b6002546001600160a01b031633146107075760405162461bcd60e51b81526004016102cd90610c99565b6001600160a01b03821661072d5760405162461bcd60e51b81526004016102cd90610cb9565b60055461073a908261098c565b6005556001600160a01b038216600090815260036020526040902054610760908261098c565b6001600160a01b038084166000908152600360209081526040808320949094556002546004825284832093168083529290529190912054610692908361098c565b60078054604080516020601f60026000196101006001881615020190951694909404938401819004810282018101909252828152606093909290918301828280156102a35780601f10610278576101008083540402835291602001916102a3565b60005490565b600033806108285760405162461bcd60e51b81526004016102cd90610c10565b6001600160a01b03841661084e5760405162461bcd60e51b81526004016102cd90610b54565b61088b83604051806060016040528060268152602001610d8b602691396001600160a01b03841660009081526003602052604090205491906109b8565b6001600160a01b0380831660009081526003602052604080822093909355908616815220546108ba908461098c565b6001600160a01b0380861660008181526003602052604090819020939093559151908316907fddf252ad1be2c89b69c2b068fc378daa952ba7f163c4a11628f55a4df523b3ef9061038c908790610cf0565b6001600160a01b03918216600090815260046020908152604080832093909416825291909152205490565b6000806000606080600080600089893061094f610217565b6109576107a1565b61095f6103a0565b610967610802565b61096f6103a6565b975097509750975097509750975097509295985092959890939650565b6000828201838110156109b15760405162461bcd60e51b81526004016102cd90610bd9565b9392505050565b600081848411156109dc5760405162461bcd60e51b81526004016102cd9190610b41565b505050900390565b80356001600160a01b038116811461039a57600080fd5b600060208284031215610a0c578081fd5b6109b183836109e4565b60008060408385031215610a28578081fd5b610a3284846109e4565b9150610a4184602085016109e4565b90509250929050565b600080600060608486031215610a5e578081fd5b8335610a6981610d72565b92506020840135610a7981610d72565b929592945050506040919091013590565b60008060408385031215610a9c578182fd5b610aa684846109e4565b946020939093013593505050565b60008060408385031215610ac6578182fd5b82359150610a4184602085016109e4565b60008151808452815b81811015610afc57602081850181015186830182015201610ae0565b81811115610b0d5782602083870101525b50601f01601f19169290920160200192915050565b6001600160a01b0391909116815260200190565b901515815260200190565b6000602082526109b16020830184610ad7565b60208082526023908201527f45524332303a207472616e7366657220746f20746865207a65726f206164647260408201526265737360e81b606082015260800190565b60208082526022908201527f45524332303a20617070726f766520746f20746865207a65726f206164647265604082015261737360f01b606082015260800190565b6020808252601b908201527f536166654d6174683a206164646974696f6e206f766572666c6f770000000000604082015260600190565b60208082526025908201527f45524332303a207472616e736665722066726f6d20746865207a65726f206164604082015264647265737360d81b606082015260800190565b60208082526024908201527f45524332303a20617070726f76652066726f6d20746865207a65726f206164646040820152637265737360e01b606082015260800190565b60208082526006908201526526a120a6ab1960d11b604082015260600190565b6020808252601f908201527f45524332303a206d696e7420746f20746865207a65726f206164647265737300604082015260600190565b90815260200190565b8881526001600160a01b038881166020830152878116604083015261010060608301819052600091610d2d8483018a610ad7565b91508382036080850152610d418289610ad7565b60a085019790975260c08401959095525050911660e09091015295945050505050565b60ff91909116815260200190565b6001600160a01b0381168114610d8757600080fd5b5056fe45524332303a207472616e7366657220616d6f756e7420657863656564732062616c616e636545524332303a207472616e7366657220616d6f756e74206578636565647320616c6c6f77616e6365a2646970667358221220536968347214707446161f4225066cc37d1b1cae3aa319384ec0dbf984986ee264736f6c634300060c00334552433732313a207472616e7366657220746f206e6f6e20455243373231526563656976657220696d706c656d656e746572e4ebe61b5154be65502ffd10f19bbd557c590ef2ce56d0959d42d567662e4e7f6727b66909e21e3d4259bec112189fa790cf6b1c961b369e562302ae5ea6128ca26469706673582212203ffd76bcc61fa25eecf724b3d1aca9117d8ecbd5d01c30bcce48f9c358dde5e164736f6c634300060c003360806040523480156200001157600080fd5b506040516200119f3803806200119f83398101604081905262000034916200021f565b600280546001600160a01b03191633179055600084905584516200006090600790602088019062000159565b50600180546001600160a01b0319166001600160a01b0385161790556008805460ff191660ff8416179055600554620000a690826200011f602090811b6200098c17901c565b6005556001600160a01b038316600090815260036020908152604090912054620000db9183906200098c6200011f821b17901c565b6001600160a01b0393841660009081526003602090815260408083209390935560048152828220600254909616825294909452909220919091555062000381915050565b600082820183811015620001505760405162461bcd60e51b81526004016200014790620002f0565b60405180910390fd5b90505b92915050565b828054600181600116156101000203166002900490600052602060002090601f016020900481019282601f106200019c57805160ff1916838001178555620001cc565b82800160010185558215620001cc579182015b82811115620001cc578251825591602001919060010190620001af565b50620001da929150620001de565b5090565b5b80821115620001da5760008155600101620001df565b80516001600160a01b03811681146200015357600080fd5b805160ff811681146200015357600080fd5b600080600080600060a0868803121562000237578081fd5b85516001600160401b03808211156200024e578283fd5b818801915088601f83011262000262578283fd5b81518181111562000271578384fd5b62000286601f8201601f191660200162000327565b91508082528960208285010111156200029d578384fd5b620002b08160208401602086016200034e565b50809650505060208601519350620002cc8760408801620001f5565b9250620002dd87606088016200020d565b9150608086015190509295509295909350565b6020808252601b908201527f536166654d6174683a206164646974696f6e206f766572666c6f770000000000604082015260600190565b6040518181016001600160401b03811182821017156200034657600080fd5b604052919050565b60005b838110156200036b57818101518382015260200162000351565b838111156200037b576000848401525b50505050565b610e0e80620003916000396000f3fe608060405234801561001057600080fd5b50600436106100ea5760003560e01c806370a082311161008c578063a71b642611610066578063a71b6426146101c2578063a9059cbb146101ca578063dd62ed3e146101dd578063f9b7958a146101f0576100ea565b806370a082311461019457806379c65068146101a757806395d89b41146101ba576100ea565b80631d143848116100c85780631d1438481461014257806323b872dd14610157578063313ce5671461016a5780636c6f31f21461017f576100ea565b806306fdde03146100ef578063095ea7b31461010d57806318160ddd1461012d575b600080fd5b6100f7610217565b6040516101049190610b41565b60405180910390f35b61012061011b366004610a8a565b6102ad565b6040516101049190610b36565b6101356103a0565b6040516101049190610cf0565b61014a6103a6565b6040516101049190610b22565b610120610165366004610a4a565b6103b5565b6101726105dc565b6040516101049190610d64565b61019261018d366004610a8a565b6105e5565b005b6101356101a23660046109fb565b6106c2565b6101926101b5366004610a8a565b6106dd565b6100f76107a1565b610135610802565b6101206101d8366004610a8a565b610808565b6101356101eb366004610a16565b61090c565b6102036101fe366004610ab4565b610937565b604051610104989796959493929190610cf9565b60068054604080516020601f60026000196101006001881615020190951694909404938401819004810282018101909252828152606093909290918301828280156102a35780601f10610278576101008083540402835291602001916102a3565b820191906000526020600020905b81548152906001019060200180831161028657829003601f168201915b5050505050905090565b600033806102d65760405162461bcd60e51b81526004016102cd90610c55565b60405180910390fd5b6001600160a01b0384166102fc5760405162461bcd60e51b81526004016102cd90610b97565b6001600160a01b0380821660009081526004602090815260408083209388168352929052205461032c908461098c565b6001600160a01b038083166000818152600460209081526040808320948a1680845294909152908190209390935591519091907f8c5be1e5ebec7d5bd14f71427d1e84f3dd0314c0f7b2291e5b200ac8c7c3b9259061038c908790610cf0565b60405180910390a360019150505b92915050565b60055490565b6001546001600160a01b031690565b60006001600160a01b0384166103dd5760405162461bcd60e51b81526004016102cd90610c10565b6001600160a01b0383166104035760405162461bcd60e51b81526004016102cd90610b54565b61044082604051806060016040528060268152602001610d8b602691396001600160a01b03871660009081526003602052604090205491906109b8565b6001600160a01b03808616600090815260036020526040808220939093559085168152205461046f908361098c565b6001600160a01b0380851660008181526003602052604090819020939093559151908616907fddf252ad1be2c89b69c2b068fc378daa952ba7f163c4a11628f55a4df523b3ef906104c1908690610cf0565b60405180910390a360025484906001600160a01b039081169082166104f85760405162461bcd60e51b81526004016102cd90610c55565b6001600160a01b03811661051e5760405162461bcd60e51b81526004016102cd90610b97565b61056884604051806060016040528060288152602001610db1602891396001600160a01b03808a1660009081526004602090815260408083209388168352929052205491906109b8565b6001600160a01b03808416600081815260046020908152604080832094871680845294909152908190209390935591519091907f8c5be1e5ebec7d5bd14f71427d1e84f3dd0314c0f7b2291e5b200ac8c7c3b925906105c8908890610cf0565b60405180910390a350600195945050505050565b60085460ff1690565b6002546001600160a01b0316331461060f5760405162461bcd60e51b81526004016102cd90610c99565b6002546001600160a01b0390811690831661063c5760405162461bcd60e51b81526004016102cd90610c55565b6001600160a01b0381166106625760405162461bcd60e51b81526004016102cd90610b97565b6001600160a01b03808416600090815260046020908152604080832093851683529290522054610692908361098c565b6001600160a01b039384166000908152600460209081526040808320949096168252929092529290209190915550565b6001600160a01b031660009081526003602052604090205490565b6002546001600160a01b031633146107075760405162461bcd60e51b81526004016102cd90610c99565b6001600160a01b03821661072d5760405162461bcd60e51b81526004016102cd90610cb9565b60055461073a908261098c565b6005556001600160a01b038216600090815260036020526040902054610760908261098c565b6001600160a01b038084166000908152600360209081526040808320949094556002546004825284832093168083529290529190912054610692908361098c565b60078054604080516020601f60026000196101006001881615020190951694909404938401819004810282018101909252828152606093909290918301828280156102a35780601f10610278576101008083540402835291602001916102a3565b60005490565b600033806108285760405162461bcd60e51b81526004016102cd90610c10565b6001600160a01b03841661084e5760405162461bcd60e51b81526004016102cd90610b54565b61088b83604051806060016040528060268152602001610d8b602691396001600160a01b03841660009081526003602052604090205491906109b8565b6001600160a01b0380831660009081526003602052604080822093909355908616815220546108ba908461098c565b6001600160a01b0380861660008181526003602052604090819020939093559151908316907fddf252ad1be2c89b69c2b068fc378daa952ba7f163c4a11628f55a4df523b3ef9061038c908790610cf0565b6001600160a01b03918216600090815260046020908152604080832093909416825291909152205490565b6000806000606080600080600089893061094f610217565b6109576107a1565b61095f6103a0565b610967610802565b61096f6103a6565b975097509750975097509750975097509295985092959890939650565b6000828201838110156109b15760405162461bcd60e51b81526004016102cd90610bd9565b9392505050565b600081848411156109dc5760405162461bcd60e51b81526004016102cd9190610b41565b505050900390565b80356001600160a01b038116811461039a57600080fd5b600060208284031215610a0c578081fd5b6109b183836109e4565b60008060408385031215610a28578081fd5b610a3284846109e4565b9150610a4184602085016109e4565b90509250929050565b600080600060608486031215610a5e578081fd5b8335610a6981610d72565b92506020840135610a7981610d72565b929592945050506040919091013590565b60008060408385031215610a9c578182fd5b610aa684846109e4565b946020939093013593505050565b60008060408385031215610ac6578182fd5b82359150610a4184602085016109e4565b60008151808452815b81811015610afc57602081850181015186830182015201610ae0565b81811115610b0d5782602083870101525b50601f01601f19169290920160200192915050565b6001600160a01b0391909116815260200190565b901515815260200190565b6000602082526109b16020830184610ad7565b60208082526023908201527f45524332303a207472616e7366657220746f20746865207a65726f206164647260408201526265737360e81b606082015260800190565b60208082526022908201527f45524332303a20617070726f766520746f20746865207a65726f206164647265604082015261737360f01b606082015260800190565b6020808252601b908201527f536166654d6174683a206164646974696f6e206f766572666c6f770000000000604082015260600190565b60208082526025908201527f45524332303a207472616e736665722066726f6d20746865207a65726f206164604082015264647265737360d81b606082015260800190565b60208082526024908201527f45524332303a20617070726f76652066726f6d20746865207a65726f206164646040820152637265737360e01b606082015260800190565b60208082526006908201526526a120a6ab1960d11b604082015260600190565b6020808252601f908201527f45524332303a206d696e7420746f20746865207a65726f206164647265737300604082015260600190565b90815260200190565b8881526001600160a01b038881166020830152878116604083015261010060608301819052600091610d2d8483018a610ad7565b91508382036080850152610d418289610ad7565b60a085019790975260c08401959095525050911660e09091015295945050505050565b60ff91909116815260200190565b6001600160a01b0381168114610d8757600080fd5b5056fe45524332303a207472616e7366657220616d6f756e7420657863656564732062616c616e636545524332303a207472616e7366657220616d6f756e74206578636565647320616c6c6f77616e6365a2646970667358221220536968347214707446161f4225066cc37d1b1cae3aa319384ec0dbf984986ee264736f6c634300060c0033608060405234801561001057600080fd5b506040516103b63803806103b68339818101604052602081101561003357600080fd5b50516001600160a01b038116610076576040805162461bcd60e51b81526020600482015260036024820152622b20a760e91b604482015290519081900360640190fd5b600080546001600160a01b039092166001600160a01b0319909216919091179055610310806100a66000396000f3fe608060405234801561001057600080fd5b506004361061004c5760003560e01c80630afc7bf41461005157806320000b591461008f578063e5c66bbd146100cd578063f2aa8218146100f9575b600080fd5b61008d6004803603608081101561006757600080fd5b508035906001600160a01b03602082013581169160408101359091169060600135610166565b005b6100bb600480360360408110156100a557600080fd5b50803590602001356001600160a01b031661021e565b60408051918252519081900360200190f35b6100bb600480360360408110156100e357600080fd5b50803590602001356001600160a01b0316610246565b6101166004803603602081101561010f57600080fd5b503561026e565b60408051602080825283518183015283519192839290830191858101910280838360005b8381101561015257818101518382015260200161013a565b505050509050019250505060405180910390f35b6000546001600160a01b031633146101ab576040805162461bcd60e51b81526020600482015260036024820152622727a160e91b604482015290519081900360640190fd5b60008481526001602081815260408084206001600160a01b03968716855282528084208054860190558784526002825280842096909516808452958152848320805490940190935594815260038252918220805494850181558252902090910180546001600160a01b0319169091179055565b60009182526002602090815260408084206001600160a01b0393909316845291905290205490565b60009182526001602090815260408084206001600160a01b0393909316845291905290205490565b6000818152600360209081526040918290208054835181840281018401909452808452606093928301828280156102ce57602002820191906000526020600020905b81546001600160a01b031681526001909101906020018083116102b0575b5050505050905091905056fea26469706673582212208a0980eb5b261f125b1958498d628e029359e810aa6e2fdf04ba74f9ea3fc72c64736f6c634300060c0033",
			"opcodes": "PUSH1 0x80 PUSH1 0x40 MSTORE CALLVALUE DUP1 ISZERO PUSH3 0x11 JUMPI PUSH1 0x0 DUP1 REVERT JUMPDEST POP PUSH3 0x24 PUSH4 0x1FFC9A7 PUSH1 0xE0 SHL PUSH3 0x19B JUMP JUMPDEST PUSH1 0x40 DUP1 MLOAD DUP1 DUP3 ADD SWAP1 SWAP2 MSTORE PUSH1 0x10 DUP1 DUP3 MSTORE PUSH16 0x4E5345204172742045786368616E6765 PUSH1 0x80 SHL PUSH1 0x20 SWAP1 SWAP3 ADD SWAP2 DUP3 MSTORE PUSH3 0x5D SWAP2 PUSH1 0x15 SWAP2 PUSH3 0x1F6 JUMP JUMPDEST POP PUSH1 0x40 DUP1 MLOAD DUP1 DUP3 ADD SWAP1 SWAP2 MSTORE PUSH1 0x4 DUP1 DUP3 MSTORE PUSH4 0x82A4A8B PUSH1 0xE3 SHL PUSH1 0x20 SWAP1 SWAP3 ADD SWAP2 DUP3 MSTORE PUSH3 0x8B SWAP2 PUSH1 0x16 SWAP2 PUSH3 0x1F6 JUMP JUMPDEST POP PUSH3 0x9E PUSH4 0x80AC58CD PUSH1 0xE0 SHL PUSH3 0x19B JUMP JUMPDEST PUSH3 0xB0 PUSH4 0x5B5E139F PUSH1 0xE0 SHL PUSH3 0x19B JUMP JUMPDEST PUSH3 0xC2 PUSH4 0x780E9D63 PUSH1 0xE0 SHL PUSH3 0x19B JUMP JUMPDEST PUSH1 0x13 DUP1 SLOAD PUSH1 0x1 PUSH1 0x1 PUSH1 0xA0 SHL SUB NOT AND CALLER SWAP1 DUP2 OR SWAP1 SWAP2 SSTORE PUSH1 0x40 MLOAD PUSH1 0x1 SWAP2 SWAP1 PUSH1 0x0 SWAP1 DUP2 SWAP1 PUSH3 0xEE SWAP1 PUSH3 0x27B JUMP JUMPDEST PUSH3 0xFD SWAP5 SWAP4 SWAP3 SWAP2 SWAP1 PUSH3 0x2F9 JUMP JUMPDEST PUSH1 0x40 MLOAD DUP1 SWAP2 SUB SWAP1 PUSH1 0x0 CREATE DUP1 ISZERO DUP1 ISZERO PUSH3 0x11A JUMPI RETURNDATASIZE PUSH1 0x0 DUP1 RETURNDATACOPY RETURNDATASIZE PUSH1 0x0 REVERT JUMPDEST POP PUSH1 0xF DUP1 SLOAD PUSH1 0x1 PUSH1 0x1 PUSH1 0xA0 SHL SUB NOT AND PUSH1 0x1 PUSH1 0x1 PUSH1 0xA0 SHL SUB SWAP3 SWAP1 SWAP3 AND SWAP2 SWAP1 SWAP2 OR SWAP1 SSTORE PUSH1 0x40 MLOAD ADDRESS SWAP1 PUSH3 0x14B SWAP1 PUSH3 0x289 JUMP JUMPDEST PUSH3 0x157 SWAP2 SWAP1 PUSH3 0x2AE JUMP JUMPDEST PUSH1 0x40 MLOAD DUP1 SWAP2 SUB SWAP1 PUSH1 0x0 CREATE DUP1 ISZERO DUP1 ISZERO PUSH3 0x174 JUMPI RETURNDATASIZE PUSH1 0x0 DUP1 RETURNDATACOPY RETURNDATASIZE PUSH1 0x0 REVERT JUMPDEST POP PUSH1 0x10 DUP1 SLOAD PUSH1 0x1 PUSH1 0x1 PUSH1 0xA0 SHL SUB NOT AND PUSH1 0x1 PUSH1 0x1 PUSH1 0xA0 SHL SUB SWAP3 SWAP1 SWAP3 AND SWAP2 SWAP1 SWAP2 OR SWAP1 SSTORE PUSH3 0x33F JUMP JUMPDEST PUSH1 0x1 PUSH1 0x1 PUSH1 0xE0 SHL SUB NOT DUP1 DUP3 AND EQ ISZERO PUSH3 0x1D1 JUMPI PUSH1 0x40 MLOAD PUSH3 0x461BCD PUSH1 0xE5 SHL DUP2 MSTORE PUSH1 0x4 ADD PUSH3 0x1C8 SWAP1 PUSH3 0x2C2 JUMP JUMPDEST PUSH1 0x40 MLOAD DUP1 SWAP2 SUB SWAP1 REVERT JUMPDEST PUSH1 0x1 PUSH1 0x1 PUSH1 0xE0 SHL SUB NOT AND PUSH1 0x0 SWAP1 DUP2 MSTORE PUSH1 0x20 DUP2 SWAP1 MSTORE PUSH1 0x40 SWAP1 KECCAK256 DUP1 SLOAD PUSH1 0xFF NOT AND PUSH1 0x1 OR SWAP1 SSTORE JUMP JUMPDEST DUP3 DUP1 SLOAD PUSH1 0x1 DUP2 PUSH1 0x1 AND ISZERO PUSH2 0x100 MUL SUB AND PUSH1 0x2 SWAP1 DIV SWAP1 PUSH1 0x0 MSTORE PUSH1 0x20 PUSH1 0x0 KECCAK256 SWAP1 PUSH1 0x1F ADD PUSH1 0x20 SWAP1 DIV DUP2 ADD SWAP3 DUP3 PUSH1 0x1F LT PUSH3 0x239 JUMPI DUP1 MLOAD PUSH1 0xFF NOT AND DUP4 DUP1 ADD OR DUP6 SSTORE PUSH3 0x269 JUMP JUMPDEST DUP3 DUP1 ADD PUSH1 0x1 ADD DUP6 SSTORE DUP3 ISZERO PUSH3 0x269 JUMPI SWAP2 DUP3 ADD JUMPDEST DUP3 DUP2 GT ISZERO PUSH3 0x269 JUMPI DUP3 MLOAD DUP3 SSTORE SWAP2 PUSH1 0x20 ADD SWAP2 SWAP1 PUSH1 0x1 ADD SWAP1 PUSH3 0x24C JUMP JUMPDEST POP PUSH3 0x277 SWAP3 SWAP2 POP PUSH3 0x297 JUMP JUMPDEST POP SWAP1 JUMP JUMPDEST PUSH2 0x119F DUP1 PUSH3 0x5E91 DUP4 CODECOPY ADD SWAP1 JUMP JUMPDEST PUSH2 0x3B6 DUP1 PUSH3 0x7030 DUP4 CODECOPY ADD SWAP1 JUMP JUMPDEST JUMPDEST DUP1 DUP3 GT ISZERO PUSH3 0x277 JUMPI PUSH1 0x0 DUP2 SSTORE PUSH1 0x1 ADD PUSH3 0x298 JUMP JUMPDEST PUSH1 0x1 PUSH1 0x1 PUSH1 0xA0 SHL SUB SWAP2 SWAP1 SWAP2 AND DUP2 MSTORE PUSH1 0x20 ADD SWAP1 JUMP JUMPDEST PUSH1 0x20 DUP1 DUP3 MSTORE PUSH1 0x1C SWAP1 DUP3 ADD MSTORE PUSH32 0x4552433136353A20696E76616C696420696E7465726661636520696400000000 PUSH1 0x40 DUP3 ADD MSTORE PUSH1 0x60 ADD SWAP1 JUMP JUMPDEST PUSH1 0xA0 DUP1 DUP3 MSTORE PUSH1 0x6 SWAP1 DUP3 ADD MSTORE PUSH6 0x15D053131155 PUSH1 0xD2 SHL PUSH1 0xC0 DUP3 ADD MSTORE PUSH1 0x20 DUP2 ADD SWAP5 SWAP1 SWAP5 MSTORE PUSH1 0x1 PUSH1 0x1 PUSH1 0xA0 SHL SUB SWAP3 SWAP1 SWAP3 AND PUSH1 0x40 DUP5 ADD MSTORE PUSH1 0xFF AND PUSH1 0x60 DUP4 ADD MSTORE PUSH1 0x80 DUP3 ADD MSTORE PUSH1 0xE0 ADD SWAP1 JUMP JUMPDEST PUSH2 0x5B42 DUP1 PUSH3 0x34F PUSH1 0x0 CODECOPY PUSH1 0x0 RETURN INVALID PUSH1 0x80 PUSH1 0x40 MSTORE CALLVALUE DUP1 ISZERO PUSH3 0x11 JUMPI PUSH1 0x0 DUP1 REVERT JUMPDEST POP PUSH1 0x4 CALLDATASIZE LT PUSH3 0x1B4 JUMPI PUSH1 0x0 CALLDATALOAD PUSH1 0xE0 SHR DUP1 PUSH4 0x71DF284D GT PUSH3 0xF3 JUMPI DUP1 PUSH4 0xBB099EE3 GT PUSH3 0xA5 JUMPI DUP1 PUSH4 0xE985E9C5 GT PUSH3 0x7B JUMPI DUP1 PUSH4 0xE985E9C5 EQ PUSH3 0x3FD JUMPI DUP1 PUSH4 0xF1DFAD8F EQ PUSH3 0x414 JUMPI DUP1 PUSH4 0xFC18D034 EQ PUSH3 0x42B JUMPI DUP1 PUSH4 0xFF919450 EQ PUSH3 0x442 JUMPI PUSH3 0x1B4 JUMP JUMPDEST DUP1 PUSH4 0xBB099EE3 EQ PUSH3 0x3B8 JUMPI DUP1 PUSH4 0xC87B56DD EQ PUSH3 0x3CF JUMPI DUP1 PUSH4 0xCF9CD8F8 EQ PUSH3 0x3E6 JUMPI PUSH3 0x1B4 JUMP JUMPDEST DUP1 PUSH4 0x71DF284D EQ PUSH3 0x33B JUMPI DUP1 PUSH4 0x7727B85B EQ PUSH3 0x352 JUMPI DUP1 PUSH4 0x95D89B41 EQ PUSH3 0x369 JUMPI DUP1 PUSH4 0xA22CB465 EQ PUSH3 0x373 JUMPI DUP1 PUSH4 0xB88D4FDE EQ PUSH3 0x38A JUMPI DUP1 PUSH4 0xB9D11E86 EQ PUSH3 0x3A1 JUMPI PUSH3 0x1B4 JUMP JUMPDEST DUP1 PUSH4 0x23B872DD GT PUSH3 0x16B JUMPI DUP1 PUSH4 0x42842E0E GT PUSH3 0x141 JUMPI DUP1 PUSH4 0x42842E0E EQ PUSH3 0x28C JUMPI DUP1 PUSH4 0x5778472A EQ PUSH3 0x2E7 JUMPI DUP1 PUSH4 0x6352211E EQ PUSH3 0x30D JUMPI DUP1 PUSH4 0x70A08231 EQ PUSH3 0x324 JUMPI PUSH3 0x1B4 JUMP JUMPDEST DUP1 PUSH4 0x23B872DD EQ PUSH3 0x28C JUMPI DUP1 PUSH4 0x3563922F EQ PUSH3 0x2A3 JUMPI DUP1 PUSH4 0x3AE64E0C EQ PUSH3 0x2BA JUMPI PUSH3 0x1B4 JUMP JUMPDEST DUP1 PUSH4 0x1FFC9A7 EQ PUSH3 0x1B9 JUMPI DUP1 PUSH4 0x2A1C41D EQ PUSH3 0x1E8 JUMPI DUP1 PUSH4 0x6FDDE03 EQ PUSH3 0x20E JUMPI DUP1 PUSH4 0x81812FC EQ PUSH3 0x227 JUMPI DUP1 PUSH4 0x95EA7B3 EQ PUSH3 0x24D JUMPI DUP1 PUSH4 0x1A3ED275 EQ PUSH3 0x266 JUMPI JUMPDEST PUSH1 0x0 DUP1 REVERT JUMPDEST PUSH3 0x1D0 PUSH3 0x1CA CALLDATASIZE PUSH1 0x4 PUSH3 0x3E89 JUMP JUMPDEST PUSH3 0x459 JUMP JUMPDEST PUSH1 0x40 MLOAD PUSH3 0x1DF SWAP2 SWAP1 PUSH3 0x42A1 JUMP JUMPDEST PUSH1 0x40 MLOAD DUP1 SWAP2 SUB SWAP1 RETURN JUMPDEST PUSH3 0x1FF PUSH3 0x1F9 CALLDATASIZE PUSH1 0x4 PUSH3 0x3EE0 JUMP JUMPDEST PUSH3 0x478 JUMP JUMPDEST PUSH1 0x40 MLOAD PUSH3 0x1DF SWAP2 SWAP1 PUSH3 0x478F JUMP JUMPDEST PUSH3 0x218 PUSH3 0x518 JUMP JUMPDEST PUSH1 0x40 MLOAD PUSH3 0x1DF SWAP2 SWAP1 PUSH3 0x431B JUMP JUMPDEST PUSH3 0x23E PUSH3 0x238 CALLDATASIZE PUSH1 0x4 PUSH3 0x3E44 JUMP JUMPDEST PUSH3 0x5B2 JUMP JUMPDEST PUSH1 0x40 MLOAD PUSH3 0x1DF SWAP2 SWAP1 PUSH3 0x4132 JUMP JUMPDEST PUSH3 0x264 PUSH3 0x25E CALLDATASIZE PUSH1 0x4 PUSH3 0x3D41 JUMP JUMPDEST PUSH3 0x60E JUMP JUMPDEST STOP JUMPDEST PUSH3 0x27D PUSH3 0x277 CALLDATASIZE PUSH1 0x4 PUSH3 0x3E44 JUMP JUMPDEST PUSH3 0x6A1 JUMP JUMPDEST PUSH1 0x40 MLOAD PUSH3 0x1DF SWAP2 SWAP1 PUSH3 0x41DC JUMP JUMPDEST PUSH3 0x264 PUSH3 0x29D CALLDATASIZE PUSH1 0x4 PUSH3 0x3C1D JUMP JUMPDEST PUSH3 0x69C JUMP JUMPDEST PUSH3 0x264 PUSH3 0x2B4 CALLDATASIZE PUSH1 0x4 PUSH3 0x3D41 JUMP JUMPDEST PUSH3 0x72C JUMP JUMPDEST PUSH3 0x2D1 PUSH3 0x2CB CALLDATASIZE PUSH1 0x4 PUSH3 0x3E44 JUMP JUMPDEST PUSH3 0x7C5 JUMP JUMPDEST PUSH1 0x40 MLOAD PUSH3 0x1DF SWAP9 SWAP8 SWAP7 SWAP6 SWAP5 SWAP4 SWAP3 SWAP2 SWAP1 PUSH3 0x47D4 JUMP JUMPDEST PUSH3 0x2FE PUSH3 0x2F8 CALLDATASIZE PUSH1 0x4 PUSH3 0x3E44 JUMP JUMPDEST PUSH3 0x892 JUMP JUMPDEST PUSH1 0x40 MLOAD PUSH3 0x1DF SWAP2 SWAP1 PUSH3 0x46DF JUMP JUMPDEST PUSH3 0x23E PUSH3 0x31E CALLDATASIZE PUSH1 0x4 PUSH3 0x3E44 JUMP JUMPDEST PUSH3 0x955 JUMP JUMPDEST PUSH3 0x1FF PUSH3 0x335 CALLDATASIZE PUSH1 0x4 PUSH3 0x3BC1 JUMP JUMPDEST PUSH3 0x970 JUMP JUMPDEST PUSH3 0x264 PUSH3 0x34C CALLDATASIZE PUSH1 0x4 PUSH3 0x3FCE JUMP JUMPDEST PUSH3 0x98B JUMP JUMPDEST PUSH3 0x264 PUSH3 0x363 CALLDATASIZE PUSH1 0x4 PUSH3 0x3E44 JUMP JUMPDEST PUSH3 0xA86 JUMP JUMPDEST PUSH3 0x218 PUSH3 0xEA9 JUMP JUMPDEST PUSH3 0x264 PUSH3 0x384 CALLDATASIZE PUSH1 0x4 PUSH3 0x3D0F JUMP JUMPDEST PUSH3 0xF0D JUMP JUMPDEST PUSH3 0x264 PUSH3 0x39B CALLDATASIZE PUSH1 0x4 PUSH3 0x3C62 JUMP JUMPDEST PUSH3 0xEA3 JUMP JUMPDEST PUSH3 0x1FF PUSH3 0x3B2 CALLDATASIZE PUSH1 0x4 PUSH3 0x3E44 JUMP JUMPDEST PUSH3 0xF71 JUMP JUMPDEST PUSH3 0x1FF PUSH3 0x3C9 CALLDATASIZE PUSH1 0x4 PUSH3 0x3E44 JUMP JUMPDEST PUSH3 0x100B JUMP JUMPDEST PUSH3 0x218 PUSH3 0x3E0 CALLDATASIZE PUSH1 0x4 PUSH3 0x3E44 JUMP JUMPDEST PUSH3 0x10AD JUMP JUMPDEST PUSH3 0x1FF PUSH3 0x3F7 CALLDATASIZE PUSH1 0x4 PUSH3 0x3BC1 JUMP JUMPDEST PUSH3 0x1152 JUMP JUMPDEST PUSH3 0x1D0 PUSH3 0x40E CALLDATASIZE PUSH1 0x4 PUSH3 0x3BE0 JUMP JUMPDEST PUSH3 0x1187 JUMP JUMPDEST PUSH3 0x264 PUSH3 0x425 CALLDATASIZE PUSH1 0x4 PUSH3 0x4075 JUMP JUMPDEST PUSH3 0x11B5 JUMP JUMPDEST PUSH3 0x264 PUSH3 0x43C CALLDATASIZE PUSH1 0x4 PUSH3 0x3E5D JUMP JUMPDEST PUSH3 0x16CB JUMP JUMPDEST PUSH3 0x264 PUSH3 0x453 CALLDATASIZE PUSH1 0x4 PUSH3 0x3E44 JUMP JUMPDEST PUSH3 0x1902 JUMP JUMPDEST PUSH1 0x1 PUSH1 0x1 PUSH1 0xE0 SHL SUB NOT AND PUSH1 0x0 SWAP1 DUP2 MSTORE PUSH1 0x20 DUP2 SWAP1 MSTORE PUSH1 0x40 SWAP1 KECCAK256 SLOAD PUSH1 0xFF AND SWAP1 JUMP JUMPDEST PUSH1 0x0 DUP3 DUP2 MSTORE PUSH1 0xE PUSH1 0x20 MSTORE PUSH1 0x40 DUP1 DUP3 KECCAK256 SLOAD SWAP1 MLOAD PUSH4 0x6EB1769F PUSH1 0xE1 SHL DUP2 MSTORE PUSH1 0x1 PUSH1 0x1 PUSH1 0xA0 SHL SUB SWAP1 SWAP2 AND SWAP1 DUP2 SWAP1 PUSH4 0xDD62ED3E SWAP1 PUSH3 0x4BA SWAP1 DUP7 SWAP1 ADDRESS SWAP1 PUSH1 0x4 ADD PUSH3 0x4185 JUMP JUMPDEST PUSH1 0x20 PUSH1 0x40 MLOAD DUP1 DUP4 SUB DUP2 DUP7 DUP1 EXTCODESIZE ISZERO DUP1 ISZERO PUSH3 0x4D3 JUMPI PUSH1 0x0 DUP1 REVERT JUMPDEST POP GAS STATICCALL ISZERO DUP1 ISZERO PUSH3 0x4E8 JUMPI RETURNDATASIZE PUSH1 0x0 DUP1 RETURNDATACOPY RETURNDATASIZE PUSH1 0x0 REVERT JUMPDEST POP POP POP POP PUSH1 0x40 MLOAD RETURNDATASIZE PUSH1 0x1F NOT PUSH1 0x1F DUP3 ADD AND DUP3 ADD DUP1 PUSH1 0x40 MSTORE POP DUP2 ADD SWAP1 PUSH3 0x50E SWAP2 SWAP1 PUSH3 0x3EC7 JUMP JUMPDEST SWAP2 POP POP JUMPDEST SWAP3 SWAP2 POP POP JUMP JUMPDEST PUSH1 0x15 DUP1 SLOAD PUSH1 0x40 DUP1 MLOAD PUSH1 0x20 PUSH1 0x1F PUSH1 0x2 PUSH1 0x0 NOT PUSH2 0x100 PUSH1 0x1 DUP9 AND ISZERO MUL ADD SWAP1 SWAP6 AND SWAP5 SWAP1 SWAP5 DIV SWAP4 DUP5 ADD DUP2 SWAP1 DIV DUP2 MUL DUP3 ADD DUP2 ADD SWAP1 SWAP3 MSTORE DUP3 DUP2 MSTORE PUSH1 0x60 SWAP4 SWAP1 SWAP3 SWAP1 SWAP2 DUP4 ADD DUP3 DUP3 DUP1 ISZERO PUSH3 0x5A8 JUMPI DUP1 PUSH1 0x1F LT PUSH3 0x57C JUMPI PUSH2 0x100 DUP1 DUP4 SLOAD DIV MUL DUP4 MSTORE SWAP2 PUSH1 0x20 ADD SWAP2 PUSH3 0x5A8 JUMP JUMPDEST DUP3 ADD SWAP2 SWAP1 PUSH1 0x0 MSTORE PUSH1 0x20 PUSH1 0x0 KECCAK256 SWAP1 JUMPDEST DUP2 SLOAD DUP2 MSTORE SWAP1 PUSH1 0x1 ADD SWAP1 PUSH1 0x20 ADD DUP1 DUP4 GT PUSH3 0x58A JUMPI DUP3 SWAP1 SUB PUSH1 0x1F AND DUP3 ADD SWAP2 JUMPDEST POP POP POP POP POP SWAP1 POP SWAP1 JUMP JUMPDEST PUSH1 0x0 DUP2 DUP2 MSTORE PUSH1 0x6 PUSH1 0x20 MSTORE PUSH1 0x40 DUP2 KECCAK256 SLOAD PUSH1 0x1 PUSH1 0x1 PUSH1 0xA0 SHL SUB AND PUSH3 0x5F2 JUMPI PUSH1 0x40 MLOAD PUSH3 0x461BCD PUSH1 0xE5 SHL DUP2 MSTORE PUSH1 0x4 ADD PUSH3 0x5E9 SWAP1 PUSH3 0x457B JUMP JUMPDEST PUSH1 0x40 MLOAD DUP1 SWAP2 SUB SWAP1 REVERT JUMPDEST POP PUSH1 0x0 SWAP1 DUP2 MSTORE PUSH1 0xB PUSH1 0x20 MSTORE PUSH1 0x40 SWAP1 KECCAK256 SLOAD PUSH1 0x1 PUSH1 0x1 PUSH1 0xA0 SHL SUB AND SWAP1 JUMP JUMPDEST PUSH1 0x0 PUSH3 0x61B DUP3 PUSH3 0x955 JUMP JUMPDEST SWAP1 POP DUP1 PUSH1 0x1 PUSH1 0x1 PUSH1 0xA0 SHL SUB AND DUP4 PUSH1 0x1 PUSH1 0x1 PUSH1 0xA0 SHL SUB AND EQ ISZERO PUSH3 0x652 JUMPI PUSH1 0x40 MLOAD PUSH3 0x461BCD PUSH1 0xE5 SHL DUP2 MSTORE PUSH1 0x4 ADD PUSH3 0x5E9 SWAP1 PUSH3 0x45C7 JUMP JUMPDEST CALLER PUSH1 0x1 PUSH1 0x1 PUSH1 0xA0 SHL SUB DUP3 AND EQ DUP1 PUSH3 0x671 JUMPI POP PUSH3 0x671 DUP2 CALLER PUSH3 0x1187 JUMP JUMPDEST PUSH3 0x690 JUMPI PUSH1 0x40 MLOAD PUSH3 0x461BCD PUSH1 0xE5 SHL DUP2 MSTORE PUSH1 0x4 ADD PUSH3 0x5E9 SWAP1 PUSH3 0x44A7 JUMP JUMPDEST PUSH3 0x69C DUP4 DUP4 PUSH3 0x1A4B JUMP JUMPDEST POP POP POP JUMP JUMPDEST PUSH1 0x10 SLOAD PUSH1 0x40 MLOAD PUSH4 0x1E555043 PUSH1 0xE3 SHL DUP2 MSTORE PUSH1 0x60 SWAP2 PUSH1 0x1 PUSH1 0x1 PUSH1 0xA0 SHL SUB AND SWAP1 PUSH4 0xF2AA8218 SWAP1 PUSH3 0x6D4 SWAP1 DUP6 SWAP1 PUSH1 0x4 ADD PUSH3 0x478F JUMP JUMPDEST PUSH1 0x0 PUSH1 0x40 MLOAD DUP1 DUP4 SUB DUP2 DUP7 DUP1 EXTCODESIZE ISZERO DUP1 ISZERO PUSH3 0x6ED JUMPI PUSH1 0x0 DUP1 REVERT JUMPDEST POP GAS STATICCALL ISZERO DUP1 ISZERO PUSH3 0x702 JUMPI RETURNDATASIZE PUSH1 0x0 DUP1 RETURNDATACOPY RETURNDATASIZE PUSH1 0x0 REVERT JUMPDEST POP POP POP POP PUSH1 0x40 MLOAD RETURNDATASIZE PUSH1 0x0 DUP3 RETURNDATACOPY PUSH1 0x1F RETURNDATASIZE SWAP1 DUP2 ADD PUSH1 0x1F NOT AND DUP3 ADD PUSH1 0x40 MSTORE PUSH3 0x512 SWAP2 SWAP1 DUP2 ADD SWAP1 PUSH3 0x3D6F JUMP JUMPDEST PUSH1 0x13 SLOAD PUSH1 0x1 PUSH1 0x1 PUSH1 0xA0 SHL SUB AND CALLER EQ PUSH3 0x759 JUMPI PUSH1 0x40 MLOAD PUSH3 0x461BCD PUSH1 0xE5 SHL DUP2 MSTORE PUSH1 0x4 ADD PUSH3 0x5E9 SWAP1 PUSH3 0x4689 JUMP JUMPDEST PUSH1 0xF SLOAD PUSH1 0x40 MLOAD PUSH4 0xF38CA0D PUSH1 0xE3 SHL DUP2 MSTORE PUSH1 0x1 PUSH1 0x1 PUSH1 0xA0 SHL SUB SWAP1 SWAP2 AND SWAP1 PUSH4 0x79C65068 SWAP1 PUSH3 0x78D SWAP1 DUP6 SWAP1 DUP6 SWAP1 PUSH1 0x4 ADD PUSH3 0x41C3 JUMP JUMPDEST PUSH1 0x0 PUSH1 0x40 MLOAD DUP1 DUP4 SUB DUP2 PUSH1 0x0 DUP8 DUP1 EXTCODESIZE ISZERO DUP1 ISZERO PUSH3 0x7A8 JUMPI PUSH1 0x0 DUP1 REVERT JUMPDEST POP GAS CALL ISZERO DUP1 ISZERO PUSH3 0x7BD JUMPI RETURNDATASIZE PUSH1 0x0 DUP1 RETURNDATACOPY RETURNDATASIZE PUSH1 0x0 REVERT JUMPDEST POP POP POP POP POP POP JUMP JUMPDEST PUSH1 0x0 DUP2 DUP2 MSTORE PUSH1 0xE PUSH1 0x20 SWAP1 DUP2 MSTORE PUSH1 0x40 DUP1 DUP4 KECCAK256 SLOAD PUSH1 0x6 SWAP1 SWAP3 MSTORE DUP1 DUP4 KECCAK256 SLOAD SWAP1 MLOAD PUSH4 0x7CDBCAC5 PUSH1 0xE1 SHL DUP2 MSTORE DUP4 SWAP3 DUP4 SWAP3 PUSH1 0x60 SWAP3 DUP4 SWAP3 DUP6 SWAP3 DUP4 SWAP3 DUP4 SWAP3 PUSH1 0x1 PUSH1 0x1 PUSH1 0xA0 SHL SUB SWAP1 DUP2 AND SWAP3 PUSH4 0xF9B7958A SWAP3 PUSH3 0x81F SWAP3 DUP15 SWAP3 AND SWAP1 PUSH1 0x4 ADD PUSH3 0x4798 JUMP JUMPDEST PUSH1 0x0 PUSH1 0x40 MLOAD DUP1 DUP4 SUB DUP2 DUP7 DUP1 EXTCODESIZE ISZERO DUP1 ISZERO PUSH3 0x838 JUMPI PUSH1 0x0 DUP1 REVERT JUMPDEST POP GAS STATICCALL ISZERO DUP1 ISZERO PUSH3 0x84D JUMPI RETURNDATASIZE PUSH1 0x0 DUP1 RETURNDATACOPY RETURNDATASIZE PUSH1 0x0 REVERT JUMPDEST POP POP POP POP PUSH1 0x40 MLOAD RETURNDATASIZE PUSH1 0x0 DUP3 RETURNDATACOPY PUSH1 0x1F RETURNDATASIZE SWAP1 DUP2 ADD PUSH1 0x1F NOT AND DUP3 ADD PUSH1 0x40 MSTORE PUSH3 0x877 SWAP2 SWAP1 DUP2 ADD SWAP1 PUSH3 0x3F07 JUMP JUMPDEST SWAP8 POP SWAP8 POP SWAP8 POP SWAP8 POP SWAP8 POP SWAP8 POP SWAP8 POP SWAP8 POP SWAP2 SWAP4 SWAP6 SWAP8 POP SWAP2 SWAP4 SWAP6 SWAP8 JUMP JUMPDEST PUSH3 0x89C PUSH3 0x39A6 JUMP JUMPDEST POP PUSH1 0x0 SWAP1 DUP2 MSTORE PUSH1 0x11 PUSH1 0x20 SWAP1 DUP2 MSTORE PUSH1 0x40 SWAP2 DUP3 SWAP1 KECCAK256 DUP3 MLOAD PUSH2 0x1C0 DUP2 ADD DUP5 MSTORE DUP2 SLOAD PUSH2 0x180 DUP3 ADD SWAP1 DUP2 MSTORE PUSH1 0x1 DUP4 ADD SLOAD PUSH2 0x1A0 DUP4 ADD MSTORE DUP2 MSTORE PUSH1 0x2 DUP3 ADD SLOAD SWAP3 DUP2 ADD SWAP3 SWAP1 SWAP3 MSTORE PUSH1 0x3 DUP2 ADD SLOAD SWAP3 DUP3 ADD SWAP3 SWAP1 SWAP3 MSTORE PUSH1 0x4 DUP3 ADD SLOAD PUSH1 0x1 PUSH1 0x1 PUSH1 0xA0 SHL SUB SWAP1 DUP2 AND PUSH1 0x60 DUP4 ADD MSTORE PUSH1 0x5 DUP4 ADD SLOAD AND PUSH1 0x80 DUP3 ADD MSTORE PUSH1 0x6 DUP3 ADD SLOAD PUSH1 0xA0 DUP3 ADD MSTORE PUSH1 0x7 DUP3 ADD SLOAD PUSH1 0xC0 DUP3 ADD MSTORE PUSH1 0x8 DUP3 ADD SLOAD PUSH1 0xE0 DUP3 ADD MSTORE PUSH1 0x9 DUP3 ADD SLOAD PUSH2 0x100 DUP3 ADD MSTORE PUSH1 0xA DUP3 ADD SLOAD PUSH2 0x120 DUP3 ADD MSTORE PUSH1 0xB DUP3 ADD SLOAD PUSH2 0x140 DUP3 ADD MSTORE PUSH1 0xC SWAP1 SWAP2 ADD SLOAD PUSH2 0x160 DUP3 ADD MSTORE SWAP1 JUMP JUMPDEST PUSH1 0x0 SWAP1 DUP2 MSTORE PUSH1 0x6 PUSH1 0x20 MSTORE PUSH1 0x40 SWAP1 KECCAK256 SLOAD PUSH1 0x1 PUSH1 0x1 PUSH1 0xA0 SHL SUB AND SWAP1 JUMP JUMPDEST PUSH1 0x1 PUSH1 0x1 PUSH1 0xA0 SHL SUB AND PUSH1 0x0 SWAP1 DUP2 MSTORE PUSH1 0x3 PUSH1 0x20 MSTORE PUSH1 0x40 SWAP1 KECCAK256 SLOAD SWAP1 JUMP JUMPDEST PUSH1 0x1 PUSH1 0x1 PUSH1 0xA0 SHL SUB DUP4 AND PUSH3 0x99F JUMPI PUSH1 0x0 DUP1 REVERT JUMPDEST PUSH1 0x13 SLOAD PUSH1 0x1 PUSH1 0x1 PUSH1 0xA0 SHL SUB AND CALLER EQ PUSH3 0x9B7 JUMPI PUSH1 0x0 DUP1 REVERT JUMPDEST PUSH3 0x9C3 CALLER DUP10 PUSH3 0x1A79 JUMP JUMPDEST POP PUSH1 0x0 DUP9 DUP2 MSTORE PUSH1 0x9 PUSH1 0x20 MSTORE PUSH1 0x40 SWAP1 KECCAK256 PUSH3 0x9DF SWAP1 DUP4 DUP4 PUSH3 0x3A21 JUMP JUMPDEST POP PUSH1 0x0 DUP9 DUP2 MSTORE PUSH1 0x7 PUSH1 0x20 MSTORE PUSH1 0x40 DUP1 DUP3 KECCAK256 DUP1 SLOAD PUSH1 0x1 PUSH1 0x1 PUSH1 0xA0 SHL SUB NOT AND PUSH1 0x1 PUSH1 0x1 PUSH1 0xA0 SHL SUB DUP8 AND OR SWAP1 SSTORE MLOAD DUP9 SWAP1 DUP9 SWAP1 DUP8 SWAP1 DUP8 SWAP1 DUP6 SWAP1 DUP12 SWAP1 PUSH3 0xA20 SWAP1 PUSH3 0x3AA6 JUMP JUMPDEST PUSH3 0xA31 SWAP7 SWAP6 SWAP5 SWAP4 SWAP3 SWAP2 SWAP1 PUSH3 0x42C2 JUMP JUMPDEST PUSH1 0x40 MLOAD DUP1 SWAP2 SUB SWAP1 PUSH1 0x0 CREATE DUP1 ISZERO DUP1 ISZERO PUSH3 0xA4E JUMPI RETURNDATASIZE PUSH1 0x0 DUP1 RETURNDATACOPY RETURNDATASIZE PUSH1 0x0 REVERT JUMPDEST POP PUSH1 0x0 SWAP10 DUP11 MSTORE PUSH1 0xE PUSH1 0x20 MSTORE PUSH1 0x40 SWAP1 SWAP10 KECCAK256 DUP1 SLOAD PUSH1 0x1 PUSH1 0x1 PUSH1 0xA0 SHL SUB NOT AND PUSH1 0x1 PUSH1 0x1 PUSH1 0xA0 SHL SUB SWAP1 SWAP11 AND SWAP10 SWAP1 SWAP10 OR SWAP1 SWAP9 SSTORE POP POP POP POP POP POP POP POP JUMP JUMPDEST PUSH1 0x13 SLOAD PUSH1 0x1 PUSH1 0x1 PUSH1 0xA0 SHL SUB AND CALLER EQ PUSH3 0xA9E JUMPI PUSH1 0x0 DUP1 REVERT JUMPDEST PUSH1 0x10 SLOAD PUSH1 0x40 MLOAD PUSH4 0x1E555043 PUSH1 0xE3 SHL DUP2 MSTORE PUSH1 0x60 SWAP2 PUSH1 0x1 PUSH1 0x1 PUSH1 0xA0 SHL SUB AND SWAP1 PUSH4 0xF2AA8218 SWAP1 PUSH3 0xAD1 SWAP1 DUP6 SWAP1 PUSH1 0x4 ADD PUSH3 0x478F JUMP JUMPDEST PUSH1 0x0 PUSH1 0x40 MLOAD DUP1 DUP4 SUB DUP2 DUP7 DUP1 EXTCODESIZE ISZERO DUP1 ISZERO PUSH3 0xAEA JUMPI PUSH1 0x0 DUP1 REVERT JUMPDEST POP GAS STATICCALL ISZERO DUP1 ISZERO PUSH3 0xAFF JUMPI RETURNDATASIZE PUSH1 0x0 DUP1 RETURNDATACOPY RETURNDATASIZE PUSH1 0x0 REVERT JUMPDEST POP POP POP POP PUSH1 0x40 MLOAD RETURNDATASIZE PUSH1 0x0 DUP3 RETURNDATACOPY PUSH1 0x1F RETURNDATASIZE SWAP1 DUP2 ADD PUSH1 0x1F NOT AND DUP3 ADD PUSH1 0x40 MSTORE PUSH3 0xB29 SWAP2 SWAP1 DUP2 ADD SWAP1 PUSH3 0x3D6F JUMP JUMPDEST PUSH1 0x0 DUP4 DUP2 MSTORE PUSH1 0xE PUSH1 0x20 MSTORE PUSH1 0x40 DUP2 KECCAK256 SLOAD SWAP2 SWAP3 POP PUSH1 0x1 PUSH1 0x1 PUSH1 0xA0 SHL SUB SWAP1 SWAP2 AND SWAP1 JUMPDEST DUP3 MLOAD DUP2 PUSH1 0xFF AND LT ISZERO PUSH3 0xD83 JUMPI PUSH1 0x10 SLOAD DUP4 MLOAD PUSH1 0x0 SWAP2 PUSH1 0x1 PUSH1 0x1 PUSH1 0xA0 SHL SUB AND SWAP1 PUSH4 0x20000B59 SWAP1 DUP8 SWAP1 DUP8 SWAP1 PUSH1 0xFF DUP8 AND SWAP1 DUP2 LT PUSH3 0xB7F JUMPI INVALID JUMPDEST PUSH1 0x20 MUL PUSH1 0x20 ADD ADD MLOAD PUSH1 0x40 MLOAD DUP4 PUSH4 0xFFFFFFFF AND PUSH1 0xE0 SHL DUP2 MSTORE PUSH1 0x4 ADD PUSH3 0xBA6 SWAP3 SWAP2 SWAP1 PUSH3 0x4798 JUMP JUMPDEST PUSH1 0x20 PUSH1 0x40 MLOAD DUP1 DUP4 SUB DUP2 DUP7 DUP1 EXTCODESIZE ISZERO DUP1 ISZERO PUSH3 0xBBF JUMPI PUSH1 0x0 DUP1 REVERT JUMPDEST POP GAS STATICCALL ISZERO DUP1 ISZERO PUSH3 0xBD4 JUMPI RETURNDATASIZE PUSH1 0x0 DUP1 RETURNDATACOPY RETURNDATASIZE PUSH1 0x0 REVERT JUMPDEST POP POP POP POP PUSH1 0x40 MLOAD RETURNDATASIZE PUSH1 0x1F NOT PUSH1 0x1F DUP3 ADD AND DUP3 ADD DUP1 PUSH1 0x40 MSTORE POP DUP2 ADD SWAP1 PUSH3 0xBFA SWAP2 SWAP1 PUSH3 0x3EC7 JUMP JUMPDEST SWAP1 POP DUP1 ISZERO PUSH3 0xD79 JUMPI DUP3 PUSH1 0x1 PUSH1 0x1 PUSH1 0xA0 SHL SUB AND PUSH4 0x23B872DD DUP6 DUP5 PUSH1 0xFF AND DUP2 MLOAD DUP2 LT PUSH3 0xC22 JUMPI INVALID JUMPDEST PUSH1 0x20 MUL PUSH1 0x20 ADD ADD MLOAD PUSH20 0x1337133713371337133713371337133713371337 DUP7 PUSH1 0x1 PUSH1 0x1 PUSH1 0xA0 SHL SUB AND PUSH4 0xDD62ED3E DUP10 DUP9 PUSH1 0xFF AND DUP2 MLOAD DUP2 LT PUSH3 0xC5E JUMPI INVALID JUMPDEST PUSH1 0x20 MUL PUSH1 0x20 ADD ADD MLOAD ADDRESS PUSH1 0x40 MLOAD DUP4 PUSH4 0xFFFFFFFF AND PUSH1 0xE0 SHL DUP2 MSTORE PUSH1 0x4 ADD PUSH3 0xC86 SWAP3 SWAP2 SWAP1 PUSH3 0x4185 JUMP JUMPDEST PUSH1 0x20 PUSH1 0x40 MLOAD DUP1 DUP4 SUB DUP2 DUP7 DUP1 EXTCODESIZE ISZERO DUP1 ISZERO PUSH3 0xC9F JUMPI PUSH1 0x0 DUP1 REVERT JUMPDEST POP GAS STATICCALL ISZERO DUP1 ISZERO PUSH3 0xCB4 JUMPI RETURNDATASIZE PUSH1 0x0 DUP1 RETURNDATACOPY RETURNDATASIZE PUSH1 0x0 REVERT JUMPDEST POP POP POP POP PUSH1 0x40 MLOAD RETURNDATASIZE PUSH1 0x1F NOT PUSH1 0x1F DUP3 ADD AND DUP3 ADD DUP1 PUSH1 0x40 MSTORE POP DUP2 ADD SWAP1 PUSH3 0xCDA SWAP2 SWAP1 PUSH3 0x3EC7 JUMP JUMPDEST PUSH1 0x40 MLOAD DUP5 PUSH4 0xFFFFFFFF AND PUSH1 0xE0 SHL DUP2 MSTORE PUSH1 0x4 ADD PUSH3 0xCFA SWAP4 SWAP3 SWAP2 SWAP1 PUSH3 0x419F JUMP JUMPDEST PUSH1 0x20 PUSH1 0x40 MLOAD DUP1 DUP4 SUB DUP2 PUSH1 0x0 DUP8 DUP1 EXTCODESIZE ISZERO DUP1 ISZERO PUSH3 0xD15 JUMPI PUSH1 0x0 DUP1 REVERT JUMPDEST POP GAS CALL ISZERO DUP1 ISZERO PUSH3 0xD2A JUMPI RETURNDATASIZE PUSH1 0x0 DUP1 RETURNDATACOPY RETURNDATASIZE PUSH1 0x0 REVERT JUMPDEST POP POP POP POP PUSH1 0x40 MLOAD RETURNDATASIZE PUSH1 0x1F NOT PUSH1 0x1F DUP3 ADD AND DUP3 ADD DUP1 PUSH1 0x40 MSTORE POP DUP2 ADD SWAP1 PUSH3 0xD50 SWAP2 SWAP1 PUSH3 0x3E25 JUMP JUMPDEST ISZERO PUSH3 0xD79 JUMPI PUSH3 0xD79 DUP5 DUP4 PUSH1 0xFF AND DUP2 MLOAD DUP2 LT PUSH3 0xD6A JUMPI INVALID JUMPDEST PUSH1 0x20 MUL PUSH1 0x20 ADD ADD MLOAD DUP3 PUSH3 0x72C JUMP JUMPDEST POP PUSH1 0x1 ADD PUSH3 0xB48 JUMP JUMPDEST POP PUSH1 0x13 SLOAD PUSH1 0x40 MLOAD PUSH4 0x6EB1769F PUSH1 0xE1 SHL DUP2 MSTORE PUSH1 0x1 PUSH1 0x1 PUSH1 0xA0 SHL SUB DUP1 DUP5 AND SWAP3 PUSH4 0x23B872DD SWAP3 SWAP2 AND SWAP1 PUSH20 0x1337133713371337133713371337133713371337 SWAP1 DUP5 SWAP1 PUSH4 0xDD62ED3E SWAP1 PUSH3 0xDD9 SWAP1 DUP6 SWAP1 ADDRESS SWAP1 PUSH1 0x4 ADD PUSH3 0x4185 JUMP JUMPDEST PUSH1 0x20 PUSH1 0x40 MLOAD DUP1 DUP4 SUB DUP2 DUP7 DUP1 EXTCODESIZE ISZERO DUP1 ISZERO PUSH3 0xDF2 JUMPI PUSH1 0x0 DUP1 REVERT JUMPDEST POP GAS STATICCALL ISZERO DUP1 ISZERO PUSH3 0xE07 JUMPI RETURNDATASIZE PUSH1 0x0 DUP1 RETURNDATACOPY RETURNDATASIZE PUSH1 0x0 REVERT JUMPDEST POP POP POP POP PUSH1 0x40 MLOAD RETURNDATASIZE PUSH1 0x1F NOT PUSH1 0x1F DUP3 ADD AND DUP3 ADD DUP1 PUSH1 0x40 MSTORE POP DUP2 ADD SWAP1 PUSH3 0xE2D SWAP2 SWAP1 PUSH3 0x3EC7 JUMP JUMPDEST PUSH1 0x40 MLOAD DUP5 PUSH4 0xFFFFFFFF AND PUSH1 0xE0 SHL DUP2 MSTORE PUSH1 0x4 ADD PUSH3 0xE4D SWAP4 SWAP3 SWAP2 SWAP1 PUSH3 0x419F JUMP JUMPDEST PUSH1 0x20 PUSH1 0x40 MLOAD DUP1 DUP4 SUB DUP2 PUSH1 0x0 DUP8 DUP1 EXTCODESIZE ISZERO DUP1 ISZERO PUSH3 0xE68 JUMPI PUSH1 0x0 DUP1 REVERT JUMPDEST POP GAS CALL ISZERO DUP1 ISZERO PUSH3 0xE7D JUMPI RETURNDATASIZE PUSH1 0x0 DUP1 RETURNDATACOPY RETURNDATASIZE PUSH1 0x0 REVERT JUMPDEST POP POP POP POP PUSH1 0x40 MLOAD RETURNDATASIZE PUSH1 0x1F NOT PUSH1 0x1F DUP3 ADD AND DUP3 ADD DUP1 PUSH1 0x40 MSTORE POP DUP2 ADD SWAP1 PUSH3 0xEA3 SWAP2 SWAP1 PUSH3 0x3E25 JUMP JUMPDEST POP POP POP POP JUMP JUMPDEST PUSH1 0x16 DUP1 SLOAD PUSH1 0x40 DUP1 MLOAD PUSH1 0x20 PUSH1 0x1F PUSH1 0x2 PUSH1 0x0 NOT PUSH2 0x100 PUSH1 0x1 DUP9 AND ISZERO MUL ADD SWAP1 SWAP6 AND SWAP5 SWAP1 SWAP5 DIV SWAP4 DUP5 ADD DUP2 SWAP1 DIV DUP2 MUL DUP3 ADD DUP2 ADD SWAP1 SWAP3 MSTORE DUP3 DUP2 MSTORE PUSH1 0x60 SWAP4 SWAP1 SWAP3 SWAP1 SWAP2 DUP4 ADD DUP3 DUP3 DUP1 ISZERO PUSH3 0x5A8 JUMPI DUP1 PUSH1 0x1F LT PUSH3 0x57C JUMPI PUSH2 0x100 DUP1 DUP4 SLOAD DIV MUL DUP4 MSTORE SWAP2 PUSH1 0x20 ADD SWAP2 PUSH3 0x5A8 JUMP JUMPDEST PUSH1 0x1 PUSH1 0x1 PUSH1 0xA0 SHL SUB DUP3 AND CALLER EQ ISZERO PUSH3 0xF39 JUMPI PUSH1 0x40 MLOAD PUSH3 0x461BCD PUSH1 0xE5 SHL DUP2 MSTORE PUSH1 0x4 ADD PUSH3 0x5E9 SWAP1 PUSH3 0x440D JUMP JUMPDEST CALLER PUSH1 0x0 SWAP1 DUP2 MSTORE PUSH1 0xC PUSH1 0x20 SWAP1 DUP2 MSTORE PUSH1 0x40 DUP1 DUP4 KECCAK256 PUSH1 0x1 PUSH1 0x1 PUSH1 0xA0 SHL SUB SWAP6 SWAP1 SWAP6 AND DUP4 MSTORE SWAP4 SWAP1 MSTORE SWAP2 SWAP1 SWAP2 KECCAK256 DUP1 SLOAD PUSH1 0xFF NOT AND SWAP2 ISZERO ISZERO SWAP2 SWAP1 SWAP2 OR SWAP1 SSTORE JUMP JUMPDEST PUSH1 0x10 SLOAD PUSH1 0x0 DUP3 DUP2 MSTORE PUSH1 0x7 PUSH1 0x20 MSTORE PUSH1 0x40 DUP1 DUP3 KECCAK256 SLOAD SWAP1 MLOAD PUSH4 0xE5C66BBD PUSH1 0xE0 SHL DUP2 MSTORE SWAP2 SWAP3 PUSH1 0x1 PUSH1 0x1 PUSH1 0xA0 SHL SUB SWAP1 DUP2 AND SWAP3 PUSH4 0xE5C66BBD SWAP3 PUSH3 0xFB7 SWAP3 DUP8 SWAP3 SWAP2 AND SWAP1 PUSH1 0x4 ADD PUSH3 0x4798 JUMP JUMPDEST PUSH1 0x20 PUSH1 0x40 MLOAD DUP1 DUP4 SUB DUP2 DUP7 DUP1 EXTCODESIZE ISZERO DUP1 ISZERO PUSH3 0xFD0 JUMPI PUSH1 0x0 DUP1 REVERT JUMPDEST POP GAS STATICCALL ISZERO DUP1 ISZERO PUSH3 0xFE5 JUMPI RETURNDATASIZE PUSH1 0x0 DUP1 RETURNDATACOPY RETURNDATASIZE PUSH1 0x0 REVERT JUMPDEST POP POP POP POP PUSH1 0x40 MLOAD RETURNDATASIZE PUSH1 0x1F NOT PUSH1 0x1F DUP3 ADD AND DUP3 ADD DUP1 PUSH1 0x40 MSTORE POP DUP2 ADD SWAP1 PUSH3 0x512 SWAP2 SWAP1 PUSH3 0x3EC7 JUMP JUMPDEST PUSH1 0x0 DUP2 DUP2 MSTORE PUSH1 0xE PUSH1 0x20 MSTORE PUSH1 0x40 DUP1 DUP3 KECCAK256 SLOAD PUSH1 0x13 SLOAD SWAP2 MLOAD PUSH4 0x6EB1769F PUSH1 0xE1 SHL DUP2 MSTORE PUSH1 0x1 PUSH1 0x1 PUSH1 0xA0 SHL SUB SWAP2 DUP3 AND SWAP3 DUP4 SWAP3 PUSH4 0xDD62ED3E SWAP3 PUSH3 0x1052 SWAP3 SWAP1 SWAP2 AND SWAP1 ADDRESS SWAP1 PUSH1 0x4 ADD PUSH3 0x4185 JUMP JUMPDEST PUSH1 0x20 PUSH1 0x40 MLOAD DUP1 DUP4 SUB DUP2 DUP7 DUP1 EXTCODESIZE ISZERO DUP1 ISZERO PUSH3 0x106B JUMPI PUSH1 0x0 DUP1 REVERT JUMPDEST POP GAS STATICCALL ISZERO DUP1 ISZERO PUSH3 0x1080 JUMPI RETURNDATASIZE PUSH1 0x0 DUP1 RETURNDATACOPY RETURNDATASIZE PUSH1 0x0 REVERT JUMPDEST POP POP POP POP PUSH1 0x40 MLOAD RETURNDATASIZE PUSH1 0x1F NOT PUSH1 0x1F DUP3 ADD AND DUP3 ADD DUP1 PUSH1 0x40 MSTORE POP DUP2 ADD SWAP1 PUSH3 0x10A6 SWAP2 SWAP1 PUSH3 0x3EC7 JUMP JUMPDEST SWAP4 SWAP3 POP POP POP JUMP JUMPDEST PUSH1 0x0 DUP2 DUP2 MSTORE PUSH1 0x9 PUSH1 0x20 SWAP1 DUP2 MSTORE PUSH1 0x40 SWAP2 DUP3 SWAP1 KECCAK256 DUP1 SLOAD DUP4 MLOAD PUSH1 0x1F PUSH1 0x2 PUSH1 0x0 NOT PUSH2 0x100 PUSH1 0x1 DUP7 AND ISZERO MUL ADD SWAP1 SWAP4 AND SWAP3 SWAP1 SWAP3 DIV SWAP2 DUP3 ADD DUP5 SWAP1 DIV DUP5 MUL DUP2 ADD DUP5 ADD SWAP1 SWAP5 MSTORE DUP1 DUP5 MSTORE PUSH1 0x60 SWAP4 SWAP3 DUP4 ADD DUP3 DUP3 DUP1 ISZERO PUSH3 0x1146 JUMPI DUP1 PUSH1 0x1F LT PUSH3 0x111A JUMPI PUSH2 0x100 DUP1 DUP4 SLOAD DIV MUL DUP4 MSTORE SWAP2 PUSH1 0x20 ADD SWAP2 PUSH3 0x1146 JUMP JUMPDEST DUP3 ADD SWAP2 SWAP1 PUSH1 0x0 MSTORE PUSH1 0x20 PUSH1 0x0 KECCAK256 SWAP1 JUMPDEST DUP2 SLOAD DUP2 MSTORE SWAP1 PUSH1 0x1 ADD SWAP1 PUSH1 0x20 ADD DUP1 DUP4 GT PUSH3 0x1128 JUMPI DUP3 SWAP1 SUB PUSH1 0x1F AND DUP3 ADD SWAP2 JUMPDEST POP POP POP POP POP SWAP1 POP SWAP2 SWAP1 POP JUMP JUMPDEST PUSH1 0xF SLOAD PUSH1 0x40 MLOAD PUSH4 0x6EB1769F PUSH1 0xE1 SHL DUP2 MSTORE PUSH1 0x0 SWAP2 PUSH1 0x1 PUSH1 0x1 PUSH1 0xA0 SHL SUB AND SWAP1 PUSH4 0xDD62ED3E SWAP1 PUSH3 0xFB7 SWAP1 DUP6 SWAP1 ADDRESS SWAP1 PUSH1 0x4 ADD PUSH3 0x4185 JUMP JUMPDEST PUSH1 0x1 PUSH1 0x1 PUSH1 0xA0 SHL SUB SWAP2 DUP3 AND PUSH1 0x0 SWAP1 DUP2 MSTORE PUSH1 0xC PUSH1 0x20 SWAP1 DUP2 MSTORE PUSH1 0x40 DUP1 DUP4 KECCAK256 SWAP4 SWAP1 SWAP5 AND DUP3 MSTORE SWAP2 SWAP1 SWAP2 MSTORE KECCAK256 SLOAD PUSH1 0xFF AND SWAP1 JUMP JUMPDEST PUSH1 0x0 DUP3 DUP2 MSTORE PUSH1 0x11 PUSH1 0x20 MSTORE PUSH1 0x40 SWAP1 KECCAK256 PUSH1 0x6 ADD SLOAD ISZERO PUSH3 0x11E7 JUMPI PUSH1 0x40 MLOAD PUSH3 0x461BCD PUSH1 0xE5 SHL DUP2 MSTORE PUSH1 0x4 ADD PUSH3 0x5E9 SWAP1 PUSH3 0x434C JUMP JUMPDEST PUSH1 0x0 DUP1 DUP10 PUSH3 0x1313 JUMPI POP PUSH1 0x0 SWAP1 POP CALLER DUP2 PUSH3 0x1203 DUP10 DUP10 PUSH3 0x1C41 JUMP JUMPDEST PUSH1 0x1 PUSH1 0x1 PUSH1 0xA0 SHL SUB DUP1 DUP5 AND PUSH1 0x0 SWAP1 DUP2 MSTORE PUSH1 0x14 PUSH1 0x20 MSTORE PUSH1 0x40 DUP1 DUP3 KECCAK256 SLOAD PUSH1 0xF SLOAD SWAP2 MLOAD PUSH4 0x6EB1769F PUSH1 0xE1 SHL DUP2 MSTORE SWAP5 SWAP6 POP SWAP2 SWAP4 SWAP2 SWAP3 AND SWAP1 PUSH4 0xDD62ED3E SWAP1 PUSH3 0x124E SWAP1 DUP8 SWAP1 ADDRESS SWAP1 PUSH1 0x4 ADD PUSH3 0x4185 JUMP JUMPDEST PUSH1 0x20 PUSH1 0x40 MLOAD DUP1 DUP4 SUB DUP2 DUP7 DUP1 EXTCODESIZE ISZERO DUP1 ISZERO PUSH3 0x1267 JUMPI PUSH1 0x0 DUP1 REVERT JUMPDEST POP GAS STATICCALL ISZERO DUP1 ISZERO PUSH3 0x127C JUMPI RETURNDATASIZE PUSH1 0x0 DUP1 RETURNDATACOPY RETURNDATASIZE PUSH1 0x0 REVERT JUMPDEST POP POP POP POP PUSH1 0x40 MLOAD RETURNDATASIZE PUSH1 0x1F NOT PUSH1 0x1F DUP3 ADD AND DUP3 ADD DUP1 PUSH1 0x40 MSTORE POP DUP2 ADD SWAP1 PUSH3 0x12A2 SWAP2 SWAP1 PUSH3 0x3EC7 JUMP JUMPDEST SUB SWAP1 POP DUP2 DUP2 LT PUSH3 0x12F1 JUMPI PUSH1 0x1 PUSH1 0x1 PUSH1 0xA0 SHL SUB DUP4 AND PUSH1 0x0 SWAP1 DUP2 MSTORE PUSH1 0x14 PUSH1 0x20 MSTORE PUSH1 0x40 SWAP1 KECCAK256 SLOAD PUSH3 0x12D2 SWAP1 DUP4 PUSH3 0x1C81 JUMP JUMPDEST PUSH1 0x1 PUSH1 0x1 PUSH1 0xA0 SHL SUB DUP5 AND PUSH1 0x0 SWAP1 DUP2 MSTORE PUSH1 0x14 PUSH1 0x20 MSTORE PUSH1 0x40 SWAP1 KECCAK256 SSTORE PUSH3 0x130B JUMP JUMPDEST PUSH1 0x40 MLOAD PUSH3 0x461BCD PUSH1 0xE5 SHL DUP2 MSTORE PUSH1 0x4 ADD PUSH3 0x5E9 SWAP1 PUSH3 0x451F JUMP JUMPDEST POP POP PUSH3 0x1521 JUMP JUMPDEST PUSH1 0x1 DUP11 EQ ISZERO PUSH3 0x1521 JUMPI POP CALLER SWAP1 POP PUSH1 0x0 DUP3 PUSH3 0x1365 JUMPI PUSH1 0x0 DUP7 DUP2 MSTORE PUSH1 0x7 PUSH1 0x20 MSTORE PUSH1 0x40 SWAP1 KECCAK256 SLOAD PUSH1 0x1 PUSH1 0x1 PUSH1 0xA0 SHL SUB DUP4 DUP2 AND SWAP2 AND EQ PUSH3 0x1365 JUMPI PUSH1 0x40 MLOAD PUSH3 0x461BCD PUSH1 0xE5 SHL DUP2 MSTORE PUSH1 0x4 ADD PUSH3 0x5E9 SWAP1 PUSH3 0x46C1 JUMP JUMPDEST PUSH1 0x0 DUP7 DUP2 MSTORE PUSH1 0xE PUSH1 0x20 MSTORE PUSH1 0x40 DUP1 DUP3 KECCAK256 SLOAD SWAP1 MLOAD PUSH4 0x6EB1769F PUSH1 0xE1 SHL DUP2 MSTORE PUSH1 0x1 PUSH1 0x1 PUSH1 0xA0 SHL SUB SWAP1 SWAP2 AND SWAP2 SWAP1 DUP3 SWAP1 PUSH4 0xDD62ED3E SWAP1 PUSH3 0x13A8 SWAP1 DUP8 SWAP1 ADDRESS SWAP1 PUSH1 0x4 ADD PUSH3 0x4185 JUMP JUMPDEST PUSH1 0x20 PUSH1 0x40 MLOAD DUP1 DUP4 SUB DUP2 DUP7 DUP1 EXTCODESIZE ISZERO DUP1 ISZERO PUSH3 0x13C1 JUMPI PUSH1 0x0 DUP1 REVERT JUMPDEST POP GAS STATICCALL ISZERO DUP1 ISZERO PUSH3 0x13D6 JUMPI RETURNDATASIZE PUSH1 0x0 DUP1 RETURNDATACOPY RETURNDATASIZE PUSH1 0x0 REVERT JUMPDEST POP POP POP POP PUSH1 0x40 MLOAD RETURNDATASIZE PUSH1 0x1F NOT PUSH1 0x1F DUP3 ADD AND DUP3 ADD DUP1 PUSH1 0x40 MSTORE POP DUP2 ADD SWAP1 PUSH3 0x13FC SWAP2 SWAP1 PUSH3 0x3EC7 JUMP JUMPDEST SWAP1 POP DUP10 DUP2 LT ISZERO PUSH3 0x1421 JUMPI PUSH1 0x40 MLOAD PUSH3 0x461BCD PUSH1 0xE5 SHL DUP2 MSTORE PUSH1 0x4 ADD PUSH3 0x5E9 SWAP1 PUSH3 0x4608 JUMP JUMPDEST PUSH1 0x13 SLOAD PUSH1 0x40 MLOAD PUSH4 0x23B872DD PUSH1 0xE0 SHL DUP2 MSTORE PUSH1 0x1 PUSH1 0x1 PUSH1 0xA0 SHL SUB DUP1 DUP6 AND SWAP3 PUSH4 0x23B872DD SWAP3 PUSH3 0x1457 SWAP3 DUP10 SWAP3 AND SWAP1 DUP16 SWAP1 PUSH1 0x4 ADD PUSH3 0x419F JUMP JUMPDEST PUSH1 0x20 PUSH1 0x40 MLOAD DUP1 DUP4 SUB DUP2 PUSH1 0x0 DUP8 DUP1 EXTCODESIZE ISZERO DUP1 ISZERO PUSH3 0x1472 JUMPI PUSH1 0x0 DUP1 REVERT JUMPDEST POP GAS CALL ISZERO DUP1 ISZERO PUSH3 0x1487 JUMPI RETURNDATASIZE PUSH1 0x0 DUP1 RETURNDATACOPY RETURNDATASIZE PUSH1 0x0 REVERT JUMPDEST POP POP POP POP PUSH1 0x40 MLOAD RETURNDATASIZE PUSH1 0x1F NOT PUSH1 0x1F DUP3 ADD AND DUP3 ADD DUP1 PUSH1 0x40 MSTORE POP DUP2 ADD SWAP1 PUSH3 0x14AD SWAP2 SWAP1 PUSH3 0x3E25 JUMP JUMPDEST ISZERO PUSH3 0x151E JUMPI PUSH1 0x13 SLOAD PUSH1 0x40 MLOAD PUSH4 0x363798F9 PUSH1 0xE1 SHL DUP2 MSTORE PUSH1 0x1 PUSH1 0x1 PUSH1 0xA0 SHL SUB DUP5 DUP2 AND SWAP3 PUSH4 0x6C6F31F2 SWAP3 PUSH3 0x14E9 SWAP3 SWAP1 SWAP2 AND SWAP1 DUP15 SWAP1 PUSH1 0x4 ADD PUSH3 0x41C3 JUMP JUMPDEST PUSH1 0x0 PUSH1 0x40 MLOAD DUP1 DUP4 SUB DUP2 PUSH1 0x0 DUP8 DUP1 EXTCODESIZE ISZERO DUP1 ISZERO PUSH3 0x1504 JUMPI PUSH1 0x0 DUP1 REVERT JUMPDEST POP GAS CALL ISZERO DUP1 ISZERO PUSH3 0x1519 JUMPI RETURNDATASIZE PUSH1 0x0 DUP1 RETURNDATACOPY RETURNDATASIZE PUSH1 0x0 REVERT JUMPDEST POP POP POP POP JUMPDEST POP POP JUMPDEST PUSH3 0x152B PUSH3 0x3AB4 JUMP JUMPDEST POP PUSH1 0x40 DUP1 MLOAD DUP1 DUP3 ADD SWAP1 SWAP2 MSTORE DUP5 DUP2 MSTORE TIMESTAMP PUSH1 0x20 DUP3 ADD MSTORE PUSH3 0x1549 PUSH3 0x39A6 JUMP JUMPDEST PUSH1 0x40 MLOAD DUP1 PUSH2 0x180 ADD PUSH1 0x40 MSTORE DUP1 DUP4 DUP2 MSTORE PUSH1 0x20 ADD DUP14 DUP2 MSTORE PUSH1 0x20 ADD DUP13 DUP2 MSTORE PUSH1 0x20 ADD DUP6 PUSH1 0x1 PUSH1 0x1 PUSH1 0xA0 SHL SUB AND DUP2 MSTORE PUSH1 0x20 ADD DUP5 PUSH1 0x1 PUSH1 0x1 PUSH1 0xA0 SHL SUB AND DUP2 MSTORE PUSH1 0x20 ADD DUP10 DUP2 MSTORE PUSH1 0x20 ADD DUP12 DUP2 MSTORE PUSH1 0x20 ADD DUP12 DUP2 MSTORE PUSH1 0x20 ADD DUP11 DUP2 MSTORE PUSH1 0x20 ADD PUSH1 0x0 DUP2 MSTORE PUSH1 0x20 ADD DUP9 DUP2 MSTORE PUSH1 0x20 ADD DUP7 DUP2 MSTORE POP SWAP1 POP DUP1 PUSH1 0x11 PUSH1 0x0 DUP9 DUP2 MSTORE PUSH1 0x20 ADD SWAP1 DUP2 MSTORE PUSH1 0x20 ADD PUSH1 0x0 KECCAK256 PUSH1 0x0 DUP3 ADD MLOAD DUP2 PUSH1 0x0 ADD PUSH1 0x0 DUP3 ADD MLOAD DUP2 PUSH1 0x0 ADD SSTORE PUSH1 0x20 DUP3 ADD MLOAD DUP2 PUSH1 0x1 ADD SSTORE POP POP PUSH1 0x20 DUP3 ADD MLOAD DUP2 PUSH1 0x2 ADD SSTORE PUSH1 0x40 DUP3 ADD MLOAD DUP2 PUSH1 0x3 ADD SSTORE PUSH1 0x60 DUP3 ADD MLOAD DUP2 PUSH1 0x4 ADD PUSH1 0x0 PUSH2 0x100 EXP DUP2 SLOAD DUP2 PUSH1 0x1 PUSH1 0x1 PUSH1 0xA0 SHL SUB MUL NOT AND SWAP1 DUP4 PUSH1 0x1 PUSH1 0x1 PUSH1 0xA0 SHL SUB AND MUL OR SWAP1 SSTORE POP PUSH1 0x80 DUP3 ADD MLOAD DUP2 PUSH1 0x5 ADD PUSH1 0x0 PUSH2 0x100 EXP DUP2 SLOAD DUP2 PUSH1 0x1 PUSH1 0x1 PUSH1 0xA0 SHL SUB MUL NOT AND SWAP1 DUP4 PUSH1 0x1 PUSH1 0x1 PUSH1 0xA0 SHL SUB AND MUL OR SWAP1 SSTORE POP PUSH1 0xA0 DUP3 ADD MLOAD DUP2 PUSH1 0x6 ADD SSTORE PUSH1 0xC0 DUP3 ADD MLOAD DUP2 PUSH1 0x7 ADD SSTORE PUSH1 0xE0 DUP3 ADD MLOAD DUP2 PUSH1 0x8 ADD SSTORE PUSH2 0x100 DUP3 ADD MLOAD DUP2 PUSH1 0x9 ADD SSTORE PUSH2 0x120 DUP3 ADD MLOAD DUP2 PUSH1 0xA ADD SSTORE PUSH2 0x140 DUP3 ADD MLOAD DUP2 PUSH1 0xB ADD SSTORE PUSH2 0x160 DUP3 ADD MLOAD DUP2 PUSH1 0xC ADD SSTORE SWAP1 POP POP PUSH3 0x16B2 DUP2 PUSH1 0x0 ADD MLOAD DUP3 PUSH1 0x20 ADD MLOAD PUSH3 0x1CA9 JUMP JUMPDEST PUSH3 0x16BD DUP2 PUSH3 0x1EAC JUMP JUMPDEST POP POP POP POP POP POP POP POP POP POP POP POP JUMP JUMPDEST PUSH3 0x16D5 PUSH3 0x39A6 JUMP JUMPDEST POP PUSH1 0x0 DUP4 DUP2 MSTORE PUSH1 0x11 PUSH1 0x20 SWAP1 DUP2 MSTORE PUSH1 0x40 DUP1 DUP4 KECCAK256 DUP2 MLOAD PUSH2 0x1C0 DUP2 ADD DUP4 MSTORE DUP2 SLOAD PUSH2 0x180 DUP3 ADD SWAP1 DUP2 MSTORE PUSH1 0x1 DUP4 ADD SLOAD PUSH2 0x1A0 DUP4 ADD MSTORE DUP2 MSTORE PUSH1 0x2 DUP3 ADD SLOAD SWAP4 DUP2 ADD SWAP4 SWAP1 SWAP4 MSTORE PUSH1 0x3 DUP2 ADD SLOAD SWAP2 DUP4 ADD SWAP2 SWAP1 SWAP2 MSTORE PUSH1 0x4 DUP2 ADD SLOAD PUSH1 0x1 PUSH1 0x1 PUSH1 0xA0 SHL SUB SWAP1 DUP2 AND PUSH1 0x60 DUP5 ADD MSTORE PUSH1 0x5 DUP3 ADD SLOAD AND PUSH1 0x80 DUP4 ADD MSTORE PUSH1 0x6 DUP2 ADD SLOAD PUSH1 0xA0 DUP4 ADD MSTORE PUSH1 0x7 DUP2 ADD SLOAD PUSH1 0xC0 DUP4 ADD MSTORE PUSH1 0x8 DUP2 ADD SLOAD PUSH1 0xE0 DUP4 ADD MSTORE PUSH1 0x9 DUP2 ADD SLOAD PUSH2 0x100 DUP4 ADD MSTORE PUSH1 0xA DUP2 ADD SLOAD PUSH2 0x120 DUP4 ADD MSTORE PUSH1 0xB DUP2 ADD SLOAD PUSH2 0x140 DUP4 ADD MSTORE PUSH1 0xC ADD SLOAD PUSH2 0x160 DUP3 ADD MSTORE SWAP1 DUP3 ISZERO PUSH3 0x1797 JUMPI DUP3 PUSH3 0x179D JUMP JUMPDEST DUP2 PUSH1 0xC0 ADD MLOAD JUMPDEST SWAP1 POP DUP4 PUSH3 0x18EF JUMPI PUSH1 0x0 PUSH3 0x17C1 DUP4 PUSH2 0x100 ADD MLOAD DUP4 PUSH3 0x1C41 SWAP1 SWAP2 SWAP1 PUSH4 0xFFFFFFFF AND JUMP JUMPDEST SWAP1 POP PUSH3 0x17CF DUP7 DUP4 PUSH3 0x279E JUMP JUMPDEST PUSH1 0xF SLOAD PUSH1 0x60 DUP5 ADD MLOAD PUSH1 0x40 MLOAD PUSH4 0x23B872DD PUSH1 0xE0 SHL DUP2 MSTORE PUSH1 0x1 PUSH1 0x1 PUSH1 0xA0 SHL SUB SWAP1 SWAP3 AND SWAP2 PUSH4 0x23B872DD SWAP2 PUSH3 0x181C SWAP2 PUSH20 0x1337133713371337133713371337133713371337 SWAP1 DUP7 SWAP1 PUSH1 0x4 ADD PUSH3 0x419F JUMP JUMPDEST PUSH1 0x20 PUSH1 0x40 MLOAD DUP1 DUP4 SUB DUP2 PUSH1 0x0 DUP8 DUP1 EXTCODESIZE ISZERO DUP1 ISZERO PUSH3 0x1837 JUMPI PUSH1 0x0 DUP1 REVERT JUMPDEST POP GAS CALL ISZERO DUP1 ISZERO PUSH3 0x184C JUMPI RETURNDATASIZE PUSH1 0x0 DUP1 RETURNDATACOPY RETURNDATASIZE PUSH1 0x0 REVERT JUMPDEST POP POP POP POP PUSH1 0x40 MLOAD RETURNDATASIZE PUSH1 0x1F NOT PUSH1 0x1F DUP3 ADD AND DUP3 ADD DUP1 PUSH1 0x40 MSTORE POP DUP2 ADD SWAP1 PUSH3 0x1872 SWAP2 SWAP1 PUSH3 0x3E25 JUMP JUMPDEST POP PUSH1 0x10 SLOAD PUSH1 0xA0 DUP5 ADD MLOAD PUSH1 0x60 DUP6 ADD MLOAD PUSH1 0x40 MLOAD PUSH4 0x2BF1EFD PUSH1 0xE2 SHL DUP2 MSTORE PUSH1 0x1 PUSH1 0x1 PUSH1 0xA0 SHL SUB SWAP1 SWAP4 AND SWAP3 PUSH4 0xAFC7BF4 SWAP3 PUSH3 0x18B4 SWAP3 SWAP1 SWAP2 CALLER SWAP2 SWAP1 DUP8 SWAP1 PUSH1 0x4 ADD PUSH3 0x47AF JUMP JUMPDEST PUSH1 0x0 PUSH1 0x40 MLOAD DUP1 DUP4 SUB DUP2 PUSH1 0x0 DUP8 DUP1 EXTCODESIZE ISZERO DUP1 ISZERO PUSH3 0x18CF JUMPI PUSH1 0x0 DUP1 REVERT JUMPDEST POP GAS CALL ISZERO DUP1 ISZERO PUSH3 0x18E4 JUMPI RETURNDATASIZE PUSH1 0x0 DUP1 RETURNDATACOPY RETURNDATASIZE PUSH1 0x0 REVERT JUMPDEST POP POP POP POP POP PUSH3 0x18FB JUMP JUMPDEST PUSH3 0x18FB DUP6 DUP3 PUSH3 0x279E JUMP JUMPDEST POP POP POP POP POP JUMP JUMPDEST PUSH1 0x13 SLOAD PUSH1 0x1 PUSH1 0x1 PUSH1 0xA0 SHL SUB AND CALLER EQ PUSH3 0x191A JUMPI PUSH1 0x0 DUP1 REVERT JUMPDEST PUSH1 0x0 DUP2 DUP2 MSTORE PUSH1 0xE PUSH1 0x20 MSTORE PUSH1 0x40 SWAP1 DUP2 SWAP1 KECCAK256 SLOAD PUSH1 0x13 SLOAD SWAP2 MLOAD PUSH4 0x6EB1769F PUSH1 0xE1 SHL DUP2 MSTORE PUSH1 0x1 PUSH1 0x1 PUSH1 0xA0 SHL SUB SWAP2 DUP3 AND SWAP3 DUP4 SWAP3 PUSH4 0x23B872DD SWAP3 SWAP2 AND SWAP1 PUSH20 0x1337133713371337133713371337133713371337 SWAP1 DUP5 SWAP1 PUSH4 0xDD62ED3E SWAP1 PUSH3 0x1981 SWAP1 DUP6 SWAP1 ADDRESS SWAP1 PUSH1 0x4 ADD PUSH3 0x4185 JUMP JUMPDEST PUSH1 0x20 PUSH1 0x40 MLOAD DUP1 DUP4 SUB DUP2 DUP7 DUP1 EXTCODESIZE ISZERO DUP1 ISZERO PUSH3 0x199A JUMPI PUSH1 0x0 DUP1 REVERT JUMPDEST POP GAS STATICCALL ISZERO DUP1 ISZERO PUSH3 0x19AF JUMPI RETURNDATASIZE PUSH1 0x0 DUP1 RETURNDATACOPY RETURNDATASIZE PUSH1 0x0 REVERT JUMPDEST POP POP POP POP PUSH1 0x40 MLOAD RETURNDATASIZE PUSH1 0x1F NOT PUSH1 0x1F DUP3 ADD AND DUP3 ADD DUP1 PUSH1 0x40 MSTORE POP DUP2 ADD SWAP1 PUSH3 0x19D5 SWAP2 SWAP1 PUSH3 0x3EC7 JUMP JUMPDEST PUSH1 0x40 MLOAD DUP5 PUSH4 0xFFFFFFFF AND PUSH1 0xE0 SHL DUP2 MSTORE PUSH1 0x4 ADD PUSH3 0x19F5 SWAP4 SWAP3 SWAP2 SWAP1 PUSH3 0x419F JUMP JUMPDEST PUSH1 0x20 PUSH1 0x40 MLOAD DUP1 DUP4 SUB DUP2 PUSH1 0x0 DUP8 DUP1 EXTCODESIZE ISZERO DUP1 ISZERO PUSH3 0x1A10 JUMPI PUSH1 0x0 DUP1 REVERT JUMPDEST POP GAS CALL ISZERO DUP1 ISZERO PUSH3 0x1A25 JUMPI RETURNDATASIZE PUSH1 0x0 DUP1 RETURNDATACOPY RETURNDATASIZE PUSH1 0x0 REVERT JUMPDEST POP POP POP POP PUSH1 0x40 MLOAD RETURNDATASIZE PUSH1 0x1F NOT PUSH1 0x1F DUP3 ADD AND DUP3 ADD DUP1 PUSH1 0x40 MSTORE POP DUP2 ADD SWAP1 PUSH3 0x69C SWAP2 SWAP1 PUSH3 0x3E25 JUMP JUMPDEST PUSH1 0x0 SWAP1 DUP2 MSTORE PUSH1 0xB PUSH1 0x20 MSTORE PUSH1 0x40 SWAP1 KECCAK256 DUP1 SLOAD PUSH1 0x1 PUSH1 0x1 PUSH1 0xA0 SHL SUB NOT AND PUSH1 0x1 PUSH1 0x1 PUSH1 0xA0 SHL SUB SWAP3 SWAP1 SWAP3 AND SWAP2 SWAP1 SWAP2 OR SWAP1 SSTORE JUMP JUMPDEST PUSH1 0x0 DUP2 DUP2 MSTORE PUSH1 0x6 PUSH1 0x20 MSTORE PUSH1 0x40 DUP2 KECCAK256 SLOAD PUSH1 0x1 PUSH1 0x1 PUSH1 0xA0 SHL SUB AND ISZERO PUSH3 0x1AB1 JUMPI PUSH1 0x40 MLOAD PUSH3 0x461BCD PUSH1 0xE5 SHL DUP2 MSTORE PUSH1 0x4 ADD PUSH3 0x5E9 SWAP1 PUSH3 0x465B JUMP JUMPDEST PUSH1 0xA SLOAD PUSH3 0x1AC1 SWAP1 PUSH1 0x1 PUSH3 0x1C81 JUMP JUMPDEST PUSH1 0xA SSTORE PUSH1 0x1 PUSH1 0x1 PUSH1 0xA0 SHL SUB DUP4 AND PUSH1 0x0 SWAP1 DUP2 MSTORE PUSH1 0x3 PUSH1 0x20 MSTORE PUSH1 0x40 SWAP1 KECCAK256 SLOAD PUSH3 0x1AEA SWAP1 PUSH1 0x1 PUSH3 0x1C81 JUMP JUMPDEST PUSH1 0x1 PUSH1 0x1 PUSH1 0xA0 SHL SUB DUP5 AND PUSH1 0x0 DUP2 DUP2 MSTORE PUSH1 0x3 PUSH1 0x20 SWAP1 DUP2 MSTORE PUSH1 0x40 DUP1 DUP4 KECCAK256 SWAP5 SWAP1 SWAP5 SSTORE PUSH1 0x4 DUP1 SLOAD DUP8 DUP5 MSTORE PUSH1 0x2 DUP4 MSTORE DUP6 DUP5 KECCAK256 DUP2 SWAP1 SSTORE PUSH1 0x1 DUP1 DUP3 ADD SWAP1 SWAP3 SSTORE PUSH32 0x8A35ACFBC15FF81A39AE7D344FD709F28E8600B4AA8C65C6B64BFE7FE36BD19B ADD DUP8 SWAP1 SSTORE DUP4 DUP4 MSTORE PUSH1 0x5 DUP3 MSTORE DUP5 DUP4 KECCAK256 DUP1 SLOAD DUP1 DUP4 ADD DUP3 SSTORE SWAP1 DUP5 MSTORE DUP3 DUP5 KECCAK256 ADD DUP8 SWAP1 SSTORE DUP7 DUP4 MSTORE PUSH1 0x6 DUP3 MSTORE DUP5 DUP4 KECCAK256 DUP1 SLOAD PUSH1 0x1 PUSH1 0x1 PUSH1 0xA0 SHL SUB NOT AND DUP6 OR SWAP1 SSTORE DUP4 DUP4 MSTORE PUSH1 0x8 DUP1 DUP4 MSTORE DUP6 DUP5 KECCAK256 SLOAD DUP9 DUP6 MSTORE DUP3 DUP5 MSTORE SWAP6 DUP5 KECCAK256 DUP7 SWAP1 SSTORE SWAP4 SWAP1 SWAP3 MSTORE SWAP2 SWAP1 SWAP2 MSTORE PUSH3 0x1BA8 SWAP2 SWAP1 PUSH3 0x1C81 JUMP JUMPDEST PUSH1 0x1 PUSH1 0x1 PUSH1 0xA0 SHL SUB DUP5 AND PUSH1 0x0 SWAP1 DUP2 MSTORE PUSH1 0x8 PUSH1 0x20 SWAP1 DUP2 MSTORE PUSH1 0x40 DUP1 DUP4 KECCAK256 SWAP4 SWAP1 SWAP4 SSTORE DUP3 MLOAD SWAP1 DUP2 ADD SWAP1 SWAP3 MSTORE DUP1 DUP3 MSTORE PUSH3 0x1BE1 SWAP2 DUP6 SWAP1 DUP6 SWAP1 PUSH3 0x2DB7 JUMP JUMPDEST PUSH3 0x1C00 JUMPI PUSH1 0x40 MLOAD PUSH3 0x461BCD PUSH1 0xE5 SHL DUP2 MSTORE PUSH1 0x4 ADD PUSH3 0x5E9 SWAP1 PUSH3 0x4368 JUMP JUMPDEST PUSH1 0x40 MLOAD DUP3 SWAP1 PUSH1 0x1 PUSH1 0x1 PUSH1 0xA0 SHL SUB DUP6 AND SWAP1 PUSH1 0x0 SWAP1 PUSH32 0xDDF252AD1BE2C89B69C2B068FC378DAA952BA7F163C4A11628F55A4DF523B3EF SWAP1 DUP3 SWAP1 LOG4 POP PUSH1 0x1 SWAP3 SWAP2 POP POP JUMP JUMPDEST PUSH1 0x0 DUP3 PUSH3 0x1C52 JUMPI POP PUSH1 0x0 PUSH3 0x512 JUMP JUMPDEST DUP3 DUP3 MUL DUP3 DUP5 DUP3 DUP2 PUSH3 0x1C60 JUMPI INVALID JUMPDEST DIV EQ PUSH3 0x10A6 JUMPI PUSH1 0x40 MLOAD PUSH3 0x461BCD PUSH1 0xE5 SHL DUP2 MSTORE PUSH1 0x4 ADD PUSH3 0x5E9 SWAP1 PUSH3 0x453A JUMP JUMPDEST PUSH1 0x0 DUP3 DUP3 ADD DUP4 DUP2 LT ISZERO PUSH3 0x10A6 JUMPI PUSH1 0x40 MLOAD PUSH3 0x461BCD PUSH1 0xE5 SHL DUP2 MSTORE PUSH1 0x4 ADD PUSH3 0x5E9 SWAP1 PUSH3 0x43D6 JUMP JUMPDEST PUSH1 0x40 DUP1 MLOAD DUP1 DUP3 ADD SWAP1 SWAP2 MSTORE PUSH1 0xE DUP2 MSTORE PUSH14 0x50454E44494E475F4F5244455253 PUSH1 0x90 SHL PUSH1 0x20 SWAP2 DUP3 ADD MSTORE PUSH1 0x12 DUP2 MSTORE PUSH1 0x0 DUP1 MLOAD PUSH1 0x20 PUSH3 0x5AED DUP4 CODECOPY DUP2 MLOAD SWAP2 MSTORE DUP1 SLOAD PUSH1 0x1 DUP2 ADD DUP3 SSTORE PUSH1 0x0 SWAP2 SWAP1 SWAP2 MSTORE DUP4 MLOAD PUSH32 0x772BE0EA410D083B9FAA7620A637A2EF4D4134620E54336F1B23152F42425556 PUSH1 0x2 SWAP1 SWAP3 MUL SWAP2 DUP3 ADD SSTORE SWAP1 DUP4 ADD MLOAD PUSH32 0x772BE0EA410D083B9FAA7620A637A2EF4D4134620E54336F1B23152F42425557 SWAP1 SWAP2 ADD SSTORE DUP1 PUSH3 0x1DFC JUMPI PUSH1 0x40 DUP1 MLOAD DUP1 DUP3 ADD SWAP1 SWAP2 MSTORE PUSH1 0xA DUP2 MSTORE PUSH10 0x4255595F4F5244455253 PUSH1 0xB0 SHL PUSH1 0x20 SWAP2 DUP3 ADD MSTORE PUSH1 0x12 DUP2 MSTORE PUSH32 0xA856F6F6BA39055E273C3D1058784D00BC2DAB91B2353E69862AB8DF53B0D6A9 DUP1 SLOAD PUSH1 0x1 DUP2 ADD DUP3 SSTORE PUSH1 0x0 SWAP2 SWAP1 SWAP2 MSTORE DUP4 MLOAD PUSH32 0x36EFB38FD59827D5911E3B141A286794701D27E978342642A4E798CCBCB6D0B0 PUSH1 0x2 SWAP1 SWAP3 MUL SWAP2 DUP3 ADD SSTORE SWAP1 DUP4 ADD MLOAD PUSH32 0x36EFB38FD59827D5911E3B141A286794701D27E978342642A4E798CCBCB6D0B1 SWAP1 SWAP2 ADD SSTORE PUSH3 0x1EA8 JUMP JUMPDEST PUSH1 0x40 DUP1 MLOAD DUP1 DUP3 ADD SWAP1 SWAP2 MSTORE PUSH1 0xB DUP2 MSTORE PUSH11 0x53454C4C5F4F5244455253 PUSH1 0xA8 SHL PUSH1 0x20 SWAP2 DUP3 ADD MSTORE PUSH1 0x12 DUP2 MSTORE PUSH32 0x59C3C45DFA5B970085A7D7EA669A7672D22BA456DB726211D2174701A35EEBF DUP1 SLOAD PUSH1 0x1 DUP2 ADD DUP3 SSTORE PUSH1 0x0 SWAP2 SWAP1 SWAP2 MSTORE DUP4 MLOAD PUSH32 0xD3E445F601822A3F1C3E46DEE42BE703AC2B01D125C66D6525359D9D1673B162 PUSH1 0x2 SWAP1 SWAP3 MUL SWAP2 DUP3 ADD SSTORE SWAP1 DUP4 ADD MLOAD PUSH32 0xD3E445F601822A3F1C3E46DEE42BE703AC2B01D125C66D6525359D9D1673B163 SWAP1 SWAP2 ADD SSTORE JUMPDEST POP POP JUMP JUMPDEST PUSH1 0x0 PUSH3 0x1EB8 PUSH3 0x39A6 JUMP JUMPDEST POP PUSH1 0x40 DUP1 MLOAD DUP1 DUP3 ADD SWAP1 SWAP2 MSTORE PUSH1 0xE DUP2 MSTORE PUSH14 0x50454E44494E475F4F5244455253 PUSH1 0x90 SHL PUSH1 0x20 SWAP2 DUP3 ADD MSTORE PUSH1 0x0 DUP1 MLOAD PUSH1 0x20 PUSH3 0x5ACD DUP4 CODECOPY DUP2 MLOAD SWAP2 MSTORE PUSH1 0x0 MSTORE PUSH1 0x12 SWAP1 MSTORE PUSH1 0x0 DUP1 MLOAD PUSH1 0x20 PUSH3 0x5AED DUP4 CODECOPY DUP2 MLOAD SWAP2 MSTORE SLOAD DUP3 SWAP1 PUSH1 0x1 DUP2 EQ ISZERO PUSH3 0x1F1C JUMPI POP POP POP PUSH3 0x279B JUMP JUMPDEST PUSH1 0x0 PUSH3 0x1F2B DUP3 PUSH1 0x1 PUSH3 0x2E9B JUMP JUMPDEST SWAP1 POP PUSH1 0x0 PUSH2 0x3E8 DUP4 GT PUSH3 0x1F41 JUMPI PUSH1 0x0 PUSH3 0x1F45 JUMP JUMPDEST PUSH2 0x3E8 JUMPDEST SWAP1 POP JUMPDEST DUP1 DUP3 LT ISZERO DUP1 ISZERO PUSH3 0x1F57 JUMPI POP DUP5 ISZERO JUMPDEST ISZERO PUSH3 0x7BD JUMPI PUSH3 0x1F67 PUSH3 0x39A6 JUMP JUMPDEST PUSH1 0x40 DUP1 MLOAD DUP1 DUP3 ADD SWAP1 SWAP2 MSTORE PUSH1 0xE DUP2 MSTORE PUSH14 0x50454E44494E475F4F5244455253 PUSH1 0x90 SHL PUSH1 0x20 SWAP2 DUP3 ADD MSTORE PUSH1 0x0 DUP1 MLOAD PUSH1 0x20 PUSH3 0x5ACD DUP4 CODECOPY DUP2 MLOAD SWAP2 MSTORE PUSH1 0x0 SWAP1 DUP2 MSTORE PUSH1 0x12 SWAP1 SWAP2 MSTORE PUSH1 0x0 DUP1 MLOAD PUSH1 0x20 PUSH3 0x5AED DUP4 CODECOPY DUP2 MLOAD SWAP2 MSTORE DUP1 SLOAD PUSH1 0x11 SWAP3 SWAP2 SWAP1 DUP7 SWAP1 DUP2 LT PUSH3 0x1FC9 JUMPI INVALID JUMPDEST PUSH1 0x0 SWAP2 DUP3 MSTORE PUSH1 0x20 DUP1 DUP4 KECCAK256 PUSH1 0x2 SWAP3 DUP4 MUL ADD SLOAD DUP5 MSTORE DUP4 DUP2 ADD SWAP5 SWAP1 SWAP5 MSTORE PUSH1 0x40 SWAP3 DUP4 ADD DUP3 KECCAK256 DUP4 MLOAD PUSH2 0x1C0 DUP2 ADD DUP6 MSTORE DUP2 SLOAD PUSH2 0x180 DUP3 ADD SWAP1 DUP2 MSTORE PUSH1 0x1 DUP4 ADD SLOAD PUSH2 0x1A0 DUP4 ADD MSTORE DUP2 MSTORE SWAP2 DUP2 ADD SLOAD DUP3 DUP7 ADD DUP2 SWAP1 MSTORE PUSH1 0x3 DUP3 ADD SLOAD SWAP5 DUP4 ADD SWAP5 SWAP1 SWAP5 MSTORE PUSH1 0x4 DUP2 ADD SLOAD PUSH1 0x1 PUSH1 0x1 PUSH1 0xA0 SHL SUB SWAP1 DUP2 AND PUSH1 0x60 DUP5 ADD DUP2 SWAP1 MSTORE PUSH1 0x5 DUP4 ADD SLOAD SWAP1 SWAP2 AND PUSH1 0x80 DUP5 ADD MSTORE PUSH1 0x6 DUP3 ADD SLOAD PUSH1 0xA0 DUP1 DUP6 ADD DUP3 SWAP1 MSTORE PUSH1 0x7 DUP5 ADD SLOAD PUSH1 0xC0 DUP7 ADD MSTORE PUSH1 0x8 DUP5 ADD SLOAD PUSH1 0xE0 DUP7 ADD MSTORE PUSH1 0x9 DUP5 ADD SLOAD PUSH2 0x100 DUP7 ADD MSTORE PUSH1 0xA DUP5 ADD SLOAD PUSH2 0x120 DUP7 ADD MSTORE PUSH1 0xB DUP5 ADD SLOAD PUSH2 0x140 DUP7 ADD MSTORE PUSH1 0xC SWAP1 SWAP4 ADD SLOAD PUSH2 0x160 DUP6 ADD MSTORE SWAP2 DUP12 ADD MLOAD SWAP6 DUP12 ADD MLOAD SWAP3 SWAP7 POP SWAP5 EQ SWAP4 SWAP3 EQ SWAP2 ISZERO DUP1 ISZERO SWAP1 PUSH3 0x20BE JUMPI POP PUSH1 0x80 DUP9 ADD MLOAD PUSH1 0x1 PUSH1 0x1 PUSH1 0xA0 SHL SUB AND ISZERO ISZERO JUMPDEST ISZERO PUSH3 0x20E9 JUMPI DUP8 PUSH1 0x80 ADD MLOAD PUSH1 0x1 PUSH1 0x1 PUSH1 0xA0 SHL SUB AND DUP5 PUSH1 0x60 ADD MLOAD PUSH1 0x1 PUSH1 0x1 PUSH1 0xA0 SHL SUB AND EQ SWAP1 POP PUSH3 0x2138 JUMP JUMPDEST PUSH1 0x80 DUP5 ADD MLOAD PUSH1 0x1 PUSH1 0x1 PUSH1 0xA0 SHL SUB AND ISZERO DUP1 ISZERO SWAP1 PUSH3 0x2112 JUMPI POP PUSH1 0x60 DUP9 ADD MLOAD PUSH1 0x1 PUSH1 0x1 PUSH1 0xA0 SHL SUB AND ISZERO ISZERO JUMPDEST ISZERO PUSH3 0x2138 JUMPI DUP8 PUSH1 0x60 ADD MLOAD PUSH1 0x1 PUSH1 0x1 PUSH1 0xA0 SHL SUB AND DUP5 PUSH1 0x80 ADD MLOAD PUSH1 0x1 PUSH1 0x1 PUSH1 0xA0 SHL SUB AND EQ SWAP1 POP JUMPDEST PUSH2 0x160 DUP1 DUP10 ADD MLOAD SWAP1 DUP6 ADD MLOAD EQ PUSH1 0x0 DUP5 DUP1 ISZERO PUSH3 0x2157 JUMPI POP PUSH2 0x120 DUP7 ADD MLOAD ISZERO JUMPDEST DUP1 ISZERO PUSH3 0x2162 JUMPI POP DUP4 ISZERO JUMPDEST DUP1 ISZERO PUSH3 0x216C JUMPI POP DUP2 JUMPDEST DUP1 ISZERO PUSH3 0x2177 JUMPI POP DUP3 ISZERO JUMPDEST SWAP1 POP DUP1 ISZERO PUSH3 0x276E JUMPI PUSH3 0x218A PUSH3 0x39A6 JUMP JUMPDEST PUSH3 0x2194 PUSH3 0x39A6 JUMP JUMPDEST PUSH3 0x219E PUSH3 0x3ACB JUMP JUMPDEST PUSH1 0x20 DUP14 ADD MLOAD PUSH3 0x2281 JUMPI DUP13 SWAP3 POP DUP9 SWAP2 POP PUSH3 0x21BA DUP4 DUP4 PUSH3 0x2EDF JUMP JUMPDEST DUP1 MLOAD DUP5 MLOAD MLOAD PUSH1 0x0 SWAP1 DUP2 MSTORE PUSH1 0x11 PUSH1 0x20 SWAP1 DUP2 MSTORE PUSH1 0x40 SWAP2 DUP3 SWAP1 KECCAK256 DUP3 MLOAD PUSH2 0x1C0 DUP2 ADD DUP5 MSTORE DUP2 SLOAD PUSH2 0x180 DUP3 ADD SWAP1 DUP2 MSTORE PUSH1 0x1 DUP4 ADD SLOAD PUSH2 0x1A0 DUP4 ADD MSTORE DUP2 MSTORE PUSH1 0x2 DUP3 ADD SLOAD SWAP3 DUP2 ADD SWAP3 SWAP1 SWAP3 MSTORE PUSH1 0x3 DUP2 ADD SLOAD SWAP3 DUP3 ADD SWAP3 SWAP1 SWAP3 MSTORE PUSH1 0x4 DUP3 ADD SLOAD PUSH1 0x1 PUSH1 0x1 PUSH1 0xA0 SHL SUB SWAP1 DUP2 AND PUSH1 0x60 DUP4 ADD MSTORE PUSH1 0x5 DUP4 ADD SLOAD AND PUSH1 0x80 DUP3 ADD MSTORE PUSH1 0x6 DUP3 ADD SLOAD PUSH1 0xA0 DUP3 ADD MSTORE PUSH1 0x7 DUP3 ADD SLOAD PUSH1 0xC0 DUP3 ADD MSTORE PUSH1 0x8 DUP3 ADD SLOAD PUSH1 0xE0 DUP3 ADD MSTORE PUSH1 0x9 DUP3 ADD SLOAD PUSH2 0x100 DUP3 ADD MSTORE PUSH1 0xA DUP3 ADD SLOAD PUSH2 0x120 DUP3 ADD MSTORE PUSH1 0xB DUP3 ADD SLOAD PUSH2 0x140 DUP3 ADD MSTORE PUSH1 0xC SWAP1 SWAP2 ADD SLOAD PUSH2 0x160 DUP3 ADD MSTORE SWAP1 SWAP16 POP SWAP14 POP SWAP1 POP PUSH3 0x2363 JUMP JUMPDEST PUSH1 0x1 DUP14 PUSH1 0x20 ADD MLOAD EQ ISZERO PUSH3 0x2363 JUMPI DUP13 SWAP2 POP DUP9 SWAP3 POP PUSH3 0x22A1 DUP4 DUP4 PUSH3 0x2EDF JUMP JUMPDEST DUP1 MLOAD DUP4 MLOAD MLOAD PUSH1 0x0 SWAP1 DUP2 MSTORE PUSH1 0x11 PUSH1 0x20 SWAP1 DUP2 MSTORE PUSH1 0x40 SWAP2 DUP3 SWAP1 KECCAK256 DUP3 MLOAD PUSH2 0x1C0 DUP2 ADD DUP5 MSTORE DUP2 SLOAD PUSH2 0x180 DUP3 ADD SWAP1 DUP2 MSTORE PUSH1 0x1 DUP4 ADD SLOAD PUSH2 0x1A0 DUP4 ADD MSTORE DUP2 MSTORE PUSH1 0x2 DUP3 ADD SLOAD SWAP3 DUP2 ADD SWAP3 SWAP1 SWAP3 MSTORE PUSH1 0x3 DUP2 ADD SLOAD SWAP3 DUP3 ADD SWAP3 SWAP1 SWAP3 MSTORE PUSH1 0x4 DUP3 ADD SLOAD PUSH1 0x1 PUSH1 0x1 PUSH1 0xA0 SHL SUB SWAP1 DUP2 AND PUSH1 0x60 DUP4 ADD MSTORE PUSH1 0x5 DUP4 ADD SLOAD AND PUSH1 0x80 DUP3 ADD MSTORE PUSH1 0x6 DUP3 ADD SLOAD PUSH1 0xA0 DUP3 ADD MSTORE PUSH1 0x7 DUP3 ADD SLOAD PUSH1 0xC0 DUP3 ADD MSTORE PUSH1 0x8 DUP3 ADD SLOAD PUSH1 0xE0 DUP3 ADD MSTORE PUSH1 0x9 DUP3 ADD SLOAD PUSH2 0x100 DUP3 ADD MSTORE PUSH1 0xA DUP3 ADD SLOAD PUSH2 0x120 DUP3 ADD MSTORE PUSH1 0xB DUP3 ADD SLOAD PUSH2 0x140 DUP3 ADD MSTORE PUSH1 0xC SWAP1 SWAP2 ADD SLOAD PUSH2 0x160 DUP3 ADD MSTORE SWAP1 SWAP16 POP SWAP14 POP SWAP1 POP JUMPDEST PUSH1 0x1 DUP4 PUSH2 0x120 ADD MLOAD EQ DUP1 PUSH3 0x237D JUMPI POP PUSH1 0x1 DUP3 PUSH2 0x120 ADD MLOAD EQ JUMPDEST ISZERO PUSH3 0x276A JUMPI PUSH1 0x0 PUSH3 0x23A3 DUP5 PUSH2 0x100 ADD MLOAD DUP4 PUSH1 0x60 ADD MLOAD PUSH3 0x1C41 SWAP1 SWAP2 SWAP1 PUSH4 0xFFFFFFFF AND JUMP JUMPDEST PUSH1 0x40 DUP5 ADD MLOAD SWAP1 SWAP2 POP DUP2 SWAP1 PUSH1 0x1 EQ PUSH3 0x23CE JUMPI PUSH2 0x100 DUP5 ADD MLOAD PUSH1 0x80 DUP5 ADD MLOAD PUSH3 0x23CB SWAP2 PUSH3 0x1C41 JUMP JUMPDEST SWAP1 POP JUMPDEST PUSH1 0x80 DUP6 ADD MLOAD PUSH1 0x1 PUSH1 0x1 PUSH1 0xA0 SHL SUB AND PUSH1 0x0 SWAP1 DUP2 MSTORE PUSH1 0x14 PUSH1 0x20 MSTORE PUSH1 0x40 SWAP1 KECCAK256 SLOAD PUSH3 0x23F7 SWAP1 DUP4 PUSH3 0x2E9B JUMP JUMPDEST PUSH1 0x80 DUP7 ADD MLOAD PUSH1 0x1 PUSH1 0x1 PUSH1 0xA0 SHL SUB SWAP1 DUP2 AND PUSH1 0x0 SWAP1 DUP2 MSTORE PUSH1 0x14 PUSH1 0x20 SWAP1 DUP2 MSTORE PUSH1 0x40 DUP1 DUP4 KECCAK256 SWAP5 SWAP1 SWAP5 SSTORE PUSH1 0xA0 DUP10 ADD MLOAD DUP3 MSTORE PUSH1 0xE SWAP1 MSTORE DUP3 SWAP1 KECCAK256 SLOAD PUSH1 0x13 SLOAD PUSH1 0x60 DUP1 DUP10 ADD MLOAD SWAP1 DUP9 ADD MLOAD SWAP5 MLOAD PUSH4 0x23B872DD PUSH1 0xE0 SHL DUP2 MSTORE SWAP3 DUP5 AND SWAP5 DUP6 SWAP5 PUSH4 0x23B872DD SWAP5 PUSH3 0x2464 SWAP5 SWAP1 SWAP2 AND SWAP3 SWAP2 SWAP1 PUSH1 0x4 ADD PUSH3 0x419F JUMP JUMPDEST PUSH1 0x20 PUSH1 0x40 MLOAD DUP1 DUP4 SUB DUP2 PUSH1 0x0 DUP8 DUP1 EXTCODESIZE ISZERO DUP1 ISZERO PUSH3 0x247F JUMPI PUSH1 0x0 DUP1 REVERT JUMPDEST POP GAS CALL ISZERO DUP1 ISZERO PUSH3 0x2494 JUMPI RETURNDATASIZE PUSH1 0x0 DUP1 RETURNDATACOPY RETURNDATASIZE PUSH1 0x0 REVERT JUMPDEST POP POP POP POP PUSH1 0x40 MLOAD RETURNDATASIZE PUSH1 0x1F NOT PUSH1 0x1F DUP3 ADD AND DUP3 ADD DUP1 PUSH1 0x40 MSTORE POP DUP2 ADD SWAP1 PUSH3 0x24BA SWAP2 SWAP1 PUSH3 0x3E25 JUMP JUMPDEST ISZERO PUSH3 0x252B JUMPI PUSH1 0x60 DUP1 DUP7 ADD MLOAD SWAP1 DUP6 ADD MLOAD PUSH1 0x40 MLOAD PUSH4 0x363798F9 PUSH1 0xE1 SHL DUP2 MSTORE PUSH1 0x1 PUSH1 0x1 PUSH1 0xA0 SHL SUB DUP5 AND SWAP3 PUSH4 0x6C6F31F2 SWAP3 PUSH3 0x24F6 SWAP3 PUSH1 0x4 ADD PUSH3 0x41C3 JUMP JUMPDEST PUSH1 0x0 PUSH1 0x40 MLOAD DUP1 DUP4 SUB DUP2 PUSH1 0x0 DUP8 DUP1 EXTCODESIZE ISZERO DUP1 ISZERO PUSH3 0x2511 JUMPI PUSH1 0x0 DUP1 REVERT JUMPDEST POP GAS CALL ISZERO DUP1 ISZERO PUSH3 0x2526 JUMPI RETURNDATASIZE PUSH1 0x0 DUP1 RETURNDATACOPY RETURNDATASIZE PUSH1 0x0 REVERT JUMPDEST POP POP POP POP JUMPDEST PUSH1 0xF SLOAD PUSH1 0x80 DUP8 ADD MLOAD PUSH1 0x60 DUP1 DUP9 ADD MLOAD PUSH2 0x100 DUP11 ADD MLOAD SWAP2 DUP9 ADD MLOAD PUSH1 0x1 PUSH1 0x1 PUSH1 0xA0 SHL SUB SWAP1 SWAP5 AND SWAP4 PUSH4 0x23B872DD SWAP4 SWAP3 PUSH3 0x2562 SWAP2 SWAP1 PUSH3 0x1C41 JUMP JUMPDEST PUSH1 0x40 MLOAD DUP5 PUSH4 0xFFFFFFFF AND PUSH1 0xE0 SHL DUP2 MSTORE PUSH1 0x4 ADD PUSH3 0x2582 SWAP4 SWAP3 SWAP2 SWAP1 PUSH3 0x419F JUMP JUMPDEST PUSH1 0x20 PUSH1 0x40 MLOAD DUP1 DUP4 SUB DUP2 PUSH1 0x0 DUP8 DUP1 EXTCODESIZE ISZERO DUP1 ISZERO PUSH3 0x259D JUMPI PUSH1 0x0 DUP1 REVERT JUMPDEST POP GAS CALL ISZERO DUP1 ISZERO PUSH3 0x25B2 JUMPI RETURNDATASIZE PUSH1 0x0 DUP1 RETURNDATACOPY RETURNDATASIZE PUSH1 0x0 REVERT JUMPDEST POP POP POP POP PUSH1 0x40 MLOAD RETURNDATASIZE PUSH1 0x1F NOT PUSH1 0x1F DUP3 ADD AND DUP3 ADD DUP1 PUSH1 0x40 MSTORE POP DUP2 ADD SWAP1 PUSH3 0x25D8 SWAP2 SWAP1 PUSH3 0x3E25 JUMP JUMPDEST ISZERO PUSH3 0x2766 JUMPI PUSH1 0xF SLOAD PUSH1 0x60 DUP1 DUP8 ADD MLOAD PUSH2 0x100 DUP10 ADD MLOAD SWAP2 DUP8 ADD MLOAD PUSH1 0x1 PUSH1 0x1 PUSH1 0xA0 SHL SUB SWAP1 SWAP4 AND SWAP3 PUSH4 0x6C6F31F2 SWAP3 PUSH3 0x260F SWAP2 SWAP1 PUSH3 0x1C41 JUMP JUMPDEST PUSH1 0x40 MLOAD DUP4 PUSH4 0xFFFFFFFF AND PUSH1 0xE0 SHL DUP2 MSTORE PUSH1 0x4 ADD PUSH3 0x262E SWAP3 SWAP2 SWAP1 PUSH3 0x41C3 JUMP JUMPDEST PUSH1 0x0 PUSH1 0x40 MLOAD DUP1 DUP4 SUB DUP2 PUSH1 0x0 DUP8 DUP1 EXTCODESIZE ISZERO DUP1 ISZERO PUSH3 0x2649 JUMPI PUSH1 0x0 DUP1 REVERT JUMPDEST POP GAS CALL ISZERO DUP1 ISZERO PUSH3 0x265E JUMPI RETURNDATASIZE PUSH1 0x0 DUP1 RETURNDATACOPY RETURNDATASIZE PUSH1 0x0 REVERT JUMPDEST POP POP POP POP PUSH1 0x60 DUP6 DUP2 ADD MLOAD PUSH1 0x80 DUP9 ADD MLOAD SWAP2 DUP7 ADD MLOAD PUSH1 0x40 MLOAD PUSH4 0x23B872DD PUSH1 0xE0 SHL DUP2 MSTORE PUSH1 0x1 PUSH1 0x1 PUSH1 0xA0 SHL SUB DUP6 AND SWAP4 PUSH4 0x23B872DD SWAP4 PUSH3 0x269F SWAP4 SWAP1 SWAP3 PUSH1 0x4 ADD PUSH3 0x419F JUMP JUMPDEST PUSH1 0x20 PUSH1 0x40 MLOAD DUP1 DUP4 SUB DUP2 PUSH1 0x0 DUP8 DUP1 EXTCODESIZE ISZERO DUP1 ISZERO PUSH3 0x26BA JUMPI PUSH1 0x0 DUP1 REVERT JUMPDEST POP GAS CALL ISZERO DUP1 ISZERO PUSH3 0x26CF JUMPI RETURNDATASIZE PUSH1 0x0 DUP1 RETURNDATACOPY RETURNDATASIZE PUSH1 0x0 REVERT JUMPDEST POP POP POP POP PUSH1 0x40 MLOAD RETURNDATASIZE PUSH1 0x1F NOT PUSH1 0x1F DUP3 ADD AND DUP3 ADD DUP1 PUSH1 0x40 MSTORE POP DUP2 ADD SWAP1 PUSH3 0x26F5 SWAP2 SWAP1 PUSH3 0x3E25 JUMP JUMPDEST ISZERO PUSH3 0x2766 JUMPI PUSH1 0x80 DUP7 ADD MLOAD PUSH1 0x60 DUP6 ADD MLOAD PUSH1 0x40 MLOAD PUSH4 0x363798F9 PUSH1 0xE1 SHL DUP2 MSTORE PUSH1 0x1 PUSH1 0x1 PUSH1 0xA0 SHL SUB DUP5 AND SWAP3 PUSH4 0x6C6F31F2 SWAP3 PUSH3 0x2731 SWAP3 PUSH1 0x4 ADD PUSH3 0x41C3 JUMP JUMPDEST PUSH1 0x0 PUSH1 0x40 MLOAD DUP1 DUP4 SUB DUP2 PUSH1 0x0 DUP8 DUP1 EXTCODESIZE ISZERO DUP1 ISZERO PUSH3 0x274C JUMPI PUSH1 0x0 DUP1 REVERT JUMPDEST POP GAS CALL ISZERO DUP1 ISZERO PUSH3 0x2761 JUMPI RETURNDATASIZE PUSH1 0x0 DUP1 RETURNDATACOPY RETURNDATASIZE PUSH1 0x0 REVERT JUMPDEST POP POP POP POP JUMPDEST POP POP POP JUMPDEST POP POP POP JUMPDEST DUP8 PUSH3 0x2780 JUMPI POP POP POP POP POP POP PUSH3 0x7BD JUMP JUMPDEST PUSH3 0x278D DUP9 PUSH1 0x1 PUSH3 0x2E9B JUMP JUMPDEST SWAP8 POP POP POP POP POP POP POP PUSH3 0x1F48 JUMP JUMPDEST POP JUMP JUMPDEST CALLER PUSH3 0x27A9 PUSH3 0x39A6 JUMP JUMPDEST POP PUSH1 0x0 DUP4 DUP2 MSTORE PUSH1 0x11 PUSH1 0x20 SWAP1 DUP2 MSTORE PUSH1 0x40 SWAP2 DUP3 SWAP1 KECCAK256 DUP3 MLOAD PUSH2 0x1C0 DUP2 ADD DUP5 MSTORE DUP2 SLOAD PUSH2 0x180 DUP3 ADD SWAP1 DUP2 MSTORE PUSH1 0x1 DUP4 ADD SLOAD PUSH2 0x1A0 DUP4 ADD MSTORE DUP2 MSTORE PUSH1 0x2 DUP3 ADD SLOAD SWAP3 DUP2 ADD SWAP3 SWAP1 SWAP3 MSTORE PUSH1 0x3 DUP2 ADD SLOAD SWAP3 DUP3 ADD SWAP3 SWAP1 SWAP3 MSTORE PUSH1 0x4 DUP3 ADD SLOAD PUSH1 0x1 PUSH1 0x1 PUSH1 0xA0 SHL SUB SWAP1 DUP2 AND PUSH1 0x60 DUP4 ADD MSTORE PUSH1 0x5 DUP4 ADD SLOAD AND PUSH1 0x80 DUP3 ADD MSTORE PUSH1 0x6 DUP3 ADD SLOAD PUSH1 0xA0 DUP3 ADD MSTORE PUSH1 0x7 DUP3 ADD SLOAD PUSH1 0xC0 DUP3 ADD MSTORE PUSH1 0x8 DUP3 ADD SLOAD PUSH1 0xE0 DUP3 ADD MSTORE PUSH1 0x9 DUP3 ADD SLOAD PUSH2 0x100 DUP3 ADD MSTORE PUSH1 0xA DUP3 ADD SLOAD PUSH2 0x120 DUP3 ADD MSTORE PUSH1 0xB DUP3 ADD SLOAD PUSH2 0x140 DUP3 ADD MSTORE PUSH1 0xC SWAP1 SWAP2 ADD SLOAD PUSH2 0x160 DUP3 ADD MSTORE DUP3 PUSH3 0x287F JUMPI PUSH1 0x40 MLOAD PUSH3 0x461BCD PUSH1 0xE5 SHL DUP2 MSTORE PUSH1 0x4 ADD PUSH3 0x5E9 SWAP1 PUSH3 0x43BA JUMP JUMPDEST DUP1 PUSH1 0xC0 ADD MLOAD DUP4 GT ISZERO PUSH3 0x28A6 JUMPI PUSH1 0x40 MLOAD PUSH3 0x461BCD PUSH1 0xE5 SHL DUP2 MSTORE PUSH1 0x4 ADD PUSH3 0x5E9 SWAP1 PUSH3 0x4330 JUMP JUMPDEST DUP2 PUSH1 0x1 PUSH1 0x1 PUSH1 0xA0 SHL SUB AND DUP2 PUSH1 0x60 ADD MLOAD PUSH1 0x1 PUSH1 0x1 PUSH1 0xA0 SHL SUB AND EQ ISZERO PUSH3 0x28DF JUMPI PUSH1 0x40 MLOAD PUSH3 0x461BCD PUSH1 0xE5 SHL DUP2 MSTORE PUSH1 0x4 ADD PUSH3 0x5E9 SWAP1 PUSH3 0x4444 JUMP JUMPDEST PUSH1 0x0 PUSH3 0x28FB DUP3 PUSH2 0x100 ADD MLOAD DUP6 PUSH3 0x1C41 SWAP1 SWAP2 SWAP1 PUSH4 0xFFFFFFFF AND JUMP JUMPDEST PUSH1 0xF SLOAD PUSH1 0x40 MLOAD PUSH4 0x6EB1769F PUSH1 0xE1 SHL DUP2 MSTORE SWAP2 SWAP3 POP PUSH1 0x0 SWAP2 PUSH1 0x1 PUSH1 0x1 PUSH1 0xA0 SHL SUB SWAP1 SWAP2 AND SWAP1 PUSH4 0xDD62ED3E SWAP1 PUSH3 0x2935 SWAP1 DUP8 SWAP1 ADDRESS SWAP1 PUSH1 0x4 ADD PUSH3 0x4185 JUMP JUMPDEST PUSH1 0x20 PUSH1 0x40 MLOAD DUP1 DUP4 SUB DUP2 DUP7 DUP1 EXTCODESIZE ISZERO DUP1 ISZERO PUSH3 0x294E JUMPI PUSH1 0x0 DUP1 REVERT JUMPDEST POP GAS STATICCALL ISZERO DUP1 ISZERO PUSH3 0x2963 JUMPI RETURNDATASIZE PUSH1 0x0 DUP1 RETURNDATACOPY RETURNDATASIZE PUSH1 0x0 REVERT JUMPDEST POP POP POP POP PUSH1 0x40 MLOAD RETURNDATASIZE PUSH1 0x1F NOT PUSH1 0x1F DUP3 ADD AND DUP3 ADD DUP1 PUSH1 0x40 MSTORE POP DUP2 ADD SWAP1 PUSH3 0x2989 SWAP2 SWAP1 PUSH3 0x3EC7 JUMP JUMPDEST SWAP1 POP DUP2 DUP2 LT PUSH3 0x12F1 JUMPI PUSH1 0xA0 DUP4 ADD MLOAD PUSH1 0x0 SWAP1 DUP2 MSTORE PUSH1 0xE PUSH1 0x20 MSTORE PUSH1 0x40 SWAP1 DUP2 SWAP1 KECCAK256 SLOAD PUSH1 0x13 SLOAD PUSH1 0x60 DUP7 ADD MLOAD SWAP3 MLOAD PUSH4 0x23B872DD PUSH1 0xE0 SHL DUP2 MSTORE PUSH1 0x1 PUSH1 0x1 PUSH1 0xA0 SHL SUB SWAP3 DUP4 AND SWAP4 DUP5 SWAP4 PUSH4 0x23B872DD SWAP4 PUSH3 0x29E5 SWAP4 SWAP2 AND SWAP2 SWAP1 DUP12 SWAP1 PUSH1 0x4 ADD PUSH3 0x419F JUMP JUMPDEST PUSH1 0x20 PUSH1 0x40 MLOAD DUP1 DUP4 SUB DUP2 PUSH1 0x0 DUP8 DUP1 EXTCODESIZE ISZERO DUP1 ISZERO PUSH3 0x2A00 JUMPI PUSH1 0x0 DUP1 REVERT JUMPDEST POP GAS CALL ISZERO DUP1 ISZERO PUSH3 0x2A15 JUMPI RETURNDATASIZE PUSH1 0x0 DUP1 RETURNDATACOPY RETURNDATASIZE PUSH1 0x0 REVERT JUMPDEST POP POP POP POP PUSH1 0x40 MLOAD RETURNDATASIZE PUSH1 0x1F NOT PUSH1 0x1F DUP3 ADD AND DUP3 ADD DUP1 PUSH1 0x40 MSTORE POP DUP2 ADD SWAP1 PUSH3 0x2A3B SWAP2 SWAP1 PUSH3 0x3E25 JUMP JUMPDEST ISZERO PUSH3 0x2AAF JUMPI PUSH1 0x60 DUP5 ADD MLOAD PUSH1 0x40 MLOAD PUSH4 0x363798F9 PUSH1 0xE1 SHL DUP2 MSTORE PUSH1 0x1 PUSH1 0x1 PUSH1 0xA0 SHL SUB DUP4 AND SWAP2 PUSH4 0x6C6F31F2 SWAP2 PUSH3 0x2A75 SWAP2 SWAP1 DUP11 SWAP1 PUSH1 0x4 ADD PUSH3 0x41C3 JUMP JUMPDEST PUSH1 0x0 PUSH1 0x40 MLOAD DUP1 DUP4 SUB DUP2 PUSH1 0x0 DUP8 DUP1 EXTCODESIZE ISZERO DUP1 ISZERO PUSH3 0x2A90 JUMPI PUSH1 0x0 DUP1 REVERT JUMPDEST POP GAS CALL ISZERO DUP1 ISZERO PUSH3 0x2AA5 JUMPI RETURNDATASIZE PUSH1 0x0 DUP1 RETURNDATACOPY RETURNDATASIZE PUSH1 0x0 REVERT JUMPDEST POP POP POP POP PUSH3 0x2AC9 JUMP JUMPDEST PUSH1 0x40 MLOAD PUSH3 0x461BCD PUSH1 0xE5 SHL DUP2 MSTORE PUSH1 0x4 ADD PUSH3 0x5E9 SWAP1 PUSH3 0x46A5 JUMP JUMPDEST PUSH1 0xF SLOAD PUSH1 0x60 DUP6 ADD MLOAD PUSH1 0x40 MLOAD PUSH4 0x23B872DD PUSH1 0xE0 SHL DUP2 MSTORE PUSH1 0x1 PUSH1 0x1 PUSH1 0xA0 SHL SUB SWAP1 SWAP3 AND SWAP2 PUSH4 0x23B872DD SWAP2 PUSH3 0x2B03 SWAP2 DUP10 SWAP2 SWAP1 DUP9 SWAP1 PUSH1 0x4 ADD PUSH3 0x419F JUMP JUMPDEST PUSH1 0x20 PUSH1 0x40 MLOAD DUP1 DUP4 SUB DUP2 PUSH1 0x0 DUP8 DUP1 EXTCODESIZE ISZERO DUP1 ISZERO PUSH3 0x2B1E JUMPI PUSH1 0x0 DUP1 REVERT JUMPDEST POP GAS CALL ISZERO DUP1 ISZERO PUSH3 0x2B33 JUMPI RETURNDATASIZE PUSH1 0x0 DUP1 RETURNDATACOPY RETURNDATASIZE PUSH1 0x0 REVERT JUMPDEST POP POP POP POP PUSH1 0x40 MLOAD RETURNDATASIZE PUSH1 0x1F NOT PUSH1 0x1F DUP3 ADD AND DUP3 ADD DUP1 PUSH1 0x40 MSTORE POP DUP2 ADD SWAP1 PUSH3 0x2B59 SWAP2 SWAP1 PUSH3 0x3E25 JUMP JUMPDEST ISZERO PUSH3 0x2CC6 JUMPI PUSH1 0xF SLOAD PUSH1 0x60 DUP6 ADD MLOAD PUSH1 0x40 MLOAD PUSH4 0x363798F9 PUSH1 0xE1 SHL DUP2 MSTORE PUSH1 0x1 PUSH1 0x1 PUSH1 0xA0 SHL SUB SWAP1 SWAP3 AND SWAP2 PUSH4 0x6C6F31F2 SWAP2 PUSH3 0x2B96 SWAP2 DUP8 SWAP1 PUSH1 0x4 ADD PUSH3 0x41C3 JUMP JUMPDEST PUSH1 0x0 PUSH1 0x40 MLOAD DUP1 DUP4 SUB DUP2 PUSH1 0x0 DUP8 DUP1 EXTCODESIZE ISZERO DUP1 ISZERO PUSH3 0x2BB1 JUMPI PUSH1 0x0 DUP1 REVERT JUMPDEST POP GAS CALL ISZERO DUP1 ISZERO PUSH3 0x2BC6 JUMPI RETURNDATASIZE PUSH1 0x0 DUP1 RETURNDATACOPY RETURNDATASIZE PUSH1 0x0 REVERT JUMPDEST POP POP POP PUSH1 0x60 DUP6 ADD MLOAD PUSH1 0x40 MLOAD PUSH4 0x23B872DD PUSH1 0xE0 SHL DUP2 MSTORE PUSH1 0x1 PUSH1 0x1 PUSH1 0xA0 SHL SUB DUP5 AND SWAP3 POP PUSH4 0x23B872DD SWAP2 PUSH3 0x2BFF SWAP2 DUP10 SWAP1 DUP12 SWAP1 PUSH1 0x4 ADD PUSH3 0x419F JUMP JUMPDEST PUSH1 0x20 PUSH1 0x40 MLOAD DUP1 DUP4 SUB DUP2 PUSH1 0x0 DUP8 DUP1 EXTCODESIZE ISZERO DUP1 ISZERO PUSH3 0x2C1A JUMPI PUSH1 0x0 DUP1 REVERT JUMPDEST POP GAS CALL ISZERO DUP1 ISZERO PUSH3 0x2C2F JUMPI RETURNDATASIZE PUSH1 0x0 DUP1 RETURNDATACOPY RETURNDATASIZE PUSH1 0x0 REVERT JUMPDEST POP POP POP POP PUSH1 0x40 MLOAD RETURNDATASIZE PUSH1 0x1F NOT PUSH1 0x1F DUP3 ADD AND DUP3 ADD DUP1 PUSH1 0x40 MSTORE POP DUP2 ADD SWAP1 PUSH3 0x2C55 SWAP2 SWAP1 PUSH3 0x3E25 JUMP JUMPDEST ISZERO PUSH3 0x2CC0 JUMPI PUSH1 0x40 MLOAD PUSH4 0x363798F9 PUSH1 0xE1 SHL DUP2 MSTORE PUSH1 0x1 PUSH1 0x1 PUSH1 0xA0 SHL SUB DUP3 AND SWAP1 PUSH4 0x6C6F31F2 SWAP1 PUSH3 0x2C8B SWAP1 DUP9 SWAP1 DUP11 SWAP1 PUSH1 0x4 ADD PUSH3 0x41C3 JUMP JUMPDEST PUSH1 0x0 PUSH1 0x40 MLOAD DUP1 DUP4 SUB DUP2 PUSH1 0x0 DUP8 DUP1 EXTCODESIZE ISZERO DUP1 ISZERO PUSH3 0x2CA6 JUMPI PUSH1 0x0 DUP1 REVERT JUMPDEST POP GAS CALL ISZERO DUP1 ISZERO PUSH3 0x2CBB JUMPI RETURNDATASIZE PUSH1 0x0 DUP1 RETURNDATACOPY RETURNDATASIZE PUSH1 0x0 REVERT JUMPDEST POP POP POP POP JUMPDEST PUSH3 0x2CE0 JUMP JUMPDEST PUSH1 0x40 MLOAD PUSH3 0x461BCD PUSH1 0xE5 SHL DUP2 MSTORE PUSH1 0x4 ADD PUSH3 0x5E9 SWAP1 PUSH3 0x4504 JUMP JUMPDEST PUSH1 0xC0 DUP5 ADD DUP1 MLOAD DUP8 SWAP1 SUB SWAP1 MSTORE PUSH3 0x2CF6 DUP5 PUSH3 0x3288 JUMP JUMPDEST POP DUP3 MLOAD MLOAD PUSH1 0x0 SWAP1 DUP2 MSTORE PUSH1 0x11 PUSH1 0x20 SWAP1 DUP2 MSTORE PUSH1 0x40 SWAP2 DUP3 SWAP1 KECCAK256 DUP6 MLOAD DUP1 MLOAD DUP3 SSTORE DUP3 ADD MLOAD PUSH1 0x1 DUP3 ADD SSTORE SWAP1 DUP6 ADD MLOAD PUSH1 0x2 DUP3 ADD SSTORE SWAP1 DUP5 ADD MLOAD PUSH1 0x3 DUP3 ADD SSTORE PUSH1 0x60 DUP5 ADD MLOAD PUSH1 0x4 DUP3 ADD DUP1 SLOAD PUSH1 0x1 PUSH1 0x1 PUSH1 0xA0 SHL SUB SWAP3 DUP4 AND PUSH1 0x1 PUSH1 0x1 PUSH1 0xA0 SHL SUB NOT SWAP2 DUP3 AND OR SWAP1 SWAP2 SSTORE PUSH1 0x80 DUP7 ADD MLOAD PUSH1 0x5 DUP5 ADD DUP1 SLOAD SWAP2 SWAP1 SWAP4 AND SWAP2 AND OR SWAP1 SSTORE PUSH1 0xA0 DUP5 ADD MLOAD PUSH1 0x6 DUP3 ADD SSTORE PUSH1 0xC0 DUP5 ADD MLOAD PUSH1 0x7 DUP3 ADD SSTORE PUSH1 0xE0 DUP5 ADD MLOAD PUSH1 0x8 DUP3 ADD SSTORE PUSH2 0x100 DUP5 ADD MLOAD PUSH1 0x9 DUP3 ADD SSTORE PUSH2 0x120 DUP5 ADD MLOAD PUSH1 0xA DUP3 ADD SSTORE PUSH2 0x140 DUP5 ADD MLOAD PUSH1 0xB DUP3 ADD SSTORE PUSH2 0x160 DUP5 ADD MLOAD PUSH1 0xC SWAP1 SWAP2 ADD SSTORE PUSH3 0x7BD JUMP JUMPDEST PUSH1 0x0 PUSH3 0x2DCD DUP5 PUSH1 0x1 PUSH1 0x1 PUSH1 0xA0 SHL SUB AND PUSH3 0x37A1 JUMP JUMPDEST PUSH3 0x2DDB JUMPI POP PUSH1 0x1 PUSH3 0x2E93 JUMP JUMPDEST PUSH1 0x60 PUSH3 0x2E61 PUSH4 0x150B7A02 PUSH1 0xE0 SHL CALLER DUP9 DUP8 DUP8 PUSH1 0x40 MLOAD PUSH1 0x24 ADD PUSH3 0x2E02 SWAP5 SWAP4 SWAP3 SWAP2 SWAP1 PUSH3 0x4146 JUMP JUMPDEST PUSH1 0x40 MLOAD PUSH1 0x20 DUP2 DUP4 SUB SUB DUP2 MSTORE SWAP1 PUSH1 0x40 MSTORE SWAP1 PUSH1 0x1 PUSH1 0x1 PUSH1 0xE0 SHL SUB NOT AND PUSH1 0x20 DUP3 ADD DUP1 MLOAD PUSH1 0x1 PUSH1 0x1 PUSH1 0xE0 SHL SUB DUP4 DUP2 DUP4 AND OR DUP4 MSTORE POP POP POP POP PUSH1 0x40 MLOAD DUP1 PUSH1 0x60 ADD PUSH1 0x40 MSTORE DUP1 PUSH1 0x32 DUP2 MSTORE PUSH1 0x20 ADD PUSH3 0x5A9B PUSH1 0x32 SWAP2 CODECOPY PUSH1 0x1 PUSH1 0x1 PUSH1 0xA0 SHL SUB DUP9 AND SWAP2 SWAP1 PUSH3 0x37A7 JUMP JUMPDEST SWAP1 POP PUSH1 0x0 DUP2 DUP1 PUSH1 0x20 ADD SWAP1 MLOAD DUP2 ADD SWAP1 PUSH3 0x2E7B SWAP2 SWAP1 PUSH3 0x3EA8 JUMP JUMPDEST PUSH1 0x1 PUSH1 0x1 PUSH1 0xE0 SHL SUB NOT AND PUSH4 0xA85BD01 PUSH1 0xE1 SHL EQ SWAP3 POP POP POP JUMPDEST SWAP5 SWAP4 POP POP POP POP JUMP JUMPDEST PUSH1 0x0 PUSH3 0x10A6 DUP4 DUP4 PUSH1 0x40 MLOAD DUP1 PUSH1 0x40 ADD PUSH1 0x40 MSTORE DUP1 PUSH1 0x1E DUP2 MSTORE PUSH1 0x20 ADD PUSH32 0x536166654D6174683A207375627472616374696F6E206F766572666C6F770000 DUP2 MSTORE POP PUSH3 0x37B8 JUMP JUMPDEST PUSH3 0x2EE9 PUSH3 0x3ACB JUMP JUMPDEST POP PUSH1 0x40 DUP1 MLOAD PUSH1 0xA0 DUP2 ADD DUP3 MSTORE PUSH1 0x0 DUP1 DUP3 MSTORE PUSH1 0x20 DUP3 ADD DUP2 SWAP1 MSTORE SWAP2 DUP2 ADD DUP3 SWAP1 MSTORE PUSH1 0x60 DUP2 ADD DUP3 SWAP1 MSTORE PUSH1 0x80 DUP2 ADD SWAP2 SWAP1 SWAP2 MSTORE PUSH1 0xC0 DUP1 DUP5 ADD MLOAD SWAP1 DUP4 ADD MLOAD PUSH2 0x140 DUP6 ADD MLOAD ISZERO DUP1 ISZERO SWAP1 PUSH3 0x2F38 JUMPI POP TIMESTAMP DUP6 PUSH2 0x140 ADD MLOAD LT JUMPDEST ISZERO PUSH3 0x2F46 JUMPI PUSH1 0x1 PUSH1 0x20 DUP5 ADD MSTORE JUMPDEST PUSH1 0x0 DUP5 PUSH2 0x140 ADD MLOAD GT DUP1 ISZERO PUSH3 0x2F60 JUMPI POP TIMESTAMP DUP5 PUSH2 0x140 ADD MLOAD LT JUMPDEST ISZERO PUSH3 0x2F6E JUMPI PUSH1 0x1 PUSH1 0x40 DUP5 ADD MSTORE JUMPDEST DUP4 PUSH2 0x100 ADD MLOAD DUP6 PUSH2 0x100 ADD MLOAD LT ISZERO DUP1 ISZERO PUSH3 0x2F99 JUMPI POP PUSH1 0x20 DUP4 ADD MLOAD ISZERO DUP1 ISZERO PUSH3 0x2F99 JUMPI POP PUSH1 0x40 DUP4 ADD MLOAD ISZERO JUMPDEST ISZERO PUSH3 0x3011 JUMPI DUP1 DUP3 EQ ISZERO PUSH3 0x2FBB JUMPI PUSH3 0x2FB5 DUP4 DUP7 DUP7 PUSH3 0x37E7 JUMP JUMPDEST PUSH3 0x300B JUMP JUMPDEST DUP1 DUP3 GT DUP1 ISZERO PUSH3 0x2FD0 JUMPI POP PUSH1 0x1 DUP6 PUSH1 0x40 ADD MLOAD EQ ISZERO JUMPDEST ISZERO PUSH3 0x2FE3 JUMPI PUSH3 0x2FB5 DUP4 DUP7 DUP7 PUSH3 0x381F JUMP JUMPDEST DUP1 DUP3 LT DUP1 ISZERO PUSH3 0x2FF8 JUMPI POP PUSH1 0x1 DUP5 PUSH1 0x40 ADD MLOAD EQ ISZERO JUMPDEST ISZERO PUSH3 0x300B JUMPI PUSH3 0x300B DUP4 DUP7 DUP7 PUSH3 0x385C JUMP JUMPDEST PUSH3 0x3094 JUMP JUMPDEST PUSH1 0x4 DUP5 PUSH1 0x40 ADD MLOAD EQ DUP1 ISZERO PUSH3 0x3028 JUMPI POP PUSH1 0x40 DUP4 ADD MLOAD ISZERO JUMPDEST ISZERO PUSH3 0x3094 JUMPI DUP1 DUP3 EQ ISZERO PUSH3 0x3044 JUMPI PUSH3 0x300B DUP4 DUP7 DUP7 PUSH3 0x37E7 JUMP JUMPDEST DUP1 DUP3 GT DUP1 ISZERO PUSH3 0x3059 JUMPI POP PUSH1 0x1 DUP6 PUSH1 0x40 ADD MLOAD EQ ISZERO JUMPDEST ISZERO PUSH3 0x306C JUMPI PUSH3 0x300B DUP4 DUP7 DUP7 PUSH3 0x381F JUMP JUMPDEST DUP1 DUP3 LT DUP1 ISZERO PUSH3 0x3081 JUMPI POP PUSH1 0x1 DUP5 PUSH1 0x40 ADD MLOAD EQ ISZERO JUMPDEST ISZERO PUSH3 0x3094 JUMPI PUSH3 0x3094 DUP4 DUP7 DUP7 PUSH3 0x385C JUMP JUMPDEST DUP4 PUSH1 0x11 PUSH1 0x0 DUP7 PUSH1 0x0 ADD MLOAD PUSH1 0x0 ADD MLOAD DUP2 MSTORE PUSH1 0x20 ADD SWAP1 DUP2 MSTORE PUSH1 0x20 ADD PUSH1 0x0 KECCAK256 PUSH1 0x0 DUP3 ADD MLOAD DUP2 PUSH1 0x0 ADD PUSH1 0x0 DUP3 ADD MLOAD DUP2 PUSH1 0x0 ADD SSTORE PUSH1 0x20 DUP3 ADD MLOAD DUP2 PUSH1 0x1 ADD SSTORE POP POP PUSH1 0x20 DUP3 ADD MLOAD DUP2 PUSH1 0x2 ADD SSTORE PUSH1 0x40 DUP3 ADD MLOAD DUP2 PUSH1 0x3 ADD SSTORE PUSH1 0x60 DUP3 ADD MLOAD DUP2 PUSH1 0x4 ADD PUSH1 0x0 PUSH2 0x100 EXP DUP2 SLOAD DUP2 PUSH1 0x1 PUSH1 0x1 PUSH1 0xA0 SHL SUB MUL NOT AND SWAP1 DUP4 PUSH1 0x1 PUSH1 0x1 PUSH1 0xA0 SHL SUB AND MUL OR SWAP1 SSTORE POP PUSH1 0x80 DUP3 ADD MLOAD DUP2 PUSH1 0x5 ADD PUSH1 0x0 PUSH2 0x100 EXP DUP2 SLOAD DUP2 PUSH1 0x1 PUSH1 0x1 PUSH1 0xA0 SHL SUB MUL NOT AND SWAP1 DUP4 PUSH1 0x1 PUSH1 0x1 PUSH1 0xA0 SHL SUB AND MUL OR SWAP1 SSTORE POP PUSH1 0xA0 DUP3 ADD MLOAD DUP2 PUSH1 0x6 ADD SSTORE PUSH1 0xC0 DUP3 ADD MLOAD DUP2 PUSH1 0x7 ADD SSTORE PUSH1 0xE0 DUP3 ADD MLOAD DUP2 PUSH1 0x8 ADD SSTORE PUSH2 0x100 DUP3 ADD MLOAD DUP2 PUSH1 0x9 ADD SSTORE PUSH2 0x120 DUP3 ADD MLOAD DUP2 PUSH1 0xA ADD SSTORE PUSH2 0x140 DUP3 ADD MLOAD DUP2 PUSH1 0xB ADD SSTORE PUSH2 0x160 DUP3 ADD MLOAD DUP2 PUSH1 0xC ADD SSTORE SWAP1 POP POP DUP5 PUSH1 0x11 PUSH1 0x0 DUP8 PUSH1 0x0 ADD MLOAD PUSH1 0x0 ADD MLOAD DUP2 MSTORE PUSH1 0x20 ADD SWAP1 DUP2 MSTORE PUSH1 0x20 ADD PUSH1 0x0 KECCAK256 PUSH1 0x0 DUP3 ADD MLOAD DUP2 PUSH1 0x0 ADD PUSH1 0x0 DUP3 ADD MLOAD DUP2 PUSH1 0x0 ADD SSTORE PUSH1 0x20 DUP3 ADD MLOAD DUP2 PUSH1 0x1 ADD SSTORE POP POP PUSH1 0x20 DUP3 ADD MLOAD DUP2 PUSH1 0x2 ADD SSTORE PUSH1 0x40 DUP3 ADD MLOAD DUP2 PUSH1 0x3 ADD SSTORE PUSH1 0x60 DUP3 ADD MLOAD DUP2 PUSH1 0x4 ADD PUSH1 0x0 PUSH2 0x100 EXP DUP2 SLOAD DUP2 PUSH1 0x1 PUSH1 0x1 PUSH1 0xA0 SHL SUB MUL NOT AND SWAP1 DUP4 PUSH1 0x1 PUSH1 0x1 PUSH1 0xA0 SHL SUB AND MUL OR SWAP1 SSTORE POP PUSH1 0x80 DUP3 ADD MLOAD DUP2 PUSH1 0x5 ADD PUSH1 0x0 PUSH2 0x100 EXP DUP2 SLOAD DUP2 PUSH1 0x1 PUSH1 0x1 PUSH1 0xA0 SHL SUB MUL NOT AND SWAP1 DUP4 PUSH1 0x1 PUSH1 0x1 PUSH1 0xA0 SHL SUB AND MUL OR SWAP1 SSTORE POP PUSH1 0xA0 DUP3 ADD MLOAD DUP2 PUSH1 0x6 ADD SSTORE PUSH1 0xC0 DUP3 ADD MLOAD DUP2 PUSH1 0x7 ADD SSTORE PUSH1 0xE0 DUP3 ADD MLOAD DUP2 PUSH1 0x8 ADD SSTORE PUSH2 0x100 DUP3 ADD MLOAD DUP2 PUSH1 0x9 ADD SSTORE PUSH2 0x120 DUP3 ADD MLOAD DUP2 PUSH1 0xA ADD SSTORE PUSH2 0x140 DUP3 ADD MLOAD DUP2 PUSH1 0xB ADD SSTORE PUSH2 0x160 DUP3 ADD MLOAD DUP2 PUSH1 0xC ADD SSTORE SWAP1 POP POP POP POP SWAP3 SWAP2 POP POP JUMP JUMPDEST PUSH3 0x3292 PUSH3 0x3AB4 JUMP JUMPDEST POP DUP1 MLOAD PUSH1 0x40 DUP1 MLOAD DUP1 DUP3 ADD SWAP1 SWAP2 MSTORE PUSH1 0xE DUP2 MSTORE PUSH14 0x50454E44494E475F4F5244455253 PUSH1 0x90 SHL PUSH1 0x20 SWAP2 DUP3 ADD MSTORE PUSH1 0x0 DUP1 MLOAD PUSH1 0x20 PUSH3 0x5ACD DUP4 CODECOPY DUP2 MLOAD SWAP2 MSTORE PUSH1 0x0 MSTORE PUSH1 0x12 SWAP1 MSTORE PUSH1 0x0 DUP1 MLOAD PUSH1 0x20 PUSH3 0x5AED DUP4 CODECOPY DUP2 MLOAD SWAP2 MSTORE SLOAD PUSH3 0x32EF JUMPI POP PUSH3 0x279B JUMP JUMPDEST PUSH1 0x40 DUP1 MLOAD DUP1 DUP3 ADD SWAP1 SWAP2 MSTORE PUSH1 0xE DUP2 MSTORE PUSH14 0x50454E44494E475F4F5244455253 PUSH1 0x90 SHL PUSH1 0x20 SWAP2 DUP3 ADD MSTORE PUSH1 0x0 DUP1 MLOAD PUSH1 0x20 PUSH3 0x5ACD DUP4 CODECOPY DUP2 MLOAD SWAP2 MSTORE PUSH1 0x0 MSTORE PUSH1 0x12 SWAP1 MSTORE PUSH1 0x0 DUP1 MLOAD PUSH1 0x20 PUSH3 0x5AED DUP4 CODECOPY DUP2 MLOAD SWAP2 MSTORE SLOAD PUSH1 0x1 EQ ISZERO PUSH3 0x33C2 JUMPI PUSH1 0x40 DUP1 MLOAD DUP1 DUP3 ADD SWAP1 SWAP2 MSTORE PUSH1 0xE DUP2 MSTORE PUSH14 0x50454E44494E475F4F5244455253 PUSH1 0x90 SHL PUSH1 0x20 SWAP2 DUP3 ADD MSTORE PUSH1 0x0 DUP1 MLOAD PUSH1 0x20 PUSH3 0x5ACD DUP4 CODECOPY DUP2 MLOAD SWAP2 MSTORE PUSH1 0x0 MSTORE PUSH1 0x12 SWAP1 MSTORE PUSH1 0x0 DUP1 MLOAD PUSH1 0x20 PUSH3 0x5AED DUP4 CODECOPY DUP2 MLOAD SWAP2 MSTORE DUP1 SLOAD DUP1 PUSH3 0x339D JUMPI INVALID JUMPDEST PUSH1 0x0 DUP3 DUP2 MSTORE PUSH1 0x20 DUP2 KECCAK256 PUSH1 0x2 PUSH1 0x0 NOT SWAP1 SWAP4 ADD SWAP3 DUP4 MUL ADD DUP2 DUP2 SSTORE PUSH1 0x1 ADD SSTORE SWAP1 SSTORE POP PUSH3 0x279B JUMP JUMPDEST PUSH1 0x40 DUP1 MLOAD DUP1 DUP3 ADD SWAP1 SWAP2 MSTORE PUSH1 0xE DUP2 MSTORE PUSH14 0x50454E44494E475F4F5244455253 PUSH1 0x90 SHL PUSH1 0x20 SWAP2 DUP3 ADD MSTORE PUSH1 0x0 DUP1 MLOAD PUSH1 0x20 PUSH3 0x5ACD DUP4 CODECOPY DUP2 MLOAD SWAP2 MSTORE PUSH1 0x0 SWAP1 DUP2 MSTORE PUSH1 0x12 SWAP1 SWAP2 MSTORE PUSH1 0x0 DUP1 MLOAD PUSH1 0x20 PUSH3 0x5AED DUP4 CODECOPY DUP2 MLOAD SWAP2 MSTORE SLOAD PUSH3 0x3420 SWAP1 PUSH1 0x1 PUSH3 0x2E9B JUMP JUMPDEST PUSH1 0x40 DUP1 MLOAD DUP1 DUP3 ADD DUP3 MSTORE PUSH1 0xE DUP2 MSTORE PUSH14 0x50454E44494E475F4F5244455253 PUSH1 0x90 SHL PUSH1 0x20 SWAP2 DUP3 ADD MSTORE PUSH1 0x0 DUP1 MLOAD PUSH1 0x20 PUSH3 0x5ACD DUP4 CODECOPY DUP2 MLOAD SWAP2 MSTORE PUSH1 0x0 SWAP1 DUP2 MSTORE PUSH1 0x12 SWAP1 SWAP2 MSTORE SWAP1 MLOAD PUSH4 0x191EE783 PUSH1 0xE0 SHL DUP2 MSTORE SWAP2 SWAP3 POP SWAP1 PUSH20 0x0 SWAP1 PUSH4 0x191EE783 SWAP1 PUSH3 0x34B0 SWAP1 PUSH1 0x0 DUP1 MLOAD PUSH1 0x20 PUSH3 0x5AED DUP4 CODECOPY DUP2 MLOAD SWAP2 MSTORE SWAP1 DUP6 SWAP1 DUP8 SWAP1 DUP10 SWAP1 PUSH1 0x4 ADD PUSH3 0x422B JUMP JUMPDEST PUSH1 0x20 PUSH1 0x40 MLOAD DUP1 DUP4 SUB DUP2 DUP7 DUP1 EXTCODESIZE ISZERO DUP1 ISZERO PUSH3 0x34C9 JUMPI PUSH1 0x0 DUP1 REVERT JUMPDEST POP GAS DELEGATECALL ISZERO DUP1 ISZERO PUSH3 0x34DE JUMPI RETURNDATASIZE PUSH1 0x0 DUP1 RETURNDATACOPY RETURNDATASIZE PUSH1 0x0 REVERT JUMPDEST POP POP POP POP PUSH1 0x40 MLOAD RETURNDATASIZE PUSH1 0x1F NOT PUSH1 0x1F DUP3 ADD AND DUP3 ADD DUP1 PUSH1 0x40 MSTORE POP DUP2 ADD SWAP1 PUSH3 0x3504 SWAP2 SWAP1 PUSH3 0x3EC7 JUMP JUMPDEST SWAP1 POP PUSH1 0x0 DUP2 SLT PUSH3 0x3680 JUMPI DUP1 JUMPDEST DUP3 DUP2 LT ISZERO PUSH3 0x3609 JUMPI PUSH1 0x40 DUP1 MLOAD DUP1 DUP3 ADD SWAP1 SWAP2 MSTORE PUSH1 0xE DUP2 MSTORE PUSH14 0x50454E44494E475F4F5244455253 PUSH1 0x90 SHL PUSH1 0x20 SWAP2 DUP3 ADD MSTORE PUSH1 0x0 DUP1 MLOAD PUSH1 0x20 PUSH3 0x5ACD DUP4 CODECOPY DUP2 MLOAD SWAP2 MSTORE PUSH1 0x0 MSTORE PUSH1 0x12 SWAP1 MSTORE PUSH1 0x0 DUP1 MLOAD PUSH1 0x20 PUSH3 0x5AED DUP4 CODECOPY DUP2 MLOAD SWAP2 MSTORE DUP1 SLOAD PUSH1 0x1 DUP4 ADD SWAP1 DUP2 LT PUSH3 0x3577 JUMPI INVALID JUMPDEST PUSH1 0x0 SWAP2 DUP3 MSTORE PUSH1 0x20 DUP1 DUP4 KECCAK256 PUSH1 0x40 DUP1 MLOAD DUP1 DUP3 ADD SWAP1 SWAP2 MSTORE PUSH1 0xE DUP2 MSTORE PUSH14 0x50454E44494E475F4F5244455253 PUSH1 0x90 SHL SWAP1 DUP4 ADD MSTORE PUSH1 0x0 DUP1 MLOAD PUSH1 0x20 PUSH3 0x5ACD DUP4 CODECOPY DUP2 MLOAD SWAP2 MSTORE SWAP1 SWAP4 MSTORE PUSH1 0x12 SWAP1 MSTORE PUSH1 0x0 DUP1 MLOAD PUSH1 0x20 PUSH3 0x5AED DUP4 CODECOPY DUP2 MLOAD SWAP2 MSTORE DUP1 SLOAD PUSH1 0x2 SWAP1 SWAP3 MUL SWAP1 SWAP3 ADD SWAP2 SWAP1 DUP4 SWAP1 DUP2 LT PUSH3 0x35E3 JUMPI INVALID JUMPDEST PUSH1 0x0 SWAP2 DUP3 MSTORE PUSH1 0x20 SWAP1 SWAP2 KECCAK256 DUP3 SLOAD PUSH1 0x2 SWAP1 SWAP3 MUL ADD SWAP1 DUP2 SSTORE PUSH1 0x1 SWAP2 DUP3 ADD SLOAD SWAP1 DUP3 ADD SSTORE ADD PUSH3 0x3511 JUMP JUMPDEST POP PUSH1 0x40 DUP1 MLOAD DUP1 DUP3 ADD SWAP1 SWAP2 MSTORE PUSH1 0xE DUP2 MSTORE PUSH14 0x50454E44494E475F4F5244455253 PUSH1 0x90 SHL PUSH1 0x20 SWAP2 DUP3 ADD MSTORE PUSH1 0x0 DUP1 MLOAD PUSH1 0x20 PUSH3 0x5ACD DUP4 CODECOPY DUP2 MLOAD SWAP2 MSTORE PUSH1 0x0 MSTORE PUSH1 0x12 SWAP1 MSTORE PUSH1 0x0 DUP1 MLOAD PUSH1 0x20 PUSH3 0x5AED DUP4 CODECOPY DUP2 MLOAD SWAP2 MSTORE DUP1 SLOAD DUP1 PUSH3 0x3661 JUMPI INVALID JUMPDEST PUSH1 0x0 DUP3 DUP2 MSTORE PUSH1 0x20 DUP2 KECCAK256 PUSH1 0x2 PUSH1 0x0 NOT SWAP1 SWAP4 ADD SWAP3 DUP4 MUL ADD DUP2 DUP2 SSTORE PUSH1 0x1 ADD SSTORE SWAP1 SSTORE JUMPDEST PUSH1 0x40 DUP1 MLOAD DUP1 DUP3 ADD DUP3 MSTORE PUSH1 0xE DUP2 MSTORE PUSH14 0x4D4154434845445F4F5244455253 PUSH1 0x90 SHL PUSH1 0x20 SWAP2 DUP3 ADD MSTORE PUSH32 0xADAACA5C8C3F56BF72F89ABB1ED95701D44C650C5E04CF89DF361454308F6F75 PUSH1 0x0 SWAP1 DUP2 MSTORE PUSH1 0x12 DUP3 MSTORE DUP7 MLOAD PUSH32 0x92D0A53F538622BCA91C42E630F2F4E0FEC4E1B11A94D6186AB25384D5937EC7 DUP1 SLOAD PUSH1 0x1 DUP1 DUP3 ADD DUP4 SSTORE SWAP2 SWAP1 SWAP4 MSTORE DUP2 MLOAD PUSH32 0xE2D9790A678E3B0673838EAFA73D02E4A0231DBD47E14EFB927AB4DD28257AD7 PUSH1 0x2 SWAP1 SWAP5 MUL SWAP4 DUP5 ADD SSTORE SWAP3 ADD MLOAD PUSH32 0xE2D9790A678E3B0673838EAFA73D02E4A0231DBD47E14EFB927AB4DD28257AD8 SWAP1 SWAP2 ADD SSTORE PUSH2 0x120 DUP7 ADD DUP2 SWAP1 MSTORE DUP6 MLOAD MLOAD PUSH1 0xC0 DUP8 ADD MLOAD SWAP3 MLOAD PUSH32 0xA92256317007B464AC01A5C18945ADAF2E60F51E49405F69820066F35C1FF63D SWAP4 PUSH3 0x3793 SWAP4 SWAP2 PUSH3 0x42AC JUMP JUMPDEST PUSH1 0x40 MLOAD DUP1 SWAP2 SUB SWAP1 LOG1 POP POP POP POP JUMP JUMPDEST EXTCODESIZE ISZERO ISZERO SWAP1 JUMP JUMPDEST PUSH1 0x60 PUSH3 0x2E93 DUP5 DUP5 PUSH1 0x0 DUP6 PUSH3 0x3899 JUMP JUMPDEST PUSH1 0x0 DUP2 DUP5 DUP5 GT ISZERO PUSH3 0x37DF JUMPI PUSH1 0x40 MLOAD PUSH3 0x461BCD PUSH1 0xE5 SHL DUP2 MSTORE PUSH1 0x4 ADD PUSH3 0x5E9 SWAP2 SWAP1 PUSH3 0x431B JUMP JUMPDEST POP POP POP SWAP1 SUB SWAP1 JUMP JUMPDEST PUSH1 0xC0 DUP1 DUP4 ADD DUP1 MLOAD PUSH1 0x60 DUP7 ADD MSTORE SWAP1 DUP3 ADD DUP1 MLOAD PUSH1 0x80 DUP7 ADD MSTORE PUSH1 0x1 DUP6 MSTORE PUSH1 0x0 SWAP1 DUP2 SWAP1 MSTORE SWAP1 MSTORE PUSH3 0x3814 DUP3 PUSH3 0x3288 JUMP JUMPDEST PUSH3 0x69C DUP2 PUSH3 0x3288 JUMP JUMPDEST PUSH1 0xC0 DUP1 DUP3 ADD DUP1 MLOAD PUSH1 0x60 DUP7 ADD MSTORE DUP1 MLOAD PUSH1 0x80 DUP7 ADD MSTORE MLOAD SWAP1 DUP4 ADD MLOAD PUSH3 0x3842 SWAP2 PUSH3 0x2E9B JUMP JUMPDEST PUSH1 0xC0 DUP1 DUP5 ADD SWAP2 SWAP1 SWAP2 MSTORE PUSH1 0x0 SWAP1 DUP3 ADD MSTORE PUSH3 0x69C DUP2 PUSH3 0x3288 JUMP JUMPDEST PUSH1 0xC0 DUP1 DUP4 ADD DUP1 MLOAD PUSH1 0x60 DUP7 ADD MSTORE DUP1 MLOAD PUSH1 0x80 DUP7 ADD MSTORE MLOAD SWAP1 DUP3 ADD MLOAD PUSH3 0x387F SWAP2 PUSH3 0x2E9B JUMP JUMPDEST PUSH1 0xC0 DUP1 DUP4 ADD SWAP2 SWAP1 SWAP2 MSTORE PUSH1 0x0 SWAP1 DUP4 ADD MSTORE PUSH3 0x69C DUP3 PUSH3 0x3288 JUMP JUMPDEST PUSH1 0x60 DUP3 SELFBALANCE LT ISZERO PUSH3 0x38BE JUMPI PUSH1 0x40 MLOAD PUSH3 0x461BCD PUSH1 0xE5 SHL DUP2 MSTORE PUSH1 0x4 ADD PUSH3 0x5E9 SWAP1 PUSH3 0x4461 JUMP JUMPDEST PUSH3 0x38C9 DUP6 PUSH3 0x37A1 JUMP JUMPDEST PUSH3 0x38E8 JUMPI PUSH1 0x40 MLOAD PUSH3 0x461BCD PUSH1 0xE5 SHL DUP2 MSTORE PUSH1 0x4 ADD PUSH3 0x5E9 SWAP1 PUSH3 0x4624 JUMP JUMPDEST PUSH1 0x0 PUSH1 0x60 DUP7 PUSH1 0x1 PUSH1 0x1 PUSH1 0xA0 SHL SUB AND DUP6 DUP8 PUSH1 0x40 MLOAD PUSH3 0x3907 SWAP2 SWAP1 PUSH3 0x4114 JUMP JUMPDEST PUSH1 0x0 PUSH1 0x40 MLOAD DUP1 DUP4 SUB DUP2 DUP6 DUP8 GAS CALL SWAP3 POP POP POP RETURNDATASIZE DUP1 PUSH1 0x0 DUP2 EQ PUSH3 0x3946 JUMPI PUSH1 0x40 MLOAD SWAP2 POP PUSH1 0x1F NOT PUSH1 0x3F RETURNDATASIZE ADD AND DUP3 ADD PUSH1 0x40 MSTORE RETURNDATASIZE DUP3 MSTORE RETURNDATASIZE PUSH1 0x0 PUSH1 0x20 DUP5 ADD RETURNDATACOPY PUSH3 0x394B JUMP JUMPDEST PUSH1 0x60 SWAP2 POP JUMPDEST POP SWAP2 POP SWAP2 POP PUSH3 0x395D DUP3 DUP3 DUP7 PUSH3 0x3968 JUMP JUMPDEST SWAP8 SWAP7 POP POP POP POP POP POP POP JUMP JUMPDEST PUSH1 0x60 DUP4 ISZERO PUSH3 0x3979 JUMPI POP DUP2 PUSH3 0x10A6 JUMP JUMPDEST DUP3 MLOAD ISZERO PUSH3 0x398A JUMPI DUP3 MLOAD DUP1 DUP5 PUSH1 0x20 ADD REVERT JUMPDEST DUP2 PUSH1 0x40 MLOAD PUSH3 0x461BCD PUSH1 0xE5 SHL DUP2 MSTORE PUSH1 0x4 ADD PUSH3 0x5E9 SWAP2 SWAP1 PUSH3 0x431B JUMP JUMPDEST PUSH1 0x40 MLOAD DUP1 PUSH2 0x180 ADD PUSH1 0x40 MSTORE DUP1 PUSH3 0x39BC PUSH3 0x3AB4 JUMP JUMPDEST DUP2 MSTORE PUSH1 0x20 ADD PUSH1 0x0 DUP2 MSTORE PUSH1 0x20 ADD PUSH1 0x0 DUP2 MSTORE PUSH1 0x20 ADD PUSH1 0x0 PUSH1 0x1 PUSH1 0x1 PUSH1 0xA0 SHL SUB AND DUP2 MSTORE PUSH1 0x20 ADD PUSH1 0x0 PUSH1 0x1 PUSH1 0x1 PUSH1 0xA0 SHL SUB AND DUP2 MSTORE PUSH1 0x20 ADD PUSH1 0x0 DUP2 MSTORE PUSH1 0x20 ADD PUSH1 0x0 DUP2 MSTORE PUSH1 0x20 ADD PUSH1 0x0 DUP2 MSTORE PUSH1 0x20 ADD PUSH1 0x0 DUP2 MSTORE PUSH1 0x20 ADD PUSH1 0x0 DUP2 MSTORE PUSH1 0x20 ADD PUSH1 0x0 DUP2 MSTORE PUSH1 0x20 ADD PUSH1 0x0 DUP2 MSTORE POP SWAP1 JUMP JUMPDEST DUP3 DUP1 SLOAD PUSH1 0x1 DUP2 PUSH1 0x1 AND ISZERO PUSH2 0x100 MUL SUB AND PUSH1 0x2 SWAP1 DIV SWAP1 PUSH1 0x0 MSTORE PUSH1 0x20 PUSH1 0x0 KECCAK256 SWAP1 PUSH1 0x1F ADD PUSH1 0x20 SWAP1 DIV DUP2 ADD SWAP3 DUP3 PUSH1 0x1F LT PUSH3 0x3A64 JUMPI DUP3 DUP1 ADD PUSH1 0xFF NOT DUP3 CALLDATALOAD AND OR DUP6 SSTORE PUSH3 0x3A94 JUMP JUMPDEST DUP3 DUP1 ADD PUSH1 0x1 ADD DUP6 SSTORE DUP3 ISZERO PUSH3 0x3A94 JUMPI SWAP2 DUP3 ADD JUMPDEST DUP3 DUP2 GT ISZERO PUSH3 0x3A94 JUMPI DUP3 CALLDATALOAD DUP3 SSTORE SWAP2 PUSH1 0x20 ADD SWAP2 SWAP1 PUSH1 0x1 ADD SWAP1 PUSH3 0x3A77 JUMP JUMPDEST POP PUSH3 0x3AA2 SWAP3 SWAP2 POP PUSH3 0x3AF9 JUMP JUMPDEST POP SWAP1 JUMP JUMPDEST PUSH2 0x119F DUP1 PUSH3 0x48FC DUP4 CODECOPY ADD SWAP1 JUMP JUMPDEST PUSH1 0x40 DUP1 MLOAD DUP1 DUP3 ADD SWAP1 SWAP2 MSTORE PUSH1 0x0 DUP1 DUP3 MSTORE PUSH1 0x20 DUP3 ADD MSTORE SWAP1 JUMP JUMPDEST PUSH1 0x40 DUP1 MLOAD PUSH1 0xA0 DUP2 ADD DUP3 MSTORE PUSH1 0x0 DUP1 DUP3 MSTORE PUSH1 0x20 DUP3 ADD DUP2 SWAP1 MSTORE SWAP2 DUP2 ADD DUP3 SWAP1 MSTORE PUSH1 0x60 DUP2 ADD DUP3 SWAP1 MSTORE PUSH1 0x80 DUP2 ADD SWAP2 SWAP1 SWAP2 MSTORE SWAP1 JUMP JUMPDEST JUMPDEST DUP1 DUP3 GT ISZERO PUSH3 0x3AA2 JUMPI PUSH1 0x0 DUP2 SSTORE PUSH1 0x1 ADD PUSH3 0x3AFA JUMP JUMPDEST DUP1 MLOAD PUSH3 0x512 DUP2 PUSH3 0x48BF JUMP JUMPDEST PUSH1 0x0 DUP1 DUP4 PUSH1 0x1F DUP5 ADD SLT PUSH3 0x3B2F JUMPI DUP2 DUP3 REVERT JUMPDEST POP DUP2 CALLDATALOAD PUSH8 0xFFFFFFFFFFFFFFFF DUP2 GT ISZERO PUSH3 0x3B47 JUMPI DUP2 DUP3 REVERT JUMPDEST PUSH1 0x20 DUP4 ADD SWAP2 POP DUP4 PUSH1 0x20 DUP3 DUP6 ADD ADD GT ISZERO PUSH3 0x3B60 JUMPI PUSH1 0x0 DUP1 REVERT JUMPDEST SWAP3 POP SWAP3 SWAP1 POP JUMP JUMPDEST PUSH1 0x0 DUP3 PUSH1 0x1F DUP4 ADD SLT PUSH3 0x3B78 JUMPI DUP1 DUP2 REVERT JUMPDEST DUP2 MLOAD PUSH3 0x3B8F PUSH3 0x3B89 DUP3 PUSH3 0x486B JUMP JUMPDEST PUSH3 0x4843 JUMP JUMPDEST SWAP2 POP DUP1 DUP3 MSTORE DUP4 PUSH1 0x20 DUP3 DUP6 ADD ADD GT ISZERO PUSH3 0x3BA7 JUMPI PUSH1 0x0 DUP1 REVERT JUMPDEST PUSH3 0x3BBA DUP2 PUSH1 0x20 DUP5 ADD PUSH1 0x20 DUP7 ADD PUSH3 0x4890 JUMP JUMPDEST POP SWAP3 SWAP2 POP POP JUMP JUMPDEST PUSH1 0x0 PUSH1 0x20 DUP3 DUP5 SUB SLT ISZERO PUSH3 0x3BD3 JUMPI DUP1 DUP2 REVERT JUMPDEST DUP2 CALLDATALOAD PUSH3 0x10A6 DUP2 PUSH3 0x48BF JUMP JUMPDEST PUSH1 0x0 DUP1 PUSH1 0x40 DUP4 DUP6 SUB SLT ISZERO PUSH3 0x3BF3 JUMPI DUP1 DUP2 REVERT JUMPDEST DUP3 CALLDATALOAD PUSH3 0x3C00 DUP2 PUSH3 0x48BF JUMP JUMPDEST SWAP2 POP PUSH1 0x20 DUP4 ADD CALLDATALOAD PUSH3 0x3C12 DUP2 PUSH3 0x48BF JUMP JUMPDEST DUP1 SWAP2 POP POP SWAP3 POP SWAP3 SWAP1 POP JUMP JUMPDEST PUSH1 0x0 DUP1 PUSH1 0x0 PUSH1 0x60 DUP5 DUP7 SUB SLT ISZERO PUSH3 0x3C32 JUMPI DUP1 DUP2 REVERT JUMPDEST DUP4 CALLDATALOAD PUSH3 0x3C3F DUP2 PUSH3 0x48BF JUMP JUMPDEST SWAP3 POP PUSH1 0x20 DUP5 ADD CALLDATALOAD PUSH3 0x3C51 DUP2 PUSH3 0x48BF JUMP JUMPDEST SWAP3 SWAP6 SWAP3 SWAP5 POP POP POP PUSH1 0x40 SWAP2 SWAP1 SWAP2 ADD CALLDATALOAD SWAP1 JUMP JUMPDEST PUSH1 0x0 DUP1 PUSH1 0x0 DUP1 PUSH1 0x80 DUP6 DUP8 SUB SLT ISZERO PUSH3 0x3C78 JUMPI DUP1 DUP2 REVERT JUMPDEST DUP5 CALLDATALOAD PUSH3 0x3C85 DUP2 PUSH3 0x48BF JUMP JUMPDEST SWAP4 POP PUSH1 0x20 DUP6 ADD CALLDATALOAD PUSH3 0x3C97 DUP2 PUSH3 0x48BF JUMP JUMPDEST SWAP3 POP PUSH1 0x40 DUP6 ADD CALLDATALOAD SWAP2 POP PUSH1 0x60 DUP6 ADD CALLDATALOAD PUSH8 0xFFFFFFFFFFFFFFFF DUP2 GT ISZERO PUSH3 0x3CBA JUMPI DUP2 DUP3 REVERT JUMPDEST DUP6 ADD PUSH1 0x1F DUP2 ADD DUP8 SGT PUSH3 0x3CCB JUMPI DUP2 DUP3 REVERT JUMPDEST DUP1 CALLDATALOAD PUSH3 0x3CDC PUSH3 0x3B89 DUP3 PUSH3 0x486B JUMP JUMPDEST DUP2 DUP2 MSTORE DUP9 PUSH1 0x20 DUP4 DUP6 ADD ADD GT ISZERO PUSH3 0x3CF1 JUMPI DUP4 DUP5 REVERT JUMPDEST DUP2 PUSH1 0x20 DUP5 ADD PUSH1 0x20 DUP4 ADD CALLDATACOPY SWAP1 DUP2 ADD PUSH1 0x20 ADD SWAP3 SWAP1 SWAP3 MSTORE POP SWAP3 SWAP6 SWAP2 SWAP5 POP SWAP3 POP JUMP JUMPDEST PUSH1 0x0 DUP1 PUSH1 0x40 DUP4 DUP6 SUB SLT ISZERO PUSH3 0x3D22 JUMPI DUP2 DUP3 REVERT JUMPDEST DUP3 CALLDATALOAD PUSH3 0x3D2F DUP2 PUSH3 0x48BF JUMP JUMPDEST SWAP2 POP PUSH1 0x20 DUP4 ADD CALLDATALOAD PUSH3 0x3C12 DUP2 PUSH3 0x48D5 JUMP JUMPDEST PUSH1 0x0 DUP1 PUSH1 0x40 DUP4 DUP6 SUB SLT ISZERO PUSH3 0x3D54 JUMPI DUP2 DUP3 REVERT JUMPDEST DUP3 CALLDATALOAD PUSH3 0x3D61 DUP2 PUSH3 0x48BF JUMP JUMPDEST SWAP5 PUSH1 0x20 SWAP4 SWAP1 SWAP4 ADD CALLDATALOAD SWAP4 POP POP POP JUMP JUMPDEST PUSH1 0x0 PUSH1 0x20 DUP1 DUP4 DUP6 SUB SLT ISZERO PUSH3 0x3D82 JUMPI DUP2 DUP3 REVERT JUMPDEST DUP3 MLOAD PUSH8 0xFFFFFFFFFFFFFFFF DUP1 DUP3 GT ISZERO PUSH3 0x3D9A JUMPI DUP4 DUP5 REVERT JUMPDEST DUP2 DUP6 ADD SWAP2 POP DUP6 PUSH1 0x1F DUP4 ADD SLT PUSH3 0x3DAE JUMPI DUP4 DUP5 REVERT JUMPDEST DUP2 MLOAD DUP2 DUP2 GT ISZERO PUSH3 0x3DBD JUMPI DUP5 DUP6 REVERT JUMPDEST DUP4 DUP2 MUL SWAP2 POP PUSH3 0x3DCF DUP5 DUP4 ADD PUSH3 0x4843 JUMP JUMPDEST DUP2 DUP2 MSTORE DUP5 DUP2 ADD SWAP1 DUP5 DUP7 ADD DUP5 DUP7 ADD DUP8 ADD DUP11 LT ISZERO PUSH3 0x3DEA JUMPI DUP8 DUP9 REVERT JUMPDEST DUP8 SWAP6 POP JUMPDEST DUP4 DUP7 LT ISZERO PUSH3 0x3E18 JUMPI PUSH3 0x3E03 DUP11 DUP3 PUSH3 0x3B10 JUMP JUMPDEST DUP4 MSTORE PUSH1 0x1 SWAP6 SWAP1 SWAP6 ADD SWAP5 SWAP2 DUP7 ADD SWAP2 DUP7 ADD PUSH3 0x3DEE JUMP JUMPDEST POP SWAP9 SWAP8 POP POP POP POP POP POP POP POP JUMP JUMPDEST PUSH1 0x0 PUSH1 0x20 DUP3 DUP5 SUB SLT ISZERO PUSH3 0x3E37 JUMPI DUP1 DUP2 REVERT JUMPDEST DUP2 MLOAD PUSH3 0x10A6 DUP2 PUSH3 0x48D5 JUMP JUMPDEST PUSH1 0x0 PUSH1 0x20 DUP3 DUP5 SUB SLT ISZERO PUSH3 0x3E56 JUMPI DUP1 DUP2 REVERT JUMPDEST POP CALLDATALOAD SWAP2 SWAP1 POP JUMP JUMPDEST PUSH1 0x0 DUP1 PUSH1 0x0 PUSH1 0x60 DUP5 DUP7 SUB SLT ISZERO PUSH3 0x3E72 JUMPI DUP3 DUP4 REVERT JUMPDEST POP POP DUP2 CALLDATALOAD SWAP4 PUSH1 0x20 DUP4 ADD CALLDATALOAD SWAP4 POP PUSH1 0x40 SWAP1 SWAP3 ADD CALLDATALOAD SWAP2 SWAP1 POP JUMP JUMPDEST PUSH1 0x0 PUSH1 0x20 DUP3 DUP5 SUB SLT ISZERO PUSH3 0x3E9B JUMPI DUP1 DUP2 REVERT JUMPDEST DUP2 CALLDATALOAD PUSH3 0x10A6 DUP2 PUSH3 0x48E4 JUMP JUMPDEST PUSH1 0x0 PUSH1 0x20 DUP3 DUP5 SUB SLT ISZERO PUSH3 0x3EBA JUMPI DUP1 DUP2 REVERT JUMPDEST DUP2 MLOAD PUSH3 0x10A6 DUP2 PUSH3 0x48E4 JUMP JUMPDEST PUSH1 0x0 PUSH1 0x20 DUP3 DUP5 SUB SLT ISZERO PUSH3 0x3ED9 JUMPI DUP1 DUP2 REVERT JUMPDEST POP MLOAD SWAP2 SWAP1 POP JUMP JUMPDEST PUSH1 0x0 DUP1 PUSH1 0x40 DUP4 DUP6 SUB SLT ISZERO PUSH3 0x3EF3 JUMPI DUP2 DUP3 REVERT JUMPDEST DUP3 CALLDATALOAD SWAP2 POP PUSH1 0x20 DUP4 ADD CALLDATALOAD PUSH3 0x3C12 DUP2 PUSH3 0x48BF JUMP JUMPDEST PUSH1 0x0 DUP1 PUSH1 0x0 DUP1 PUSH1 0x0 DUP1 PUSH1 0x0 DUP1 PUSH2 0x100 DUP10 DUP12 SUB SLT ISZERO PUSH3 0x3F24 JUMPI DUP6 DUP7 REVERT JUMPDEST DUP9 MLOAD SWAP8 POP PUSH1 0x20 DUP10 ADD MLOAD PUSH3 0x3F38 DUP2 PUSH3 0x48BF JUMP JUMPDEST PUSH1 0x40 DUP11 ADD MLOAD SWAP1 SWAP8 POP PUSH3 0x3F4B DUP2 PUSH3 0x48BF JUMP JUMPDEST PUSH1 0x60 DUP11 ADD MLOAD SWAP1 SWAP7 POP PUSH8 0xFFFFFFFFFFFFFFFF DUP1 DUP3 GT ISZERO PUSH3 0x3F69 JUMPI DUP6 DUP7 REVERT JUMPDEST PUSH3 0x3F77 DUP13 DUP4 DUP14 ADD PUSH3 0x3B67 JUMP JUMPDEST SWAP7 POP PUSH1 0x80 DUP12 ADD MLOAD SWAP2 POP DUP1 DUP3 GT ISZERO PUSH3 0x3F8D JUMPI DUP6 DUP7 REVERT JUMPDEST POP PUSH3 0x3F9C DUP12 DUP3 DUP13 ADD PUSH3 0x3B67 JUMP JUMPDEST SWAP5 POP POP PUSH1 0xA0 DUP10 ADD MLOAD SWAP3 POP PUSH1 0xC0 DUP10 ADD MLOAD SWAP2 POP PUSH1 0xE0 DUP10 ADD MLOAD PUSH3 0x3FBD DUP2 PUSH3 0x48BF JUMP JUMPDEST DUP1 SWAP2 POP POP SWAP3 SWAP6 SWAP9 POP SWAP3 SWAP6 SWAP9 SWAP1 SWAP4 SWAP7 POP JUMP JUMPDEST PUSH1 0x0 DUP1 PUSH1 0x0 DUP1 PUSH1 0x0 DUP1 PUSH1 0x0 DUP1 PUSH1 0xC0 DUP10 DUP12 SUB SLT ISZERO PUSH3 0x3FEA JUMPI DUP2 DUP3 REVERT JUMPDEST DUP9 CALLDATALOAD SWAP8 POP PUSH1 0x20 DUP10 ADD CALLDATALOAD PUSH8 0xFFFFFFFFFFFFFFFF DUP1 DUP3 GT ISZERO PUSH3 0x4009 JUMPI DUP4 DUP5 REVERT JUMPDEST PUSH3 0x4017 DUP13 DUP4 DUP14 ADD PUSH3 0x3B1D JUMP JUMPDEST SWAP1 SWAP10 POP SWAP8 POP PUSH1 0x40 DUP12 ADD CALLDATALOAD SWAP7 POP PUSH1 0x60 DUP12 ADD CALLDATALOAD SWAP6 POP PUSH1 0x80 DUP12 ADD CALLDATALOAD SWAP2 POP PUSH3 0x403C DUP3 PUSH3 0x48BF JUMP JUMPDEST SWAP1 SWAP4 POP PUSH1 0xA0 DUP11 ADD CALLDATALOAD SWAP1 DUP1 DUP3 GT ISZERO PUSH3 0x4052 JUMPI DUP4 DUP5 REVERT JUMPDEST POP PUSH3 0x4061 DUP12 DUP3 DUP13 ADD PUSH3 0x3B1D JUMP JUMPDEST SWAP10 SWAP13 SWAP9 SWAP12 POP SWAP7 SWAP10 POP SWAP5 SWAP8 SWAP4 SWAP7 SWAP3 SWAP6 SWAP5 POP POP POP JUMP JUMPDEST PUSH1 0x0 DUP1 PUSH1 0x0 DUP1 PUSH1 0x0 DUP1 PUSH1 0x0 DUP1 PUSH2 0x100 DUP10 DUP12 SUB SLT ISZERO PUSH3 0x4092 JUMPI DUP2 DUP3 REVERT JUMPDEST POP POP DUP7 CALLDATALOAD SWAP9 PUSH1 0x20 DUP9 ADD CALLDATALOAD SWAP9 POP PUSH1 0x40 DUP9 ADD CALLDATALOAD SWAP8 PUSH1 0x60 DUP2 ADD CALLDATALOAD SWAP8 POP PUSH1 0x80 DUP2 ADD CALLDATALOAD SWAP7 POP PUSH1 0xA0 DUP2 ADD CALLDATALOAD SWAP6 POP PUSH1 0xC0 DUP2 ADD CALLDATALOAD SWAP5 POP PUSH1 0xE0 ADD CALLDATALOAD SWAP3 POP SWAP1 POP JUMP JUMPDEST PUSH1 0x1 PUSH1 0x1 PUSH1 0xA0 SHL SUB AND SWAP1 MSTORE JUMP JUMPDEST PUSH1 0x0 DUP2 MLOAD DUP1 DUP5 MSTORE PUSH3 0x40F1 DUP2 PUSH1 0x20 DUP7 ADD PUSH1 0x20 DUP7 ADD PUSH3 0x4890 JUMP JUMPDEST PUSH1 0x1F ADD PUSH1 0x1F NOT AND SWAP3 SWAP1 SWAP3 ADD PUSH1 0x20 ADD SWAP3 SWAP2 POP POP JUMP JUMPDEST DUP1 MLOAD DUP3 MSTORE PUSH1 0x20 SWAP1 DUP2 ADD MLOAD SWAP2 ADD MSTORE JUMP JUMPDEST PUSH1 0x0 DUP3 MLOAD PUSH3 0x4128 DUP2 DUP5 PUSH1 0x20 DUP8 ADD PUSH3 0x4890 JUMP JUMPDEST SWAP2 SWAP1 SWAP2 ADD SWAP3 SWAP2 POP POP JUMP JUMPDEST PUSH1 0x1 PUSH1 0x1 PUSH1 0xA0 SHL SUB SWAP2 SWAP1 SWAP2 AND DUP2 MSTORE PUSH1 0x20 ADD SWAP1 JUMP JUMPDEST PUSH1 0x1 PUSH1 0x1 PUSH1 0xA0 SHL SUB DUP6 DUP2 AND DUP3 MSTORE DUP5 AND PUSH1 0x20 DUP3 ADD MSTORE PUSH1 0x40 DUP2 ADD DUP4 SWAP1 MSTORE PUSH1 0x80 PUSH1 0x60 DUP3 ADD DUP2 SWAP1 MSTORE PUSH1 0x0 SWAP1 PUSH3 0x417B SWAP1 DUP4 ADD DUP5 PUSH3 0x40D7 JUMP JUMPDEST SWAP7 SWAP6 POP POP POP POP POP POP JUMP JUMPDEST PUSH1 0x1 PUSH1 0x1 PUSH1 0xA0 SHL SUB SWAP3 DUP4 AND DUP2 MSTORE SWAP2 AND PUSH1 0x20 DUP3 ADD MSTORE PUSH1 0x40 ADD SWAP1 JUMP JUMPDEST PUSH1 0x1 PUSH1 0x1 PUSH1 0xA0 SHL SUB SWAP4 DUP5 AND DUP2 MSTORE SWAP2 SWAP1 SWAP3 AND PUSH1 0x20 DUP3 ADD MSTORE PUSH1 0x40 DUP2 ADD SWAP2 SWAP1 SWAP2 MSTORE PUSH1 0x60 ADD SWAP1 JUMP JUMPDEST PUSH1 0x1 PUSH1 0x1 PUSH1 0xA0 SHL SUB SWAP3 SWAP1 SWAP3 AND DUP3 MSTORE PUSH1 0x20 DUP3 ADD MSTORE PUSH1 0x40 ADD SWAP1 JUMP JUMPDEST PUSH1 0x20 DUP1 DUP3 MSTORE DUP3 MLOAD DUP3 DUP3 ADD DUP2 SWAP1 MSTORE PUSH1 0x0 SWAP2 SWAP1 DUP5 DUP3 ADD SWAP1 PUSH1 0x40 DUP6 ADD SWAP1 DUP5 JUMPDEST DUP2 DUP2 LT ISZERO PUSH3 0x421F JUMPI DUP4 MLOAD PUSH1 0x1 PUSH1 0x1 PUSH1 0xA0 SHL SUB AND DUP4 MSTORE SWAP3 DUP5 ADD SWAP3 SWAP2 DUP5 ADD SWAP2 PUSH1 0x1 ADD PUSH3 0x41F8 JUMP JUMPDEST POP SWAP1 SWAP7 SWAP6 POP POP POP POP POP POP JUMP JUMPDEST PUSH1 0x0 PUSH1 0xA0 DUP3 ADD PUSH1 0xA0 DUP4 MSTORE DUP1 DUP8 SLOAD DUP1 DUP4 MSTORE PUSH1 0xC0 DUP6 ADD SWAP2 POP DUP9 DUP5 MSTORE PUSH1 0x20 SWAP3 POP DUP3 DUP5 KECCAK256 DUP5 JUMPDEST DUP3 DUP2 LT ISZERO PUSH3 0x4277 JUMPI DUP2 SLOAD DUP5 MSTORE PUSH1 0x1 DUP1 DUP4 ADD SLOAD DUP7 DUP7 ADD MSTORE PUSH1 0x40 SWAP1 SWAP5 ADD SWAP4 PUSH1 0x2 SWAP1 SWAP3 ADD SWAP2 ADD PUSH3 0x424D JUMP JUMPDEST POP POP POP SWAP1 DUP4 ADD DUP7 SWAP1 MSTORE PUSH1 0x40 DUP4 ADD DUP6 SWAP1 MSTORE SWAP1 POP PUSH3 0x4298 PUSH1 0x60 DUP4 ADD DUP5 PUSH3 0x4105 JUMP JUMPDEST SWAP6 SWAP5 POP POP POP POP POP JUMP JUMPDEST SWAP1 ISZERO ISZERO DUP2 MSTORE PUSH1 0x20 ADD SWAP1 JUMP JUMPDEST SWAP3 DUP4 MSTORE PUSH1 0x20 DUP4 ADD SWAP2 SWAP1 SWAP2 MSTORE PUSH1 0x40 DUP3 ADD MSTORE PUSH1 0x60 ADD SWAP1 JUMP JUMPDEST PUSH1 0x0 PUSH1 0xA0 DUP3 MSTORE DUP7 PUSH1 0xA0 DUP4 ADD MSTORE DUP7 DUP9 PUSH1 0xC0 DUP5 ADD CALLDATACOPY PUSH1 0xC0 DUP8 DUP4 ADD DUP2 ADD SWAP2 SWAP1 SWAP2 MSTORE PUSH1 0x20 DUP3 ADD SWAP6 SWAP1 SWAP6 MSTORE PUSH1 0x1 PUSH1 0x1 PUSH1 0xA0 SHL SUB SWAP4 SWAP1 SWAP4 AND PUSH1 0x40 DUP5 ADD MSTORE PUSH1 0xFF SWAP2 SWAP1 SWAP2 AND PUSH1 0x60 DUP4 ADD MSTORE PUSH1 0x80 DUP3 ADD MSTORE PUSH1 0x1F SWAP1 SWAP3 ADD PUSH1 0x1F NOT AND SWAP1 SWAP2 ADD ADD SWAP2 SWAP1 POP JUMP JUMPDEST PUSH1 0x0 PUSH1 0x20 DUP3 MSTORE PUSH3 0x10A6 PUSH1 0x20 DUP4 ADD DUP5 PUSH3 0x40D7 JUMP JUMPDEST PUSH1 0x20 DUP1 DUP3 MSTORE PUSH1 0x2 SWAP1 DUP3 ADD MSTORE PUSH2 0x544D PUSH1 0xF0 SHL PUSH1 0x40 DUP3 ADD MSTORE PUSH1 0x60 ADD SWAP1 JUMP JUMPDEST PUSH1 0x20 DUP1 DUP3 MSTORE PUSH1 0x2 SWAP1 DUP3 ADD MSTORE PUSH2 0x534B PUSH1 0xF0 SHL PUSH1 0x40 DUP3 ADD MSTORE PUSH1 0x60 ADD SWAP1 JUMP JUMPDEST PUSH1 0x20 DUP1 DUP3 MSTORE PUSH1 0x32 SWAP1 DUP3 ADD MSTORE PUSH32 0x4552433732313A207472616E7366657220746F206E6F6E204552433732315265 PUSH1 0x40 DUP3 ADD MSTORE PUSH18 0x31B2B4BB32B91034B6B83632B6B2B73A32B9 PUSH1 0x71 SHL PUSH1 0x60 DUP3 ADD MSTORE PUSH1 0x80 ADD SWAP1 JUMP JUMPDEST PUSH1 0x20 DUP1 DUP3 MSTORE PUSH1 0x2 SWAP1 DUP3 ADD MSTORE PUSH2 0x2327 PUSH1 0xF1 SHL PUSH1 0x40 DUP3 ADD MSTORE PUSH1 0x60 ADD SWAP1 JUMP JUMPDEST PUSH1 0x20 DUP1 DUP3 MSTORE PUSH1 0x1B SWAP1 DUP3 ADD MSTORE PUSH32 0x536166654D6174683A206164646974696F6E206F766572666C6F770000000000 PUSH1 0x40 DUP3 ADD MSTORE PUSH1 0x60 ADD SWAP1 JUMP JUMPDEST PUSH1 0x20 DUP1 DUP3 MSTORE PUSH1 0x19 SWAP1 DUP3 ADD MSTORE PUSH32 0x4552433732313A20617070726F766520746F2063616C6C657200000000000000 PUSH1 0x40 DUP3 ADD MSTORE PUSH1 0x60 ADD SWAP1 JUMP JUMPDEST PUSH1 0x20 DUP1 DUP3 MSTORE PUSH1 0x3 SWAP1 DUP3 ADD MSTORE PUSH3 0x534153 PUSH1 0xE8 SHL PUSH1 0x40 DUP3 ADD MSTORE PUSH1 0x60 ADD SWAP1 JUMP JUMPDEST PUSH1 0x20 DUP1 DUP3 MSTORE PUSH1 0x26 SWAP1 DUP3 ADD MSTORE PUSH32 0x416464726573733A20696E73756666696369656E742062616C616E636520666F PUSH1 0x40 DUP3 ADD MSTORE PUSH6 0x1C8818D85B1B PUSH1 0xD2 SHL PUSH1 0x60 DUP3 ADD MSTORE PUSH1 0x80 ADD SWAP1 JUMP JUMPDEST PUSH1 0x20 DUP1 DUP3 MSTORE PUSH1 0x38 SWAP1 DUP3 ADD MSTORE PUSH32 0x4552433732313A20617070726F76652063616C6C6572206973206E6F74206F77 PUSH1 0x40 DUP3 ADD MSTORE PUSH32 0x6E6572206E6F7220617070726F76656420666F7220616C6C0000000000000000 PUSH1 0x60 DUP3 ADD MSTORE PUSH1 0x80 ADD SWAP1 JUMP JUMPDEST PUSH1 0x20 DUP1 DUP3 MSTORE PUSH1 0x1 SWAP1 DUP3 ADD MSTORE PUSH1 0x27 PUSH1 0xF9 SHL PUSH1 0x40 DUP3 ADD MSTORE PUSH1 0x60 ADD SWAP1 JUMP JUMPDEST PUSH1 0x20 DUP1 DUP3 MSTORE PUSH1 0x1 SWAP1 DUP3 ADD MSTORE PUSH1 0x13 PUSH1 0xFA SHL PUSH1 0x40 DUP3 ADD MSTORE PUSH1 0x60 ADD SWAP1 JUMP JUMPDEST PUSH1 0x20 DUP1 DUP3 MSTORE PUSH1 0x21 SWAP1 DUP3 ADD MSTORE PUSH32 0x536166654D6174683A206D756C7469706C69636174696F6E206F766572666C6F PUSH1 0x40 DUP3 ADD MSTORE PUSH1 0x77 PUSH1 0xF8 SHL PUSH1 0x60 DUP3 ADD MSTORE PUSH1 0x80 ADD SWAP1 JUMP JUMPDEST PUSH1 0x20 DUP1 DUP3 MSTORE PUSH1 0x2C SWAP1 DUP3 ADD MSTORE PUSH32 0x4552433732313A20617070726F76656420717565727920666F72206E6F6E6578 PUSH1 0x40 DUP3 ADD MSTORE PUSH12 0x34B9BA32B73A103A37B5B2B7 PUSH1 0xA1 SHL PUSH1 0x60 DUP3 ADD MSTORE PUSH1 0x80 ADD SWAP1 JUMP JUMPDEST PUSH1 0x20 DUP1 DUP3 MSTORE PUSH1 0x21 SWAP1 DUP3 ADD MSTORE PUSH32 0x4552433732313A20617070726F76616C20746F2063757272656E74206F776E65 PUSH1 0x40 DUP3 ADD MSTORE PUSH1 0x39 PUSH1 0xF9 SHL PUSH1 0x60 DUP3 ADD MSTORE PUSH1 0x80 ADD SWAP1 JUMP JUMPDEST PUSH1 0x20 DUP1 DUP3 MSTORE PUSH1 0x2 SWAP1 DUP3 ADD MSTORE PUSH2 0x4E41 PUSH1 0xF0 SHL PUSH1 0x40 DUP3 ADD MSTORE PUSH1 0x60 ADD SWAP1 JUMP JUMPDEST PUSH1 0x20 DUP1 DUP3 MSTORE PUSH1 0x1D SWAP1 DUP3 ADD MSTORE PUSH32 0x416464726573733A2063616C6C20746F206E6F6E2D636F6E7472616374000000 PUSH1 0x40 DUP3 ADD MSTORE PUSH1 0x60 ADD SWAP1 JUMP JUMPDEST PUSH1 0x20 DUP1 DUP3 MSTORE PUSH1 0x14 SWAP1 DUP3 ADD MSTORE PUSH20 0x151BDAD95B88105B1C9958591E48135A5B9D1959 PUSH1 0x62 SHL PUSH1 0x40 DUP3 ADD MSTORE PUSH1 0x60 ADD SWAP1 JUMP JUMPDEST PUSH1 0x20 DUP1 DUP3 MSTORE PUSH1 0x2 SWAP1 DUP3 ADD MSTORE PUSH2 0x27A3 PUSH1 0xF1 SHL PUSH1 0x40 DUP3 ADD MSTORE PUSH1 0x60 ADD SWAP1 JUMP JUMPDEST PUSH1 0x20 DUP1 DUP3 MSTORE PUSH1 0x2 SWAP1 DUP3 ADD MSTORE PUSH2 0x4E45 PUSH1 0xF0 SHL PUSH1 0x40 DUP3 ADD MSTORE PUSH1 0x60 ADD SWAP1 JUMP JUMPDEST PUSH1 0x20 DUP1 DUP3 MSTORE PUSH1 0x4 SWAP1 DUP3 ADD MSTORE PUSH4 0x534D4249 PUSH1 0xE0 SHL PUSH1 0x40 DUP3 ADD MSTORE PUSH1 0x60 ADD SWAP1 JUMP JUMPDEST PUSH1 0x0 PUSH2 0x1A0 DUP3 ADD SWAP1 POP PUSH3 0x46F5 DUP3 DUP5 MLOAD PUSH3 0x4105 JUMP JUMPDEST PUSH1 0x20 DUP4 ADD MLOAD PUSH1 0x40 DUP4 ADD MSTORE PUSH1 0x40 DUP4 ADD MLOAD PUSH1 0x60 DUP4 ADD MSTORE PUSH1 0x60 DUP4 ADD MLOAD PUSH3 0x471D PUSH1 0x80 DUP5 ADD DUP3 PUSH3 0x40CA JUMP JUMPDEST POP PUSH1 0x80 DUP4 ADD MLOAD PUSH3 0x4732 PUSH1 0xA0 DUP5 ADD DUP3 PUSH3 0x40CA JUMP JUMPDEST POP PUSH1 0xA0 DUP4 ADD MLOAD PUSH1 0xC0 DUP4 DUP2 ADD SWAP2 SWAP1 SWAP2 MSTORE DUP4 ADD MLOAD PUSH1 0xE0 DUP1 DUP5 ADD SWAP2 SWAP1 SWAP2 MSTORE DUP4 ADD MLOAD PUSH2 0x100 DUP1 DUP5 ADD SWAP2 SWAP1 SWAP2 MSTORE DUP4 ADD MLOAD PUSH2 0x120 DUP1 DUP5 ADD SWAP2 SWAP1 SWAP2 MSTORE DUP4 ADD MLOAD PUSH2 0x140 DUP1 DUP5 ADD SWAP2 SWAP1 SWAP2 MSTORE DUP4 ADD MLOAD PUSH2 0x160 DUP1 DUP5 ADD SWAP2 SWAP1 SWAP2 MSTORE SWAP1 SWAP3 ADD MLOAD PUSH2 0x180 SWAP1 SWAP2 ADD MSTORE SWAP1 JUMP JUMPDEST SWAP1 DUP2 MSTORE PUSH1 0x20 ADD SWAP1 JUMP JUMPDEST SWAP2 DUP3 MSTORE PUSH1 0x1 PUSH1 0x1 PUSH1 0xA0 SHL SUB AND PUSH1 0x20 DUP3 ADD MSTORE PUSH1 0x40 ADD SWAP1 JUMP JUMPDEST SWAP4 DUP5 MSTORE PUSH1 0x1 PUSH1 0x1 PUSH1 0xA0 SHL SUB SWAP3 DUP4 AND PUSH1 0x20 DUP6 ADD MSTORE SWAP2 AND PUSH1 0x40 DUP4 ADD MSTORE PUSH1 0x60 DUP3 ADD MSTORE PUSH1 0x80 ADD SWAP1 JUMP JUMPDEST DUP9 DUP2 MSTORE PUSH1 0x1 PUSH1 0x1 PUSH1 0xA0 SHL SUB DUP9 DUP2 AND PUSH1 0x20 DUP4 ADD MSTORE DUP8 DUP2 AND PUSH1 0x40 DUP4 ADD MSTORE PUSH2 0x100 PUSH1 0x60 DUP4 ADD DUP2 SWAP1 MSTORE PUSH1 0x0 SWAP2 PUSH3 0x480A DUP5 DUP4 ADD DUP11 PUSH3 0x40D7 JUMP JUMPDEST SWAP2 POP DUP4 DUP3 SUB PUSH1 0x80 DUP6 ADD MSTORE PUSH3 0x4820 DUP3 DUP10 PUSH3 0x40D7 JUMP JUMPDEST PUSH1 0xA0 DUP6 ADD SWAP8 SWAP1 SWAP8 MSTORE PUSH1 0xC0 DUP5 ADD SWAP6 SWAP1 SWAP6 MSTORE POP POP SWAP2 AND PUSH1 0xE0 SWAP1 SWAP2 ADD MSTORE SWAP6 SWAP5 POP POP POP POP POP JUMP JUMPDEST PUSH1 0x40 MLOAD DUP2 DUP2 ADD PUSH8 0xFFFFFFFFFFFFFFFF DUP2 GT DUP3 DUP3 LT OR ISZERO PUSH3 0x4863 JUMPI PUSH1 0x0 DUP1 REVERT JUMPDEST PUSH1 0x40 MSTORE SWAP2 SWAP1 POP JUMP JUMPDEST PUSH1 0x0 PUSH8 0xFFFFFFFFFFFFFFFF DUP3 GT ISZERO PUSH3 0x4882 JUMPI DUP1 DUP2 REVERT JUMPDEST POP PUSH1 0x1F ADD PUSH1 0x1F NOT AND PUSH1 0x20 ADD SWAP1 JUMP JUMPDEST PUSH1 0x0 JUMPDEST DUP4 DUP2 LT ISZERO PUSH3 0x48AD JUMPI DUP2 DUP2 ADD MLOAD DUP4 DUP3 ADD MSTORE PUSH1 0x20 ADD PUSH3 0x4893 JUMP JUMPDEST DUP4 DUP2 GT ISZERO PUSH3 0xEA3 JUMPI POP POP PUSH1 0x0 SWAP2 ADD MSTORE JUMP JUMPDEST PUSH1 0x1 PUSH1 0x1 PUSH1 0xA0 SHL SUB DUP2 AND DUP2 EQ PUSH3 0x279B JUMPI PUSH1 0x0 DUP1 REVERT JUMPDEST DUP1 ISZERO ISZERO DUP2 EQ PUSH3 0x279B JUMPI PUSH1 0x0 DUP1 REVERT JUMPDEST PUSH1 0x1 PUSH1 0x1 PUSH1 0xE0 SHL SUB NOT DUP2 AND DUP2 EQ PUSH3 0x279B JUMPI PUSH1 0x0 DUP1 REVERT INVALID PUSH1 0x80 PUSH1 0x40 MSTORE CALLVALUE DUP1 ISZERO PUSH3 0x11 JUMPI PUSH1 0x0 DUP1 REVERT JUMPDEST POP PUSH1 0x40 MLOAD PUSH3 0x119F CODESIZE SUB DUP1 PUSH3 0x119F DUP4 CODECOPY DUP2 ADD PUSH1 0x40 DUP2 SWAP1 MSTORE PUSH3 0x34 SWAP2 PUSH3 0x21F JUMP JUMPDEST PUSH1 0x2 DUP1 SLOAD PUSH1 0x1 PUSH1 0x1 PUSH1 0xA0 SHL SUB NOT AND CALLER OR SWAP1 SSTORE PUSH1 0x0 DUP5 SWAP1 SSTORE DUP5 MLOAD PUSH3 0x60 SWAP1 PUSH1 0x7 SWAP1 PUSH1 0x20 DUP9 ADD SWAP1 PUSH3 0x159 JUMP JUMPDEST POP PUSH1 0x1 DUP1 SLOAD PUSH1 0x1 PUSH1 0x1 PUSH1 0xA0 SHL SUB NOT AND PUSH1 0x1 PUSH1 0x1 PUSH1 0xA0 SHL SUB DUP6 AND OR SWAP1 SSTORE PUSH1 0x8 DUP1 SLOAD PUSH1 0xFF NOT AND PUSH1 0xFF DUP5 AND OR SWAP1 SSTORE PUSH1 0x5 SLOAD PUSH3 0xA6 SWAP1 DUP3 PUSH3 0x11F PUSH1 0x20 SWAP1 DUP2 SHL PUSH3 0x98C OR SWAP1 SHR JUMP JUMPDEST PUSH1 0x5 SSTORE PUSH1 0x1 PUSH1 0x1 PUSH1 0xA0 SHL SUB DUP4 AND PUSH1 0x0 SWAP1 DUP2 MSTORE PUSH1 0x3 PUSH1 0x20 SWAP1 DUP2 MSTORE PUSH1 0x40 SWAP1 SWAP2 KECCAK256 SLOAD PUSH3 0xDB SWAP2 DUP4 SWAP1 PUSH3 0x98C PUSH3 0x11F DUP3 SHL OR SWAP1 SHR JUMP JUMPDEST PUSH1 0x1 PUSH1 0x1 PUSH1 0xA0 SHL SUB SWAP4 DUP5 AND PUSH1 0x0 SWAP1 DUP2 MSTORE PUSH1 0x3 PUSH1 0x20 SWAP1 DUP2 MSTORE PUSH1 0x40 DUP1 DUP4 KECCAK256 SWAP4 SWAP1 SWAP4 SSTORE PUSH1 0x4 DUP2 MSTORE DUP3 DUP3 KECCAK256 PUSH1 0x2 SLOAD SWAP1 SWAP7 AND DUP3 MSTORE SWAP5 SWAP1 SWAP5 MSTORE SWAP1 SWAP3 KECCAK256 SWAP2 SWAP1 SWAP2 SSTORE POP PUSH3 0x381 SWAP2 POP POP JUMP JUMPDEST PUSH1 0x0 DUP3 DUP3 ADD DUP4 DUP2 LT ISZERO PUSH3 0x150 JUMPI PUSH1 0x40 MLOAD PUSH3 0x461BCD PUSH1 0xE5 SHL DUP2 MSTORE PUSH1 0x4 ADD PUSH3 0x147 SWAP1 PUSH3 0x2F0 JUMP JUMPDEST PUSH1 0x40 MLOAD DUP1 SWAP2 SUB SWAP1 REVERT JUMPDEST SWAP1 POP JUMPDEST SWAP3 SWAP2 POP POP JUMP JUMPDEST DUP3 DUP1 SLOAD PUSH1 0x1 DUP2 PUSH1 0x1 AND ISZERO PUSH2 0x100 MUL SUB AND PUSH1 0x2 SWAP1 DIV SWAP1 PUSH1 0x0 MSTORE PUSH1 0x20 PUSH1 0x0 KECCAK256 SWAP1 PUSH1 0x1F ADD PUSH1 0x20 SWAP1 DIV DUP2 ADD SWAP3 DUP3 PUSH1 0x1F LT PUSH3 0x19C JUMPI DUP1 MLOAD PUSH1 0xFF NOT AND DUP4 DUP1 ADD OR DUP6 SSTORE PUSH3 0x1CC JUMP JUMPDEST DUP3 DUP1 ADD PUSH1 0x1 ADD DUP6 SSTORE DUP3 ISZERO PUSH3 0x1CC JUMPI SWAP2 DUP3 ADD JUMPDEST DUP3 DUP2 GT ISZERO PUSH3 0x1CC JUMPI DUP3 MLOAD DUP3 SSTORE SWAP2 PUSH1 0x20 ADD SWAP2 SWAP1 PUSH1 0x1 ADD SWAP1 PUSH3 0x1AF JUMP JUMPDEST POP PUSH3 0x1DA SWAP3 SWAP2 POP PUSH3 0x1DE JUMP JUMPDEST POP SWAP1 JUMP JUMPDEST JUMPDEST DUP1 DUP3 GT ISZERO PUSH3 0x1DA JUMPI PUSH1 0x0 DUP2 SSTORE PUSH1 0x1 ADD PUSH3 0x1DF JUMP JUMPDEST DUP1 MLOAD PUSH1 0x1 PUSH1 0x1 PUSH1 0xA0 SHL SUB DUP2 AND DUP2 EQ PUSH3 0x153 JUMPI PUSH1 0x0 DUP1 REVERT JUMPDEST DUP1 MLOAD PUSH1 0xFF DUP2 AND DUP2 EQ PUSH3 0x153 JUMPI PUSH1 0x0 DUP1 REVERT JUMPDEST PUSH1 0x0 DUP1 PUSH1 0x0 DUP1 PUSH1 0x0 PUSH1 0xA0 DUP7 DUP9 SUB SLT ISZERO PUSH3 0x237 JUMPI DUP1 DUP2 REVERT JUMPDEST DUP6 MLOAD PUSH1 0x1 PUSH1 0x1 PUSH1 0x40 SHL SUB DUP1 DUP3 GT ISZERO PUSH3 0x24E JUMPI DUP3 DUP4 REVERT JUMPDEST DUP2 DUP9 ADD SWAP2 POP DUP9 PUSH1 0x1F DUP4 ADD SLT PUSH3 0x262 JUMPI DUP3 DUP4 REVERT JUMPDEST DUP2 MLOAD DUP2 DUP2 GT ISZERO PUSH3 0x271 JUMPI DUP4 DUP5 REVERT JUMPDEST PUSH3 0x286 PUSH1 0x1F DUP3 ADD PUSH1 0x1F NOT AND PUSH1 0x20 ADD PUSH3 0x327 JUMP JUMPDEST SWAP2 POP DUP1 DUP3 MSTORE DUP10 PUSH1 0x20 DUP3 DUP6 ADD ADD GT ISZERO PUSH3 0x29D JUMPI DUP4 DUP5 REVERT JUMPDEST PUSH3 0x2B0 DUP2 PUSH1 0x20 DUP5 ADD PUSH1 0x20 DUP7 ADD PUSH3 0x34E JUMP JUMPDEST POP DUP1 SWAP7 POP POP POP PUSH1 0x20 DUP7 ADD MLOAD SWAP4 POP PUSH3 0x2CC DUP8 PUSH1 0x40 DUP9 ADD PUSH3 0x1F5 JUMP JUMPDEST SWAP3 POP PUSH3 0x2DD DUP8 PUSH1 0x60 DUP9 ADD PUSH3 0x20D JUMP JUMPDEST SWAP2 POP PUSH1 0x80 DUP7 ADD MLOAD SWAP1 POP SWAP3 SWAP6 POP SWAP3 SWAP6 SWAP1 SWAP4 POP JUMP JUMPDEST PUSH1 0x20 DUP1 DUP3 MSTORE PUSH1 0x1B SWAP1 DUP3 ADD MSTORE PUSH32 0x536166654D6174683A206164646974696F6E206F766572666C6F770000000000 PUSH1 0x40 DUP3 ADD MSTORE PUSH1 0x60 ADD SWAP1 JUMP JUMPDEST PUSH1 0x40 MLOAD DUP2 DUP2 ADD PUSH1 0x1 PUSH1 0x1 PUSH1 0x40 SHL SUB DUP2 GT DUP3 DUP3 LT OR ISZERO PUSH3 0x346 JUMPI PUSH1 0x0 DUP1 REVERT JUMPDEST PUSH1 0x40 MSTORE SWAP2 SWAP1 POP JUMP JUMPDEST PUSH1 0x0 JUMPDEST DUP4 DUP2 LT ISZERO PUSH3 0x36B JUMPI DUP2 DUP2 ADD MLOAD DUP4 DUP3 ADD MSTORE PUSH1 0x20 ADD PUSH3 0x351 JUMP JUMPDEST DUP4 DUP2 GT ISZERO PUSH3 0x37B JUMPI PUSH1 0x0 DUP5 DUP5 ADD MSTORE JUMPDEST POP POP POP POP JUMP JUMPDEST PUSH2 0xE0E DUP1 PUSH3 0x391 PUSH1 0x0 CODECOPY PUSH1 0x0 RETURN INVALID PUSH1 0x80 PUSH1 0x40 MSTORE CALLVALUE DUP1 ISZERO PUSH2 0x10 JUMPI PUSH1 0x0 DUP1 REVERT JUMPDEST POP PUSH1 0x4 CALLDATASIZE LT PUSH2 0xEA JUMPI PUSH1 0x0 CALLDATALOAD PUSH1 0xE0 SHR DUP1 PUSH4 0x70A08231 GT PUSH2 0x8C JUMPI DUP1 PUSH4 0xA71B6426 GT PUSH2 0x66 JUMPI DUP1 PUSH4 0xA71B6426 EQ PUSH2 0x1C2 JUMPI DUP1 PUSH4 0xA9059CBB EQ PUSH2 0x1CA JUMPI DUP1 PUSH4 0xDD62ED3E EQ PUSH2 0x1DD JUMPI DUP1 PUSH4 0xF9B7958A EQ PUSH2 0x1F0 JUMPI PUSH2 0xEA JUMP JUMPDEST DUP1 PUSH4 0x70A08231 EQ PUSH2 0x194 JUMPI DUP1 PUSH4 0x79C65068 EQ PUSH2 0x1A7 JUMPI DUP1 PUSH4 0x95D89B41 EQ PUSH2 0x1BA JUMPI PUSH2 0xEA JUMP JUMPDEST DUP1 PUSH4 0x1D143848 GT PUSH2 0xC8 JUMPI DUP1 PUSH4 0x1D143848 EQ PUSH2 0x142 JUMPI DUP1 PUSH4 0x23B872DD EQ PUSH2 0x157 JUMPI DUP1 PUSH4 0x313CE567 EQ PUSH2 0x16A JUMPI DUP1 PUSH4 0x6C6F31F2 EQ PUSH2 0x17F JUMPI PUSH2 0xEA JUMP JUMPDEST DUP1 PUSH4 0x6FDDE03 EQ PUSH2 0xEF JUMPI DUP1 PUSH4 0x95EA7B3 EQ PUSH2 0x10D JUMPI DUP1 PUSH4 0x18160DDD EQ PUSH2 0x12D JUMPI JUMPDEST PUSH1 0x0 DUP1 REVERT JUMPDEST PUSH2 0xF7 PUSH2 0x217 JUMP JUMPDEST PUSH1 0x40 MLOAD PUSH2 0x104 SWAP2 SWAP1 PUSH2 0xB41 JUMP JUMPDEST PUSH1 0x40 MLOAD DUP1 SWAP2 SUB SWAP1 RETURN JUMPDEST PUSH2 0x120 PUSH2 0x11B CALLDATASIZE PUSH1 0x4 PUSH2 0xA8A JUMP JUMPDEST PUSH2 0x2AD JUMP JUMPDEST PUSH1 0x40 MLOAD PUSH2 0x104 SWAP2 SWAP1 PUSH2 0xB36 JUMP JUMPDEST PUSH2 0x135 PUSH2 0x3A0 JUMP JUMPDEST PUSH1 0x40 MLOAD PUSH2 0x104 SWAP2 SWAP1 PUSH2 0xCF0 JUMP JUMPDEST PUSH2 0x14A PUSH2 0x3A6 JUMP JUMPDEST PUSH1 0x40 MLOAD PUSH2 0x104 SWAP2 SWAP1 PUSH2 0xB22 JUMP JUMPDEST PUSH2 0x120 PUSH2 0x165 CALLDATASIZE PUSH1 0x4 PUSH2 0xA4A JUMP JUMPDEST PUSH2 0x3B5 JUMP JUMPDEST PUSH2 0x172 PUSH2 0x5DC JUMP JUMPDEST PUSH1 0x40 MLOAD PUSH2 0x104 SWAP2 SWAP1 PUSH2 0xD64 JUMP JUMPDEST PUSH2 0x192 PUSH2 0x18D CALLDATASIZE PUSH1 0x4 PUSH2 0xA8A JUMP JUMPDEST PUSH2 0x5E5 JUMP JUMPDEST STOP JUMPDEST PUSH2 0x135 PUSH2 0x1A2 CALLDATASIZE PUSH1 0x4 PUSH2 0x9FB JUMP JUMPDEST PUSH2 0x6C2 JUMP JUMPDEST PUSH2 0x192 PUSH2 0x1B5 CALLDATASIZE PUSH1 0x4 PUSH2 0xA8A JUMP JUMPDEST PUSH2 0x6DD JUMP JUMPDEST PUSH2 0xF7 PUSH2 0x7A1 JUMP JUMPDEST PUSH2 0x135 PUSH2 0x802 JUMP JUMPDEST PUSH2 0x120 PUSH2 0x1D8 CALLDATASIZE PUSH1 0x4 PUSH2 0xA8A JUMP JUMPDEST PUSH2 0x808 JUMP JUMPDEST PUSH2 0x135 PUSH2 0x1EB CALLDATASIZE PUSH1 0x4 PUSH2 0xA16 JUMP JUMPDEST PUSH2 0x90C JUMP JUMPDEST PUSH2 0x203 PUSH2 0x1FE CALLDATASIZE PUSH1 0x4 PUSH2 0xAB4 JUMP JUMPDEST PUSH2 0x937 JUMP JUMPDEST PUSH1 0x40 MLOAD PUSH2 0x104 SWAP9 SWAP8 SWAP7 SWAP6 SWAP5 SWAP4 SWAP3 SWAP2 SWAP1 PUSH2 0xCF9 JUMP JUMPDEST PUSH1 0x6 DUP1 SLOAD PUSH1 0x40 DUP1 MLOAD PUSH1 0x20 PUSH1 0x1F PUSH1 0x2 PUSH1 0x0 NOT PUSH2 0x100 PUSH1 0x1 DUP9 AND ISZERO MUL ADD SWAP1 SWAP6 AND SWAP5 SWAP1 SWAP5 DIV SWAP4 DUP5 ADD DUP2 SWAP1 DIV DUP2 MUL DUP3 ADD DUP2 ADD SWAP1 SWAP3 MSTORE DUP3 DUP2 MSTORE PUSH1 0x60 SWAP4 SWAP1 SWAP3 SWAP1 SWAP2 DUP4 ADD DUP3 DUP3 DUP1 ISZERO PUSH2 0x2A3 JUMPI DUP1 PUSH1 0x1F LT PUSH2 0x278 JUMPI PUSH2 0x100 DUP1 DUP4 SLOAD DIV MUL DUP4 MSTORE SWAP2 PUSH1 0x20 ADD SWAP2 PUSH2 0x2A3 JUMP JUMPDEST DUP3 ADD SWAP2 SWAP1 PUSH1 0x0 MSTORE PUSH1 0x20 PUSH1 0x0 KECCAK256 SWAP1 JUMPDEST DUP2 SLOAD DUP2 MSTORE SWAP1 PUSH1 0x1 ADD SWAP1 PUSH1 0x20 ADD DUP1 DUP4 GT PUSH2 0x286 JUMPI DUP3 SWAP1 SUB PUSH1 0x1F AND DUP3 ADD SWAP2 JUMPDEST POP POP POP POP POP SWAP1 POP SWAP1 JUMP JUMPDEST PUSH1 0x0 CALLER DUP1 PUSH2 0x2D6 JUMPI PUSH1 0x40 MLOAD PUSH3 0x461BCD PUSH1 0xE5 SHL DUP2 MSTORE PUSH1 0x4 ADD PUSH2 0x2CD SWAP1 PUSH2 0xC55 JUMP JUMPDEST PUSH1 0x40 MLOAD DUP1 SWAP2 SUB SWAP1 REVERT JUMPDEST PUSH1 0x1 PUSH1 0x1 PUSH1 0xA0 SHL SUB DUP5 AND PUSH2 0x2FC JUMPI PUSH1 0x40 MLOAD PUSH3 0x461BCD PUSH1 0xE5 SHL DUP2 MSTORE PUSH1 0x4 ADD PUSH2 0x2CD SWAP1 PUSH2 0xB97 JUMP JUMPDEST PUSH1 0x1 PUSH1 0x1 PUSH1 0xA0 SHL SUB DUP1 DUP3 AND PUSH1 0x0 SWAP1 DUP2 MSTORE PUSH1 0x4 PUSH1 0x20 SWAP1 DUP2 MSTORE PUSH1 0x40 DUP1 DUP4 KECCAK256 SWAP4 DUP9 AND DUP4 MSTORE SWAP3 SWAP1 MSTORE KECCAK256 SLOAD PUSH2 0x32C SWAP1 DUP5 PUSH2 0x98C JUMP JUMPDEST PUSH1 0x1 PUSH1 0x1 PUSH1 0xA0 SHL SUB DUP1 DUP4 AND PUSH1 0x0 DUP2 DUP2 MSTORE PUSH1 0x4 PUSH1 0x20 SWAP1 DUP2 MSTORE PUSH1 0x40 DUP1 DUP4 KECCAK256 SWAP5 DUP11 AND DUP1 DUP5 MSTORE SWAP5 SWAP1 SWAP2 MSTORE SWAP1 DUP2 SWAP1 KECCAK256 SWAP4 SWAP1 SWAP4 SSTORE SWAP2 MLOAD SWAP1 SWAP2 SWAP1 PUSH32 0x8C5BE1E5EBEC7D5BD14F71427D1E84F3DD0314C0F7B2291E5B200AC8C7C3B925 SWAP1 PUSH2 0x38C SWAP1 DUP8 SWAP1 PUSH2 0xCF0 JUMP JUMPDEST PUSH1 0x40 MLOAD DUP1 SWAP2 SUB SWAP1 LOG3 PUSH1 0x1 SWAP2 POP POP JUMPDEST SWAP3 SWAP2 POP POP JUMP JUMPDEST PUSH1 0x5 SLOAD SWAP1 JUMP JUMPDEST PUSH1 0x1 SLOAD PUSH1 0x1 PUSH1 0x1 PUSH1 0xA0 SHL SUB AND SWAP1 JUMP JUMPDEST PUSH1 0x0 PUSH1 0x1 PUSH1 0x1 PUSH1 0xA0 SHL SUB DUP5 AND PUSH2 0x3DD JUMPI PUSH1 0x40 MLOAD PUSH3 0x461BCD PUSH1 0xE5 SHL DUP2 MSTORE PUSH1 0x4 ADD PUSH2 0x2CD SWAP1 PUSH2 0xC10 JUMP JUMPDEST PUSH1 0x1 PUSH1 0x1 PUSH1 0xA0 SHL SUB DUP4 AND PUSH2 0x403 JUMPI PUSH1 0x40 MLOAD PUSH3 0x461BCD PUSH1 0xE5 SHL DUP2 MSTORE PUSH1 0x4 ADD PUSH2 0x2CD SWAP1 PUSH2 0xB54 JUMP JUMPDEST PUSH2 0x440 DUP3 PUSH1 0x40 MLOAD DUP1 PUSH1 0x60 ADD PUSH1 0x40 MSTORE DUP1 PUSH1 0x26 DUP2 MSTORE PUSH1 0x20 ADD PUSH2 0xD8B PUSH1 0x26 SWAP2 CODECOPY PUSH1 0x1 PUSH1 0x1 PUSH1 0xA0 SHL SUB DUP8 AND PUSH1 0x0 SWAP1 DUP2 MSTORE PUSH1 0x3 PUSH1 0x20 MSTORE PUSH1 0x40 SWAP1 KECCAK256 SLOAD SWAP2 SWAP1 PUSH2 0x9B8 JUMP JUMPDEST PUSH1 0x1 PUSH1 0x1 PUSH1 0xA0 SHL SUB DUP1 DUP7 AND PUSH1 0x0 SWAP1 DUP2 MSTORE PUSH1 0x3 PUSH1 0x20 MSTORE PUSH1 0x40 DUP1 DUP3 KECCAK256 SWAP4 SWAP1 SWAP4 SSTORE SWAP1 DUP6 AND DUP2 MSTORE KECCAK256 SLOAD PUSH2 0x46F SWAP1 DUP4 PUSH2 0x98C JUMP JUMPDEST PUSH1 0x1 PUSH1 0x1 PUSH1 0xA0 SHL SUB DUP1 DUP6 AND PUSH1 0x0 DUP2 DUP2 MSTORE PUSH1 0x3 PUSH1 0x20 MSTORE PUSH1 0x40 SWAP1 DUP2 SWAP1 KECCAK256 SWAP4 SWAP1 SWAP4 SSTORE SWAP2 MLOAD SWAP1 DUP7 AND SWAP1 PUSH32 0xDDF252AD1BE2C89B69C2B068FC378DAA952BA7F163C4A11628F55A4DF523B3EF SWAP1 PUSH2 0x4C1 SWAP1 DUP7 SWAP1 PUSH2 0xCF0 JUMP JUMPDEST PUSH1 0x40 MLOAD DUP1 SWAP2 SUB SWAP1 LOG3 PUSH1 0x2 SLOAD DUP5 SWAP1 PUSH1 0x1 PUSH1 0x1 PUSH1 0xA0 SHL SUB SWAP1 DUP2 AND SWAP1 DUP3 AND PUSH2 0x4F8 JUMPI PUSH1 0x40 MLOAD PUSH3 0x461BCD PUSH1 0xE5 SHL DUP2 MSTORE PUSH1 0x4 ADD PUSH2 0x2CD SWAP1 PUSH2 0xC55 JUMP JUMPDEST PUSH1 0x1 PUSH1 0x1 PUSH1 0xA0 SHL SUB DUP2 AND PUSH2 0x51E JUMPI PUSH1 0x40 MLOAD PUSH3 0x461BCD PUSH1 0xE5 SHL DUP2 MSTORE PUSH1 0x4 ADD PUSH2 0x2CD SWAP1 PUSH2 0xB97 JUMP JUMPDEST PUSH2 0x568 DUP5 PUSH1 0x40 MLOAD DUP1 PUSH1 0x60 ADD PUSH1 0x40 MSTORE DUP1 PUSH1 0x28 DUP2 MSTORE PUSH1 0x20 ADD PUSH2 0xDB1 PUSH1 0x28 SWAP2 CODECOPY PUSH1 0x1 PUSH1 0x1 PUSH1 0xA0 SHL SUB DUP1 DUP11 AND PUSH1 0x0 SWAP1 DUP2 MSTORE PUSH1 0x4 PUSH1 0x20 SWAP1 DUP2 MSTORE PUSH1 0x40 DUP1 DUP4 KECCAK256 SWAP4 DUP9 AND DUP4 MSTORE SWAP3 SWAP1 MSTORE KECCAK256 SLOAD SWAP2 SWAP1 PUSH2 0x9B8 JUMP JUMPDEST PUSH1 0x1 PUSH1 0x1 PUSH1 0xA0 SHL SUB DUP1 DUP5 AND PUSH1 0x0 DUP2 DUP2 MSTORE PUSH1 0x4 PUSH1 0x20 SWAP1 DUP2 MSTORE PUSH1 0x40 DUP1 DUP4 KECCAK256 SWAP5 DUP8 AND DUP1 DUP5 MSTORE SWAP5 SWAP1 SWAP2 MSTORE SWAP1 DUP2 SWAP1 KECCAK256 SWAP4 SWAP1 SWAP4 SSTORE SWAP2 MLOAD SWAP1 SWAP2 SWAP1 PUSH32 0x8C5BE1E5EBEC7D5BD14F71427D1E84F3DD0314C0F7B2291E5B200AC8C7C3B925 SWAP1 PUSH2 0x5C8 SWAP1 DUP9 SWAP1 PUSH2 0xCF0 JUMP JUMPDEST PUSH1 0x40 MLOAD DUP1 SWAP2 SUB SWAP1 LOG3 POP PUSH1 0x1 SWAP6 SWAP5 POP POP POP POP POP JUMP JUMPDEST PUSH1 0x8 SLOAD PUSH1 0xFF AND SWAP1 JUMP JUMPDEST PUSH1 0x2 SLOAD PUSH1 0x1 PUSH1 0x1 PUSH1 0xA0 SHL SUB AND CALLER EQ PUSH2 0x60F JUMPI PUSH1 0x40 MLOAD PUSH3 0x461BCD PUSH1 0xE5 SHL DUP2 MSTORE PUSH1 0x4 ADD PUSH2 0x2CD SWAP1 PUSH2 0xC99 JUMP JUMPDEST PUSH1 0x2 SLOAD PUSH1 0x1 PUSH1 0x1 PUSH1 0xA0 SHL SUB SWAP1 DUP2 AND SWAP1 DUP4 AND PUSH2 0x63C JUMPI PUSH1 0x40 MLOAD PUSH3 0x461BCD PUSH1 0xE5 SHL DUP2 MSTORE PUSH1 0x4 ADD PUSH2 0x2CD SWAP1 PUSH2 0xC55 JUMP JUMPDEST PUSH1 0x1 PUSH1 0x1 PUSH1 0xA0 SHL SUB DUP2 AND PUSH2 0x662 JUMPI PUSH1 0x40 MLOAD PUSH3 0x461BCD PUSH1 0xE5 SHL DUP2 MSTORE PUSH1 0x4 ADD PUSH2 0x2CD SWAP1 PUSH2 0xB97 JUMP JUMPDEST PUSH1 0x1 PUSH1 0x1 PUSH1 0xA0 SHL SUB DUP1 DUP5 AND PUSH1 0x0 SWAP1 DUP2 MSTORE PUSH1 0x4 PUSH1 0x20 SWAP1 DUP2 MSTORE PUSH1 0x40 DUP1 DUP4 KECCAK256 SWAP4 DUP6 AND DUP4 MSTORE SWAP3 SWAP1 MSTORE KECCAK256 SLOAD PUSH2 0x692 SWAP1 DUP4 PUSH2 0x98C JUMP JUMPDEST PUSH1 0x1 PUSH1 0x1 PUSH1 0xA0 SHL SUB SWAP4 DUP5 AND PUSH1 0x0 SWAP1 DUP2 MSTORE PUSH1 0x4 PUSH1 0x20 SWAP1 DUP2 MSTORE PUSH1 0x40 DUP1 DUP4 KECCAK256 SWAP5 SWAP1 SWAP7 AND DUP3 MSTORE SWAP3 SWAP1 SWAP3 MSTORE SWAP3 SWAP1 KECCAK256 SWAP2 SWAP1 SWAP2 SSTORE POP JUMP JUMPDEST PUSH1 0x1 PUSH1 0x1 PUSH1 0xA0 SHL SUB AND PUSH1 0x0 SWAP1 DUP2 MSTORE PUSH1 0x3 PUSH1 0x20 MSTORE PUSH1 0x40 SWAP1 KECCAK256 SLOAD SWAP1 JUMP JUMPDEST PUSH1 0x2 SLOAD PUSH1 0x1 PUSH1 0x1 PUSH1 0xA0 SHL SUB AND CALLER EQ PUSH2 0x707 JUMPI PUSH1 0x40 MLOAD PUSH3 0x461BCD PUSH1 0xE5 SHL DUP2 MSTORE PUSH1 0x4 ADD PUSH2 0x2CD SWAP1 PUSH2 0xC99 JUMP JUMPDEST PUSH1 0x1 PUSH1 0x1 PUSH1 0xA0 SHL SUB DUP3 AND PUSH2 0x72D JUMPI PUSH1 0x40 MLOAD PUSH3 0x461BCD PUSH1 0xE5 SHL DUP2 MSTORE PUSH1 0x4 ADD PUSH2 0x2CD SWAP1 PUSH2 0xCB9 JUMP JUMPDEST PUSH1 0x5 SLOAD PUSH2 0x73A SWAP1 DUP3 PUSH2 0x98C JUMP JUMPDEST PUSH1 0x5 SSTORE PUSH1 0x1 PUSH1 0x1 PUSH1 0xA0 SHL SUB DUP3 AND PUSH1 0x0 SWAP1 DUP2 MSTORE PUSH1 0x3 PUSH1 0x20 MSTORE PUSH1 0x40 SWAP1 KECCAK256 SLOAD PUSH2 0x760 SWAP1 DUP3 PUSH2 0x98C JUMP JUMPDEST PUSH1 0x1 PUSH1 0x1 PUSH1 0xA0 SHL SUB DUP1 DUP5 AND PUSH1 0x0 SWAP1 DUP2 MSTORE PUSH1 0x3 PUSH1 0x20 SWAP1 DUP2 MSTORE PUSH1 0x40 DUP1 DUP4 KECCAK256 SWAP5 SWAP1 SWAP5 SSTORE PUSH1 0x2 SLOAD PUSH1 0x4 DUP3 MSTORE DUP5 DUP4 KECCAK256 SWAP4 AND DUP1 DUP4 MSTORE SWAP3 SWAP1 MSTORE SWAP2 SWAP1 SWAP2 KECCAK256 SLOAD PUSH2 0x692 SWAP1 DUP4 PUSH2 0x98C JUMP JUMPDEST PUSH1 0x7 DUP1 SLOAD PUSH1 0x40 DUP1 MLOAD PUSH1 0x20 PUSH1 0x1F PUSH1 0x2 PUSH1 0x0 NOT PUSH2 0x100 PUSH1 0x1 DUP9 AND ISZERO MUL ADD SWAP1 SWAP6 AND SWAP5 SWAP1 SWAP5 DIV SWAP4 DUP5 ADD DUP2 SWAP1 DIV DUP2 MUL DUP3 ADD DUP2 ADD SWAP1 SWAP3 MSTORE DUP3 DUP2 MSTORE PUSH1 0x60 SWAP4 SWAP1 SWAP3 SWAP1 SWAP2 DUP4 ADD DUP3 DUP3 DUP1 ISZERO PUSH2 0x2A3 JUMPI DUP1 PUSH1 0x1F LT PUSH2 0x278 JUMPI PUSH2 0x100 DUP1 DUP4 SLOAD DIV MUL DUP4 MSTORE SWAP2 PUSH1 0x20 ADD SWAP2 PUSH2 0x2A3 JUMP JUMPDEST PUSH1 0x0 SLOAD SWAP1 JUMP JUMPDEST PUSH1 0x0 CALLER DUP1 PUSH2 0x828 JUMPI PUSH1 0x40 MLOAD PUSH3 0x461BCD PUSH1 0xE5 SHL DUP2 MSTORE PUSH1 0x4 ADD PUSH2 0x2CD SWAP1 PUSH2 0xC10 JUMP JUMPDEST PUSH1 0x1 PUSH1 0x1 PUSH1 0xA0 SHL SUB DUP5 AND PUSH2 0x84E JUMPI PUSH1 0x40 MLOAD PUSH3 0x461BCD PUSH1 0xE5 SHL DUP2 MSTORE PUSH1 0x4 ADD PUSH2 0x2CD SWAP1 PUSH2 0xB54 JUMP JUMPDEST PUSH2 0x88B DUP4 PUSH1 0x40 MLOAD DUP1 PUSH1 0x60 ADD PUSH1 0x40 MSTORE DUP1 PUSH1 0x26 DUP2 MSTORE PUSH1 0x20 ADD PUSH2 0xD8B PUSH1 0x26 SWAP2 CODECOPY PUSH1 0x1 PUSH1 0x1 PUSH1 0xA0 SHL SUB DUP5 AND PUSH1 0x0 SWAP1 DUP2 MSTORE PUSH1 0x3 PUSH1 0x20 MSTORE PUSH1 0x40 SWAP1 KECCAK256 SLOAD SWAP2 SWAP1 PUSH2 0x9B8 JUMP JUMPDEST PUSH1 0x1 PUSH1 0x1 PUSH1 0xA0 SHL SUB DUP1 DUP4 AND PUSH1 0x0 SWAP1 DUP2 MSTORE PUSH1 0x3 PUSH1 0x20 MSTORE PUSH1 0x40 DUP1 DUP3 KECCAK256 SWAP4 SWAP1 SWAP4 SSTORE SWAP1 DUP7 AND DUP2 MSTORE KECCAK256 SLOAD PUSH2 0x8BA SWAP1 DUP5 PUSH2 0x98C JUMP JUMPDEST PUSH1 0x1 PUSH1 0x1 PUSH1 0xA0 SHL SUB DUP1 DUP7 AND PUSH1 0x0 DUP2 DUP2 MSTORE PUSH1 0x3 PUSH1 0x20 MSTORE PUSH1 0x40 SWAP1 DUP2 SWAP1 KECCAK256 SWAP4 SWAP1 SWAP4 SSTORE SWAP2 MLOAD SWAP1 DUP4 AND SWAP1 PUSH32 0xDDF252AD1BE2C89B69C2B068FC378DAA952BA7F163C4A11628F55A4DF523B3EF SWAP1 PUSH2 0x38C SWAP1 DUP8 SWAP1 PUSH2 0xCF0 JUMP JUMPDEST PUSH1 0x1 PUSH1 0x1 PUSH1 0xA0 SHL SUB SWAP2 DUP3 AND PUSH1 0x0 SWAP1 DUP2 MSTORE PUSH1 0x4 PUSH1 0x20 SWAP1 DUP2 MSTORE PUSH1 0x40 DUP1 DUP4 KECCAK256 SWAP4 SWAP1 SWAP5 AND DUP3 MSTORE SWAP2 SWAP1 SWAP2 MSTORE KECCAK256 SLOAD SWAP1 JUMP JUMPDEST PUSH1 0x0 DUP1 PUSH1 0x0 PUSH1 0x60 DUP1 PUSH1 0x0 DUP1 PUSH1 0x0 DUP10 DUP10 ADDRESS PUSH2 0x94F PUSH2 0x217 JUMP JUMPDEST PUSH2 0x957 PUSH2 0x7A1 JUMP JUMPDEST PUSH2 0x95F PUSH2 0x3A0 JUMP JUMPDEST PUSH2 0x967 PUSH2 0x802 JUMP JUMPDEST PUSH2 0x96F PUSH2 0x3A6 JUMP JUMPDEST SWAP8 POP SWAP8 POP SWAP8 POP SWAP8 POP SWAP8 POP SWAP8 POP SWAP8 POP SWAP8 POP SWAP3 SWAP6 SWAP9 POP SWAP3 SWAP6 SWAP9 SWAP1 SWAP4 SWAP7 POP JUMP JUMPDEST PUSH1 0x0 DUP3 DUP3 ADD DUP4 DUP2 LT ISZERO PUSH2 0x9B1 JUMPI PUSH1 0x40 MLOAD PUSH3 0x461BCD PUSH1 0xE5 SHL DUP2 MSTORE PUSH1 0x4 ADD PUSH2 0x2CD SWAP1 PUSH2 0xBD9 JUMP JUMPDEST SWAP4 SWAP3 POP POP POP JUMP JUMPDEST PUSH1 0x0 DUP2 DUP5 DUP5 GT ISZERO PUSH2 0x9DC JUMPI PUSH1 0x40 MLOAD PUSH3 0x461BCD PUSH1 0xE5 SHL DUP2 MSTORE PUSH1 0x4 ADD PUSH2 0x2CD SWAP2 SWAP1 PUSH2 0xB41 JUMP JUMPDEST POP POP POP SWAP1 SUB SWAP1 JUMP JUMPDEST DUP1 CALLDATALOAD PUSH1 0x1 PUSH1 0x1 PUSH1 0xA0 SHL SUB DUP2 AND DUP2 EQ PUSH2 0x39A JUMPI PUSH1 0x0 DUP1 REVERT JUMPDEST PUSH1 0x0 PUSH1 0x20 DUP3 DUP5 SUB SLT ISZERO PUSH2 0xA0C JUMPI DUP1 DUP2 REVERT JUMPDEST PUSH2 0x9B1 DUP4 DUP4 PUSH2 0x9E4 JUMP JUMPDEST PUSH1 0x0 DUP1 PUSH1 0x40 DUP4 DUP6 SUB SLT ISZERO PUSH2 0xA28 JUMPI DUP1 DUP2 REVERT JUMPDEST PUSH2 0xA32 DUP5 DUP5 PUSH2 0x9E4 JUMP JUMPDEST SWAP2 POP PUSH2 0xA41 DUP5 PUSH1 0x20 DUP6 ADD PUSH2 0x9E4 JUMP JUMPDEST SWAP1 POP SWAP3 POP SWAP3 SWAP1 POP JUMP JUMPDEST PUSH1 0x0 DUP1 PUSH1 0x0 PUSH1 0x60 DUP5 DUP7 SUB SLT ISZERO PUSH2 0xA5E JUMPI DUP1 DUP2 REVERT JUMPDEST DUP4 CALLDATALOAD PUSH2 0xA69 DUP2 PUSH2 0xD72 JUMP JUMPDEST SWAP3 POP PUSH1 0x20 DUP5 ADD CALLDATALOAD PUSH2 0xA79 DUP2 PUSH2 0xD72 JUMP JUMPDEST SWAP3 SWAP6 SWAP3 SWAP5 POP POP POP PUSH1 0x40 SWAP2 SWAP1 SWAP2 ADD CALLDATALOAD SWAP1 JUMP JUMPDEST PUSH1 0x0 DUP1 PUSH1 0x40 DUP4 DUP6 SUB SLT ISZERO PUSH2 0xA9C JUMPI DUP2 DUP3 REVERT JUMPDEST PUSH2 0xAA6 DUP5 DUP5 PUSH2 0x9E4 JUMP JUMPDEST SWAP5 PUSH1 0x20 SWAP4 SWAP1 SWAP4 ADD CALLDATALOAD SWAP4 POP POP POP JUMP JUMPDEST PUSH1 0x0 DUP1 PUSH1 0x40 DUP4 DUP6 SUB SLT ISZERO PUSH2 0xAC6 JUMPI DUP2 DUP3 REVERT JUMPDEST DUP3 CALLDATALOAD SWAP2 POP PUSH2 0xA41 DUP5 PUSH1 0x20 DUP6 ADD PUSH2 0x9E4 JUMP JUMPDEST PUSH1 0x0 DUP2 MLOAD DUP1 DUP5 MSTORE DUP2 JUMPDEST DUP2 DUP2 LT ISZERO PUSH2 0xAFC JUMPI PUSH1 0x20 DUP2 DUP6 ADD DUP2 ADD MLOAD DUP7 DUP4 ADD DUP3 ADD MSTORE ADD PUSH2 0xAE0 JUMP JUMPDEST DUP2 DUP2 GT ISZERO PUSH2 0xB0D JUMPI DUP3 PUSH1 0x20 DUP4 DUP8 ADD ADD MSTORE JUMPDEST POP PUSH1 0x1F ADD PUSH1 0x1F NOT AND SWAP3 SWAP1 SWAP3 ADD PUSH1 0x20 ADD SWAP3 SWAP2 POP POP JUMP JUMPDEST PUSH1 0x1 PUSH1 0x1 PUSH1 0xA0 SHL SUB SWAP2 SWAP1 SWAP2 AND DUP2 MSTORE PUSH1 0x20 ADD SWAP1 JUMP JUMPDEST SWAP1 ISZERO ISZERO DUP2 MSTORE PUSH1 0x20 ADD SWAP1 JUMP JUMPDEST PUSH1 0x0 PUSH1 0x20 DUP3 MSTORE PUSH2 0x9B1 PUSH1 0x20 DUP4 ADD DUP5 PUSH2 0xAD7 JUMP JUMPDEST PUSH1 0x20 DUP1 DUP3 MSTORE PUSH1 0x23 SWAP1 DUP3 ADD MSTORE PUSH32 0x45524332303A207472616E7366657220746F20746865207A65726F2061646472 PUSH1 0x40 DUP3 ADD MSTORE PUSH3 0x657373 PUSH1 0xE8 SHL PUSH1 0x60 DUP3 ADD MSTORE PUSH1 0x80 ADD SWAP1 JUMP JUMPDEST PUSH1 0x20 DUP1 DUP3 MSTORE PUSH1 0x22 SWAP1 DUP3 ADD MSTORE PUSH32 0x45524332303A20617070726F766520746F20746865207A65726F206164647265 PUSH1 0x40 DUP3 ADD MSTORE PUSH2 0x7373 PUSH1 0xF0 SHL PUSH1 0x60 DUP3 ADD MSTORE PUSH1 0x80 ADD SWAP1 JUMP JUMPDEST PUSH1 0x20 DUP1 DUP3 MSTORE PUSH1 0x1B SWAP1 DUP3 ADD MSTORE PUSH32 0x536166654D6174683A206164646974696F6E206F766572666C6F770000000000 PUSH1 0x40 DUP3 ADD MSTORE PUSH1 0x60 ADD SWAP1 JUMP JUMPDEST PUSH1 0x20 DUP1 DUP3 MSTORE PUSH1 0x25 SWAP1 DUP3 ADD MSTORE PUSH32 0x45524332303A207472616E736665722066726F6D20746865207A65726F206164 PUSH1 0x40 DUP3 ADD MSTORE PUSH5 0x6472657373 PUSH1 0xD8 SHL PUSH1 0x60 DUP3 ADD MSTORE PUSH1 0x80 ADD SWAP1 JUMP JUMPDEST PUSH1 0x20 DUP1 DUP3 MSTORE PUSH1 0x24 SWAP1 DUP3 ADD MSTORE PUSH32 0x45524332303A20617070726F76652066726F6D20746865207A65726F20616464 PUSH1 0x40 DUP3 ADD MSTORE PUSH4 0x72657373 PUSH1 0xE0 SHL PUSH1 0x60 DUP3 ADD MSTORE PUSH1 0x80 ADD SWAP1 JUMP JUMPDEST PUSH1 0x20 DUP1 DUP3 MSTORE PUSH1 0x6 SWAP1 DUP3 ADD MSTORE PUSH6 0x26A120A6AB19 PUSH1 0xD1 SHL PUSH1 0x40 DUP3 ADD MSTORE PUSH1 0x60 ADD SWAP1 JUMP JUMPDEST PUSH1 0x20 DUP1 DUP3 MSTORE PUSH1 0x1F SWAP1 DUP3 ADD MSTORE PUSH32 0x45524332303A206D696E7420746F20746865207A65726F206164647265737300 PUSH1 0x40 DUP3 ADD MSTORE PUSH1 0x60 ADD SWAP1 JUMP JUMPDEST SWAP1 DUP2 MSTORE PUSH1 0x20 ADD SWAP1 JUMP JUMPDEST DUP9 DUP2 MSTORE PUSH1 0x1 PUSH1 0x1 PUSH1 0xA0 SHL SUB DUP9 DUP2 AND PUSH1 0x20 DUP4 ADD MSTORE DUP8 DUP2 AND PUSH1 0x40 DUP4 ADD MSTORE PUSH2 0x100 PUSH1 0x60 DUP4 ADD DUP2 SWAP1 MSTORE PUSH1 0x0 SWAP2 PUSH2 0xD2D DUP5 DUP4 ADD DUP11 PUSH2 0xAD7 JUMP JUMPDEST SWAP2 POP DUP4 DUP3 SUB PUSH1 0x80 DUP6 ADD MSTORE PUSH2 0xD41 DUP3 DUP10 PUSH2 0xAD7 JUMP JUMPDEST PUSH1 0xA0 DUP6 ADD SWAP8 SWAP1 SWAP8 MSTORE PUSH1 0xC0 DUP5 ADD SWAP6 SWAP1 SWAP6 MSTORE POP POP SWAP2 AND PUSH1 0xE0 SWAP1 SWAP2 ADD MSTORE SWAP6 SWAP5 POP POP POP POP POP JUMP JUMPDEST PUSH1 0xFF SWAP2 SWAP1 SWAP2 AND DUP2 MSTORE PUSH1 0x20 ADD SWAP1 JUMP JUMPDEST PUSH1 0x1 PUSH1 0x1 PUSH1 0xA0 SHL SUB DUP2 AND DUP2 EQ PUSH2 0xD87 JUMPI PUSH1 0x0 DUP1 REVERT JUMPDEST POP JUMP INVALID GASLIMIT MSTORE NUMBER ORIGIN ADDRESS GASPRICE KECCAK256 PUSH21 0x72616E7366657220616D6F756E7420657863656564 PUSH20 0x2062616C616E636545524332303A207472616E73 PUSH7 0x657220616D6F75 PUSH15 0x74206578636565647320616C6C6F77 PUSH2 0x6E63 PUSH6 0xA26469706673 PC 0x22 SLT KECCAK256 MSTORE8 PUSH10 0x68347214707446161F42 0x25 MOD PUSH13 0xC37D1B1CAE3AA319384EC0DBF9 DUP5 SWAP9 PUSH15 0xE264736F6C634300060C0033455243 CALLDATACOPY ORIGIN BALANCE GASPRICE KECCAK256 PUSH21 0x72616E7366657220746F206E6F6E20455243373231 MSTORE PUSH6 0x636569766572 KECCAK256 PUSH10 0x6D706C656D656E746572 0xE4 0xEB 0xE6 SHL MLOAD SLOAD 0xBE PUSH6 0x502FFD10F19B 0xBD SSTORE PUSH29 0x590EF2CE56D0959D42D567662E4E7F6727B66909E21E3D4259BEC11218 SWAP16 0xA7 SWAP1 0xCF PUSH12 0x1C961B369E562302AE5EA612 DUP13 LOG2 PUSH5 0x6970667358 0x22 SLT KECCAK256 EXTCODEHASH REVERT PUSH23 0xBCC61FA25EECF724B3D1ACA9117D8ECBD5D01C30BCCE48 0xF9 0xC3 PC 0xDD 0xE5 0xE1 PUSH5 0x736F6C6343 STOP MOD 0xC STOP CALLER PUSH1 0x80 PUSH1 0x40 MSTORE CALLVALUE DUP1 ISZERO PUSH3 0x11 JUMPI PUSH1 0x0 DUP1 REVERT JUMPDEST POP PUSH1 0x40 MLOAD PUSH3 0x119F CODESIZE SUB DUP1 PUSH3 0x119F DUP4 CODECOPY DUP2 ADD PUSH1 0x40 DUP2 SWAP1 MSTORE PUSH3 0x34 SWAP2 PUSH3 0x21F JUMP JUMPDEST PUSH1 0x2 DUP1 SLOAD PUSH1 0x1 PUSH1 0x1 PUSH1 0xA0 SHL SUB NOT AND CALLER OR SWAP1 SSTORE PUSH1 0x0 DUP5 SWAP1 SSTORE DUP5 MLOAD PUSH3 0x60 SWAP1 PUSH1 0x7 SWAP1 PUSH1 0x20 DUP9 ADD SWAP1 PUSH3 0x159 JUMP JUMPDEST POP PUSH1 0x1 DUP1 SLOAD PUSH1 0x1 PUSH1 0x1 PUSH1 0xA0 SHL SUB NOT AND PUSH1 0x1 PUSH1 0x1 PUSH1 0xA0 SHL SUB DUP6 AND OR SWAP1 SSTORE PUSH1 0x8 DUP1 SLOAD PUSH1 0xFF NOT AND PUSH1 0xFF DUP5 AND OR SWAP1 SSTORE PUSH1 0x5 SLOAD PUSH3 0xA6 SWAP1 DUP3 PUSH3 0x11F PUSH1 0x20 SWAP1 DUP2 SHL PUSH3 0x98C OR SWAP1 SHR JUMP JUMPDEST PUSH1 0x5 SSTORE PUSH1 0x1 PUSH1 0x1 PUSH1 0xA0 SHL SUB DUP4 AND PUSH1 0x0 SWAP1 DUP2 MSTORE PUSH1 0x3 PUSH1 0x20 SWAP1 DUP2 MSTORE PUSH1 0x40 SWAP1 SWAP2 KECCAK256 SLOAD PUSH3 0xDB SWAP2 DUP4 SWAP1 PUSH3 0x98C PUSH3 0x11F DUP3 SHL OR SWAP1 SHR JUMP JUMPDEST PUSH1 0x1 PUSH1 0x1 PUSH1 0xA0 SHL SUB SWAP4 DUP5 AND PUSH1 0x0 SWAP1 DUP2 MSTORE PUSH1 0x3 PUSH1 0x20 SWAP1 DUP2 MSTORE PUSH1 0x40 DUP1 DUP4 KECCAK256 SWAP4 SWAP1 SWAP4 SSTORE PUSH1 0x4 DUP2 MSTORE DUP3 DUP3 KECCAK256 PUSH1 0x2 SLOAD SWAP1 SWAP7 AND DUP3 MSTORE SWAP5 SWAP1 SWAP5 MSTORE SWAP1 SWAP3 KECCAK256 SWAP2 SWAP1 SWAP2 SSTORE POP PUSH3 0x381 SWAP2 POP POP JUMP JUMPDEST PUSH1 0x0 DUP3 DUP3 ADD DUP4 DUP2 LT ISZERO PUSH3 0x150 JUMPI PUSH1 0x40 MLOAD PUSH3 0x461BCD PUSH1 0xE5 SHL DUP2 MSTORE PUSH1 0x4 ADD PUSH3 0x147 SWAP1 PUSH3 0x2F0 JUMP JUMPDEST PUSH1 0x40 MLOAD DUP1 SWAP2 SUB SWAP1 REVERT JUMPDEST SWAP1 POP JUMPDEST SWAP3 SWAP2 POP POP JUMP JUMPDEST DUP3 DUP1 SLOAD PUSH1 0x1 DUP2 PUSH1 0x1 AND ISZERO PUSH2 0x100 MUL SUB AND PUSH1 0x2 SWAP1 DIV SWAP1 PUSH1 0x0 MSTORE PUSH1 0x20 PUSH1 0x0 KECCAK256 SWAP1 PUSH1 0x1F ADD PUSH1 0x20 SWAP1 DIV DUP2 ADD SWAP3 DUP3 PUSH1 0x1F LT PUSH3 0x19C JUMPI DUP1 MLOAD PUSH1 0xFF NOT AND DUP4 DUP1 ADD OR DUP6 SSTORE PUSH3 0x1CC JUMP JUMPDEST DUP3 DUP1 ADD PUSH1 0x1 ADD DUP6 SSTORE DUP3 ISZERO PUSH3 0x1CC JUMPI SWAP2 DUP3 ADD JUMPDEST DUP3 DUP2 GT ISZERO PUSH3 0x1CC JUMPI DUP3 MLOAD DUP3 SSTORE SWAP2 PUSH1 0x20 ADD SWAP2 SWAP1 PUSH1 0x1 ADD SWAP1 PUSH3 0x1AF JUMP JUMPDEST POP PUSH3 0x1DA SWAP3 SWAP2 POP PUSH3 0x1DE JUMP JUMPDEST POP SWAP1 JUMP JUMPDEST JUMPDEST DUP1 DUP3 GT ISZERO PUSH3 0x1DA JUMPI PUSH1 0x0 DUP2 SSTORE PUSH1 0x1 ADD PUSH3 0x1DF JUMP JUMPDEST DUP1 MLOAD PUSH1 0x1 PUSH1 0x1 PUSH1 0xA0 SHL SUB DUP2 AND DUP2 EQ PUSH3 0x153 JUMPI PUSH1 0x0 DUP1 REVERT JUMPDEST DUP1 MLOAD PUSH1 0xFF DUP2 AND DUP2 EQ PUSH3 0x153 JUMPI PUSH1 0x0 DUP1 REVERT JUMPDEST PUSH1 0x0 DUP1 PUSH1 0x0 DUP1 PUSH1 0x0 PUSH1 0xA0 DUP7 DUP9 SUB SLT ISZERO PUSH3 0x237 JUMPI DUP1 DUP2 REVERT JUMPDEST DUP6 MLOAD PUSH1 0x1 PUSH1 0x1 PUSH1 0x40 SHL SUB DUP1 DUP3 GT ISZERO PUSH3 0x24E JUMPI DUP3 DUP4 REVERT JUMPDEST DUP2 DUP9 ADD SWAP2 POP DUP9 PUSH1 0x1F DUP4 ADD SLT PUSH3 0x262 JUMPI DUP3 DUP4 REVERT JUMPDEST DUP2 MLOAD DUP2 DUP2 GT ISZERO PUSH3 0x271 JUMPI DUP4 DUP5 REVERT JUMPDEST PUSH3 0x286 PUSH1 0x1F DUP3 ADD PUSH1 0x1F NOT AND PUSH1 0x20 ADD PUSH3 0x327 JUMP JUMPDEST SWAP2 POP DUP1 DUP3 MSTORE DUP10 PUSH1 0x20 DUP3 DUP6 ADD ADD GT ISZERO PUSH3 0x29D JUMPI DUP4 DUP5 REVERT JUMPDEST PUSH3 0x2B0 DUP2 PUSH1 0x20 DUP5 ADD PUSH1 0x20 DUP7 ADD PUSH3 0x34E JUMP JUMPDEST POP DUP1 SWAP7 POP POP POP PUSH1 0x20 DUP7 ADD MLOAD SWAP4 POP PUSH3 0x2CC DUP8 PUSH1 0x40 DUP9 ADD PUSH3 0x1F5 JUMP JUMPDEST SWAP3 POP PUSH3 0x2DD DUP8 PUSH1 0x60 DUP9 ADD PUSH3 0x20D JUMP JUMPDEST SWAP2 POP PUSH1 0x80 DUP7 ADD MLOAD SWAP1 POP SWAP3 SWAP6 POP SWAP3 SWAP6 SWAP1 SWAP4 POP JUMP JUMPDEST PUSH1 0x20 DUP1 DUP3 MSTORE PUSH1 0x1B SWAP1 DUP3 ADD MSTORE PUSH32 0x536166654D6174683A206164646974696F6E206F766572666C6F770000000000 PUSH1 0x40 DUP3 ADD MSTORE PUSH1 0x60 ADD SWAP1 JUMP JUMPDEST PUSH1 0x40 MLOAD DUP2 DUP2 ADD PUSH1 0x1 PUSH1 0x1 PUSH1 0x40 SHL SUB DUP2 GT DUP3 DUP3 LT OR ISZERO PUSH3 0x346 JUMPI PUSH1 0x0 DUP1 REVERT JUMPDEST PUSH1 0x40 MSTORE SWAP2 SWAP1 POP JUMP JUMPDEST PUSH1 0x0 JUMPDEST DUP4 DUP2 LT ISZERO PUSH3 0x36B JUMPI DUP2 DUP2 ADD MLOAD DUP4 DUP3 ADD MSTORE PUSH1 0x20 ADD PUSH3 0x351 JUMP JUMPDEST DUP4 DUP2 GT ISZERO PUSH3 0x37B JUMPI PUSH1 0x0 DUP5 DUP5 ADD MSTORE JUMPDEST POP POP POP POP JUMP JUMPDEST PUSH2 0xE0E DUP1 PUSH3 0x391 PUSH1 0x0 CODECOPY PUSH1 0x0 RETURN INVALID PUSH1 0x80 PUSH1 0x40 MSTORE CALLVALUE DUP1 ISZERO PUSH2 0x10 JUMPI PUSH1 0x0 DUP1 REVERT JUMPDEST POP PUSH1 0x4 CALLDATASIZE LT PUSH2 0xEA JUMPI PUSH1 0x0 CALLDATALOAD PUSH1 0xE0 SHR DUP1 PUSH4 0x70A08231 GT PUSH2 0x8C JUMPI DUP1 PUSH4 0xA71B6426 GT PUSH2 0x66 JUMPI DUP1 PUSH4 0xA71B6426 EQ PUSH2 0x1C2 JUMPI DUP1 PUSH4 0xA9059CBB EQ PUSH2 0x1CA JUMPI DUP1 PUSH4 0xDD62ED3E EQ PUSH2 0x1DD JUMPI DUP1 PUSH4 0xF9B7958A EQ PUSH2 0x1F0 JUMPI PUSH2 0xEA JUMP JUMPDEST DUP1 PUSH4 0x70A08231 EQ PUSH2 0x194 JUMPI DUP1 PUSH4 0x79C65068 EQ PUSH2 0x1A7 JUMPI DUP1 PUSH4 0x95D89B41 EQ PUSH2 0x1BA JUMPI PUSH2 0xEA JUMP JUMPDEST DUP1 PUSH4 0x1D143848 GT PUSH2 0xC8 JUMPI DUP1 PUSH4 0x1D143848 EQ PUSH2 0x142 JUMPI DUP1 PUSH4 0x23B872DD EQ PUSH2 0x157 JUMPI DUP1 PUSH4 0x313CE567 EQ PUSH2 0x16A JUMPI DUP1 PUSH4 0x6C6F31F2 EQ PUSH2 0x17F JUMPI PUSH2 0xEA JUMP JUMPDEST DUP1 PUSH4 0x6FDDE03 EQ PUSH2 0xEF JUMPI DUP1 PUSH4 0x95EA7B3 EQ PUSH2 0x10D JUMPI DUP1 PUSH4 0x18160DDD EQ PUSH2 0x12D JUMPI JUMPDEST PUSH1 0x0 DUP1 REVERT JUMPDEST PUSH2 0xF7 PUSH2 0x217 JUMP JUMPDEST PUSH1 0x40 MLOAD PUSH2 0x104 SWAP2 SWAP1 PUSH2 0xB41 JUMP JUMPDEST PUSH1 0x40 MLOAD DUP1 SWAP2 SUB SWAP1 RETURN JUMPDEST PUSH2 0x120 PUSH2 0x11B CALLDATASIZE PUSH1 0x4 PUSH2 0xA8A JUMP JUMPDEST PUSH2 0x2AD JUMP JUMPDEST PUSH1 0x40 MLOAD PUSH2 0x104 SWAP2 SWAP1 PUSH2 0xB36 JUMP JUMPDEST PUSH2 0x135 PUSH2 0x3A0 JUMP JUMPDEST PUSH1 0x40 MLOAD PUSH2 0x104 SWAP2 SWAP1 PUSH2 0xCF0 JUMP JUMPDEST PUSH2 0x14A PUSH2 0x3A6 JUMP JUMPDEST PUSH1 0x40 MLOAD PUSH2 0x104 SWAP2 SWAP1 PUSH2 0xB22 JUMP JUMPDEST PUSH2 0x120 PUSH2 0x165 CALLDATASIZE PUSH1 0x4 PUSH2 0xA4A JUMP JUMPDEST PUSH2 0x3B5 JUMP JUMPDEST PUSH2 0x172 PUSH2 0x5DC JUMP JUMPDEST PUSH1 0x40 MLOAD PUSH2 0x104 SWAP2 SWAP1 PUSH2 0xD64 JUMP JUMPDEST PUSH2 0x192 PUSH2 0x18D CALLDATASIZE PUSH1 0x4 PUSH2 0xA8A JUMP JUMPDEST PUSH2 0x5E5 JUMP JUMPDEST STOP JUMPDEST PUSH2 0x135 PUSH2 0x1A2 CALLDATASIZE PUSH1 0x4 PUSH2 0x9FB JUMP JUMPDEST PUSH2 0x6C2 JUMP JUMPDEST PUSH2 0x192 PUSH2 0x1B5 CALLDATASIZE PUSH1 0x4 PUSH2 0xA8A JUMP JUMPDEST PUSH2 0x6DD JUMP JUMPDEST PUSH2 0xF7 PUSH2 0x7A1 JUMP JUMPDEST PUSH2 0x135 PUSH2 0x802 JUMP JUMPDEST PUSH2 0x120 PUSH2 0x1D8 CALLDATASIZE PUSH1 0x4 PUSH2 0xA8A JUMP JUMPDEST PUSH2 0x808 JUMP JUMPDEST PUSH2 0x135 PUSH2 0x1EB CALLDATASIZE PUSH1 0x4 PUSH2 0xA16 JUMP JUMPDEST PUSH2 0x90C JUMP JUMPDEST PUSH2 0x203 PUSH2 0x1FE CALLDATASIZE PUSH1 0x4 PUSH2 0xAB4 JUMP JUMPDEST PUSH2 0x937 JUMP JUMPDEST PUSH1 0x40 MLOAD PUSH2 0x104 SWAP9 SWAP8 SWAP7 SWAP6 SWAP5 SWAP4 SWAP3 SWAP2 SWAP1 PUSH2 0xCF9 JUMP JUMPDEST PUSH1 0x6 DUP1 SLOAD PUSH1 0x40 DUP1 MLOAD PUSH1 0x20 PUSH1 0x1F PUSH1 0x2 PUSH1 0x0 NOT PUSH2 0x100 PUSH1 0x1 DUP9 AND ISZERO MUL ADD SWAP1 SWAP6 AND SWAP5 SWAP1 SWAP5 DIV SWAP4 DUP5 ADD DUP2 SWAP1 DIV DUP2 MUL DUP3 ADD DUP2 ADD SWAP1 SWAP3 MSTORE DUP3 DUP2 MSTORE PUSH1 0x60 SWAP4 SWAP1 SWAP3 SWAP1 SWAP2 DUP4 ADD DUP3 DUP3 DUP1 ISZERO PUSH2 0x2A3 JUMPI DUP1 PUSH1 0x1F LT PUSH2 0x278 JUMPI PUSH2 0x100 DUP1 DUP4 SLOAD DIV MUL DUP4 MSTORE SWAP2 PUSH1 0x20 ADD SWAP2 PUSH2 0x2A3 JUMP JUMPDEST DUP3 ADD SWAP2 SWAP1 PUSH1 0x0 MSTORE PUSH1 0x20 PUSH1 0x0 KECCAK256 SWAP1 JUMPDEST DUP2 SLOAD DUP2 MSTORE SWAP1 PUSH1 0x1 ADD SWAP1 PUSH1 0x20 ADD DUP1 DUP4 GT PUSH2 0x286 JUMPI DUP3 SWAP1 SUB PUSH1 0x1F AND DUP3 ADD SWAP2 JUMPDEST POP POP POP POP POP SWAP1 POP SWAP1 JUMP JUMPDEST PUSH1 0x0 CALLER DUP1 PUSH2 0x2D6 JUMPI PUSH1 0x40 MLOAD PUSH3 0x461BCD PUSH1 0xE5 SHL DUP2 MSTORE PUSH1 0x4 ADD PUSH2 0x2CD SWAP1 PUSH2 0xC55 JUMP JUMPDEST PUSH1 0x40 MLOAD DUP1 SWAP2 SUB SWAP1 REVERT JUMPDEST PUSH1 0x1 PUSH1 0x1 PUSH1 0xA0 SHL SUB DUP5 AND PUSH2 0x2FC JUMPI PUSH1 0x40 MLOAD PUSH3 0x461BCD PUSH1 0xE5 SHL DUP2 MSTORE PUSH1 0x4 ADD PUSH2 0x2CD SWAP1 PUSH2 0xB97 JUMP JUMPDEST PUSH1 0x1 PUSH1 0x1 PUSH1 0xA0 SHL SUB DUP1 DUP3 AND PUSH1 0x0 SWAP1 DUP2 MSTORE PUSH1 0x4 PUSH1 0x20 SWAP1 DUP2 MSTORE PUSH1 0x40 DUP1 DUP4 KECCAK256 SWAP4 DUP9 AND DUP4 MSTORE SWAP3 SWAP1 MSTORE KECCAK256 SLOAD PUSH2 0x32C SWAP1 DUP5 PUSH2 0x98C JUMP JUMPDEST PUSH1 0x1 PUSH1 0x1 PUSH1 0xA0 SHL SUB DUP1 DUP4 AND PUSH1 0x0 DUP2 DUP2 MSTORE PUSH1 0x4 PUSH1 0x20 SWAP1 DUP2 MSTORE PUSH1 0x40 DUP1 DUP4 KECCAK256 SWAP5 DUP11 AND DUP1 DUP5 MSTORE SWAP5 SWAP1 SWAP2 MSTORE SWAP1 DUP2 SWAP1 KECCAK256 SWAP4 SWAP1 SWAP4 SSTORE SWAP2 MLOAD SWAP1 SWAP2 SWAP1 PUSH32 0x8C5BE1E5EBEC7D5BD14F71427D1E84F3DD0314C0F7B2291E5B200AC8C7C3B925 SWAP1 PUSH2 0x38C SWAP1 DUP8 SWAP1 PUSH2 0xCF0 JUMP JUMPDEST PUSH1 0x40 MLOAD DUP1 SWAP2 SUB SWAP1 LOG3 PUSH1 0x1 SWAP2 POP POP JUMPDEST SWAP3 SWAP2 POP POP JUMP JUMPDEST PUSH1 0x5 SLOAD SWAP1 JUMP JUMPDEST PUSH1 0x1 SLOAD PUSH1 0x1 PUSH1 0x1 PUSH1 0xA0 SHL SUB AND SWAP1 JUMP JUMPDEST PUSH1 0x0 PUSH1 0x1 PUSH1 0x1 PUSH1 0xA0 SHL SUB DUP5 AND PUSH2 0x3DD JUMPI PUSH1 0x40 MLOAD PUSH3 0x461BCD PUSH1 0xE5 SHL DUP2 MSTORE PUSH1 0x4 ADD PUSH2 0x2CD SWAP1 PUSH2 0xC10 JUMP JUMPDEST PUSH1 0x1 PUSH1 0x1 PUSH1 0xA0 SHL SUB DUP4 AND PUSH2 0x403 JUMPI PUSH1 0x40 MLOAD PUSH3 0x461BCD PUSH1 0xE5 SHL DUP2 MSTORE PUSH1 0x4 ADD PUSH2 0x2CD SWAP1 PUSH2 0xB54 JUMP JUMPDEST PUSH2 0x440 DUP3 PUSH1 0x40 MLOAD DUP1 PUSH1 0x60 ADD PUSH1 0x40 MSTORE DUP1 PUSH1 0x26 DUP2 MSTORE PUSH1 0x20 ADD PUSH2 0xD8B PUSH1 0x26 SWAP2 CODECOPY PUSH1 0x1 PUSH1 0x1 PUSH1 0xA0 SHL SUB DUP8 AND PUSH1 0x0 SWAP1 DUP2 MSTORE PUSH1 0x3 PUSH1 0x20 MSTORE PUSH1 0x40 SWAP1 KECCAK256 SLOAD SWAP2 SWAP1 PUSH2 0x9B8 JUMP JUMPDEST PUSH1 0x1 PUSH1 0x1 PUSH1 0xA0 SHL SUB DUP1 DUP7 AND PUSH1 0x0 SWAP1 DUP2 MSTORE PUSH1 0x3 PUSH1 0x20 MSTORE PUSH1 0x40 DUP1 DUP3 KECCAK256 SWAP4 SWAP1 SWAP4 SSTORE SWAP1 DUP6 AND DUP2 MSTORE KECCAK256 SLOAD PUSH2 0x46F SWAP1 DUP4 PUSH2 0x98C JUMP JUMPDEST PUSH1 0x1 PUSH1 0x1 PUSH1 0xA0 SHL SUB DUP1 DUP6 AND PUSH1 0x0 DUP2 DUP2 MSTORE PUSH1 0x3 PUSH1 0x20 MSTORE PUSH1 0x40 SWAP1 DUP2 SWAP1 KECCAK256 SWAP4 SWAP1 SWAP4 SSTORE SWAP2 MLOAD SWAP1 DUP7 AND SWAP1 PUSH32 0xDDF252AD1BE2C89B69C2B068FC378DAA952BA7F163C4A11628F55A4DF523B3EF SWAP1 PUSH2 0x4C1 SWAP1 DUP7 SWAP1 PUSH2 0xCF0 JUMP JUMPDEST PUSH1 0x40 MLOAD DUP1 SWAP2 SUB SWAP1 LOG3 PUSH1 0x2 SLOAD DUP5 SWAP1 PUSH1 0x1 PUSH1 0x1 PUSH1 0xA0 SHL SUB SWAP1 DUP2 AND SWAP1 DUP3 AND PUSH2 0x4F8 JUMPI PUSH1 0x40 MLOAD PUSH3 0x461BCD PUSH1 0xE5 SHL DUP2 MSTORE PUSH1 0x4 ADD PUSH2 0x2CD SWAP1 PUSH2 0xC55 JUMP JUMPDEST PUSH1 0x1 PUSH1 0x1 PUSH1 0xA0 SHL SUB DUP2 AND PUSH2 0x51E JUMPI PUSH1 0x40 MLOAD PUSH3 0x461BCD PUSH1 0xE5 SHL DUP2 MSTORE PUSH1 0x4 ADD PUSH2 0x2CD SWAP1 PUSH2 0xB97 JUMP JUMPDEST PUSH2 0x568 DUP5 PUSH1 0x40 MLOAD DUP1 PUSH1 0x60 ADD PUSH1 0x40 MSTORE DUP1 PUSH1 0x28 DUP2 MSTORE PUSH1 0x20 ADD PUSH2 0xDB1 PUSH1 0x28 SWAP2 CODECOPY PUSH1 0x1 PUSH1 0x1 PUSH1 0xA0 SHL SUB DUP1 DUP11 AND PUSH1 0x0 SWAP1 DUP2 MSTORE PUSH1 0x4 PUSH1 0x20 SWAP1 DUP2 MSTORE PUSH1 0x40 DUP1 DUP4 KECCAK256 SWAP4 DUP9 AND DUP4 MSTORE SWAP3 SWAP1 MSTORE KECCAK256 SLOAD SWAP2 SWAP1 PUSH2 0x9B8 JUMP JUMPDEST PUSH1 0x1 PUSH1 0x1 PUSH1 0xA0 SHL SUB DUP1 DUP5 AND PUSH1 0x0 DUP2 DUP2 MSTORE PUSH1 0x4 PUSH1 0x20 SWAP1 DUP2 MSTORE PUSH1 0x40 DUP1 DUP4 KECCAK256 SWAP5 DUP8 AND DUP1 DUP5 MSTORE SWAP5 SWAP1 SWAP2 MSTORE SWAP1 DUP2 SWAP1 KECCAK256 SWAP4 SWAP1 SWAP4 SSTORE SWAP2 MLOAD SWAP1 SWAP2 SWAP1 PUSH32 0x8C5BE1E5EBEC7D5BD14F71427D1E84F3DD0314C0F7B2291E5B200AC8C7C3B925 SWAP1 PUSH2 0x5C8 SWAP1 DUP9 SWAP1 PUSH2 0xCF0 JUMP JUMPDEST PUSH1 0x40 MLOAD DUP1 SWAP2 SUB SWAP1 LOG3 POP PUSH1 0x1 SWAP6 SWAP5 POP POP POP POP POP JUMP JUMPDEST PUSH1 0x8 SLOAD PUSH1 0xFF AND SWAP1 JUMP JUMPDEST PUSH1 0x2 SLOAD PUSH1 0x1 PUSH1 0x1 PUSH1 0xA0 SHL SUB AND CALLER EQ PUSH2 0x60F JUMPI PUSH1 0x40 MLOAD PUSH3 0x461BCD PUSH1 0xE5 SHL DUP2 MSTORE PUSH1 0x4 ADD PUSH2 0x2CD SWAP1 PUSH2 0xC99 JUMP JUMPDEST PUSH1 0x2 SLOAD PUSH1 0x1 PUSH1 0x1 PUSH1 0xA0 SHL SUB SWAP1 DUP2 AND SWAP1 DUP4 AND PUSH2 0x63C JUMPI PUSH1 0x40 MLOAD PUSH3 0x461BCD PUSH1 0xE5 SHL DUP2 MSTORE PUSH1 0x4 ADD PUSH2 0x2CD SWAP1 PUSH2 0xC55 JUMP JUMPDEST PUSH1 0x1 PUSH1 0x1 PUSH1 0xA0 SHL SUB DUP2 AND PUSH2 0x662 JUMPI PUSH1 0x40 MLOAD PUSH3 0x461BCD PUSH1 0xE5 SHL DUP2 MSTORE PUSH1 0x4 ADD PUSH2 0x2CD SWAP1 PUSH2 0xB97 JUMP JUMPDEST PUSH1 0x1 PUSH1 0x1 PUSH1 0xA0 SHL SUB DUP1 DUP5 AND PUSH1 0x0 SWAP1 DUP2 MSTORE PUSH1 0x4 PUSH1 0x20 SWAP1 DUP2 MSTORE PUSH1 0x40 DUP1 DUP4 KECCAK256 SWAP4 DUP6 AND DUP4 MSTORE SWAP3 SWAP1 MSTORE KECCAK256 SLOAD PUSH2 0x692 SWAP1 DUP4 PUSH2 0x98C JUMP JUMPDEST PUSH1 0x1 PUSH1 0x1 PUSH1 0xA0 SHL SUB SWAP4 DUP5 AND PUSH1 0x0 SWAP1 DUP2 MSTORE PUSH1 0x4 PUSH1 0x20 SWAP1 DUP2 MSTORE PUSH1 0x40 DUP1 DUP4 KECCAK256 SWAP5 SWAP1 SWAP7 AND DUP3 MSTORE SWAP3 SWAP1 SWAP3 MSTORE SWAP3 SWAP1 KECCAK256 SWAP2 SWAP1 SWAP2 SSTORE POP JUMP JUMPDEST PUSH1 0x1 PUSH1 0x1 PUSH1 0xA0 SHL SUB AND PUSH1 0x0 SWAP1 DUP2 MSTORE PUSH1 0x3 PUSH1 0x20 MSTORE PUSH1 0x40 SWAP1 KECCAK256 SLOAD SWAP1 JUMP JUMPDEST PUSH1 0x2 SLOAD PUSH1 0x1 PUSH1 0x1 PUSH1 0xA0 SHL SUB AND CALLER EQ PUSH2 0x707 JUMPI PUSH1 0x40 MLOAD PUSH3 0x461BCD PUSH1 0xE5 SHL DUP2 MSTORE PUSH1 0x4 ADD PUSH2 0x2CD SWAP1 PUSH2 0xC99 JUMP JUMPDEST PUSH1 0x1 PUSH1 0x1 PUSH1 0xA0 SHL SUB DUP3 AND PUSH2 0x72D JUMPI PUSH1 0x40 MLOAD PUSH3 0x461BCD PUSH1 0xE5 SHL DUP2 MSTORE PUSH1 0x4 ADD PUSH2 0x2CD SWAP1 PUSH2 0xCB9 JUMP JUMPDEST PUSH1 0x5 SLOAD PUSH2 0x73A SWAP1 DUP3 PUSH2 0x98C JUMP JUMPDEST PUSH1 0x5 SSTORE PUSH1 0x1 PUSH1 0x1 PUSH1 0xA0 SHL SUB DUP3 AND PUSH1 0x0 SWAP1 DUP2 MSTORE PUSH1 0x3 PUSH1 0x20 MSTORE PUSH1 0x40 SWAP1 KECCAK256 SLOAD PUSH2 0x760 SWAP1 DUP3 PUSH2 0x98C JUMP JUMPDEST PUSH1 0x1 PUSH1 0x1 PUSH1 0xA0 SHL SUB DUP1 DUP5 AND PUSH1 0x0 SWAP1 DUP2 MSTORE PUSH1 0x3 PUSH1 0x20 SWAP1 DUP2 MSTORE PUSH1 0x40 DUP1 DUP4 KECCAK256 SWAP5 SWAP1 SWAP5 SSTORE PUSH1 0x2 SLOAD PUSH1 0x4 DUP3 MSTORE DUP5 DUP4 KECCAK256 SWAP4 AND DUP1 DUP4 MSTORE SWAP3 SWAP1 MSTORE SWAP2 SWAP1 SWAP2 KECCAK256 SLOAD PUSH2 0x692 SWAP1 DUP4 PUSH2 0x98C JUMP JUMPDEST PUSH1 0x7 DUP1 SLOAD PUSH1 0x40 DUP1 MLOAD PUSH1 0x20 PUSH1 0x1F PUSH1 0x2 PUSH1 0x0 NOT PUSH2 0x100 PUSH1 0x1 DUP9 AND ISZERO MUL ADD SWAP1 SWAP6 AND SWAP5 SWAP1 SWAP5 DIV SWAP4 DUP5 ADD DUP2 SWAP1 DIV DUP2 MUL DUP3 ADD DUP2 ADD SWAP1 SWAP3 MSTORE DUP3 DUP2 MSTORE PUSH1 0x60 SWAP4 SWAP1 SWAP3 SWAP1 SWAP2 DUP4 ADD DUP3 DUP3 DUP1 ISZERO PUSH2 0x2A3 JUMPI DUP1 PUSH1 0x1F LT PUSH2 0x278 JUMPI PUSH2 0x100 DUP1 DUP4 SLOAD DIV MUL DUP4 MSTORE SWAP2 PUSH1 0x20 ADD SWAP2 PUSH2 0x2A3 JUMP JUMPDEST PUSH1 0x0 SLOAD SWAP1 JUMP JUMPDEST PUSH1 0x0 CALLER DUP1 PUSH2 0x828 JUMPI PUSH1 0x40 MLOAD PUSH3 0x461BCD PUSH1 0xE5 SHL DUP2 MSTORE PUSH1 0x4 ADD PUSH2 0x2CD SWAP1 PUSH2 0xC10 JUMP JUMPDEST PUSH1 0x1 PUSH1 0x1 PUSH1 0xA0 SHL SUB DUP5 AND PUSH2 0x84E JUMPI PUSH1 0x40 MLOAD PUSH3 0x461BCD PUSH1 0xE5 SHL DUP2 MSTORE PUSH1 0x4 ADD PUSH2 0x2CD SWAP1 PUSH2 0xB54 JUMP JUMPDEST PUSH2 0x88B DUP4 PUSH1 0x40 MLOAD DUP1 PUSH1 0x60 ADD PUSH1 0x40 MSTORE DUP1 PUSH1 0x26 DUP2 MSTORE PUSH1 0x20 ADD PUSH2 0xD8B PUSH1 0x26 SWAP2 CODECOPY PUSH1 0x1 PUSH1 0x1 PUSH1 0xA0 SHL SUB DUP5 AND PUSH1 0x0 SWAP1 DUP2 MSTORE PUSH1 0x3 PUSH1 0x20 MSTORE PUSH1 0x40 SWAP1 KECCAK256 SLOAD SWAP2 SWAP1 PUSH2 0x9B8 JUMP JUMPDEST PUSH1 0x1 PUSH1 0x1 PUSH1 0xA0 SHL SUB DUP1 DUP4 AND PUSH1 0x0 SWAP1 DUP2 MSTORE PUSH1 0x3 PUSH1 0x20 MSTORE PUSH1 0x40 DUP1 DUP3 KECCAK256 SWAP4 SWAP1 SWAP4 SSTORE SWAP1 DUP7 AND DUP2 MSTORE KECCAK256 SLOAD PUSH2 0x8BA SWAP1 DUP5 PUSH2 0x98C JUMP JUMPDEST PUSH1 0x1 PUSH1 0x1 PUSH1 0xA0 SHL SUB DUP1 DUP7 AND PUSH1 0x0 DUP2 DUP2 MSTORE PUSH1 0x3 PUSH1 0x20 MSTORE PUSH1 0x40 SWAP1 DUP2 SWAP1 KECCAK256 SWAP4 SWAP1 SWAP4 SSTORE SWAP2 MLOAD SWAP1 DUP4 AND SWAP1 PUSH32 0xDDF252AD1BE2C89B69C2B068FC378DAA952BA7F163C4A11628F55A4DF523B3EF SWAP1 PUSH2 0x38C SWAP1 DUP8 SWAP1 PUSH2 0xCF0 JUMP JUMPDEST PUSH1 0x1 PUSH1 0x1 PUSH1 0xA0 SHL SUB SWAP2 DUP3 AND PUSH1 0x0 SWAP1 DUP2 MSTORE PUSH1 0x4 PUSH1 0x20 SWAP1 DUP2 MSTORE PUSH1 0x40 DUP1 DUP4 KECCAK256 SWAP4 SWAP1 SWAP5 AND DUP3 MSTORE SWAP2 SWAP1 SWAP2 MSTORE KECCAK256 SLOAD SWAP1 JUMP JUMPDEST PUSH1 0x0 DUP1 PUSH1 0x0 PUSH1 0x60 DUP1 PUSH1 0x0 DUP1 PUSH1 0x0 DUP10 DUP10 ADDRESS PUSH2 0x94F PUSH2 0x217 JUMP JUMPDEST PUSH2 0x957 PUSH2 0x7A1 JUMP JUMPDEST PUSH2 0x95F PUSH2 0x3A0 JUMP JUMPDEST PUSH2 0x967 PUSH2 0x802 JUMP JUMPDEST PUSH2 0x96F PUSH2 0x3A6 JUMP JUMPDEST SWAP8 POP SWAP8 POP SWAP8 POP SWAP8 POP SWAP8 POP SWAP8 POP SWAP8 POP SWAP8 POP SWAP3 SWAP6 SWAP9 POP SWAP3 SWAP6 SWAP9 SWAP1 SWAP4 SWAP7 POP JUMP JUMPDEST PUSH1 0x0 DUP3 DUP3 ADD DUP4 DUP2 LT ISZERO PUSH2 0x9B1 JUMPI PUSH1 0x40 MLOAD PUSH3 0x461BCD PUSH1 0xE5 SHL DUP2 MSTORE PUSH1 0x4 ADD PUSH2 0x2CD SWAP1 PUSH2 0xBD9 JUMP JUMPDEST SWAP4 SWAP3 POP POP POP JUMP JUMPDEST PUSH1 0x0 DUP2 DUP5 DUP5 GT ISZERO PUSH2 0x9DC JUMPI PUSH1 0x40 MLOAD PUSH3 0x461BCD PUSH1 0xE5 SHL DUP2 MSTORE PUSH1 0x4 ADD PUSH2 0x2CD SWAP2 SWAP1 PUSH2 0xB41 JUMP JUMPDEST POP POP POP SWAP1 SUB SWAP1 JUMP JUMPDEST DUP1 CALLDATALOAD PUSH1 0x1 PUSH1 0x1 PUSH1 0xA0 SHL SUB DUP2 AND DUP2 EQ PUSH2 0x39A JUMPI PUSH1 0x0 DUP1 REVERT JUMPDEST PUSH1 0x0 PUSH1 0x20 DUP3 DUP5 SUB SLT ISZERO PUSH2 0xA0C JUMPI DUP1 DUP2 REVERT JUMPDEST PUSH2 0x9B1 DUP4 DUP4 PUSH2 0x9E4 JUMP JUMPDEST PUSH1 0x0 DUP1 PUSH1 0x40 DUP4 DUP6 SUB SLT ISZERO PUSH2 0xA28 JUMPI DUP1 DUP2 REVERT JUMPDEST PUSH2 0xA32 DUP5 DUP5 PUSH2 0x9E4 JUMP JUMPDEST SWAP2 POP PUSH2 0xA41 DUP5 PUSH1 0x20 DUP6 ADD PUSH2 0x9E4 JUMP JUMPDEST SWAP1 POP SWAP3 POP SWAP3 SWAP1 POP JUMP JUMPDEST PUSH1 0x0 DUP1 PUSH1 0x0 PUSH1 0x60 DUP5 DUP7 SUB SLT ISZERO PUSH2 0xA5E JUMPI DUP1 DUP2 REVERT JUMPDEST DUP4 CALLDATALOAD PUSH2 0xA69 DUP2 PUSH2 0xD72 JUMP JUMPDEST SWAP3 POP PUSH1 0x20 DUP5 ADD CALLDATALOAD PUSH2 0xA79 DUP2 PUSH2 0xD72 JUMP JUMPDEST SWAP3 SWAP6 SWAP3 SWAP5 POP POP POP PUSH1 0x40 SWAP2 SWAP1 SWAP2 ADD CALLDATALOAD SWAP1 JUMP JUMPDEST PUSH1 0x0 DUP1 PUSH1 0x40 DUP4 DUP6 SUB SLT ISZERO PUSH2 0xA9C JUMPI DUP2 DUP3 REVERT JUMPDEST PUSH2 0xAA6 DUP5 DUP5 PUSH2 0x9E4 JUMP JUMPDEST SWAP5 PUSH1 0x20 SWAP4 SWAP1 SWAP4 ADD CALLDATALOAD SWAP4 POP POP POP JUMP JUMPDEST PUSH1 0x0 DUP1 PUSH1 0x40 DUP4 DUP6 SUB SLT ISZERO PUSH2 0xAC6 JUMPI DUP2 DUP3 REVERT JUMPDEST DUP3 CALLDATALOAD SWAP2 POP PUSH2 0xA41 DUP5 PUSH1 0x20 DUP6 ADD PUSH2 0x9E4 JUMP JUMPDEST PUSH1 0x0 DUP2 MLOAD DUP1 DUP5 MSTORE DUP2 JUMPDEST DUP2 DUP2 LT ISZERO PUSH2 0xAFC JUMPI PUSH1 0x20 DUP2 DUP6 ADD DUP2 ADD MLOAD DUP7 DUP4 ADD DUP3 ADD MSTORE ADD PUSH2 0xAE0 JUMP JUMPDEST DUP2 DUP2 GT ISZERO PUSH2 0xB0D JUMPI DUP3 PUSH1 0x20 DUP4 DUP8 ADD ADD MSTORE JUMPDEST POP PUSH1 0x1F ADD PUSH1 0x1F NOT AND SWAP3 SWAP1 SWAP3 ADD PUSH1 0x20 ADD SWAP3 SWAP2 POP POP JUMP JUMPDEST PUSH1 0x1 PUSH1 0x1 PUSH1 0xA0 SHL SUB SWAP2 SWAP1 SWAP2 AND DUP2 MSTORE PUSH1 0x20 ADD SWAP1 JUMP JUMPDEST SWAP1 ISZERO ISZERO DUP2 MSTORE PUSH1 0x20 ADD SWAP1 JUMP JUMPDEST PUSH1 0x0 PUSH1 0x20 DUP3 MSTORE PUSH2 0x9B1 PUSH1 0x20 DUP4 ADD DUP5 PUSH2 0xAD7 JUMP JUMPDEST PUSH1 0x20 DUP1 DUP3 MSTORE PUSH1 0x23 SWAP1 DUP3 ADD MSTORE PUSH32 0x45524332303A207472616E7366657220746F20746865207A65726F2061646472 PUSH1 0x40 DUP3 ADD MSTORE PUSH3 0x657373 PUSH1 0xE8 SHL PUSH1 0x60 DUP3 ADD MSTORE PUSH1 0x80 ADD SWAP1 JUMP JUMPDEST PUSH1 0x20 DUP1 DUP3 MSTORE PUSH1 0x22 SWAP1 DUP3 ADD MSTORE PUSH32 0x45524332303A20617070726F766520746F20746865207A65726F206164647265 PUSH1 0x40 DUP3 ADD MSTORE PUSH2 0x7373 PUSH1 0xF0 SHL PUSH1 0x60 DUP3 ADD MSTORE PUSH1 0x80 ADD SWAP1 JUMP JUMPDEST PUSH1 0x20 DUP1 DUP3 MSTORE PUSH1 0x1B SWAP1 DUP3 ADD MSTORE PUSH32 0x536166654D6174683A206164646974696F6E206F766572666C6F770000000000 PUSH1 0x40 DUP3 ADD MSTORE PUSH1 0x60 ADD SWAP1 JUMP JUMPDEST PUSH1 0x20 DUP1 DUP3 MSTORE PUSH1 0x25 SWAP1 DUP3 ADD MSTORE PUSH32 0x45524332303A207472616E736665722066726F6D20746865207A65726F206164 PUSH1 0x40 DUP3 ADD MSTORE PUSH5 0x6472657373 PUSH1 0xD8 SHL PUSH1 0x60 DUP3 ADD MSTORE PUSH1 0x80 ADD SWAP1 JUMP JUMPDEST PUSH1 0x20 DUP1 DUP3 MSTORE PUSH1 0x24 SWAP1 DUP3 ADD MSTORE PUSH32 0x45524332303A20617070726F76652066726F6D20746865207A65726F20616464 PUSH1 0x40 DUP3 ADD MSTORE PUSH4 0x72657373 PUSH1 0xE0 SHL PUSH1 0x60 DUP3 ADD MSTORE PUSH1 0x80 ADD SWAP1 JUMP JUMPDEST PUSH1 0x20 DUP1 DUP3 MSTORE PUSH1 0x6 SWAP1 DUP3 ADD MSTORE PUSH6 0x26A120A6AB19 PUSH1 0xD1 SHL PUSH1 0x40 DUP3 ADD MSTORE PUSH1 0x60 ADD SWAP1 JUMP JUMPDEST PUSH1 0x20 DUP1 DUP3 MSTORE PUSH1 0x1F SWAP1 DUP3 ADD MSTORE PUSH32 0x45524332303A206D696E7420746F20746865207A65726F206164647265737300 PUSH1 0x40 DUP3 ADD MSTORE PUSH1 0x60 ADD SWAP1 JUMP JUMPDEST SWAP1 DUP2 MSTORE PUSH1 0x20 ADD SWAP1 JUMP JUMPDEST DUP9 DUP2 MSTORE PUSH1 0x1 PUSH1 0x1 PUSH1 0xA0 SHL SUB DUP9 DUP2 AND PUSH1 0x20 DUP4 ADD MSTORE DUP8 DUP2 AND PUSH1 0x40 DUP4 ADD MSTORE PUSH2 0x100 PUSH1 0x60 DUP4 ADD DUP2 SWAP1 MSTORE PUSH1 0x0 SWAP2 PUSH2 0xD2D DUP5 DUP4 ADD DUP11 PUSH2 0xAD7 JUMP JUMPDEST SWAP2 POP DUP4 DUP3 SUB PUSH1 0x80 DUP6 ADD MSTORE PUSH2 0xD41 DUP3 DUP10 PUSH2 0xAD7 JUMP JUMPDEST PUSH1 0xA0 DUP6 ADD SWAP8 SWAP1 SWAP8 MSTORE PUSH1 0xC0 DUP5 ADD SWAP6 SWAP1 SWAP6 MSTORE POP POP SWAP2 AND PUSH1 0xE0 SWAP1 SWAP2 ADD MSTORE SWAP6 SWAP5 POP POP POP POP POP JUMP JUMPDEST PUSH1 0xFF SWAP2 SWAP1 SWAP2 AND DUP2 MSTORE PUSH1 0x20 ADD SWAP1 JUMP JUMPDEST PUSH1 0x1 PUSH1 0x1 PUSH1 0xA0 SHL SUB DUP2 AND DUP2 EQ PUSH2 0xD87 JUMPI PUSH1 0x0 DUP1 REVERT JUMPDEST POP JUMP INVALID GASLIMIT MSTORE NUMBER ORIGIN ADDRESS GASPRICE KECCAK256 PUSH21 0x72616E7366657220616D6F756E7420657863656564 PUSH20 0x2062616C616E636545524332303A207472616E73 PUSH7 0x657220616D6F75 PUSH15 0x74206578636565647320616C6C6F77 PUSH2 0x6E63 PUSH6 0xA26469706673 PC 0x22 SLT KECCAK256 MSTORE8 PUSH10 0x68347214707446161F42 0x25 MOD PUSH13 0xC37D1B1CAE3AA319384EC0DBF9 DUP5 SWAP9 PUSH15 0xE264736F6C634300060C0033608060 BLOCKHASH MSTORE CALLVALUE DUP1 ISZERO PUSH2 0x10 JUMPI PUSH1 0x0 DUP1 REVERT JUMPDEST POP PUSH1 0x40 MLOAD PUSH2 0x3B6 CODESIZE SUB DUP1 PUSH2 0x3B6 DUP4 CODECOPY DUP2 DUP2 ADD PUSH1 0x40 MSTORE PUSH1 0x20 DUP2 LT ISZERO PUSH2 0x33 JUMPI PUSH1 0x0 DUP1 REVERT JUMPDEST POP MLOAD PUSH1 0x1 PUSH1 0x1 PUSH1 0xA0 SHL SUB DUP2 AND PUSH2 0x76 JUMPI PUSH1 0x40 DUP1 MLOAD PUSH3 0x461BCD PUSH1 0xE5 SHL DUP2 MSTORE PUSH1 0x20 PUSH1 0x4 DUP3 ADD MSTORE PUSH1 0x3 PUSH1 0x24 DUP3 ADD MSTORE PUSH3 0x2B20A7 PUSH1 0xE9 SHL PUSH1 0x44 DUP3 ADD MSTORE SWAP1 MLOAD SWAP1 DUP2 SWAP1 SUB PUSH1 0x64 ADD SWAP1 REVERT JUMPDEST PUSH1 0x0 DUP1 SLOAD PUSH1 0x1 PUSH1 0x1 PUSH1 0xA0 SHL SUB SWAP1 SWAP3 AND PUSH1 0x1 PUSH1 0x1 PUSH1 0xA0 SHL SUB NOT SWAP1 SWAP3 AND SWAP2 SWAP1 SWAP2 OR SWAP1 SSTORE PUSH2 0x310 DUP1 PUSH2 0xA6 PUSH1 0x0 CODECOPY PUSH1 0x0 RETURN INVALID PUSH1 0x80 PUSH1 0x40 MSTORE CALLVALUE DUP1 ISZERO PUSH2 0x10 JUMPI PUSH1 0x0 DUP1 REVERT JUMPDEST POP PUSH1 0x4 CALLDATASIZE LT PUSH2 0x4C JUMPI PUSH1 0x0 CALLDATALOAD PUSH1 0xE0 SHR DUP1 PUSH4 0xAFC7BF4 EQ PUSH2 0x51 JUMPI DUP1 PUSH4 0x20000B59 EQ PUSH2 0x8F JUMPI DUP1 PUSH4 0xE5C66BBD EQ PUSH2 0xCD JUMPI DUP1 PUSH4 0xF2AA8218 EQ PUSH2 0xF9 JUMPI JUMPDEST PUSH1 0x0 DUP1 REVERT JUMPDEST PUSH2 0x8D PUSH1 0x4 DUP1 CALLDATASIZE SUB PUSH1 0x80 DUP2 LT ISZERO PUSH2 0x67 JUMPI PUSH1 0x0 DUP1 REVERT JUMPDEST POP DUP1 CALLDATALOAD SWAP1 PUSH1 0x1 PUSH1 0x1 PUSH1 0xA0 SHL SUB PUSH1 0x20 DUP3 ADD CALLDATALOAD DUP2 AND SWAP2 PUSH1 0x40 DUP2 ADD CALLDATALOAD SWAP1 SWAP2 AND SWAP1 PUSH1 0x60 ADD CALLDATALOAD PUSH2 0x166 JUMP JUMPDEST STOP JUMPDEST PUSH2 0xBB PUSH1 0x4 DUP1 CALLDATASIZE SUB PUSH1 0x40 DUP2 LT ISZERO PUSH2 0xA5 JUMPI PUSH1 0x0 DUP1 REVERT JUMPDEST POP DUP1 CALLDATALOAD SWAP1 PUSH1 0x20 ADD CALLDATALOAD PUSH1 0x1 PUSH1 0x1 PUSH1 0xA0 SHL SUB AND PUSH2 0x21E JUMP JUMPDEST PUSH1 0x40 DUP1 MLOAD SWAP2 DUP3 MSTORE MLOAD SWAP1 DUP2 SWAP1 SUB PUSH1 0x20 ADD SWAP1 RETURN JUMPDEST PUSH2 0xBB PUSH1 0x4 DUP1 CALLDATASIZE SUB PUSH1 0x40 DUP2 LT ISZERO PUSH2 0xE3 JUMPI PUSH1 0x0 DUP1 REVERT JUMPDEST POP DUP1 CALLDATALOAD SWAP1 PUSH1 0x20 ADD CALLDATALOAD PUSH1 0x1 PUSH1 0x1 PUSH1 0xA0 SHL SUB AND PUSH2 0x246 JUMP JUMPDEST PUSH2 0x116 PUSH1 0x4 DUP1 CALLDATASIZE SUB PUSH1 0x20 DUP2 LT ISZERO PUSH2 0x10F JUMPI PUSH1 0x0 DUP1 REVERT JUMPDEST POP CALLDATALOAD PUSH2 0x26E JUMP JUMPDEST PUSH1 0x40 DUP1 MLOAD PUSH1 0x20 DUP1 DUP3 MSTORE DUP4 MLOAD DUP2 DUP4 ADD MSTORE DUP4 MLOAD SWAP2 SWAP3 DUP4 SWAP3 SWAP1 DUP4 ADD SWAP2 DUP6 DUP2 ADD SWAP2 MUL DUP1 DUP4 DUP4 PUSH1 0x0 JUMPDEST DUP4 DUP2 LT ISZERO PUSH2 0x152 JUMPI DUP2 DUP2 ADD MLOAD DUP4 DUP3 ADD MSTORE PUSH1 0x20 ADD PUSH2 0x13A JUMP JUMPDEST POP POP POP POP SWAP1 POP ADD SWAP3 POP POP POP PUSH1 0x40 MLOAD DUP1 SWAP2 SUB SWAP1 RETURN JUMPDEST PUSH1 0x0 SLOAD PUSH1 0x1 PUSH1 0x1 PUSH1 0xA0 SHL SUB AND CALLER EQ PUSH2 0x1AB JUMPI PUSH1 0x40 DUP1 MLOAD PUSH3 0x461BCD PUSH1 0xE5 SHL DUP2 MSTORE PUSH1 0x20 PUSH1 0x4 DUP3 ADD MSTORE PUSH1 0x3 PUSH1 0x24 DUP3 ADD MSTORE PUSH3 0x2727A1 PUSH1 0xE9 SHL PUSH1 0x44 DUP3 ADD MSTORE SWAP1 MLOAD SWAP1 DUP2 SWAP1 SUB PUSH1 0x64 ADD SWAP1 REVERT JUMPDEST PUSH1 0x0 DUP5 DUP2 MSTORE PUSH1 0x1 PUSH1 0x20 DUP2 DUP2 MSTORE PUSH1 0x40 DUP1 DUP5 KECCAK256 PUSH1 0x1 PUSH1 0x1 PUSH1 0xA0 SHL SUB SWAP7 DUP8 AND DUP6 MSTORE DUP3 MSTORE DUP1 DUP5 KECCAK256 DUP1 SLOAD DUP7 ADD SWAP1 SSTORE DUP8 DUP5 MSTORE PUSH1 0x2 DUP3 MSTORE DUP1 DUP5 KECCAK256 SWAP7 SWAP1 SWAP6 AND DUP1 DUP5 MSTORE SWAP6 DUP2 MSTORE DUP5 DUP4 KECCAK256 DUP1 SLOAD SWAP1 SWAP5 ADD SWAP1 SWAP4 SSTORE SWAP5 DUP2 MSTORE PUSH1 0x3 DUP3 MSTORE SWAP2 DUP3 KECCAK256 DUP1 SLOAD SWAP5 DUP6 ADD DUP2 SSTORE DUP3 MSTORE SWAP1 KECCAK256 SWAP1 SWAP2 ADD DUP1 SLOAD PUSH1 0x1 PUSH1 0x1 PUSH1 0xA0 SHL SUB NOT AND SWAP1 SWAP2 OR SWAP1 SSTORE JUMP JUMPDEST PUSH1 0x0 SWAP2 DUP3 MSTORE PUSH1 0x2 PUSH1 0x20 SWAP1 DUP2 MSTORE PUSH1 0x40 DUP1 DUP5 KECCAK256 PUSH1 0x1 PUSH1 0x1 PUSH1 0xA0 SHL SUB SWAP4 SWAP1 SWAP4 AND DUP5 MSTORE SWAP2 SWAP1 MSTORE SWAP1 KECCAK256 SLOAD SWAP1 JUMP JUMPDEST PUSH1 0x0 SWAP2 DUP3 MSTORE PUSH1 0x1 PUSH1 0x20 SWAP1 DUP2 MSTORE PUSH1 0x40 DUP1 DUP5 KECCAK256 PUSH1 0x1 PUSH1 0x1 PUSH1 0xA0 SHL SUB SWAP4 SWAP1 SWAP4 AND DUP5 MSTORE SWAP2 SWAP1 MSTORE SWAP1 KECCAK256 SLOAD SWAP1 JUMP JUMPDEST PUSH1 0x0 DUP2 DUP2 MSTORE PUSH1 0x3 PUSH1 0x20 SWAP1 DUP2 MSTORE PUSH1 0x40 SWAP2 DUP3 SWAP1 KECCAK256 DUP1 SLOAD DUP4 MLOAD DUP2 DUP5 MUL DUP2 ADD DUP5 ADD SWAP1 SWAP5 MSTORE DUP1 DUP5 MSTORE PUSH1 0x60 SWAP4 SWAP3 DUP4 ADD DUP3 DUP3 DUP1 ISZERO PUSH2 0x2CE JUMPI PUSH1 0x20 MUL DUP3 ADD SWAP2 SWAP1 PUSH1 0x0 MSTORE PUSH1 0x20 PUSH1 0x0 KECCAK256 SWAP1 JUMPDEST DUP2 SLOAD PUSH1 0x1 PUSH1 0x1 PUSH1 0xA0 SHL SUB AND DUP2 MSTORE PUSH1 0x1 SWAP1 SWAP2 ADD SWAP1 PUSH1 0x20 ADD DUP1 DUP4 GT PUSH2 0x2B0 JUMPI JUMPDEST POP POP POP POP POP SWAP1 POP SWAP2 SWAP1 POP JUMP INVALID LOG2 PUSH5 0x6970667358 0x22 SLT KECCAK256 DUP11 MULMOD DUP1 0xEB JUMPDEST 0x26 0x1F SLT JUMPDEST NOT PC 0x49 DUP14 PUSH3 0x8E0293 MSIZE 0xE8 LT 0xAA PUSH15 0x2FDF04BA74F9EA3FC72C64736F6C63 NUMBER STOP MOD 0xC STOP CALLER "
		},
		"gasEstimates": {
			"creation": {
				"codeDepositCost": "4672400",
				"executionCost": "infinite",
				"totalCost": "infinite"
			},
			"external": {
				"approve(address,uint256)": "23457",
				"balanceOf(address)": "1375",
				"buy(bytes32,uint256,uint256)": "infinite",
				"concludePrimarySales(uint256)": "infinite",
				"escrowBalance(uint256)": "infinite",
				"fundWallet(address,uint256)": "infinite",
				"getApproved(uint256)": "2206",
				"getOrder(bytes32)": "infinite",
				"isApprovedForAll(address,address)": "infinite",
				"mint(uint256,string,uint256,uint256,address,string)": "infinite",
				"name()": "infinite",
				"ownedShares(uint256,address)": "infinite",
				"ownerOf(uint256)": "1302",
				"postOrder(uint256,uint256,uint256,uint256,uint256,uint256,bytes32,uint256)": "infinite",
				"primaryMarketBuyers(uint256)": "infinite",
				"safeTransferFrom(address,address,uint256)": "infinite",
				"safeTransferFrom(address,address,uint256,bytes)": "infinite",
				"setApprovalForAll(address,bool)": "infinite",
				"supportsInterface(bytes4)": "1309",
				"symbol()": "infinite",
				"tokenShares(uint256)": "infinite",
				"tokenURI(uint256)": "infinite",
				"totalValueSold(uint256)": "infinite",
				"transferFrom(address,address,uint256)": "infinite",
				"underSubscribed(uint256)": "infinite",
				"walletBalance(address)": "infinite"
			},
			"internal": {
				"_approve(address,uint256)": "20950",
				"_buy(bytes32,uint256)": "infinite",
				"_checkOnERC721Received(address,address,uint256,bytes memory)": "infinite",
				"_filterMatchedOrder(struct OrderModelV2.Order memory)": "infinite",
				"_matchOrder(struct OrderModelV2.Order memory)": "infinite",
				"_populateFilteredOrders(struct OrderModelV2.SortedKey memory,uint256)": "infinite",
				"_processOrder(struct OrderModelV2.Order memory,struct OrderModelV2.Order memory)": "infinite",
				"_processOrderBuyPartial(struct ConstantsV2.Values memory,struct OrderModelV2.Order memory,struct OrderModelV2.Order memory)": "infinite",
				"_processOrderSameAmount(struct ConstantsV2.Values memory,struct OrderModelV2.Order memory,struct OrderModelV2.Order memory)": "infinite",
				"_processOrderSellPartial(struct ConstantsV2.Values memory,struct OrderModelV2.Order memory,struct OrderModelV2.Order memory)": "infinite",
				"_safeMint(address,uint256)": "infinite"
			}
		},
		"methodIdentifiers": {
			"approve(address,uint256)": "095ea7b3",
			"balanceOf(address)": "70a08231",
			"buy(bytes32,uint256,uint256)": "fc18d034",
			"concludePrimarySales(uint256)": "ff919450",
			"escrowBalance(uint256)": "bb099ee3",
			"fundWallet(address,uint256)": "3563922f",
			"getApproved(uint256)": "081812fc",
			"getOrder(bytes32)": "5778472a",
			"isApprovedForAll(address,address)": "e985e9c5",
			"mint(uint256,string,uint256,uint256,address,string)": "71df284d",
			"name()": "06fdde03",
			"ownedShares(uint256,address)": "02a1c41d",
			"ownerOf(uint256)": "6352211e",
			"postOrder(uint256,uint256,uint256,uint256,uint256,uint256,bytes32,uint256)": "f1dfad8f",
			"primaryMarketBuyers(uint256)": "1a3ed275",
			"safeTransferFrom(address,address,uint256)": "42842e0e",
			"safeTransferFrom(address,address,uint256,bytes)": "b88d4fde",
			"setApprovalForAll(address,bool)": "a22cb465",
			"supportsInterface(bytes4)": "01ffc9a7",
			"symbol()": "95d89b41",
			"tokenShares(uint256)": "3ae64e0c",
			"tokenURI(uint256)": "c87b56dd",
			"totalValueSold(uint256)": "b9d11e86",
			"transferFrom(address,address,uint256)": "23b872dd",
			"underSubscribed(uint256)": "7727b85b",
			"walletBalance(address)": "cf9cd8f8"
		}
	},
	"abi": [
		{
			"inputs": [],
			"stateMutability": "nonpayable",
			"type": "constructor"
		},
		{
			"anonymous": false,
			"inputs": [
				{
					"indexed": true,
					"internalType": "address",
					"name": "owner",
					"type": "address"
				},
				{
					"indexed": true,
					"internalType": "address",
					"name": "approved",
					"type": "address"
				},
				{
					"indexed": true,
					"internalType": "uint256",
					"name": "tokenId",
					"type": "uint256"
				}
			],
			"name": "Approval",
			"type": "event"
		},
		{
			"anonymous": false,
			"inputs": [
				{
					"indexed": true,
					"internalType": "address",
					"name": "owner",
					"type": "address"
				},
				{
					"indexed": true,
					"internalType": "address",
					"name": "operator",
					"type": "address"
				},
				{
					"indexed": false,
					"internalType": "bool",
					"name": "approved",
					"type": "bool"
				}
			],
			"name": "ApprovalForAll",
			"type": "event"
		},
		{
			"anonymous": false,
			"inputs": [
				{
					"indexed": false,
					"internalType": "bytes32",
					"name": "key",
					"type": "bytes32"
				},
				{
					"indexed": false,
					"internalType": "uint256",
					"name": "newStatus",
					"type": "uint256"
				},
				{
					"indexed": false,
					"internalType": "uint256",
					"name": "amountRemaining",
					"type": "uint256"
				}
			],
			"name": "OrderChanged",
			"type": "event"
		},
		{
			"anonymous": false,
			"inputs": [
				{
					"indexed": true,
					"internalType": "address",
					"name": "from",
					"type": "address"
				},
				{
					"indexed": true,
					"internalType": "address",
					"name": "to",
					"type": "address"
				},
				{
					"indexed": true,
					"internalType": "uint256",
					"name": "tokenId",
					"type": "uint256"
				}
			],
			"name": "Transfer",
			"type": "event"
		},
		{
			"inputs": [
				{
					"internalType": "address",
					"name": "to",
					"type": "address"
				},
				{
					"internalType": "uint256",
					"name": "tokenId",
					"type": "uint256"
				}
			],
			"name": "approve",
			"outputs": [],
			"stateMutability": "nonpayable",
			"type": "function"
		},
		{
			"inputs": [
				{
					"internalType": "address",
					"name": "owner_",
					"type": "address"
				}
			],
			"name": "balanceOf",
			"outputs": [
				{
					"internalType": "uint256",
					"name": "",
					"type": "uint256"
				}
			],
			"stateMutability": "view",
			"type": "function"
		},
		{
			"inputs": [
				{
					"internalType": "bytes32",
					"name": "orderKey",
					"type": "bytes32"
				},
				{
					"internalType": "uint256",
					"name": "marketType",
					"type": "uint256"
				},
				{
					"internalType": "uint256",
					"name": "amount",
					"type": "uint256"
				}
			],
			"name": "buy",
			"outputs": [],
			"stateMutability": "nonpayable",
			"type": "function"
		},
		{
			"inputs": [
				{
					"internalType": "uint256",
					"name": "tokenId",
					"type": "uint256"
				}
			],
			"name": "concludePrimarySales",
			"outputs": [],
			"stateMutability": "nonpayable",
			"type": "function"
		},
		{
			"inputs": [
				{
					"internalType": "uint256",
					"name": "tokenId",
					"type": "uint256"
				}
			],
			"name": "escrowBalance",
			"outputs": [
				{
					"internalType": "uint256",
					"name": "",
					"type": "uint256"
				}
			],
			"stateMutability": "view",
			"type": "function"
		},
		{
			"inputs": [
				{
					"internalType": "address",
					"name": "recipient",
					"type": "address"
				},
				{
					"internalType": "uint256",
					"name": "amount",
					"type": "uint256"
				}
			],
			"name": "fundWallet",
			"outputs": [],
			"stateMutability": "nonpayable",
			"type": "function"
		},
		{
			"inputs": [
				{
					"internalType": "uint256",
					"name": "tokenId",
					"type": "uint256"
				}
			],
			"name": "getApproved",
			"outputs": [
				{
					"internalType": "address",
					"name": "",
					"type": "address"
				}
			],
			"stateMutability": "view",
			"type": "function"
		},
		{
			"inputs": [
				{
					"internalType": "bytes32",
					"name": "key",
					"type": "bytes32"
				}
			],
			"name": "getOrder",
			"outputs": [
				{
					"components": [
						{
							"components": [
								{
									"internalType": "bytes32",
									"name": "key",
									"type": "bytes32"
								},
								{
									"internalType": "uint256",
									"name": "date",
									"type": "uint256"
								}
							],
							"internalType": "struct OrderModelV2.SortedKey",
							"name": "key",
							"type": "tuple"
						},
						{
							"internalType": "uint256",
							"name": "orderType",
							"type": "uint256"
						},
						{
							"internalType": "uint256",
							"name": "orderStrategy",
							"type": "uint256"
						},
						{
							"internalType": "address",
							"name": "seller",
							"type": "address"
						},
						{
							"internalType": "address",
							"name": "buyer",
							"type": "address"
						},
						{
							"internalType": "uint256",
							"name": "tokenId",
							"type": "uint256"
						},
						{
							"internalType": "uint256",
							"name": "amountRemaining",
							"type": "uint256"
						},
						{
							"internalType": "uint256",
							"name": "originalAmount",
							"type": "uint256"
						},
						{
							"internalType": "uint256",
							"name": "price",
							"type": "uint256"
						},
						{
							"internalType": "uint256",
							"name": "status",
							"type": "uint256"
						},
						{
							"internalType": "uint256",
							"name": "goodUntil",
							"type": "uint256"
						},
						{
							"internalType": "uint256",
							"name": "marketType",
							"type": "uint256"
						}
					],
					"internalType": "struct OrderModelV2.Order",
					"name": "",
					"type": "tuple"
				}
			],
			"stateMutability": "view",
			"type": "function"
		},
		{
			"inputs": [
				{
					"internalType": "address",
					"name": "owner_",
					"type": "address"
				},
				{
					"internalType": "address",
					"name": "operator",
					"type": "address"
				}
			],
			"name": "isApprovedForAll",
			"outputs": [
				{
					"internalType": "bool",
					"name": "",
					"type": "bool"
				}
			],
			"stateMutability": "view",
			"type": "function"
		},
		{
			"inputs": [
				{
					"internalType": "uint256",
					"name": "tokenId",
					"type": "uint256"
				},
				{
					"internalType": "string",
					"name": "tokenSymbol",
					"type": "string"
				},
				{
					"internalType": "uint256",
					"name": "totalSupply",
					"type": "uint256"
				},
				{
					"internalType": "uint256",
					"name": "issuingPrice",
					"type": "uint256"
				},
				{
					"internalType": "address",
					"name": "issuer",
					"type": "address"
				},
				{
					"internalType": "string",
					"name": "uri",
					"type": "string"
				}
			],
			"name": "mint",
			"outputs": [],
			"stateMutability": "nonpayable",
			"type": "function"
		},
		{
			"inputs": [],
			"name": "name",
			"outputs": [
				{
					"internalType": "string",
					"name": "",
					"type": "string"
				}
			],
			"stateMutability": "view",
			"type": "function"
		},
		{
			"inputs": [
				{
					"internalType": "uint256",
					"name": "tokenId",
					"type": "uint256"
				},
				{
					"internalType": "address",
					"name": "userAddress",
					"type": "address"
				}
			],
			"name": "ownedShares",
			"outputs": [
				{
					"internalType": "uint256",
					"name": "",
					"type": "uint256"
				}
			],
			"stateMutability": "view",
			"type": "function"
		},
		{
			"inputs": [
				{
					"internalType": "uint256",
					"name": "tokenId",
					"type": "uint256"
				}
			],
			"name": "ownerOf",
			"outputs": [
				{
					"internalType": "address",
					"name": "",
					"type": "address"
				}
			],
			"stateMutability": "view",
			"type": "function"
		},
		{
			"inputs": [
				{
					"internalType": "uint256",
					"name": "orderType",
					"type": "uint256"
				},
				{
					"internalType": "uint256",
					"name": "orderStrategy",
					"type": "uint256"
				},
				{
					"internalType": "uint256",
					"name": "amount",
					"type": "uint256"
				},
				{
					"internalType": "uint256",
					"name": "price",
					"type": "uint256"
				},
				{
					"internalType": "uint256",
					"name": "tokenId",
					"type": "uint256"
				},
				{
					"internalType": "uint256",
					"name": "goodUntil",
					"type": "uint256"
				},
				{
					"internalType": "bytes32",
					"name": "key",
					"type": "bytes32"
				},
				{
					"internalType": "uint256",
					"name": "marketType",
					"type": "uint256"
				}
			],
			"name": "postOrder",
			"outputs": [],
			"stateMutability": "nonpayable",
			"type": "function"
		},
		{
			"inputs": [
				{
					"internalType": "uint256",
					"name": "tokenId",
					"type": "uint256"
				}
			],
			"name": "primaryMarketBuyers",
			"outputs": [
				{
					"internalType": "address[]",
					"name": "",
					"type": "address[]"
				}
			],
			"stateMutability": "view",
			"type": "function"
		},
		{
			"inputs": [
				{
					"internalType": "address",
					"name": "from",
					"type": "address"
				},
				{
					"internalType": "address",
					"name": "to",
					"type": "address"
				},
				{
					"internalType": "uint256",
					"name": "tokenId",
					"type": "uint256"
				}
			],
			"name": "safeTransferFrom",
			"outputs": [],
			"stateMutability": "nonpayable",
			"type": "function"
		},
		{
			"inputs": [
				{
					"internalType": "address",
					"name": "from",
					"type": "address"
				},
				{
					"internalType": "address",
					"name": "to",
					"type": "address"
				},
				{
					"internalType": "uint256",
					"name": "tokenId",
					"type": "uint256"
				},
				{
					"internalType": "bytes",
					"name": "_data",
					"type": "bytes"
				}
			],
			"name": "safeTransferFrom",
			"outputs": [],
			"stateMutability": "nonpayable",
			"type": "function"
		},
		{
			"inputs": [
				{
					"internalType": "address",
					"name": "operator",
					"type": "address"
				},
				{
					"internalType": "bool",
					"name": "approved",
					"type": "bool"
				}
			],
			"name": "setApprovalForAll",
			"outputs": [],
			"stateMutability": "nonpayable",
			"type": "function"
		},
		{
			"inputs": [
				{
					"internalType": "bytes4",
					"name": "interfaceId",
					"type": "bytes4"
				}
			],
			"name": "supportsInterface",
			"outputs": [
				{
					"internalType": "bool",
					"name": "",
					"type": "bool"
				}
			],
			"stateMutability": "view",
			"type": "function"
		},
		{
			"inputs": [],
			"name": "symbol",
			"outputs": [
				{
					"internalType": "string",
					"name": "",
					"type": "string"
				}
			],
			"stateMutability": "view",
			"type": "function"
		},
		{
			"inputs": [
				{
					"internalType": "uint256",
					"name": "tokenId",
					"type": "uint256"
				}
			],
			"name": "tokenShares",
			"outputs": [
				{
					"internalType": "uint256",
					"name": "",
					"type": "uint256"
				},
				{
					"internalType": "address",
					"name": "",
					"type": "address"
				},
				{
					"internalType": "address",
					"name": "",
					"type": "address"
				},
				{
					"internalType": "string",
					"name": "",
					"type": "string"
				},
				{
					"internalType": "string",
					"name": "",
					"type": "string"
				},
				{
					"internalType": "uint256",
					"name": "",
					"type": "uint256"
				},
				{
					"internalType": "uint256",
					"name": "",
					"type": "uint256"
				},
				{
					"internalType": "address",
					"name": "",
					"type": "address"
				}
			],
			"stateMutability": "view",
			"type": "function"
		},
		{
			"inputs": [
				{
					"internalType": "uint256",
					"name": "tokenId",
					"type": "uint256"
				}
			],
			"name": "tokenURI",
			"outputs": [
				{
					"internalType": "string",
					"name": "",
					"type": "string"
				}
			],
			"stateMutability": "view",
			"type": "function"
		},
		{
			"inputs": [
				{
					"internalType": "uint256",
					"name": "tokenId",
					"type": "uint256"
				}
			],
			"name": "totalValueSold",
			"outputs": [
				{
					"internalType": "uint256",
					"name": "",
					"type": "uint256"
				}
			],
			"stateMutability": "view",
			"type": "function"
		},
		{
			"inputs": [
				{
					"internalType": "address",
					"name": "from",
					"type": "address"
				},
				{
					"internalType": "address",
					"name": "to",
					"type": "address"
				},
				{
					"internalType": "uint256",
					"name": "tokenId",
					"type": "uint256"
				}
			],
			"name": "transferFrom",
			"outputs": [],
			"stateMutability": "nonpayable",
			"type": "function"
		},
		{
			"inputs": [
				{
					"internalType": "uint256",
					"name": "tokenId",
					"type": "uint256"
				}
			],
			"name": "underSubscribed",
			"outputs": [],
			"stateMutability": "nonpayable",
			"type": "function"
		},
		{
			"inputs": [
				{
					"internalType": "address",
					"name": "userAddress",
					"type": "address"
				}
			],
			"name": "walletBalance",
			"outputs": [
				{
					"internalType": "uint256",
					"name": "",
					"type": "uint256"
				}
			],
			"stateMutability": "view",
			"type": "function"
		}
	]
}