{
  "_format": "hh-sol-artifact-1",
  "contractName": "AssetManagerV2",
  "sourceName": "contracts/v2/AssetManagerV2.sol",
  "abi": [
    {
      "inputs": [],
      "stateMutability": "nonpayable",
      "type": "constructor"
    },
    {
      "anonymous": false,
      "inputs": [
        {
          "indexed": true,
          "internalType": "address",
          "name": "owner",
          "type": "address"
        },
        {
          "indexed": true,
          "internalType": "address",
          "name": "approved",
          "type": "address"
        },
        {
          "indexed": true,
          "internalType": "uint256",
          "name": "tokenId",
          "type": "uint256"
        }
      ],
      "name": "Approval",
      "type": "event"
    },
    {
      "anonymous": false,
      "inputs": [
        {
          "indexed": true,
          "internalType": "address",
          "name": "owner",
          "type": "address"
        },
        {
          "indexed": true,
          "internalType": "address",
          "name": "operator",
          "type": "address"
        },
        {
          "indexed": false,
          "internalType": "bool",
          "name": "approved",
          "type": "bool"
        }
      ],
      "name": "ApprovalForAll",
      "type": "event"
    },
    {
      "anonymous": false,
      "inputs": [
        {
          "indexed": false,
          "internalType": "bytes32",
          "name": "key",
          "type": "bytes32"
        },
        {
          "indexed": false,
          "internalType": "uint256",
          "name": "newStatus",
          "type": "uint256"
        },
        {
          "indexed": false,
          "internalType": "uint256",
          "name": "amountRemaining",
          "type": "uint256"
        }
      ],
      "name": "OrderChanged",
      "type": "event"
    },
    {
      "anonymous": false,
      "inputs": [
        {
          "indexed": true,
          "internalType": "address",
          "name": "from",
          "type": "address"
        },
        {
          "indexed": true,
          "internalType": "address",
          "name": "to",
          "type": "address"
        },
        {
          "indexed": true,
          "internalType": "uint256",
          "name": "tokenId",
          "type": "uint256"
        }
      ],
      "name": "Transfer",
      "type": "event"
    },
    {
      "inputs": [
        {
          "internalType": "address",
          "name": "to",
          "type": "address"
        },
        {
          "internalType": "uint256",
          "name": "tokenId",
          "type": "uint256"
        }
      ],
      "name": "approve",
      "outputs": [],
      "stateMutability": "nonpayable",
      "type": "function"
    },
    {
      "inputs": [
        {
          "internalType": "address",
          "name": "owner_",
          "type": "address"
        }
      ],
      "name": "balanceOf",
      "outputs": [
        {
          "internalType": "uint256",
          "name": "",
          "type": "uint256"
        }
      ],
      "stateMutability": "view",
      "type": "function"
    },
    {
      "inputs": [
        {
          "internalType": "bytes32",
          "name": "orderKey",
          "type": "bytes32"
        },
        {
          "internalType": "uint256",
          "name": "marketType",
          "type": "uint256"
        },
        {
          "internalType": "uint256",
          "name": "amount",
          "type": "uint256"
        }
      ],
      "name": "buy",
      "outputs": [],
      "stateMutability": "nonpayable",
      "type": "function"
    },
    {
      "inputs": [
        {
          "internalType": "uint256",
          "name": "tokenId",
          "type": "uint256"
        }
      ],
      "name": "concludePrimarySales",
      "outputs": [],
      "stateMutability": "nonpayable",
      "type": "function"
    },
    {
      "inputs": [
        {
          "internalType": "uint256",
          "name": "tokenId",
          "type": "uint256"
        }
      ],
      "name": "escrowBalance",
      "outputs": [
        {
          "internalType": "uint256",
          "name": "",
          "type": "uint256"
        }
      ],
      "stateMutability": "view",
      "type": "function"
    },
    {
      "inputs": [
        {
          "internalType": "address",
          "name": "recipient",
          "type": "address"
        },
        {
          "internalType": "uint256",
          "name": "amount",
          "type": "uint256"
        }
      ],
      "name": "fundWallet",
      "outputs": [],
      "stateMutability": "nonpayable",
      "type": "function"
    },
    {
      "inputs": [
        {
          "internalType": "uint256",
          "name": "tokenId",
          "type": "uint256"
        }
      ],
      "name": "getApproved",
      "outputs": [
        {
          "internalType": "address",
          "name": "",
          "type": "address"
        }
      ],
      "stateMutability": "view",
      "type": "function"
    },
    {
      "inputs": [
        {
          "internalType": "bytes32",
          "name": "key",
          "type": "bytes32"
        }
      ],
      "name": "getOrder",
      "outputs": [
        {
          "components": [
            {
              "components": [
                {
                  "internalType": "bytes32",
                  "name": "key",
                  "type": "bytes32"
                },
                {
                  "internalType": "uint256",
                  "name": "date",
                  "type": "uint256"
                }
              ],
              "internalType": "struct OrderModelV2.SortedKey",
              "name": "key",
              "type": "tuple"
            },
            {
              "internalType": "uint256",
              "name": "orderType",
              "type": "uint256"
            },
            {
              "internalType": "uint256",
              "name": "orderStrategy",
              "type": "uint256"
            },
            {
              "internalType": "address",
              "name": "seller",
              "type": "address"
            },
            {
              "internalType": "address",
              "name": "buyer",
              "type": "address"
            },
            {
              "internalType": "uint256",
              "name": "tokenId",
              "type": "uint256"
            },
            {
              "internalType": "uint256",
              "name": "amountRemaining",
              "type": "uint256"
            },
            {
              "internalType": "uint256",
              "name": "originalAmount",
              "type": "uint256"
            },
            {
              "internalType": "uint256",
              "name": "price",
              "type": "uint256"
            },
            {
              "internalType": "uint256",
              "name": "status",
              "type": "uint256"
            },
            {
              "internalType": "uint256",
              "name": "goodUntil",
              "type": "uint256"
            },
            {
              "internalType": "uint256",
              "name": "marketType",
              "type": "uint256"
            }
          ],
          "internalType": "struct OrderModelV2.Order",
          "name": "",
          "type": "tuple"
        }
      ],
      "stateMutability": "view",
      "type": "function"
    },
    {
      "inputs": [
        {
          "internalType": "address",
          "name": "owner_",
          "type": "address"
        },
        {
          "internalType": "address",
          "name": "operator",
          "type": "address"
        }
      ],
      "name": "isApprovedForAll",
      "outputs": [
        {
          "internalType": "bool",
          "name": "",
          "type": "bool"
        }
      ],
      "stateMutability": "view",
      "type": "function"
    },
    {
      "inputs": [
        {
          "internalType": "bytes32",
          "name": "order1Key",
          "type": "bytes32"
        },
        {
          "internalType": "bytes32",
          "name": "order2Key",
          "type": "bytes32"
        },
        {
          "internalType": "uint256",
          "name": "amount",
          "type": "uint256"
        }
      ],
      "name": "matchOrder",
      "outputs": [],
      "stateMutability": "nonpayable",
      "type": "function"
    },
    {
      "inputs": [
        {
          "internalType": "uint256",
          "name": "tokenId",
          "type": "uint256"
        },
        {
          "internalType": "string",
          "name": "tokenSymbol",
          "type": "string"
        },
        {
          "internalType": "uint256",
          "name": "totalSupply",
          "type": "uint256"
        },
        {
          "internalType": "uint256",
          "name": "issuingPrice",
          "type": "uint256"
        },
        {
          "internalType": "address",
          "name": "issuer",
          "type": "address"
        },
        {
          "internalType": "string",
          "name": "uri",
          "type": "string"
        }
      ],
      "name": "mint",
      "outputs": [],
      "stateMutability": "nonpayable",
      "type": "function"
    },
    {
      "inputs": [],
      "name": "name",
      "outputs": [
        {
          "internalType": "string",
          "name": "",
          "type": "string"
        }
      ],
      "stateMutability": "view",
      "type": "function"
    },
    {
      "inputs": [
        {
          "internalType": "uint256",
          "name": "tokenId",
          "type": "uint256"
        },
        {
          "internalType": "address",
          "name": "userAddress",
          "type": "address"
        }
      ],
      "name": "ownedShares",
      "outputs": [
        {
          "internalType": "uint256",
          "name": "",
          "type": "uint256"
        }
      ],
      "stateMutability": "view",
      "type": "function"
    },
    {
      "inputs": [
        {
          "internalType": "uint256",
          "name": "tokenId",
          "type": "uint256"
        }
      ],
      "name": "ownerOf",
      "outputs": [
        {
          "internalType": "address",
          "name": "",
          "type": "address"
        }
      ],
      "stateMutability": "view",
      "type": "function"
    },
    {
      "inputs": [
        {
          "internalType": "uint256",
          "name": "orderType",
          "type": "uint256"
        },
        {
          "internalType": "uint256",
          "name": "orderStrategy",
          "type": "uint256"
        },
        {
          "internalType": "uint256",
          "name": "amount",
          "type": "uint256"
        },
        {
          "internalType": "uint256",
          "name": "price",
          "type": "uint256"
        },
        {
          "internalType": "uint256",
          "name": "tokenId",
          "type": "uint256"
        },
        {
          "internalType": "uint256",
          "name": "goodUntil",
          "type": "uint256"
        },
        {
          "internalType": "bytes32",
          "name": "key",
          "type": "bytes32"
        },
        {
          "internalType": "uint256",
          "name": "marketType",
          "type": "uint256"
        }
      ],
      "name": "postOrder",
      "outputs": [],
      "stateMutability": "nonpayable",
      "type": "function"
    },
    {
      "inputs": [
        {
          "internalType": "uint256",
          "name": "tokenId",
          "type": "uint256"
        }
      ],
      "name": "primaryMarketBuyers",
      "outputs": [
        {
          "internalType": "address[]",
          "name": "",
          "type": "address[]"
        }
      ],
      "stateMutability": "view",
      "type": "function"
    },
    {
      "inputs": [
        {
          "internalType": "address",
          "name": "from",
          "type": "address"
        },
        {
          "internalType": "address",
          "name": "to",
          "type": "address"
        },
        {
          "internalType": "uint256",
          "name": "tokenId",
          "type": "uint256"
        }
      ],
      "name": "safeTransferFrom",
      "outputs": [],
      "stateMutability": "nonpayable",
      "type": "function"
    },
    {
      "inputs": [
        {
          "internalType": "address",
          "name": "from",
          "type": "address"
        },
        {
          "internalType": "address",
          "name": "to",
          "type": "address"
        },
        {
          "internalType": "uint256",
          "name": "tokenId",
          "type": "uint256"
        },
        {
          "internalType": "bytes",
          "name": "_data",
          "type": "bytes"
        }
      ],
      "name": "safeTransferFrom",
      "outputs": [],
      "stateMutability": "nonpayable",
      "type": "function"
    },
    {
      "inputs": [
        {
          "internalType": "bytes32",
          "name": "orderKey",
          "type": "bytes32"
        },
        {
          "internalType": "uint256",
          "name": "amount",
          "type": "uint256"
        }
      ],
      "name": "sell",
      "outputs": [],
      "stateMutability": "nonpayable",
      "type": "function"
    },
    {
      "inputs": [
        {
          "internalType": "address",
          "name": "operator",
          "type": "address"
        },
        {
          "internalType": "bool",
          "name": "approved",
          "type": "bool"
        }
      ],
      "name": "setApprovalForAll",
      "outputs": [],
      "stateMutability": "nonpayable",
      "type": "function"
    },
    {
      "inputs": [
        {
          "internalType": "bytes4",
          "name": "interfaceId",
          "type": "bytes4"
        }
      ],
      "name": "supportsInterface",
      "outputs": [
        {
          "internalType": "bool",
          "name": "",
          "type": "bool"
        }
      ],
      "stateMutability": "view",
      "type": "function"
    },
    {
      "inputs": [],
      "name": "symbol",
      "outputs": [
        {
          "internalType": "string",
          "name": "",
          "type": "string"
        }
      ],
      "stateMutability": "view",
      "type": "function"
    },
    {
      "inputs": [
        {
          "internalType": "uint256",
          "name": "tokenId",
          "type": "uint256"
        }
      ],
      "name": "tokenShares",
      "outputs": [
        {
          "internalType": "uint256",
          "name": "",
          "type": "uint256"
        },
        {
          "internalType": "address",
          "name": "",
          "type": "address"
        },
        {
          "internalType": "address",
          "name": "",
          "type": "address"
        },
        {
          "internalType": "string",
          "name": "",
          "type": "string"
        },
        {
          "internalType": "string",
          "name": "",
          "type": "string"
        },
        {
          "internalType": "uint256",
          "name": "",
          "type": "uint256"
        },
        {
          "internalType": "uint256",
          "name": "",
          "type": "uint256"
        },
        {
          "internalType": "address",
          "name": "",
          "type": "address"
        }
      ],
      "stateMutability": "view",
      "type": "function"
    },
    {
      "inputs": [
        {
          "internalType": "uint256",
          "name": "tokenId",
          "type": "uint256"
        }
      ],
      "name": "tokenURI",
      "outputs": [
        {
          "internalType": "string",
          "name": "",
          "type": "string"
        }
      ],
      "stateMutability": "view",
      "type": "function"
    },
    {
      "inputs": [
        {
          "internalType": "uint256",
          "name": "tokenId",
          "type": "uint256"
        }
      ],
      "name": "totalValueSold",
      "outputs": [
        {
          "internalType": "uint256",
          "name": "",
          "type": "uint256"
        }
      ],
      "stateMutability": "view",
      "type": "function"
    },
    {
      "inputs": [
        {
          "internalType": "address",
          "name": "from",
          "type": "address"
        },
        {
          "internalType": "address",
          "name": "to",
          "type": "address"
        },
        {
          "internalType": "uint256",
          "name": "tokenId",
          "type": "uint256"
        }
      ],
      "name": "transferFrom",
      "outputs": [],
      "stateMutability": "nonpayable",
      "type": "function"
    },
    {
      "inputs": [
        {
          "internalType": "uint256",
          "name": "tokenId",
          "type": "uint256"
        },
        {
          "internalType": "address",
          "name": "toAddress",
          "type": "address"
        },
        {
          "internalType": "uint256",
          "name": "amount",
          "type": "uint256"
        }
      ],
      "name": "transferShares",
      "outputs": [],
      "stateMutability": "nonpayable",
      "type": "function"
    },
    {
      "inputs": [
        {
          "internalType": "uint256",
          "name": "tokenId",
          "type": "uint256"
        }
      ],
      "name": "underSubscribed",
      "outputs": [],
      "stateMutability": "nonpayable",
      "type": "function"
    },
    {
      "inputs": [
        {
          "internalType": "address",
          "name": "userAddress",
          "type": "address"
        }
      ],
      "name": "walletBalance",
      "outputs": [
        {
          "internalType": "uint256",
          "name": "",
          "type": "uint256"
        }
      ],
      "stateMutability": "view",
      "type": "function"
    }
  ],
  "bytecode": "0x60806040523480156200001157600080fd5b50620000246301ffc9a760e01b6200019c565b6040805180820190915260108082526f4e5345204172742045786368616e676560801b60209092019182526200005d91601491620001f7565b5060408051808201909152600480825263082a4a8b60e31b60209092019182526200008b91601591620001f7565b506200009e6380ac58cd60e01b6200019c565b620000b0635b5e139f60e01b6200019c565b620000c263780e9d6360e01b6200019c565b601280546001600160a01b0319163390811790915560405160019190600290600090620000ef906200027c565b620000fe9493929190620002fa565b604051809103906000f0801580156200011b573d6000803e3d6000fd5b50600f80546001600160a01b0319166001600160a01b039290921691909117905560405130906200014c906200028a565b620001589190620002af565b604051809103906000f08015801562000175573d6000803e3d6000fd5b50601080546001600160a01b0319166001600160a01b039290921691909117905562000340565b6001600160e01b03198082161415620001d25760405162461bcd60e51b8152600401620001c990620002c3565b60405180910390fd5b6001600160e01b0319166000908152602081905260409020805460ff19166001179055565b828054600181600116156101000203166002900490600052602060002090601f016020900481019282601f106200023a57805160ff19168380011785556200026a565b828001600101855582156200026a579182015b828111156200026a5782518255916020019190600101906200024d565b506200027892915062000298565b5090565b611150806200539183390190565b6103b680620064e183390190565b5b8082111562000278576000815560010162000299565b6001600160a01b0391909116815260200190565b6020808252601c908201527f4552433136353a20696e76616c696420696e7465726661636520696400000000604082015260600190565b60a08082526006908201526515d05313115560d21b60c082015260208101949094526001600160a01b0392909216604084015260ff166060830152608082015260e00190565b61504180620003506000396000f3fe60806040523480156200001157600080fd5b5060043610620001fc5760003560e01c80637727b85b116200011d578063b9d11e8611620000b1578063e985e9c5116200007b578063e985e9c5146200048a578063f1dfad8f14620004a1578063fc18d03414620004b8578063ff91945014620004cf57620001fc565b8063b9d11e86146200042e578063bb099ee31462000445578063c87b56dd146200045c578063cf9cd8f8146200047357620001fc565b8063a22cb46511620000f3578063a22cb46514620003d2578063b433a77e14620003e9578063b592de3a1462000400578063b88d4fde146200041757620001fc565b80637727b85b146200039a57806384b9a6e614620003b157806395d89b4114620003c857620001fc565b80633563922f11620001955780635778472a116200016b5780635778472a146200032f5780636352211e146200035557806370a08231146200036c57806371df284d146200038357620001fc565b80633563922f14620002eb5780633ae64e0c146200030257806342842e0e14620002d457620001fc565b8063081812fc11620001d7578063081812fc146200026f578063095ea7b314620002955780631a3ed27514620002ae57806323b872dd14620002d457620001fc565b806301ffc9a7146200020157806302a1c41d146200023057806306fdde031462000256575b600080fd5b620002186200021236600462003385565b620004e6565b60405162000227919062003750565b60405180910390f35b6200024762000241366004620033dc565b62000509565b60405162000227919062003d1f565b62000260620005a9565b604051620002279190620037b4565b620002866200028036600462003309565b62000643565b60405162000227919062003657565b620002ac620002a636600462003209565b6200069f565b005b620002c5620002bf36600462003309565b62000732565b60405162000227919062003701565b620002ac620002e5366004620030e5565b6200072d565b620002ac620002fc36600462003209565b620007bd565b620003196200031336600462003309565b62000856565b6040516200022798979695949392919062003d64565b620003466200034036600462003309565b62000923565b60405162000227919062003c6f565b620002866200036636600462003309565b620009e6565b620002476200037d36600462003089565b62000a01565b620002ac62000394366004620034f3565b62000a1c565b620002ac620003ab36600462003309565b62000b18565b620002ac620003c2366004620034ca565b62000f3b565b6200026062001048565b620002ac620003e3366004620031d7565b620010ac565b620002ac620003fa36600462003322565b62001110565b620002ac620004113660046200334e565b620012ec565b620002ac620004283660046200312a565b62000f35565b620002476200043f36600462003309565b620013cd565b620002476200045636600462003309565b62001467565b620002606200046d36600462003309565b62001509565b620002476200048436600462003089565b620015ae565b620002186200049b366004620030a8565b620015e3565b620002ac620004b23660046200359a565b62001611565b620002ac620004c936600462003370565b62001a9d565b620002ac620004e036600462003309565b62001ccf565b6001600160e01b0319811660009081526020819052604090205460ff165b919050565b6000828152600e6020526040808220549051636eb1769f60e11b81526001600160a01b0390911690819063dd62ed3e906200054b9086903090600401620036aa565b60206040518083038186803b1580156200056457600080fd5b505afa15801562000579573d6000803e3d6000fd5b505050506040513d601f19601f820116820180604052508101906200059f9190620033c3565b9150505b92915050565b60148054604080516020601f6002600019610100600188161502019095169490940493840181900481028201810190925282815260609390929091830182828015620006395780601f106200060d5761010080835404028352916020019162000639565b820191906000526020600020905b8154815290600101906020018083116200061b57829003601f168201915b5050505050905090565b6000818152600660205260408120546001600160a01b0316620006835760405162461bcd60e51b81526004016200067a9062003a96565b60405180910390fd5b506000908152600b60205260409020546001600160a01b031690565b6000620006ac82620009e6565b9050806001600160a01b0316836001600160a01b03161415620006e35760405162461bcd60e51b81526004016200067a9062003b1d565b336001600160a01b0382161480620007025750620007028133620015e3565b620007215760405162461bcd60e51b81526004016200067a9062003988565b6200072d838362001e18565b505050565b601054604051631e55504360e31b81526060916001600160a01b03169063f2aa8218906200076590859060040162003d1f565b60006040518083038186803b1580156200077e57600080fd5b505afa15801562000793573d6000803e3d6000fd5b505050506040513d6000823e601f3d908101601f19168201604052620005a3919081019062003237565b6012546001600160a01b03163314620007ea5760405162461bcd60e51b81526004016200067a9062003c19565b600f54604051630f38ca0d60e31b81526001600160a01b03909116906379c65068906200081e9085908590600401620036e8565b600060405180830381600087803b1580156200083957600080fd5b505af11580156200084e573d6000803e3d6000fd5b505050505050565b6000818152600e60209081526040808320546006909252808320549051637cdbcac560e11b81528392839260609283928592839283926001600160a01b039081169263f9b7958a92620008b0928e92169060040162003d28565b60006040518083038186803b158015620008c957600080fd5b505afa158015620008de573d6000803e3d6000fd5b505050506040513d6000823e601f3d908101601f1916820160405262000908919081019062003403565b97509750975097509750975097509750919395975091939597565b6200092d62002e9c565b5060009081526011602090815260409182902082516101c0810184528154610180820190815260018301546101a0830152815260028201549281019290925260038101549282019290925260048201546001600160a01b0390811660608301526005830154166080820152600682015460a0820152600782015460c0820152600882015460e08201526009820154610100820152600a820154610120820152600b820154610140820152600c9091015461016082015290565b6000908152600660205260409020546001600160a01b031690565b6001600160a01b031660009081526003602052604090205490565b6001600160a01b03831662000a3057600080fd5b6012546001600160a01b0316331462000a4857600080fd5b62000a54338962001e46565b50600088815260096020526040902062000a7090838362002f17565b5060008881526007602052604080822080546001600160a01b0319166001600160a01b0387161790555188908890879087906002908b9062000ab29062002f9c565b62000ac3969594939291906200375b565b604051809103906000f08015801562000ae0573d6000803e3d6000fd5b506000998a52600e602052604090992080546001600160a01b0319166001600160a01b03909a16999099179098555050505050505050565b6012546001600160a01b0316331462000b3057600080fd5b601054604051631e55504360e31b81526060916001600160a01b03169063f2aa82189062000b6390859060040162003d1f565b60006040518083038186803b15801562000b7c57600080fd5b505afa15801562000b91573d6000803e3d6000fd5b505050506040513d6000823e601f3d908101601f1916820160405262000bbb919081019062003237565b6000838152600e60205260408120549192506001600160a01b03909116905b82518160ff16101562000e155760105483516000916001600160a01b0316906320000b59908790879060ff871690811062000c1157fe5b60200260200101516040518363ffffffff1660e01b815260040162000c3892919062003d28565b60206040518083038186803b15801562000c5157600080fd5b505afa15801562000c66573d6000803e3d6000fd5b505050506040513d601f19601f8201168201806040525081019062000c8c9190620033c3565b9050801562000e0b57826001600160a01b03166323b872dd858460ff168151811062000cb457fe5b6020026020010151731337133713371337133713371337133713371337866001600160a01b031663dd62ed3e898860ff168151811062000cf057fe5b6020026020010151306040518363ffffffff1660e01b815260040162000d18929190620036aa565b60206040518083038186803b15801562000d3157600080fd5b505afa15801562000d46573d6000803e3d6000fd5b505050506040513d601f19601f8201168201806040525081019062000d6c9190620033c3565b6040518463ffffffff1660e01b815260040162000d8c93929190620036c4565b602060405180830381600087803b15801562000da757600080fd5b505af115801562000dbc573d6000803e3d6000fd5b505050506040513d601f19601f8201168201806040525081019062000de29190620032ea565b1562000e0b5762000e0b848360ff168151811062000dfc57fe5b602002602001015182620007bd565b5060010162000bda565b50601254604051636eb1769f60e11b81526001600160a01b03808416926323b872dd9291169073133713371337133713371337133713371337133790849063dd62ed3e9062000e6b9085903090600401620036aa565b60206040518083038186803b15801562000e8457600080fd5b505afa15801562000e99573d6000803e3d6000fd5b505050506040513d601f19601f8201168201806040525081019062000ebf9190620033c3565b6040518463ffffffff1660e01b815260040162000edf93929190620036c4565b602060405180830381600087803b15801562000efa57600080fd5b505af115801562000f0f573d6000803e3d6000fd5b505050506040513d601f19601f8201168201806040525081019062000f359190620032ea565b50505050565b6000838152600e6020526040908190205490516323b872dd60e01b815233916001600160a01b03169081906323b872dd9062000f8090859088908890600401620036c4565b602060405180830381600087803b15801562000f9b57600080fd5b505af115801562000fb0573d6000803e3d6000fd5b505050506040513d601f19601f8201168201806040525081019062000fd69190620032ea565b15620010415760405163363798f960e11b81526001600160a01b03821690636c6f31f2906200100c9087908790600401620036e8565b600060405180830381600087803b1580156200102757600080fd5b505af11580156200103c573d6000803e3d6000fd5b505050505b5050505050565b60158054604080516020601f6002600019610100600188161502019095169490940493840181900481028201810190925282815260609390929091830182828015620006395780601f106200060d5761010080835404028352916020019162000639565b6001600160a01b038216331415620010d85760405162461bcd60e51b81526004016200067a90620038df565b336000908152600c602090815260408083206001600160a01b0395909516835293905291909120805460ff1916911515919091179055565b6200111a62002e9c565b5060008381526011602090815260409182902082516101c0810184528154610180820190815260018301546101a0830152815260028201549281019290925260038101549282019290925260048201546001600160a01b0390811660608301526005830154166080820152600682015460a0820152600782015460c0820152600882015460e08201526009820154610100820152600a820154610120820152600b820154610140820152600c90910154610160820152620011da62002e9c565b5060008381526011602090815260409182902082516101c0810184528154610180820190815260018301546101a0830152815260028201548184015260038201549381019390935260048101546001600160a01b0390811660608501526005820154166080840152600681015460a0840152600781015460c0840152600881015460e08401526009810154610100840152600a810154610120840152600b810154610140840152600c0154610160830152820151620012bf5760808201516060820151620012aa8686836200200e565b620012b7878684620025e1565b505062001041565b60808101516060830151620012d68786836200200e565b620012e3868684620025e1565b50505050505050565b620012f662002e9c565b50600082815260116020908152604080832081516101c0810183528154610180820190815260018301546101a0830152815260028201549381019390935260038101549183019190915260048101546001600160a01b0390811660608401526005820154166080830152600681015460a0830152600781015460c0830152600881015460e08301526009810154610100830152600a810154610120830152600b810154610140830152600c0154610160820152908215620013b85782620013be565b8160c001515b905062000f358482336200200e565b60105460008281526007602052604080822054905163e5c66bbd60e01b815291926001600160a01b039081169263e5c66bbd926200141392879291169060040162003d28565b60206040518083038186803b1580156200142c57600080fd5b505afa15801562001441573d6000803e3d6000fd5b505050506040513d601f19601f82011682018060405250810190620005a39190620033c3565b6000818152600e6020526040808220546012549151636eb1769f60e11b81526001600160a01b0391821692839263dd62ed3e92620014ae92909116903090600401620036aa565b60206040518083038186803b158015620014c757600080fd5b505afa158015620014dc573d6000803e3d6000fd5b505050506040513d601f19601f82011682018060405250810190620015029190620033c3565b9392505050565b60008181526009602090815260409182902080548351601f6002600019610100600186161502019093169290920491820184900484028101840190945280845260609392830182828015620015a25780601f106200157657610100808354040283529160200191620015a2565b820191906000526020600020905b8154815290600101906020018083116200158457829003601f168201915b50505050509050919050565b600f54604051636eb1769f60e11b81526000916001600160a01b03169063dd62ed3e90620014139085903090600401620036aa565b6001600160a01b039182166000908152600c6020908152604080832093909416825291909152205460ff1690565b60008281526011602052604090206006015415620016435760405162461bcd60e51b81526004016200067a90620037e5565b600080896200176f57506000905033816200165f898962002c2b565b6001600160a01b0380841660009081526013602052604080822054600f549151636eb1769f60e11b815294955091939192169063dd62ed3e90620016aa9087903090600401620036aa565b60206040518083038186803b158015620016c357600080fd5b505afa158015620016d8573d6000803e3d6000fd5b505050506040513d601f19601f82011682018060405250810190620016fe9190620033c3565b0390508181106200174d576001600160a01b0383166000908152601360205260409020546200172e908362002c6b565b6001600160a01b03841660009081526013602052604090205562001767565b60405162461bcd60e51b81526004016200067a9062003a1e565b50506200197d565b60018a14156200197d5750339050600082620017c1576000868152600760205260409020546001600160a01b03838116911614620017c15760405162461bcd60e51b81526004016200067a9062003c51565b6000868152600e6020526040808220549051636eb1769f60e11b81526001600160a01b039091169190829063dd62ed3e90620018049087903090600401620036aa565b60206040518083038186803b1580156200181d57600080fd5b505afa15801562001832573d6000803e3d6000fd5b505050506040513d601f19601f82011682018060405250810190620018589190620033c3565b9050898110156200187d5760405162461bcd60e51b81526004016200067a9062003b5e565b6012546040516323b872dd60e01b81526001600160a01b03808516926323b872dd92620018b392899216908f90600401620036c4565b602060405180830381600087803b158015620018ce57600080fd5b505af1158015620018e3573d6000803e3d6000fd5b505050506040513d601f19601f82011682018060405250810190620019099190620032ea565b156200197a5760125460405163363798f960e11b81526001600160a01b0384811692636c6f31f2926200194592909116908e90600401620036e8565b600060405180830381600087803b1580156200196057600080fd5b505af115801562001975573d6000803e3d6000fd5b505050505b50505b6200198762002faa565b5060408051808201909152848152426020820152620019a562002e9c565b50604080516101808101825291825260208083019c8d528282019b8c526001600160a01b03948516606084019081529385166080840190815260a08401998a5260c084018c815260e085019c8d5261010085019b8c526000610120860181815261014087019b8c526101608701998a5299815260118452939093209351805185559091015160018401559b5160028301559951600382015590516004820180549184166001600160a01b03199283161790559951600582018054919093169a16999099179055925160068801559451600787015592516008860155905160098501559151600a84015551600b83015551600c90910155565b62001aa762002e9c565b50600083815260116020908152604080832081516101c0810183528154610180820190815260018301546101a0830152815260028201549381019390935260038101549183019190915260048101546001600160a01b0390811660608401526005820154166080830152600681015460a0830152600781015460c0830152600881015460e08301526009810154610100830152600a810154610120830152600b810154610140830152600c015461016082015290821562001b69578262001b6f565b8160c001515b90508362001cc257600062001b938361010001518362002c2b90919063ffffffff16565b905062001ba2868333620025e1565b600f5460608401516040516323b872dd60e01b81526001600160a01b03909216916323b872dd9162001bef91731337133713371337133713371337133713371337908690600401620036c4565b602060405180830381600087803b15801562001c0a57600080fd5b505af115801562001c1f573d6000803e3d6000fd5b505050506040513d601f19601f8201168201806040525081019062001c459190620032ea565b5060105460a084015160608501516040516302bf1efd60e21b81526001600160a01b0390931692630afc7bf49262001c87929091339190879060040162003d3f565b600060405180830381600087803b15801562001ca257600080fd5b505af115801562001cb7573d6000803e3d6000fd5b505050505062001041565b62001041858233620025e1565b6012546001600160a01b0316331462001ce757600080fd5b6000818152600e602052604090819020546012549151636eb1769f60e11b81526001600160a01b039182169283926323b872dd9291169073133713371337133713371337133713371337133790849063dd62ed3e9062001d4e9085903090600401620036aa565b60206040518083038186803b15801562001d6757600080fd5b505afa15801562001d7c573d6000803e3d6000fd5b505050506040513d601f19601f8201168201806040525081019062001da29190620033c3565b6040518463ffffffff1660e01b815260040162001dc293929190620036c4565b602060405180830381600087803b15801562001ddd57600080fd5b505af115801562001df2573d6000803e3d6000fd5b505050506040513d601f19601f820116820180604052508101906200072d9190620032ea565b6000908152600b6020526040902080546001600160a01b0319166001600160a01b0392909216919091179055565b6000818152600660205260408120546001600160a01b03161562001e7e5760405162461bcd60e51b81526004016200067a9062003bce565b600a5462001e8e90600162002c6b565b600a556001600160a01b03831660009081526003602052604090205462001eb790600162002c6b565b6001600160a01b038416600081815260036020908152604080832094909455600480548784526002835285842081905560018082019092557f8a35acfbc15ff81a39ae7d344fd709f28e8600b4aa8c65c6b64bfe7fe36bd19b018790558383526005825284832080548083018255908452828420018790558683526006825284832080546001600160a01b03191685179055838352600880835285842054888552828452958420869055939092529190915262001f75919062002c6b565b6001600160a01b038416600090815260086020908152604080832093909355825190810190925280825262001fae918590859062002c93565b62001fcd5760405162461bcd60e51b81526004016200067a9062003801565b60405182906001600160a01b038516906000907fddf252ad1be2c89b69c2b068fc378daa952ba7f163c4a11628f55a4df523b3ef908290a450600192915050565b6200201862002e9c565b5060008381526011602090815260409182902082516101c0810184528154610180820190815260018301546101a0830152815260028201549281019290925260038101549282019290925260048201546001600160a01b03908116606083015260058301541660808201819052600683015460a0830152600783015460c0830152600883015460e08301526009830154610100830152600a830154610120830152600b830154610140830152600c909201546101608201529083620020f15760405162461bcd60e51b81526004016200067a9062003ae2565b8160c00151841115620021185760405162461bcd60e51b81526004016200067a9062003bfc565b826001600160a01b031682606001516001600160a01b03161415620021515760405162461bcd60e51b81526004016200067a9062003a00565b602082015115620021765760405162461bcd60e51b81526004016200067a906200396a565b6000620021888360a001518562000509565b905084811015620021ad5760405162461bcd60e51b81526004016200067a9062003aff565b6000620021c98461010001518762002c2b90919063ffffffff16565b600f54604051636eb1769f60e11b81529192506000916001600160a01b039091169063dd62ed3e90620022039087903090600401620036aa565b60206040518083038186803b1580156200221c57600080fd5b505afa15801562002231573d6000803e3d6000fd5b505050506040513d601f19601f82011682018060405250810190620022579190620033c3565b9050818110156200227c5760405162461bcd60e51b81526004016200067a906200386f565b6001600160a01b038416600090815260136020526040902054821115620022b75760405162461bcd60e51b81526004016200067a90620038c2565b6001600160a01b038416600090815260136020526040902054620022dc908362002d77565b6001600160a01b0380861660009081526013602090815260408083209490945560a08901518252600e905282902054600f5492516323b872dd60e01b815290821692909116906323b872dd906200233c9088908b908890600401620036c4565b602060405180830381600087803b1580156200235757600080fd5b505af11580156200236c573d6000803e3d6000fd5b505050506040513d601f19601f82011682018060405250810190620023929190620032ea565b15620024f957600f5460405163363798f960e11b81526001600160a01b0390911690636c6f31f290620023cc908a908790600401620036e8565b600060405180830381600087803b158015620023e757600080fd5b505af1158015620023fc573d6000803e3d6000fd5b50506040516323b872dd60e01b81526001600160a01b03841692506323b872dd915062002432908a9089908d90600401620036c4565b602060405180830381600087803b1580156200244d57600080fd5b505af115801562002462573d6000803e3d6000fd5b505050506040513d601f19601f82011682018060405250810190620024889190620032ea565b15620024f35760405163363798f960e11b81526001600160a01b03821690636c6f31f290620024be9088908c90600401620036e8565b600060405180830381600087803b158015620024d957600080fd5b505af1158015620024ee573d6000803e3d6000fd5b505050505b62002513565b60405162461bcd60e51b81526004016200067a9062003a39565b50505060c0830180519590950385525050805151600090815260116020908152604091829020835180518255820151600182015590830151600282015590820151600382015560608201516004820180546001600160a01b039283166001600160a01b031991821617909155608084015160058401805491909316911617905560a082015160068201559251600784015560e081015160088401556101008101516009840155610120810151600a840155610140810151600b8401556101600151600c909201919091555050565b620025eb62002e9c565b5060008381526011602090815260409182902082516101c0810184528154610180820190815260018301546101a0830152815260028201549281019290925260038101549282019290925260048201546001600160a01b039081166060830181905260058401549091166080830152600683015460a0830152600783015460c0830152600883015460e08301526009830154610100830152600a830154610120830152600b830154610140830152600c909201546101608201529083620026c65760405162461bcd60e51b81526004016200067a9062003853565b8160c00151841115620026ed5760405162461bcd60e51b81526004016200067a90620037c9565b826001600160a01b0316816001600160a01b03161415620027225760405162461bcd60e51b81526004016200067a9062003916565b6001826020015114620027495760405162461bcd60e51b81526004016200067a9062003bb1565b6000620027658361010001518662002c2b90919063ffffffff16565b600f54604051636eb1769f60e11b81529192506000916001600160a01b039091169063dd62ed3e906200279f9088903090600401620036aa565b60206040518083038186803b158015620027b857600080fd5b505afa158015620027cd573d6000803e3d6000fd5b505050506040513d601f19601f82011682018060405250810190620027f39190620033c3565b905081811015620028185760405162461bcd60e51b81526004016200067a9062003a1e565b60a08401516000908152600e6020526040908190205460125491516323b872dd60e01b81526001600160a01b039182169283926323b872dd9262002867929091169088908c90600401620036c4565b602060405180830381600087803b1580156200288257600080fd5b505af115801562002897573d6000803e3d6000fd5b505050506040513d601f19601f82011682018060405250810190620028bd9190620032ea565b156200293157606085015160405163363798f960e11b81526001600160a01b03831691636c6f31f291620028f791908b90600401620036e8565b600060405180830381600087803b1580156200291257600080fd5b505af115801562002927573d6000803e3d6000fd5b505050506200294b565b60405162461bcd60e51b81526004016200067a9062003c35565b600f546040516323b872dd60e01b81526001600160a01b03909116906323b872dd906200298190899088908890600401620036c4565b602060405180830381600087803b1580156200299c57600080fd5b505af1158015620029b1573d6000803e3d6000fd5b505050506040513d601f19601f82011682018060405250810190620029d79190620032ea565b1562002b4457600f54606086015160405163363798f960e11b81526001600160a01b0390921691636c6f31f29162002a14918790600401620036e8565b600060405180830381600087803b15801562002a2f57600080fd5b505af115801562002a44573d6000803e3d6000fd5b50505060608601516040516323b872dd60e01b81526001600160a01b03841692506323b872dd9162002a7d918a908c90600401620036c4565b602060405180830381600087803b15801562002a9857600080fd5b505af115801562002aad573d6000803e3d6000fd5b505050506040513d601f19601f8201168201806040525081019062002ad39190620032ea565b1562002b3e5760405163363798f960e11b81526001600160a01b03821690636c6f31f29062002b099089908b90600401620036e8565b600060405180830381600087803b15801562002b2457600080fd5b505af115801562002b39573d6000803e3d6000fd5b505050505b62002b5e565b60405162461bcd60e51b81526004016200067a90620039e5565b50505060c08201805194909403845250805151600090815260116020908152604091829020835180518255820151600182015590830151600282015590820151600382015560608201516004820180546001600160a01b039283166001600160a01b031991821617909155608084015160058401805491909316911617905560a082015160068201559251600784015560e081015160088401556101008101516009840155610120810151600a840155610140810151600b8401556101600151600c909201919091555050565b60008262002c3c57506000620005a3565b8282028284828162002c4a57fe5b0414620015025760405162461bcd60e51b81526004016200067a9062003a55565b600082820183811015620015025760405162461bcd60e51b81526004016200067a906200388b565b600062002ca9846001600160a01b031662002da2565b62002cb75750600162002d6f565b606062002d3d63150b7a0260e01b3388878760405160240162002cde94939291906200366b565b604051602081830303815290604052906001600160e01b0319166020820180516001600160e01b03838183161783525050505060405180606001604052806032815260200162004fda603291396001600160a01b038816919062002da8565b905060008180602001905181019062002d579190620033a4565b6001600160e01b031916630a85bd0160e11b14925050505b949350505050565b60008282111562002d9c5760405162461bcd60e51b81526004016200067a9062003933565b50900390565b3b151590565b606062002d6f84846000858562002dbf8562002da2565b62002dde5760405162461bcd60e51b81526004016200067a9062003b7a565b60006060866001600160a01b0316858760405162002dfd919062003639565b60006040518083038185875af1925050503d806000811462002e3c576040519150601f19603f3d011682016040523d82523d6000602084013e62002e41565b606091505b509150915062002e5382828662002e5e565b979650505050505050565b6060831562002e6f57508162001502565b82511562002e805782518084602001fd5b8160405162461bcd60e51b81526004016200067a9190620037b4565b60405180610180016040528062002eb262002faa565b8152602001600081526020016000815260200160006001600160a01b0316815260200160006001600160a01b03168152602001600081526020016000815260200160008152602001600081526020016000815260200160008152602001600081525090565b828054600181600116156101000203166002900490600052602060002090601f016020900481019282601f1062002f5a5782800160ff1982351617855562002f8a565b8280016001018555821562002f8a579182015b8281111562002f8a57823582559160200191906001019062002f6d565b5062002f9892915062002fc1565b5090565b6111508062003e8a83390190565b604080518082019091526000808252602082015290565b5b8082111562002f98576000815560010162002fc2565b8051620005048162003e4a565b60008083601f84011262002ff7578182fd5b50813567ffffffffffffffff8111156200300f578182fd5b6020830191508360208285010111156200302857600080fd5b9250929050565b600082601f83011262003040578081fd5b815162003057620030518262003df8565b62003dd3565b91508082528360208285010111156200306f57600080fd5b6200308281602084016020860162003e1b565b5092915050565b6000602082840312156200309b578081fd5b8135620015028162003e4a565b60008060408385031215620030bb578081fd5b8235620030c88162003e4a565b91506020830135620030da8162003e4a565b809150509250929050565b600080600060608486031215620030fa578081fd5b8335620031078162003e4a565b92506020840135620031198162003e4a565b929592945050506040919091013590565b6000806000806080858703121562003140578081fd5b84356200314d8162003e4a565b935060208501356200315f8162003e4a565b925060408501359150606085013567ffffffffffffffff81111562003182578182fd5b8501601f8101871362003193578182fd5b8035620031a4620030518262003df8565b818152886020838501011115620031b9578384fd5b81602084016020830137908101602001929092525092959194509250565b60008060408385031215620031ea578182fd5b8235620031f78162003e4a565b91506020830135620030da8162003e63565b600080604083850312156200321c578182fd5b8235620032298162003e4a565b946020939093013593505050565b600060208083850312156200324a578182fd5b825167ffffffffffffffff8082111562003262578384fd5b818501915085601f83011262003276578384fd5b8151818111156200328357fe5b83810291506200329584830162003dd3565b8181528481019084860184860187018a1015620032b0578788fd5b8795505b83861015620032dd57620032c88162002fd8565b835260019590950194918601918601620032b4565b5098975050505050505050565b600060208284031215620032fc578081fd5b8151620015028162003e63565b6000602082840312156200331b578081fd5b5035919050565b60008060006060848603121562003337578283fd5b505081359360208301359350604090920135919050565b6000806040838503121562003361578182fd5b50508035926020909101359150565b60008060006060848603121562003337578081fd5b60006020828403121562003397578081fd5b8135620015028162003e72565b600060208284031215620033b6578081fd5b8151620015028162003e72565b600060208284031215620033d5578081fd5b5051919050565b60008060408385031215620033ef578182fd5b823591506020830135620030da8162003e4a565b600080600080600080600080610100898b03121562003420578586fd5b885197506020890151620034348162003e4a565b60408a0151909750620034478162003e4a565b60608a015190965067ffffffffffffffff8082111562003465578586fd5b620034738c838d016200302f565b965060808b015191508082111562003489578586fd5b50620034988b828c016200302f565b94505060a0890151925060c0890151915060e0890151620034b98162003e4a565b809150509295985092959890939650565b600080600060608486031215620034df578081fd5b833592506020840135620031198162003e4a565b60008060008060008060008060c0898b0312156200350f578182fd5b88359750602089013567ffffffffffffffff808211156200352e578384fd5b6200353c8c838d0162002fe5565b909950975060408b0135965060608b0135955060808b01359150620035618262003e4a565b90935060a08a0135908082111562003577578384fd5b50620035868b828c0162002fe5565b999c989b5096995094979396929594505050565b600080600080600080600080610100898b031215620035b7578182fd5b505086359860208801359850604088013597606081013597506080810135965060a0810135955060c0810135945060e0013592509050565b6001600160a01b03169052565b600081518084526200361681602086016020860162003e1b565b601f01601f19169290920160200192915050565b80518252602090810151910152565b600082516200364d81846020870162003e1b565b9190910192915050565b6001600160a01b0391909116815260200190565b6001600160a01b0385811682528416602082015260408101839052608060608201819052600090620036a090830184620035fc565b9695505050505050565b6001600160a01b0392831681529116602082015260400190565b6001600160a01b039384168152919092166020820152604081019190915260600190565b6001600160a01b03929092168252602082015260400190565b6020808252825182820181905260009190848201906040850190845b81811015620037445783516001600160a01b0316835292840192918401916001016200371d565b50909695505050505050565b901515815260200190565b600060a082528660a0830152868860c084013760c087830181019190915260208201959095526001600160a01b0393909316604084015260ff9190911660608301526080820152601f909201601f191690910101919050565b600060208252620015026020830184620035fc565b602080825260029082015261544d60f01b604082015260600190565b602080825260029082015261534b60f01b604082015260600190565b60208082526032908201527f4552433732313a207472616e7366657220746f206e6f6e20455243373231526560408201527131b2b4bb32b91034b6b83632b6b2b73a32b960711b606082015260800190565b602080825260029082015261232760f11b604082015260600190565b6020808252600290820152614c5360f01b604082015260600190565b6020808252601b908201527f536166654d6174683a206164646974696f6e206f766572666c6f770000000000604082015260600190565b60208082526003908201526245445360e81b604082015260600190565b60208082526019908201527f4552433732313a20617070726f766520746f2063616c6c657200000000000000604082015260600190565b60208082526003908201526253415360e81b604082015260600190565b6020808252601e908201527f536166654d6174683a207375627472616374696f6e206f766572666c6f770000604082015260600190565b6020808252600490820152634d42425360e01b604082015260600190565b60208082526038908201527f4552433732313a20617070726f76652063616c6c6572206973206e6f74206f7760408201527f6e6572206e6f7220617070726f76656420666f7220616c6c0000000000000000606082015260800190565b6020808252600190820152602760f91b604082015260600190565b6020808252600490820152635341535360e01b604082015260600190565b6020808252600190820152601360fa1b604082015260600190565b6020808252600290820152614e5360f01b604082015260600190565b60208082526021908201527f536166654d6174683a206d756c7469706c69636174696f6e206f766572666c6f6040820152607760f81b606082015260800190565b6020808252602c908201527f4552433732313a20617070726f76656420717565727920666f72206e6f6e657860408201526b34b9ba32b73a103a37b5b2b760a11b606082015260800190565b602080825260039082015262464e5360e81b604082015260600190565b6020808252600490820152634e45415360e01b604082015260600190565b60208082526021908201527f4552433732313a20617070726f76616c20746f2063757272656e74206f776e656040820152603960f91b606082015260800190565b6020808252600290820152614e4160f01b604082015260600190565b6020808252601d908201527f416464726573733a2063616c6c20746f206e6f6e2d636f6e7472616374000000604082015260600190565b6020808252600390820152624d425360e81b604082015260600190565b602080825260149082015273151bdad95b88105b1c9958591e48135a5b9d195960621b604082015260600190565b602080825260039082015262544d5360e81b604082015260600190565b60208082526002908201526127a360f11b604082015260600190565b6020808252600290820152614e4560f01b604082015260600190565b602080825260049082015263534d424960e01b604082015260600190565b60006101a08201905062003c858284516200362a565b6020830151604083015260408301516060830152606083015162003cad6080840182620035ef565b50608083015162003cc260a0840182620035ef565b5060a083015160c08381019190915283015160e08084019190915283015161010080840191909152830151610120808401919091528301516101408084019190915283015161016080840191909152909201516101809091015290565b90815260200190565b9182526001600160a01b0316602082015260400190565b9384526001600160a01b03928316602085015291166040830152606082015260800190565b8881526001600160a01b03888116602083015287811660408301526101006060830181905260009162003d9a8483018a620035fc565b9150838203608085015262003db08289620035fc565b60a085019790975260c08401959095525050911660e09091015295945050505050565b60405181810167ffffffffffffffff8111828210171562003df057fe5b604052919050565b600067ffffffffffffffff82111562003e0d57fe5b50601f01601f191660200190565b60005b8381101562003e3857818101518382015260200162003e1e565b8381111562000f355750506000910152565b6001600160a01b038116811462003e6057600080fd5b50565b801515811462003e6057600080fd5b6001600160e01b03198116811462003e6057600080fdfe60806040523480156200001157600080fd5b506040516200115038038062001150833981016040819052620000349162000222565b600280546001600160a01b03191633179055600084905584516200006090600790602088019062000157565b50600180546001600160a01b0319166001600160a01b0385161790556008805460ff191660ff8416179055600554620000a690826200011f602090811b6200098e17901c565b6005556001600160a01b038316600090815260036020908152604090912054620000db9183906200098e6200011f821b17901c565b6001600160a01b0393841660009081526003602090815260408083209390935560048152828220600254909616825294909452909220919091555062000352915050565b600082820183811015620001505760405162461bcd60e51b815260040162000147906200031b565b60405180910390fd5b9392505050565b828054600181600116156101000203166002900490600052602060002090601f016020900481019282601f106200019a57805160ff1916838001178555620001ca565b82800160010185558215620001ca579182015b82811115620001ca578251825591602001919060010190620001ad565b50620001d8929150620001dc565b5090565b5b80821115620001d85760008155600101620001dd565b80516001600160a01b03811681146200020b57600080fd5b919050565b805160ff811681146200020b57600080fd5b600080600080600060a086880312156200023a578081fd5b85516001600160401b038082111562000251578283fd5b818801915088601f83011262000265578283fd5b8151818111156200027257fe5b6040516020601f8301601f19168201810184811183821017156200029257fe5b60405282825284830181018c1015620002a9578586fd5b8593505b82841015620002cc5784840181015182850182015292830192620002ad565b82841115620002dd57858184840101525b8a01519098509650620002f8925050604088019050620001f3565b9250620003086060870162000210565b9150608086015190509295509295909350565b6020808252601b908201527f536166654d6174683a206164646974696f6e206f766572666c6f770000000000604082015260600190565b610dee80620003626000396000f3fe608060405234801561001057600080fd5b50600436106100ea5760003560e01c806370a082311161008c578063a71b642611610066578063a71b6426146101c2578063a9059cbb146101ca578063dd62ed3e146101dd578063f9b7958a146101f0576100ea565b806370a082311461019457806379c65068146101a757806395d89b41146101ba576100ea565b80631d143848116100c85780631d1438481461014257806323b872dd14610157578063313ce5671461016a5780636c6f31f21461017f576100ea565b806306fdde03146100ef578063095ea7b31461010d57806318160ddd1461012d575b600080fd5b6100f7610217565b6040516101049190610b39565b60405180910390f35b61012061011b366004610a84565b6102ad565b6040516101049190610b2e565b61013561039e565b6040516101049190610ce8565b61014a6103a4565b6040516101049190610b1a565b610120610165366004610a49565b6103b3565b6101726105da565b6040516101049190610d5c565b61019261018d366004610a84565b6105e3565b005b6101356101a23660046109fd565b6106c0565b6101926101b5366004610a84565b6106df565b6100f76107a3565b610135610804565b6101206101d8366004610a84565b61080a565b6101356101eb366004610a17565b61090e565b6102036101fe366004610aad565b610939565b604051610104989796959493929190610cf1565b60068054604080516020601f60026000196101006001881615020190951694909404938401819004810282018101909252828152606093909290918301828280156102a35780601f10610278576101008083540402835291602001916102a3565b820191906000526020600020905b81548152906001019060200180831161028657829003601f168201915b5050505050905090565b600033806102d65760405162461bcd60e51b81526004016102cd90610c4d565b60405180910390fd5b6001600160a01b0384166102fc5760405162461bcd60e51b81526004016102cd90610b8f565b6001600160a01b0380821660009081526004602090815260408083209388168352929052205461032c908461098e565b6001600160a01b038083166000818152600460209081526040808320948a1680845294909152908190209390935591519091907f8c5be1e5ebec7d5bd14f71427d1e84f3dd0314c0f7b2291e5b200ac8c7c3b9259061038c908790610ce8565b60405180910390a35060019392505050565b60055490565b6001546001600160a01b031690565b60006001600160a01b0384166103db5760405162461bcd60e51b81526004016102cd90610c08565b6001600160a01b0383166104015760405162461bcd60e51b81526004016102cd90610b4c565b61043e82604051806060016040528060268152602001610d6b602691396001600160a01b03871660009081526003602052604090205491906109ba565b6001600160a01b03808616600090815260036020526040808220939093559085168152205461046d908361098e565b6001600160a01b0380851660008181526003602052604090819020939093559151908616907fddf252ad1be2c89b69c2b068fc378daa952ba7f163c4a11628f55a4df523b3ef906104bf908690610ce8565b60405180910390a360025484906001600160a01b039081169082166104f65760405162461bcd60e51b81526004016102cd90610c4d565b6001600160a01b03811661051c5760405162461bcd60e51b81526004016102cd90610b8f565b61056684604051806060016040528060288152602001610d91602891396001600160a01b03808a1660009081526004602090815260408083209388168352929052205491906109ba565b6001600160a01b03808416600081815260046020908152604080832094871680845294909152908190209390935591519091907f8c5be1e5ebec7d5bd14f71427d1e84f3dd0314c0f7b2291e5b200ac8c7c3b925906105c6908890610ce8565b60405180910390a350600195945050505050565b60085460ff1690565b6002546001600160a01b0316331461060d5760405162461bcd60e51b81526004016102cd90610c91565b6002546001600160a01b0390811690831661063a5760405162461bcd60e51b81526004016102cd90610c4d565b6001600160a01b0381166106605760405162461bcd60e51b81526004016102cd90610b8f565b6001600160a01b03808416600090815260046020908152604080832093851683529290522054610690908361098e565b6001600160a01b039384166000908152600460209081526040808320949096168252929092529290209190915550565b6001600160a01b0381166000908152600360205260409020545b919050565b6002546001600160a01b031633146107095760405162461bcd60e51b81526004016102cd90610c91565b6001600160a01b03821661072f5760405162461bcd60e51b81526004016102cd90610cb1565b60055461073c908261098e565b6005556001600160a01b038216600090815260036020526040902054610762908261098e565b6001600160a01b038084166000908152600360209081526040808320949094556002546004825284832093168083529290529190912054610690908361098e565b60078054604080516020601f60026000196101006001881615020190951694909404938401819004810282018101909252828152606093909290918301828280156102a35780601f10610278576101008083540402835291602001916102a3565b60005490565b6000338061082a5760405162461bcd60e51b81526004016102cd90610c08565b6001600160a01b0384166108505760405162461bcd60e51b81526004016102cd90610b4c565b61088d83604051806060016040528060268152602001610d6b602691396001600160a01b03841660009081526003602052604090205491906109ba565b6001600160a01b0380831660009081526003602052604080822093909355908616815220546108bc908461098e565b6001600160a01b0380861660008181526003602052604090819020939093559151908316907fddf252ad1be2c89b69c2b068fc378daa952ba7f163c4a11628f55a4df523b3ef9061038c908790610ce8565b6001600160a01b03918216600090815260046020908152604080832093909416825291909152205490565b60008060006060806000806000898930610951610217565b6109596107a3565b61096161039e565b610969610804565b6109716103a4565b975097509750975097509750975097509295985092959890939650565b6000828201838110156109b35760405162461bcd60e51b81526004016102cd90610bd1565b9392505050565b600081848411156109de5760405162461bcd60e51b81526004016102cd9190610b39565b505050900390565b80356001600160a01b03811681146106da57600080fd5b600060208284031215610a0e578081fd5b6109b3826109e6565b60008060408385031215610a29578081fd5b610a32836109e6565b9150610a40602084016109e6565b90509250929050565b600080600060608486031215610a5d578081fd5b610a66846109e6565b9250610a74602085016109e6565b9150604084013590509250925092565b60008060408385031215610a96578182fd5b610a9f836109e6565b946020939093013593505050565b60008060408385031215610abf578182fd5b82359150610a40602084016109e6565b60008151808452815b81811015610af457602081850181015186830182015201610ad8565b81811115610b055782602083870101525b50601f01601f19169290920160200192915050565b6001600160a01b0391909116815260200190565b901515815260200190565b6000602082526109b36020830184610acf565b60208082526023908201527f45524332303a207472616e7366657220746f20746865207a65726f206164647260408201526265737360e81b606082015260800190565b60208082526022908201527f45524332303a20617070726f766520746f20746865207a65726f206164647265604082015261737360f01b606082015260800190565b6020808252601b908201527f536166654d6174683a206164646974696f6e206f766572666c6f770000000000604082015260600190565b60208082526025908201527f45524332303a207472616e736665722066726f6d20746865207a65726f206164604082015264647265737360d81b606082015260800190565b60208082526024908201527f45524332303a20617070726f76652066726f6d20746865207a65726f206164646040820152637265737360e01b606082015260800190565b60208082526006908201526526a120a6ab1960d11b604082015260600190565b6020808252601f908201527f45524332303a206d696e7420746f20746865207a65726f206164647265737300604082015260600190565b90815260200190565b8881526001600160a01b038881166020830152878116604083015261010060608301819052600091610d258483018a610acf565b91508382036080850152610d398289610acf565b60a085019790975260c08401959095525050911660e09091015295945050505050565b60ff9190911681526020019056fe45524332303a207472616e7366657220616d6f756e7420657863656564732062616c616e636545524332303a207472616e7366657220616d6f756e74206578636565647320616c6c6f77616e6365a26469706673582212201346f7ef011a6a01ea254859ddef3f3c7a250978d9adafbc2d99700092c80e6864736f6c634300070300334552433732313a207472616e7366657220746f206e6f6e20455243373231526563656976657220696d706c656d656e746572a2646970667358221220cbeb10323faa7fc4d709dda96a93ef2b08135fe40d8b350da7b21f21a8053aaf64736f6c6343000703003360806040523480156200001157600080fd5b506040516200115038038062001150833981016040819052620000349162000222565b600280546001600160a01b03191633179055600084905584516200006090600790602088019062000157565b50600180546001600160a01b0319166001600160a01b0385161790556008805460ff191660ff8416179055600554620000a690826200011f602090811b6200098e17901c565b6005556001600160a01b038316600090815260036020908152604090912054620000db9183906200098e6200011f821b17901c565b6001600160a01b0393841660009081526003602090815260408083209390935560048152828220600254909616825294909452909220919091555062000352915050565b600082820183811015620001505760405162461bcd60e51b815260040162000147906200031b565b60405180910390fd5b9392505050565b828054600181600116156101000203166002900490600052602060002090601f016020900481019282601f106200019a57805160ff1916838001178555620001ca565b82800160010185558215620001ca579182015b82811115620001ca578251825591602001919060010190620001ad565b50620001d8929150620001dc565b5090565b5b80821115620001d85760008155600101620001dd565b80516001600160a01b03811681146200020b57600080fd5b919050565b805160ff811681146200020b57600080fd5b600080600080600060a086880312156200023a578081fd5b85516001600160401b038082111562000251578283fd5b818801915088601f83011262000265578283fd5b8151818111156200027257fe5b6040516020601f8301601f19168201810184811183821017156200029257fe5b60405282825284830181018c1015620002a9578586fd5b8593505b82841015620002cc5784840181015182850182015292830192620002ad565b82841115620002dd57858184840101525b8a01519098509650620002f8925050604088019050620001f3565b9250620003086060870162000210565b9150608086015190509295509295909350565b6020808252601b908201527f536166654d6174683a206164646974696f6e206f766572666c6f770000000000604082015260600190565b610dee80620003626000396000f3fe608060405234801561001057600080fd5b50600436106100ea5760003560e01c806370a082311161008c578063a71b642611610066578063a71b6426146101c2578063a9059cbb146101ca578063dd62ed3e146101dd578063f9b7958a146101f0576100ea565b806370a082311461019457806379c65068146101a757806395d89b41146101ba576100ea565b80631d143848116100c85780631d1438481461014257806323b872dd14610157578063313ce5671461016a5780636c6f31f21461017f576100ea565b806306fdde03146100ef578063095ea7b31461010d57806318160ddd1461012d575b600080fd5b6100f7610217565b6040516101049190610b39565b60405180910390f35b61012061011b366004610a84565b6102ad565b6040516101049190610b2e565b61013561039e565b6040516101049190610ce8565b61014a6103a4565b6040516101049190610b1a565b610120610165366004610a49565b6103b3565b6101726105da565b6040516101049190610d5c565b61019261018d366004610a84565b6105e3565b005b6101356101a23660046109fd565b6106c0565b6101926101b5366004610a84565b6106df565b6100f76107a3565b610135610804565b6101206101d8366004610a84565b61080a565b6101356101eb366004610a17565b61090e565b6102036101fe366004610aad565b610939565b604051610104989796959493929190610cf1565b60068054604080516020601f60026000196101006001881615020190951694909404938401819004810282018101909252828152606093909290918301828280156102a35780601f10610278576101008083540402835291602001916102a3565b820191906000526020600020905b81548152906001019060200180831161028657829003601f168201915b5050505050905090565b600033806102d65760405162461bcd60e51b81526004016102cd90610c4d565b60405180910390fd5b6001600160a01b0384166102fc5760405162461bcd60e51b81526004016102cd90610b8f565b6001600160a01b0380821660009081526004602090815260408083209388168352929052205461032c908461098e565b6001600160a01b038083166000818152600460209081526040808320948a1680845294909152908190209390935591519091907f8c5be1e5ebec7d5bd14f71427d1e84f3dd0314c0f7b2291e5b200ac8c7c3b9259061038c908790610ce8565b60405180910390a35060019392505050565b60055490565b6001546001600160a01b031690565b60006001600160a01b0384166103db5760405162461bcd60e51b81526004016102cd90610c08565b6001600160a01b0383166104015760405162461bcd60e51b81526004016102cd90610b4c565b61043e82604051806060016040528060268152602001610d6b602691396001600160a01b03871660009081526003602052604090205491906109ba565b6001600160a01b03808616600090815260036020526040808220939093559085168152205461046d908361098e565b6001600160a01b0380851660008181526003602052604090819020939093559151908616907fddf252ad1be2c89b69c2b068fc378daa952ba7f163c4a11628f55a4df523b3ef906104bf908690610ce8565b60405180910390a360025484906001600160a01b039081169082166104f65760405162461bcd60e51b81526004016102cd90610c4d565b6001600160a01b03811661051c5760405162461bcd60e51b81526004016102cd90610b8f565b61056684604051806060016040528060288152602001610d91602891396001600160a01b03808a1660009081526004602090815260408083209388168352929052205491906109ba565b6001600160a01b03808416600081815260046020908152604080832094871680845294909152908190209390935591519091907f8c5be1e5ebec7d5bd14f71427d1e84f3dd0314c0f7b2291e5b200ac8c7c3b925906105c6908890610ce8565b60405180910390a350600195945050505050565b60085460ff1690565b6002546001600160a01b0316331461060d5760405162461bcd60e51b81526004016102cd90610c91565b6002546001600160a01b0390811690831661063a5760405162461bcd60e51b81526004016102cd90610c4d565b6001600160a01b0381166106605760405162461bcd60e51b81526004016102cd90610b8f565b6001600160a01b03808416600090815260046020908152604080832093851683529290522054610690908361098e565b6001600160a01b039384166000908152600460209081526040808320949096168252929092529290209190915550565b6001600160a01b0381166000908152600360205260409020545b919050565b6002546001600160a01b031633146107095760405162461bcd60e51b81526004016102cd90610c91565b6001600160a01b03821661072f5760405162461bcd60e51b81526004016102cd90610cb1565b60055461073c908261098e565b6005556001600160a01b038216600090815260036020526040902054610762908261098e565b6001600160a01b038084166000908152600360209081526040808320949094556002546004825284832093168083529290529190912054610690908361098e565b60078054604080516020601f60026000196101006001881615020190951694909404938401819004810282018101909252828152606093909290918301828280156102a35780601f10610278576101008083540402835291602001916102a3565b60005490565b6000338061082a5760405162461bcd60e51b81526004016102cd90610c08565b6001600160a01b0384166108505760405162461bcd60e51b81526004016102cd90610b4c565b61088d83604051806060016040528060268152602001610d6b602691396001600160a01b03841660009081526003602052604090205491906109ba565b6001600160a01b0380831660009081526003602052604080822093909355908616815220546108bc908461098e565b6001600160a01b0380861660008181526003602052604090819020939093559151908316907fddf252ad1be2c89b69c2b068fc378daa952ba7f163c4a11628f55a4df523b3ef9061038c908790610ce8565b6001600160a01b03918216600090815260046020908152604080832093909416825291909152205490565b60008060006060806000806000898930610951610217565b6109596107a3565b61096161039e565b610969610804565b6109716103a4565b975097509750975097509750975097509295985092959890939650565b6000828201838110156109b35760405162461bcd60e51b81526004016102cd90610bd1565b9392505050565b600081848411156109de5760405162461bcd60e51b81526004016102cd9190610b39565b505050900390565b80356001600160a01b03811681146106da57600080fd5b600060208284031215610a0e578081fd5b6109b3826109e6565b60008060408385031215610a29578081fd5b610a32836109e6565b9150610a40602084016109e6565b90509250929050565b600080600060608486031215610a5d578081fd5b610a66846109e6565b9250610a74602085016109e6565b9150604084013590509250925092565b60008060408385031215610a96578182fd5b610a9f836109e6565b946020939093013593505050565b60008060408385031215610abf578182fd5b82359150610a40602084016109e6565b60008151808452815b81811015610af457602081850181015186830182015201610ad8565b81811115610b055782602083870101525b50601f01601f19169290920160200192915050565b6001600160a01b0391909116815260200190565b901515815260200190565b6000602082526109b36020830184610acf565b60208082526023908201527f45524332303a207472616e7366657220746f20746865207a65726f206164647260408201526265737360e81b606082015260800190565b60208082526022908201527f45524332303a20617070726f766520746f20746865207a65726f206164647265604082015261737360f01b606082015260800190565b6020808252601b908201527f536166654d6174683a206164646974696f6e206f766572666c6f770000000000604082015260600190565b60208082526025908201527f45524332303a207472616e736665722066726f6d20746865207a65726f206164604082015264647265737360d81b606082015260800190565b60208082526024908201527f45524332303a20617070726f76652066726f6d20746865207a65726f206164646040820152637265737360e01b606082015260800190565b60208082526006908201526526a120a6ab1960d11b604082015260600190565b6020808252601f908201527f45524332303a206d696e7420746f20746865207a65726f206164647265737300604082015260600190565b90815260200190565b8881526001600160a01b038881166020830152878116604083015261010060608301819052600091610d258483018a610acf565b91508382036080850152610d398289610acf565b60a085019790975260c08401959095525050911660e09091015295945050505050565b60ff9190911681526020019056fe45524332303a207472616e7366657220616d6f756e7420657863656564732062616c616e636545524332303a207472616e7366657220616d6f756e74206578636565647320616c6c6f77616e6365a26469706673582212201346f7ef011a6a01ea254859ddef3f3c7a250978d9adafbc2d99700092c80e6864736f6c63430007030033608060405234801561001057600080fd5b506040516103b63803806103b68339818101604052602081101561003357600080fd5b50516001600160a01b038116610076576040805162461bcd60e51b81526020600482015260036024820152622b20a760e91b604482015290519081900360640190fd5b600080546001600160a01b039092166001600160a01b0319909216919091179055610310806100a66000396000f3fe608060405234801561001057600080fd5b506004361061004c5760003560e01c80630afc7bf41461005157806320000b591461008f578063e5c66bbd146100cd578063f2aa8218146100f9575b600080fd5b61008d6004803603608081101561006757600080fd5b508035906001600160a01b03602082013581169160408101359091169060600135610166565b005b6100bb600480360360408110156100a557600080fd5b50803590602001356001600160a01b031661021e565b60408051918252519081900360200190f35b6100bb600480360360408110156100e357600080fd5b50803590602001356001600160a01b0316610246565b6101166004803603602081101561010f57600080fd5b503561026e565b60408051602080825283518183015283519192839290830191858101910280838360005b8381101561015257818101518382015260200161013a565b505050509050019250505060405180910390f35b6000546001600160a01b031633146101ab576040805162461bcd60e51b81526020600482015260036024820152622727a160e91b604482015290519081900360640190fd5b60008481526001602081815260408084206001600160a01b03968716855282528084208054860190558784526002825280842096909516808452958152848320805490940190935594815260038252918220805494850181558252902090910180546001600160a01b0319169091179055565b60009182526002602090815260408084206001600160a01b0393909316845291905290205490565b60009182526001602090815260408084206001600160a01b0393909316845291905290205490565b6000818152600360209081526040918290208054835181840281018401909452808452606093928301828280156102ce57602002820191906000526020600020905b81546001600160a01b031681526001909101906020018083116102b0575b5050505050905091905056fea2646970667358221220a42ab35ac93d27044a4e196aeda7b8ab5b848fe23d51baf5743c0c8f7a13dfff64736f6c63430007030033",
  "linkReferences": {},
  "deployedLinkReferences": {}
}