{
	"data": {
		"bytecode": {
			"linkReferences": {
				"localhost/contracts/v2/library/ConstantsV2.sol": {
					"ConstantsV2": [
						{
							"length": 20,
							"start": 15734
						}
					]
				}
			},
			"object": "60806040523480156200001157600080fd5b50604080518082018252601081526f4e5345204172742045786368616e676560801b60208083019190915282518084019093526004835263082a4a8b60e31b9083015290620000706301ffc9a760e01b6001600160e01b036200016d16565b815162000085906006906020850190620001c8565b5080516200009b906007906020840190620001c8565b50620000b76380ac58cd60e01b6001600160e01b036200016d16565b620000d2635b5e139f60e01b6001600160e01b036200016d16565b620000ed63780e9d6360e01b6001600160e01b036200016d16565b5050600f80546001600160a01b03191633908117909155604051600160fa1b916001916200011b906200024d565b6200012993929190620002b2565b604051809103906000f08015801562000146573d6000803e3d6000fd5b50600b80546001600160a01b0319166001600160a01b039290921691909117905562000316565b6001600160e01b03198082161415620001a35760405162461bcd60e51b81526004016200019a906200027b565b60405180910390fd5b6001600160e01b0319166000908152602081905260409020805460ff19166001179055565b828054600181600116156101000203166002900490600052602060002090601f016020900481019282601f106200020b57805160ff19168380011785556200023b565b828001600101855582156200023b579182015b828111156200023b5782518255916020019190600101906200021e565b50620002499291506200025b565b5090565b611123806200626e83390190565b6200027891905b8082111562000249576000815560010162000262565b90565b6020808252601c908201527f4552433136353a20696e76616c696420696e7465726661636520696400000000604082015260600190565b60a0808252600c908201526b2a32ba3432b9102a37b5b2b760a11b60c082015260e0602082018190526006908201526515d05313115560d21b610100820152604081019390935260608301919091526001600160a01b031660808201526101200190565b615f4880620003266000396000f3fe60806040523480156200001157600080fd5b5060043610620001b45760003560e01c80635778472a11620000f357806395d89b4111620000a5578063c87b56dd116200007b578063c87b56dd14620003e4578063cf9cd8f814620003fb578063e985e9c51462000412578063e9cf64e6146200042957620001b4565b806395d89b4114620003ac578063a22cb46514620003b6578063b88d4fde14620003cd57620001b4565b80635778472a14620003205780636352211e14620003465780636c0360eb146200035d57806370a0823114620003675780637b8bb0b7146200037e57806384b9a6e6146200039557620001b4565b806323b872dd116200016b5780633ae64e0c11620001415780633ae64e0c14620002b557806342842e0e14620002db5780634bbef4ba14620002f25780634f6ccce7146200030957620001b4565b806323b872dd14620002705780632f745c5914620002875780633563922f146200029e57620001b4565b806301ffc9a714620001b957806302a1c41d14620001e857806306fdde03146200020e578063081812fc1462000227578063095ea7b3146200024d57806318160ddd1462000266575b600080fd5b620001d0620001ca36600462004087565b62000440565b604051620001df919062004424565b60405180910390f35b620001ff620001f936600462004174565b62000463565b604051620001df919062004c49565b6200021862000503565b604051620001df919062004483565b6200023e620002383660046200406e565b6200059d565b604051620001df919062004304565b620002646200025e36600462004021565b620005ee565b005b620001ff62000696565b620002646200028136600462003e53565b620006a9565b620001ff6200029836600462004021565b620006ea565b62000264620002af36600462004021565b6200071b565b620002cc620002c63660046200406e565b62000841565b604051620001df919062004bac565b62000264620002ec36600462003e53565b62000965565b620002646200030336600462004120565b62000982565b620001ff6200031a3660046200406e565b62000bc6565b62000337620003313660046200406e565b62000be4565b604051620001df919062004acd565b6200023e620003573660046200406e565b62000d16565b6200021862000d47565b620001ff6200037836600462003df7565b62000dab565b620002646200038f3660046200415c565b62000df9565b62000264620003a63660046200419b565b62001323565b6200021862001437565b62000264620003c736600462003f49565b6200149b565b62000264620003de36600462003e98565b62001574565b62000218620003f53660046200406e565b620015bc565b620001ff6200040c36600462003df7565b62001719565b620001d06200042336600462003e16565b620017a2565b620002646200043a36600462004174565b620017d0565b6001600160e01b0319811660009081526020819052604090205460ff165b919050565b6000828152600a6020526040808220549051636eb1769f60e11b81526001600160a01b0390911690819063dd62ed3e90620004a5908690309060040162004318565b60206040518083038186803b158015620004be57600080fd5b505afa158015620004d3573d6000803e3d6000fd5b505050506040513d601f19601f82011682018060405250810190620004f9919062004107565b9150505b92915050565b60068054604080516020601f6002600019610100600188161502019095169490940493840181900481028201810190925282815260609390929091830182828015620005935780601f10620005675761010080835404028352916020019162000593565b820191906000526020600020905b8154815290600101906020018083116200057557829003601f168201915b5050505050905090565b6000620005aa8262001981565b620005d25760405162461bcd60e51b8152600401620005c99062004871565b60405180910390fd5b506000908152600460205260409020546001600160a01b031690565b6000620005fb8262000d16565b9050806001600160a01b0316836001600160a01b03161415620006325760405162461bcd60e51b8152600401620005c99062004972565b806001600160a01b03166200064662001996565b6001600160a01b0316148062000666575062000666816200042362001996565b620006855760405162461bcd60e51b8152600401620005c990620046d6565b6200069183836200199a565b505050565b6000620006a4600262001a0a565b905090565b620006be620006b762001996565b8262001a17565b620006dd5760405162461bcd60e51b8152600401620005c990620049d1565b6200069183838362001aa1565b6001600160a01b038216600090815260016020526040812062000714908363ffffffff62001bd316565b9392505050565b600f546001600160a01b03163314620007485760405162461bcd60e51b8152600401620005c990620049b3565b600b546040516323b872dd60e01b81526001600160a01b03909116906323b872dd906200077e9033908690869060040162004332565b602060405180830381600087803b1580156200079957600080fd5b505af1158015620007ae573d6000803e3d6000fd5b505050506040513d601f19601f82011682018060405250810190620007d491906200404f565b50600b5460405163363798f960e11b81526001600160a01b0390911690636c6f31f29062000809908590859060040162004395565b600060405180830381600087803b1580156200082457600080fd5b505af115801562000839573d6000803e3d6000fd5b505050505050565b6200084b62003c63565b6000620008588362000d16565b6000848152600a602052604080822054815163565974d360e01b815291519394506001600160a01b0316926060918291849182918291889163565974d3916004808201928692909190829003018186803b158015620008b657600080fd5b505afa158015620008cb573d6000803e3d6000fd5b505050506040513d6000823e601f3d908101601f19168201604052620008f5919081019062003f7b565b9550955095509550955095506040518061010001604052808b8152602001896001600160a01b03168152602001876001600160a01b03168152602001868152602001858152602001848152602001838152602001826001600160a01b031681525098505050505050505050919050565b620006918383836040518060200160405280600081525062001574565b606062000993602083018362004c52565b8080601f01602080910402602001604051908101604052809392919081815260200183838082843760009201919091525092935060609250620009dd915050604084018462004c52565b8080601f016020809104026020016040519081016040528093929190818152602001838380828437600092019190915250508451929350505062000a355760405162461bcd60e51b8152600401620005c99062004498565b600081511162000a595760405162461bcd60e51b8152600401620005c99062004580565b823562000a7a5760405162461bcd60e51b8152600401620005c99062004a77565b600083606001351162000aa15760405162461bcd60e51b8152600401620005c99062004a94565b600062000ab560c0850160a0860162003df7565b6001600160a01b0316141562000adf5760405162461bcd60e51b8152600401620005c990620048bd565b600f546001600160a01b0316331462000b0c5760405162461bcd60e51b8152600401620005c990620046b9565b62000b1933843562001be1565b600062000b2a602085018562004c52565b62000b39604087018762004c52565b6060880135608089013562000b5560c08b0160a08c0162003df7565b60405162000b639062003cc3565b62000b7597969594939291906200442f565b604051809103906000f08015801562000b92573d6000803e3d6000fd5b5093356000908152600a6020526040902080546001600160a01b0319166001600160a01b0390951694909417909355505050565b60008062000bdc60028463ffffffff62001c0116565b509392505050565b62000bee62003cd1565b6000828152600c602090815260409182902082516101e0810190935280546101a084019081526001808301546101c08601529084526002820154919284019160ff169081111562000c3b57fe5b600181111562000c4757fe5b81526020016002820160019054906101000a900460ff16600481111562000c6a57fe5b600481111562000c7657fe5b815260028201546001600160a01b03620100009091048116602083015260038084015490911660408301526004830154606083015260058301546080830152600683015460a0830152600783015460c0830152600883015460e09092019160ff169081111562000ce257fe5b600381111562000cee57fe5b815260098201546020820152600a8201546040820152600b9091015460609091015292915050565b6000620004fd8260405180606001604052806029815260200162005eea602991396002919063ffffffff62001c2116565b60098054604080516020601f6002600019610100600188161502019095169490940493840181900481028201810190925282815260609390929091830182828015620005935780601f10620005675761010080835404028352916020019162000593565b60006001600160a01b03821662000dd65760405162461bcd60e51b8152600401620005c99062004733565b6001600160a01b0382166000908152600160205260409020620004fd9062001a0a565b600081608001351162000e205760405162461bcd60e51b8152600401620005c9906200469b565b600081604001351162000e475760405162461bcd60e51b8152600401620005c9906200479c565b600081606001351162000e6e5760405162461bcd60e51b8152600401620005c99062004a59565b6000808062000e816020850185620040e6565b600181111562000e8d57fe5b141562000fc7575060009050338162000eb56040850135606086013563ffffffff62001c3816565b600b54604051636eb1769f60e11b81529192506000916001600160a01b039091169063dd62ed3e9062000eef908690309060040162004318565b60206040518083038186803b15801562000f0857600080fd5b505afa15801562000f1d573d6000803e3d6000fd5b505050506040513d601f19601f8201168201806040525081019062000f43919062004107565b905081811062000fa55762000f5b8383600062001c78565b6001600160a01b03831660009081526010602052604090205462000f86908363ffffffff62001e0f16565b6001600160a01b03841660009081526010602052604090205562000fbf565b60405162461bcd60e51b8152600401620005c99062004ab1565b5050620010b7565b600162000fd86020850185620040e6565b600181111562000fe457fe5b1415620010b757505060808101356000908152600a6020526040808220549051636eb1769f60e11b81523392916001600160a01b0316908290829063dd62ed3e9062001037908790309060040162004318565b60206040518083038186803b1580156200105057600080fd5b505afa15801562001065573d6000803e3d6000fd5b505050506040513d601f19601f820116820180604052508101906200108b919062004107565b90508460400135811015620010b45760405162461bcd60e51b8152600401620005c9906200477d565b50505b620010c162003d5f565b506040805180820190915260c08401358152426020820152620010e362003cd1565b604080516101a081019091528281526020808201906200110690880188620040e6565b60018111156200111257fe5b81526020018660200160208101906200112c9190620040c5565b60048111156200113857fe5b8152602001856001600160a01b03168152602001846001600160a01b0316815260200186608001358152602001866040013581526020018660400135815260200186606001358152602001600060038111156200119157fe5b81526020014281526020014281526020018660a00135815250905080600c60008760c0013581526020019081526020016000206000820151816000016000820151816000015560208201518160010155505060208201518160020160006101000a81548160ff021916908360018111156200120857fe5b0217905550604082015160028201805461ff0019166101008360048111156200122d57fe5b0217905550606082015160028201805462010000600160b01b031916620100006001600160a01b03938416021790556080830151600380840180546001600160a01b031916929093169190911790915560a0830151600483015560c0830151600583015560e0830151600683015561010083015160078301556101208301516008830180549192909160ff1916906001908490811115620012ca57fe5b0217905550610140820151816009015561016082015181600a015561018082015181600b015590505062001311816000015182602001518360800151846060015162001e37565b6200131c81620020b5565b5050505050565b6000838152600a6020526040908190205490516323b872dd60e01b81526001600160a01b03909116906323b872dd90620013669033908690869060040162004332565b602060405180830381600087803b1580156200138157600080fd5b505af115801562001396573d6000803e3d6000fd5b505050506040513d601f19601f82011682018060405250810190620013bc91906200404f565b506000838152600a60205260409081902054905163363798f960e11b81526001600160a01b0390911690636c6f31f290620013fe908590859060040162004395565b600060405180830381600087803b1580156200141957600080fd5b505af11580156200142e573d6000803e3d6000fd5b50505050505050565b60078054604080516020601f6002600019610100600188161502019095169490940493840181900481028201810190925282815260609390929091830182828015620005935780601f10620005675761010080835404028352916020019162000593565b620014a562001996565b6001600160a01b0316826001600160a01b03161415620014d95760405162461bcd60e51b8152600401620005c99062004618565b8060056000620014e862001996565b6001600160a01b03908116825260208083019390935260409182016000908120918716808252919093529120805460ff1916921515929092179091556200152e62001996565b6001600160a01b03167f17307eab39ab6107e8899845ad3d59bd9653f200f220920489ca2b5937696c318360405162001568919062004424565b60405180910390a35050565b620015896200158262001996565b8362001a17565b620015a85760405162461bcd60e51b8152600401620005c990620049d1565b620015b68484848462002897565b50505050565b6060620015c98262001981565b620015e85760405162461bcd60e51b8152600401620005c99062004923565b60008281526008602090815260409182902080548351601f6002600019610100600186161502019093169290920491820184900484028101840190945280845260609392830182828015620016815780601f10620016555761010080835404028352916020019162001681565b820191906000526020600020905b8154815290600101906020018083116200166357829003601f168201915b505060095493945050505060026000196101006001841615020190911604620016ac5790506200045e565b805115620016e257600981604051602001620016ca9291906200427b565b6040516020818303038152906040529150506200045e565b6009620016ef84620028d1565b604051602001620017029291906200427b565b604051602081830303815290604052915050919050565b600b54604051636eb1769f60e11b81526000916001600160a01b03169063dd62ed3e906200174e908590309060040162004318565b60206040518083038186803b1580156200176757600080fd5b505afa1580156200177c573d6000803e3d6000fd5b505050506040513d601f19601f82011682018060405250810190620004fd919062004107565b6001600160a01b03918216600090815260056020908152604080832093909416825291909152205460ff1690565b6000828152600a6020526040808220549051636eb1769f60e11b81526001600160a01b039091169063dd62ed3e9062001810903390309060040162004318565b60206040518083038186803b1580156200182957600080fd5b505afa1580156200183e573d6000803e3d6000fd5b505050506040513d601f19601f8201168201806040525081019062001864919062004107565b6000848152600a6020526040908190205490516323b872dd60e01b81529192506001600160a01b0316906323b872dd90620018a89033908690869060040162004332565b602060405180830381600087803b158015620018c357600080fd5b505af1158015620018d8573d6000803e3d6000fd5b505050506040513d601f19601f82011682018060405250810190620018fe91906200404f565b506000838152600a60205260409081902054905163363798f960e11b81526001600160a01b0390911690636c6f31f29062001940908590859060040162004395565b600060405180830381600087803b1580156200195b57600080fd5b505af115801562001970573d6000803e3d6000fd5b505050506200069133838562000965565b6000620004fd60028363ffffffff620029b516565b3390565b600081815260046020526040902080546001600160a01b0319166001600160a01b0384169081179091558190620019d18262000d16565b6001600160a01b03167f8c5be1e5ebec7d5bd14f71427d1e84f3dd0314c0f7b2291e5b200ac8c7c3b92560405160405180910390a45050565b6000620004fd82620029c3565b600062001a248262001981565b62001a435760405162461bcd60e51b8152600401620005c9906200464f565b600062001a508362000d16565b9050806001600160a01b0316846001600160a01b0316148062001a8e5750836001600160a01b031662001a83846200059d565b6001600160a01b0316145b80620004f95750620004f98185620017a2565b826001600160a01b031662001ab68262000d16565b6001600160a01b03161462001adf5760405162461bcd60e51b8152600401620005c990620048da565b6001600160a01b03821662001b085760405162461bcd60e51b8152600401620005c990620045d4565b62001b1583838362000691565b62001b226000826200199a565b6001600160a01b038316600090815260016020526040902062001b4c908263ffffffff620029c716565b506001600160a01b038216600090815260016020526040902062001b77908263ffffffff620029d516565b5062001b8c6002828463ffffffff620029e316565b5080826001600160a01b0316846001600160a01b03167fddf252ad1be2c89b69c2b068fc378daa952ba7f163c4a11628f55a4df523b3ef60405160405180910390a4505050565b6000620007148383620029fb565b62001bfd82826040518060200160405280600081525062002a44565b5050565b600080808062001c12868662002a7e565b909450925050505b9250929050565b600062001c3084848462002ade565b949350505050565b60008262001c4957506000620004fd565b8282028284828162001c5757fe5b0414620007145760405162461bcd60e51b8152600401620005c99062004830565b801562001d7e57600b54600f546040516323b872dd60e01b81526001600160a01b03928316926323b872dd9262001cb9929116908790879060040162004332565b602060405180830381600087803b15801562001cd457600080fd5b505af115801562001ce9573d6000803e3d6000fd5b505050506040513d601f19601f8201168201806040525081019062001d0f91906200404f565b50600b5460405163363798f960e11b81526001600160a01b0390911690636c6f31f29062001d44908690869060040162004395565b600060405180830381600087803b15801562001d5f57600080fd5b505af115801562001d74573d6000803e3d6000fd5b5050505062000691565b600b54600f546040516323b872dd60e01b81526001600160a01b03928316926323b872dd9262001db992889290911690879060040162004332565b602060405180830381600087803b15801562001dd457600080fd5b505af115801562001de9573d6000803e3d6000fd5b505050506040513d601f19601f82011682018060405250810190620015b691906200404f565b600082820183811015620007145760405162461bcd60e51b8152600401620005c9906200459d565b60408051808201909152600e81526d50454e44494e475f4f524445525360901b602091820152600d815260008051602062005e788339815191528054600181018255600091825286517f034b52baf7691f83d40dfbe47e7633aab79f1d5ff22e1d7eb52db0f053a4386d600290920291820155918601517f034b52baf7691f83d40dfbe47e7633aab79f1d5ff22e1d7eb52db0f053a4386e9092019190915583600181111562001ee357fe5b141562001fcf57604080518082018252600a8152694255595f4f524445525360b01b602091820152600d81527ff34c455ecb5de31f82d36825bad0aeb58d036a39fd40a24fec0ec35de170b3558054600181810183556000928352885160029283027f7825a2e82dba6400485829f8f9949481adf4dd15bacab3d9360b5903cb060a0981019190915589850180517f7825a2e82dba6400485829f8f9949481adf4dd15bacab3d9360b5903cb060a0a909201919091556001600160a01b0388168452600e85529483208054808301825590845293909220885193909102019182559151910155620015b6565b604080518082018252600b81526a53454c4c5f4f524445525360a81b602091820152600d81527f48c1c91527eb21aa80d2b076de8e4ab8fb1bcbd06905b9762cb5ba913a9d61c08054600181810183556000928352885160029283027fa62a6c2ca9635ef0f603da97b3e7e3b717763e8236a23ee14977899e7f4ea81581019190915589850180517fa62a6c2ca9635ef0f603da97b3e7e3b717763e8236a23ee14977899e7f4ea816909201919091556001600160a01b0387168452600e8552948320805480830182559084529390922088519390910201918255915191015550505050565b6000620020c162003cd1565b5060408051808201909152600e81526d50454e44494e475f4f524445525360901b60209182015260008051602062005eca833981519152600052600d905260008051602062005e788339815191525482906001811415620021255750505062002894565b60006200213a82600163ffffffff62002b4116565b905060006103e883116200215057600062002154565b6103e85b90505b80821015801562002166575084155b1562000839576200217662003cd1565b60408051808201909152600e81526d50454e44494e475f4f524445525360901b60209182015260008051602062005eca8339815191526000908152600d90915260008051602062005e788339815191528054600c92919086908110620021d857fe5b6000918252602080832060029283020154845283810194909452604092830190912082516101e0810190935280546101a084019081526001808301546101c086015290845291810154929390929084019160ff909116908111156200223957fe5b60018111156200224557fe5b81526020016002820160019054906101000a900460ff1660048111156200226857fe5b60048111156200227457fe5b815260028201546001600160a01b03620100009091048116602083015260038084015490911660408301526004830154606083015260058301546080830152600683015460a0830152600783015460c0830152600883015460e09092019160ff1690811115620022e057fe5b6003811115620022ec57fe5b815260200160098201548152602001600a8201548152602001600b82015481525050905060008160a001518660a001511490506000866020015160018111156200233257fe5b836020015160018111156200234357fe5b6060850151911491506000906001600160a01b03161580159062002373575060808801516001600160a01b031615155b156200239e5787608001516001600160a01b031684606001516001600160a01b0316149050620023ed565b60808401516001600160a01b031615801590620023c7575060608801516001600160a01b031615155b15620023ed5787606001516001600160a01b031684608001516001600160a01b03161490505b60008380156200240e5750600085610120015160038111156200240c57fe5b145b801562002419575082155b801562002424575081155b9050801562002863576200243762003cd1565b6200244162003cd1565b6200244b62003d76565b60008c6020015160018111156200245e57fe5b1415620025cb578b925087915062002477838362002b85565b905080600001519c50600c60008460000151600001518152602001908152602001600020604051806101a0016040529081600082016040518060400160405290816000820154815260200160018201548152505081526020016002820160009054906101000a900460ff166001811115620024ee57fe5b6001811115620024fa57fe5b81526020016002820160019054906101000a900460ff1660048111156200251d57fe5b60048111156200252957fe5b815260028201546001600160a01b03620100009091048116602083015260038084015490911660408301526004830154606083015260058301546080830152600683015460a0830152600783015460c0830152600883015460e09092019160ff16908111156200259557fe5b6003811115620025a157fe5b815260200160098201548152602001600a8201548152602001600b820154815250509b5062002746565b60018c602001516001811115620025de57fe5b141562002746578b9150879250620025f7838362002b85565b905080600001519c50600c60008360000151600001518152602001908152602001600020604051806101a0016040529081600082016040518060400160405290816000820154815260200160018201548152505081526020016002820160009054906101000a900460ff1660018111156200266e57fe5b60018111156200267a57fe5b81526020016002820160019054906101000a900460ff1660048111156200269d57fe5b6004811115620026a957fe5b815260028201546001600160a01b03620100009091048116602083015260038084015490911660408301526004830154606083015260058301546080830152600683015460a0830152600783015460c0830152600883015460e09092019160ff16908111156200271557fe5b60038111156200272157fe5b815260200160098201548152602001600a8201548152602001600b820154815250509b505b600183610120015160038111156200275a57fe5b1480620027785750600182610120015160038111156200277657fe5b145b156200285f5760006200279e846101000151836060015162001c3890919063ffffffff16565b905080600184604001516004811115620027b457fe5b14620027d9576101008401516080840151620027d69163ffffffff62001c3816565b90505b60808501516001600160a01b031660009081526010602052604090205462002808908363ffffffff62002b4116565b6080860180516001600160a01b031660009081526010602052604090209190915551620028389083600162001c78565b6200285c85608001518660a001518660600151866060015189610100015162002fdd565b50505b5050505b866200287457505050505062000839565b6200288787600163ffffffff62002b4116565b9650505050505062002157565b50565b620028a484848462001aa1565b620028b284848484620031f8565b620015b65760405162461bcd60e51b8152600401620005c990620044f7565b606081620028f857506040805180820190915260018152600360fc1b60208201526200045e565b8160005b81156200291257600101600a82049150620028fc565b60608167ffffffffffffffff811180156200292c57600080fd5b506040519080825280601f01601f19166020018201604052801562002958576020820181803683370190505b50859350905060001982015b8315620029ac57600a840660300160f81b828280600190039350815181106200298957fe5b60200101906001600160f81b031916908160001a905350600a8404935062002964565b50949350505050565b6000620007148383620032ea565b5490565b600062000714838362003302565b6000620007148383620033d5565b600062001c3084846001600160a01b03851662003424565b8154600090821062002a215760405162461bcd60e51b8152600401620005c990620044b5565b82600001828154811062002a3157fe5b9060005260206000200154905092915050565b62002a508383620034bf565b62002a5f6000848484620031f8565b620006915760405162461bcd60e51b8152600401620005c990620044f7565b81546000908190831062002aa65760405162461bcd60e51b8152600401620005c990620047b9565b600084600001848154811062002ab857fe5b906000526020600020906002020190508060000154816001015492509250509250929050565b6000828152600184016020526040812054828162002b115760405162461bcd60e51b8152600401620005c9919062004483565b5084600001600182038154811062002b2557fe5b9060005260206000209060020201600101549150509392505050565b60006200071483836040518060400160405280601e81526020017f536166654d6174683a207375627472616374696f6e206f766572666c6f7700008152506200359d565b62002b8f62003d76565b506040805160a08101825260008082526020820181905291810182905260608101829052608081019190915260c080840151908301516101808501511580159062002bde575042856101800151105b1562002bec57600160208401525b600084610180015111801562002c06575042846101800151105b1562002c1457600160408401525b8361010001518561010001511015801562002c3f5750602083015115801562002c3f57506040830151155b1562002ccf578082141562002c615762002c5b838686620035cc565b62002cc9565b808211801562002c82575060018560400151600481111562002c7f57fe5b14155b1562002c955762002c5b83868662003604565b808210801562002cb6575060018460400151600481111562002cb357fe5b14155b1562002cc95762002cc983868662003647565b62002d76565b60048460400151600481111562002ce257fe5b14801562002cf257506040830151155b1562002d76578082141562002d0e5762002cc9838686620035cc565b808211801562002d2f575060018560400151600481111562002d2c57fe5b14155b1562002d425762002cc983868662003604565b808210801562002d63575060018460400151600481111562002d6057fe5b14155b1562002d765762002d7683868662003647565b8351516000908152600c6020908152604090912085518051825582015160018083019190915591860151600282018054889460ff1990911690838181111562002dbb57fe5b0217905550604082015160028201805461ff00191661010083600481111562002de057fe5b0217905550606082015160028201805462010000600160b01b031916620100006001600160a01b03938416021790556080830151600380840180546001600160a01b031916929093169190911790915560a0830151600483015560c0830151600583015560e0830151600683015561010083015160078301556101208301516008830180549192909160ff191690600190849081111562002e7d57fe5b02179055506101408201516009820155610160820151600a82015561018090910151600b909101558451516000908152600c6020908152604090912086518051825582015160018083019190915591870151600282018054899460ff1990911690838181111562002eea57fe5b0217905550604082015160028201805461ff00191661010083600481111562002f0f57fe5b0217905550606082015160028201805462010000600160b01b031916620100006001600160a01b03938416021790556080830151600380840180546001600160a01b031916929093169190911790915560a0830151600483015560c0830151600583015560e0830151600683015561010083015160078301556101208301516008830180549192909160ff191690600190849081111562002fac57fe5b0217905550610140820151816009015561016082015181600a015561018082015181600b0155905050505092915050565b600b546001600160a01b03166323b872dd868562003002868663ffffffff62001c3816565b6040518463ffffffff1660e01b8152600401620030229392919062004332565b602060405180830381600087803b1580156200303d57600080fd5b505af115801562003052573d6000803e3d6000fd5b505050506040513d601f19601f820116820180604052508101906200307891906200404f565b50600b546001600160a01b0316636c6f31f2846200309d858563ffffffff62001c3816565b6040518363ffffffff1660e01b8152600401620030bc92919062004395565b600060405180830381600087803b158015620030d757600080fd5b505af1158015620030ec573d6000803e3d6000fd5b5050506000858152600a6020526040908190205490516323b872dd60e01b81526001600160a01b03909116915081906323b872dd90620031359087908a90889060040162004332565b602060405180830381600087803b1580156200315057600080fd5b505af115801562003165573d6000803e3d6000fd5b505050506040513d601f19601f820116820180604052508101906200318b91906200404f565b5060405163363798f960e11b81526001600160a01b03821690636c6f31f290620031bc908990879060040162004395565b600060405180830381600087803b158015620031d757600080fd5b505af1158015620031ec573d6000803e3d6000fd5b50505050505050505050565b60006200320e846001600160a01b03166200368a565b6200321c5750600162001c30565b6060620032b1630a85bd0160e11b6200323462001996565b8887876040516024016200324c949392919062004356565b604051602081830303815290604052906001600160e01b0319166020820180516001600160e01b03838183161783525050505060405180606001604052806032815260200162005e98603291396001600160a01b038816919063ffffffff6200369016565b9050600081806020019051810190620032cb9190620040a6565b6001600160e01b031916630a85bd0160e11b1492505050949350505050565b60009081526001919091016020526040902054151590565b60008181526001830160205260408120548015620033c357835460001980830191908101906000908790839081106200333757fe5b90600052602060002001549050808760000184815481106200335557fe5b6000918252602080832090910192909255828152600189810190925260409020908401905586548790806200338657fe5b60019003818190600052602060002001600090559055866001016000878152602001908152602001600020600090556001945050505050620004fd565b6000915050620004fd565b5092915050565b6000620033e38383620032ea565b6200341b57508154600181810184556000848152602080822090930184905584548482528286019093526040902091909155620004fd565b506000620004fd565b6000828152600184016020526040812054806200348b57505060408051808201825283815260208082018481528654600181810189556000898152848120955160029093029095019182559151908201558654868452818801909252929091205562000714565b828560000160018303815481106200349f57fe5b906000526020600020906002020160010181905550600091505062000714565b6001600160a01b038216620034e85760405162461bcd60e51b8152600401620005c990620047fb565b620034f38162001981565b15620035135760405162461bcd60e51b8152600401620005c99062004549565b620035216000838362000691565b6001600160a01b03821660009081526001602052604090206200354b908263ffffffff620029d516565b50620035606002828463ffffffff620029e316565b5060405181906001600160a01b038416906000907fddf252ad1be2c89b69c2b068fc378daa952ba7f163c4a11628f55a4df523b3ef908290a45050565b60008184841115620035c45760405162461bcd60e51b8152600401620005c9919062004483565b505050900390565b60c08083018051606086015290820180516080860152600185526000908190529052620035f982620036a1565b6200069181620036a1565b60c0808201805160608601528051608086015251908301516200362d9163ffffffff62002b4116565b60c0808401919091526000908201526200069181620036a1565b60c080830180516060860152805160808601525190820151620036709163ffffffff62002b4116565b60c0808301919091526000908301526200069182620036a1565b3b151590565b606062001c3084846000856200379e565b620036ab62003d5f565b508051620036b98162003870565b5060408051808201909152600e81526d4d4154434845445f4f524445525360901b6020918201527fadaaca5c8c3f56bf72f89abb1ed95701d44c650c5e04cf89df361454308f6f756000908152600d825282517fe0a80a76b0f7474dd1c95f95aeb280da4c84e313166cf753213a3f81fd868ff38054600180820183559190935281517f9902fc2ada66d7ac10fdf04358b59edcd8609e9aadaa0654b4ff4c3a5d09166e6002909402938401559201517f9902fc2ada66d7ac10fdf04358b59edcd8609e9aadaa0654b4ff4c3a5d09166f909101556101208201524261016090910152565b6060620037ab856200368a565b620037ca5760405162461bcd60e51b8152600401620005c99062004a22565b60006060866001600160a01b03168587604051620037e991906200425d565b60006040518083038185875af1925050503d806000811462003828576040519150601f19603f3d011682016040523d82523d6000602084013e6200382d565b606091505b509150915081156200384357915062001c309050565b805115620038545780518082602001fd5b8360405162461bcd60e51b8152600401620005c9919062004483565b60408051808201909152600e81526d50454e44494e475f4f524445525360901b60209182015260008051602062005eca833981519152600052600d905260008051602062005e7883398151915254620038c95762002894565b60408051808201909152600e81526d50454e44494e475f4f524445525360901b60209182015260008051602062005eca833981519152600052600d905260008051602062005e7883398151915254600114156200399b5760408051808201909152600e81526d50454e44494e475f4f524445525360901b60209182015260008051602062005eca833981519152600052600d905260008051602062005e788339815191528054806200397757fe5b60008281526020812060026000199093019283020181815560010155905562002894565b60408051808201909152600e81526d50454e44494e475f4f524445525360901b60209182015260008051602062005eca8339815191526000908152600d90915260008051602062005e7883398151915254620039ff90600163ffffffff62002b4116565b604080518082018252600e81526d50454e44494e475f4f524445525360901b60209182015260008051602062005eca8339815191526000908152600d909152905163191ee78360e01b81529192509073__$6b1d18db58843331cb7cb9cc18cf07e672$__9063191ee7839062003a8f9060008051602062005e7883398151915290859087908990600401620043ae565b60206040518083038186803b15801562003aa857600080fd5b505af415801562003abd573d6000803e3d6000fd5b505050506040513d601f19601f8201168201806040525081019062003ae3919062004107565b9050600081126200069157805b8281101562003be85760408051808201909152600e81526d50454e44494e475f4f524445525360901b60209182015260008051602062005eca833981519152600052600d905260008051602062005e7883398151915280546001830190811062003b5657fe5b6000918252602080832060408051808201909152600e81526d50454e44494e475f4f524445525360901b9083015260008051602062005eca833981519152909352600d905260008051602062005e788339815191528054600290920290920191908390811062003bc257fe5b600091825260209091208254600290920201908155600191820154908201550162003af0565b5060408051808201909152600e81526d50454e44494e475f4f524445525360901b60209182015260008051602062005eca833981519152600052600d905260008051602062005e7883398151915280548062003c4057fe5b600082815260208120600260001990930192830201818155600101559055505050565b6040518061010001604052806000815260200160006001600160a01b0316815260200160006001600160a01b031681526020016060815260200160608152602001600081526020016000815260200160006001600160a01b031681525090565b6111238062004d5583390190565b604051806101a0016040528062003ce762003d5f565b8152602001600081526020016000815260200160006001600160a01b0316815260200160006001600160a01b03168152602001600081526020016000815260200160008152602001600081526020016000600381111562003d4457fe5b81526020016000815260200160008152602001600081525090565b604080518082019091526000808252602082015290565b6040805160a08101825260008082526020820181905291810182905260608101829052608081019190915290565b600082601f83011262003db5578081fd5b815162003dcc62003dc68262004cc4565b62004c9c565b915080825283602082850101111562003de457600080fd5b620033ce81602084016020860162004ce9565b60006020828403121562003e09578081fd5b8135620007148162004d18565b6000806040838503121562003e29578081fd5b823562003e368162004d18565b9150602083013562003e488162004d18565b809150509250929050565b60008060006060848603121562003e68578081fd5b833562003e758162004d18565b9250602084013562003e878162004d18565b929592945050506040919091013590565b6000806000806080858703121562003eae578081fd5b843562003ebb8162004d18565b9350602085013562003ecd8162004d18565b925060408501359150606085013567ffffffffffffffff81111562003ef0578182fd5b80860187601f82011262003f02578283fd5b8035915062003f1562003dc68362004cc4565b82815288602084840101111562003f2a578384fd5b8260208301602083013791820160200192909252939692955090935050565b6000806040838503121562003f5c578182fd5b823562003f698162004d18565b9150602083013562003e488162004d2e565b60008060008060008060c0878903121562003f94578182fd5b865162003fa18162004d18565b602088015190965067ffffffffffffffff8082111562003fbf578384fd5b62003fcd8a838b0162003da4565b9650604089015191508082111562003fe3578384fd5b5062003ff289828a0162003da4565b945050606087015192506080870151915060a0870151620040138162004d18565b809150509295509295509295565b6000806040838503121562004034578182fd5b8235620040418162004d18565b946020939093013593505050565b60006020828403121562004061578081fd5b8151620007148162004d2e565b60006020828403121562004080578081fd5b5035919050565b60006020828403121562004099578081fd5b8135620007148162004d3d565b600060208284031215620040b8578081fd5b8151620007148162004d3d565b600060208284031215620040d7578081fd5b81356005811062000714578182fd5b600060208284031215620040f8578081fd5b81356002811062000714578182fd5b60006020828403121562004119578081fd5b5051919050565b60006020828403121562004132578081fd5b813567ffffffffffffffff81111562004149578182fd5b80830160c0818603121562001c30578283fd5b600060e082840312156200416e578081fd5b50919050565b6000806040838503121562004187578182fd5b82359150602083013562003e488162004d18565b600080600060608486031215620041b0578081fd5b83359250602084013562003e878162004d18565b6001600160a01b03169052565b60008151808452620041eb81602086016020860162004ce9565b601f01601f19169290920160200192915050565b600481106200420a57fe5b9052565b600581106200420a57fe5b600281106200420a57fe5b60008284528282602086013780602084860101526020601f19601f85011685010190509392505050565b80518252602090810151910152565b600082516200427181846020870162004ce9565b9190910192915050565b60008084546001808216600081146200429d5760018114620042b557620042e6565b60ff198316865260028304607f1686019350620042e6565b600283048886526020808720875b83811015620042de5781548a820152908501908201620042c3565b505050860193505b5050508351620042fb81836020880162004ce9565b01949350505050565b6001600160a01b0391909116815260200190565b6001600160a01b0392831681529116602082015260400190565b6001600160a01b039384168152919092166020820152604081019190915260600190565b6001600160a01b03858116825284166020820152604081018390526080606082018190526000906200438b90830184620041d1565b9695505050505050565b6001600160a01b03929092168252602082015260400190565b600060a0820160a0835280875480835260c08501915088845260209250828420845b82811015620043fa57815484526001808301548686015260409094019360029092019101620043d0565b5050509083018690526040830185905290506200441b60608301846200424e565b95945050505050565b901515815260200190565b600060a082526200444560a08301898b62004224565b82810360208401526200445a81888a62004224565b6040840196909652505060608101929092526001600160a01b0316608090910152949350505050565b600060208252620007146020830184620041d1565b60208082526003908201526241444960e81b604082015260600190565b60208082526022908201527f456e756d657261626c655365743a20696e646578206f7574206f6620626f756e604082015261647360f01b606082015260800190565b60208082526032908201527f4552433732313a207472616e7366657220746f206e6f6e20455243373231526560408201527131b2b4bb32b91034b6b83632b6b2b73a32b960711b606082015260800190565b6020808252601c908201527f4552433732313a20746f6b656e20616c7265616479206d696e74656400000000604082015260600190565b60208082526003908201526241534960e81b604082015260600190565b6020808252601b908201527f536166654d6174683a206164646974696f6e206f766572666c6f770000000000604082015260600190565b60208082526024908201527f4552433732313a207472616e7366657220746f20746865207a65726f206164646040820152637265737360e01b606082015260800190565b60208082526019908201527f4552433732313a20617070726f766520746f2063616c6c657200000000000000604082015260600190565b6020808252602c908201527f4552433732313a206f70657261746f7220717565727920666f72206e6f6e657860408201526b34b9ba32b73a103a37b5b2b760a11b606082015260800190565b6020808252600490820152632a24a4a760e11b604082015260600190565b6020808252600390820152624f434360e81b604082015260600190565b60208082526038908201527f4552433732313a20617070726f76652063616c6c6572206973206e6f74206f7760408201527f6e6572206e6f7220617070726f76656420666f7220616c6c0000000000000000606082015260800190565b6020808252602a908201527f4552433732313a2062616c616e636520717565727920666f7220746865207a65604082015269726f206164647265737360b01b606082015260800190565b602080825260059082015264139150519560da1b604082015260600190565b60208082526003908201526220a4a760e91b604082015260600190565b60208082526022908201527f456e756d657261626c654d61703a20696e646578206f7574206f6620626f756e604082015261647360f01b606082015260800190565b6020808252818101527f4552433732313a206d696e7420746f20746865207a65726f2061646472657373604082015260600190565b60208082526021908201527f536166654d6174683a206d756c7469706c69636174696f6e206f766572666c6f6040820152607760f81b606082015260800190565b6020808252602c908201527f4552433732313a20617070726f76656420717565727920666f72206e6f6e657860408201526b34b9ba32b73a103a37b5b2b760a11b606082015260800190565b60208082526003908201526241524960e81b604082015260600190565b60208082526029908201527f4552433732313a207472616e73666572206f6620746f6b656e2074686174206960408201526839903737ba1037bbb760b91b606082015260800190565b6020808252602f908201527f4552433732314d657461646174613a2055524920717565727920666f72206e6f60408201526e3732bc34b9ba32b73a103a37b5b2b760891b606082015260800190565b60208082526021908201527f4552433732313a20617070726f76616c20746f2063757272656e74206f776e656040820152603960f91b606082015260800190565b60208082526004908201526327a1a1a360e11b604082015260600190565b60208082526031908201527f4552433732313a207472616e736665722063616c6c6572206973206e6f74206f6040820152701ddb995c881b9bdc88185c1c1c9bdd9959607a1b606082015260800190565b6020808252601d908201527f416464726573733a2063616c6c20746f206e6f6e2d636f6e7472616374000000604082015260600190565b60208082526004908201526327a824a760e11b604082015260600190565b60208082526003908201526254494960e81b604082015260600190565b60208082526003908201526254534960e81b604082015260600190565b602080825260029082015261262160f11b604082015260600190565b60006101c08201905062004ae38284516200424e565b602083015162004af7604084018262004219565b50604083015162004b0c60608401826200420e565b50606083015162004b216080840182620041c4565b50608083015162004b3660a0840182620041c4565b5060a083015160c083015260c083015160e083015260e083015161010081818501528085015191505061012081818501528085015191505061014062004b7f81850183620041ff565b8401516101608481019190915284015161018080850191909152909301516101a090920191909152919050565b60006020825282516020830152602083015162004bcd6040840182620041c4565b50604083015162004be26060840182620041c4565b50606083015161010080608085015262004c01610120850183620041d1565b6080860151858203601f190160a0870152925062004c208184620041d1565b60a087015160c087015260c087015160e087015260e087015193506200438b83870185620041c4565b90815260200190565b6000808335601e1984360301811262004c69578283fd5b8084018035925067ffffffffffffffff83111562004c85578384fd5b6020019250503681900382131562001c1a57600080fd5b60405181810167ffffffffffffffff8111828210171562004cbc57600080fd5b604052919050565b600067ffffffffffffffff82111562004cdb578081fd5b50601f01601f191660200190565b60005b8381101562004d0657818101518382015260200162004cec565b83811115620015b65750506000910152565b6001600160a01b03811681146200289457600080fd5b80151581146200289457600080fd5b6001600160e01b0319811681146200289457600080fdfe60806040523480156200001157600080fd5b506040516200112338038062001123833981016040819052620000349162000400565b8451859085906200004d906003906020850190620002b4565b50805162000063906004906020840190620002b4565b50506005805460ff1916601217905550336200008982856001600160e01b03620000cf16565b6200009f8282866001600160e01b03620001c416565b50600691909155600780546001600160a01b0319166001600160a01b03909216919091179055506200059b915050565b6001600160a01b038216620001015760405162461bcd60e51b8152600401620000f8906200055b565b60405180910390fd5b62000118600083836001600160e01b036200028016565b62000134816002546200028560201b620007881790919060201c565b6002556001600160a01b03821660009081526020818152604090912054620001679183906200078862000285821b17901c565b6001600160a01b0383166000818152602081905260408082209390935591519091907fddf252ad1be2c89b69c2b068fc378daa952ba7f163c4a11628f55a4df523b3ef90620001b890859062000592565b60405180910390a35050565b6001600160a01b038316620001ed5760405162461bcd60e51b8152600401620000f89062000517565b6001600160a01b038216620002165760405162461bcd60e51b8152600401620000f8906200049e565b6001600160a01b0380841660008181526001602090815260408083209487168084529490915290819020849055517f8c5be1e5ebec7d5bd14f71427d1e84f3dd0314c0f7b2291e5b200ac8c7c3b925906200027390859062000592565b60405180910390a3505050565b505050565b600082820183811015620002ad5760405162461bcd60e51b8152600401620000f890620004e0565b9392505050565b828054600181600116156101000203166002900490600052602060002090601f016020900481019282601f10620002f757805160ff191683800117855562000327565b8280016001018555821562000327579182015b82811115620003275782518255916020019190600101906200030a565b506200033592915062000339565b5090565b6200035691905b8082111562000335576000815560010162000340565b90565b600082601f8301126200036a578081fd5b81516001600160401b038082111562000381578283fd5b6040516020601f8401601f1916820181018381118382101715620003a3578586fd5b80604052508194508382528681858801011115620003c057600080fd5b600092505b83831015620003e45785830181015182840182015291820191620003c5565b83831115620003f65760008185840101525b5050505092915050565b600080600080600060a0868803121562000418578081fd5b85516001600160401b03808211156200042f578283fd5b6200043d89838a0162000359565b9650602088015191508082111562000453578283fd5b50620004628882890162000359565b6040880151606089015160808a0151929750909550935090506001600160a01b038116811462000490578182fd5b809150509295509295909350565b60208082526022908201527f45524332303a20617070726f766520746f20746865207a65726f206164647265604082015261737360f01b606082015260800190565b6020808252601b908201527f536166654d6174683a206164646974696f6e206f766572666c6f770000000000604082015260600190565b60208082526024908201527f45524332303a20617070726f76652066726f6d20746865207a65726f206164646040820152637265737360e01b606082015260800190565b6020808252601f908201527f45524332303a206d696e7420746f20746865207a65726f206164647265737300604082015260600190565b90815260200190565b610b7880620005ab6000396000f3fe608060405234801561001057600080fd5b50600436106100f55760003560e01c8063565974d311610097578063a457c2d711610066578063a457c2d7146101e7578063a71b6426146101fa578063a9059cbb14610202578063dd62ed3e14610215576100f5565b8063565974d31461019d5780636c6f31f2146101b757806370a08231146101cc57806395d89b41146101df576100f5565b80631d143848116100d35780631d1438481461014d57806323b872dd14610162578063313ce56714610175578063395093511461018a576100f5565b806306fdde03146100fa578063095ea7b31461011857806318160ddd14610138575b600080fd5b610102610228565b60405161010f9190610948565b60405180910390f35b61012b61012636600461085f565b6102be565b60405161010f919061093d565b6101406102dc565b60405161010f9190610aa0565b6101556102e2565b60405161010f91906108d4565b61012b61017036600461081f565b6102f1565b61017d61037e565b60405161010f9190610aa9565b61012b61019836600461085f565b610387565b6101a56103db565b60405161010f969594939291906108e8565b6101ca6101c536600461085f565b610421565b005b6101406101da3660046107d0565b61044b565b610102610466565b61012b6101f536600461085f565b6104c7565b610140610535565b61012b61021036600461085f565b61053b565b6101406102233660046107eb565b61054f565b60038054604080516020601f60026000196101006001881615020190951694909404938401819004810282018101909252828152606093909290918301828280156102b45780601f10610289576101008083540402835291602001916102b4565b820191906000526020600020905b81548152906001019060200180831161029757829003601f168201915b5050505050905090565b60006102d26102cb61057a565b848461057e565b5060015b92915050565b60025490565b6007546001600160a01b031690565b60006102fe84848461063b565b6103748461030a61057a565b61036f85604051806060016040528060288152602001610af6602891396001600160a01b038a1660009081526001602052604081209061034861057a565b6001600160a01b03168152602081019190915260400160002054919063ffffffff61075c16565b61057e565b5060019392505050565b60055460ff1690565b60006102d261039461057a565b8461036f85600160006103a561057a565b6001600160a01b03908116825260208083019390935260409182016000908120918c16815292529020549063ffffffff61078816565b60006060806000806000306103ee610228565b6103f6610466565b6103fe6102dc565b610406610535565b61040e6102e2565b949b939a50919850965094509092509050565b33600061042e848361054f565b9050610445848361036f868563ffffffff61078816565b50505050565b6001600160a01b031660009081526020819052604090205490565b60048054604080516020601f60026000196101006001881615020190951694909404938401819004810282018101909252828152606093909290918301828280156102b45780601f10610289576101008083540402835291602001916102b4565b60006102d26104d461057a565b8461036f85604051806060016040528060258152602001610b1e60259139600160006104fe61057a565b6001600160a01b03908116825260208083019390935260409182016000908120918d1681529252902054919063ffffffff61075c16565b60065490565b60006102d261054861057a565b848461063b565b6001600160a01b03918216600090815260016020908152604080832093909416825291909152205490565b3390565b6001600160a01b0383166105ad5760405162461bcd60e51b81526004016105a490610a5c565b60405180910390fd5b6001600160a01b0382166105d35760405162461bcd60e51b81526004016105a49061099e565b6001600160a01b0380841660008181526001602090815260408083209487168084529490915290819020849055517f8c5be1e5ebec7d5bd14f71427d1e84f3dd0314c0f7b2291e5b200ac8c7c3b9259061062e908590610aa0565b60405180910390a3505050565b6001600160a01b0383166106615760405162461bcd60e51b81526004016105a490610a17565b6001600160a01b0382166106875760405162461bcd60e51b81526004016105a49061095b565b6106928383836107b4565b6106d581604051806060016040528060268152602001610ad0602691396001600160a01b038616600090815260208190526040902054919063ffffffff61075c16565b6001600160a01b03808516600090815260208190526040808220939093559084168152205461070a908263ffffffff61078816565b6001600160a01b0380841660008181526020819052604090819020939093559151908516907fddf252ad1be2c89b69c2b068fc378daa952ba7f163c4a11628f55a4df523b3ef9061062e908590610aa0565b600081848411156107805760405162461bcd60e51b81526004016105a49190610948565b505050900390565b6000828201838110156107ad5760405162461bcd60e51b81526004016105a4906109e0565b9392505050565b505050565b80356001600160a01b03811681146102d657600080fd5b6000602082840312156107e1578081fd5b6107ad83836107b9565b600080604083850312156107fd578081fd5b61080784846107b9565b915061081684602085016107b9565b90509250929050565b600080600060608486031215610833578081fd5b833561083e81610ab7565b9250602084013561084e81610ab7565b929592945050506040919091013590565b60008060408385031215610871578182fd5b61087b84846107b9565b946020939093013593505050565b60008151808452815b818110156108ae57602081850181015186830182015201610892565b818111156108bf5782602083870101525b50601f01601f19169290920160200192915050565b6001600160a01b0391909116815260200190565b600060018060a01b03808916835260c0602084015261090a60c0840189610889565b838103604085015261091c8189610889565b606085019790975250608083019490945250911660a0909101529392505050565b901515815260200190565b6000602082526107ad6020830184610889565b60208082526023908201527f45524332303a207472616e7366657220746f20746865207a65726f206164647260408201526265737360e81b606082015260800190565b60208082526022908201527f45524332303a20617070726f766520746f20746865207a65726f206164647265604082015261737360f01b606082015260800190565b6020808252601b908201527f536166654d6174683a206164646974696f6e206f766572666c6f770000000000604082015260600190565b60208082526025908201527f45524332303a207472616e736665722066726f6d20746865207a65726f206164604082015264647265737360d81b606082015260800190565b60208082526024908201527f45524332303a20617070726f76652066726f6d20746865207a65726f206164646040820152637265737360e01b606082015260800190565b90815260200190565b60ff91909116815260200190565b6001600160a01b0381168114610acc57600080fd5b5056fe45524332303a207472616e7366657220616d6f756e7420657863656564732062616c616e636545524332303a207472616e7366657220616d6f756e74206578636565647320616c6c6f77616e636545524332303a2064656372656173656420616c6c6f77616e63652062656c6f77207a65726fa26469706673582212208d327196693e582049a74f4d080a3a3ca9e35e149fdf9020401ce82f50da193c64736f6c634300060600330f4b50b212a0af592f6b337de665fe7e50a5abd9c6040f4136b76bee99d83afe4552433732313a207472616e7366657220746f206e6f6e20455243373231526563656976657220696d706c656d656e746572e4ebe61b5154be65502ffd10f19bbd557c590ef2ce56d0959d42d567662e4e7f4552433732313a206f776e657220717565727920666f72206e6f6e6578697374656e7420746f6b656ea264697066735822122093e8d58037906ef9edce305cdef173f31794996c7de7d80d21ed795ba43b45ae64736f6c6343000606003360806040523480156200001157600080fd5b506040516200112338038062001123833981016040819052620000349162000400565b8451859085906200004d906003906020850190620002b4565b50805162000063906004906020840190620002b4565b50506005805460ff1916601217905550336200008982856001600160e01b03620000cf16565b6200009f8282866001600160e01b03620001c416565b50600691909155600780546001600160a01b0319166001600160a01b03909216919091179055506200059b915050565b6001600160a01b038216620001015760405162461bcd60e51b8152600401620000f8906200055b565b60405180910390fd5b62000118600083836001600160e01b036200028016565b62000134816002546200028560201b620007881790919060201c565b6002556001600160a01b03821660009081526020818152604090912054620001679183906200078862000285821b17901c565b6001600160a01b0383166000818152602081905260408082209390935591519091907fddf252ad1be2c89b69c2b068fc378daa952ba7f163c4a11628f55a4df523b3ef90620001b890859062000592565b60405180910390a35050565b6001600160a01b038316620001ed5760405162461bcd60e51b8152600401620000f89062000517565b6001600160a01b038216620002165760405162461bcd60e51b8152600401620000f8906200049e565b6001600160a01b0380841660008181526001602090815260408083209487168084529490915290819020849055517f8c5be1e5ebec7d5bd14f71427d1e84f3dd0314c0f7b2291e5b200ac8c7c3b925906200027390859062000592565b60405180910390a3505050565b505050565b600082820183811015620002ad5760405162461bcd60e51b8152600401620000f890620004e0565b9392505050565b828054600181600116156101000203166002900490600052602060002090601f016020900481019282601f10620002f757805160ff191683800117855562000327565b8280016001018555821562000327579182015b82811115620003275782518255916020019190600101906200030a565b506200033592915062000339565b5090565b6200035691905b8082111562000335576000815560010162000340565b90565b600082601f8301126200036a578081fd5b81516001600160401b038082111562000381578283fd5b6040516020601f8401601f1916820181018381118382101715620003a3578586fd5b80604052508194508382528681858801011115620003c057600080fd5b600092505b83831015620003e45785830181015182840182015291820191620003c5565b83831115620003f65760008185840101525b5050505092915050565b600080600080600060a0868803121562000418578081fd5b85516001600160401b03808211156200042f578283fd5b6200043d89838a0162000359565b9650602088015191508082111562000453578283fd5b50620004628882890162000359565b6040880151606089015160808a0151929750909550935090506001600160a01b038116811462000490578182fd5b809150509295509295909350565b60208082526022908201527f45524332303a20617070726f766520746f20746865207a65726f206164647265604082015261737360f01b606082015260800190565b6020808252601b908201527f536166654d6174683a206164646974696f6e206f766572666c6f770000000000604082015260600190565b60208082526024908201527f45524332303a20617070726f76652066726f6d20746865207a65726f206164646040820152637265737360e01b606082015260800190565b6020808252601f908201527f45524332303a206d696e7420746f20746865207a65726f206164647265737300604082015260600190565b90815260200190565b610b7880620005ab6000396000f3fe608060405234801561001057600080fd5b50600436106100f55760003560e01c8063565974d311610097578063a457c2d711610066578063a457c2d7146101e7578063a71b6426146101fa578063a9059cbb14610202578063dd62ed3e14610215576100f5565b8063565974d31461019d5780636c6f31f2146101b757806370a08231146101cc57806395d89b41146101df576100f5565b80631d143848116100d35780631d1438481461014d57806323b872dd14610162578063313ce56714610175578063395093511461018a576100f5565b806306fdde03146100fa578063095ea7b31461011857806318160ddd14610138575b600080fd5b610102610228565b60405161010f9190610948565b60405180910390f35b61012b61012636600461085f565b6102be565b60405161010f919061093d565b6101406102dc565b60405161010f9190610aa0565b6101556102e2565b60405161010f91906108d4565b61012b61017036600461081f565b6102f1565b61017d61037e565b60405161010f9190610aa9565b61012b61019836600461085f565b610387565b6101a56103db565b60405161010f969594939291906108e8565b6101ca6101c536600461085f565b610421565b005b6101406101da3660046107d0565b61044b565b610102610466565b61012b6101f536600461085f565b6104c7565b610140610535565b61012b61021036600461085f565b61053b565b6101406102233660046107eb565b61054f565b60038054604080516020601f60026000196101006001881615020190951694909404938401819004810282018101909252828152606093909290918301828280156102b45780601f10610289576101008083540402835291602001916102b4565b820191906000526020600020905b81548152906001019060200180831161029757829003601f168201915b5050505050905090565b60006102d26102cb61057a565b848461057e565b5060015b92915050565b60025490565b6007546001600160a01b031690565b60006102fe84848461063b565b6103748461030a61057a565b61036f85604051806060016040528060288152602001610af6602891396001600160a01b038a1660009081526001602052604081209061034861057a565b6001600160a01b03168152602081019190915260400160002054919063ffffffff61075c16565b61057e565b5060019392505050565b60055460ff1690565b60006102d261039461057a565b8461036f85600160006103a561057a565b6001600160a01b03908116825260208083019390935260409182016000908120918c16815292529020549063ffffffff61078816565b60006060806000806000306103ee610228565b6103f6610466565b6103fe6102dc565b610406610535565b61040e6102e2565b949b939a50919850965094509092509050565b33600061042e848361054f565b9050610445848361036f868563ffffffff61078816565b50505050565b6001600160a01b031660009081526020819052604090205490565b60048054604080516020601f60026000196101006001881615020190951694909404938401819004810282018101909252828152606093909290918301828280156102b45780601f10610289576101008083540402835291602001916102b4565b60006102d26104d461057a565b8461036f85604051806060016040528060258152602001610b1e60259139600160006104fe61057a565b6001600160a01b03908116825260208083019390935260409182016000908120918d1681529252902054919063ffffffff61075c16565b60065490565b60006102d261054861057a565b848461063b565b6001600160a01b03918216600090815260016020908152604080832093909416825291909152205490565b3390565b6001600160a01b0383166105ad5760405162461bcd60e51b81526004016105a490610a5c565b60405180910390fd5b6001600160a01b0382166105d35760405162461bcd60e51b81526004016105a49061099e565b6001600160a01b0380841660008181526001602090815260408083209487168084529490915290819020849055517f8c5be1e5ebec7d5bd14f71427d1e84f3dd0314c0f7b2291e5b200ac8c7c3b9259061062e908590610aa0565b60405180910390a3505050565b6001600160a01b0383166106615760405162461bcd60e51b81526004016105a490610a17565b6001600160a01b0382166106875760405162461bcd60e51b81526004016105a49061095b565b6106928383836107b4565b6106d581604051806060016040528060268152602001610ad0602691396001600160a01b038616600090815260208190526040902054919063ffffffff61075c16565b6001600160a01b03808516600090815260208190526040808220939093559084168152205461070a908263ffffffff61078816565b6001600160a01b0380841660008181526020819052604090819020939093559151908516907fddf252ad1be2c89b69c2b068fc378daa952ba7f163c4a11628f55a4df523b3ef9061062e908590610aa0565b600081848411156107805760405162461bcd60e51b81526004016105a49190610948565b505050900390565b6000828201838110156107ad5760405162461bcd60e51b81526004016105a4906109e0565b9392505050565b505050565b80356001600160a01b03811681146102d657600080fd5b6000602082840312156107e1578081fd5b6107ad83836107b9565b600080604083850312156107fd578081fd5b61080784846107b9565b915061081684602085016107b9565b90509250929050565b600080600060608486031215610833578081fd5b833561083e81610ab7565b9250602084013561084e81610ab7565b929592945050506040919091013590565b60008060408385031215610871578182fd5b61087b84846107b9565b946020939093013593505050565b60008151808452815b818110156108ae57602081850181015186830182015201610892565b818111156108bf5782602083870101525b50601f01601f19169290920160200192915050565b6001600160a01b0391909116815260200190565b600060018060a01b03808916835260c0602084015261090a60c0840189610889565b838103604085015261091c8189610889565b606085019790975250608083019490945250911660a0909101529392505050565b901515815260200190565b6000602082526107ad6020830184610889565b60208082526023908201527f45524332303a207472616e7366657220746f20746865207a65726f206164647260408201526265737360e81b606082015260800190565b60208082526022908201527f45524332303a20617070726f766520746f20746865207a65726f206164647265604082015261737360f01b606082015260800190565b6020808252601b908201527f536166654d6174683a206164646974696f6e206f766572666c6f770000000000604082015260600190565b60208082526025908201527f45524332303a207472616e736665722066726f6d20746865207a65726f206164604082015264647265737360d81b606082015260800190565b60208082526024908201527f45524332303a20617070726f76652066726f6d20746865207a65726f206164646040820152637265737360e01b606082015260800190565b90815260200190565b60ff91909116815260200190565b6001600160a01b0381168114610acc57600080fd5b5056fe45524332303a207472616e7366657220616d6f756e7420657863656564732062616c616e636545524332303a207472616e7366657220616d6f756e74206578636565647320616c6c6f77616e636545524332303a2064656372656173656420616c6c6f77616e63652062656c6f77207a65726fa26469706673582212208d327196693e582049a74f4d080a3a3ca9e35e149fdf9020401ce82f50da193c64736f6c63430006060033",
			"opcodes": "PUSH1 0x80 PUSH1 0x40 MSTORE CALLVALUE DUP1 ISZERO PUSH3 0x11 JUMPI PUSH1 0x0 DUP1 REVERT JUMPDEST POP PUSH1 0x40 DUP1 MLOAD DUP1 DUP3 ADD DUP3 MSTORE PUSH1 0x10 DUP2 MSTORE PUSH16 0x4E5345204172742045786368616E6765 PUSH1 0x80 SHL PUSH1 0x20 DUP1 DUP4 ADD SWAP2 SWAP1 SWAP2 MSTORE DUP3 MLOAD DUP1 DUP5 ADD SWAP1 SWAP4 MSTORE PUSH1 0x4 DUP4 MSTORE PUSH4 0x82A4A8B PUSH1 0xE3 SHL SWAP1 DUP4 ADD MSTORE SWAP1 PUSH3 0x70 PUSH4 0x1FFC9A7 PUSH1 0xE0 SHL PUSH1 0x1 PUSH1 0x1 PUSH1 0xE0 SHL SUB PUSH3 0x16D AND JUMP JUMPDEST DUP2 MLOAD PUSH3 0x85 SWAP1 PUSH1 0x6 SWAP1 PUSH1 0x20 DUP6 ADD SWAP1 PUSH3 0x1C8 JUMP JUMPDEST POP DUP1 MLOAD PUSH3 0x9B SWAP1 PUSH1 0x7 SWAP1 PUSH1 0x20 DUP5 ADD SWAP1 PUSH3 0x1C8 JUMP JUMPDEST POP PUSH3 0xB7 PUSH4 0x80AC58CD PUSH1 0xE0 SHL PUSH1 0x1 PUSH1 0x1 PUSH1 0xE0 SHL SUB PUSH3 0x16D AND JUMP JUMPDEST PUSH3 0xD2 PUSH4 0x5B5E139F PUSH1 0xE0 SHL PUSH1 0x1 PUSH1 0x1 PUSH1 0xE0 SHL SUB PUSH3 0x16D AND JUMP JUMPDEST PUSH3 0xED PUSH4 0x780E9D63 PUSH1 0xE0 SHL PUSH1 0x1 PUSH1 0x1 PUSH1 0xE0 SHL SUB PUSH3 0x16D AND JUMP JUMPDEST POP POP PUSH1 0xF DUP1 SLOAD PUSH1 0x1 PUSH1 0x1 PUSH1 0xA0 SHL SUB NOT AND CALLER SWAP1 DUP2 OR SWAP1 SWAP2 SSTORE PUSH1 0x40 MLOAD PUSH1 0x1 PUSH1 0xFA SHL SWAP2 PUSH1 0x1 SWAP2 PUSH3 0x11B SWAP1 PUSH3 0x24D JUMP JUMPDEST PUSH3 0x129 SWAP4 SWAP3 SWAP2 SWAP1 PUSH3 0x2B2 JUMP JUMPDEST PUSH1 0x40 MLOAD DUP1 SWAP2 SUB SWAP1 PUSH1 0x0 CREATE DUP1 ISZERO DUP1 ISZERO PUSH3 0x146 JUMPI RETURNDATASIZE PUSH1 0x0 DUP1 RETURNDATACOPY RETURNDATASIZE PUSH1 0x0 REVERT JUMPDEST POP PUSH1 0xB DUP1 SLOAD PUSH1 0x1 PUSH1 0x1 PUSH1 0xA0 SHL SUB NOT AND PUSH1 0x1 PUSH1 0x1 PUSH1 0xA0 SHL SUB SWAP3 SWAP1 SWAP3 AND SWAP2 SWAP1 SWAP2 OR SWAP1 SSTORE PUSH3 0x316 JUMP JUMPDEST PUSH1 0x1 PUSH1 0x1 PUSH1 0xE0 SHL SUB NOT DUP1 DUP3 AND EQ ISZERO PUSH3 0x1A3 JUMPI PUSH1 0x40 MLOAD PUSH3 0x461BCD PUSH1 0xE5 SHL DUP2 MSTORE PUSH1 0x4 ADD PUSH3 0x19A SWAP1 PUSH3 0x27B JUMP JUMPDEST PUSH1 0x40 MLOAD DUP1 SWAP2 SUB SWAP1 REVERT JUMPDEST PUSH1 0x1 PUSH1 0x1 PUSH1 0xE0 SHL SUB NOT AND PUSH1 0x0 SWAP1 DUP2 MSTORE PUSH1 0x20 DUP2 SWAP1 MSTORE PUSH1 0x40 SWAP1 KECCAK256 DUP1 SLOAD PUSH1 0xFF NOT AND PUSH1 0x1 OR SWAP1 SSTORE JUMP JUMPDEST DUP3 DUP1 SLOAD PUSH1 0x1 DUP2 PUSH1 0x1 AND ISZERO PUSH2 0x100 MUL SUB AND PUSH1 0x2 SWAP1 DIV SWAP1 PUSH1 0x0 MSTORE PUSH1 0x20 PUSH1 0x0 KECCAK256 SWAP1 PUSH1 0x1F ADD PUSH1 0x20 SWAP1 DIV DUP2 ADD SWAP3 DUP3 PUSH1 0x1F LT PUSH3 0x20B JUMPI DUP1 MLOAD PUSH1 0xFF NOT AND DUP4 DUP1 ADD OR DUP6 SSTORE PUSH3 0x23B JUMP JUMPDEST DUP3 DUP1 ADD PUSH1 0x1 ADD DUP6 SSTORE DUP3 ISZERO PUSH3 0x23B JUMPI SWAP2 DUP3 ADD JUMPDEST DUP3 DUP2 GT ISZERO PUSH3 0x23B JUMPI DUP3 MLOAD DUP3 SSTORE SWAP2 PUSH1 0x20 ADD SWAP2 SWAP1 PUSH1 0x1 ADD SWAP1 PUSH3 0x21E JUMP JUMPDEST POP PUSH3 0x249 SWAP3 SWAP2 POP PUSH3 0x25B JUMP JUMPDEST POP SWAP1 JUMP JUMPDEST PUSH2 0x1123 DUP1 PUSH3 0x626E DUP4 CODECOPY ADD SWAP1 JUMP JUMPDEST PUSH3 0x278 SWAP2 SWAP1 JUMPDEST DUP1 DUP3 GT ISZERO PUSH3 0x249 JUMPI PUSH1 0x0 DUP2 SSTORE PUSH1 0x1 ADD PUSH3 0x262 JUMP JUMPDEST SWAP1 JUMP JUMPDEST PUSH1 0x20 DUP1 DUP3 MSTORE PUSH1 0x1C SWAP1 DUP3 ADD MSTORE PUSH32 0x4552433136353A20696E76616C696420696E7465726661636520696400000000 PUSH1 0x40 DUP3 ADD MSTORE PUSH1 0x60 ADD SWAP1 JUMP JUMPDEST PUSH1 0xA0 DUP1 DUP3 MSTORE PUSH1 0xC SWAP1 DUP3 ADD MSTORE PUSH12 0x2A32BA3432B9102A37B5B2B7 PUSH1 0xA1 SHL PUSH1 0xC0 DUP3 ADD MSTORE PUSH1 0xE0 PUSH1 0x20 DUP3 ADD DUP2 SWAP1 MSTORE PUSH1 0x6 SWAP1 DUP3 ADD MSTORE PUSH6 0x15D053131155 PUSH1 0xD2 SHL PUSH2 0x100 DUP3 ADD MSTORE PUSH1 0x40 DUP2 ADD SWAP4 SWAP1 SWAP4 MSTORE PUSH1 0x60 DUP4 ADD SWAP2 SWAP1 SWAP2 MSTORE PUSH1 0x1 PUSH1 0x1 PUSH1 0xA0 SHL SUB AND PUSH1 0x80 DUP3 ADD MSTORE PUSH2 0x120 ADD SWAP1 JUMP JUMPDEST PUSH2 0x5F48 DUP1 PUSH3 0x326 PUSH1 0x0 CODECOPY PUSH1 0x0 RETURN INVALID PUSH1 0x80 PUSH1 0x40 MSTORE CALLVALUE DUP1 ISZERO PUSH3 0x11 JUMPI PUSH1 0x0 DUP1 REVERT JUMPDEST POP PUSH1 0x4 CALLDATASIZE LT PUSH3 0x1B4 JUMPI PUSH1 0x0 CALLDATALOAD PUSH1 0xE0 SHR DUP1 PUSH4 0x5778472A GT PUSH3 0xF3 JUMPI DUP1 PUSH4 0x95D89B41 GT PUSH3 0xA5 JUMPI DUP1 PUSH4 0xC87B56DD GT PUSH3 0x7B JUMPI DUP1 PUSH4 0xC87B56DD EQ PUSH3 0x3E4 JUMPI DUP1 PUSH4 0xCF9CD8F8 EQ PUSH3 0x3FB JUMPI DUP1 PUSH4 0xE985E9C5 EQ PUSH3 0x412 JUMPI DUP1 PUSH4 0xE9CF64E6 EQ PUSH3 0x429 JUMPI PUSH3 0x1B4 JUMP JUMPDEST DUP1 PUSH4 0x95D89B41 EQ PUSH3 0x3AC JUMPI DUP1 PUSH4 0xA22CB465 EQ PUSH3 0x3B6 JUMPI DUP1 PUSH4 0xB88D4FDE EQ PUSH3 0x3CD JUMPI PUSH3 0x1B4 JUMP JUMPDEST DUP1 PUSH4 0x5778472A EQ PUSH3 0x320 JUMPI DUP1 PUSH4 0x6352211E EQ PUSH3 0x346 JUMPI DUP1 PUSH4 0x6C0360EB EQ PUSH3 0x35D JUMPI DUP1 PUSH4 0x70A08231 EQ PUSH3 0x367 JUMPI DUP1 PUSH4 0x7B8BB0B7 EQ PUSH3 0x37E JUMPI DUP1 PUSH4 0x84B9A6E6 EQ PUSH3 0x395 JUMPI PUSH3 0x1B4 JUMP JUMPDEST DUP1 PUSH4 0x23B872DD GT PUSH3 0x16B JUMPI DUP1 PUSH4 0x3AE64E0C GT PUSH3 0x141 JUMPI DUP1 PUSH4 0x3AE64E0C EQ PUSH3 0x2B5 JUMPI DUP1 PUSH4 0x42842E0E EQ PUSH3 0x2DB JUMPI DUP1 PUSH4 0x4BBEF4BA EQ PUSH3 0x2F2 JUMPI DUP1 PUSH4 0x4F6CCCE7 EQ PUSH3 0x309 JUMPI PUSH3 0x1B4 JUMP JUMPDEST DUP1 PUSH4 0x23B872DD EQ PUSH3 0x270 JUMPI DUP1 PUSH4 0x2F745C59 EQ PUSH3 0x287 JUMPI DUP1 PUSH4 0x3563922F EQ PUSH3 0x29E JUMPI PUSH3 0x1B4 JUMP JUMPDEST DUP1 PUSH4 0x1FFC9A7 EQ PUSH3 0x1B9 JUMPI DUP1 PUSH4 0x2A1C41D EQ PUSH3 0x1E8 JUMPI DUP1 PUSH4 0x6FDDE03 EQ PUSH3 0x20E JUMPI DUP1 PUSH4 0x81812FC EQ PUSH3 0x227 JUMPI DUP1 PUSH4 0x95EA7B3 EQ PUSH3 0x24D JUMPI DUP1 PUSH4 0x18160DDD EQ PUSH3 0x266 JUMPI JUMPDEST PUSH1 0x0 DUP1 REVERT JUMPDEST PUSH3 0x1D0 PUSH3 0x1CA CALLDATASIZE PUSH1 0x4 PUSH3 0x4087 JUMP JUMPDEST PUSH3 0x440 JUMP JUMPDEST PUSH1 0x40 MLOAD PUSH3 0x1DF SWAP2 SWAP1 PUSH3 0x4424 JUMP JUMPDEST PUSH1 0x40 MLOAD DUP1 SWAP2 SUB SWAP1 RETURN JUMPDEST PUSH3 0x1FF PUSH3 0x1F9 CALLDATASIZE PUSH1 0x4 PUSH3 0x4174 JUMP JUMPDEST PUSH3 0x463 JUMP JUMPDEST PUSH1 0x40 MLOAD PUSH3 0x1DF SWAP2 SWAP1 PUSH3 0x4C49 JUMP JUMPDEST PUSH3 0x218 PUSH3 0x503 JUMP JUMPDEST PUSH1 0x40 MLOAD PUSH3 0x1DF SWAP2 SWAP1 PUSH3 0x4483 JUMP JUMPDEST PUSH3 0x23E PUSH3 0x238 CALLDATASIZE PUSH1 0x4 PUSH3 0x406E JUMP JUMPDEST PUSH3 0x59D JUMP JUMPDEST PUSH1 0x40 MLOAD PUSH3 0x1DF SWAP2 SWAP1 PUSH3 0x4304 JUMP JUMPDEST PUSH3 0x264 PUSH3 0x25E CALLDATASIZE PUSH1 0x4 PUSH3 0x4021 JUMP JUMPDEST PUSH3 0x5EE JUMP JUMPDEST STOP JUMPDEST PUSH3 0x1FF PUSH3 0x696 JUMP JUMPDEST PUSH3 0x264 PUSH3 0x281 CALLDATASIZE PUSH1 0x4 PUSH3 0x3E53 JUMP JUMPDEST PUSH3 0x6A9 JUMP JUMPDEST PUSH3 0x1FF PUSH3 0x298 CALLDATASIZE PUSH1 0x4 PUSH3 0x4021 JUMP JUMPDEST PUSH3 0x6EA JUMP JUMPDEST PUSH3 0x264 PUSH3 0x2AF CALLDATASIZE PUSH1 0x4 PUSH3 0x4021 JUMP JUMPDEST PUSH3 0x71B JUMP JUMPDEST PUSH3 0x2CC PUSH3 0x2C6 CALLDATASIZE PUSH1 0x4 PUSH3 0x406E JUMP JUMPDEST PUSH3 0x841 JUMP JUMPDEST PUSH1 0x40 MLOAD PUSH3 0x1DF SWAP2 SWAP1 PUSH3 0x4BAC JUMP JUMPDEST PUSH3 0x264 PUSH3 0x2EC CALLDATASIZE PUSH1 0x4 PUSH3 0x3E53 JUMP JUMPDEST PUSH3 0x965 JUMP JUMPDEST PUSH3 0x264 PUSH3 0x303 CALLDATASIZE PUSH1 0x4 PUSH3 0x4120 JUMP JUMPDEST PUSH3 0x982 JUMP JUMPDEST PUSH3 0x1FF PUSH3 0x31A CALLDATASIZE PUSH1 0x4 PUSH3 0x406E JUMP JUMPDEST PUSH3 0xBC6 JUMP JUMPDEST PUSH3 0x337 PUSH3 0x331 CALLDATASIZE PUSH1 0x4 PUSH3 0x406E JUMP JUMPDEST PUSH3 0xBE4 JUMP JUMPDEST PUSH1 0x40 MLOAD PUSH3 0x1DF SWAP2 SWAP1 PUSH3 0x4ACD JUMP JUMPDEST PUSH3 0x23E PUSH3 0x357 CALLDATASIZE PUSH1 0x4 PUSH3 0x406E JUMP JUMPDEST PUSH3 0xD16 JUMP JUMPDEST PUSH3 0x218 PUSH3 0xD47 JUMP JUMPDEST PUSH3 0x1FF PUSH3 0x378 CALLDATASIZE PUSH1 0x4 PUSH3 0x3DF7 JUMP JUMPDEST PUSH3 0xDAB JUMP JUMPDEST PUSH3 0x264 PUSH3 0x38F CALLDATASIZE PUSH1 0x4 PUSH3 0x415C JUMP JUMPDEST PUSH3 0xDF9 JUMP JUMPDEST PUSH3 0x264 PUSH3 0x3A6 CALLDATASIZE PUSH1 0x4 PUSH3 0x419B JUMP JUMPDEST PUSH3 0x1323 JUMP JUMPDEST PUSH3 0x218 PUSH3 0x1437 JUMP JUMPDEST PUSH3 0x264 PUSH3 0x3C7 CALLDATASIZE PUSH1 0x4 PUSH3 0x3F49 JUMP JUMPDEST PUSH3 0x149B JUMP JUMPDEST PUSH3 0x264 PUSH3 0x3DE CALLDATASIZE PUSH1 0x4 PUSH3 0x3E98 JUMP JUMPDEST PUSH3 0x1574 JUMP JUMPDEST PUSH3 0x218 PUSH3 0x3F5 CALLDATASIZE PUSH1 0x4 PUSH3 0x406E JUMP JUMPDEST PUSH3 0x15BC JUMP JUMPDEST PUSH3 0x1FF PUSH3 0x40C CALLDATASIZE PUSH1 0x4 PUSH3 0x3DF7 JUMP JUMPDEST PUSH3 0x1719 JUMP JUMPDEST PUSH3 0x1D0 PUSH3 0x423 CALLDATASIZE PUSH1 0x4 PUSH3 0x3E16 JUMP JUMPDEST PUSH3 0x17A2 JUMP JUMPDEST PUSH3 0x264 PUSH3 0x43A CALLDATASIZE PUSH1 0x4 PUSH3 0x4174 JUMP JUMPDEST PUSH3 0x17D0 JUMP JUMPDEST PUSH1 0x1 PUSH1 0x1 PUSH1 0xE0 SHL SUB NOT DUP2 AND PUSH1 0x0 SWAP1 DUP2 MSTORE PUSH1 0x20 DUP2 SWAP1 MSTORE PUSH1 0x40 SWAP1 KECCAK256 SLOAD PUSH1 0xFF AND JUMPDEST SWAP2 SWAP1 POP JUMP JUMPDEST PUSH1 0x0 DUP3 DUP2 MSTORE PUSH1 0xA PUSH1 0x20 MSTORE PUSH1 0x40 DUP1 DUP3 KECCAK256 SLOAD SWAP1 MLOAD PUSH4 0x6EB1769F PUSH1 0xE1 SHL DUP2 MSTORE PUSH1 0x1 PUSH1 0x1 PUSH1 0xA0 SHL SUB SWAP1 SWAP2 AND SWAP1 DUP2 SWAP1 PUSH4 0xDD62ED3E SWAP1 PUSH3 0x4A5 SWAP1 DUP7 SWAP1 ADDRESS SWAP1 PUSH1 0x4 ADD PUSH3 0x4318 JUMP JUMPDEST PUSH1 0x20 PUSH1 0x40 MLOAD DUP1 DUP4 SUB DUP2 DUP7 DUP1 EXTCODESIZE ISZERO DUP1 ISZERO PUSH3 0x4BE JUMPI PUSH1 0x0 DUP1 REVERT JUMPDEST POP GAS STATICCALL ISZERO DUP1 ISZERO PUSH3 0x4D3 JUMPI RETURNDATASIZE PUSH1 0x0 DUP1 RETURNDATACOPY RETURNDATASIZE PUSH1 0x0 REVERT JUMPDEST POP POP POP POP PUSH1 0x40 MLOAD RETURNDATASIZE PUSH1 0x1F NOT PUSH1 0x1F DUP3 ADD AND DUP3 ADD DUP1 PUSH1 0x40 MSTORE POP DUP2 ADD SWAP1 PUSH3 0x4F9 SWAP2 SWAP1 PUSH3 0x4107 JUMP JUMPDEST SWAP2 POP POP JUMPDEST SWAP3 SWAP2 POP POP JUMP JUMPDEST PUSH1 0x6 DUP1 SLOAD PUSH1 0x40 DUP1 MLOAD PUSH1 0x20 PUSH1 0x1F PUSH1 0x2 PUSH1 0x0 NOT PUSH2 0x100 PUSH1 0x1 DUP9 AND ISZERO MUL ADD SWAP1 SWAP6 AND SWAP5 SWAP1 SWAP5 DIV SWAP4 DUP5 ADD DUP2 SWAP1 DIV DUP2 MUL DUP3 ADD DUP2 ADD SWAP1 SWAP3 MSTORE DUP3 DUP2 MSTORE PUSH1 0x60 SWAP4 SWAP1 SWAP3 SWAP1 SWAP2 DUP4 ADD DUP3 DUP3 DUP1 ISZERO PUSH3 0x593 JUMPI DUP1 PUSH1 0x1F LT PUSH3 0x567 JUMPI PUSH2 0x100 DUP1 DUP4 SLOAD DIV MUL DUP4 MSTORE SWAP2 PUSH1 0x20 ADD SWAP2 PUSH3 0x593 JUMP JUMPDEST DUP3 ADD SWAP2 SWAP1 PUSH1 0x0 MSTORE PUSH1 0x20 PUSH1 0x0 KECCAK256 SWAP1 JUMPDEST DUP2 SLOAD DUP2 MSTORE SWAP1 PUSH1 0x1 ADD SWAP1 PUSH1 0x20 ADD DUP1 DUP4 GT PUSH3 0x575 JUMPI DUP3 SWAP1 SUB PUSH1 0x1F AND DUP3 ADD SWAP2 JUMPDEST POP POP POP POP POP SWAP1 POP SWAP1 JUMP JUMPDEST PUSH1 0x0 PUSH3 0x5AA DUP3 PUSH3 0x1981 JUMP JUMPDEST PUSH3 0x5D2 JUMPI PUSH1 0x40 MLOAD PUSH3 0x461BCD PUSH1 0xE5 SHL DUP2 MSTORE PUSH1 0x4 ADD PUSH3 0x5C9 SWAP1 PUSH3 0x4871 JUMP JUMPDEST PUSH1 0x40 MLOAD DUP1 SWAP2 SUB SWAP1 REVERT JUMPDEST POP PUSH1 0x0 SWAP1 DUP2 MSTORE PUSH1 0x4 PUSH1 0x20 MSTORE PUSH1 0x40 SWAP1 KECCAK256 SLOAD PUSH1 0x1 PUSH1 0x1 PUSH1 0xA0 SHL SUB AND SWAP1 JUMP JUMPDEST PUSH1 0x0 PUSH3 0x5FB DUP3 PUSH3 0xD16 JUMP JUMPDEST SWAP1 POP DUP1 PUSH1 0x1 PUSH1 0x1 PUSH1 0xA0 SHL SUB AND DUP4 PUSH1 0x1 PUSH1 0x1 PUSH1 0xA0 SHL SUB AND EQ ISZERO PUSH3 0x632 JUMPI PUSH1 0x40 MLOAD PUSH3 0x461BCD PUSH1 0xE5 SHL DUP2 MSTORE PUSH1 0x4 ADD PUSH3 0x5C9 SWAP1 PUSH3 0x4972 JUMP JUMPDEST DUP1 PUSH1 0x1 PUSH1 0x1 PUSH1 0xA0 SHL SUB AND PUSH3 0x646 PUSH3 0x1996 JUMP JUMPDEST PUSH1 0x1 PUSH1 0x1 PUSH1 0xA0 SHL SUB AND EQ DUP1 PUSH3 0x666 JUMPI POP PUSH3 0x666 DUP2 PUSH3 0x423 PUSH3 0x1996 JUMP JUMPDEST PUSH3 0x685 JUMPI PUSH1 0x40 MLOAD PUSH3 0x461BCD PUSH1 0xE5 SHL DUP2 MSTORE PUSH1 0x4 ADD PUSH3 0x5C9 SWAP1 PUSH3 0x46D6 JUMP JUMPDEST PUSH3 0x691 DUP4 DUP4 PUSH3 0x199A JUMP JUMPDEST POP POP POP JUMP JUMPDEST PUSH1 0x0 PUSH3 0x6A4 PUSH1 0x2 PUSH3 0x1A0A JUMP JUMPDEST SWAP1 POP SWAP1 JUMP JUMPDEST PUSH3 0x6BE PUSH3 0x6B7 PUSH3 0x1996 JUMP JUMPDEST DUP3 PUSH3 0x1A17 JUMP JUMPDEST PUSH3 0x6DD JUMPI PUSH1 0x40 MLOAD PUSH3 0x461BCD PUSH1 0xE5 SHL DUP2 MSTORE PUSH1 0x4 ADD PUSH3 0x5C9 SWAP1 PUSH3 0x49D1 JUMP JUMPDEST PUSH3 0x691 DUP4 DUP4 DUP4 PUSH3 0x1AA1 JUMP JUMPDEST PUSH1 0x1 PUSH1 0x1 PUSH1 0xA0 SHL SUB DUP3 AND PUSH1 0x0 SWAP1 DUP2 MSTORE PUSH1 0x1 PUSH1 0x20 MSTORE PUSH1 0x40 DUP2 KECCAK256 PUSH3 0x714 SWAP1 DUP4 PUSH4 0xFFFFFFFF PUSH3 0x1BD3 AND JUMP JUMPDEST SWAP4 SWAP3 POP POP POP JUMP JUMPDEST PUSH1 0xF SLOAD PUSH1 0x1 PUSH1 0x1 PUSH1 0xA0 SHL SUB AND CALLER EQ PUSH3 0x748 JUMPI PUSH1 0x40 MLOAD PUSH3 0x461BCD PUSH1 0xE5 SHL DUP2 MSTORE PUSH1 0x4 ADD PUSH3 0x5C9 SWAP1 PUSH3 0x49B3 JUMP JUMPDEST PUSH1 0xB SLOAD PUSH1 0x40 MLOAD PUSH4 0x23B872DD PUSH1 0xE0 SHL DUP2 MSTORE PUSH1 0x1 PUSH1 0x1 PUSH1 0xA0 SHL SUB SWAP1 SWAP2 AND SWAP1 PUSH4 0x23B872DD SWAP1 PUSH3 0x77E SWAP1 CALLER SWAP1 DUP7 SWAP1 DUP7 SWAP1 PUSH1 0x4 ADD PUSH3 0x4332 JUMP JUMPDEST PUSH1 0x20 PUSH1 0x40 MLOAD DUP1 DUP4 SUB DUP2 PUSH1 0x0 DUP8 DUP1 EXTCODESIZE ISZERO DUP1 ISZERO PUSH3 0x799 JUMPI PUSH1 0x0 DUP1 REVERT JUMPDEST POP GAS CALL ISZERO DUP1 ISZERO PUSH3 0x7AE JUMPI RETURNDATASIZE PUSH1 0x0 DUP1 RETURNDATACOPY RETURNDATASIZE PUSH1 0x0 REVERT JUMPDEST POP POP POP POP PUSH1 0x40 MLOAD RETURNDATASIZE PUSH1 0x1F NOT PUSH1 0x1F DUP3 ADD AND DUP3 ADD DUP1 PUSH1 0x40 MSTORE POP DUP2 ADD SWAP1 PUSH3 0x7D4 SWAP2 SWAP1 PUSH3 0x404F JUMP JUMPDEST POP PUSH1 0xB SLOAD PUSH1 0x40 MLOAD PUSH4 0x363798F9 PUSH1 0xE1 SHL DUP2 MSTORE PUSH1 0x1 PUSH1 0x1 PUSH1 0xA0 SHL SUB SWAP1 SWAP2 AND SWAP1 PUSH4 0x6C6F31F2 SWAP1 PUSH3 0x809 SWAP1 DUP6 SWAP1 DUP6 SWAP1 PUSH1 0x4 ADD PUSH3 0x4395 JUMP JUMPDEST PUSH1 0x0 PUSH1 0x40 MLOAD DUP1 DUP4 SUB DUP2 PUSH1 0x0 DUP8 DUP1 EXTCODESIZE ISZERO DUP1 ISZERO PUSH3 0x824 JUMPI PUSH1 0x0 DUP1 REVERT JUMPDEST POP GAS CALL ISZERO DUP1 ISZERO PUSH3 0x839 JUMPI RETURNDATASIZE PUSH1 0x0 DUP1 RETURNDATACOPY RETURNDATASIZE PUSH1 0x0 REVERT JUMPDEST POP POP POP POP POP POP JUMP JUMPDEST PUSH3 0x84B PUSH3 0x3C63 JUMP JUMPDEST PUSH1 0x0 PUSH3 0x858 DUP4 PUSH3 0xD16 JUMP JUMPDEST PUSH1 0x0 DUP5 DUP2 MSTORE PUSH1 0xA PUSH1 0x20 MSTORE PUSH1 0x40 DUP1 DUP3 KECCAK256 SLOAD DUP2 MLOAD PUSH4 0x565974D3 PUSH1 0xE0 SHL DUP2 MSTORE SWAP2 MLOAD SWAP4 SWAP5 POP PUSH1 0x1 PUSH1 0x1 PUSH1 0xA0 SHL SUB AND SWAP3 PUSH1 0x60 SWAP2 DUP3 SWAP2 DUP5 SWAP2 DUP3 SWAP2 DUP3 SWAP2 DUP9 SWAP2 PUSH4 0x565974D3 SWAP2 PUSH1 0x4 DUP1 DUP3 ADD SWAP3 DUP7 SWAP3 SWAP1 SWAP2 SWAP1 DUP3 SWAP1 SUB ADD DUP2 DUP7 DUP1 EXTCODESIZE ISZERO DUP1 ISZERO PUSH3 0x8B6 JUMPI PUSH1 0x0 DUP1 REVERT JUMPDEST POP GAS STATICCALL ISZERO DUP1 ISZERO PUSH3 0x8CB JUMPI RETURNDATASIZE PUSH1 0x0 DUP1 RETURNDATACOPY RETURNDATASIZE PUSH1 0x0 REVERT JUMPDEST POP POP POP POP PUSH1 0x40 MLOAD RETURNDATASIZE PUSH1 0x0 DUP3 RETURNDATACOPY PUSH1 0x1F RETURNDATASIZE SWAP1 DUP2 ADD PUSH1 0x1F NOT AND DUP3 ADD PUSH1 0x40 MSTORE PUSH3 0x8F5 SWAP2 SWAP1 DUP2 ADD SWAP1 PUSH3 0x3F7B JUMP JUMPDEST SWAP6 POP SWAP6 POP SWAP6 POP SWAP6 POP SWAP6 POP SWAP6 POP PUSH1 0x40 MLOAD DUP1 PUSH2 0x100 ADD PUSH1 0x40 MSTORE DUP1 DUP12 DUP2 MSTORE PUSH1 0x20 ADD DUP10 PUSH1 0x1 PUSH1 0x1 PUSH1 0xA0 SHL SUB AND DUP2 MSTORE PUSH1 0x20 ADD DUP8 PUSH1 0x1 PUSH1 0x1 PUSH1 0xA0 SHL SUB AND DUP2 MSTORE PUSH1 0x20 ADD DUP7 DUP2 MSTORE PUSH1 0x20 ADD DUP6 DUP2 MSTORE PUSH1 0x20 ADD DUP5 DUP2 MSTORE PUSH1 0x20 ADD DUP4 DUP2 MSTORE PUSH1 0x20 ADD DUP3 PUSH1 0x1 PUSH1 0x1 PUSH1 0xA0 SHL SUB AND DUP2 MSTORE POP SWAP9 POP POP POP POP POP POP POP POP POP SWAP2 SWAP1 POP JUMP JUMPDEST PUSH3 0x691 DUP4 DUP4 DUP4 PUSH1 0x40 MLOAD DUP1 PUSH1 0x20 ADD PUSH1 0x40 MSTORE DUP1 PUSH1 0x0 DUP2 MSTORE POP PUSH3 0x1574 JUMP JUMPDEST PUSH1 0x60 PUSH3 0x993 PUSH1 0x20 DUP4 ADD DUP4 PUSH3 0x4C52 JUMP JUMPDEST DUP1 DUP1 PUSH1 0x1F ADD PUSH1 0x20 DUP1 SWAP2 DIV MUL PUSH1 0x20 ADD PUSH1 0x40 MLOAD SWAP1 DUP2 ADD PUSH1 0x40 MSTORE DUP1 SWAP4 SWAP3 SWAP2 SWAP1 DUP2 DUP2 MSTORE PUSH1 0x20 ADD DUP4 DUP4 DUP1 DUP3 DUP5 CALLDATACOPY PUSH1 0x0 SWAP3 ADD SWAP2 SWAP1 SWAP2 MSTORE POP SWAP3 SWAP4 POP PUSH1 0x60 SWAP3 POP PUSH3 0x9DD SWAP2 POP POP PUSH1 0x40 DUP5 ADD DUP5 PUSH3 0x4C52 JUMP JUMPDEST DUP1 DUP1 PUSH1 0x1F ADD PUSH1 0x20 DUP1 SWAP2 DIV MUL PUSH1 0x20 ADD PUSH1 0x40 MLOAD SWAP1 DUP2 ADD PUSH1 0x40 MSTORE DUP1 SWAP4 SWAP3 SWAP2 SWAP1 DUP2 DUP2 MSTORE PUSH1 0x20 ADD DUP4 DUP4 DUP1 DUP3 DUP5 CALLDATACOPY PUSH1 0x0 SWAP3 ADD SWAP2 SWAP1 SWAP2 MSTORE POP POP DUP5 MLOAD SWAP3 SWAP4 POP POP POP PUSH3 0xA35 JUMPI PUSH1 0x40 MLOAD PUSH3 0x461BCD PUSH1 0xE5 SHL DUP2 MSTORE PUSH1 0x4 ADD PUSH3 0x5C9 SWAP1 PUSH3 0x4498 JUMP JUMPDEST PUSH1 0x0 DUP2 MLOAD GT PUSH3 0xA59 JUMPI PUSH1 0x40 MLOAD PUSH3 0x461BCD PUSH1 0xE5 SHL DUP2 MSTORE PUSH1 0x4 ADD PUSH3 0x5C9 SWAP1 PUSH3 0x4580 JUMP JUMPDEST DUP3 CALLDATALOAD PUSH3 0xA7A JUMPI PUSH1 0x40 MLOAD PUSH3 0x461BCD PUSH1 0xE5 SHL DUP2 MSTORE PUSH1 0x4 ADD PUSH3 0x5C9 SWAP1 PUSH3 0x4A77 JUMP JUMPDEST PUSH1 0x0 DUP4 PUSH1 0x60 ADD CALLDATALOAD GT PUSH3 0xAA1 JUMPI PUSH1 0x40 MLOAD PUSH3 0x461BCD PUSH1 0xE5 SHL DUP2 MSTORE PUSH1 0x4 ADD PUSH3 0x5C9 SWAP1 PUSH3 0x4A94 JUMP JUMPDEST PUSH1 0x0 PUSH3 0xAB5 PUSH1 0xC0 DUP6 ADD PUSH1 0xA0 DUP7 ADD PUSH3 0x3DF7 JUMP JUMPDEST PUSH1 0x1 PUSH1 0x1 PUSH1 0xA0 SHL SUB AND EQ ISZERO PUSH3 0xADF JUMPI PUSH1 0x40 MLOAD PUSH3 0x461BCD PUSH1 0xE5 SHL DUP2 MSTORE PUSH1 0x4 ADD PUSH3 0x5C9 SWAP1 PUSH3 0x48BD JUMP JUMPDEST PUSH1 0xF SLOAD PUSH1 0x1 PUSH1 0x1 PUSH1 0xA0 SHL SUB AND CALLER EQ PUSH3 0xB0C JUMPI PUSH1 0x40 MLOAD PUSH3 0x461BCD PUSH1 0xE5 SHL DUP2 MSTORE PUSH1 0x4 ADD PUSH3 0x5C9 SWAP1 PUSH3 0x46B9 JUMP JUMPDEST PUSH3 0xB19 CALLER DUP5 CALLDATALOAD PUSH3 0x1BE1 JUMP JUMPDEST PUSH1 0x0 PUSH3 0xB2A PUSH1 0x20 DUP6 ADD DUP6 PUSH3 0x4C52 JUMP JUMPDEST PUSH3 0xB39 PUSH1 0x40 DUP8 ADD DUP8 PUSH3 0x4C52 JUMP JUMPDEST PUSH1 0x60 DUP9 ADD CALLDATALOAD PUSH1 0x80 DUP10 ADD CALLDATALOAD PUSH3 0xB55 PUSH1 0xC0 DUP12 ADD PUSH1 0xA0 DUP13 ADD PUSH3 0x3DF7 JUMP JUMPDEST PUSH1 0x40 MLOAD PUSH3 0xB63 SWAP1 PUSH3 0x3CC3 JUMP JUMPDEST PUSH3 0xB75 SWAP8 SWAP7 SWAP6 SWAP5 SWAP4 SWAP3 SWAP2 SWAP1 PUSH3 0x442F JUMP JUMPDEST PUSH1 0x40 MLOAD DUP1 SWAP2 SUB SWAP1 PUSH1 0x0 CREATE DUP1 ISZERO DUP1 ISZERO PUSH3 0xB92 JUMPI RETURNDATASIZE PUSH1 0x0 DUP1 RETURNDATACOPY RETURNDATASIZE PUSH1 0x0 REVERT JUMPDEST POP SWAP4 CALLDATALOAD PUSH1 0x0 SWAP1 DUP2 MSTORE PUSH1 0xA PUSH1 0x20 MSTORE PUSH1 0x40 SWAP1 KECCAK256 DUP1 SLOAD PUSH1 0x1 PUSH1 0x1 PUSH1 0xA0 SHL SUB NOT AND PUSH1 0x1 PUSH1 0x1 PUSH1 0xA0 SHL SUB SWAP1 SWAP6 AND SWAP5 SWAP1 SWAP5 OR SWAP1 SWAP4 SSTORE POP POP POP JUMP JUMPDEST PUSH1 0x0 DUP1 PUSH3 0xBDC PUSH1 0x2 DUP5 PUSH4 0xFFFFFFFF PUSH3 0x1C01 AND JUMP JUMPDEST POP SWAP4 SWAP3 POP POP POP JUMP JUMPDEST PUSH3 0xBEE PUSH3 0x3CD1 JUMP JUMPDEST PUSH1 0x0 DUP3 DUP2 MSTORE PUSH1 0xC PUSH1 0x20 SWAP1 DUP2 MSTORE PUSH1 0x40 SWAP2 DUP3 SWAP1 KECCAK256 DUP3 MLOAD PUSH2 0x1E0 DUP2 ADD SWAP1 SWAP4 MSTORE DUP1 SLOAD PUSH2 0x1A0 DUP5 ADD SWAP1 DUP2 MSTORE PUSH1 0x1 DUP1 DUP4 ADD SLOAD PUSH2 0x1C0 DUP7 ADD MSTORE SWAP1 DUP5 MSTORE PUSH1 0x2 DUP3 ADD SLOAD SWAP2 SWAP3 DUP5 ADD SWAP2 PUSH1 0xFF AND SWAP1 DUP2 GT ISZERO PUSH3 0xC3B JUMPI INVALID JUMPDEST PUSH1 0x1 DUP2 GT ISZERO PUSH3 0xC47 JUMPI INVALID JUMPDEST DUP2 MSTORE PUSH1 0x20 ADD PUSH1 0x2 DUP3 ADD PUSH1 0x1 SWAP1 SLOAD SWAP1 PUSH2 0x100 EXP SWAP1 DIV PUSH1 0xFF AND PUSH1 0x4 DUP2 GT ISZERO PUSH3 0xC6A JUMPI INVALID JUMPDEST PUSH1 0x4 DUP2 GT ISZERO PUSH3 0xC76 JUMPI INVALID JUMPDEST DUP2 MSTORE PUSH1 0x2 DUP3 ADD SLOAD PUSH1 0x1 PUSH1 0x1 PUSH1 0xA0 SHL SUB PUSH3 0x10000 SWAP1 SWAP2 DIV DUP2 AND PUSH1 0x20 DUP4 ADD MSTORE PUSH1 0x3 DUP1 DUP5 ADD SLOAD SWAP1 SWAP2 AND PUSH1 0x40 DUP4 ADD MSTORE PUSH1 0x4 DUP4 ADD SLOAD PUSH1 0x60 DUP4 ADD MSTORE PUSH1 0x5 DUP4 ADD SLOAD PUSH1 0x80 DUP4 ADD MSTORE PUSH1 0x6 DUP4 ADD SLOAD PUSH1 0xA0 DUP4 ADD MSTORE PUSH1 0x7 DUP4 ADD SLOAD PUSH1 0xC0 DUP4 ADD MSTORE PUSH1 0x8 DUP4 ADD SLOAD PUSH1 0xE0 SWAP1 SWAP3 ADD SWAP2 PUSH1 0xFF AND SWAP1 DUP2 GT ISZERO PUSH3 0xCE2 JUMPI INVALID JUMPDEST PUSH1 0x3 DUP2 GT ISZERO PUSH3 0xCEE JUMPI INVALID JUMPDEST DUP2 MSTORE PUSH1 0x9 DUP3 ADD SLOAD PUSH1 0x20 DUP3 ADD MSTORE PUSH1 0xA DUP3 ADD SLOAD PUSH1 0x40 DUP3 ADD MSTORE PUSH1 0xB SWAP1 SWAP2 ADD SLOAD PUSH1 0x60 SWAP1 SWAP2 ADD MSTORE SWAP3 SWAP2 POP POP JUMP JUMPDEST PUSH1 0x0 PUSH3 0x4FD DUP3 PUSH1 0x40 MLOAD DUP1 PUSH1 0x60 ADD PUSH1 0x40 MSTORE DUP1 PUSH1 0x29 DUP2 MSTORE PUSH1 0x20 ADD PUSH3 0x5EEA PUSH1 0x29 SWAP2 CODECOPY PUSH1 0x2 SWAP2 SWAP1 PUSH4 0xFFFFFFFF PUSH3 0x1C21 AND JUMP JUMPDEST PUSH1 0x9 DUP1 SLOAD PUSH1 0x40 DUP1 MLOAD PUSH1 0x20 PUSH1 0x1F PUSH1 0x2 PUSH1 0x0 NOT PUSH2 0x100 PUSH1 0x1 DUP9 AND ISZERO MUL ADD SWAP1 SWAP6 AND SWAP5 SWAP1 SWAP5 DIV SWAP4 DUP5 ADD DUP2 SWAP1 DIV DUP2 MUL DUP3 ADD DUP2 ADD SWAP1 SWAP3 MSTORE DUP3 DUP2 MSTORE PUSH1 0x60 SWAP4 SWAP1 SWAP3 SWAP1 SWAP2 DUP4 ADD DUP3 DUP3 DUP1 ISZERO PUSH3 0x593 JUMPI DUP1 PUSH1 0x1F LT PUSH3 0x567 JUMPI PUSH2 0x100 DUP1 DUP4 SLOAD DIV MUL DUP4 MSTORE SWAP2 PUSH1 0x20 ADD SWAP2 PUSH3 0x593 JUMP JUMPDEST PUSH1 0x0 PUSH1 0x1 PUSH1 0x1 PUSH1 0xA0 SHL SUB DUP3 AND PUSH3 0xDD6 JUMPI PUSH1 0x40 MLOAD PUSH3 0x461BCD PUSH1 0xE5 SHL DUP2 MSTORE PUSH1 0x4 ADD PUSH3 0x5C9 SWAP1 PUSH3 0x4733 JUMP JUMPDEST PUSH1 0x1 PUSH1 0x1 PUSH1 0xA0 SHL SUB DUP3 AND PUSH1 0x0 SWAP1 DUP2 MSTORE PUSH1 0x1 PUSH1 0x20 MSTORE PUSH1 0x40 SWAP1 KECCAK256 PUSH3 0x4FD SWAP1 PUSH3 0x1A0A JUMP JUMPDEST PUSH1 0x0 DUP2 PUSH1 0x80 ADD CALLDATALOAD GT PUSH3 0xE20 JUMPI PUSH1 0x40 MLOAD PUSH3 0x461BCD PUSH1 0xE5 SHL DUP2 MSTORE PUSH1 0x4 ADD PUSH3 0x5C9 SWAP1 PUSH3 0x469B JUMP JUMPDEST PUSH1 0x0 DUP2 PUSH1 0x40 ADD CALLDATALOAD GT PUSH3 0xE47 JUMPI PUSH1 0x40 MLOAD PUSH3 0x461BCD PUSH1 0xE5 SHL DUP2 MSTORE PUSH1 0x4 ADD PUSH3 0x5C9 SWAP1 PUSH3 0x479C JUMP JUMPDEST PUSH1 0x0 DUP2 PUSH1 0x60 ADD CALLDATALOAD GT PUSH3 0xE6E JUMPI PUSH1 0x40 MLOAD PUSH3 0x461BCD PUSH1 0xE5 SHL DUP2 MSTORE PUSH1 0x4 ADD PUSH3 0x5C9 SWAP1 PUSH3 0x4A59 JUMP JUMPDEST PUSH1 0x0 DUP1 DUP1 PUSH3 0xE81 PUSH1 0x20 DUP6 ADD DUP6 PUSH3 0x40E6 JUMP JUMPDEST PUSH1 0x1 DUP2 GT ISZERO PUSH3 0xE8D JUMPI INVALID JUMPDEST EQ ISZERO PUSH3 0xFC7 JUMPI POP PUSH1 0x0 SWAP1 POP CALLER DUP2 PUSH3 0xEB5 PUSH1 0x40 DUP6 ADD CALLDATALOAD PUSH1 0x60 DUP7 ADD CALLDATALOAD PUSH4 0xFFFFFFFF PUSH3 0x1C38 AND JUMP JUMPDEST PUSH1 0xB SLOAD PUSH1 0x40 MLOAD PUSH4 0x6EB1769F PUSH1 0xE1 SHL DUP2 MSTORE SWAP2 SWAP3 POP PUSH1 0x0 SWAP2 PUSH1 0x1 PUSH1 0x1 PUSH1 0xA0 SHL SUB SWAP1 SWAP2 AND SWAP1 PUSH4 0xDD62ED3E SWAP1 PUSH3 0xEEF SWAP1 DUP7 SWAP1 ADDRESS SWAP1 PUSH1 0x4 ADD PUSH3 0x4318 JUMP JUMPDEST PUSH1 0x20 PUSH1 0x40 MLOAD DUP1 DUP4 SUB DUP2 DUP7 DUP1 EXTCODESIZE ISZERO DUP1 ISZERO PUSH3 0xF08 JUMPI PUSH1 0x0 DUP1 REVERT JUMPDEST POP GAS STATICCALL ISZERO DUP1 ISZERO PUSH3 0xF1D JUMPI RETURNDATASIZE PUSH1 0x0 DUP1 RETURNDATACOPY RETURNDATASIZE PUSH1 0x0 REVERT JUMPDEST POP POP POP POP PUSH1 0x40 MLOAD RETURNDATASIZE PUSH1 0x1F NOT PUSH1 0x1F DUP3 ADD AND DUP3 ADD DUP1 PUSH1 0x40 MSTORE POP DUP2 ADD SWAP1 PUSH3 0xF43 SWAP2 SWAP1 PUSH3 0x4107 JUMP JUMPDEST SWAP1 POP DUP2 DUP2 LT PUSH3 0xFA5 JUMPI PUSH3 0xF5B DUP4 DUP4 PUSH1 0x0 PUSH3 0x1C78 JUMP JUMPDEST PUSH1 0x1 PUSH1 0x1 PUSH1 0xA0 SHL SUB DUP4 AND PUSH1 0x0 SWAP1 DUP2 MSTORE PUSH1 0x10 PUSH1 0x20 MSTORE PUSH1 0x40 SWAP1 KECCAK256 SLOAD PUSH3 0xF86 SWAP1 DUP4 PUSH4 0xFFFFFFFF PUSH3 0x1E0F AND JUMP JUMPDEST PUSH1 0x1 PUSH1 0x1 PUSH1 0xA0 SHL SUB DUP5 AND PUSH1 0x0 SWAP1 DUP2 MSTORE PUSH1 0x10 PUSH1 0x20 MSTORE PUSH1 0x40 SWAP1 KECCAK256 SSTORE PUSH3 0xFBF JUMP JUMPDEST PUSH1 0x40 MLOAD PUSH3 0x461BCD PUSH1 0xE5 SHL DUP2 MSTORE PUSH1 0x4 ADD PUSH3 0x5C9 SWAP1 PUSH3 0x4AB1 JUMP JUMPDEST POP POP PUSH3 0x10B7 JUMP JUMPDEST PUSH1 0x1 PUSH3 0xFD8 PUSH1 0x20 DUP6 ADD DUP6 PUSH3 0x40E6 JUMP JUMPDEST PUSH1 0x1 DUP2 GT ISZERO PUSH3 0xFE4 JUMPI INVALID JUMPDEST EQ ISZERO PUSH3 0x10B7 JUMPI POP POP PUSH1 0x80 DUP2 ADD CALLDATALOAD PUSH1 0x0 SWAP1 DUP2 MSTORE PUSH1 0xA PUSH1 0x20 MSTORE PUSH1 0x40 DUP1 DUP3 KECCAK256 SLOAD SWAP1 MLOAD PUSH4 0x6EB1769F PUSH1 0xE1 SHL DUP2 MSTORE CALLER SWAP3 SWAP2 PUSH1 0x1 PUSH1 0x1 PUSH1 0xA0 SHL SUB AND SWAP1 DUP3 SWAP1 DUP3 SWAP1 PUSH4 0xDD62ED3E SWAP1 PUSH3 0x1037 SWAP1 DUP8 SWAP1 ADDRESS SWAP1 PUSH1 0x4 ADD PUSH3 0x4318 JUMP JUMPDEST PUSH1 0x20 PUSH1 0x40 MLOAD DUP1 DUP4 SUB DUP2 DUP7 DUP1 EXTCODESIZE ISZERO DUP1 ISZERO PUSH3 0x1050 JUMPI PUSH1 0x0 DUP1 REVERT JUMPDEST POP GAS STATICCALL ISZERO DUP1 ISZERO PUSH3 0x1065 JUMPI RETURNDATASIZE PUSH1 0x0 DUP1 RETURNDATACOPY RETURNDATASIZE PUSH1 0x0 REVERT JUMPDEST POP POP POP POP PUSH1 0x40 MLOAD RETURNDATASIZE PUSH1 0x1F NOT PUSH1 0x1F DUP3 ADD AND DUP3 ADD DUP1 PUSH1 0x40 MSTORE POP DUP2 ADD SWAP1 PUSH3 0x108B SWAP2 SWAP1 PUSH3 0x4107 JUMP JUMPDEST SWAP1 POP DUP5 PUSH1 0x40 ADD CALLDATALOAD DUP2 LT ISZERO PUSH3 0x10B4 JUMPI PUSH1 0x40 MLOAD PUSH3 0x461BCD PUSH1 0xE5 SHL DUP2 MSTORE PUSH1 0x4 ADD PUSH3 0x5C9 SWAP1 PUSH3 0x477D JUMP JUMPDEST POP POP JUMPDEST PUSH3 0x10C1 PUSH3 0x3D5F JUMP JUMPDEST POP PUSH1 0x40 DUP1 MLOAD DUP1 DUP3 ADD SWAP1 SWAP2 MSTORE PUSH1 0xC0 DUP5 ADD CALLDATALOAD DUP2 MSTORE TIMESTAMP PUSH1 0x20 DUP3 ADD MSTORE PUSH3 0x10E3 PUSH3 0x3CD1 JUMP JUMPDEST PUSH1 0x40 DUP1 MLOAD PUSH2 0x1A0 DUP2 ADD SWAP1 SWAP2 MSTORE DUP3 DUP2 MSTORE PUSH1 0x20 DUP1 DUP3 ADD SWAP1 PUSH3 0x1106 SWAP1 DUP9 ADD DUP9 PUSH3 0x40E6 JUMP JUMPDEST PUSH1 0x1 DUP2 GT ISZERO PUSH3 0x1112 JUMPI INVALID JUMPDEST DUP2 MSTORE PUSH1 0x20 ADD DUP7 PUSH1 0x20 ADD PUSH1 0x20 DUP2 ADD SWAP1 PUSH3 0x112C SWAP2 SWAP1 PUSH3 0x40C5 JUMP JUMPDEST PUSH1 0x4 DUP2 GT ISZERO PUSH3 0x1138 JUMPI INVALID JUMPDEST DUP2 MSTORE PUSH1 0x20 ADD DUP6 PUSH1 0x1 PUSH1 0x1 PUSH1 0xA0 SHL SUB AND DUP2 MSTORE PUSH1 0x20 ADD DUP5 PUSH1 0x1 PUSH1 0x1 PUSH1 0xA0 SHL SUB AND DUP2 MSTORE PUSH1 0x20 ADD DUP7 PUSH1 0x80 ADD CALLDATALOAD DUP2 MSTORE PUSH1 0x20 ADD DUP7 PUSH1 0x40 ADD CALLDATALOAD DUP2 MSTORE PUSH1 0x20 ADD DUP7 PUSH1 0x40 ADD CALLDATALOAD DUP2 MSTORE PUSH1 0x20 ADD DUP7 PUSH1 0x60 ADD CALLDATALOAD DUP2 MSTORE PUSH1 0x20 ADD PUSH1 0x0 PUSH1 0x3 DUP2 GT ISZERO PUSH3 0x1191 JUMPI INVALID JUMPDEST DUP2 MSTORE PUSH1 0x20 ADD TIMESTAMP DUP2 MSTORE PUSH1 0x20 ADD TIMESTAMP DUP2 MSTORE PUSH1 0x20 ADD DUP7 PUSH1 0xA0 ADD CALLDATALOAD DUP2 MSTORE POP SWAP1 POP DUP1 PUSH1 0xC PUSH1 0x0 DUP8 PUSH1 0xC0 ADD CALLDATALOAD DUP2 MSTORE PUSH1 0x20 ADD SWAP1 DUP2 MSTORE PUSH1 0x20 ADD PUSH1 0x0 KECCAK256 PUSH1 0x0 DUP3 ADD MLOAD DUP2 PUSH1 0x0 ADD PUSH1 0x0 DUP3 ADD MLOAD DUP2 PUSH1 0x0 ADD SSTORE PUSH1 0x20 DUP3 ADD MLOAD DUP2 PUSH1 0x1 ADD SSTORE POP POP PUSH1 0x20 DUP3 ADD MLOAD DUP2 PUSH1 0x2 ADD PUSH1 0x0 PUSH2 0x100 EXP DUP2 SLOAD DUP2 PUSH1 0xFF MUL NOT AND SWAP1 DUP4 PUSH1 0x1 DUP2 GT ISZERO PUSH3 0x1208 JUMPI INVALID JUMPDEST MUL OR SWAP1 SSTORE POP PUSH1 0x40 DUP3 ADD MLOAD PUSH1 0x2 DUP3 ADD DUP1 SLOAD PUSH2 0xFF00 NOT AND PUSH2 0x100 DUP4 PUSH1 0x4 DUP2 GT ISZERO PUSH3 0x122D JUMPI INVALID JUMPDEST MUL OR SWAP1 SSTORE POP PUSH1 0x60 DUP3 ADD MLOAD PUSH1 0x2 DUP3 ADD DUP1 SLOAD PUSH3 0x10000 PUSH1 0x1 PUSH1 0xB0 SHL SUB NOT AND PUSH3 0x10000 PUSH1 0x1 PUSH1 0x1 PUSH1 0xA0 SHL SUB SWAP4 DUP5 AND MUL OR SWAP1 SSTORE PUSH1 0x80 DUP4 ADD MLOAD PUSH1 0x3 DUP1 DUP5 ADD DUP1 SLOAD PUSH1 0x1 PUSH1 0x1 PUSH1 0xA0 SHL SUB NOT AND SWAP3 SWAP1 SWAP4 AND SWAP2 SWAP1 SWAP2 OR SWAP1 SWAP2 SSTORE PUSH1 0xA0 DUP4 ADD MLOAD PUSH1 0x4 DUP4 ADD SSTORE PUSH1 0xC0 DUP4 ADD MLOAD PUSH1 0x5 DUP4 ADD SSTORE PUSH1 0xE0 DUP4 ADD MLOAD PUSH1 0x6 DUP4 ADD SSTORE PUSH2 0x100 DUP4 ADD MLOAD PUSH1 0x7 DUP4 ADD SSTORE PUSH2 0x120 DUP4 ADD MLOAD PUSH1 0x8 DUP4 ADD DUP1 SLOAD SWAP2 SWAP3 SWAP1 SWAP2 PUSH1 0xFF NOT AND SWAP1 PUSH1 0x1 SWAP1 DUP5 SWAP1 DUP2 GT ISZERO PUSH3 0x12CA JUMPI INVALID JUMPDEST MUL OR SWAP1 SSTORE POP PUSH2 0x140 DUP3 ADD MLOAD DUP2 PUSH1 0x9 ADD SSTORE PUSH2 0x160 DUP3 ADD MLOAD DUP2 PUSH1 0xA ADD SSTORE PUSH2 0x180 DUP3 ADD MLOAD DUP2 PUSH1 0xB ADD SSTORE SWAP1 POP POP PUSH3 0x1311 DUP2 PUSH1 0x0 ADD MLOAD DUP3 PUSH1 0x20 ADD MLOAD DUP4 PUSH1 0x80 ADD MLOAD DUP5 PUSH1 0x60 ADD MLOAD PUSH3 0x1E37 JUMP JUMPDEST PUSH3 0x131C DUP2 PUSH3 0x20B5 JUMP JUMPDEST POP POP POP POP POP JUMP JUMPDEST PUSH1 0x0 DUP4 DUP2 MSTORE PUSH1 0xA PUSH1 0x20 MSTORE PUSH1 0x40 SWAP1 DUP2 SWAP1 KECCAK256 SLOAD SWAP1 MLOAD PUSH4 0x23B872DD PUSH1 0xE0 SHL DUP2 MSTORE PUSH1 0x1 PUSH1 0x1 PUSH1 0xA0 SHL SUB SWAP1 SWAP2 AND SWAP1 PUSH4 0x23B872DD SWAP1 PUSH3 0x1366 SWAP1 CALLER SWAP1 DUP7 SWAP1 DUP7 SWAP1 PUSH1 0x4 ADD PUSH3 0x4332 JUMP JUMPDEST PUSH1 0x20 PUSH1 0x40 MLOAD DUP1 DUP4 SUB DUP2 PUSH1 0x0 DUP8 DUP1 EXTCODESIZE ISZERO DUP1 ISZERO PUSH3 0x1381 JUMPI PUSH1 0x0 DUP1 REVERT JUMPDEST POP GAS CALL ISZERO DUP1 ISZERO PUSH3 0x1396 JUMPI RETURNDATASIZE PUSH1 0x0 DUP1 RETURNDATACOPY RETURNDATASIZE PUSH1 0x0 REVERT JUMPDEST POP POP POP POP PUSH1 0x40 MLOAD RETURNDATASIZE PUSH1 0x1F NOT PUSH1 0x1F DUP3 ADD AND DUP3 ADD DUP1 PUSH1 0x40 MSTORE POP DUP2 ADD SWAP1 PUSH3 0x13BC SWAP2 SWAP1 PUSH3 0x404F JUMP JUMPDEST POP PUSH1 0x0 DUP4 DUP2 MSTORE PUSH1 0xA PUSH1 0x20 MSTORE PUSH1 0x40 SWAP1 DUP2 SWAP1 KECCAK256 SLOAD SWAP1 MLOAD PUSH4 0x363798F9 PUSH1 0xE1 SHL DUP2 MSTORE PUSH1 0x1 PUSH1 0x1 PUSH1 0xA0 SHL SUB SWAP1 SWAP2 AND SWAP1 PUSH4 0x6C6F31F2 SWAP1 PUSH3 0x13FE SWAP1 DUP6 SWAP1 DUP6 SWAP1 PUSH1 0x4 ADD PUSH3 0x4395 JUMP JUMPDEST PUSH1 0x0 PUSH1 0x40 MLOAD DUP1 DUP4 SUB DUP2 PUSH1 0x0 DUP8 DUP1 EXTCODESIZE ISZERO DUP1 ISZERO PUSH3 0x1419 JUMPI PUSH1 0x0 DUP1 REVERT JUMPDEST POP GAS CALL ISZERO DUP1 ISZERO PUSH3 0x142E JUMPI RETURNDATASIZE PUSH1 0x0 DUP1 RETURNDATACOPY RETURNDATASIZE PUSH1 0x0 REVERT JUMPDEST POP POP POP POP POP POP POP JUMP JUMPDEST PUSH1 0x7 DUP1 SLOAD PUSH1 0x40 DUP1 MLOAD PUSH1 0x20 PUSH1 0x1F PUSH1 0x2 PUSH1 0x0 NOT PUSH2 0x100 PUSH1 0x1 DUP9 AND ISZERO MUL ADD SWAP1 SWAP6 AND SWAP5 SWAP1 SWAP5 DIV SWAP4 DUP5 ADD DUP2 SWAP1 DIV DUP2 MUL DUP3 ADD DUP2 ADD SWAP1 SWAP3 MSTORE DUP3 DUP2 MSTORE PUSH1 0x60 SWAP4 SWAP1 SWAP3 SWAP1 SWAP2 DUP4 ADD DUP3 DUP3 DUP1 ISZERO PUSH3 0x593 JUMPI DUP1 PUSH1 0x1F LT PUSH3 0x567 JUMPI PUSH2 0x100 DUP1 DUP4 SLOAD DIV MUL DUP4 MSTORE SWAP2 PUSH1 0x20 ADD SWAP2 PUSH3 0x593 JUMP JUMPDEST PUSH3 0x14A5 PUSH3 0x1996 JUMP JUMPDEST PUSH1 0x1 PUSH1 0x1 PUSH1 0xA0 SHL SUB AND DUP3 PUSH1 0x1 PUSH1 0x1 PUSH1 0xA0 SHL SUB AND EQ ISZERO PUSH3 0x14D9 JUMPI PUSH1 0x40 MLOAD PUSH3 0x461BCD PUSH1 0xE5 SHL DUP2 MSTORE PUSH1 0x4 ADD PUSH3 0x5C9 SWAP1 PUSH3 0x4618 JUMP JUMPDEST DUP1 PUSH1 0x5 PUSH1 0x0 PUSH3 0x14E8 PUSH3 0x1996 JUMP JUMPDEST PUSH1 0x1 PUSH1 0x1 PUSH1 0xA0 SHL SUB SWAP1 DUP2 AND DUP3 MSTORE PUSH1 0x20 DUP1 DUP4 ADD SWAP4 SWAP1 SWAP4 MSTORE PUSH1 0x40 SWAP2 DUP3 ADD PUSH1 0x0 SWAP1 DUP2 KECCAK256 SWAP2 DUP8 AND DUP1 DUP3 MSTORE SWAP2 SWAP1 SWAP4 MSTORE SWAP2 KECCAK256 DUP1 SLOAD PUSH1 0xFF NOT AND SWAP3 ISZERO ISZERO SWAP3 SWAP1 SWAP3 OR SWAP1 SWAP2 SSTORE PUSH3 0x152E PUSH3 0x1996 JUMP JUMPDEST PUSH1 0x1 PUSH1 0x1 PUSH1 0xA0 SHL SUB AND PUSH32 0x17307EAB39AB6107E8899845AD3D59BD9653F200F220920489CA2B5937696C31 DUP4 PUSH1 0x40 MLOAD PUSH3 0x1568 SWAP2 SWAP1 PUSH3 0x4424 JUMP JUMPDEST PUSH1 0x40 MLOAD DUP1 SWAP2 SUB SWAP1 LOG3 POP POP JUMP JUMPDEST PUSH3 0x1589 PUSH3 0x1582 PUSH3 0x1996 JUMP JUMPDEST DUP4 PUSH3 0x1A17 JUMP JUMPDEST PUSH3 0x15A8 JUMPI PUSH1 0x40 MLOAD PUSH3 0x461BCD PUSH1 0xE5 SHL DUP2 MSTORE PUSH1 0x4 ADD PUSH3 0x5C9 SWAP1 PUSH3 0x49D1 JUMP JUMPDEST PUSH3 0x15B6 DUP5 DUP5 DUP5 DUP5 PUSH3 0x2897 JUMP JUMPDEST POP POP POP POP JUMP JUMPDEST PUSH1 0x60 PUSH3 0x15C9 DUP3 PUSH3 0x1981 JUMP JUMPDEST PUSH3 0x15E8 JUMPI PUSH1 0x40 MLOAD PUSH3 0x461BCD PUSH1 0xE5 SHL DUP2 MSTORE PUSH1 0x4 ADD PUSH3 0x5C9 SWAP1 PUSH3 0x4923 JUMP JUMPDEST PUSH1 0x0 DUP3 DUP2 MSTORE PUSH1 0x8 PUSH1 0x20 SWAP1 DUP2 MSTORE PUSH1 0x40 SWAP2 DUP3 SWAP1 KECCAK256 DUP1 SLOAD DUP4 MLOAD PUSH1 0x1F PUSH1 0x2 PUSH1 0x0 NOT PUSH2 0x100 PUSH1 0x1 DUP7 AND ISZERO MUL ADD SWAP1 SWAP4 AND SWAP3 SWAP1 SWAP3 DIV SWAP2 DUP3 ADD DUP5 SWAP1 DIV DUP5 MUL DUP2 ADD DUP5 ADD SWAP1 SWAP5 MSTORE DUP1 DUP5 MSTORE PUSH1 0x60 SWAP4 SWAP3 DUP4 ADD DUP3 DUP3 DUP1 ISZERO PUSH3 0x1681 JUMPI DUP1 PUSH1 0x1F LT PUSH3 0x1655 JUMPI PUSH2 0x100 DUP1 DUP4 SLOAD DIV MUL DUP4 MSTORE SWAP2 PUSH1 0x20 ADD SWAP2 PUSH3 0x1681 JUMP JUMPDEST DUP3 ADD SWAP2 SWAP1 PUSH1 0x0 MSTORE PUSH1 0x20 PUSH1 0x0 KECCAK256 SWAP1 JUMPDEST DUP2 SLOAD DUP2 MSTORE SWAP1 PUSH1 0x1 ADD SWAP1 PUSH1 0x20 ADD DUP1 DUP4 GT PUSH3 0x1663 JUMPI DUP3 SWAP1 SUB PUSH1 0x1F AND DUP3 ADD SWAP2 JUMPDEST POP POP PUSH1 0x9 SLOAD SWAP4 SWAP5 POP POP POP POP PUSH1 0x2 PUSH1 0x0 NOT PUSH2 0x100 PUSH1 0x1 DUP5 AND ISZERO MUL ADD SWAP1 SWAP2 AND DIV PUSH3 0x16AC JUMPI SWAP1 POP PUSH3 0x45E JUMP JUMPDEST DUP1 MLOAD ISZERO PUSH3 0x16E2 JUMPI PUSH1 0x9 DUP2 PUSH1 0x40 MLOAD PUSH1 0x20 ADD PUSH3 0x16CA SWAP3 SWAP2 SWAP1 PUSH3 0x427B JUMP JUMPDEST PUSH1 0x40 MLOAD PUSH1 0x20 DUP2 DUP4 SUB SUB DUP2 MSTORE SWAP1 PUSH1 0x40 MSTORE SWAP2 POP POP PUSH3 0x45E JUMP JUMPDEST PUSH1 0x9 PUSH3 0x16EF DUP5 PUSH3 0x28D1 JUMP JUMPDEST PUSH1 0x40 MLOAD PUSH1 0x20 ADD PUSH3 0x1702 SWAP3 SWAP2 SWAP1 PUSH3 0x427B JUMP JUMPDEST PUSH1 0x40 MLOAD PUSH1 0x20 DUP2 DUP4 SUB SUB DUP2 MSTORE SWAP1 PUSH1 0x40 MSTORE SWAP2 POP POP SWAP2 SWAP1 POP JUMP JUMPDEST PUSH1 0xB SLOAD PUSH1 0x40 MLOAD PUSH4 0x6EB1769F PUSH1 0xE1 SHL DUP2 MSTORE PUSH1 0x0 SWAP2 PUSH1 0x1 PUSH1 0x1 PUSH1 0xA0 SHL SUB AND SWAP1 PUSH4 0xDD62ED3E SWAP1 PUSH3 0x174E SWAP1 DUP6 SWAP1 ADDRESS SWAP1 PUSH1 0x4 ADD PUSH3 0x4318 JUMP JUMPDEST PUSH1 0x20 PUSH1 0x40 MLOAD DUP1 DUP4 SUB DUP2 DUP7 DUP1 EXTCODESIZE ISZERO DUP1 ISZERO PUSH3 0x1767 JUMPI PUSH1 0x0 DUP1 REVERT JUMPDEST POP GAS STATICCALL ISZERO DUP1 ISZERO PUSH3 0x177C JUMPI RETURNDATASIZE PUSH1 0x0 DUP1 RETURNDATACOPY RETURNDATASIZE PUSH1 0x0 REVERT JUMPDEST POP POP POP POP PUSH1 0x40 MLOAD RETURNDATASIZE PUSH1 0x1F NOT PUSH1 0x1F DUP3 ADD AND DUP3 ADD DUP1 PUSH1 0x40 MSTORE POP DUP2 ADD SWAP1 PUSH3 0x4FD SWAP2 SWAP1 PUSH3 0x4107 JUMP JUMPDEST PUSH1 0x1 PUSH1 0x1 PUSH1 0xA0 SHL SUB SWAP2 DUP3 AND PUSH1 0x0 SWAP1 DUP2 MSTORE PUSH1 0x5 PUSH1 0x20 SWAP1 DUP2 MSTORE PUSH1 0x40 DUP1 DUP4 KECCAK256 SWAP4 SWAP1 SWAP5 AND DUP3 MSTORE SWAP2 SWAP1 SWAP2 MSTORE KECCAK256 SLOAD PUSH1 0xFF AND SWAP1 JUMP JUMPDEST PUSH1 0x0 DUP3 DUP2 MSTORE PUSH1 0xA PUSH1 0x20 MSTORE PUSH1 0x40 DUP1 DUP3 KECCAK256 SLOAD SWAP1 MLOAD PUSH4 0x6EB1769F PUSH1 0xE1 SHL DUP2 MSTORE PUSH1 0x1 PUSH1 0x1 PUSH1 0xA0 SHL SUB SWAP1 SWAP2 AND SWAP1 PUSH4 0xDD62ED3E SWAP1 PUSH3 0x1810 SWAP1 CALLER SWAP1 ADDRESS SWAP1 PUSH1 0x4 ADD PUSH3 0x4318 JUMP JUMPDEST PUSH1 0x20 PUSH1 0x40 MLOAD DUP1 DUP4 SUB DUP2 DUP7 DUP1 EXTCODESIZE ISZERO DUP1 ISZERO PUSH3 0x1829 JUMPI PUSH1 0x0 DUP1 REVERT JUMPDEST POP GAS STATICCALL ISZERO DUP1 ISZERO PUSH3 0x183E JUMPI RETURNDATASIZE PUSH1 0x0 DUP1 RETURNDATACOPY RETURNDATASIZE PUSH1 0x0 REVERT JUMPDEST POP POP POP POP PUSH1 0x40 MLOAD RETURNDATASIZE PUSH1 0x1F NOT PUSH1 0x1F DUP3 ADD AND DUP3 ADD DUP1 PUSH1 0x40 MSTORE POP DUP2 ADD SWAP1 PUSH3 0x1864 SWAP2 SWAP1 PUSH3 0x4107 JUMP JUMPDEST PUSH1 0x0 DUP5 DUP2 MSTORE PUSH1 0xA PUSH1 0x20 MSTORE PUSH1 0x40 SWAP1 DUP2 SWAP1 KECCAK256 SLOAD SWAP1 MLOAD PUSH4 0x23B872DD PUSH1 0xE0 SHL DUP2 MSTORE SWAP2 SWAP3 POP PUSH1 0x1 PUSH1 0x1 PUSH1 0xA0 SHL SUB AND SWAP1 PUSH4 0x23B872DD SWAP1 PUSH3 0x18A8 SWAP1 CALLER SWAP1 DUP7 SWAP1 DUP7 SWAP1 PUSH1 0x4 ADD PUSH3 0x4332 JUMP JUMPDEST PUSH1 0x20 PUSH1 0x40 MLOAD DUP1 DUP4 SUB DUP2 PUSH1 0x0 DUP8 DUP1 EXTCODESIZE ISZERO DUP1 ISZERO PUSH3 0x18C3 JUMPI PUSH1 0x0 DUP1 REVERT JUMPDEST POP GAS CALL ISZERO DUP1 ISZERO PUSH3 0x18D8 JUMPI RETURNDATASIZE PUSH1 0x0 DUP1 RETURNDATACOPY RETURNDATASIZE PUSH1 0x0 REVERT JUMPDEST POP POP POP POP PUSH1 0x40 MLOAD RETURNDATASIZE PUSH1 0x1F NOT PUSH1 0x1F DUP3 ADD AND DUP3 ADD DUP1 PUSH1 0x40 MSTORE POP DUP2 ADD SWAP1 PUSH3 0x18FE SWAP2 SWAP1 PUSH3 0x404F JUMP JUMPDEST POP PUSH1 0x0 DUP4 DUP2 MSTORE PUSH1 0xA PUSH1 0x20 MSTORE PUSH1 0x40 SWAP1 DUP2 SWAP1 KECCAK256 SLOAD SWAP1 MLOAD PUSH4 0x363798F9 PUSH1 0xE1 SHL DUP2 MSTORE PUSH1 0x1 PUSH1 0x1 PUSH1 0xA0 SHL SUB SWAP1 SWAP2 AND SWAP1 PUSH4 0x6C6F31F2 SWAP1 PUSH3 0x1940 SWAP1 DUP6 SWAP1 DUP6 SWAP1 PUSH1 0x4 ADD PUSH3 0x4395 JUMP JUMPDEST PUSH1 0x0 PUSH1 0x40 MLOAD DUP1 DUP4 SUB DUP2 PUSH1 0x0 DUP8 DUP1 EXTCODESIZE ISZERO DUP1 ISZERO PUSH3 0x195B JUMPI PUSH1 0x0 DUP1 REVERT JUMPDEST POP GAS CALL ISZERO DUP1 ISZERO PUSH3 0x1970 JUMPI RETURNDATASIZE PUSH1 0x0 DUP1 RETURNDATACOPY RETURNDATASIZE PUSH1 0x0 REVERT JUMPDEST POP POP POP POP PUSH3 0x691 CALLER DUP4 DUP6 PUSH3 0x965 JUMP JUMPDEST PUSH1 0x0 PUSH3 0x4FD PUSH1 0x2 DUP4 PUSH4 0xFFFFFFFF PUSH3 0x29B5 AND JUMP JUMPDEST CALLER SWAP1 JUMP JUMPDEST PUSH1 0x0 DUP2 DUP2 MSTORE PUSH1 0x4 PUSH1 0x20 MSTORE PUSH1 0x40 SWAP1 KECCAK256 DUP1 SLOAD PUSH1 0x1 PUSH1 0x1 PUSH1 0xA0 SHL SUB NOT AND PUSH1 0x1 PUSH1 0x1 PUSH1 0xA0 SHL SUB DUP5 AND SWAP1 DUP2 OR SWAP1 SWAP2 SSTORE DUP2 SWAP1 PUSH3 0x19D1 DUP3 PUSH3 0xD16 JUMP JUMPDEST PUSH1 0x1 PUSH1 0x1 PUSH1 0xA0 SHL SUB AND PUSH32 0x8C5BE1E5EBEC7D5BD14F71427D1E84F3DD0314C0F7B2291E5B200AC8C7C3B925 PUSH1 0x40 MLOAD PUSH1 0x40 MLOAD DUP1 SWAP2 SUB SWAP1 LOG4 POP POP JUMP JUMPDEST PUSH1 0x0 PUSH3 0x4FD DUP3 PUSH3 0x29C3 JUMP JUMPDEST PUSH1 0x0 PUSH3 0x1A24 DUP3 PUSH3 0x1981 JUMP JUMPDEST PUSH3 0x1A43 JUMPI PUSH1 0x40 MLOAD PUSH3 0x461BCD PUSH1 0xE5 SHL DUP2 MSTORE PUSH1 0x4 ADD PUSH3 0x5C9 SWAP1 PUSH3 0x464F JUMP JUMPDEST PUSH1 0x0 PUSH3 0x1A50 DUP4 PUSH3 0xD16 JUMP JUMPDEST SWAP1 POP DUP1 PUSH1 0x1 PUSH1 0x1 PUSH1 0xA0 SHL SUB AND DUP5 PUSH1 0x1 PUSH1 0x1 PUSH1 0xA0 SHL SUB AND EQ DUP1 PUSH3 0x1A8E JUMPI POP DUP4 PUSH1 0x1 PUSH1 0x1 PUSH1 0xA0 SHL SUB AND PUSH3 0x1A83 DUP5 PUSH3 0x59D JUMP JUMPDEST PUSH1 0x1 PUSH1 0x1 PUSH1 0xA0 SHL SUB AND EQ JUMPDEST DUP1 PUSH3 0x4F9 JUMPI POP PUSH3 0x4F9 DUP2 DUP6 PUSH3 0x17A2 JUMP JUMPDEST DUP3 PUSH1 0x1 PUSH1 0x1 PUSH1 0xA0 SHL SUB AND PUSH3 0x1AB6 DUP3 PUSH3 0xD16 JUMP JUMPDEST PUSH1 0x1 PUSH1 0x1 PUSH1 0xA0 SHL SUB AND EQ PUSH3 0x1ADF JUMPI PUSH1 0x40 MLOAD PUSH3 0x461BCD PUSH1 0xE5 SHL DUP2 MSTORE PUSH1 0x4 ADD PUSH3 0x5C9 SWAP1 PUSH3 0x48DA JUMP JUMPDEST PUSH1 0x1 PUSH1 0x1 PUSH1 0xA0 SHL SUB DUP3 AND PUSH3 0x1B08 JUMPI PUSH1 0x40 MLOAD PUSH3 0x461BCD PUSH1 0xE5 SHL DUP2 MSTORE PUSH1 0x4 ADD PUSH3 0x5C9 SWAP1 PUSH3 0x45D4 JUMP JUMPDEST PUSH3 0x1B15 DUP4 DUP4 DUP4 PUSH3 0x691 JUMP JUMPDEST PUSH3 0x1B22 PUSH1 0x0 DUP3 PUSH3 0x199A JUMP JUMPDEST PUSH1 0x1 PUSH1 0x1 PUSH1 0xA0 SHL SUB DUP4 AND PUSH1 0x0 SWAP1 DUP2 MSTORE PUSH1 0x1 PUSH1 0x20 MSTORE PUSH1 0x40 SWAP1 KECCAK256 PUSH3 0x1B4C SWAP1 DUP3 PUSH4 0xFFFFFFFF PUSH3 0x29C7 AND JUMP JUMPDEST POP PUSH1 0x1 PUSH1 0x1 PUSH1 0xA0 SHL SUB DUP3 AND PUSH1 0x0 SWAP1 DUP2 MSTORE PUSH1 0x1 PUSH1 0x20 MSTORE PUSH1 0x40 SWAP1 KECCAK256 PUSH3 0x1B77 SWAP1 DUP3 PUSH4 0xFFFFFFFF PUSH3 0x29D5 AND JUMP JUMPDEST POP PUSH3 0x1B8C PUSH1 0x2 DUP3 DUP5 PUSH4 0xFFFFFFFF PUSH3 0x29E3 AND JUMP JUMPDEST POP DUP1 DUP3 PUSH1 0x1 PUSH1 0x1 PUSH1 0xA0 SHL SUB AND DUP5 PUSH1 0x1 PUSH1 0x1 PUSH1 0xA0 SHL SUB AND PUSH32 0xDDF252AD1BE2C89B69C2B068FC378DAA952BA7F163C4A11628F55A4DF523B3EF PUSH1 0x40 MLOAD PUSH1 0x40 MLOAD DUP1 SWAP2 SUB SWAP1 LOG4 POP POP POP JUMP JUMPDEST PUSH1 0x0 PUSH3 0x714 DUP4 DUP4 PUSH3 0x29FB JUMP JUMPDEST PUSH3 0x1BFD DUP3 DUP3 PUSH1 0x40 MLOAD DUP1 PUSH1 0x20 ADD PUSH1 0x40 MSTORE DUP1 PUSH1 0x0 DUP2 MSTORE POP PUSH3 0x2A44 JUMP JUMPDEST POP POP JUMP JUMPDEST PUSH1 0x0 DUP1 DUP1 DUP1 PUSH3 0x1C12 DUP7 DUP7 PUSH3 0x2A7E JUMP JUMPDEST SWAP1 SWAP5 POP SWAP3 POP POP POP JUMPDEST SWAP3 POP SWAP3 SWAP1 POP JUMP JUMPDEST PUSH1 0x0 PUSH3 0x1C30 DUP5 DUP5 DUP5 PUSH3 0x2ADE JUMP JUMPDEST SWAP5 SWAP4 POP POP POP POP JUMP JUMPDEST PUSH1 0x0 DUP3 PUSH3 0x1C49 JUMPI POP PUSH1 0x0 PUSH3 0x4FD JUMP JUMPDEST DUP3 DUP3 MUL DUP3 DUP5 DUP3 DUP2 PUSH3 0x1C57 JUMPI INVALID JUMPDEST DIV EQ PUSH3 0x714 JUMPI PUSH1 0x40 MLOAD PUSH3 0x461BCD PUSH1 0xE5 SHL DUP2 MSTORE PUSH1 0x4 ADD PUSH3 0x5C9 SWAP1 PUSH3 0x4830 JUMP JUMPDEST DUP1 ISZERO PUSH3 0x1D7E JUMPI PUSH1 0xB SLOAD PUSH1 0xF SLOAD PUSH1 0x40 MLOAD PUSH4 0x23B872DD PUSH1 0xE0 SHL DUP2 MSTORE PUSH1 0x1 PUSH1 0x1 PUSH1 0xA0 SHL SUB SWAP3 DUP4 AND SWAP3 PUSH4 0x23B872DD SWAP3 PUSH3 0x1CB9 SWAP3 SWAP2 AND SWAP1 DUP8 SWAP1 DUP8 SWAP1 PUSH1 0x4 ADD PUSH3 0x4332 JUMP JUMPDEST PUSH1 0x20 PUSH1 0x40 MLOAD DUP1 DUP4 SUB DUP2 PUSH1 0x0 DUP8 DUP1 EXTCODESIZE ISZERO DUP1 ISZERO PUSH3 0x1CD4 JUMPI PUSH1 0x0 DUP1 REVERT JUMPDEST POP GAS CALL ISZERO DUP1 ISZERO PUSH3 0x1CE9 JUMPI RETURNDATASIZE PUSH1 0x0 DUP1 RETURNDATACOPY RETURNDATASIZE PUSH1 0x0 REVERT JUMPDEST POP POP POP POP PUSH1 0x40 MLOAD RETURNDATASIZE PUSH1 0x1F NOT PUSH1 0x1F DUP3 ADD AND DUP3 ADD DUP1 PUSH1 0x40 MSTORE POP DUP2 ADD SWAP1 PUSH3 0x1D0F SWAP2 SWAP1 PUSH3 0x404F JUMP JUMPDEST POP PUSH1 0xB SLOAD PUSH1 0x40 MLOAD PUSH4 0x363798F9 PUSH1 0xE1 SHL DUP2 MSTORE PUSH1 0x1 PUSH1 0x1 PUSH1 0xA0 SHL SUB SWAP1 SWAP2 AND SWAP1 PUSH4 0x6C6F31F2 SWAP1 PUSH3 0x1D44 SWAP1 DUP7 SWAP1 DUP7 SWAP1 PUSH1 0x4 ADD PUSH3 0x4395 JUMP JUMPDEST PUSH1 0x0 PUSH1 0x40 MLOAD DUP1 DUP4 SUB DUP2 PUSH1 0x0 DUP8 DUP1 EXTCODESIZE ISZERO DUP1 ISZERO PUSH3 0x1D5F JUMPI PUSH1 0x0 DUP1 REVERT JUMPDEST POP GAS CALL ISZERO DUP1 ISZERO PUSH3 0x1D74 JUMPI RETURNDATASIZE PUSH1 0x0 DUP1 RETURNDATACOPY RETURNDATASIZE PUSH1 0x0 REVERT JUMPDEST POP POP POP POP PUSH3 0x691 JUMP JUMPDEST PUSH1 0xB SLOAD PUSH1 0xF SLOAD PUSH1 0x40 MLOAD PUSH4 0x23B872DD PUSH1 0xE0 SHL DUP2 MSTORE PUSH1 0x1 PUSH1 0x1 PUSH1 0xA0 SHL SUB SWAP3 DUP4 AND SWAP3 PUSH4 0x23B872DD SWAP3 PUSH3 0x1DB9 SWAP3 DUP9 SWAP3 SWAP1 SWAP2 AND SWAP1 DUP8 SWAP1 PUSH1 0x4 ADD PUSH3 0x4332 JUMP JUMPDEST PUSH1 0x20 PUSH1 0x40 MLOAD DUP1 DUP4 SUB DUP2 PUSH1 0x0 DUP8 DUP1 EXTCODESIZE ISZERO DUP1 ISZERO PUSH3 0x1DD4 JUMPI PUSH1 0x0 DUP1 REVERT JUMPDEST POP GAS CALL ISZERO DUP1 ISZERO PUSH3 0x1DE9 JUMPI RETURNDATASIZE PUSH1 0x0 DUP1 RETURNDATACOPY RETURNDATASIZE PUSH1 0x0 REVERT JUMPDEST POP POP POP POP PUSH1 0x40 MLOAD RETURNDATASIZE PUSH1 0x1F NOT PUSH1 0x1F DUP3 ADD AND DUP3 ADD DUP1 PUSH1 0x40 MSTORE POP DUP2 ADD SWAP1 PUSH3 0x15B6 SWAP2 SWAP1 PUSH3 0x404F JUMP JUMPDEST PUSH1 0x0 DUP3 DUP3 ADD DUP4 DUP2 LT ISZERO PUSH3 0x714 JUMPI PUSH1 0x40 MLOAD PUSH3 0x461BCD PUSH1 0xE5 SHL DUP2 MSTORE PUSH1 0x4 ADD PUSH3 0x5C9 SWAP1 PUSH3 0x459D JUMP JUMPDEST PUSH1 0x40 DUP1 MLOAD DUP1 DUP3 ADD SWAP1 SWAP2 MSTORE PUSH1 0xE DUP2 MSTORE PUSH14 0x50454E44494E475F4F5244455253 PUSH1 0x90 SHL PUSH1 0x20 SWAP2 DUP3 ADD MSTORE PUSH1 0xD DUP2 MSTORE PUSH1 0x0 DUP1 MLOAD PUSH1 0x20 PUSH3 0x5E78 DUP4 CODECOPY DUP2 MLOAD SWAP2 MSTORE DUP1 SLOAD PUSH1 0x1 DUP2 ADD DUP3 SSTORE PUSH1 0x0 SWAP2 DUP3 MSTORE DUP7 MLOAD PUSH32 0x34B52BAF7691F83D40DFBE47E7633AAB79F1D5FF22E1D7EB52DB0F053A4386D PUSH1 0x2 SWAP1 SWAP3 MUL SWAP2 DUP3 ADD SSTORE SWAP2 DUP7 ADD MLOAD PUSH32 0x34B52BAF7691F83D40DFBE47E7633AAB79F1D5FF22E1D7EB52DB0F053A4386E SWAP1 SWAP3 ADD SWAP2 SWAP1 SWAP2 SSTORE DUP4 PUSH1 0x1 DUP2 GT ISZERO PUSH3 0x1EE3 JUMPI INVALID JUMPDEST EQ ISZERO PUSH3 0x1FCF JUMPI PUSH1 0x40 DUP1 MLOAD DUP1 DUP3 ADD DUP3 MSTORE PUSH1 0xA DUP2 MSTORE PUSH10 0x4255595F4F5244455253 PUSH1 0xB0 SHL PUSH1 0x20 SWAP2 DUP3 ADD MSTORE PUSH1 0xD DUP2 MSTORE PUSH32 0xF34C455ECB5DE31F82D36825BAD0AEB58D036A39FD40A24FEC0EC35DE170B355 DUP1 SLOAD PUSH1 0x1 DUP2 DUP2 ADD DUP4 SSTORE PUSH1 0x0 SWAP3 DUP4 MSTORE DUP9 MLOAD PUSH1 0x2 SWAP3 DUP4 MUL PUSH32 0x7825A2E82DBA6400485829F8F9949481ADF4DD15BACAB3D9360B5903CB060A09 DUP2 ADD SWAP2 SWAP1 SWAP2 SSTORE DUP10 DUP6 ADD DUP1 MLOAD PUSH32 0x7825A2E82DBA6400485829F8F9949481ADF4DD15BACAB3D9360B5903CB060A0A SWAP1 SWAP3 ADD SWAP2 SWAP1 SWAP2 SSTORE PUSH1 0x1 PUSH1 0x1 PUSH1 0xA0 SHL SUB DUP9 AND DUP5 MSTORE PUSH1 0xE DUP6 MSTORE SWAP5 DUP4 KECCAK256 DUP1 SLOAD DUP1 DUP4 ADD DUP3 SSTORE SWAP1 DUP5 MSTORE SWAP4 SWAP1 SWAP3 KECCAK256 DUP9 MLOAD SWAP4 SWAP1 SWAP2 MUL ADD SWAP2 DUP3 SSTORE SWAP2 MLOAD SWAP2 ADD SSTORE PUSH3 0x15B6 JUMP JUMPDEST PUSH1 0x40 DUP1 MLOAD DUP1 DUP3 ADD DUP3 MSTORE PUSH1 0xB DUP2 MSTORE PUSH11 0x53454C4C5F4F5244455253 PUSH1 0xA8 SHL PUSH1 0x20 SWAP2 DUP3 ADD MSTORE PUSH1 0xD DUP2 MSTORE PUSH32 0x48C1C91527EB21AA80D2B076DE8E4AB8FB1BCBD06905B9762CB5BA913A9D61C0 DUP1 SLOAD PUSH1 0x1 DUP2 DUP2 ADD DUP4 SSTORE PUSH1 0x0 SWAP3 DUP4 MSTORE DUP9 MLOAD PUSH1 0x2 SWAP3 DUP4 MUL PUSH32 0xA62A6C2CA9635EF0F603DA97B3E7E3B717763E8236A23EE14977899E7F4EA815 DUP2 ADD SWAP2 SWAP1 SWAP2 SSTORE DUP10 DUP6 ADD DUP1 MLOAD PUSH32 0xA62A6C2CA9635EF0F603DA97B3E7E3B717763E8236A23EE14977899E7F4EA816 SWAP1 SWAP3 ADD SWAP2 SWAP1 SWAP2 SSTORE PUSH1 0x1 PUSH1 0x1 PUSH1 0xA0 SHL SUB DUP8 AND DUP5 MSTORE PUSH1 0xE DUP6 MSTORE SWAP5 DUP4 KECCAK256 DUP1 SLOAD DUP1 DUP4 ADD DUP3 SSTORE SWAP1 DUP5 MSTORE SWAP4 SWAP1 SWAP3 KECCAK256 DUP9 MLOAD SWAP4 SWAP1 SWAP2 MUL ADD SWAP2 DUP3 SSTORE SWAP2 MLOAD SWAP2 ADD SSTORE POP POP POP POP JUMP JUMPDEST PUSH1 0x0 PUSH3 0x20C1 PUSH3 0x3CD1 JUMP JUMPDEST POP PUSH1 0x40 DUP1 MLOAD DUP1 DUP3 ADD SWAP1 SWAP2 MSTORE PUSH1 0xE DUP2 MSTORE PUSH14 0x50454E44494E475F4F5244455253 PUSH1 0x90 SHL PUSH1 0x20 SWAP2 DUP3 ADD MSTORE PUSH1 0x0 DUP1 MLOAD PUSH1 0x20 PUSH3 0x5ECA DUP4 CODECOPY DUP2 MLOAD SWAP2 MSTORE PUSH1 0x0 MSTORE PUSH1 0xD SWAP1 MSTORE PUSH1 0x0 DUP1 MLOAD PUSH1 0x20 PUSH3 0x5E78 DUP4 CODECOPY DUP2 MLOAD SWAP2 MSTORE SLOAD DUP3 SWAP1 PUSH1 0x1 DUP2 EQ ISZERO PUSH3 0x2125 JUMPI POP POP POP PUSH3 0x2894 JUMP JUMPDEST PUSH1 0x0 PUSH3 0x213A DUP3 PUSH1 0x1 PUSH4 0xFFFFFFFF PUSH3 0x2B41 AND JUMP JUMPDEST SWAP1 POP PUSH1 0x0 PUSH2 0x3E8 DUP4 GT PUSH3 0x2150 JUMPI PUSH1 0x0 PUSH3 0x2154 JUMP JUMPDEST PUSH2 0x3E8 JUMPDEST SWAP1 POP JUMPDEST DUP1 DUP3 LT ISZERO DUP1 ISZERO PUSH3 0x2166 JUMPI POP DUP5 ISZERO JUMPDEST ISZERO PUSH3 0x839 JUMPI PUSH3 0x2176 PUSH3 0x3CD1 JUMP JUMPDEST PUSH1 0x40 DUP1 MLOAD DUP1 DUP3 ADD SWAP1 SWAP2 MSTORE PUSH1 0xE DUP2 MSTORE PUSH14 0x50454E44494E475F4F5244455253 PUSH1 0x90 SHL PUSH1 0x20 SWAP2 DUP3 ADD MSTORE PUSH1 0x0 DUP1 MLOAD PUSH1 0x20 PUSH3 0x5ECA DUP4 CODECOPY DUP2 MLOAD SWAP2 MSTORE PUSH1 0x0 SWAP1 DUP2 MSTORE PUSH1 0xD SWAP1 SWAP2 MSTORE PUSH1 0x0 DUP1 MLOAD PUSH1 0x20 PUSH3 0x5E78 DUP4 CODECOPY DUP2 MLOAD SWAP2 MSTORE DUP1 SLOAD PUSH1 0xC SWAP3 SWAP2 SWAP1 DUP7 SWAP1 DUP2 LT PUSH3 0x21D8 JUMPI INVALID JUMPDEST PUSH1 0x0 SWAP2 DUP3 MSTORE PUSH1 0x20 DUP1 DUP4 KECCAK256 PUSH1 0x2 SWAP3 DUP4 MUL ADD SLOAD DUP5 MSTORE DUP4 DUP2 ADD SWAP5 SWAP1 SWAP5 MSTORE PUSH1 0x40 SWAP3 DUP4 ADD SWAP1 SWAP2 KECCAK256 DUP3 MLOAD PUSH2 0x1E0 DUP2 ADD SWAP1 SWAP4 MSTORE DUP1 SLOAD PUSH2 0x1A0 DUP5 ADD SWAP1 DUP2 MSTORE PUSH1 0x1 DUP1 DUP4 ADD SLOAD PUSH2 0x1C0 DUP7 ADD MSTORE SWAP1 DUP5 MSTORE SWAP2 DUP2 ADD SLOAD SWAP3 SWAP4 SWAP1 SWAP3 SWAP1 DUP5 ADD SWAP2 PUSH1 0xFF SWAP1 SWAP2 AND SWAP1 DUP2 GT ISZERO PUSH3 0x2239 JUMPI INVALID JUMPDEST PUSH1 0x1 DUP2 GT ISZERO PUSH3 0x2245 JUMPI INVALID JUMPDEST DUP2 MSTORE PUSH1 0x20 ADD PUSH1 0x2 DUP3 ADD PUSH1 0x1 SWAP1 SLOAD SWAP1 PUSH2 0x100 EXP SWAP1 DIV PUSH1 0xFF AND PUSH1 0x4 DUP2 GT ISZERO PUSH3 0x2268 JUMPI INVALID JUMPDEST PUSH1 0x4 DUP2 GT ISZERO PUSH3 0x2274 JUMPI INVALID JUMPDEST DUP2 MSTORE PUSH1 0x2 DUP3 ADD SLOAD PUSH1 0x1 PUSH1 0x1 PUSH1 0xA0 SHL SUB PUSH3 0x10000 SWAP1 SWAP2 DIV DUP2 AND PUSH1 0x20 DUP4 ADD MSTORE PUSH1 0x3 DUP1 DUP5 ADD SLOAD SWAP1 SWAP2 AND PUSH1 0x40 DUP4 ADD MSTORE PUSH1 0x4 DUP4 ADD SLOAD PUSH1 0x60 DUP4 ADD MSTORE PUSH1 0x5 DUP4 ADD SLOAD PUSH1 0x80 DUP4 ADD MSTORE PUSH1 0x6 DUP4 ADD SLOAD PUSH1 0xA0 DUP4 ADD MSTORE PUSH1 0x7 DUP4 ADD SLOAD PUSH1 0xC0 DUP4 ADD MSTORE PUSH1 0x8 DUP4 ADD SLOAD PUSH1 0xE0 SWAP1 SWAP3 ADD SWAP2 PUSH1 0xFF AND SWAP1 DUP2 GT ISZERO PUSH3 0x22E0 JUMPI INVALID JUMPDEST PUSH1 0x3 DUP2 GT ISZERO PUSH3 0x22EC JUMPI INVALID JUMPDEST DUP2 MSTORE PUSH1 0x20 ADD PUSH1 0x9 DUP3 ADD SLOAD DUP2 MSTORE PUSH1 0x20 ADD PUSH1 0xA DUP3 ADD SLOAD DUP2 MSTORE PUSH1 0x20 ADD PUSH1 0xB DUP3 ADD SLOAD DUP2 MSTORE POP POP SWAP1 POP PUSH1 0x0 DUP2 PUSH1 0xA0 ADD MLOAD DUP7 PUSH1 0xA0 ADD MLOAD EQ SWAP1 POP PUSH1 0x0 DUP7 PUSH1 0x20 ADD MLOAD PUSH1 0x1 DUP2 GT ISZERO PUSH3 0x2332 JUMPI INVALID JUMPDEST DUP4 PUSH1 0x20 ADD MLOAD PUSH1 0x1 DUP2 GT ISZERO PUSH3 0x2343 JUMPI INVALID JUMPDEST PUSH1 0x60 DUP6 ADD MLOAD SWAP2 EQ SWAP2 POP PUSH1 0x0 SWAP1 PUSH1 0x1 PUSH1 0x1 PUSH1 0xA0 SHL SUB AND ISZERO DUP1 ISZERO SWAP1 PUSH3 0x2373 JUMPI POP PUSH1 0x80 DUP9 ADD MLOAD PUSH1 0x1 PUSH1 0x1 PUSH1 0xA0 SHL SUB AND ISZERO ISZERO JUMPDEST ISZERO PUSH3 0x239E JUMPI DUP8 PUSH1 0x80 ADD MLOAD PUSH1 0x1 PUSH1 0x1 PUSH1 0xA0 SHL SUB AND DUP5 PUSH1 0x60 ADD MLOAD PUSH1 0x1 PUSH1 0x1 PUSH1 0xA0 SHL SUB AND EQ SWAP1 POP PUSH3 0x23ED JUMP JUMPDEST PUSH1 0x80 DUP5 ADD MLOAD PUSH1 0x1 PUSH1 0x1 PUSH1 0xA0 SHL SUB AND ISZERO DUP1 ISZERO SWAP1 PUSH3 0x23C7 JUMPI POP PUSH1 0x60 DUP9 ADD MLOAD PUSH1 0x1 PUSH1 0x1 PUSH1 0xA0 SHL SUB AND ISZERO ISZERO JUMPDEST ISZERO PUSH3 0x23ED JUMPI DUP8 PUSH1 0x60 ADD MLOAD PUSH1 0x1 PUSH1 0x1 PUSH1 0xA0 SHL SUB AND DUP5 PUSH1 0x80 ADD MLOAD PUSH1 0x1 PUSH1 0x1 PUSH1 0xA0 SHL SUB AND EQ SWAP1 POP JUMPDEST PUSH1 0x0 DUP4 DUP1 ISZERO PUSH3 0x240E JUMPI POP PUSH1 0x0 DUP6 PUSH2 0x120 ADD MLOAD PUSH1 0x3 DUP2 GT ISZERO PUSH3 0x240C JUMPI INVALID JUMPDEST EQ JUMPDEST DUP1 ISZERO PUSH3 0x2419 JUMPI POP DUP3 ISZERO JUMPDEST DUP1 ISZERO PUSH3 0x2424 JUMPI POP DUP2 ISZERO JUMPDEST SWAP1 POP DUP1 ISZERO PUSH3 0x2863 JUMPI PUSH3 0x2437 PUSH3 0x3CD1 JUMP JUMPDEST PUSH3 0x2441 PUSH3 0x3CD1 JUMP JUMPDEST PUSH3 0x244B PUSH3 0x3D76 JUMP JUMPDEST PUSH1 0x0 DUP13 PUSH1 0x20 ADD MLOAD PUSH1 0x1 DUP2 GT ISZERO PUSH3 0x245E JUMPI INVALID JUMPDEST EQ ISZERO PUSH3 0x25CB JUMPI DUP12 SWAP3 POP DUP8 SWAP2 POP PUSH3 0x2477 DUP4 DUP4 PUSH3 0x2B85 JUMP JUMPDEST SWAP1 POP DUP1 PUSH1 0x0 ADD MLOAD SWAP13 POP PUSH1 0xC PUSH1 0x0 DUP5 PUSH1 0x0 ADD MLOAD PUSH1 0x0 ADD MLOAD DUP2 MSTORE PUSH1 0x20 ADD SWAP1 DUP2 MSTORE PUSH1 0x20 ADD PUSH1 0x0 KECCAK256 PUSH1 0x40 MLOAD DUP1 PUSH2 0x1A0 ADD PUSH1 0x40 MSTORE SWAP1 DUP2 PUSH1 0x0 DUP3 ADD PUSH1 0x40 MLOAD DUP1 PUSH1 0x40 ADD PUSH1 0x40 MSTORE SWAP1 DUP2 PUSH1 0x0 DUP3 ADD SLOAD DUP2 MSTORE PUSH1 0x20 ADD PUSH1 0x1 DUP3 ADD SLOAD DUP2 MSTORE POP POP DUP2 MSTORE PUSH1 0x20 ADD PUSH1 0x2 DUP3 ADD PUSH1 0x0 SWAP1 SLOAD SWAP1 PUSH2 0x100 EXP SWAP1 DIV PUSH1 0xFF AND PUSH1 0x1 DUP2 GT ISZERO PUSH3 0x24EE JUMPI INVALID JUMPDEST PUSH1 0x1 DUP2 GT ISZERO PUSH3 0x24FA JUMPI INVALID JUMPDEST DUP2 MSTORE PUSH1 0x20 ADD PUSH1 0x2 DUP3 ADD PUSH1 0x1 SWAP1 SLOAD SWAP1 PUSH2 0x100 EXP SWAP1 DIV PUSH1 0xFF AND PUSH1 0x4 DUP2 GT ISZERO PUSH3 0x251D JUMPI INVALID JUMPDEST PUSH1 0x4 DUP2 GT ISZERO PUSH3 0x2529 JUMPI INVALID JUMPDEST DUP2 MSTORE PUSH1 0x2 DUP3 ADD SLOAD PUSH1 0x1 PUSH1 0x1 PUSH1 0xA0 SHL SUB PUSH3 0x10000 SWAP1 SWAP2 DIV DUP2 AND PUSH1 0x20 DUP4 ADD MSTORE PUSH1 0x3 DUP1 DUP5 ADD SLOAD SWAP1 SWAP2 AND PUSH1 0x40 DUP4 ADD MSTORE PUSH1 0x4 DUP4 ADD SLOAD PUSH1 0x60 DUP4 ADD MSTORE PUSH1 0x5 DUP4 ADD SLOAD PUSH1 0x80 DUP4 ADD MSTORE PUSH1 0x6 DUP4 ADD SLOAD PUSH1 0xA0 DUP4 ADD MSTORE PUSH1 0x7 DUP4 ADD SLOAD PUSH1 0xC0 DUP4 ADD MSTORE PUSH1 0x8 DUP4 ADD SLOAD PUSH1 0xE0 SWAP1 SWAP3 ADD SWAP2 PUSH1 0xFF AND SWAP1 DUP2 GT ISZERO PUSH3 0x2595 JUMPI INVALID JUMPDEST PUSH1 0x3 DUP2 GT ISZERO PUSH3 0x25A1 JUMPI INVALID JUMPDEST DUP2 MSTORE PUSH1 0x20 ADD PUSH1 0x9 DUP3 ADD SLOAD DUP2 MSTORE PUSH1 0x20 ADD PUSH1 0xA DUP3 ADD SLOAD DUP2 MSTORE PUSH1 0x20 ADD PUSH1 0xB DUP3 ADD SLOAD DUP2 MSTORE POP POP SWAP12 POP PUSH3 0x2746 JUMP JUMPDEST PUSH1 0x1 DUP13 PUSH1 0x20 ADD MLOAD PUSH1 0x1 DUP2 GT ISZERO PUSH3 0x25DE JUMPI INVALID JUMPDEST EQ ISZERO PUSH3 0x2746 JUMPI DUP12 SWAP2 POP DUP8 SWAP3 POP PUSH3 0x25F7 DUP4 DUP4 PUSH3 0x2B85 JUMP JUMPDEST SWAP1 POP DUP1 PUSH1 0x0 ADD MLOAD SWAP13 POP PUSH1 0xC PUSH1 0x0 DUP4 PUSH1 0x0 ADD MLOAD PUSH1 0x0 ADD MLOAD DUP2 MSTORE PUSH1 0x20 ADD SWAP1 DUP2 MSTORE PUSH1 0x20 ADD PUSH1 0x0 KECCAK256 PUSH1 0x40 MLOAD DUP1 PUSH2 0x1A0 ADD PUSH1 0x40 MSTORE SWAP1 DUP2 PUSH1 0x0 DUP3 ADD PUSH1 0x40 MLOAD DUP1 PUSH1 0x40 ADD PUSH1 0x40 MSTORE SWAP1 DUP2 PUSH1 0x0 DUP3 ADD SLOAD DUP2 MSTORE PUSH1 0x20 ADD PUSH1 0x1 DUP3 ADD SLOAD DUP2 MSTORE POP POP DUP2 MSTORE PUSH1 0x20 ADD PUSH1 0x2 DUP3 ADD PUSH1 0x0 SWAP1 SLOAD SWAP1 PUSH2 0x100 EXP SWAP1 DIV PUSH1 0xFF AND PUSH1 0x1 DUP2 GT ISZERO PUSH3 0x266E JUMPI INVALID JUMPDEST PUSH1 0x1 DUP2 GT ISZERO PUSH3 0x267A JUMPI INVALID JUMPDEST DUP2 MSTORE PUSH1 0x20 ADD PUSH1 0x2 DUP3 ADD PUSH1 0x1 SWAP1 SLOAD SWAP1 PUSH2 0x100 EXP SWAP1 DIV PUSH1 0xFF AND PUSH1 0x4 DUP2 GT ISZERO PUSH3 0x269D JUMPI INVALID JUMPDEST PUSH1 0x4 DUP2 GT ISZERO PUSH3 0x26A9 JUMPI INVALID JUMPDEST DUP2 MSTORE PUSH1 0x2 DUP3 ADD SLOAD PUSH1 0x1 PUSH1 0x1 PUSH1 0xA0 SHL SUB PUSH3 0x10000 SWAP1 SWAP2 DIV DUP2 AND PUSH1 0x20 DUP4 ADD MSTORE PUSH1 0x3 DUP1 DUP5 ADD SLOAD SWAP1 SWAP2 AND PUSH1 0x40 DUP4 ADD MSTORE PUSH1 0x4 DUP4 ADD SLOAD PUSH1 0x60 DUP4 ADD MSTORE PUSH1 0x5 DUP4 ADD SLOAD PUSH1 0x80 DUP4 ADD MSTORE PUSH1 0x6 DUP4 ADD SLOAD PUSH1 0xA0 DUP4 ADD MSTORE PUSH1 0x7 DUP4 ADD SLOAD PUSH1 0xC0 DUP4 ADD MSTORE PUSH1 0x8 DUP4 ADD SLOAD PUSH1 0xE0 SWAP1 SWAP3 ADD SWAP2 PUSH1 0xFF AND SWAP1 DUP2 GT ISZERO PUSH3 0x2715 JUMPI INVALID JUMPDEST PUSH1 0x3 DUP2 GT ISZERO PUSH3 0x2721 JUMPI INVALID JUMPDEST DUP2 MSTORE PUSH1 0x20 ADD PUSH1 0x9 DUP3 ADD SLOAD DUP2 MSTORE PUSH1 0x20 ADD PUSH1 0xA DUP3 ADD SLOAD DUP2 MSTORE PUSH1 0x20 ADD PUSH1 0xB DUP3 ADD SLOAD DUP2 MSTORE POP POP SWAP12 POP JUMPDEST PUSH1 0x1 DUP4 PUSH2 0x120 ADD MLOAD PUSH1 0x3 DUP2 GT ISZERO PUSH3 0x275A JUMPI INVALID JUMPDEST EQ DUP1 PUSH3 0x2778 JUMPI POP PUSH1 0x1 DUP3 PUSH2 0x120 ADD MLOAD PUSH1 0x3 DUP2 GT ISZERO PUSH3 0x2776 JUMPI INVALID JUMPDEST EQ JUMPDEST ISZERO PUSH3 0x285F JUMPI PUSH1 0x0 PUSH3 0x279E DUP5 PUSH2 0x100 ADD MLOAD DUP4 PUSH1 0x60 ADD MLOAD PUSH3 0x1C38 SWAP1 SWAP2 SWAP1 PUSH4 0xFFFFFFFF AND JUMP JUMPDEST SWAP1 POP DUP1 PUSH1 0x1 DUP5 PUSH1 0x40 ADD MLOAD PUSH1 0x4 DUP2 GT ISZERO PUSH3 0x27B4 JUMPI INVALID JUMPDEST EQ PUSH3 0x27D9 JUMPI PUSH2 0x100 DUP5 ADD MLOAD PUSH1 0x80 DUP5 ADD MLOAD PUSH3 0x27D6 SWAP2 PUSH4 0xFFFFFFFF PUSH3 0x1C38 AND JUMP JUMPDEST SWAP1 POP JUMPDEST PUSH1 0x80 DUP6 ADD MLOAD PUSH1 0x1 PUSH1 0x1 PUSH1 0xA0 SHL SUB AND PUSH1 0x0 SWAP1 DUP2 MSTORE PUSH1 0x10 PUSH1 0x20 MSTORE PUSH1 0x40 SWAP1 KECCAK256 SLOAD PUSH3 0x2808 SWAP1 DUP4 PUSH4 0xFFFFFFFF PUSH3 0x2B41 AND JUMP JUMPDEST PUSH1 0x80 DUP7 ADD DUP1 MLOAD PUSH1 0x1 PUSH1 0x1 PUSH1 0xA0 SHL SUB AND PUSH1 0x0 SWAP1 DUP2 MSTORE PUSH1 0x10 PUSH1 0x20 MSTORE PUSH1 0x40 SWAP1 KECCAK256 SWAP2 SWAP1 SWAP2 SSTORE MLOAD PUSH3 0x2838 SWAP1 DUP4 PUSH1 0x1 PUSH3 0x1C78 JUMP JUMPDEST PUSH3 0x285C DUP6 PUSH1 0x80 ADD MLOAD DUP7 PUSH1 0xA0 ADD MLOAD DUP7 PUSH1 0x60 ADD MLOAD DUP7 PUSH1 0x60 ADD MLOAD DUP10 PUSH2 0x100 ADD MLOAD PUSH3 0x2FDD JUMP JUMPDEST POP POP JUMPDEST POP POP POP JUMPDEST DUP7 PUSH3 0x2874 JUMPI POP POP POP POP POP PUSH3 0x839 JUMP JUMPDEST PUSH3 0x2887 DUP8 PUSH1 0x1 PUSH4 0xFFFFFFFF PUSH3 0x2B41 AND JUMP JUMPDEST SWAP7 POP POP POP POP POP POP PUSH3 0x2157 JUMP JUMPDEST POP JUMP JUMPDEST PUSH3 0x28A4 DUP5 DUP5 DUP5 PUSH3 0x1AA1 JUMP JUMPDEST PUSH3 0x28B2 DUP5 DUP5 DUP5 DUP5 PUSH3 0x31F8 JUMP JUMPDEST PUSH3 0x15B6 JUMPI PUSH1 0x40 MLOAD PUSH3 0x461BCD PUSH1 0xE5 SHL DUP2 MSTORE PUSH1 0x4 ADD PUSH3 0x5C9 SWAP1 PUSH3 0x44F7 JUMP JUMPDEST PUSH1 0x60 DUP2 PUSH3 0x28F8 JUMPI POP PUSH1 0x40 DUP1 MLOAD DUP1 DUP3 ADD SWAP1 SWAP2 MSTORE PUSH1 0x1 DUP2 MSTORE PUSH1 0x3 PUSH1 0xFC SHL PUSH1 0x20 DUP3 ADD MSTORE PUSH3 0x45E JUMP JUMPDEST DUP2 PUSH1 0x0 JUMPDEST DUP2 ISZERO PUSH3 0x2912 JUMPI PUSH1 0x1 ADD PUSH1 0xA DUP3 DIV SWAP2 POP PUSH3 0x28FC JUMP JUMPDEST PUSH1 0x60 DUP2 PUSH8 0xFFFFFFFFFFFFFFFF DUP2 GT DUP1 ISZERO PUSH3 0x292C JUMPI PUSH1 0x0 DUP1 REVERT JUMPDEST POP PUSH1 0x40 MLOAD SWAP1 DUP1 DUP3 MSTORE DUP1 PUSH1 0x1F ADD PUSH1 0x1F NOT AND PUSH1 0x20 ADD DUP3 ADD PUSH1 0x40 MSTORE DUP1 ISZERO PUSH3 0x2958 JUMPI PUSH1 0x20 DUP3 ADD DUP2 DUP1 CALLDATASIZE DUP4 CALLDATACOPY ADD SWAP1 POP JUMPDEST POP DUP6 SWAP4 POP SWAP1 POP PUSH1 0x0 NOT DUP3 ADD JUMPDEST DUP4 ISZERO PUSH3 0x29AC JUMPI PUSH1 0xA DUP5 MOD PUSH1 0x30 ADD PUSH1 0xF8 SHL DUP3 DUP3 DUP1 PUSH1 0x1 SWAP1 SUB SWAP4 POP DUP2 MLOAD DUP2 LT PUSH3 0x2989 JUMPI INVALID JUMPDEST PUSH1 0x20 ADD ADD SWAP1 PUSH1 0x1 PUSH1 0x1 PUSH1 0xF8 SHL SUB NOT AND SWAP1 DUP2 PUSH1 0x0 BYTE SWAP1 MSTORE8 POP PUSH1 0xA DUP5 DIV SWAP4 POP PUSH3 0x2964 JUMP JUMPDEST POP SWAP5 SWAP4 POP POP POP POP JUMP JUMPDEST PUSH1 0x0 PUSH3 0x714 DUP4 DUP4 PUSH3 0x32EA JUMP JUMPDEST SLOAD SWAP1 JUMP JUMPDEST PUSH1 0x0 PUSH3 0x714 DUP4 DUP4 PUSH3 0x3302 JUMP JUMPDEST PUSH1 0x0 PUSH3 0x714 DUP4 DUP4 PUSH3 0x33D5 JUMP JUMPDEST PUSH1 0x0 PUSH3 0x1C30 DUP5 DUP5 PUSH1 0x1 PUSH1 0x1 PUSH1 0xA0 SHL SUB DUP6 AND PUSH3 0x3424 JUMP JUMPDEST DUP2 SLOAD PUSH1 0x0 SWAP1 DUP3 LT PUSH3 0x2A21 JUMPI PUSH1 0x40 MLOAD PUSH3 0x461BCD PUSH1 0xE5 SHL DUP2 MSTORE PUSH1 0x4 ADD PUSH3 0x5C9 SWAP1 PUSH3 0x44B5 JUMP JUMPDEST DUP3 PUSH1 0x0 ADD DUP3 DUP2 SLOAD DUP2 LT PUSH3 0x2A31 JUMPI INVALID JUMPDEST SWAP1 PUSH1 0x0 MSTORE PUSH1 0x20 PUSH1 0x0 KECCAK256 ADD SLOAD SWAP1 POP SWAP3 SWAP2 POP POP JUMP JUMPDEST PUSH3 0x2A50 DUP4 DUP4 PUSH3 0x34BF JUMP JUMPDEST PUSH3 0x2A5F PUSH1 0x0 DUP5 DUP5 DUP5 PUSH3 0x31F8 JUMP JUMPDEST PUSH3 0x691 JUMPI PUSH1 0x40 MLOAD PUSH3 0x461BCD PUSH1 0xE5 SHL DUP2 MSTORE PUSH1 0x4 ADD PUSH3 0x5C9 SWAP1 PUSH3 0x44F7 JUMP JUMPDEST DUP2 SLOAD PUSH1 0x0 SWAP1 DUP2 SWAP1 DUP4 LT PUSH3 0x2AA6 JUMPI PUSH1 0x40 MLOAD PUSH3 0x461BCD PUSH1 0xE5 SHL DUP2 MSTORE PUSH1 0x4 ADD PUSH3 0x5C9 SWAP1 PUSH3 0x47B9 JUMP JUMPDEST PUSH1 0x0 DUP5 PUSH1 0x0 ADD DUP5 DUP2 SLOAD DUP2 LT PUSH3 0x2AB8 JUMPI INVALID JUMPDEST SWAP1 PUSH1 0x0 MSTORE PUSH1 0x20 PUSH1 0x0 KECCAK256 SWAP1 PUSH1 0x2 MUL ADD SWAP1 POP DUP1 PUSH1 0x0 ADD SLOAD DUP2 PUSH1 0x1 ADD SLOAD SWAP3 POP SWAP3 POP POP SWAP3 POP SWAP3 SWAP1 POP JUMP JUMPDEST PUSH1 0x0 DUP3 DUP2 MSTORE PUSH1 0x1 DUP5 ADD PUSH1 0x20 MSTORE PUSH1 0x40 DUP2 KECCAK256 SLOAD DUP3 DUP2 PUSH3 0x2B11 JUMPI PUSH1 0x40 MLOAD PUSH3 0x461BCD PUSH1 0xE5 SHL DUP2 MSTORE PUSH1 0x4 ADD PUSH3 0x5C9 SWAP2 SWAP1 PUSH3 0x4483 JUMP JUMPDEST POP DUP5 PUSH1 0x0 ADD PUSH1 0x1 DUP3 SUB DUP2 SLOAD DUP2 LT PUSH3 0x2B25 JUMPI INVALID JUMPDEST SWAP1 PUSH1 0x0 MSTORE PUSH1 0x20 PUSH1 0x0 KECCAK256 SWAP1 PUSH1 0x2 MUL ADD PUSH1 0x1 ADD SLOAD SWAP2 POP POP SWAP4 SWAP3 POP POP POP JUMP JUMPDEST PUSH1 0x0 PUSH3 0x714 DUP4 DUP4 PUSH1 0x40 MLOAD DUP1 PUSH1 0x40 ADD PUSH1 0x40 MSTORE DUP1 PUSH1 0x1E DUP2 MSTORE PUSH1 0x20 ADD PUSH32 0x536166654D6174683A207375627472616374696F6E206F766572666C6F770000 DUP2 MSTORE POP PUSH3 0x359D JUMP JUMPDEST PUSH3 0x2B8F PUSH3 0x3D76 JUMP JUMPDEST POP PUSH1 0x40 DUP1 MLOAD PUSH1 0xA0 DUP2 ADD DUP3 MSTORE PUSH1 0x0 DUP1 DUP3 MSTORE PUSH1 0x20 DUP3 ADD DUP2 SWAP1 MSTORE SWAP2 DUP2 ADD DUP3 SWAP1 MSTORE PUSH1 0x60 DUP2 ADD DUP3 SWAP1 MSTORE PUSH1 0x80 DUP2 ADD SWAP2 SWAP1 SWAP2 MSTORE PUSH1 0xC0 DUP1 DUP5 ADD MLOAD SWAP1 DUP4 ADD MLOAD PUSH2 0x180 DUP6 ADD MLOAD ISZERO DUP1 ISZERO SWAP1 PUSH3 0x2BDE JUMPI POP TIMESTAMP DUP6 PUSH2 0x180 ADD MLOAD LT JUMPDEST ISZERO PUSH3 0x2BEC JUMPI PUSH1 0x1 PUSH1 0x20 DUP5 ADD MSTORE JUMPDEST PUSH1 0x0 DUP5 PUSH2 0x180 ADD MLOAD GT DUP1 ISZERO PUSH3 0x2C06 JUMPI POP TIMESTAMP DUP5 PUSH2 0x180 ADD MLOAD LT JUMPDEST ISZERO PUSH3 0x2C14 JUMPI PUSH1 0x1 PUSH1 0x40 DUP5 ADD MSTORE JUMPDEST DUP4 PUSH2 0x100 ADD MLOAD DUP6 PUSH2 0x100 ADD MLOAD LT ISZERO DUP1 ISZERO PUSH3 0x2C3F JUMPI POP PUSH1 0x20 DUP4 ADD MLOAD ISZERO DUP1 ISZERO PUSH3 0x2C3F JUMPI POP PUSH1 0x40 DUP4 ADD MLOAD ISZERO JUMPDEST ISZERO PUSH3 0x2CCF JUMPI DUP1 DUP3 EQ ISZERO PUSH3 0x2C61 JUMPI PUSH3 0x2C5B DUP4 DUP7 DUP7 PUSH3 0x35CC JUMP JUMPDEST PUSH3 0x2CC9 JUMP JUMPDEST DUP1 DUP3 GT DUP1 ISZERO PUSH3 0x2C82 JUMPI POP PUSH1 0x1 DUP6 PUSH1 0x40 ADD MLOAD PUSH1 0x4 DUP2 GT ISZERO PUSH3 0x2C7F JUMPI INVALID JUMPDEST EQ ISZERO JUMPDEST ISZERO PUSH3 0x2C95 JUMPI PUSH3 0x2C5B DUP4 DUP7 DUP7 PUSH3 0x3604 JUMP JUMPDEST DUP1 DUP3 LT DUP1 ISZERO PUSH3 0x2CB6 JUMPI POP PUSH1 0x1 DUP5 PUSH1 0x40 ADD MLOAD PUSH1 0x4 DUP2 GT ISZERO PUSH3 0x2CB3 JUMPI INVALID JUMPDEST EQ ISZERO JUMPDEST ISZERO PUSH3 0x2CC9 JUMPI PUSH3 0x2CC9 DUP4 DUP7 DUP7 PUSH3 0x3647 JUMP JUMPDEST PUSH3 0x2D76 JUMP JUMPDEST PUSH1 0x4 DUP5 PUSH1 0x40 ADD MLOAD PUSH1 0x4 DUP2 GT ISZERO PUSH3 0x2CE2 JUMPI INVALID JUMPDEST EQ DUP1 ISZERO PUSH3 0x2CF2 JUMPI POP PUSH1 0x40 DUP4 ADD MLOAD ISZERO JUMPDEST ISZERO PUSH3 0x2D76 JUMPI DUP1 DUP3 EQ ISZERO PUSH3 0x2D0E JUMPI PUSH3 0x2CC9 DUP4 DUP7 DUP7 PUSH3 0x35CC JUMP JUMPDEST DUP1 DUP3 GT DUP1 ISZERO PUSH3 0x2D2F JUMPI POP PUSH1 0x1 DUP6 PUSH1 0x40 ADD MLOAD PUSH1 0x4 DUP2 GT ISZERO PUSH3 0x2D2C JUMPI INVALID JUMPDEST EQ ISZERO JUMPDEST ISZERO PUSH3 0x2D42 JUMPI PUSH3 0x2CC9 DUP4 DUP7 DUP7 PUSH3 0x3604 JUMP JUMPDEST DUP1 DUP3 LT DUP1 ISZERO PUSH3 0x2D63 JUMPI POP PUSH1 0x1 DUP5 PUSH1 0x40 ADD MLOAD PUSH1 0x4 DUP2 GT ISZERO PUSH3 0x2D60 JUMPI INVALID JUMPDEST EQ ISZERO JUMPDEST ISZERO PUSH3 0x2D76 JUMPI PUSH3 0x2D76 DUP4 DUP7 DUP7 PUSH3 0x3647 JUMP JUMPDEST DUP4 MLOAD MLOAD PUSH1 0x0 SWAP1 DUP2 MSTORE PUSH1 0xC PUSH1 0x20 SWAP1 DUP2 MSTORE PUSH1 0x40 SWAP1 SWAP2 KECCAK256 DUP6 MLOAD DUP1 MLOAD DUP3 SSTORE DUP3 ADD MLOAD PUSH1 0x1 DUP1 DUP4 ADD SWAP2 SWAP1 SWAP2 SSTORE SWAP2 DUP7 ADD MLOAD PUSH1 0x2 DUP3 ADD DUP1 SLOAD DUP9 SWAP5 PUSH1 0xFF NOT SWAP1 SWAP2 AND SWAP1 DUP4 DUP2 DUP2 GT ISZERO PUSH3 0x2DBB JUMPI INVALID JUMPDEST MUL OR SWAP1 SSTORE POP PUSH1 0x40 DUP3 ADD MLOAD PUSH1 0x2 DUP3 ADD DUP1 SLOAD PUSH2 0xFF00 NOT AND PUSH2 0x100 DUP4 PUSH1 0x4 DUP2 GT ISZERO PUSH3 0x2DE0 JUMPI INVALID JUMPDEST MUL OR SWAP1 SSTORE POP PUSH1 0x60 DUP3 ADD MLOAD PUSH1 0x2 DUP3 ADD DUP1 SLOAD PUSH3 0x10000 PUSH1 0x1 PUSH1 0xB0 SHL SUB NOT AND PUSH3 0x10000 PUSH1 0x1 PUSH1 0x1 PUSH1 0xA0 SHL SUB SWAP4 DUP5 AND MUL OR SWAP1 SSTORE PUSH1 0x80 DUP4 ADD MLOAD PUSH1 0x3 DUP1 DUP5 ADD DUP1 SLOAD PUSH1 0x1 PUSH1 0x1 PUSH1 0xA0 SHL SUB NOT AND SWAP3 SWAP1 SWAP4 AND SWAP2 SWAP1 SWAP2 OR SWAP1 SWAP2 SSTORE PUSH1 0xA0 DUP4 ADD MLOAD PUSH1 0x4 DUP4 ADD SSTORE PUSH1 0xC0 DUP4 ADD MLOAD PUSH1 0x5 DUP4 ADD SSTORE PUSH1 0xE0 DUP4 ADD MLOAD PUSH1 0x6 DUP4 ADD SSTORE PUSH2 0x100 DUP4 ADD MLOAD PUSH1 0x7 DUP4 ADD SSTORE PUSH2 0x120 DUP4 ADD MLOAD PUSH1 0x8 DUP4 ADD DUP1 SLOAD SWAP2 SWAP3 SWAP1 SWAP2 PUSH1 0xFF NOT AND SWAP1 PUSH1 0x1 SWAP1 DUP5 SWAP1 DUP2 GT ISZERO PUSH3 0x2E7D JUMPI INVALID JUMPDEST MUL OR SWAP1 SSTORE POP PUSH2 0x140 DUP3 ADD MLOAD PUSH1 0x9 DUP3 ADD SSTORE PUSH2 0x160 DUP3 ADD MLOAD PUSH1 0xA DUP3 ADD SSTORE PUSH2 0x180 SWAP1 SWAP2 ADD MLOAD PUSH1 0xB SWAP1 SWAP2 ADD SSTORE DUP5 MLOAD MLOAD PUSH1 0x0 SWAP1 DUP2 MSTORE PUSH1 0xC PUSH1 0x20 SWAP1 DUP2 MSTORE PUSH1 0x40 SWAP1 SWAP2 KECCAK256 DUP7 MLOAD DUP1 MLOAD DUP3 SSTORE DUP3 ADD MLOAD PUSH1 0x1 DUP1 DUP4 ADD SWAP2 SWAP1 SWAP2 SSTORE SWAP2 DUP8 ADD MLOAD PUSH1 0x2 DUP3 ADD DUP1 SLOAD DUP10 SWAP5 PUSH1 0xFF NOT SWAP1 SWAP2 AND SWAP1 DUP4 DUP2 DUP2 GT ISZERO PUSH3 0x2EEA JUMPI INVALID JUMPDEST MUL OR SWAP1 SSTORE POP PUSH1 0x40 DUP3 ADD MLOAD PUSH1 0x2 DUP3 ADD DUP1 SLOAD PUSH2 0xFF00 NOT AND PUSH2 0x100 DUP4 PUSH1 0x4 DUP2 GT ISZERO PUSH3 0x2F0F JUMPI INVALID JUMPDEST MUL OR SWAP1 SSTORE POP PUSH1 0x60 DUP3 ADD MLOAD PUSH1 0x2 DUP3 ADD DUP1 SLOAD PUSH3 0x10000 PUSH1 0x1 PUSH1 0xB0 SHL SUB NOT AND PUSH3 0x10000 PUSH1 0x1 PUSH1 0x1 PUSH1 0xA0 SHL SUB SWAP4 DUP5 AND MUL OR SWAP1 SSTORE PUSH1 0x80 DUP4 ADD MLOAD PUSH1 0x3 DUP1 DUP5 ADD DUP1 SLOAD PUSH1 0x1 PUSH1 0x1 PUSH1 0xA0 SHL SUB NOT AND SWAP3 SWAP1 SWAP4 AND SWAP2 SWAP1 SWAP2 OR SWAP1 SWAP2 SSTORE PUSH1 0xA0 DUP4 ADD MLOAD PUSH1 0x4 DUP4 ADD SSTORE PUSH1 0xC0 DUP4 ADD MLOAD PUSH1 0x5 DUP4 ADD SSTORE PUSH1 0xE0 DUP4 ADD MLOAD PUSH1 0x6 DUP4 ADD SSTORE PUSH2 0x100 DUP4 ADD MLOAD PUSH1 0x7 DUP4 ADD SSTORE PUSH2 0x120 DUP4 ADD MLOAD PUSH1 0x8 DUP4 ADD DUP1 SLOAD SWAP2 SWAP3 SWAP1 SWAP2 PUSH1 0xFF NOT AND SWAP1 PUSH1 0x1 SWAP1 DUP5 SWAP1 DUP2 GT ISZERO PUSH3 0x2FAC JUMPI INVALID JUMPDEST MUL OR SWAP1 SSTORE POP PUSH2 0x140 DUP3 ADD MLOAD DUP2 PUSH1 0x9 ADD SSTORE PUSH2 0x160 DUP3 ADD MLOAD DUP2 PUSH1 0xA ADD SSTORE PUSH2 0x180 DUP3 ADD MLOAD DUP2 PUSH1 0xB ADD SSTORE SWAP1 POP POP POP POP SWAP3 SWAP2 POP POP JUMP JUMPDEST PUSH1 0xB SLOAD PUSH1 0x1 PUSH1 0x1 PUSH1 0xA0 SHL SUB AND PUSH4 0x23B872DD DUP7 DUP6 PUSH3 0x3002 DUP7 DUP7 PUSH4 0xFFFFFFFF PUSH3 0x1C38 AND JUMP JUMPDEST PUSH1 0x40 MLOAD DUP5 PUSH4 0xFFFFFFFF AND PUSH1 0xE0 SHL DUP2 MSTORE PUSH1 0x4 ADD PUSH3 0x3022 SWAP4 SWAP3 SWAP2 SWAP1 PUSH3 0x4332 JUMP JUMPDEST PUSH1 0x20 PUSH1 0x40 MLOAD DUP1 DUP4 SUB DUP2 PUSH1 0x0 DUP8 DUP1 EXTCODESIZE ISZERO DUP1 ISZERO PUSH3 0x303D JUMPI PUSH1 0x0 DUP1 REVERT JUMPDEST POP GAS CALL ISZERO DUP1 ISZERO PUSH3 0x3052 JUMPI RETURNDATASIZE PUSH1 0x0 DUP1 RETURNDATACOPY RETURNDATASIZE PUSH1 0x0 REVERT JUMPDEST POP POP POP POP PUSH1 0x40 MLOAD RETURNDATASIZE PUSH1 0x1F NOT PUSH1 0x1F DUP3 ADD AND DUP3 ADD DUP1 PUSH1 0x40 MSTORE POP DUP2 ADD SWAP1 PUSH3 0x3078 SWAP2 SWAP1 PUSH3 0x404F JUMP JUMPDEST POP PUSH1 0xB SLOAD PUSH1 0x1 PUSH1 0x1 PUSH1 0xA0 SHL SUB AND PUSH4 0x6C6F31F2 DUP5 PUSH3 0x309D DUP6 DUP6 PUSH4 0xFFFFFFFF PUSH3 0x1C38 AND JUMP JUMPDEST PUSH1 0x40 MLOAD DUP4 PUSH4 0xFFFFFFFF AND PUSH1 0xE0 SHL DUP2 MSTORE PUSH1 0x4 ADD PUSH3 0x30BC SWAP3 SWAP2 SWAP1 PUSH3 0x4395 JUMP JUMPDEST PUSH1 0x0 PUSH1 0x40 MLOAD DUP1 DUP4 SUB DUP2 PUSH1 0x0 DUP8 DUP1 EXTCODESIZE ISZERO DUP1 ISZERO PUSH3 0x30D7 JUMPI PUSH1 0x0 DUP1 REVERT JUMPDEST POP GAS CALL ISZERO DUP1 ISZERO PUSH3 0x30EC JUMPI RETURNDATASIZE PUSH1 0x0 DUP1 RETURNDATACOPY RETURNDATASIZE PUSH1 0x0 REVERT JUMPDEST POP POP POP PUSH1 0x0 DUP6 DUP2 MSTORE PUSH1 0xA PUSH1 0x20 MSTORE PUSH1 0x40 SWAP1 DUP2 SWAP1 KECCAK256 SLOAD SWAP1 MLOAD PUSH4 0x23B872DD PUSH1 0xE0 SHL DUP2 MSTORE PUSH1 0x1 PUSH1 0x1 PUSH1 0xA0 SHL SUB SWAP1 SWAP2 AND SWAP2 POP DUP2 SWAP1 PUSH4 0x23B872DD SWAP1 PUSH3 0x3135 SWAP1 DUP8 SWAP1 DUP11 SWAP1 DUP9 SWAP1 PUSH1 0x4 ADD PUSH3 0x4332 JUMP JUMPDEST PUSH1 0x20 PUSH1 0x40 MLOAD DUP1 DUP4 SUB DUP2 PUSH1 0x0 DUP8 DUP1 EXTCODESIZE ISZERO DUP1 ISZERO PUSH3 0x3150 JUMPI PUSH1 0x0 DUP1 REVERT JUMPDEST POP GAS CALL ISZERO DUP1 ISZERO PUSH3 0x3165 JUMPI RETURNDATASIZE PUSH1 0x0 DUP1 RETURNDATACOPY RETURNDATASIZE PUSH1 0x0 REVERT JUMPDEST POP POP POP POP PUSH1 0x40 MLOAD RETURNDATASIZE PUSH1 0x1F NOT PUSH1 0x1F DUP3 ADD AND DUP3 ADD DUP1 PUSH1 0x40 MSTORE POP DUP2 ADD SWAP1 PUSH3 0x318B SWAP2 SWAP1 PUSH3 0x404F JUMP JUMPDEST POP PUSH1 0x40 MLOAD PUSH4 0x363798F9 PUSH1 0xE1 SHL DUP2 MSTORE PUSH1 0x1 PUSH1 0x1 PUSH1 0xA0 SHL SUB DUP3 AND SWAP1 PUSH4 0x6C6F31F2 SWAP1 PUSH3 0x31BC SWAP1 DUP10 SWAP1 DUP8 SWAP1 PUSH1 0x4 ADD PUSH3 0x4395 JUMP JUMPDEST PUSH1 0x0 PUSH1 0x40 MLOAD DUP1 DUP4 SUB DUP2 PUSH1 0x0 DUP8 DUP1 EXTCODESIZE ISZERO DUP1 ISZERO PUSH3 0x31D7 JUMPI PUSH1 0x0 DUP1 REVERT JUMPDEST POP GAS CALL ISZERO DUP1 ISZERO PUSH3 0x31EC JUMPI RETURNDATASIZE PUSH1 0x0 DUP1 RETURNDATACOPY RETURNDATASIZE PUSH1 0x0 REVERT JUMPDEST POP POP POP POP POP POP POP POP POP POP JUMP JUMPDEST PUSH1 0x0 PUSH3 0x320E DUP5 PUSH1 0x1 PUSH1 0x1 PUSH1 0xA0 SHL SUB AND PUSH3 0x368A JUMP JUMPDEST PUSH3 0x321C JUMPI POP PUSH1 0x1 PUSH3 0x1C30 JUMP JUMPDEST PUSH1 0x60 PUSH3 0x32B1 PUSH4 0xA85BD01 PUSH1 0xE1 SHL PUSH3 0x3234 PUSH3 0x1996 JUMP JUMPDEST DUP9 DUP8 DUP8 PUSH1 0x40 MLOAD PUSH1 0x24 ADD PUSH3 0x324C SWAP5 SWAP4 SWAP3 SWAP2 SWAP1 PUSH3 0x4356 JUMP JUMPDEST PUSH1 0x40 MLOAD PUSH1 0x20 DUP2 DUP4 SUB SUB DUP2 MSTORE SWAP1 PUSH1 0x40 MSTORE SWAP1 PUSH1 0x1 PUSH1 0x1 PUSH1 0xE0 SHL SUB NOT AND PUSH1 0x20 DUP3 ADD DUP1 MLOAD PUSH1 0x1 PUSH1 0x1 PUSH1 0xE0 SHL SUB DUP4 DUP2 DUP4 AND OR DUP4 MSTORE POP POP POP POP PUSH1 0x40 MLOAD DUP1 PUSH1 0x60 ADD PUSH1 0x40 MSTORE DUP1 PUSH1 0x32 DUP2 MSTORE PUSH1 0x20 ADD PUSH3 0x5E98 PUSH1 0x32 SWAP2 CODECOPY PUSH1 0x1 PUSH1 0x1 PUSH1 0xA0 SHL SUB DUP9 AND SWAP2 SWAP1 PUSH4 0xFFFFFFFF PUSH3 0x3690 AND JUMP JUMPDEST SWAP1 POP PUSH1 0x0 DUP2 DUP1 PUSH1 0x20 ADD SWAP1 MLOAD DUP2 ADD SWAP1 PUSH3 0x32CB SWAP2 SWAP1 PUSH3 0x40A6 JUMP JUMPDEST PUSH1 0x1 PUSH1 0x1 PUSH1 0xE0 SHL SUB NOT AND PUSH4 0xA85BD01 PUSH1 0xE1 SHL EQ SWAP3 POP POP POP SWAP5 SWAP4 POP POP POP POP JUMP JUMPDEST PUSH1 0x0 SWAP1 DUP2 MSTORE PUSH1 0x1 SWAP2 SWAP1 SWAP2 ADD PUSH1 0x20 MSTORE PUSH1 0x40 SWAP1 KECCAK256 SLOAD ISZERO ISZERO SWAP1 JUMP JUMPDEST PUSH1 0x0 DUP2 DUP2 MSTORE PUSH1 0x1 DUP4 ADD PUSH1 0x20 MSTORE PUSH1 0x40 DUP2 KECCAK256 SLOAD DUP1 ISZERO PUSH3 0x33C3 JUMPI DUP4 SLOAD PUSH1 0x0 NOT DUP1 DUP4 ADD SWAP2 SWAP1 DUP2 ADD SWAP1 PUSH1 0x0 SWAP1 DUP8 SWAP1 DUP4 SWAP1 DUP2 LT PUSH3 0x3337 JUMPI INVALID JUMPDEST SWAP1 PUSH1 0x0 MSTORE PUSH1 0x20 PUSH1 0x0 KECCAK256 ADD SLOAD SWAP1 POP DUP1 DUP8 PUSH1 0x0 ADD DUP5 DUP2 SLOAD DUP2 LT PUSH3 0x3355 JUMPI INVALID JUMPDEST PUSH1 0x0 SWAP2 DUP3 MSTORE PUSH1 0x20 DUP1 DUP4 KECCAK256 SWAP1 SWAP2 ADD SWAP3 SWAP1 SWAP3 SSTORE DUP3 DUP2 MSTORE PUSH1 0x1 DUP10 DUP2 ADD SWAP1 SWAP3 MSTORE PUSH1 0x40 SWAP1 KECCAK256 SWAP1 DUP5 ADD SWAP1 SSTORE DUP7 SLOAD DUP8 SWAP1 DUP1 PUSH3 0x3386 JUMPI INVALID JUMPDEST PUSH1 0x1 SWAP1 SUB DUP2 DUP2 SWAP1 PUSH1 0x0 MSTORE PUSH1 0x20 PUSH1 0x0 KECCAK256 ADD PUSH1 0x0 SWAP1 SSTORE SWAP1 SSTORE DUP7 PUSH1 0x1 ADD PUSH1 0x0 DUP8 DUP2 MSTORE PUSH1 0x20 ADD SWAP1 DUP2 MSTORE PUSH1 0x20 ADD PUSH1 0x0 KECCAK256 PUSH1 0x0 SWAP1 SSTORE PUSH1 0x1 SWAP5 POP POP POP POP POP PUSH3 0x4FD JUMP JUMPDEST PUSH1 0x0 SWAP2 POP POP PUSH3 0x4FD JUMP JUMPDEST POP SWAP3 SWAP2 POP POP JUMP JUMPDEST PUSH1 0x0 PUSH3 0x33E3 DUP4 DUP4 PUSH3 0x32EA JUMP JUMPDEST PUSH3 0x341B JUMPI POP DUP2 SLOAD PUSH1 0x1 DUP2 DUP2 ADD DUP5 SSTORE PUSH1 0x0 DUP5 DUP2 MSTORE PUSH1 0x20 DUP1 DUP3 KECCAK256 SWAP1 SWAP4 ADD DUP5 SWAP1 SSTORE DUP5 SLOAD DUP5 DUP3 MSTORE DUP3 DUP7 ADD SWAP1 SWAP4 MSTORE PUSH1 0x40 SWAP1 KECCAK256 SWAP2 SWAP1 SWAP2 SSTORE PUSH3 0x4FD JUMP JUMPDEST POP PUSH1 0x0 PUSH3 0x4FD JUMP JUMPDEST PUSH1 0x0 DUP3 DUP2 MSTORE PUSH1 0x1 DUP5 ADD PUSH1 0x20 MSTORE PUSH1 0x40 DUP2 KECCAK256 SLOAD DUP1 PUSH3 0x348B JUMPI POP POP PUSH1 0x40 DUP1 MLOAD DUP1 DUP3 ADD DUP3 MSTORE DUP4 DUP2 MSTORE PUSH1 0x20 DUP1 DUP3 ADD DUP5 DUP2 MSTORE DUP7 SLOAD PUSH1 0x1 DUP2 DUP2 ADD DUP10 SSTORE PUSH1 0x0 DUP10 DUP2 MSTORE DUP5 DUP2 KECCAK256 SWAP6 MLOAD PUSH1 0x2 SWAP1 SWAP4 MUL SWAP1 SWAP6 ADD SWAP2 DUP3 SSTORE SWAP2 MLOAD SWAP1 DUP3 ADD SSTORE DUP7 SLOAD DUP7 DUP5 MSTORE DUP2 DUP9 ADD SWAP1 SWAP3 MSTORE SWAP3 SWAP1 SWAP2 KECCAK256 SSTORE PUSH3 0x714 JUMP JUMPDEST DUP3 DUP6 PUSH1 0x0 ADD PUSH1 0x1 DUP4 SUB DUP2 SLOAD DUP2 LT PUSH3 0x349F JUMPI INVALID JUMPDEST SWAP1 PUSH1 0x0 MSTORE PUSH1 0x20 PUSH1 0x0 KECCAK256 SWAP1 PUSH1 0x2 MUL ADD PUSH1 0x1 ADD DUP2 SWAP1 SSTORE POP PUSH1 0x0 SWAP2 POP POP PUSH3 0x714 JUMP JUMPDEST PUSH1 0x1 PUSH1 0x1 PUSH1 0xA0 SHL SUB DUP3 AND PUSH3 0x34E8 JUMPI PUSH1 0x40 MLOAD PUSH3 0x461BCD PUSH1 0xE5 SHL DUP2 MSTORE PUSH1 0x4 ADD PUSH3 0x5C9 SWAP1 PUSH3 0x47FB JUMP JUMPDEST PUSH3 0x34F3 DUP2 PUSH3 0x1981 JUMP JUMPDEST ISZERO PUSH3 0x3513 JUMPI PUSH1 0x40 MLOAD PUSH3 0x461BCD PUSH1 0xE5 SHL DUP2 MSTORE PUSH1 0x4 ADD PUSH3 0x5C9 SWAP1 PUSH3 0x4549 JUMP JUMPDEST PUSH3 0x3521 PUSH1 0x0 DUP4 DUP4 PUSH3 0x691 JUMP JUMPDEST PUSH1 0x1 PUSH1 0x1 PUSH1 0xA0 SHL SUB DUP3 AND PUSH1 0x0 SWAP1 DUP2 MSTORE PUSH1 0x1 PUSH1 0x20 MSTORE PUSH1 0x40 SWAP1 KECCAK256 PUSH3 0x354B SWAP1 DUP3 PUSH4 0xFFFFFFFF PUSH3 0x29D5 AND JUMP JUMPDEST POP PUSH3 0x3560 PUSH1 0x2 DUP3 DUP5 PUSH4 0xFFFFFFFF PUSH3 0x29E3 AND JUMP JUMPDEST POP PUSH1 0x40 MLOAD DUP2 SWAP1 PUSH1 0x1 PUSH1 0x1 PUSH1 0xA0 SHL SUB DUP5 AND SWAP1 PUSH1 0x0 SWAP1 PUSH32 0xDDF252AD1BE2C89B69C2B068FC378DAA952BA7F163C4A11628F55A4DF523B3EF SWAP1 DUP3 SWAP1 LOG4 POP POP JUMP JUMPDEST PUSH1 0x0 DUP2 DUP5 DUP5 GT ISZERO PUSH3 0x35C4 JUMPI PUSH1 0x40 MLOAD PUSH3 0x461BCD PUSH1 0xE5 SHL DUP2 MSTORE PUSH1 0x4 ADD PUSH3 0x5C9 SWAP2 SWAP1 PUSH3 0x4483 JUMP JUMPDEST POP POP POP SWAP1 SUB SWAP1 JUMP JUMPDEST PUSH1 0xC0 DUP1 DUP4 ADD DUP1 MLOAD PUSH1 0x60 DUP7 ADD MSTORE SWAP1 DUP3 ADD DUP1 MLOAD PUSH1 0x80 DUP7 ADD MSTORE PUSH1 0x1 DUP6 MSTORE PUSH1 0x0 SWAP1 DUP2 SWAP1 MSTORE SWAP1 MSTORE PUSH3 0x35F9 DUP3 PUSH3 0x36A1 JUMP JUMPDEST PUSH3 0x691 DUP2 PUSH3 0x36A1 JUMP JUMPDEST PUSH1 0xC0 DUP1 DUP3 ADD DUP1 MLOAD PUSH1 0x60 DUP7 ADD MSTORE DUP1 MLOAD PUSH1 0x80 DUP7 ADD MSTORE MLOAD SWAP1 DUP4 ADD MLOAD PUSH3 0x362D SWAP2 PUSH4 0xFFFFFFFF PUSH3 0x2B41 AND JUMP JUMPDEST PUSH1 0xC0 DUP1 DUP5 ADD SWAP2 SWAP1 SWAP2 MSTORE PUSH1 0x0 SWAP1 DUP3 ADD MSTORE PUSH3 0x691 DUP2 PUSH3 0x36A1 JUMP JUMPDEST PUSH1 0xC0 DUP1 DUP4 ADD DUP1 MLOAD PUSH1 0x60 DUP7 ADD MSTORE DUP1 MLOAD PUSH1 0x80 DUP7 ADD MSTORE MLOAD SWAP1 DUP3 ADD MLOAD PUSH3 0x3670 SWAP2 PUSH4 0xFFFFFFFF PUSH3 0x2B41 AND JUMP JUMPDEST PUSH1 0xC0 DUP1 DUP4 ADD SWAP2 SWAP1 SWAP2 MSTORE PUSH1 0x0 SWAP1 DUP4 ADD MSTORE PUSH3 0x691 DUP3 PUSH3 0x36A1 JUMP JUMPDEST EXTCODESIZE ISZERO ISZERO SWAP1 JUMP JUMPDEST PUSH1 0x60 PUSH3 0x1C30 DUP5 DUP5 PUSH1 0x0 DUP6 PUSH3 0x379E JUMP JUMPDEST PUSH3 0x36AB PUSH3 0x3D5F JUMP JUMPDEST POP DUP1 MLOAD PUSH3 0x36B9 DUP2 PUSH3 0x3870 JUMP JUMPDEST POP PUSH1 0x40 DUP1 MLOAD DUP1 DUP3 ADD SWAP1 SWAP2 MSTORE PUSH1 0xE DUP2 MSTORE PUSH14 0x4D4154434845445F4F5244455253 PUSH1 0x90 SHL PUSH1 0x20 SWAP2 DUP3 ADD MSTORE PUSH32 0xADAACA5C8C3F56BF72F89ABB1ED95701D44C650C5E04CF89DF361454308F6F75 PUSH1 0x0 SWAP1 DUP2 MSTORE PUSH1 0xD DUP3 MSTORE DUP3 MLOAD PUSH32 0xE0A80A76B0F7474DD1C95F95AEB280DA4C84E313166CF753213A3F81FD868FF3 DUP1 SLOAD PUSH1 0x1 DUP1 DUP3 ADD DUP4 SSTORE SWAP2 SWAP1 SWAP4 MSTORE DUP2 MLOAD PUSH32 0x9902FC2ADA66D7AC10FDF04358B59EDCD8609E9AADAA0654B4FF4C3A5D09166E PUSH1 0x2 SWAP1 SWAP5 MUL SWAP4 DUP5 ADD SSTORE SWAP3 ADD MLOAD PUSH32 0x9902FC2ADA66D7AC10FDF04358B59EDCD8609E9AADAA0654B4FF4C3A5D09166F SWAP1 SWAP2 ADD SSTORE PUSH2 0x120 DUP3 ADD MSTORE TIMESTAMP PUSH2 0x160 SWAP1 SWAP2 ADD MSTORE JUMP JUMPDEST PUSH1 0x60 PUSH3 0x37AB DUP6 PUSH3 0x368A JUMP JUMPDEST PUSH3 0x37CA JUMPI PUSH1 0x40 MLOAD PUSH3 0x461BCD PUSH1 0xE5 SHL DUP2 MSTORE PUSH1 0x4 ADD PUSH3 0x5C9 SWAP1 PUSH3 0x4A22 JUMP JUMPDEST PUSH1 0x0 PUSH1 0x60 DUP7 PUSH1 0x1 PUSH1 0x1 PUSH1 0xA0 SHL SUB AND DUP6 DUP8 PUSH1 0x40 MLOAD PUSH3 0x37E9 SWAP2 SWAP1 PUSH3 0x425D JUMP JUMPDEST PUSH1 0x0 PUSH1 0x40 MLOAD DUP1 DUP4 SUB DUP2 DUP6 DUP8 GAS CALL SWAP3 POP POP POP RETURNDATASIZE DUP1 PUSH1 0x0 DUP2 EQ PUSH3 0x3828 JUMPI PUSH1 0x40 MLOAD SWAP2 POP PUSH1 0x1F NOT PUSH1 0x3F RETURNDATASIZE ADD AND DUP3 ADD PUSH1 0x40 MSTORE RETURNDATASIZE DUP3 MSTORE RETURNDATASIZE PUSH1 0x0 PUSH1 0x20 DUP5 ADD RETURNDATACOPY PUSH3 0x382D JUMP JUMPDEST PUSH1 0x60 SWAP2 POP JUMPDEST POP SWAP2 POP SWAP2 POP DUP2 ISZERO PUSH3 0x3843 JUMPI SWAP2 POP PUSH3 0x1C30 SWAP1 POP JUMP JUMPDEST DUP1 MLOAD ISZERO PUSH3 0x3854 JUMPI DUP1 MLOAD DUP1 DUP3 PUSH1 0x20 ADD REVERT JUMPDEST DUP4 PUSH1 0x40 MLOAD PUSH3 0x461BCD PUSH1 0xE5 SHL DUP2 MSTORE PUSH1 0x4 ADD PUSH3 0x5C9 SWAP2 SWAP1 PUSH3 0x4483 JUMP JUMPDEST PUSH1 0x40 DUP1 MLOAD DUP1 DUP3 ADD SWAP1 SWAP2 MSTORE PUSH1 0xE DUP2 MSTORE PUSH14 0x50454E44494E475F4F5244455253 PUSH1 0x90 SHL PUSH1 0x20 SWAP2 DUP3 ADD MSTORE PUSH1 0x0 DUP1 MLOAD PUSH1 0x20 PUSH3 0x5ECA DUP4 CODECOPY DUP2 MLOAD SWAP2 MSTORE PUSH1 0x0 MSTORE PUSH1 0xD SWAP1 MSTORE PUSH1 0x0 DUP1 MLOAD PUSH1 0x20 PUSH3 0x5E78 DUP4 CODECOPY DUP2 MLOAD SWAP2 MSTORE SLOAD PUSH3 0x38C9 JUMPI PUSH3 0x2894 JUMP JUMPDEST PUSH1 0x40 DUP1 MLOAD DUP1 DUP3 ADD SWAP1 SWAP2 MSTORE PUSH1 0xE DUP2 MSTORE PUSH14 0x50454E44494E475F4F5244455253 PUSH1 0x90 SHL PUSH1 0x20 SWAP2 DUP3 ADD MSTORE PUSH1 0x0 DUP1 MLOAD PUSH1 0x20 PUSH3 0x5ECA DUP4 CODECOPY DUP2 MLOAD SWAP2 MSTORE PUSH1 0x0 MSTORE PUSH1 0xD SWAP1 MSTORE PUSH1 0x0 DUP1 MLOAD PUSH1 0x20 PUSH3 0x5E78 DUP4 CODECOPY DUP2 MLOAD SWAP2 MSTORE SLOAD PUSH1 0x1 EQ ISZERO PUSH3 0x399B JUMPI PUSH1 0x40 DUP1 MLOAD DUP1 DUP3 ADD SWAP1 SWAP2 MSTORE PUSH1 0xE DUP2 MSTORE PUSH14 0x50454E44494E475F4F5244455253 PUSH1 0x90 SHL PUSH1 0x20 SWAP2 DUP3 ADD MSTORE PUSH1 0x0 DUP1 MLOAD PUSH1 0x20 PUSH3 0x5ECA DUP4 CODECOPY DUP2 MLOAD SWAP2 MSTORE PUSH1 0x0 MSTORE PUSH1 0xD SWAP1 MSTORE PUSH1 0x0 DUP1 MLOAD PUSH1 0x20 PUSH3 0x5E78 DUP4 CODECOPY DUP2 MLOAD SWAP2 MSTORE DUP1 SLOAD DUP1 PUSH3 0x3977 JUMPI INVALID JUMPDEST PUSH1 0x0 DUP3 DUP2 MSTORE PUSH1 0x20 DUP2 KECCAK256 PUSH1 0x2 PUSH1 0x0 NOT SWAP1 SWAP4 ADD SWAP3 DUP4 MUL ADD DUP2 DUP2 SSTORE PUSH1 0x1 ADD SSTORE SWAP1 SSTORE PUSH3 0x2894 JUMP JUMPDEST PUSH1 0x40 DUP1 MLOAD DUP1 DUP3 ADD SWAP1 SWAP2 MSTORE PUSH1 0xE DUP2 MSTORE PUSH14 0x50454E44494E475F4F5244455253 PUSH1 0x90 SHL PUSH1 0x20 SWAP2 DUP3 ADD MSTORE PUSH1 0x0 DUP1 MLOAD PUSH1 0x20 PUSH3 0x5ECA DUP4 CODECOPY DUP2 MLOAD SWAP2 MSTORE PUSH1 0x0 SWAP1 DUP2 MSTORE PUSH1 0xD SWAP1 SWAP2 MSTORE PUSH1 0x0 DUP1 MLOAD PUSH1 0x20 PUSH3 0x5E78 DUP4 CODECOPY DUP2 MLOAD SWAP2 MSTORE SLOAD PUSH3 0x39FF SWAP1 PUSH1 0x1 PUSH4 0xFFFFFFFF PUSH3 0x2B41 AND JUMP JUMPDEST PUSH1 0x40 DUP1 MLOAD DUP1 DUP3 ADD DUP3 MSTORE PUSH1 0xE DUP2 MSTORE PUSH14 0x50454E44494E475F4F5244455253 PUSH1 0x90 SHL PUSH1 0x20 SWAP2 DUP3 ADD MSTORE PUSH1 0x0 DUP1 MLOAD PUSH1 0x20 PUSH3 0x5ECA DUP4 CODECOPY DUP2 MLOAD SWAP2 MSTORE PUSH1 0x0 SWAP1 DUP2 MSTORE PUSH1 0xD SWAP1 SWAP2 MSTORE SWAP1 MLOAD PUSH4 0x191EE783 PUSH1 0xE0 SHL DUP2 MSTORE SWAP2 SWAP3 POP SWAP1 PUSH20 0x0 SWAP1 PUSH4 0x191EE783 SWAP1 PUSH3 0x3A8F SWAP1 PUSH1 0x0 DUP1 MLOAD PUSH1 0x20 PUSH3 0x5E78 DUP4 CODECOPY DUP2 MLOAD SWAP2 MSTORE SWAP1 DUP6 SWAP1 DUP8 SWAP1 DUP10 SWAP1 PUSH1 0x4 ADD PUSH3 0x43AE JUMP JUMPDEST PUSH1 0x20 PUSH1 0x40 MLOAD DUP1 DUP4 SUB DUP2 DUP7 DUP1 EXTCODESIZE ISZERO DUP1 ISZERO PUSH3 0x3AA8 JUMPI PUSH1 0x0 DUP1 REVERT JUMPDEST POP GAS DELEGATECALL ISZERO DUP1 ISZERO PUSH3 0x3ABD JUMPI RETURNDATASIZE PUSH1 0x0 DUP1 RETURNDATACOPY RETURNDATASIZE PUSH1 0x0 REVERT JUMPDEST POP POP POP POP PUSH1 0x40 MLOAD RETURNDATASIZE PUSH1 0x1F NOT PUSH1 0x1F DUP3 ADD AND DUP3 ADD DUP1 PUSH1 0x40 MSTORE POP DUP2 ADD SWAP1 PUSH3 0x3AE3 SWAP2 SWAP1 PUSH3 0x4107 JUMP JUMPDEST SWAP1 POP PUSH1 0x0 DUP2 SLT PUSH3 0x691 JUMPI DUP1 JUMPDEST DUP3 DUP2 LT ISZERO PUSH3 0x3BE8 JUMPI PUSH1 0x40 DUP1 MLOAD DUP1 DUP3 ADD SWAP1 SWAP2 MSTORE PUSH1 0xE DUP2 MSTORE PUSH14 0x50454E44494E475F4F5244455253 PUSH1 0x90 SHL PUSH1 0x20 SWAP2 DUP3 ADD MSTORE PUSH1 0x0 DUP1 MLOAD PUSH1 0x20 PUSH3 0x5ECA DUP4 CODECOPY DUP2 MLOAD SWAP2 MSTORE PUSH1 0x0 MSTORE PUSH1 0xD SWAP1 MSTORE PUSH1 0x0 DUP1 MLOAD PUSH1 0x20 PUSH3 0x5E78 DUP4 CODECOPY DUP2 MLOAD SWAP2 MSTORE DUP1 SLOAD PUSH1 0x1 DUP4 ADD SWAP1 DUP2 LT PUSH3 0x3B56 JUMPI INVALID JUMPDEST PUSH1 0x0 SWAP2 DUP3 MSTORE PUSH1 0x20 DUP1 DUP4 KECCAK256 PUSH1 0x40 DUP1 MLOAD DUP1 DUP3 ADD SWAP1 SWAP2 MSTORE PUSH1 0xE DUP2 MSTORE PUSH14 0x50454E44494E475F4F5244455253 PUSH1 0x90 SHL SWAP1 DUP4 ADD MSTORE PUSH1 0x0 DUP1 MLOAD PUSH1 0x20 PUSH3 0x5ECA DUP4 CODECOPY DUP2 MLOAD SWAP2 MSTORE SWAP1 SWAP4 MSTORE PUSH1 0xD SWAP1 MSTORE PUSH1 0x0 DUP1 MLOAD PUSH1 0x20 PUSH3 0x5E78 DUP4 CODECOPY DUP2 MLOAD SWAP2 MSTORE DUP1 SLOAD PUSH1 0x2 SWAP1 SWAP3 MUL SWAP1 SWAP3 ADD SWAP2 SWAP1 DUP4 SWAP1 DUP2 LT PUSH3 0x3BC2 JUMPI INVALID JUMPDEST PUSH1 0x0 SWAP2 DUP3 MSTORE PUSH1 0x20 SWAP1 SWAP2 KECCAK256 DUP3 SLOAD PUSH1 0x2 SWAP1 SWAP3 MUL ADD SWAP1 DUP2 SSTORE PUSH1 0x1 SWAP2 DUP3 ADD SLOAD SWAP1 DUP3 ADD SSTORE ADD PUSH3 0x3AF0 JUMP JUMPDEST POP PUSH1 0x40 DUP1 MLOAD DUP1 DUP3 ADD SWAP1 SWAP2 MSTORE PUSH1 0xE DUP2 MSTORE PUSH14 0x50454E44494E475F4F5244455253 PUSH1 0x90 SHL PUSH1 0x20 SWAP2 DUP3 ADD MSTORE PUSH1 0x0 DUP1 MLOAD PUSH1 0x20 PUSH3 0x5ECA DUP4 CODECOPY DUP2 MLOAD SWAP2 MSTORE PUSH1 0x0 MSTORE PUSH1 0xD SWAP1 MSTORE PUSH1 0x0 DUP1 MLOAD PUSH1 0x20 PUSH3 0x5E78 DUP4 CODECOPY DUP2 MLOAD SWAP2 MSTORE DUP1 SLOAD DUP1 PUSH3 0x3C40 JUMPI INVALID JUMPDEST PUSH1 0x0 DUP3 DUP2 MSTORE PUSH1 0x20 DUP2 KECCAK256 PUSH1 0x2 PUSH1 0x0 NOT SWAP1 SWAP4 ADD SWAP3 DUP4 MUL ADD DUP2 DUP2 SSTORE PUSH1 0x1 ADD SSTORE SWAP1 SSTORE POP POP POP JUMP JUMPDEST PUSH1 0x40 MLOAD DUP1 PUSH2 0x100 ADD PUSH1 0x40 MSTORE DUP1 PUSH1 0x0 DUP2 MSTORE PUSH1 0x20 ADD PUSH1 0x0 PUSH1 0x1 PUSH1 0x1 PUSH1 0xA0 SHL SUB AND DUP2 MSTORE PUSH1 0x20 ADD PUSH1 0x0 PUSH1 0x1 PUSH1 0x1 PUSH1 0xA0 SHL SUB AND DUP2 MSTORE PUSH1 0x20 ADD PUSH1 0x60 DUP2 MSTORE PUSH1 0x20 ADD PUSH1 0x60 DUP2 MSTORE PUSH1 0x20 ADD PUSH1 0x0 DUP2 MSTORE PUSH1 0x20 ADD PUSH1 0x0 DUP2 MSTORE PUSH1 0x20 ADD PUSH1 0x0 PUSH1 0x1 PUSH1 0x1 PUSH1 0xA0 SHL SUB AND DUP2 MSTORE POP SWAP1 JUMP JUMPDEST PUSH2 0x1123 DUP1 PUSH3 0x4D55 DUP4 CODECOPY ADD SWAP1 JUMP JUMPDEST PUSH1 0x40 MLOAD DUP1 PUSH2 0x1A0 ADD PUSH1 0x40 MSTORE DUP1 PUSH3 0x3CE7 PUSH3 0x3D5F JUMP JUMPDEST DUP2 MSTORE PUSH1 0x20 ADD PUSH1 0x0 DUP2 MSTORE PUSH1 0x20 ADD PUSH1 0x0 DUP2 MSTORE PUSH1 0x20 ADD PUSH1 0x0 PUSH1 0x1 PUSH1 0x1 PUSH1 0xA0 SHL SUB AND DUP2 MSTORE PUSH1 0x20 ADD PUSH1 0x0 PUSH1 0x1 PUSH1 0x1 PUSH1 0xA0 SHL SUB AND DUP2 MSTORE PUSH1 0x20 ADD PUSH1 0x0 DUP2 MSTORE PUSH1 0x20 ADD PUSH1 0x0 DUP2 MSTORE PUSH1 0x20 ADD PUSH1 0x0 DUP2 MSTORE PUSH1 0x20 ADD PUSH1 0x0 DUP2 MSTORE PUSH1 0x20 ADD PUSH1 0x0 PUSH1 0x3 DUP2 GT ISZERO PUSH3 0x3D44 JUMPI INVALID JUMPDEST DUP2 MSTORE PUSH1 0x20 ADD PUSH1 0x0 DUP2 MSTORE PUSH1 0x20 ADD PUSH1 0x0 DUP2 MSTORE PUSH1 0x20 ADD PUSH1 0x0 DUP2 MSTORE POP SWAP1 JUMP JUMPDEST PUSH1 0x40 DUP1 MLOAD DUP1 DUP3 ADD SWAP1 SWAP2 MSTORE PUSH1 0x0 DUP1 DUP3 MSTORE PUSH1 0x20 DUP3 ADD MSTORE SWAP1 JUMP JUMPDEST PUSH1 0x40 DUP1 MLOAD PUSH1 0xA0 DUP2 ADD DUP3 MSTORE PUSH1 0x0 DUP1 DUP3 MSTORE PUSH1 0x20 DUP3 ADD DUP2 SWAP1 MSTORE SWAP2 DUP2 ADD DUP3 SWAP1 MSTORE PUSH1 0x60 DUP2 ADD DUP3 SWAP1 MSTORE PUSH1 0x80 DUP2 ADD SWAP2 SWAP1 SWAP2 MSTORE SWAP1 JUMP JUMPDEST PUSH1 0x0 DUP3 PUSH1 0x1F DUP4 ADD SLT PUSH3 0x3DB5 JUMPI DUP1 DUP2 REVERT JUMPDEST DUP2 MLOAD PUSH3 0x3DCC PUSH3 0x3DC6 DUP3 PUSH3 0x4CC4 JUMP JUMPDEST PUSH3 0x4C9C JUMP JUMPDEST SWAP2 POP DUP1 DUP3 MSTORE DUP4 PUSH1 0x20 DUP3 DUP6 ADD ADD GT ISZERO PUSH3 0x3DE4 JUMPI PUSH1 0x0 DUP1 REVERT JUMPDEST PUSH3 0x33CE DUP2 PUSH1 0x20 DUP5 ADD PUSH1 0x20 DUP7 ADD PUSH3 0x4CE9 JUMP JUMPDEST PUSH1 0x0 PUSH1 0x20 DUP3 DUP5 SUB SLT ISZERO PUSH3 0x3E09 JUMPI DUP1 DUP2 REVERT JUMPDEST DUP2 CALLDATALOAD PUSH3 0x714 DUP2 PUSH3 0x4D18 JUMP JUMPDEST PUSH1 0x0 DUP1 PUSH1 0x40 DUP4 DUP6 SUB SLT ISZERO PUSH3 0x3E29 JUMPI DUP1 DUP2 REVERT JUMPDEST DUP3 CALLDATALOAD PUSH3 0x3E36 DUP2 PUSH3 0x4D18 JUMP JUMPDEST SWAP2 POP PUSH1 0x20 DUP4 ADD CALLDATALOAD PUSH3 0x3E48 DUP2 PUSH3 0x4D18 JUMP JUMPDEST DUP1 SWAP2 POP POP SWAP3 POP SWAP3 SWAP1 POP JUMP JUMPDEST PUSH1 0x0 DUP1 PUSH1 0x0 PUSH1 0x60 DUP5 DUP7 SUB SLT ISZERO PUSH3 0x3E68 JUMPI DUP1 DUP2 REVERT JUMPDEST DUP4 CALLDATALOAD PUSH3 0x3E75 DUP2 PUSH3 0x4D18 JUMP JUMPDEST SWAP3 POP PUSH1 0x20 DUP5 ADD CALLDATALOAD PUSH3 0x3E87 DUP2 PUSH3 0x4D18 JUMP JUMPDEST SWAP3 SWAP6 SWAP3 SWAP5 POP POP POP PUSH1 0x40 SWAP2 SWAP1 SWAP2 ADD CALLDATALOAD SWAP1 JUMP JUMPDEST PUSH1 0x0 DUP1 PUSH1 0x0 DUP1 PUSH1 0x80 DUP6 DUP8 SUB SLT ISZERO PUSH3 0x3EAE JUMPI DUP1 DUP2 REVERT JUMPDEST DUP5 CALLDATALOAD PUSH3 0x3EBB DUP2 PUSH3 0x4D18 JUMP JUMPDEST SWAP4 POP PUSH1 0x20 DUP6 ADD CALLDATALOAD PUSH3 0x3ECD DUP2 PUSH3 0x4D18 JUMP JUMPDEST SWAP3 POP PUSH1 0x40 DUP6 ADD CALLDATALOAD SWAP2 POP PUSH1 0x60 DUP6 ADD CALLDATALOAD PUSH8 0xFFFFFFFFFFFFFFFF DUP2 GT ISZERO PUSH3 0x3EF0 JUMPI DUP2 DUP3 REVERT JUMPDEST DUP1 DUP7 ADD DUP8 PUSH1 0x1F DUP3 ADD SLT PUSH3 0x3F02 JUMPI DUP3 DUP4 REVERT JUMPDEST DUP1 CALLDATALOAD SWAP2 POP PUSH3 0x3F15 PUSH3 0x3DC6 DUP4 PUSH3 0x4CC4 JUMP JUMPDEST DUP3 DUP2 MSTORE DUP9 PUSH1 0x20 DUP5 DUP5 ADD ADD GT ISZERO PUSH3 0x3F2A JUMPI DUP4 DUP5 REVERT JUMPDEST DUP3 PUSH1 0x20 DUP4 ADD PUSH1 0x20 DUP4 ADD CALLDATACOPY SWAP2 DUP3 ADD PUSH1 0x20 ADD SWAP3 SWAP1 SWAP3 MSTORE SWAP4 SWAP7 SWAP3 SWAP6 POP SWAP1 SWAP4 POP POP JUMP JUMPDEST PUSH1 0x0 DUP1 PUSH1 0x40 DUP4 DUP6 SUB SLT ISZERO PUSH3 0x3F5C JUMPI DUP2 DUP3 REVERT JUMPDEST DUP3 CALLDATALOAD PUSH3 0x3F69 DUP2 PUSH3 0x4D18 JUMP JUMPDEST SWAP2 POP PUSH1 0x20 DUP4 ADD CALLDATALOAD PUSH3 0x3E48 DUP2 PUSH3 0x4D2E JUMP JUMPDEST PUSH1 0x0 DUP1 PUSH1 0x0 DUP1 PUSH1 0x0 DUP1 PUSH1 0xC0 DUP8 DUP10 SUB SLT ISZERO PUSH3 0x3F94 JUMPI DUP2 DUP3 REVERT JUMPDEST DUP7 MLOAD PUSH3 0x3FA1 DUP2 PUSH3 0x4D18 JUMP JUMPDEST PUSH1 0x20 DUP9 ADD MLOAD SWAP1 SWAP7 POP PUSH8 0xFFFFFFFFFFFFFFFF DUP1 DUP3 GT ISZERO PUSH3 0x3FBF JUMPI DUP4 DUP5 REVERT JUMPDEST PUSH3 0x3FCD DUP11 DUP4 DUP12 ADD PUSH3 0x3DA4 JUMP JUMPDEST SWAP7 POP PUSH1 0x40 DUP10 ADD MLOAD SWAP2 POP DUP1 DUP3 GT ISZERO PUSH3 0x3FE3 JUMPI DUP4 DUP5 REVERT JUMPDEST POP PUSH3 0x3FF2 DUP10 DUP3 DUP11 ADD PUSH3 0x3DA4 JUMP JUMPDEST SWAP5 POP POP PUSH1 0x60 DUP8 ADD MLOAD SWAP3 POP PUSH1 0x80 DUP8 ADD MLOAD SWAP2 POP PUSH1 0xA0 DUP8 ADD MLOAD PUSH3 0x4013 DUP2 PUSH3 0x4D18 JUMP JUMPDEST DUP1 SWAP2 POP POP SWAP3 SWAP6 POP SWAP3 SWAP6 POP SWAP3 SWAP6 JUMP JUMPDEST PUSH1 0x0 DUP1 PUSH1 0x40 DUP4 DUP6 SUB SLT ISZERO PUSH3 0x4034 JUMPI DUP2 DUP3 REVERT JUMPDEST DUP3 CALLDATALOAD PUSH3 0x4041 DUP2 PUSH3 0x4D18 JUMP JUMPDEST SWAP5 PUSH1 0x20 SWAP4 SWAP1 SWAP4 ADD CALLDATALOAD SWAP4 POP POP POP JUMP JUMPDEST PUSH1 0x0 PUSH1 0x20 DUP3 DUP5 SUB SLT ISZERO PUSH3 0x4061 JUMPI DUP1 DUP2 REVERT JUMPDEST DUP2 MLOAD PUSH3 0x714 DUP2 PUSH3 0x4D2E JUMP JUMPDEST PUSH1 0x0 PUSH1 0x20 DUP3 DUP5 SUB SLT ISZERO PUSH3 0x4080 JUMPI DUP1 DUP2 REVERT JUMPDEST POP CALLDATALOAD SWAP2 SWAP1 POP JUMP JUMPDEST PUSH1 0x0 PUSH1 0x20 DUP3 DUP5 SUB SLT ISZERO PUSH3 0x4099 JUMPI DUP1 DUP2 REVERT JUMPDEST DUP2 CALLDATALOAD PUSH3 0x714 DUP2 PUSH3 0x4D3D JUMP JUMPDEST PUSH1 0x0 PUSH1 0x20 DUP3 DUP5 SUB SLT ISZERO PUSH3 0x40B8 JUMPI DUP1 DUP2 REVERT JUMPDEST DUP2 MLOAD PUSH3 0x714 DUP2 PUSH3 0x4D3D JUMP JUMPDEST PUSH1 0x0 PUSH1 0x20 DUP3 DUP5 SUB SLT ISZERO PUSH3 0x40D7 JUMPI DUP1 DUP2 REVERT JUMPDEST DUP2 CALLDATALOAD PUSH1 0x5 DUP2 LT PUSH3 0x714 JUMPI DUP2 DUP3 REVERT JUMPDEST PUSH1 0x0 PUSH1 0x20 DUP3 DUP5 SUB SLT ISZERO PUSH3 0x40F8 JUMPI DUP1 DUP2 REVERT JUMPDEST DUP2 CALLDATALOAD PUSH1 0x2 DUP2 LT PUSH3 0x714 JUMPI DUP2 DUP3 REVERT JUMPDEST PUSH1 0x0 PUSH1 0x20 DUP3 DUP5 SUB SLT ISZERO PUSH3 0x4119 JUMPI DUP1 DUP2 REVERT JUMPDEST POP MLOAD SWAP2 SWAP1 POP JUMP JUMPDEST PUSH1 0x0 PUSH1 0x20 DUP3 DUP5 SUB SLT ISZERO PUSH3 0x4132 JUMPI DUP1 DUP2 REVERT JUMPDEST DUP2 CALLDATALOAD PUSH8 0xFFFFFFFFFFFFFFFF DUP2 GT ISZERO PUSH3 0x4149 JUMPI DUP2 DUP3 REVERT JUMPDEST DUP1 DUP4 ADD PUSH1 0xC0 DUP2 DUP7 SUB SLT ISZERO PUSH3 0x1C30 JUMPI DUP3 DUP4 REVERT JUMPDEST PUSH1 0x0 PUSH1 0xE0 DUP3 DUP5 SUB SLT ISZERO PUSH3 0x416E JUMPI DUP1 DUP2 REVERT JUMPDEST POP SWAP2 SWAP1 POP JUMP JUMPDEST PUSH1 0x0 DUP1 PUSH1 0x40 DUP4 DUP6 SUB SLT ISZERO PUSH3 0x4187 JUMPI DUP2 DUP3 REVERT JUMPDEST DUP3 CALLDATALOAD SWAP2 POP PUSH1 0x20 DUP4 ADD CALLDATALOAD PUSH3 0x3E48 DUP2 PUSH3 0x4D18 JUMP JUMPDEST PUSH1 0x0 DUP1 PUSH1 0x0 PUSH1 0x60 DUP5 DUP7 SUB SLT ISZERO PUSH3 0x41B0 JUMPI DUP1 DUP2 REVERT JUMPDEST DUP4 CALLDATALOAD SWAP3 POP PUSH1 0x20 DUP5 ADD CALLDATALOAD PUSH3 0x3E87 DUP2 PUSH3 0x4D18 JUMP JUMPDEST PUSH1 0x1 PUSH1 0x1 PUSH1 0xA0 SHL SUB AND SWAP1 MSTORE JUMP JUMPDEST PUSH1 0x0 DUP2 MLOAD DUP1 DUP5 MSTORE PUSH3 0x41EB DUP2 PUSH1 0x20 DUP7 ADD PUSH1 0x20 DUP7 ADD PUSH3 0x4CE9 JUMP JUMPDEST PUSH1 0x1F ADD PUSH1 0x1F NOT AND SWAP3 SWAP1 SWAP3 ADD PUSH1 0x20 ADD SWAP3 SWAP2 POP POP JUMP JUMPDEST PUSH1 0x4 DUP2 LT PUSH3 0x420A JUMPI INVALID JUMPDEST SWAP1 MSTORE JUMP JUMPDEST PUSH1 0x5 DUP2 LT PUSH3 0x420A JUMPI INVALID JUMPDEST PUSH1 0x2 DUP2 LT PUSH3 0x420A JUMPI INVALID JUMPDEST PUSH1 0x0 DUP3 DUP5 MSTORE DUP3 DUP3 PUSH1 0x20 DUP7 ADD CALLDATACOPY DUP1 PUSH1 0x20 DUP5 DUP7 ADD ADD MSTORE PUSH1 0x20 PUSH1 0x1F NOT PUSH1 0x1F DUP6 ADD AND DUP6 ADD ADD SWAP1 POP SWAP4 SWAP3 POP POP POP JUMP JUMPDEST DUP1 MLOAD DUP3 MSTORE PUSH1 0x20 SWAP1 DUP2 ADD MLOAD SWAP2 ADD MSTORE JUMP JUMPDEST PUSH1 0x0 DUP3 MLOAD PUSH3 0x4271 DUP2 DUP5 PUSH1 0x20 DUP8 ADD PUSH3 0x4CE9 JUMP JUMPDEST SWAP2 SWAP1 SWAP2 ADD SWAP3 SWAP2 POP POP JUMP JUMPDEST PUSH1 0x0 DUP1 DUP5 SLOAD PUSH1 0x1 DUP1 DUP3 AND PUSH1 0x0 DUP2 EQ PUSH3 0x429D JUMPI PUSH1 0x1 DUP2 EQ PUSH3 0x42B5 JUMPI PUSH3 0x42E6 JUMP JUMPDEST PUSH1 0xFF NOT DUP4 AND DUP7 MSTORE PUSH1 0x2 DUP4 DIV PUSH1 0x7F AND DUP7 ADD SWAP4 POP PUSH3 0x42E6 JUMP JUMPDEST PUSH1 0x2 DUP4 DIV DUP9 DUP7 MSTORE PUSH1 0x20 DUP1 DUP8 KECCAK256 DUP8 JUMPDEST DUP4 DUP2 LT ISZERO PUSH3 0x42DE JUMPI DUP2 SLOAD DUP11 DUP3 ADD MSTORE SWAP1 DUP6 ADD SWAP1 DUP3 ADD PUSH3 0x42C3 JUMP JUMPDEST POP POP POP DUP7 ADD SWAP4 POP JUMPDEST POP POP POP DUP4 MLOAD PUSH3 0x42FB DUP2 DUP4 PUSH1 0x20 DUP9 ADD PUSH3 0x4CE9 JUMP JUMPDEST ADD SWAP5 SWAP4 POP POP POP POP JUMP JUMPDEST PUSH1 0x1 PUSH1 0x1 PUSH1 0xA0 SHL SUB SWAP2 SWAP1 SWAP2 AND DUP2 MSTORE PUSH1 0x20 ADD SWAP1 JUMP JUMPDEST PUSH1 0x1 PUSH1 0x1 PUSH1 0xA0 SHL SUB SWAP3 DUP4 AND DUP2 MSTORE SWAP2 AND PUSH1 0x20 DUP3 ADD MSTORE PUSH1 0x40 ADD SWAP1 JUMP JUMPDEST PUSH1 0x1 PUSH1 0x1 PUSH1 0xA0 SHL SUB SWAP4 DUP5 AND DUP2 MSTORE SWAP2 SWAP1 SWAP3 AND PUSH1 0x20 DUP3 ADD MSTORE PUSH1 0x40 DUP2 ADD SWAP2 SWAP1 SWAP2 MSTORE PUSH1 0x60 ADD SWAP1 JUMP JUMPDEST PUSH1 0x1 PUSH1 0x1 PUSH1 0xA0 SHL SUB DUP6 DUP2 AND DUP3 MSTORE DUP5 AND PUSH1 0x20 DUP3 ADD MSTORE PUSH1 0x40 DUP2 ADD DUP4 SWAP1 MSTORE PUSH1 0x80 PUSH1 0x60 DUP3 ADD DUP2 SWAP1 MSTORE PUSH1 0x0 SWAP1 PUSH3 0x438B SWAP1 DUP4 ADD DUP5 PUSH3 0x41D1 JUMP JUMPDEST SWAP7 SWAP6 POP POP POP POP POP POP JUMP JUMPDEST PUSH1 0x1 PUSH1 0x1 PUSH1 0xA0 SHL SUB SWAP3 SWAP1 SWAP3 AND DUP3 MSTORE PUSH1 0x20 DUP3 ADD MSTORE PUSH1 0x40 ADD SWAP1 JUMP JUMPDEST PUSH1 0x0 PUSH1 0xA0 DUP3 ADD PUSH1 0xA0 DUP4 MSTORE DUP1 DUP8 SLOAD DUP1 DUP4 MSTORE PUSH1 0xC0 DUP6 ADD SWAP2 POP DUP9 DUP5 MSTORE PUSH1 0x20 SWAP3 POP DUP3 DUP5 KECCAK256 DUP5 JUMPDEST DUP3 DUP2 LT ISZERO PUSH3 0x43FA JUMPI DUP2 SLOAD DUP5 MSTORE PUSH1 0x1 DUP1 DUP4 ADD SLOAD DUP7 DUP7 ADD MSTORE PUSH1 0x40 SWAP1 SWAP5 ADD SWAP4 PUSH1 0x2 SWAP1 SWAP3 ADD SWAP2 ADD PUSH3 0x43D0 JUMP JUMPDEST POP POP POP SWAP1 DUP4 ADD DUP7 SWAP1 MSTORE PUSH1 0x40 DUP4 ADD DUP6 SWAP1 MSTORE SWAP1 POP PUSH3 0x441B PUSH1 0x60 DUP4 ADD DUP5 PUSH3 0x424E JUMP JUMPDEST SWAP6 SWAP5 POP POP POP POP POP JUMP JUMPDEST SWAP1 ISZERO ISZERO DUP2 MSTORE PUSH1 0x20 ADD SWAP1 JUMP JUMPDEST PUSH1 0x0 PUSH1 0xA0 DUP3 MSTORE PUSH3 0x4445 PUSH1 0xA0 DUP4 ADD DUP10 DUP12 PUSH3 0x4224 JUMP JUMPDEST DUP3 DUP2 SUB PUSH1 0x20 DUP5 ADD MSTORE PUSH3 0x445A DUP2 DUP9 DUP11 PUSH3 0x4224 JUMP JUMPDEST PUSH1 0x40 DUP5 ADD SWAP7 SWAP1 SWAP7 MSTORE POP POP PUSH1 0x60 DUP2 ADD SWAP3 SWAP1 SWAP3 MSTORE PUSH1 0x1 PUSH1 0x1 PUSH1 0xA0 SHL SUB AND PUSH1 0x80 SWAP1 SWAP2 ADD MSTORE SWAP5 SWAP4 POP POP POP POP JUMP JUMPDEST PUSH1 0x0 PUSH1 0x20 DUP3 MSTORE PUSH3 0x714 PUSH1 0x20 DUP4 ADD DUP5 PUSH3 0x41D1 JUMP JUMPDEST PUSH1 0x20 DUP1 DUP3 MSTORE PUSH1 0x3 SWAP1 DUP3 ADD MSTORE PUSH3 0x414449 PUSH1 0xE8 SHL PUSH1 0x40 DUP3 ADD MSTORE PUSH1 0x60 ADD SWAP1 JUMP JUMPDEST PUSH1 0x20 DUP1 DUP3 MSTORE PUSH1 0x22 SWAP1 DUP3 ADD MSTORE PUSH32 0x456E756D657261626C655365743A20696E646578206F7574206F6620626F756E PUSH1 0x40 DUP3 ADD MSTORE PUSH2 0x6473 PUSH1 0xF0 SHL PUSH1 0x60 DUP3 ADD MSTORE PUSH1 0x80 ADD SWAP1 JUMP JUMPDEST PUSH1 0x20 DUP1 DUP3 MSTORE PUSH1 0x32 SWAP1 DUP3 ADD MSTORE PUSH32 0x4552433732313A207472616E7366657220746F206E6F6E204552433732315265 PUSH1 0x40 DUP3 ADD MSTORE PUSH18 0x31B2B4BB32B91034B6B83632B6B2B73A32B9 PUSH1 0x71 SHL PUSH1 0x60 DUP3 ADD MSTORE PUSH1 0x80 ADD SWAP1 JUMP JUMPDEST PUSH1 0x20 DUP1 DUP3 MSTORE PUSH1 0x1C SWAP1 DUP3 ADD MSTORE PUSH32 0x4552433732313A20746F6B656E20616C7265616479206D696E74656400000000 PUSH1 0x40 DUP3 ADD MSTORE PUSH1 0x60 ADD SWAP1 JUMP JUMPDEST PUSH1 0x20 DUP1 DUP3 MSTORE PUSH1 0x3 SWAP1 DUP3 ADD MSTORE PUSH3 0x415349 PUSH1 0xE8 SHL PUSH1 0x40 DUP3 ADD MSTORE PUSH1 0x60 ADD SWAP1 JUMP JUMPDEST PUSH1 0x20 DUP1 DUP3 MSTORE PUSH1 0x1B SWAP1 DUP3 ADD MSTORE PUSH32 0x536166654D6174683A206164646974696F6E206F766572666C6F770000000000 PUSH1 0x40 DUP3 ADD MSTORE PUSH1 0x60 ADD SWAP1 JUMP JUMPDEST PUSH1 0x20 DUP1 DUP3 MSTORE PUSH1 0x24 SWAP1 DUP3 ADD MSTORE PUSH32 0x4552433732313A207472616E7366657220746F20746865207A65726F20616464 PUSH1 0x40 DUP3 ADD MSTORE PUSH4 0x72657373 PUSH1 0xE0 SHL PUSH1 0x60 DUP3 ADD MSTORE PUSH1 0x80 ADD SWAP1 JUMP JUMPDEST PUSH1 0x20 DUP1 DUP3 MSTORE PUSH1 0x19 SWAP1 DUP3 ADD MSTORE PUSH32 0x4552433732313A20617070726F766520746F2063616C6C657200000000000000 PUSH1 0x40 DUP3 ADD MSTORE PUSH1 0x60 ADD SWAP1 JUMP JUMPDEST PUSH1 0x20 DUP1 DUP3 MSTORE PUSH1 0x2C SWAP1 DUP3 ADD MSTORE PUSH32 0x4552433732313A206F70657261746F7220717565727920666F72206E6F6E6578 PUSH1 0x40 DUP3 ADD MSTORE PUSH12 0x34B9BA32B73A103A37B5B2B7 PUSH1 0xA1 SHL PUSH1 0x60 DUP3 ADD MSTORE PUSH1 0x80 ADD SWAP1 JUMP JUMPDEST PUSH1 0x20 DUP1 DUP3 MSTORE PUSH1 0x4 SWAP1 DUP3 ADD MSTORE PUSH4 0x2A24A4A7 PUSH1 0xE1 SHL PUSH1 0x40 DUP3 ADD MSTORE PUSH1 0x60 ADD SWAP1 JUMP JUMPDEST PUSH1 0x20 DUP1 DUP3 MSTORE PUSH1 0x3 SWAP1 DUP3 ADD MSTORE PUSH3 0x4F4343 PUSH1 0xE8 SHL PUSH1 0x40 DUP3 ADD MSTORE PUSH1 0x60 ADD SWAP1 JUMP JUMPDEST PUSH1 0x20 DUP1 DUP3 MSTORE PUSH1 0x38 SWAP1 DUP3 ADD MSTORE PUSH32 0x4552433732313A20617070726F76652063616C6C6572206973206E6F74206F77 PUSH1 0x40 DUP3 ADD MSTORE PUSH32 0x6E6572206E6F7220617070726F76656420666F7220616C6C0000000000000000 PUSH1 0x60 DUP3 ADD MSTORE PUSH1 0x80 ADD SWAP1 JUMP JUMPDEST PUSH1 0x20 DUP1 DUP3 MSTORE PUSH1 0x2A SWAP1 DUP3 ADD MSTORE PUSH32 0x4552433732313A2062616C616E636520717565727920666F7220746865207A65 PUSH1 0x40 DUP3 ADD MSTORE PUSH10 0x726F2061646472657373 PUSH1 0xB0 SHL PUSH1 0x60 DUP3 ADD MSTORE PUSH1 0x80 ADD SWAP1 JUMP JUMPDEST PUSH1 0x20 DUP1 DUP3 MSTORE PUSH1 0x5 SWAP1 DUP3 ADD MSTORE PUSH5 0x1391505195 PUSH1 0xDA SHL PUSH1 0x40 DUP3 ADD MSTORE PUSH1 0x60 ADD SWAP1 JUMP JUMPDEST PUSH1 0x20 DUP1 DUP3 MSTORE PUSH1 0x3 SWAP1 DUP3 ADD MSTORE PUSH3 0x20A4A7 PUSH1 0xE9 SHL PUSH1 0x40 DUP3 ADD MSTORE PUSH1 0x60 ADD SWAP1 JUMP JUMPDEST PUSH1 0x20 DUP1 DUP3 MSTORE PUSH1 0x22 SWAP1 DUP3 ADD MSTORE PUSH32 0x456E756D657261626C654D61703A20696E646578206F7574206F6620626F756E PUSH1 0x40 DUP3 ADD MSTORE PUSH2 0x6473 PUSH1 0xF0 SHL PUSH1 0x60 DUP3 ADD MSTORE PUSH1 0x80 ADD SWAP1 JUMP JUMPDEST PUSH1 0x20 DUP1 DUP3 MSTORE DUP2 DUP2 ADD MSTORE PUSH32 0x4552433732313A206D696E7420746F20746865207A65726F2061646472657373 PUSH1 0x40 DUP3 ADD MSTORE PUSH1 0x60 ADD SWAP1 JUMP JUMPDEST PUSH1 0x20 DUP1 DUP3 MSTORE PUSH1 0x21 SWAP1 DUP3 ADD MSTORE PUSH32 0x536166654D6174683A206D756C7469706C69636174696F6E206F766572666C6F PUSH1 0x40 DUP3 ADD MSTORE PUSH1 0x77 PUSH1 0xF8 SHL PUSH1 0x60 DUP3 ADD MSTORE PUSH1 0x80 ADD SWAP1 JUMP JUMPDEST PUSH1 0x20 DUP1 DUP3 MSTORE PUSH1 0x2C SWAP1 DUP3 ADD MSTORE PUSH32 0x4552433732313A20617070726F76656420717565727920666F72206E6F6E6578 PUSH1 0x40 DUP3 ADD MSTORE PUSH12 0x34B9BA32B73A103A37B5B2B7 PUSH1 0xA1 SHL PUSH1 0x60 DUP3 ADD MSTORE PUSH1 0x80 ADD SWAP1 JUMP JUMPDEST PUSH1 0x20 DUP1 DUP3 MSTORE PUSH1 0x3 SWAP1 DUP3 ADD MSTORE PUSH3 0x415249 PUSH1 0xE8 SHL PUSH1 0x40 DUP3 ADD MSTORE PUSH1 0x60 ADD SWAP1 JUMP JUMPDEST PUSH1 0x20 DUP1 DUP3 MSTORE PUSH1 0x29 SWAP1 DUP3 ADD MSTORE PUSH32 0x4552433732313A207472616E73666572206F6620746F6B656E20746861742069 PUSH1 0x40 DUP3 ADD MSTORE PUSH9 0x39903737BA1037BBB7 PUSH1 0xB9 SHL PUSH1 0x60 DUP3 ADD MSTORE PUSH1 0x80 ADD SWAP1 JUMP JUMPDEST PUSH1 0x20 DUP1 DUP3 MSTORE PUSH1 0x2F SWAP1 DUP3 ADD MSTORE PUSH32 0x4552433732314D657461646174613A2055524920717565727920666F72206E6F PUSH1 0x40 DUP3 ADD MSTORE PUSH15 0x3732BC34B9BA32B73A103A37B5B2B7 PUSH1 0x89 SHL PUSH1 0x60 DUP3 ADD MSTORE PUSH1 0x80 ADD SWAP1 JUMP JUMPDEST PUSH1 0x20 DUP1 DUP3 MSTORE PUSH1 0x21 SWAP1 DUP3 ADD MSTORE PUSH32 0x4552433732313A20617070726F76616C20746F2063757272656E74206F776E65 PUSH1 0x40 DUP3 ADD MSTORE PUSH1 0x39 PUSH1 0xF9 SHL PUSH1 0x60 DUP3 ADD MSTORE PUSH1 0x80 ADD SWAP1 JUMP JUMPDEST PUSH1 0x20 DUP1 DUP3 MSTORE PUSH1 0x4 SWAP1 DUP3 ADD MSTORE PUSH4 0x27A1A1A3 PUSH1 0xE1 SHL PUSH1 0x40 DUP3 ADD MSTORE PUSH1 0x60 ADD SWAP1 JUMP JUMPDEST PUSH1 0x20 DUP1 DUP3 MSTORE PUSH1 0x31 SWAP1 DUP3 ADD MSTORE PUSH32 0x4552433732313A207472616E736665722063616C6C6572206973206E6F74206F PUSH1 0x40 DUP3 ADD MSTORE PUSH17 0x1DDB995C881B9BDC88185C1C1C9BDD9959 PUSH1 0x7A SHL PUSH1 0x60 DUP3 ADD MSTORE PUSH1 0x80 ADD SWAP1 JUMP JUMPDEST PUSH1 0x20 DUP1 DUP3 MSTORE PUSH1 0x1D SWAP1 DUP3 ADD MSTORE PUSH32 0x416464726573733A2063616C6C20746F206E6F6E2D636F6E7472616374000000 PUSH1 0x40 DUP3 ADD MSTORE PUSH1 0x60 ADD SWAP1 JUMP JUMPDEST PUSH1 0x20 DUP1 DUP3 MSTORE PUSH1 0x4 SWAP1 DUP3 ADD MSTORE PUSH4 0x27A824A7 PUSH1 0xE1 SHL PUSH1 0x40 DUP3 ADD MSTORE PUSH1 0x60 ADD SWAP1 JUMP JUMPDEST PUSH1 0x20 DUP1 DUP3 MSTORE PUSH1 0x3 SWAP1 DUP3 ADD MSTORE PUSH3 0x544949 PUSH1 0xE8 SHL PUSH1 0x40 DUP3 ADD MSTORE PUSH1 0x60 ADD SWAP1 JUMP JUMPDEST PUSH1 0x20 DUP1 DUP3 MSTORE PUSH1 0x3 SWAP1 DUP3 ADD MSTORE PUSH3 0x545349 PUSH1 0xE8 SHL PUSH1 0x40 DUP3 ADD MSTORE PUSH1 0x60 ADD SWAP1 JUMP JUMPDEST PUSH1 0x20 DUP1 DUP3 MSTORE PUSH1 0x2 SWAP1 DUP3 ADD MSTORE PUSH2 0x2621 PUSH1 0xF1 SHL PUSH1 0x40 DUP3 ADD MSTORE PUSH1 0x60 ADD SWAP1 JUMP JUMPDEST PUSH1 0x0 PUSH2 0x1C0 DUP3 ADD SWAP1 POP PUSH3 0x4AE3 DUP3 DUP5 MLOAD PUSH3 0x424E JUMP JUMPDEST PUSH1 0x20 DUP4 ADD MLOAD PUSH3 0x4AF7 PUSH1 0x40 DUP5 ADD DUP3 PUSH3 0x4219 JUMP JUMPDEST POP PUSH1 0x40 DUP4 ADD MLOAD PUSH3 0x4B0C PUSH1 0x60 DUP5 ADD DUP3 PUSH3 0x420E JUMP JUMPDEST POP PUSH1 0x60 DUP4 ADD MLOAD PUSH3 0x4B21 PUSH1 0x80 DUP5 ADD DUP3 PUSH3 0x41C4 JUMP JUMPDEST POP PUSH1 0x80 DUP4 ADD MLOAD PUSH3 0x4B36 PUSH1 0xA0 DUP5 ADD DUP3 PUSH3 0x41C4 JUMP JUMPDEST POP PUSH1 0xA0 DUP4 ADD MLOAD PUSH1 0xC0 DUP4 ADD MSTORE PUSH1 0xC0 DUP4 ADD MLOAD PUSH1 0xE0 DUP4 ADD MSTORE PUSH1 0xE0 DUP4 ADD MLOAD PUSH2 0x100 DUP2 DUP2 DUP6 ADD MSTORE DUP1 DUP6 ADD MLOAD SWAP2 POP POP PUSH2 0x120 DUP2 DUP2 DUP6 ADD MSTORE DUP1 DUP6 ADD MLOAD SWAP2 POP POP PUSH2 0x140 PUSH3 0x4B7F DUP2 DUP6 ADD DUP4 PUSH3 0x41FF JUMP JUMPDEST DUP5 ADD MLOAD PUSH2 0x160 DUP5 DUP2 ADD SWAP2 SWAP1 SWAP2 MSTORE DUP5 ADD MLOAD PUSH2 0x180 DUP1 DUP6 ADD SWAP2 SWAP1 SWAP2 MSTORE SWAP1 SWAP4 ADD MLOAD PUSH2 0x1A0 SWAP1 SWAP3 ADD SWAP2 SWAP1 SWAP2 MSTORE SWAP2 SWAP1 POP JUMP JUMPDEST PUSH1 0x0 PUSH1 0x20 DUP3 MSTORE DUP3 MLOAD PUSH1 0x20 DUP4 ADD MSTORE PUSH1 0x20 DUP4 ADD MLOAD PUSH3 0x4BCD PUSH1 0x40 DUP5 ADD DUP3 PUSH3 0x41C4 JUMP JUMPDEST POP PUSH1 0x40 DUP4 ADD MLOAD PUSH3 0x4BE2 PUSH1 0x60 DUP5 ADD DUP3 PUSH3 0x41C4 JUMP JUMPDEST POP PUSH1 0x60 DUP4 ADD MLOAD PUSH2 0x100 DUP1 PUSH1 0x80 DUP6 ADD MSTORE PUSH3 0x4C01 PUSH2 0x120 DUP6 ADD DUP4 PUSH3 0x41D1 JUMP JUMPDEST PUSH1 0x80 DUP7 ADD MLOAD DUP6 DUP3 SUB PUSH1 0x1F NOT ADD PUSH1 0xA0 DUP8 ADD MSTORE SWAP3 POP PUSH3 0x4C20 DUP2 DUP5 PUSH3 0x41D1 JUMP JUMPDEST PUSH1 0xA0 DUP8 ADD MLOAD PUSH1 0xC0 DUP8 ADD MSTORE PUSH1 0xC0 DUP8 ADD MLOAD PUSH1 0xE0 DUP8 ADD MSTORE PUSH1 0xE0 DUP8 ADD MLOAD SWAP4 POP PUSH3 0x438B DUP4 DUP8 ADD DUP6 PUSH3 0x41C4 JUMP JUMPDEST SWAP1 DUP2 MSTORE PUSH1 0x20 ADD SWAP1 JUMP JUMPDEST PUSH1 0x0 DUP1 DUP4 CALLDATALOAD PUSH1 0x1E NOT DUP5 CALLDATASIZE SUB ADD DUP2 SLT PUSH3 0x4C69 JUMPI DUP3 DUP4 REVERT JUMPDEST DUP1 DUP5 ADD DUP1 CALLDATALOAD SWAP3 POP PUSH8 0xFFFFFFFFFFFFFFFF DUP4 GT ISZERO PUSH3 0x4C85 JUMPI DUP4 DUP5 REVERT JUMPDEST PUSH1 0x20 ADD SWAP3 POP POP CALLDATASIZE DUP2 SWAP1 SUB DUP3 SGT ISZERO PUSH3 0x1C1A JUMPI PUSH1 0x0 DUP1 REVERT JUMPDEST PUSH1 0x40 MLOAD DUP2 DUP2 ADD PUSH8 0xFFFFFFFFFFFFFFFF DUP2 GT DUP3 DUP3 LT OR ISZERO PUSH3 0x4CBC JUMPI PUSH1 0x0 DUP1 REVERT JUMPDEST PUSH1 0x40 MSTORE SWAP2 SWAP1 POP JUMP JUMPDEST PUSH1 0x0 PUSH8 0xFFFFFFFFFFFFFFFF DUP3 GT ISZERO PUSH3 0x4CDB JUMPI DUP1 DUP2 REVERT JUMPDEST POP PUSH1 0x1F ADD PUSH1 0x1F NOT AND PUSH1 0x20 ADD SWAP1 JUMP JUMPDEST PUSH1 0x0 JUMPDEST DUP4 DUP2 LT ISZERO PUSH3 0x4D06 JUMPI DUP2 DUP2 ADD MLOAD DUP4 DUP3 ADD MSTORE PUSH1 0x20 ADD PUSH3 0x4CEC JUMP JUMPDEST DUP4 DUP2 GT ISZERO PUSH3 0x15B6 JUMPI POP POP PUSH1 0x0 SWAP2 ADD MSTORE JUMP JUMPDEST PUSH1 0x1 PUSH1 0x1 PUSH1 0xA0 SHL SUB DUP2 AND DUP2 EQ PUSH3 0x2894 JUMPI PUSH1 0x0 DUP1 REVERT JUMPDEST DUP1 ISZERO ISZERO DUP2 EQ PUSH3 0x2894 JUMPI PUSH1 0x0 DUP1 REVERT JUMPDEST PUSH1 0x1 PUSH1 0x1 PUSH1 0xE0 SHL SUB NOT DUP2 AND DUP2 EQ PUSH3 0x2894 JUMPI PUSH1 0x0 DUP1 REVERT INVALID PUSH1 0x80 PUSH1 0x40 MSTORE CALLVALUE DUP1 ISZERO PUSH3 0x11 JUMPI PUSH1 0x0 DUP1 REVERT JUMPDEST POP PUSH1 0x40 MLOAD PUSH3 0x1123 CODESIZE SUB DUP1 PUSH3 0x1123 DUP4 CODECOPY DUP2 ADD PUSH1 0x40 DUP2 SWAP1 MSTORE PUSH3 0x34 SWAP2 PUSH3 0x400 JUMP JUMPDEST DUP5 MLOAD DUP6 SWAP1 DUP6 SWAP1 PUSH3 0x4D SWAP1 PUSH1 0x3 SWAP1 PUSH1 0x20 DUP6 ADD SWAP1 PUSH3 0x2B4 JUMP JUMPDEST POP DUP1 MLOAD PUSH3 0x63 SWAP1 PUSH1 0x4 SWAP1 PUSH1 0x20 DUP5 ADD SWAP1 PUSH3 0x2B4 JUMP JUMPDEST POP POP PUSH1 0x5 DUP1 SLOAD PUSH1 0xFF NOT AND PUSH1 0x12 OR SWAP1 SSTORE POP CALLER PUSH3 0x89 DUP3 DUP6 PUSH1 0x1 PUSH1 0x1 PUSH1 0xE0 SHL SUB PUSH3 0xCF AND JUMP JUMPDEST PUSH3 0x9F DUP3 DUP3 DUP7 PUSH1 0x1 PUSH1 0x1 PUSH1 0xE0 SHL SUB PUSH3 0x1C4 AND JUMP JUMPDEST POP PUSH1 0x6 SWAP2 SWAP1 SWAP2 SSTORE PUSH1 0x7 DUP1 SLOAD PUSH1 0x1 PUSH1 0x1 PUSH1 0xA0 SHL SUB NOT AND PUSH1 0x1 PUSH1 0x1 PUSH1 0xA0 SHL SUB SWAP1 SWAP3 AND SWAP2 SWAP1 SWAP2 OR SWAP1 SSTORE POP PUSH3 0x59B SWAP2 POP POP JUMP JUMPDEST PUSH1 0x1 PUSH1 0x1 PUSH1 0xA0 SHL SUB DUP3 AND PUSH3 0x101 JUMPI PUSH1 0x40 MLOAD PUSH3 0x461BCD PUSH1 0xE5 SHL DUP2 MSTORE PUSH1 0x4 ADD PUSH3 0xF8 SWAP1 PUSH3 0x55B JUMP JUMPDEST PUSH1 0x40 MLOAD DUP1 SWAP2 SUB SWAP1 REVERT JUMPDEST PUSH3 0x118 PUSH1 0x0 DUP4 DUP4 PUSH1 0x1 PUSH1 0x1 PUSH1 0xE0 SHL SUB PUSH3 0x280 AND JUMP JUMPDEST PUSH3 0x134 DUP2 PUSH1 0x2 SLOAD PUSH3 0x285 PUSH1 0x20 SHL PUSH3 0x788 OR SWAP1 SWAP2 SWAP1 PUSH1 0x20 SHR JUMP JUMPDEST PUSH1 0x2 SSTORE PUSH1 0x1 PUSH1 0x1 PUSH1 0xA0 SHL SUB DUP3 AND PUSH1 0x0 SWAP1 DUP2 MSTORE PUSH1 0x20 DUP2 DUP2 MSTORE PUSH1 0x40 SWAP1 SWAP2 KECCAK256 SLOAD PUSH3 0x167 SWAP2 DUP4 SWAP1 PUSH3 0x788 PUSH3 0x285 DUP3 SHL OR SWAP1 SHR JUMP JUMPDEST PUSH1 0x1 PUSH1 0x1 PUSH1 0xA0 SHL SUB DUP4 AND PUSH1 0x0 DUP2 DUP2 MSTORE PUSH1 0x20 DUP2 SWAP1 MSTORE PUSH1 0x40 DUP1 DUP3 KECCAK256 SWAP4 SWAP1 SWAP4 SSTORE SWAP2 MLOAD SWAP1 SWAP2 SWAP1 PUSH32 0xDDF252AD1BE2C89B69C2B068FC378DAA952BA7F163C4A11628F55A4DF523B3EF SWAP1 PUSH3 0x1B8 SWAP1 DUP6 SWAP1 PUSH3 0x592 JUMP JUMPDEST PUSH1 0x40 MLOAD DUP1 SWAP2 SUB SWAP1 LOG3 POP POP JUMP JUMPDEST PUSH1 0x1 PUSH1 0x1 PUSH1 0xA0 SHL SUB DUP4 AND PUSH3 0x1ED JUMPI PUSH1 0x40 MLOAD PUSH3 0x461BCD PUSH1 0xE5 SHL DUP2 MSTORE PUSH1 0x4 ADD PUSH3 0xF8 SWAP1 PUSH3 0x517 JUMP JUMPDEST PUSH1 0x1 PUSH1 0x1 PUSH1 0xA0 SHL SUB DUP3 AND PUSH3 0x216 JUMPI PUSH1 0x40 MLOAD PUSH3 0x461BCD PUSH1 0xE5 SHL DUP2 MSTORE PUSH1 0x4 ADD PUSH3 0xF8 SWAP1 PUSH3 0x49E JUMP JUMPDEST PUSH1 0x1 PUSH1 0x1 PUSH1 0xA0 SHL SUB DUP1 DUP5 AND PUSH1 0x0 DUP2 DUP2 MSTORE PUSH1 0x1 PUSH1 0x20 SWAP1 DUP2 MSTORE PUSH1 0x40 DUP1 DUP4 KECCAK256 SWAP5 DUP8 AND DUP1 DUP5 MSTORE SWAP5 SWAP1 SWAP2 MSTORE SWAP1 DUP2 SWAP1 KECCAK256 DUP5 SWAP1 SSTORE MLOAD PUSH32 0x8C5BE1E5EBEC7D5BD14F71427D1E84F3DD0314C0F7B2291E5B200AC8C7C3B925 SWAP1 PUSH3 0x273 SWAP1 DUP6 SWAP1 PUSH3 0x592 JUMP JUMPDEST PUSH1 0x40 MLOAD DUP1 SWAP2 SUB SWAP1 LOG3 POP POP POP JUMP JUMPDEST POP POP POP JUMP JUMPDEST PUSH1 0x0 DUP3 DUP3 ADD DUP4 DUP2 LT ISZERO PUSH3 0x2AD JUMPI PUSH1 0x40 MLOAD PUSH3 0x461BCD PUSH1 0xE5 SHL DUP2 MSTORE PUSH1 0x4 ADD PUSH3 0xF8 SWAP1 PUSH3 0x4E0 JUMP JUMPDEST SWAP4 SWAP3 POP POP POP JUMP JUMPDEST DUP3 DUP1 SLOAD PUSH1 0x1 DUP2 PUSH1 0x1 AND ISZERO PUSH2 0x100 MUL SUB AND PUSH1 0x2 SWAP1 DIV SWAP1 PUSH1 0x0 MSTORE PUSH1 0x20 PUSH1 0x0 KECCAK256 SWAP1 PUSH1 0x1F ADD PUSH1 0x20 SWAP1 DIV DUP2 ADD SWAP3 DUP3 PUSH1 0x1F LT PUSH3 0x2F7 JUMPI DUP1 MLOAD PUSH1 0xFF NOT AND DUP4 DUP1 ADD OR DUP6 SSTORE PUSH3 0x327 JUMP JUMPDEST DUP3 DUP1 ADD PUSH1 0x1 ADD DUP6 SSTORE DUP3 ISZERO PUSH3 0x327 JUMPI SWAP2 DUP3 ADD JUMPDEST DUP3 DUP2 GT ISZERO PUSH3 0x327 JUMPI DUP3 MLOAD DUP3 SSTORE SWAP2 PUSH1 0x20 ADD SWAP2 SWAP1 PUSH1 0x1 ADD SWAP1 PUSH3 0x30A JUMP JUMPDEST POP PUSH3 0x335 SWAP3 SWAP2 POP PUSH3 0x339 JUMP JUMPDEST POP SWAP1 JUMP JUMPDEST PUSH3 0x356 SWAP2 SWAP1 JUMPDEST DUP1 DUP3 GT ISZERO PUSH3 0x335 JUMPI PUSH1 0x0 DUP2 SSTORE PUSH1 0x1 ADD PUSH3 0x340 JUMP JUMPDEST SWAP1 JUMP JUMPDEST PUSH1 0x0 DUP3 PUSH1 0x1F DUP4 ADD SLT PUSH3 0x36A JUMPI DUP1 DUP2 REVERT JUMPDEST DUP2 MLOAD PUSH1 0x1 PUSH1 0x1 PUSH1 0x40 SHL SUB DUP1 DUP3 GT ISZERO PUSH3 0x381 JUMPI DUP3 DUP4 REVERT JUMPDEST PUSH1 0x40 MLOAD PUSH1 0x20 PUSH1 0x1F DUP5 ADD PUSH1 0x1F NOT AND DUP3 ADD DUP2 ADD DUP4 DUP2 GT DUP4 DUP3 LT OR ISZERO PUSH3 0x3A3 JUMPI DUP6 DUP7 REVERT JUMPDEST DUP1 PUSH1 0x40 MSTORE POP DUP2 SWAP5 POP DUP4 DUP3 MSTORE DUP7 DUP2 DUP6 DUP9 ADD ADD GT ISZERO PUSH3 0x3C0 JUMPI PUSH1 0x0 DUP1 REVERT JUMPDEST PUSH1 0x0 SWAP3 POP JUMPDEST DUP4 DUP4 LT ISZERO PUSH3 0x3E4 JUMPI DUP6 DUP4 ADD DUP2 ADD MLOAD DUP3 DUP5 ADD DUP3 ADD MSTORE SWAP2 DUP3 ADD SWAP2 PUSH3 0x3C5 JUMP JUMPDEST DUP4 DUP4 GT ISZERO PUSH3 0x3F6 JUMPI PUSH1 0x0 DUP2 DUP6 DUP5 ADD ADD MSTORE JUMPDEST POP POP POP POP SWAP3 SWAP2 POP POP JUMP JUMPDEST PUSH1 0x0 DUP1 PUSH1 0x0 DUP1 PUSH1 0x0 PUSH1 0xA0 DUP7 DUP9 SUB SLT ISZERO PUSH3 0x418 JUMPI DUP1 DUP2 REVERT JUMPDEST DUP6 MLOAD PUSH1 0x1 PUSH1 0x1 PUSH1 0x40 SHL SUB DUP1 DUP3 GT ISZERO PUSH3 0x42F JUMPI DUP3 DUP4 REVERT JUMPDEST PUSH3 0x43D DUP10 DUP4 DUP11 ADD PUSH3 0x359 JUMP JUMPDEST SWAP7 POP PUSH1 0x20 DUP9 ADD MLOAD SWAP2 POP DUP1 DUP3 GT ISZERO PUSH3 0x453 JUMPI DUP3 DUP4 REVERT JUMPDEST POP PUSH3 0x462 DUP9 DUP3 DUP10 ADD PUSH3 0x359 JUMP JUMPDEST PUSH1 0x40 DUP9 ADD MLOAD PUSH1 0x60 DUP10 ADD MLOAD PUSH1 0x80 DUP11 ADD MLOAD SWAP3 SWAP8 POP SWAP1 SWAP6 POP SWAP4 POP SWAP1 POP PUSH1 0x1 PUSH1 0x1 PUSH1 0xA0 SHL SUB DUP2 AND DUP2 EQ PUSH3 0x490 JUMPI DUP2 DUP3 REVERT JUMPDEST DUP1 SWAP2 POP POP SWAP3 SWAP6 POP SWAP3 SWAP6 SWAP1 SWAP4 POP JUMP JUMPDEST PUSH1 0x20 DUP1 DUP3 MSTORE PUSH1 0x22 SWAP1 DUP3 ADD MSTORE PUSH32 0x45524332303A20617070726F766520746F20746865207A65726F206164647265 PUSH1 0x40 DUP3 ADD MSTORE PUSH2 0x7373 PUSH1 0xF0 SHL PUSH1 0x60 DUP3 ADD MSTORE PUSH1 0x80 ADD SWAP1 JUMP JUMPDEST PUSH1 0x20 DUP1 DUP3 MSTORE PUSH1 0x1B SWAP1 DUP3 ADD MSTORE PUSH32 0x536166654D6174683A206164646974696F6E206F766572666C6F770000000000 PUSH1 0x40 DUP3 ADD MSTORE PUSH1 0x60 ADD SWAP1 JUMP JUMPDEST PUSH1 0x20 DUP1 DUP3 MSTORE PUSH1 0x24 SWAP1 DUP3 ADD MSTORE PUSH32 0x45524332303A20617070726F76652066726F6D20746865207A65726F20616464 PUSH1 0x40 DUP3 ADD MSTORE PUSH4 0x72657373 PUSH1 0xE0 SHL PUSH1 0x60 DUP3 ADD MSTORE PUSH1 0x80 ADD SWAP1 JUMP JUMPDEST PUSH1 0x20 DUP1 DUP3 MSTORE PUSH1 0x1F SWAP1 DUP3 ADD MSTORE PUSH32 0x45524332303A206D696E7420746F20746865207A65726F206164647265737300 PUSH1 0x40 DUP3 ADD MSTORE PUSH1 0x60 ADD SWAP1 JUMP JUMPDEST SWAP1 DUP2 MSTORE PUSH1 0x20 ADD SWAP1 JUMP JUMPDEST PUSH2 0xB78 DUP1 PUSH3 0x5AB PUSH1 0x0 CODECOPY PUSH1 0x0 RETURN INVALID PUSH1 0x80 PUSH1 0x40 MSTORE CALLVALUE DUP1 ISZERO PUSH2 0x10 JUMPI PUSH1 0x0 DUP1 REVERT JUMPDEST POP PUSH1 0x4 CALLDATASIZE LT PUSH2 0xF5 JUMPI PUSH1 0x0 CALLDATALOAD PUSH1 0xE0 SHR DUP1 PUSH4 0x565974D3 GT PUSH2 0x97 JUMPI DUP1 PUSH4 0xA457C2D7 GT PUSH2 0x66 JUMPI DUP1 PUSH4 0xA457C2D7 EQ PUSH2 0x1E7 JUMPI DUP1 PUSH4 0xA71B6426 EQ PUSH2 0x1FA JUMPI DUP1 PUSH4 0xA9059CBB EQ PUSH2 0x202 JUMPI DUP1 PUSH4 0xDD62ED3E EQ PUSH2 0x215 JUMPI PUSH2 0xF5 JUMP JUMPDEST DUP1 PUSH4 0x565974D3 EQ PUSH2 0x19D JUMPI DUP1 PUSH4 0x6C6F31F2 EQ PUSH2 0x1B7 JUMPI DUP1 PUSH4 0x70A08231 EQ PUSH2 0x1CC JUMPI DUP1 PUSH4 0x95D89B41 EQ PUSH2 0x1DF JUMPI PUSH2 0xF5 JUMP JUMPDEST DUP1 PUSH4 0x1D143848 GT PUSH2 0xD3 JUMPI DUP1 PUSH4 0x1D143848 EQ PUSH2 0x14D JUMPI DUP1 PUSH4 0x23B872DD EQ PUSH2 0x162 JUMPI DUP1 PUSH4 0x313CE567 EQ PUSH2 0x175 JUMPI DUP1 PUSH4 0x39509351 EQ PUSH2 0x18A JUMPI PUSH2 0xF5 JUMP JUMPDEST DUP1 PUSH4 0x6FDDE03 EQ PUSH2 0xFA JUMPI DUP1 PUSH4 0x95EA7B3 EQ PUSH2 0x118 JUMPI DUP1 PUSH4 0x18160DDD EQ PUSH2 0x138 JUMPI JUMPDEST PUSH1 0x0 DUP1 REVERT JUMPDEST PUSH2 0x102 PUSH2 0x228 JUMP JUMPDEST PUSH1 0x40 MLOAD PUSH2 0x10F SWAP2 SWAP1 PUSH2 0x948 JUMP JUMPDEST PUSH1 0x40 MLOAD DUP1 SWAP2 SUB SWAP1 RETURN JUMPDEST PUSH2 0x12B PUSH2 0x126 CALLDATASIZE PUSH1 0x4 PUSH2 0x85F JUMP JUMPDEST PUSH2 0x2BE JUMP JUMPDEST PUSH1 0x40 MLOAD PUSH2 0x10F SWAP2 SWAP1 PUSH2 0x93D JUMP JUMPDEST PUSH2 0x140 PUSH2 0x2DC JUMP JUMPDEST PUSH1 0x40 MLOAD PUSH2 0x10F SWAP2 SWAP1 PUSH2 0xAA0 JUMP JUMPDEST PUSH2 0x155 PUSH2 0x2E2 JUMP JUMPDEST PUSH1 0x40 MLOAD PUSH2 0x10F SWAP2 SWAP1 PUSH2 0x8D4 JUMP JUMPDEST PUSH2 0x12B PUSH2 0x170 CALLDATASIZE PUSH1 0x4 PUSH2 0x81F JUMP JUMPDEST PUSH2 0x2F1 JUMP JUMPDEST PUSH2 0x17D PUSH2 0x37E JUMP JUMPDEST PUSH1 0x40 MLOAD PUSH2 0x10F SWAP2 SWAP1 PUSH2 0xAA9 JUMP JUMPDEST PUSH2 0x12B PUSH2 0x198 CALLDATASIZE PUSH1 0x4 PUSH2 0x85F JUMP JUMPDEST PUSH2 0x387 JUMP JUMPDEST PUSH2 0x1A5 PUSH2 0x3DB JUMP JUMPDEST PUSH1 0x40 MLOAD PUSH2 0x10F SWAP7 SWAP6 SWAP5 SWAP4 SWAP3 SWAP2 SWAP1 PUSH2 0x8E8 JUMP JUMPDEST PUSH2 0x1CA PUSH2 0x1C5 CALLDATASIZE PUSH1 0x4 PUSH2 0x85F JUMP JUMPDEST PUSH2 0x421 JUMP JUMPDEST STOP JUMPDEST PUSH2 0x140 PUSH2 0x1DA CALLDATASIZE PUSH1 0x4 PUSH2 0x7D0 JUMP JUMPDEST PUSH2 0x44B JUMP JUMPDEST PUSH2 0x102 PUSH2 0x466 JUMP JUMPDEST PUSH2 0x12B PUSH2 0x1F5 CALLDATASIZE PUSH1 0x4 PUSH2 0x85F JUMP JUMPDEST PUSH2 0x4C7 JUMP JUMPDEST PUSH2 0x140 PUSH2 0x535 JUMP JUMPDEST PUSH2 0x12B PUSH2 0x210 CALLDATASIZE PUSH1 0x4 PUSH2 0x85F JUMP JUMPDEST PUSH2 0x53B JUMP JUMPDEST PUSH2 0x140 PUSH2 0x223 CALLDATASIZE PUSH1 0x4 PUSH2 0x7EB JUMP JUMPDEST PUSH2 0x54F JUMP JUMPDEST PUSH1 0x3 DUP1 SLOAD PUSH1 0x40 DUP1 MLOAD PUSH1 0x20 PUSH1 0x1F PUSH1 0x2 PUSH1 0x0 NOT PUSH2 0x100 PUSH1 0x1 DUP9 AND ISZERO MUL ADD SWAP1 SWAP6 AND SWAP5 SWAP1 SWAP5 DIV SWAP4 DUP5 ADD DUP2 SWAP1 DIV DUP2 MUL DUP3 ADD DUP2 ADD SWAP1 SWAP3 MSTORE DUP3 DUP2 MSTORE PUSH1 0x60 SWAP4 SWAP1 SWAP3 SWAP1 SWAP2 DUP4 ADD DUP3 DUP3 DUP1 ISZERO PUSH2 0x2B4 JUMPI DUP1 PUSH1 0x1F LT PUSH2 0x289 JUMPI PUSH2 0x100 DUP1 DUP4 SLOAD DIV MUL DUP4 MSTORE SWAP2 PUSH1 0x20 ADD SWAP2 PUSH2 0x2B4 JUMP JUMPDEST DUP3 ADD SWAP2 SWAP1 PUSH1 0x0 MSTORE PUSH1 0x20 PUSH1 0x0 KECCAK256 SWAP1 JUMPDEST DUP2 SLOAD DUP2 MSTORE SWAP1 PUSH1 0x1 ADD SWAP1 PUSH1 0x20 ADD DUP1 DUP4 GT PUSH2 0x297 JUMPI DUP3 SWAP1 SUB PUSH1 0x1F AND DUP3 ADD SWAP2 JUMPDEST POP POP POP POP POP SWAP1 POP SWAP1 JUMP JUMPDEST PUSH1 0x0 PUSH2 0x2D2 PUSH2 0x2CB PUSH2 0x57A JUMP JUMPDEST DUP5 DUP5 PUSH2 0x57E JUMP JUMPDEST POP PUSH1 0x1 JUMPDEST SWAP3 SWAP2 POP POP JUMP JUMPDEST PUSH1 0x2 SLOAD SWAP1 JUMP JUMPDEST PUSH1 0x7 SLOAD PUSH1 0x1 PUSH1 0x1 PUSH1 0xA0 SHL SUB AND SWAP1 JUMP JUMPDEST PUSH1 0x0 PUSH2 0x2FE DUP5 DUP5 DUP5 PUSH2 0x63B JUMP JUMPDEST PUSH2 0x374 DUP5 PUSH2 0x30A PUSH2 0x57A JUMP JUMPDEST PUSH2 0x36F DUP6 PUSH1 0x40 MLOAD DUP1 PUSH1 0x60 ADD PUSH1 0x40 MSTORE DUP1 PUSH1 0x28 DUP2 MSTORE PUSH1 0x20 ADD PUSH2 0xAF6 PUSH1 0x28 SWAP2 CODECOPY PUSH1 0x1 PUSH1 0x1 PUSH1 0xA0 SHL SUB DUP11 AND PUSH1 0x0 SWAP1 DUP2 MSTORE PUSH1 0x1 PUSH1 0x20 MSTORE PUSH1 0x40 DUP2 KECCAK256 SWAP1 PUSH2 0x348 PUSH2 0x57A JUMP JUMPDEST PUSH1 0x1 PUSH1 0x1 PUSH1 0xA0 SHL SUB AND DUP2 MSTORE PUSH1 0x20 DUP2 ADD SWAP2 SWAP1 SWAP2 MSTORE PUSH1 0x40 ADD PUSH1 0x0 KECCAK256 SLOAD SWAP2 SWAP1 PUSH4 0xFFFFFFFF PUSH2 0x75C AND JUMP JUMPDEST PUSH2 0x57E JUMP JUMPDEST POP PUSH1 0x1 SWAP4 SWAP3 POP POP POP JUMP JUMPDEST PUSH1 0x5 SLOAD PUSH1 0xFF AND SWAP1 JUMP JUMPDEST PUSH1 0x0 PUSH2 0x2D2 PUSH2 0x394 PUSH2 0x57A JUMP JUMPDEST DUP5 PUSH2 0x36F DUP6 PUSH1 0x1 PUSH1 0x0 PUSH2 0x3A5 PUSH2 0x57A JUMP JUMPDEST PUSH1 0x1 PUSH1 0x1 PUSH1 0xA0 SHL SUB SWAP1 DUP2 AND DUP3 MSTORE PUSH1 0x20 DUP1 DUP4 ADD SWAP4 SWAP1 SWAP4 MSTORE PUSH1 0x40 SWAP2 DUP3 ADD PUSH1 0x0 SWAP1 DUP2 KECCAK256 SWAP2 DUP13 AND DUP2 MSTORE SWAP3 MSTORE SWAP1 KECCAK256 SLOAD SWAP1 PUSH4 0xFFFFFFFF PUSH2 0x788 AND JUMP JUMPDEST PUSH1 0x0 PUSH1 0x60 DUP1 PUSH1 0x0 DUP1 PUSH1 0x0 ADDRESS PUSH2 0x3EE PUSH2 0x228 JUMP JUMPDEST PUSH2 0x3F6 PUSH2 0x466 JUMP JUMPDEST PUSH2 0x3FE PUSH2 0x2DC JUMP JUMPDEST PUSH2 0x406 PUSH2 0x535 JUMP JUMPDEST PUSH2 0x40E PUSH2 0x2E2 JUMP JUMPDEST SWAP5 SWAP12 SWAP4 SWAP11 POP SWAP2 SWAP9 POP SWAP7 POP SWAP5 POP SWAP1 SWAP3 POP SWAP1 POP JUMP JUMPDEST CALLER PUSH1 0x0 PUSH2 0x42E DUP5 DUP4 PUSH2 0x54F JUMP JUMPDEST SWAP1 POP PUSH2 0x445 DUP5 DUP4 PUSH2 0x36F DUP7 DUP6 PUSH4 0xFFFFFFFF PUSH2 0x788 AND JUMP JUMPDEST POP POP POP POP JUMP JUMPDEST PUSH1 0x1 PUSH1 0x1 PUSH1 0xA0 SHL SUB AND PUSH1 0x0 SWAP1 DUP2 MSTORE PUSH1 0x20 DUP2 SWAP1 MSTORE PUSH1 0x40 SWAP1 KECCAK256 SLOAD SWAP1 JUMP JUMPDEST PUSH1 0x4 DUP1 SLOAD PUSH1 0x40 DUP1 MLOAD PUSH1 0x20 PUSH1 0x1F PUSH1 0x2 PUSH1 0x0 NOT PUSH2 0x100 PUSH1 0x1 DUP9 AND ISZERO MUL ADD SWAP1 SWAP6 AND SWAP5 SWAP1 SWAP5 DIV SWAP4 DUP5 ADD DUP2 SWAP1 DIV DUP2 MUL DUP3 ADD DUP2 ADD SWAP1 SWAP3 MSTORE DUP3 DUP2 MSTORE PUSH1 0x60 SWAP4 SWAP1 SWAP3 SWAP1 SWAP2 DUP4 ADD DUP3 DUP3 DUP1 ISZERO PUSH2 0x2B4 JUMPI DUP1 PUSH1 0x1F LT PUSH2 0x289 JUMPI PUSH2 0x100 DUP1 DUP4 SLOAD DIV MUL DUP4 MSTORE SWAP2 PUSH1 0x20 ADD SWAP2 PUSH2 0x2B4 JUMP JUMPDEST PUSH1 0x0 PUSH2 0x2D2 PUSH2 0x4D4 PUSH2 0x57A JUMP JUMPDEST DUP5 PUSH2 0x36F DUP6 PUSH1 0x40 MLOAD DUP1 PUSH1 0x60 ADD PUSH1 0x40 MSTORE DUP1 PUSH1 0x25 DUP2 MSTORE PUSH1 0x20 ADD PUSH2 0xB1E PUSH1 0x25 SWAP2 CODECOPY PUSH1 0x1 PUSH1 0x0 PUSH2 0x4FE PUSH2 0x57A JUMP JUMPDEST PUSH1 0x1 PUSH1 0x1 PUSH1 0xA0 SHL SUB SWAP1 DUP2 AND DUP3 MSTORE PUSH1 0x20 DUP1 DUP4 ADD SWAP4 SWAP1 SWAP4 MSTORE PUSH1 0x40 SWAP2 DUP3 ADD PUSH1 0x0 SWAP1 DUP2 KECCAK256 SWAP2 DUP14 AND DUP2 MSTORE SWAP3 MSTORE SWAP1 KECCAK256 SLOAD SWAP2 SWAP1 PUSH4 0xFFFFFFFF PUSH2 0x75C AND JUMP JUMPDEST PUSH1 0x6 SLOAD SWAP1 JUMP JUMPDEST PUSH1 0x0 PUSH2 0x2D2 PUSH2 0x548 PUSH2 0x57A JUMP JUMPDEST DUP5 DUP5 PUSH2 0x63B JUMP JUMPDEST PUSH1 0x1 PUSH1 0x1 PUSH1 0xA0 SHL SUB SWAP2 DUP3 AND PUSH1 0x0 SWAP1 DUP2 MSTORE PUSH1 0x1 PUSH1 0x20 SWAP1 DUP2 MSTORE PUSH1 0x40 DUP1 DUP4 KECCAK256 SWAP4 SWAP1 SWAP5 AND DUP3 MSTORE SWAP2 SWAP1 SWAP2 MSTORE KECCAK256 SLOAD SWAP1 JUMP JUMPDEST CALLER SWAP1 JUMP JUMPDEST PUSH1 0x1 PUSH1 0x1 PUSH1 0xA0 SHL SUB DUP4 AND PUSH2 0x5AD JUMPI PUSH1 0x40 MLOAD PUSH3 0x461BCD PUSH1 0xE5 SHL DUP2 MSTORE PUSH1 0x4 ADD PUSH2 0x5A4 SWAP1 PUSH2 0xA5C JUMP JUMPDEST PUSH1 0x40 MLOAD DUP1 SWAP2 SUB SWAP1 REVERT JUMPDEST PUSH1 0x1 PUSH1 0x1 PUSH1 0xA0 SHL SUB DUP3 AND PUSH2 0x5D3 JUMPI PUSH1 0x40 MLOAD PUSH3 0x461BCD PUSH1 0xE5 SHL DUP2 MSTORE PUSH1 0x4 ADD PUSH2 0x5A4 SWAP1 PUSH2 0x99E JUMP JUMPDEST PUSH1 0x1 PUSH1 0x1 PUSH1 0xA0 SHL SUB DUP1 DUP5 AND PUSH1 0x0 DUP2 DUP2 MSTORE PUSH1 0x1 PUSH1 0x20 SWAP1 DUP2 MSTORE PUSH1 0x40 DUP1 DUP4 KECCAK256 SWAP5 DUP8 AND DUP1 DUP5 MSTORE SWAP5 SWAP1 SWAP2 MSTORE SWAP1 DUP2 SWAP1 KECCAK256 DUP5 SWAP1 SSTORE MLOAD PUSH32 0x8C5BE1E5EBEC7D5BD14F71427D1E84F3DD0314C0F7B2291E5B200AC8C7C3B925 SWAP1 PUSH2 0x62E SWAP1 DUP6 SWAP1 PUSH2 0xAA0 JUMP JUMPDEST PUSH1 0x40 MLOAD DUP1 SWAP2 SUB SWAP1 LOG3 POP POP POP JUMP JUMPDEST PUSH1 0x1 PUSH1 0x1 PUSH1 0xA0 SHL SUB DUP4 AND PUSH2 0x661 JUMPI PUSH1 0x40 MLOAD PUSH3 0x461BCD PUSH1 0xE5 SHL DUP2 MSTORE PUSH1 0x4 ADD PUSH2 0x5A4 SWAP1 PUSH2 0xA17 JUMP JUMPDEST PUSH1 0x1 PUSH1 0x1 PUSH1 0xA0 SHL SUB DUP3 AND PUSH2 0x687 JUMPI PUSH1 0x40 MLOAD PUSH3 0x461BCD PUSH1 0xE5 SHL DUP2 MSTORE PUSH1 0x4 ADD PUSH2 0x5A4 SWAP1 PUSH2 0x95B JUMP JUMPDEST PUSH2 0x692 DUP4 DUP4 DUP4 PUSH2 0x7B4 JUMP JUMPDEST PUSH2 0x6D5 DUP2 PUSH1 0x40 MLOAD DUP1 PUSH1 0x60 ADD PUSH1 0x40 MSTORE DUP1 PUSH1 0x26 DUP2 MSTORE PUSH1 0x20 ADD PUSH2 0xAD0 PUSH1 0x26 SWAP2 CODECOPY PUSH1 0x1 PUSH1 0x1 PUSH1 0xA0 SHL SUB DUP7 AND PUSH1 0x0 SWAP1 DUP2 MSTORE PUSH1 0x20 DUP2 SWAP1 MSTORE PUSH1 0x40 SWAP1 KECCAK256 SLOAD SWAP2 SWAP1 PUSH4 0xFFFFFFFF PUSH2 0x75C AND JUMP JUMPDEST PUSH1 0x1 PUSH1 0x1 PUSH1 0xA0 SHL SUB DUP1 DUP6 AND PUSH1 0x0 SWAP1 DUP2 MSTORE PUSH1 0x20 DUP2 SWAP1 MSTORE PUSH1 0x40 DUP1 DUP3 KECCAK256 SWAP4 SWAP1 SWAP4 SSTORE SWAP1 DUP5 AND DUP2 MSTORE KECCAK256 SLOAD PUSH2 0x70A SWAP1 DUP3 PUSH4 0xFFFFFFFF PUSH2 0x788 AND JUMP JUMPDEST PUSH1 0x1 PUSH1 0x1 PUSH1 0xA0 SHL SUB DUP1 DUP5 AND PUSH1 0x0 DUP2 DUP2 MSTORE PUSH1 0x20 DUP2 SWAP1 MSTORE PUSH1 0x40 SWAP1 DUP2 SWAP1 KECCAK256 SWAP4 SWAP1 SWAP4 SSTORE SWAP2 MLOAD SWAP1 DUP6 AND SWAP1 PUSH32 0xDDF252AD1BE2C89B69C2B068FC378DAA952BA7F163C4A11628F55A4DF523B3EF SWAP1 PUSH2 0x62E SWAP1 DUP6 SWAP1 PUSH2 0xAA0 JUMP JUMPDEST PUSH1 0x0 DUP2 DUP5 DUP5 GT ISZERO PUSH2 0x780 JUMPI PUSH1 0x40 MLOAD PUSH3 0x461BCD PUSH1 0xE5 SHL DUP2 MSTORE PUSH1 0x4 ADD PUSH2 0x5A4 SWAP2 SWAP1 PUSH2 0x948 JUMP JUMPDEST POP POP POP SWAP1 SUB SWAP1 JUMP JUMPDEST PUSH1 0x0 DUP3 DUP3 ADD DUP4 DUP2 LT ISZERO PUSH2 0x7AD JUMPI PUSH1 0x40 MLOAD PUSH3 0x461BCD PUSH1 0xE5 SHL DUP2 MSTORE PUSH1 0x4 ADD PUSH2 0x5A4 SWAP1 PUSH2 0x9E0 JUMP JUMPDEST SWAP4 SWAP3 POP POP POP JUMP JUMPDEST POP POP POP JUMP JUMPDEST DUP1 CALLDATALOAD PUSH1 0x1 PUSH1 0x1 PUSH1 0xA0 SHL SUB DUP2 AND DUP2 EQ PUSH2 0x2D6 JUMPI PUSH1 0x0 DUP1 REVERT JUMPDEST PUSH1 0x0 PUSH1 0x20 DUP3 DUP5 SUB SLT ISZERO PUSH2 0x7E1 JUMPI DUP1 DUP2 REVERT JUMPDEST PUSH2 0x7AD DUP4 DUP4 PUSH2 0x7B9 JUMP JUMPDEST PUSH1 0x0 DUP1 PUSH1 0x40 DUP4 DUP6 SUB SLT ISZERO PUSH2 0x7FD JUMPI DUP1 DUP2 REVERT JUMPDEST PUSH2 0x807 DUP5 DUP5 PUSH2 0x7B9 JUMP JUMPDEST SWAP2 POP PUSH2 0x816 DUP5 PUSH1 0x20 DUP6 ADD PUSH2 0x7B9 JUMP JUMPDEST SWAP1 POP SWAP3 POP SWAP3 SWAP1 POP JUMP JUMPDEST PUSH1 0x0 DUP1 PUSH1 0x0 PUSH1 0x60 DUP5 DUP7 SUB SLT ISZERO PUSH2 0x833 JUMPI DUP1 DUP2 REVERT JUMPDEST DUP4 CALLDATALOAD PUSH2 0x83E DUP2 PUSH2 0xAB7 JUMP JUMPDEST SWAP3 POP PUSH1 0x20 DUP5 ADD CALLDATALOAD PUSH2 0x84E DUP2 PUSH2 0xAB7 JUMP JUMPDEST SWAP3 SWAP6 SWAP3 SWAP5 POP POP POP PUSH1 0x40 SWAP2 SWAP1 SWAP2 ADD CALLDATALOAD SWAP1 JUMP JUMPDEST PUSH1 0x0 DUP1 PUSH1 0x40 DUP4 DUP6 SUB SLT ISZERO PUSH2 0x871 JUMPI DUP2 DUP3 REVERT JUMPDEST PUSH2 0x87B DUP5 DUP5 PUSH2 0x7B9 JUMP JUMPDEST SWAP5 PUSH1 0x20 SWAP4 SWAP1 SWAP4 ADD CALLDATALOAD SWAP4 POP POP POP JUMP JUMPDEST PUSH1 0x0 DUP2 MLOAD DUP1 DUP5 MSTORE DUP2 JUMPDEST DUP2 DUP2 LT ISZERO PUSH2 0x8AE JUMPI PUSH1 0x20 DUP2 DUP6 ADD DUP2 ADD MLOAD DUP7 DUP4 ADD DUP3 ADD MSTORE ADD PUSH2 0x892 JUMP JUMPDEST DUP2 DUP2 GT ISZERO PUSH2 0x8BF JUMPI DUP3 PUSH1 0x20 DUP4 DUP8 ADD ADD MSTORE JUMPDEST POP PUSH1 0x1F ADD PUSH1 0x1F NOT AND SWAP3 SWAP1 SWAP3 ADD PUSH1 0x20 ADD SWAP3 SWAP2 POP POP JUMP JUMPDEST PUSH1 0x1 PUSH1 0x1 PUSH1 0xA0 SHL SUB SWAP2 SWAP1 SWAP2 AND DUP2 MSTORE PUSH1 0x20 ADD SWAP1 JUMP JUMPDEST PUSH1 0x0 PUSH1 0x1 DUP1 PUSH1 0xA0 SHL SUB DUP1 DUP10 AND DUP4 MSTORE PUSH1 0xC0 PUSH1 0x20 DUP5 ADD MSTORE PUSH2 0x90A PUSH1 0xC0 DUP5 ADD DUP10 PUSH2 0x889 JUMP JUMPDEST DUP4 DUP2 SUB PUSH1 0x40 DUP6 ADD MSTORE PUSH2 0x91C DUP2 DUP10 PUSH2 0x889 JUMP JUMPDEST PUSH1 0x60 DUP6 ADD SWAP8 SWAP1 SWAP8 MSTORE POP PUSH1 0x80 DUP4 ADD SWAP5 SWAP1 SWAP5 MSTORE POP SWAP2 AND PUSH1 0xA0 SWAP1 SWAP2 ADD MSTORE SWAP4 SWAP3 POP POP POP JUMP JUMPDEST SWAP1 ISZERO ISZERO DUP2 MSTORE PUSH1 0x20 ADD SWAP1 JUMP JUMPDEST PUSH1 0x0 PUSH1 0x20 DUP3 MSTORE PUSH2 0x7AD PUSH1 0x20 DUP4 ADD DUP5 PUSH2 0x889 JUMP JUMPDEST PUSH1 0x20 DUP1 DUP3 MSTORE PUSH1 0x23 SWAP1 DUP3 ADD MSTORE PUSH32 0x45524332303A207472616E7366657220746F20746865207A65726F2061646472 PUSH1 0x40 DUP3 ADD MSTORE PUSH3 0x657373 PUSH1 0xE8 SHL PUSH1 0x60 DUP3 ADD MSTORE PUSH1 0x80 ADD SWAP1 JUMP JUMPDEST PUSH1 0x20 DUP1 DUP3 MSTORE PUSH1 0x22 SWAP1 DUP3 ADD MSTORE PUSH32 0x45524332303A20617070726F766520746F20746865207A65726F206164647265 PUSH1 0x40 DUP3 ADD MSTORE PUSH2 0x7373 PUSH1 0xF0 SHL PUSH1 0x60 DUP3 ADD MSTORE PUSH1 0x80 ADD SWAP1 JUMP JUMPDEST PUSH1 0x20 DUP1 DUP3 MSTORE PUSH1 0x1B SWAP1 DUP3 ADD MSTORE PUSH32 0x536166654D6174683A206164646974696F6E206F766572666C6F770000000000 PUSH1 0x40 DUP3 ADD MSTORE PUSH1 0x60 ADD SWAP1 JUMP JUMPDEST PUSH1 0x20 DUP1 DUP3 MSTORE PUSH1 0x25 SWAP1 DUP3 ADD MSTORE PUSH32 0x45524332303A207472616E736665722066726F6D20746865207A65726F206164 PUSH1 0x40 DUP3 ADD MSTORE PUSH5 0x6472657373 PUSH1 0xD8 SHL PUSH1 0x60 DUP3 ADD MSTORE PUSH1 0x80 ADD SWAP1 JUMP JUMPDEST PUSH1 0x20 DUP1 DUP3 MSTORE PUSH1 0x24 SWAP1 DUP3 ADD MSTORE PUSH32 0x45524332303A20617070726F76652066726F6D20746865207A65726F20616464 PUSH1 0x40 DUP3 ADD MSTORE PUSH4 0x72657373 PUSH1 0xE0 SHL PUSH1 0x60 DUP3 ADD MSTORE PUSH1 0x80 ADD SWAP1 JUMP JUMPDEST SWAP1 DUP2 MSTORE PUSH1 0x20 ADD SWAP1 JUMP JUMPDEST PUSH1 0xFF SWAP2 SWAP1 SWAP2 AND DUP2 MSTORE PUSH1 0x20 ADD SWAP1 JUMP JUMPDEST PUSH1 0x1 PUSH1 0x1 PUSH1 0xA0 SHL SUB DUP2 AND DUP2 EQ PUSH2 0xACC JUMPI PUSH1 0x0 DUP1 REVERT JUMPDEST POP JUMP INVALID GASLIMIT MSTORE NUMBER ORIGIN ADDRESS GASPRICE KECCAK256 PUSH21 0x72616E7366657220616D6F756E7420657863656564 PUSH20 0x2062616C616E636545524332303A207472616E73 PUSH7 0x657220616D6F75 PUSH15 0x74206578636565647320616C6C6F77 PUSH2 0x6E63 PUSH6 0x45524332303A KECCAK256 PUSH5 0x6563726561 PUSH20 0x656420616C6C6F77616E63652062656C6F77207A PUSH6 0x726FA2646970 PUSH7 0x73582212208D32 PUSH18 0x96693E582049A74F4D080A3A3CA9E35E149F 0xDF SWAP1 KECCAK256 BLOCKHASH SHR 0xE8 0x2F POP 0xDA NOT EXTCODECOPY PUSH5 0x736F6C6343 STOP MOD MOD STOP CALLER 0xF 0x4B POP 0xB2 SLT LOG0 0xAF MSIZE 0x2F PUSH12 0x337DE665FE7E50A5ABD9C604 0xF COINBASE CALLDATASIZE 0xB7 PUSH12 0xEE99D83AFE4552433732313A KECCAK256 PUSH21 0x72616E7366657220746F206E6F6E20455243373231 MSTORE PUSH6 0x636569766572 KECCAK256 PUSH10 0x6D706C656D656E746572 0xE4 0xEB 0xE6 SHL MLOAD SLOAD 0xBE PUSH6 0x502FFD10F19B 0xBD SSTORE PUSH29 0x590EF2CE56D0959D42D567662E4E7F4552433732313A206F776E657220 PUSH18 0x7565727920666F72206E6F6E657869737465 PUSH15 0x7420746F6B656EA264697066735822 SLT KECCAK256 SWAP4 0xE8 0xD5 DUP1 CALLDATACOPY SWAP1 PUSH15 0xF9EDCE305CDEF173F31794996C7DE7 0xD8 0xD 0x21 0xED PUSH26 0x5BA43B45AE64736F6C6343000606003360806040523480156200 STOP GT JUMPI PUSH1 0x0 DUP1 REVERT JUMPDEST POP PUSH1 0x40 MLOAD PUSH3 0x1123 CODESIZE SUB DUP1 PUSH3 0x1123 DUP4 CODECOPY DUP2 ADD PUSH1 0x40 DUP2 SWAP1 MSTORE PUSH3 0x34 SWAP2 PUSH3 0x400 JUMP JUMPDEST DUP5 MLOAD DUP6 SWAP1 DUP6 SWAP1 PUSH3 0x4D SWAP1 PUSH1 0x3 SWAP1 PUSH1 0x20 DUP6 ADD SWAP1 PUSH3 0x2B4 JUMP JUMPDEST POP DUP1 MLOAD PUSH3 0x63 SWAP1 PUSH1 0x4 SWAP1 PUSH1 0x20 DUP5 ADD SWAP1 PUSH3 0x2B4 JUMP JUMPDEST POP POP PUSH1 0x5 DUP1 SLOAD PUSH1 0xFF NOT AND PUSH1 0x12 OR SWAP1 SSTORE POP CALLER PUSH3 0x89 DUP3 DUP6 PUSH1 0x1 PUSH1 0x1 PUSH1 0xE0 SHL SUB PUSH3 0xCF AND JUMP JUMPDEST PUSH3 0x9F DUP3 DUP3 DUP7 PUSH1 0x1 PUSH1 0x1 PUSH1 0xE0 SHL SUB PUSH3 0x1C4 AND JUMP JUMPDEST POP PUSH1 0x6 SWAP2 SWAP1 SWAP2 SSTORE PUSH1 0x7 DUP1 SLOAD PUSH1 0x1 PUSH1 0x1 PUSH1 0xA0 SHL SUB NOT AND PUSH1 0x1 PUSH1 0x1 PUSH1 0xA0 SHL SUB SWAP1 SWAP3 AND SWAP2 SWAP1 SWAP2 OR SWAP1 SSTORE POP PUSH3 0x59B SWAP2 POP POP JUMP JUMPDEST PUSH1 0x1 PUSH1 0x1 PUSH1 0xA0 SHL SUB DUP3 AND PUSH3 0x101 JUMPI PUSH1 0x40 MLOAD PUSH3 0x461BCD PUSH1 0xE5 SHL DUP2 MSTORE PUSH1 0x4 ADD PUSH3 0xF8 SWAP1 PUSH3 0x55B JUMP JUMPDEST PUSH1 0x40 MLOAD DUP1 SWAP2 SUB SWAP1 REVERT JUMPDEST PUSH3 0x118 PUSH1 0x0 DUP4 DUP4 PUSH1 0x1 PUSH1 0x1 PUSH1 0xE0 SHL SUB PUSH3 0x280 AND JUMP JUMPDEST PUSH3 0x134 DUP2 PUSH1 0x2 SLOAD PUSH3 0x285 PUSH1 0x20 SHL PUSH3 0x788 OR SWAP1 SWAP2 SWAP1 PUSH1 0x20 SHR JUMP JUMPDEST PUSH1 0x2 SSTORE PUSH1 0x1 PUSH1 0x1 PUSH1 0xA0 SHL SUB DUP3 AND PUSH1 0x0 SWAP1 DUP2 MSTORE PUSH1 0x20 DUP2 DUP2 MSTORE PUSH1 0x40 SWAP1 SWAP2 KECCAK256 SLOAD PUSH3 0x167 SWAP2 DUP4 SWAP1 PUSH3 0x788 PUSH3 0x285 DUP3 SHL OR SWAP1 SHR JUMP JUMPDEST PUSH1 0x1 PUSH1 0x1 PUSH1 0xA0 SHL SUB DUP4 AND PUSH1 0x0 DUP2 DUP2 MSTORE PUSH1 0x20 DUP2 SWAP1 MSTORE PUSH1 0x40 DUP1 DUP3 KECCAK256 SWAP4 SWAP1 SWAP4 SSTORE SWAP2 MLOAD SWAP1 SWAP2 SWAP1 PUSH32 0xDDF252AD1BE2C89B69C2B068FC378DAA952BA7F163C4A11628F55A4DF523B3EF SWAP1 PUSH3 0x1B8 SWAP1 DUP6 SWAP1 PUSH3 0x592 JUMP JUMPDEST PUSH1 0x40 MLOAD DUP1 SWAP2 SUB SWAP1 LOG3 POP POP JUMP JUMPDEST PUSH1 0x1 PUSH1 0x1 PUSH1 0xA0 SHL SUB DUP4 AND PUSH3 0x1ED JUMPI PUSH1 0x40 MLOAD PUSH3 0x461BCD PUSH1 0xE5 SHL DUP2 MSTORE PUSH1 0x4 ADD PUSH3 0xF8 SWAP1 PUSH3 0x517 JUMP JUMPDEST PUSH1 0x1 PUSH1 0x1 PUSH1 0xA0 SHL SUB DUP3 AND PUSH3 0x216 JUMPI PUSH1 0x40 MLOAD PUSH3 0x461BCD PUSH1 0xE5 SHL DUP2 MSTORE PUSH1 0x4 ADD PUSH3 0xF8 SWAP1 PUSH3 0x49E JUMP JUMPDEST PUSH1 0x1 PUSH1 0x1 PUSH1 0xA0 SHL SUB DUP1 DUP5 AND PUSH1 0x0 DUP2 DUP2 MSTORE PUSH1 0x1 PUSH1 0x20 SWAP1 DUP2 MSTORE PUSH1 0x40 DUP1 DUP4 KECCAK256 SWAP5 DUP8 AND DUP1 DUP5 MSTORE SWAP5 SWAP1 SWAP2 MSTORE SWAP1 DUP2 SWAP1 KECCAK256 DUP5 SWAP1 SSTORE MLOAD PUSH32 0x8C5BE1E5EBEC7D5BD14F71427D1E84F3DD0314C0F7B2291E5B200AC8C7C3B925 SWAP1 PUSH3 0x273 SWAP1 DUP6 SWAP1 PUSH3 0x592 JUMP JUMPDEST PUSH1 0x40 MLOAD DUP1 SWAP2 SUB SWAP1 LOG3 POP POP POP JUMP JUMPDEST POP POP POP JUMP JUMPDEST PUSH1 0x0 DUP3 DUP3 ADD DUP4 DUP2 LT ISZERO PUSH3 0x2AD JUMPI PUSH1 0x40 MLOAD PUSH3 0x461BCD PUSH1 0xE5 SHL DUP2 MSTORE PUSH1 0x4 ADD PUSH3 0xF8 SWAP1 PUSH3 0x4E0 JUMP JUMPDEST SWAP4 SWAP3 POP POP POP JUMP JUMPDEST DUP3 DUP1 SLOAD PUSH1 0x1 DUP2 PUSH1 0x1 AND ISZERO PUSH2 0x100 MUL SUB AND PUSH1 0x2 SWAP1 DIV SWAP1 PUSH1 0x0 MSTORE PUSH1 0x20 PUSH1 0x0 KECCAK256 SWAP1 PUSH1 0x1F ADD PUSH1 0x20 SWAP1 DIV DUP2 ADD SWAP3 DUP3 PUSH1 0x1F LT PUSH3 0x2F7 JUMPI DUP1 MLOAD PUSH1 0xFF NOT AND DUP4 DUP1 ADD OR DUP6 SSTORE PUSH3 0x327 JUMP JUMPDEST DUP3 DUP1 ADD PUSH1 0x1 ADD DUP6 SSTORE DUP3 ISZERO PUSH3 0x327 JUMPI SWAP2 DUP3 ADD JUMPDEST DUP3 DUP2 GT ISZERO PUSH3 0x327 JUMPI DUP3 MLOAD DUP3 SSTORE SWAP2 PUSH1 0x20 ADD SWAP2 SWAP1 PUSH1 0x1 ADD SWAP1 PUSH3 0x30A JUMP JUMPDEST POP PUSH3 0x335 SWAP3 SWAP2 POP PUSH3 0x339 JUMP JUMPDEST POP SWAP1 JUMP JUMPDEST PUSH3 0x356 SWAP2 SWAP1 JUMPDEST DUP1 DUP3 GT ISZERO PUSH3 0x335 JUMPI PUSH1 0x0 DUP2 SSTORE PUSH1 0x1 ADD PUSH3 0x340 JUMP JUMPDEST SWAP1 JUMP JUMPDEST PUSH1 0x0 DUP3 PUSH1 0x1F DUP4 ADD SLT PUSH3 0x36A JUMPI DUP1 DUP2 REVERT JUMPDEST DUP2 MLOAD PUSH1 0x1 PUSH1 0x1 PUSH1 0x40 SHL SUB DUP1 DUP3 GT ISZERO PUSH3 0x381 JUMPI DUP3 DUP4 REVERT JUMPDEST PUSH1 0x40 MLOAD PUSH1 0x20 PUSH1 0x1F DUP5 ADD PUSH1 0x1F NOT AND DUP3 ADD DUP2 ADD DUP4 DUP2 GT DUP4 DUP3 LT OR ISZERO PUSH3 0x3A3 JUMPI DUP6 DUP7 REVERT JUMPDEST DUP1 PUSH1 0x40 MSTORE POP DUP2 SWAP5 POP DUP4 DUP3 MSTORE DUP7 DUP2 DUP6 DUP9 ADD ADD GT ISZERO PUSH3 0x3C0 JUMPI PUSH1 0x0 DUP1 REVERT JUMPDEST PUSH1 0x0 SWAP3 POP JUMPDEST DUP4 DUP4 LT ISZERO PUSH3 0x3E4 JUMPI DUP6 DUP4 ADD DUP2 ADD MLOAD DUP3 DUP5 ADD DUP3 ADD MSTORE SWAP2 DUP3 ADD SWAP2 PUSH3 0x3C5 JUMP JUMPDEST DUP4 DUP4 GT ISZERO PUSH3 0x3F6 JUMPI PUSH1 0x0 DUP2 DUP6 DUP5 ADD ADD MSTORE JUMPDEST POP POP POP POP SWAP3 SWAP2 POP POP JUMP JUMPDEST PUSH1 0x0 DUP1 PUSH1 0x0 DUP1 PUSH1 0x0 PUSH1 0xA0 DUP7 DUP9 SUB SLT ISZERO PUSH3 0x418 JUMPI DUP1 DUP2 REVERT JUMPDEST DUP6 MLOAD PUSH1 0x1 PUSH1 0x1 PUSH1 0x40 SHL SUB DUP1 DUP3 GT ISZERO PUSH3 0x42F JUMPI DUP3 DUP4 REVERT JUMPDEST PUSH3 0x43D DUP10 DUP4 DUP11 ADD PUSH3 0x359 JUMP JUMPDEST SWAP7 POP PUSH1 0x20 DUP9 ADD MLOAD SWAP2 POP DUP1 DUP3 GT ISZERO PUSH3 0x453 JUMPI DUP3 DUP4 REVERT JUMPDEST POP PUSH3 0x462 DUP9 DUP3 DUP10 ADD PUSH3 0x359 JUMP JUMPDEST PUSH1 0x40 DUP9 ADD MLOAD PUSH1 0x60 DUP10 ADD MLOAD PUSH1 0x80 DUP11 ADD MLOAD SWAP3 SWAP8 POP SWAP1 SWAP6 POP SWAP4 POP SWAP1 POP PUSH1 0x1 PUSH1 0x1 PUSH1 0xA0 SHL SUB DUP2 AND DUP2 EQ PUSH3 0x490 JUMPI DUP2 DUP3 REVERT JUMPDEST DUP1 SWAP2 POP POP SWAP3 SWAP6 POP SWAP3 SWAP6 SWAP1 SWAP4 POP JUMP JUMPDEST PUSH1 0x20 DUP1 DUP3 MSTORE PUSH1 0x22 SWAP1 DUP3 ADD MSTORE PUSH32 0x45524332303A20617070726F766520746F20746865207A65726F206164647265 PUSH1 0x40 DUP3 ADD MSTORE PUSH2 0x7373 PUSH1 0xF0 SHL PUSH1 0x60 DUP3 ADD MSTORE PUSH1 0x80 ADD SWAP1 JUMP JUMPDEST PUSH1 0x20 DUP1 DUP3 MSTORE PUSH1 0x1B SWAP1 DUP3 ADD MSTORE PUSH32 0x536166654D6174683A206164646974696F6E206F766572666C6F770000000000 PUSH1 0x40 DUP3 ADD MSTORE PUSH1 0x60 ADD SWAP1 JUMP JUMPDEST PUSH1 0x20 DUP1 DUP3 MSTORE PUSH1 0x24 SWAP1 DUP3 ADD MSTORE PUSH32 0x45524332303A20617070726F76652066726F6D20746865207A65726F20616464 PUSH1 0x40 DUP3 ADD MSTORE PUSH4 0x72657373 PUSH1 0xE0 SHL PUSH1 0x60 DUP3 ADD MSTORE PUSH1 0x80 ADD SWAP1 JUMP JUMPDEST PUSH1 0x20 DUP1 DUP3 MSTORE PUSH1 0x1F SWAP1 DUP3 ADD MSTORE PUSH32 0x45524332303A206D696E7420746F20746865207A65726F206164647265737300 PUSH1 0x40 DUP3 ADD MSTORE PUSH1 0x60 ADD SWAP1 JUMP JUMPDEST SWAP1 DUP2 MSTORE PUSH1 0x20 ADD SWAP1 JUMP JUMPDEST PUSH2 0xB78 DUP1 PUSH3 0x5AB PUSH1 0x0 CODECOPY PUSH1 0x0 RETURN INVALID PUSH1 0x80 PUSH1 0x40 MSTORE CALLVALUE DUP1 ISZERO PUSH2 0x10 JUMPI PUSH1 0x0 DUP1 REVERT JUMPDEST POP PUSH1 0x4 CALLDATASIZE LT PUSH2 0xF5 JUMPI PUSH1 0x0 CALLDATALOAD PUSH1 0xE0 SHR DUP1 PUSH4 0x565974D3 GT PUSH2 0x97 JUMPI DUP1 PUSH4 0xA457C2D7 GT PUSH2 0x66 JUMPI DUP1 PUSH4 0xA457C2D7 EQ PUSH2 0x1E7 JUMPI DUP1 PUSH4 0xA71B6426 EQ PUSH2 0x1FA JUMPI DUP1 PUSH4 0xA9059CBB EQ PUSH2 0x202 JUMPI DUP1 PUSH4 0xDD62ED3E EQ PUSH2 0x215 JUMPI PUSH2 0xF5 JUMP JUMPDEST DUP1 PUSH4 0x565974D3 EQ PUSH2 0x19D JUMPI DUP1 PUSH4 0x6C6F31F2 EQ PUSH2 0x1B7 JUMPI DUP1 PUSH4 0x70A08231 EQ PUSH2 0x1CC JUMPI DUP1 PUSH4 0x95D89B41 EQ PUSH2 0x1DF JUMPI PUSH2 0xF5 JUMP JUMPDEST DUP1 PUSH4 0x1D143848 GT PUSH2 0xD3 JUMPI DUP1 PUSH4 0x1D143848 EQ PUSH2 0x14D JUMPI DUP1 PUSH4 0x23B872DD EQ PUSH2 0x162 JUMPI DUP1 PUSH4 0x313CE567 EQ PUSH2 0x175 JUMPI DUP1 PUSH4 0x39509351 EQ PUSH2 0x18A JUMPI PUSH2 0xF5 JUMP JUMPDEST DUP1 PUSH4 0x6FDDE03 EQ PUSH2 0xFA JUMPI DUP1 PUSH4 0x95EA7B3 EQ PUSH2 0x118 JUMPI DUP1 PUSH4 0x18160DDD EQ PUSH2 0x138 JUMPI JUMPDEST PUSH1 0x0 DUP1 REVERT JUMPDEST PUSH2 0x102 PUSH2 0x228 JUMP JUMPDEST PUSH1 0x40 MLOAD PUSH2 0x10F SWAP2 SWAP1 PUSH2 0x948 JUMP JUMPDEST PUSH1 0x40 MLOAD DUP1 SWAP2 SUB SWAP1 RETURN JUMPDEST PUSH2 0x12B PUSH2 0x126 CALLDATASIZE PUSH1 0x4 PUSH2 0x85F JUMP JUMPDEST PUSH2 0x2BE JUMP JUMPDEST PUSH1 0x40 MLOAD PUSH2 0x10F SWAP2 SWAP1 PUSH2 0x93D JUMP JUMPDEST PUSH2 0x140 PUSH2 0x2DC JUMP JUMPDEST PUSH1 0x40 MLOAD PUSH2 0x10F SWAP2 SWAP1 PUSH2 0xAA0 JUMP JUMPDEST PUSH2 0x155 PUSH2 0x2E2 JUMP JUMPDEST PUSH1 0x40 MLOAD PUSH2 0x10F SWAP2 SWAP1 PUSH2 0x8D4 JUMP JUMPDEST PUSH2 0x12B PUSH2 0x170 CALLDATASIZE PUSH1 0x4 PUSH2 0x81F JUMP JUMPDEST PUSH2 0x2F1 JUMP JUMPDEST PUSH2 0x17D PUSH2 0x37E JUMP JUMPDEST PUSH1 0x40 MLOAD PUSH2 0x10F SWAP2 SWAP1 PUSH2 0xAA9 JUMP JUMPDEST PUSH2 0x12B PUSH2 0x198 CALLDATASIZE PUSH1 0x4 PUSH2 0x85F JUMP JUMPDEST PUSH2 0x387 JUMP JUMPDEST PUSH2 0x1A5 PUSH2 0x3DB JUMP JUMPDEST PUSH1 0x40 MLOAD PUSH2 0x10F SWAP7 SWAP6 SWAP5 SWAP4 SWAP3 SWAP2 SWAP1 PUSH2 0x8E8 JUMP JUMPDEST PUSH2 0x1CA PUSH2 0x1C5 CALLDATASIZE PUSH1 0x4 PUSH2 0x85F JUMP JUMPDEST PUSH2 0x421 JUMP JUMPDEST STOP JUMPDEST PUSH2 0x140 PUSH2 0x1DA CALLDATASIZE PUSH1 0x4 PUSH2 0x7D0 JUMP JUMPDEST PUSH2 0x44B JUMP JUMPDEST PUSH2 0x102 PUSH2 0x466 JUMP JUMPDEST PUSH2 0x12B PUSH2 0x1F5 CALLDATASIZE PUSH1 0x4 PUSH2 0x85F JUMP JUMPDEST PUSH2 0x4C7 JUMP JUMPDEST PUSH2 0x140 PUSH2 0x535 JUMP JUMPDEST PUSH2 0x12B PUSH2 0x210 CALLDATASIZE PUSH1 0x4 PUSH2 0x85F JUMP JUMPDEST PUSH2 0x53B JUMP JUMPDEST PUSH2 0x140 PUSH2 0x223 CALLDATASIZE PUSH1 0x4 PUSH2 0x7EB JUMP JUMPDEST PUSH2 0x54F JUMP JUMPDEST PUSH1 0x3 DUP1 SLOAD PUSH1 0x40 DUP1 MLOAD PUSH1 0x20 PUSH1 0x1F PUSH1 0x2 PUSH1 0x0 NOT PUSH2 0x100 PUSH1 0x1 DUP9 AND ISZERO MUL ADD SWAP1 SWAP6 AND SWAP5 SWAP1 SWAP5 DIV SWAP4 DUP5 ADD DUP2 SWAP1 DIV DUP2 MUL DUP3 ADD DUP2 ADD SWAP1 SWAP3 MSTORE DUP3 DUP2 MSTORE PUSH1 0x60 SWAP4 SWAP1 SWAP3 SWAP1 SWAP2 DUP4 ADD DUP3 DUP3 DUP1 ISZERO PUSH2 0x2B4 JUMPI DUP1 PUSH1 0x1F LT PUSH2 0x289 JUMPI PUSH2 0x100 DUP1 DUP4 SLOAD DIV MUL DUP4 MSTORE SWAP2 PUSH1 0x20 ADD SWAP2 PUSH2 0x2B4 JUMP JUMPDEST DUP3 ADD SWAP2 SWAP1 PUSH1 0x0 MSTORE PUSH1 0x20 PUSH1 0x0 KECCAK256 SWAP1 JUMPDEST DUP2 SLOAD DUP2 MSTORE SWAP1 PUSH1 0x1 ADD SWAP1 PUSH1 0x20 ADD DUP1 DUP4 GT PUSH2 0x297 JUMPI DUP3 SWAP1 SUB PUSH1 0x1F AND DUP3 ADD SWAP2 JUMPDEST POP POP POP POP POP SWAP1 POP SWAP1 JUMP JUMPDEST PUSH1 0x0 PUSH2 0x2D2 PUSH2 0x2CB PUSH2 0x57A JUMP JUMPDEST DUP5 DUP5 PUSH2 0x57E JUMP JUMPDEST POP PUSH1 0x1 JUMPDEST SWAP3 SWAP2 POP POP JUMP JUMPDEST PUSH1 0x2 SLOAD SWAP1 JUMP JUMPDEST PUSH1 0x7 SLOAD PUSH1 0x1 PUSH1 0x1 PUSH1 0xA0 SHL SUB AND SWAP1 JUMP JUMPDEST PUSH1 0x0 PUSH2 0x2FE DUP5 DUP5 DUP5 PUSH2 0x63B JUMP JUMPDEST PUSH2 0x374 DUP5 PUSH2 0x30A PUSH2 0x57A JUMP JUMPDEST PUSH2 0x36F DUP6 PUSH1 0x40 MLOAD DUP1 PUSH1 0x60 ADD PUSH1 0x40 MSTORE DUP1 PUSH1 0x28 DUP2 MSTORE PUSH1 0x20 ADD PUSH2 0xAF6 PUSH1 0x28 SWAP2 CODECOPY PUSH1 0x1 PUSH1 0x1 PUSH1 0xA0 SHL SUB DUP11 AND PUSH1 0x0 SWAP1 DUP2 MSTORE PUSH1 0x1 PUSH1 0x20 MSTORE PUSH1 0x40 DUP2 KECCAK256 SWAP1 PUSH2 0x348 PUSH2 0x57A JUMP JUMPDEST PUSH1 0x1 PUSH1 0x1 PUSH1 0xA0 SHL SUB AND DUP2 MSTORE PUSH1 0x20 DUP2 ADD SWAP2 SWAP1 SWAP2 MSTORE PUSH1 0x40 ADD PUSH1 0x0 KECCAK256 SLOAD SWAP2 SWAP1 PUSH4 0xFFFFFFFF PUSH2 0x75C AND JUMP JUMPDEST PUSH2 0x57E JUMP JUMPDEST POP PUSH1 0x1 SWAP4 SWAP3 POP POP POP JUMP JUMPDEST PUSH1 0x5 SLOAD PUSH1 0xFF AND SWAP1 JUMP JUMPDEST PUSH1 0x0 PUSH2 0x2D2 PUSH2 0x394 PUSH2 0x57A JUMP JUMPDEST DUP5 PUSH2 0x36F DUP6 PUSH1 0x1 PUSH1 0x0 PUSH2 0x3A5 PUSH2 0x57A JUMP JUMPDEST PUSH1 0x1 PUSH1 0x1 PUSH1 0xA0 SHL SUB SWAP1 DUP2 AND DUP3 MSTORE PUSH1 0x20 DUP1 DUP4 ADD SWAP4 SWAP1 SWAP4 MSTORE PUSH1 0x40 SWAP2 DUP3 ADD PUSH1 0x0 SWAP1 DUP2 KECCAK256 SWAP2 DUP13 AND DUP2 MSTORE SWAP3 MSTORE SWAP1 KECCAK256 SLOAD SWAP1 PUSH4 0xFFFFFFFF PUSH2 0x788 AND JUMP JUMPDEST PUSH1 0x0 PUSH1 0x60 DUP1 PUSH1 0x0 DUP1 PUSH1 0x0 ADDRESS PUSH2 0x3EE PUSH2 0x228 JUMP JUMPDEST PUSH2 0x3F6 PUSH2 0x466 JUMP JUMPDEST PUSH2 0x3FE PUSH2 0x2DC JUMP JUMPDEST PUSH2 0x406 PUSH2 0x535 JUMP JUMPDEST PUSH2 0x40E PUSH2 0x2E2 JUMP JUMPDEST SWAP5 SWAP12 SWAP4 SWAP11 POP SWAP2 SWAP9 POP SWAP7 POP SWAP5 POP SWAP1 SWAP3 POP SWAP1 POP JUMP JUMPDEST CALLER PUSH1 0x0 PUSH2 0x42E DUP5 DUP4 PUSH2 0x54F JUMP JUMPDEST SWAP1 POP PUSH2 0x445 DUP5 DUP4 PUSH2 0x36F DUP7 DUP6 PUSH4 0xFFFFFFFF PUSH2 0x788 AND JUMP JUMPDEST POP POP POP POP JUMP JUMPDEST PUSH1 0x1 PUSH1 0x1 PUSH1 0xA0 SHL SUB AND PUSH1 0x0 SWAP1 DUP2 MSTORE PUSH1 0x20 DUP2 SWAP1 MSTORE PUSH1 0x40 SWAP1 KECCAK256 SLOAD SWAP1 JUMP JUMPDEST PUSH1 0x4 DUP1 SLOAD PUSH1 0x40 DUP1 MLOAD PUSH1 0x20 PUSH1 0x1F PUSH1 0x2 PUSH1 0x0 NOT PUSH2 0x100 PUSH1 0x1 DUP9 AND ISZERO MUL ADD SWAP1 SWAP6 AND SWAP5 SWAP1 SWAP5 DIV SWAP4 DUP5 ADD DUP2 SWAP1 DIV DUP2 MUL DUP3 ADD DUP2 ADD SWAP1 SWAP3 MSTORE DUP3 DUP2 MSTORE PUSH1 0x60 SWAP4 SWAP1 SWAP3 SWAP1 SWAP2 DUP4 ADD DUP3 DUP3 DUP1 ISZERO PUSH2 0x2B4 JUMPI DUP1 PUSH1 0x1F LT PUSH2 0x289 JUMPI PUSH2 0x100 DUP1 DUP4 SLOAD DIV MUL DUP4 MSTORE SWAP2 PUSH1 0x20 ADD SWAP2 PUSH2 0x2B4 JUMP JUMPDEST PUSH1 0x0 PUSH2 0x2D2 PUSH2 0x4D4 PUSH2 0x57A JUMP JUMPDEST DUP5 PUSH2 0x36F DUP6 PUSH1 0x40 MLOAD DUP1 PUSH1 0x60 ADD PUSH1 0x40 MSTORE DUP1 PUSH1 0x25 DUP2 MSTORE PUSH1 0x20 ADD PUSH2 0xB1E PUSH1 0x25 SWAP2 CODECOPY PUSH1 0x1 PUSH1 0x0 PUSH2 0x4FE PUSH2 0x57A JUMP JUMPDEST PUSH1 0x1 PUSH1 0x1 PUSH1 0xA0 SHL SUB SWAP1 DUP2 AND DUP3 MSTORE PUSH1 0x20 DUP1 DUP4 ADD SWAP4 SWAP1 SWAP4 MSTORE PUSH1 0x40 SWAP2 DUP3 ADD PUSH1 0x0 SWAP1 DUP2 KECCAK256 SWAP2 DUP14 AND DUP2 MSTORE SWAP3 MSTORE SWAP1 KECCAK256 SLOAD SWAP2 SWAP1 PUSH4 0xFFFFFFFF PUSH2 0x75C AND JUMP JUMPDEST PUSH1 0x6 SLOAD SWAP1 JUMP JUMPDEST PUSH1 0x0 PUSH2 0x2D2 PUSH2 0x548 PUSH2 0x57A JUMP JUMPDEST DUP5 DUP5 PUSH2 0x63B JUMP JUMPDEST PUSH1 0x1 PUSH1 0x1 PUSH1 0xA0 SHL SUB SWAP2 DUP3 AND PUSH1 0x0 SWAP1 DUP2 MSTORE PUSH1 0x1 PUSH1 0x20 SWAP1 DUP2 MSTORE PUSH1 0x40 DUP1 DUP4 KECCAK256 SWAP4 SWAP1 SWAP5 AND DUP3 MSTORE SWAP2 SWAP1 SWAP2 MSTORE KECCAK256 SLOAD SWAP1 JUMP JUMPDEST CALLER SWAP1 JUMP JUMPDEST PUSH1 0x1 PUSH1 0x1 PUSH1 0xA0 SHL SUB DUP4 AND PUSH2 0x5AD JUMPI PUSH1 0x40 MLOAD PUSH3 0x461BCD PUSH1 0xE5 SHL DUP2 MSTORE PUSH1 0x4 ADD PUSH2 0x5A4 SWAP1 PUSH2 0xA5C JUMP JUMPDEST PUSH1 0x40 MLOAD DUP1 SWAP2 SUB SWAP1 REVERT JUMPDEST PUSH1 0x1 PUSH1 0x1 PUSH1 0xA0 SHL SUB DUP3 AND PUSH2 0x5D3 JUMPI PUSH1 0x40 MLOAD PUSH3 0x461BCD PUSH1 0xE5 SHL DUP2 MSTORE PUSH1 0x4 ADD PUSH2 0x5A4 SWAP1 PUSH2 0x99E JUMP JUMPDEST PUSH1 0x1 PUSH1 0x1 PUSH1 0xA0 SHL SUB DUP1 DUP5 AND PUSH1 0x0 DUP2 DUP2 MSTORE PUSH1 0x1 PUSH1 0x20 SWAP1 DUP2 MSTORE PUSH1 0x40 DUP1 DUP4 KECCAK256 SWAP5 DUP8 AND DUP1 DUP5 MSTORE SWAP5 SWAP1 SWAP2 MSTORE SWAP1 DUP2 SWAP1 KECCAK256 DUP5 SWAP1 SSTORE MLOAD PUSH32 0x8C5BE1E5EBEC7D5BD14F71427D1E84F3DD0314C0F7B2291E5B200AC8C7C3B925 SWAP1 PUSH2 0x62E SWAP1 DUP6 SWAP1 PUSH2 0xAA0 JUMP JUMPDEST PUSH1 0x40 MLOAD DUP1 SWAP2 SUB SWAP1 LOG3 POP POP POP JUMP JUMPDEST PUSH1 0x1 PUSH1 0x1 PUSH1 0xA0 SHL SUB DUP4 AND PUSH2 0x661 JUMPI PUSH1 0x40 MLOAD PUSH3 0x461BCD PUSH1 0xE5 SHL DUP2 MSTORE PUSH1 0x4 ADD PUSH2 0x5A4 SWAP1 PUSH2 0xA17 JUMP JUMPDEST PUSH1 0x1 PUSH1 0x1 PUSH1 0xA0 SHL SUB DUP3 AND PUSH2 0x687 JUMPI PUSH1 0x40 MLOAD PUSH3 0x461BCD PUSH1 0xE5 SHL DUP2 MSTORE PUSH1 0x4 ADD PUSH2 0x5A4 SWAP1 PUSH2 0x95B JUMP JUMPDEST PUSH2 0x692 DUP4 DUP4 DUP4 PUSH2 0x7B4 JUMP JUMPDEST PUSH2 0x6D5 DUP2 PUSH1 0x40 MLOAD DUP1 PUSH1 0x60 ADD PUSH1 0x40 MSTORE DUP1 PUSH1 0x26 DUP2 MSTORE PUSH1 0x20 ADD PUSH2 0xAD0 PUSH1 0x26 SWAP2 CODECOPY PUSH1 0x1 PUSH1 0x1 PUSH1 0xA0 SHL SUB DUP7 AND PUSH1 0x0 SWAP1 DUP2 MSTORE PUSH1 0x20 DUP2 SWAP1 MSTORE PUSH1 0x40 SWAP1 KECCAK256 SLOAD SWAP2 SWAP1 PUSH4 0xFFFFFFFF PUSH2 0x75C AND JUMP JUMPDEST PUSH1 0x1 PUSH1 0x1 PUSH1 0xA0 SHL SUB DUP1 DUP6 AND PUSH1 0x0 SWAP1 DUP2 MSTORE PUSH1 0x20 DUP2 SWAP1 MSTORE PUSH1 0x40 DUP1 DUP3 KECCAK256 SWAP4 SWAP1 SWAP4 SSTORE SWAP1 DUP5 AND DUP2 MSTORE KECCAK256 SLOAD PUSH2 0x70A SWAP1 DUP3 PUSH4 0xFFFFFFFF PUSH2 0x788 AND JUMP JUMPDEST PUSH1 0x1 PUSH1 0x1 PUSH1 0xA0 SHL SUB DUP1 DUP5 AND PUSH1 0x0 DUP2 DUP2 MSTORE PUSH1 0x20 DUP2 SWAP1 MSTORE PUSH1 0x40 SWAP1 DUP2 SWAP1 KECCAK256 SWAP4 SWAP1 SWAP4 SSTORE SWAP2 MLOAD SWAP1 DUP6 AND SWAP1 PUSH32 0xDDF252AD1BE2C89B69C2B068FC378DAA952BA7F163C4A11628F55A4DF523B3EF SWAP1 PUSH2 0x62E SWAP1 DUP6 SWAP1 PUSH2 0xAA0 JUMP JUMPDEST PUSH1 0x0 DUP2 DUP5 DUP5 GT ISZERO PUSH2 0x780 JUMPI PUSH1 0x40 MLOAD PUSH3 0x461BCD PUSH1 0xE5 SHL DUP2 MSTORE PUSH1 0x4 ADD PUSH2 0x5A4 SWAP2 SWAP1 PUSH2 0x948 JUMP JUMPDEST POP POP POP SWAP1 SUB SWAP1 JUMP JUMPDEST PUSH1 0x0 DUP3 DUP3 ADD DUP4 DUP2 LT ISZERO PUSH2 0x7AD JUMPI PUSH1 0x40 MLOAD PUSH3 0x461BCD PUSH1 0xE5 SHL DUP2 MSTORE PUSH1 0x4 ADD PUSH2 0x5A4 SWAP1 PUSH2 0x9E0 JUMP JUMPDEST SWAP4 SWAP3 POP POP POP JUMP JUMPDEST POP POP POP JUMP JUMPDEST DUP1 CALLDATALOAD PUSH1 0x1 PUSH1 0x1 PUSH1 0xA0 SHL SUB DUP2 AND DUP2 EQ PUSH2 0x2D6 JUMPI PUSH1 0x0 DUP1 REVERT JUMPDEST PUSH1 0x0 PUSH1 0x20 DUP3 DUP5 SUB SLT ISZERO PUSH2 0x7E1 JUMPI DUP1 DUP2 REVERT JUMPDEST PUSH2 0x7AD DUP4 DUP4 PUSH2 0x7B9 JUMP JUMPDEST PUSH1 0x0 DUP1 PUSH1 0x40 DUP4 DUP6 SUB SLT ISZERO PUSH2 0x7FD JUMPI DUP1 DUP2 REVERT JUMPDEST PUSH2 0x807 DUP5 DUP5 PUSH2 0x7B9 JUMP JUMPDEST SWAP2 POP PUSH2 0x816 DUP5 PUSH1 0x20 DUP6 ADD PUSH2 0x7B9 JUMP JUMPDEST SWAP1 POP SWAP3 POP SWAP3 SWAP1 POP JUMP JUMPDEST PUSH1 0x0 DUP1 PUSH1 0x0 PUSH1 0x60 DUP5 DUP7 SUB SLT ISZERO PUSH2 0x833 JUMPI DUP1 DUP2 REVERT JUMPDEST DUP4 CALLDATALOAD PUSH2 0x83E DUP2 PUSH2 0xAB7 JUMP JUMPDEST SWAP3 POP PUSH1 0x20 DUP5 ADD CALLDATALOAD PUSH2 0x84E DUP2 PUSH2 0xAB7 JUMP JUMPDEST SWAP3 SWAP6 SWAP3 SWAP5 POP POP POP PUSH1 0x40 SWAP2 SWAP1 SWAP2 ADD CALLDATALOAD SWAP1 JUMP JUMPDEST PUSH1 0x0 DUP1 PUSH1 0x40 DUP4 DUP6 SUB SLT ISZERO PUSH2 0x871 JUMPI DUP2 DUP3 REVERT JUMPDEST PUSH2 0x87B DUP5 DUP5 PUSH2 0x7B9 JUMP JUMPDEST SWAP5 PUSH1 0x20 SWAP4 SWAP1 SWAP4 ADD CALLDATALOAD SWAP4 POP POP POP JUMP JUMPDEST PUSH1 0x0 DUP2 MLOAD DUP1 DUP5 MSTORE DUP2 JUMPDEST DUP2 DUP2 LT ISZERO PUSH2 0x8AE JUMPI PUSH1 0x20 DUP2 DUP6 ADD DUP2 ADD MLOAD DUP7 DUP4 ADD DUP3 ADD MSTORE ADD PUSH2 0x892 JUMP JUMPDEST DUP2 DUP2 GT ISZERO PUSH2 0x8BF JUMPI DUP3 PUSH1 0x20 DUP4 DUP8 ADD ADD MSTORE JUMPDEST POP PUSH1 0x1F ADD PUSH1 0x1F NOT AND SWAP3 SWAP1 SWAP3 ADD PUSH1 0x20 ADD SWAP3 SWAP2 POP POP JUMP JUMPDEST PUSH1 0x1 PUSH1 0x1 PUSH1 0xA0 SHL SUB SWAP2 SWAP1 SWAP2 AND DUP2 MSTORE PUSH1 0x20 ADD SWAP1 JUMP JUMPDEST PUSH1 0x0 PUSH1 0x1 DUP1 PUSH1 0xA0 SHL SUB DUP1 DUP10 AND DUP4 MSTORE PUSH1 0xC0 PUSH1 0x20 DUP5 ADD MSTORE PUSH2 0x90A PUSH1 0xC0 DUP5 ADD DUP10 PUSH2 0x889 JUMP JUMPDEST DUP4 DUP2 SUB PUSH1 0x40 DUP6 ADD MSTORE PUSH2 0x91C DUP2 DUP10 PUSH2 0x889 JUMP JUMPDEST PUSH1 0x60 DUP6 ADD SWAP8 SWAP1 SWAP8 MSTORE POP PUSH1 0x80 DUP4 ADD SWAP5 SWAP1 SWAP5 MSTORE POP SWAP2 AND PUSH1 0xA0 SWAP1 SWAP2 ADD MSTORE SWAP4 SWAP3 POP POP POP JUMP JUMPDEST SWAP1 ISZERO ISZERO DUP2 MSTORE PUSH1 0x20 ADD SWAP1 JUMP JUMPDEST PUSH1 0x0 PUSH1 0x20 DUP3 MSTORE PUSH2 0x7AD PUSH1 0x20 DUP4 ADD DUP5 PUSH2 0x889 JUMP JUMPDEST PUSH1 0x20 DUP1 DUP3 MSTORE PUSH1 0x23 SWAP1 DUP3 ADD MSTORE PUSH32 0x45524332303A207472616E7366657220746F20746865207A65726F2061646472 PUSH1 0x40 DUP3 ADD MSTORE PUSH3 0x657373 PUSH1 0xE8 SHL PUSH1 0x60 DUP3 ADD MSTORE PUSH1 0x80 ADD SWAP1 JUMP JUMPDEST PUSH1 0x20 DUP1 DUP3 MSTORE PUSH1 0x22 SWAP1 DUP3 ADD MSTORE PUSH32 0x45524332303A20617070726F766520746F20746865207A65726F206164647265 PUSH1 0x40 DUP3 ADD MSTORE PUSH2 0x7373 PUSH1 0xF0 SHL PUSH1 0x60 DUP3 ADD MSTORE PUSH1 0x80 ADD SWAP1 JUMP JUMPDEST PUSH1 0x20 DUP1 DUP3 MSTORE PUSH1 0x1B SWAP1 DUP3 ADD MSTORE PUSH32 0x536166654D6174683A206164646974696F6E206F766572666C6F770000000000 PUSH1 0x40 DUP3 ADD MSTORE PUSH1 0x60 ADD SWAP1 JUMP JUMPDEST PUSH1 0x20 DUP1 DUP3 MSTORE PUSH1 0x25 SWAP1 DUP3 ADD MSTORE PUSH32 0x45524332303A207472616E736665722066726F6D20746865207A65726F206164 PUSH1 0x40 DUP3 ADD MSTORE PUSH5 0x6472657373 PUSH1 0xD8 SHL PUSH1 0x60 DUP3 ADD MSTORE PUSH1 0x80 ADD SWAP1 JUMP JUMPDEST PUSH1 0x20 DUP1 DUP3 MSTORE PUSH1 0x24 SWAP1 DUP3 ADD MSTORE PUSH32 0x45524332303A20617070726F76652066726F6D20746865207A65726F20616464 PUSH1 0x40 DUP3 ADD MSTORE PUSH4 0x72657373 PUSH1 0xE0 SHL PUSH1 0x60 DUP3 ADD MSTORE PUSH1 0x80 ADD SWAP1 JUMP JUMPDEST SWAP1 DUP2 MSTORE PUSH1 0x20 ADD SWAP1 JUMP JUMPDEST PUSH1 0xFF SWAP2 SWAP1 SWAP2 AND DUP2 MSTORE PUSH1 0x20 ADD SWAP1 JUMP JUMPDEST PUSH1 0x1 PUSH1 0x1 PUSH1 0xA0 SHL SUB DUP2 AND DUP2 EQ PUSH2 0xACC JUMPI PUSH1 0x0 DUP1 REVERT JUMPDEST POP JUMP INVALID GASLIMIT MSTORE NUMBER ORIGIN ADDRESS GASPRICE KECCAK256 PUSH21 0x72616E7366657220616D6F756E7420657863656564 PUSH20 0x2062616C616E636545524332303A207472616E73 PUSH7 0x657220616D6F75 PUSH15 0x74206578636565647320616C6C6F77 PUSH2 0x6E63 PUSH6 0x45524332303A KECCAK256 PUSH5 0x6563726561 PUSH20 0x656420616C6C6F77616E63652062656C6F77207A PUSH6 0x726FA2646970 PUSH7 0x73582212208D32 PUSH18 0x96693E582049A74F4D080A3A3CA9E35E149F 0xDF SWAP1 KECCAK256 BLOCKHASH SHR 0xE8 0x2F POP 0xDA NOT EXTCODECOPY PUSH5 0x736F6C6343 STOP MOD MOD STOP CALLER "
		},
		"gasEstimates": {
			"creation": {
				"codeDepositCost": "4878400",
				"executionCost": "infinite",
				"totalCost": "infinite"
			},
			"external": {
				"approve(address,uint256)": "infinite",
				"balanceOf(address)": "infinite",
				"baseURI()": "infinite",
				"fundWallet(address,uint256)": "infinite",
				"getApproved(uint256)": "infinite",
				"getOrder(bytes32)": "infinite",
				"isApprovedForAll(address,address)": "infinite",
				"mint((uint256,string,string,uint256,uint256,address))": "infinite",
				"name()": "infinite",
				"ownedShares(uint256,address)": "infinite",
				"ownerOf(uint256)": "infinite",
				"postOrder((uint8,uint8,uint256,uint256,uint256,uint256,bytes32))": "infinite",
				"safeTransferFrom(address,address,uint256)": "infinite",
				"safeTransferFrom(address,address,uint256,bytes)": "infinite",
				"setApprovalForAll(address,bool)": "infinite",
				"supportsInterface(bytes4)": "1318",
				"symbol()": "infinite",
				"tokenByIndex(uint256)": "infinite",
				"tokenOfOwnerByIndex(address,uint256)": "infinite",
				"tokenShares(uint256)": "infinite",
				"tokenURI(uint256)": "infinite",
				"totalSupply()": "1237",
				"transferFrom(address,address,uint256)": "infinite",
				"transferShares(uint256,address,uint256)": "infinite",
				"transferTokenOwnership(uint256,address)": "infinite",
				"walletBalance(address)": "infinite"
			},
			"internal": {
				"_buyShares(address,uint256,address,uint256,uint256)": "infinite",
				"_deleteElement(struct OrderModelV2.SortedKey memory)": "infinite",
				"_filterMatchedOrder(struct OrderModelV2.Order memory)": "infinite",
				"_matchOrder(struct OrderModelV2.Order memory)": "infinite",
				"_populateFilteredOrders(struct OrderModelV2.SortedKey memory,enum OrderModelV2.OrderType,address,address)": "infinite",
				"_processOrder(struct OrderModelV2.Order memory,struct OrderModelV2.Order memory)": "infinite",
				"_processOrderBuyPartial(struct ConstantsV2.Values memory,struct OrderModelV2.Order memory,struct OrderModelV2.Order memory)": "infinite",
				"_processOrderSameAmount(struct ConstantsV2.Values memory,struct OrderModelV2.Order memory,struct OrderModelV2.Order memory)": "infinite",
				"_processOrderSellPartial(struct ConstantsV2.Values memory,struct OrderModelV2.Order memory,struct OrderModelV2.Order memory)": "infinite",
				"_updateWalletBalance(address,uint256,bool)": "infinite"
			}
		},
		"methodIdentifiers": {
			"approve(address,uint256)": "095ea7b3",
			"balanceOf(address)": "70a08231",
			"baseURI()": "6c0360eb",
			"fundWallet(address,uint256)": "3563922f",
			"getApproved(uint256)": "081812fc",
			"getOrder(bytes32)": "5778472a",
			"isApprovedForAll(address,address)": "e985e9c5",
			"mint((uint256,string,string,uint256,uint256,address))": "4bbef4ba",
			"name()": "06fdde03",
			"ownedShares(uint256,address)": "02a1c41d",
			"ownerOf(uint256)": "6352211e",
			"postOrder((uint8,uint8,uint256,uint256,uint256,uint256,bytes32))": "7b8bb0b7",
			"safeTransferFrom(address,address,uint256)": "42842e0e",
			"safeTransferFrom(address,address,uint256,bytes)": "b88d4fde",
			"setApprovalForAll(address,bool)": "a22cb465",
			"supportsInterface(bytes4)": "01ffc9a7",
			"symbol()": "95d89b41",
			"tokenByIndex(uint256)": "4f6ccce7",
			"tokenOfOwnerByIndex(address,uint256)": "2f745c59",
			"tokenShares(uint256)": "3ae64e0c",
			"tokenURI(uint256)": "c87b56dd",
			"totalSupply()": "18160ddd",
			"transferFrom(address,address,uint256)": "23b872dd",
			"transferShares(uint256,address,uint256)": "84b9a6e6",
			"transferTokenOwnership(uint256,address)": "e9cf64e6",
			"walletBalance(address)": "cf9cd8f8"
		}
	},
	"abi": [
		{
			"inputs": [],
			"stateMutability": "nonpayable",
			"type": "constructor"
		},
		{
			"anonymous": false,
			"inputs": [
				{
					"indexed": true,
					"internalType": "address",
					"name": "owner",
					"type": "address"
				},
				{
					"indexed": true,
					"internalType": "address",
					"name": "approved",
					"type": "address"
				},
				{
					"indexed": true,
					"internalType": "uint256",
					"name": "tokenId",
					"type": "uint256"
				}
			],
			"name": "Approval",
			"type": "event"
		},
		{
			"anonymous": false,
			"inputs": [
				{
					"indexed": true,
					"internalType": "address",
					"name": "owner",
					"type": "address"
				},
				{
					"indexed": true,
					"internalType": "address",
					"name": "operator",
					"type": "address"
				},
				{
					"indexed": false,
					"internalType": "bool",
					"name": "approved",
					"type": "bool"
				}
			],
			"name": "ApprovalForAll",
			"type": "event"
		},
		{
			"anonymous": false,
			"inputs": [
				{
					"indexed": false,
					"internalType": "string",
					"name": "str",
					"type": "string"
				}
			],
			"name": "DEBUG",
			"type": "event"
		},
		{
			"anonymous": false,
			"inputs": [
				{
					"indexed": true,
					"internalType": "address",
					"name": "from",
					"type": "address"
				},
				{
					"indexed": true,
					"internalType": "address",
					"name": "to",
					"type": "address"
				},
				{
					"indexed": true,
					"internalType": "uint256",
					"name": "tokenId",
					"type": "uint256"
				}
			],
			"name": "Transfer",
			"type": "event"
		},
		{
			"inputs": [
				{
					"internalType": "address",
					"name": "to",
					"type": "address"
				},
				{
					"internalType": "uint256",
					"name": "tokenId",
					"type": "uint256"
				}
			],
			"name": "approve",
			"outputs": [],
			"stateMutability": "nonpayable",
			"type": "function"
		},
		{
			"inputs": [
				{
					"internalType": "address",
					"name": "owner",
					"type": "address"
				}
			],
			"name": "balanceOf",
			"outputs": [
				{
					"internalType": "uint256",
					"name": "",
					"type": "uint256"
				}
			],
			"stateMutability": "view",
			"type": "function"
		},
		{
			"inputs": [],
			"name": "baseURI",
			"outputs": [
				{
					"internalType": "string",
					"name": "",
					"type": "string"
				}
			],
			"stateMutability": "view",
			"type": "function"
		},
		{
			"inputs": [
				{
					"internalType": "address",
					"name": "recipient",
					"type": "address"
				},
				{
					"internalType": "uint256",
					"name": "amount",
					"type": "uint256"
				}
			],
			"name": "fundWallet",
			"outputs": [],
			"stateMutability": "nonpayable",
			"type": "function"
		},
		{
			"inputs": [
				{
					"internalType": "uint256",
					"name": "tokenId",
					"type": "uint256"
				}
			],
			"name": "getApproved",
			"outputs": [
				{
					"internalType": "address",
					"name": "",
					"type": "address"
				}
			],
			"stateMutability": "view",
			"type": "function"
		},
		{
			"inputs": [
				{
					"internalType": "bytes32",
					"name": "key",
					"type": "bytes32"
				}
			],
			"name": "getOrder",
			"outputs": [
				{
					"components": [
						{
							"components": [
								{
									"internalType": "bytes32",
									"name": "key",
									"type": "bytes32"
								},
								{
									"internalType": "uint256",
									"name": "date",
									"type": "uint256"
								}
							],
							"internalType": "struct OrderModelV2.SortedKey",
							"name": "key",
							"type": "tuple"
						},
						{
							"internalType": "enum OrderModelV2.OrderType",
							"name": "orderType",
							"type": "uint8"
						},
						{
							"internalType": "enum OrderModelV2.OrderStrategy",
							"name": "orderStrategy",
							"type": "uint8"
						},
						{
							"internalType": "address",
							"name": "seller",
							"type": "address"
						},
						{
							"internalType": "address",
							"name": "buyer",
							"type": "address"
						},
						{
							"internalType": "uint256",
							"name": "tokenId",
							"type": "uint256"
						},
						{
							"internalType": "uint256",
							"name": "amountRemaining",
							"type": "uint256"
						},
						{
							"internalType": "uint256",
							"name": "originalAmount",
							"type": "uint256"
						},
						{
							"internalType": "uint256",
							"name": "price",
							"type": "uint256"
						},
						{
							"internalType": "enum OrderModelV2.OrderStatus",
							"name": "status",
							"type": "uint8"
						},
						{
							"internalType": "uint256",
							"name": "orderDate",
							"type": "uint256"
						},
						{
							"internalType": "uint256",
							"name": "statusDate",
							"type": "uint256"
						},
						{
							"internalType": "uint256",
							"name": "goodUntil",
							"type": "uint256"
						}
					],
					"internalType": "struct OrderModelV2.Order",
					"name": "",
					"type": "tuple"
				}
			],
			"stateMutability": "view",
			"type": "function"
		},
		{
			"inputs": [
				{
					"internalType": "address",
					"name": "owner",
					"type": "address"
				},
				{
					"internalType": "address",
					"name": "operator",
					"type": "address"
				}
			],
			"name": "isApprovedForAll",
			"outputs": [
				{
					"internalType": "bool",
					"name": "",
					"type": "bool"
				}
			],
			"stateMutability": "view",
			"type": "function"
		},
		{
			"inputs": [
				{
					"components": [
						{
							"internalType": "uint256",
							"name": "tokenId",
							"type": "uint256"
						},
						{
							"internalType": "string",
							"name": "description",
							"type": "string"
						},
						{
							"internalType": "string",
							"name": "symbol",
							"type": "string"
						},
						{
							"internalType": "uint256",
							"name": "totalSupply",
							"type": "uint256"
						},
						{
							"internalType": "uint256",
							"name": "issuingPrice",
							"type": "uint256"
						},
						{
							"internalType": "address",
							"name": "issuer",
							"type": "address"
						}
					],
					"internalType": "struct AssetModelV2.AssetRequest",
					"name": "ar",
					"type": "tuple"
				}
			],
			"name": "mint",
			"outputs": [],
			"stateMutability": "nonpayable",
			"type": "function"
		},
		{
			"inputs": [],
			"name": "name",
			"outputs": [
				{
					"internalType": "string",
					"name": "",
					"type": "string"
				}
			],
			"stateMutability": "view",
			"type": "function"
		},
		{
			"inputs": [
				{
					"internalType": "uint256",
					"name": "tokenId",
					"type": "uint256"
				},
				{
					"internalType": "address",
					"name": "userAddress",
					"type": "address"
				}
			],
			"name": "ownedShares",
			"outputs": [
				{
					"internalType": "uint256",
					"name": "",
					"type": "uint256"
				}
			],
			"stateMutability": "view",
			"type": "function"
		},
		{
			"inputs": [
				{
					"internalType": "uint256",
					"name": "tokenId",
					"type": "uint256"
				}
			],
			"name": "ownerOf",
			"outputs": [
				{
					"internalType": "address",
					"name": "",
					"type": "address"
				}
			],
			"stateMutability": "view",
			"type": "function"
		},
		{
			"inputs": [
				{
					"components": [
						{
							"internalType": "enum OrderModelV2.OrderType",
							"name": "orderType",
							"type": "uint8"
						},
						{
							"internalType": "enum OrderModelV2.OrderStrategy",
							"name": "orderStrategy",
							"type": "uint8"
						},
						{
							"internalType": "uint256",
							"name": "amount",
							"type": "uint256"
						},
						{
							"internalType": "uint256",
							"name": "price",
							"type": "uint256"
						},
						{
							"internalType": "uint256",
							"name": "tokenId",
							"type": "uint256"
						},
						{
							"internalType": "uint256",
							"name": "goodUntil",
							"type": "uint256"
						},
						{
							"internalType": "bytes32",
							"name": "key",
							"type": "bytes32"
						}
					],
					"internalType": "struct OrderModelV2.OrderRequest",
					"name": "or",
					"type": "tuple"
				}
			],
			"name": "postOrder",
			"outputs": [],
			"stateMutability": "nonpayable",
			"type": "function"
		},
		{
			"inputs": [
				{
					"internalType": "address",
					"name": "from",
					"type": "address"
				},
				{
					"internalType": "address",
					"name": "to",
					"type": "address"
				},
				{
					"internalType": "uint256",
					"name": "tokenId",
					"type": "uint256"
				}
			],
			"name": "safeTransferFrom",
			"outputs": [],
			"stateMutability": "nonpayable",
			"type": "function"
		},
		{
			"inputs": [
				{
					"internalType": "address",
					"name": "from",
					"type": "address"
				},
				{
					"internalType": "address",
					"name": "to",
					"type": "address"
				},
				{
					"internalType": "uint256",
					"name": "tokenId",
					"type": "uint256"
				},
				{
					"internalType": "bytes",
					"name": "_data",
					"type": "bytes"
				}
			],
			"name": "safeTransferFrom",
			"outputs": [],
			"stateMutability": "nonpayable",
			"type": "function"
		},
		{
			"inputs": [
				{
					"internalType": "address",
					"name": "operator",
					"type": "address"
				},
				{
					"internalType": "bool",
					"name": "approved",
					"type": "bool"
				}
			],
			"name": "setApprovalForAll",
			"outputs": [],
			"stateMutability": "nonpayable",
			"type": "function"
		},
		{
			"inputs": [
				{
					"internalType": "bytes4",
					"name": "interfaceId",
					"type": "bytes4"
				}
			],
			"name": "supportsInterface",
			"outputs": [
				{
					"internalType": "bool",
					"name": "",
					"type": "bool"
				}
			],
			"stateMutability": "view",
			"type": "function"
		},
		{
			"inputs": [],
			"name": "symbol",
			"outputs": [
				{
					"internalType": "string",
					"name": "",
					"type": "string"
				}
			],
			"stateMutability": "view",
			"type": "function"
		},
		{
			"inputs": [
				{
					"internalType": "uint256",
					"name": "index",
					"type": "uint256"
				}
			],
			"name": "tokenByIndex",
			"outputs": [
				{
					"internalType": "uint256",
					"name": "",
					"type": "uint256"
				}
			],
			"stateMutability": "view",
			"type": "function"
		},
		{
			"inputs": [
				{
					"internalType": "address",
					"name": "owner",
					"type": "address"
				},
				{
					"internalType": "uint256",
					"name": "index",
					"type": "uint256"
				}
			],
			"name": "tokenOfOwnerByIndex",
			"outputs": [
				{
					"internalType": "uint256",
					"name": "",
					"type": "uint256"
				}
			],
			"stateMutability": "view",
			"type": "function"
		},
		{
			"inputs": [
				{
					"internalType": "uint256",
					"name": "tokenId",
					"type": "uint256"
				}
			],
			"name": "tokenShares",
			"outputs": [
				{
					"components": [
						{
							"internalType": "uint256",
							"name": "tokenId",
							"type": "uint256"
						},
						{
							"internalType": "address",
							"name": "owner",
							"type": "address"
						},
						{
							"internalType": "address",
							"name": "sharesContract",
							"type": "address"
						},
						{
							"internalType": "string",
							"name": "description",
							"type": "string"
						},
						{
							"internalType": "string",
							"name": "symbol",
							"type": "string"
						},
						{
							"internalType": "uint256",
							"name": "totalSupply",
							"type": "uint256"
						},
						{
							"internalType": "uint256",
							"name": "issuingPrice",
							"type": "uint256"
						},
						{
							"internalType": "address",
							"name": "issuer",
							"type": "address"
						}
					],
					"internalType": "struct AssetModelV2.TokenShares",
					"name": "",
					"type": "tuple"
				}
			],
			"stateMutability": "view",
			"type": "function"
		},
		{
			"inputs": [
				{
					"internalType": "uint256",
					"name": "tokenId",
					"type": "uint256"
				}
			],
			"name": "tokenURI",
			"outputs": [
				{
					"internalType": "string",
					"name": "",
					"type": "string"
				}
			],
			"stateMutability": "view",
			"type": "function"
		},
		{
			"inputs": [],
			"name": "totalSupply",
			"outputs": [
				{
					"internalType": "uint256",
					"name": "",
					"type": "uint256"
				}
			],
			"stateMutability": "view",
			"type": "function"
		},
		{
			"inputs": [
				{
					"internalType": "address",
					"name": "from",
					"type": "address"
				},
				{
					"internalType": "address",
					"name": "to",
					"type": "address"
				},
				{
					"internalType": "uint256",
					"name": "tokenId",
					"type": "uint256"
				}
			],
			"name": "transferFrom",
			"outputs": [],
			"stateMutability": "nonpayable",
			"type": "function"
		},
		{
			"inputs": [
				{
					"internalType": "uint256",
					"name": "tokenId",
					"type": "uint256"
				},
				{
					"internalType": "address",
					"name": "recipient",
					"type": "address"
				},
				{
					"internalType": "uint256",
					"name": "amount",
					"type": "uint256"
				}
			],
			"name": "transferShares",
			"outputs": [],
			"stateMutability": "nonpayable",
			"type": "function"
		},
		{
			"inputs": [
				{
					"internalType": "uint256",
					"name": "tokenId",
					"type": "uint256"
				},
				{
					"internalType": "address",
					"name": "recipient",
					"type": "address"
				}
			],
			"name": "transferTokenOwnership",
			"outputs": [],
			"stateMutability": "nonpayable",
			"type": "function"
		},
		{
			"inputs": [
				{
					"internalType": "address",
					"name": "userAddress",
					"type": "address"
				}
			],
			"name": "walletBalance",
			"outputs": [
				{
					"internalType": "uint256",
					"name": "",
					"type": "uint256"
				}
			],
			"stateMutability": "view",
			"type": "function"
		}
	]
}