{
  "contractName": "AssetManagerV2",
  "abi": [
    {
      "inputs": [],
      "stateMutability": "nonpayable",
      "type": "constructor"
    },
    {
      "anonymous": false,
      "inputs": [
        {
          "indexed": true,
          "internalType": "address",
          "name": "owner",
          "type": "address"
        },
        {
          "indexed": true,
          "internalType": "address",
          "name": "approved",
          "type": "address"
        },
        {
          "indexed": true,
          "internalType": "uint256",
          "name": "tokenId",
          "type": "uint256"
        }
      ],
      "name": "Approval",
      "type": "event"
    },
    {
      "anonymous": false,
      "inputs": [
        {
          "indexed": true,
          "internalType": "address",
          "name": "owner",
          "type": "address"
        },
        {
          "indexed": true,
          "internalType": "address",
          "name": "operator",
          "type": "address"
        },
        {
          "indexed": false,
          "internalType": "bool",
          "name": "approved",
          "type": "bool"
        }
      ],
      "name": "ApprovalForAll",
      "type": "event"
    },
    {
      "anonymous": false,
      "inputs": [
        {
          "indexed": false,
          "internalType": "string",
          "name": "str",
          "type": "string"
        }
      ],
      "name": "DEBUG",
      "type": "event"
    },
    {
      "anonymous": false,
      "inputs": [
        {
          "indexed": true,
          "internalType": "address",
          "name": "from",
          "type": "address"
        },
        {
          "indexed": true,
          "internalType": "address",
          "name": "to",
          "type": "address"
        },
        {
          "indexed": true,
          "internalType": "uint256",
          "name": "tokenId",
          "type": "uint256"
        }
      ],
      "name": "Transfer",
      "type": "event"
    },
    {
      "inputs": [
        {
          "internalType": "address",
          "name": "to",
          "type": "address"
        },
        {
          "internalType": "uint256",
          "name": "tokenId",
          "type": "uint256"
        }
      ],
      "name": "approve",
      "outputs": [],
      "stateMutability": "nonpayable",
      "type": "function"
    },
    {
      "inputs": [
        {
          "internalType": "address",
          "name": "owner",
          "type": "address"
        }
      ],
      "name": "balanceOf",
      "outputs": [
        {
          "internalType": "uint256",
          "name": "",
          "type": "uint256"
        }
      ],
      "stateMutability": "view",
      "type": "function",
      "constant": true
    },
    {
      "inputs": [],
      "name": "baseURI",
      "outputs": [
        {
          "internalType": "string",
          "name": "",
          "type": "string"
        }
      ],
      "stateMutability": "view",
      "type": "function",
      "constant": true
    },
    {
      "inputs": [
        {
          "internalType": "uint256",
          "name": "tokenId",
          "type": "uint256"
        }
      ],
      "name": "getApproved",
      "outputs": [
        {
          "internalType": "address",
          "name": "",
          "type": "address"
        }
      ],
      "stateMutability": "view",
      "type": "function",
      "constant": true
    },
    {
      "inputs": [
        {
          "internalType": "address",
          "name": "owner",
          "type": "address"
        },
        {
          "internalType": "address",
          "name": "operator",
          "type": "address"
        }
      ],
      "name": "isApprovedForAll",
      "outputs": [
        {
          "internalType": "bool",
          "name": "",
          "type": "bool"
        }
      ],
      "stateMutability": "view",
      "type": "function",
      "constant": true
    },
    {
      "inputs": [],
      "name": "name",
      "outputs": [
        {
          "internalType": "string",
          "name": "",
          "type": "string"
        }
      ],
      "stateMutability": "view",
      "type": "function",
      "constant": true
    },
    {
      "inputs": [
        {
          "internalType": "uint256",
          "name": "tokenId",
          "type": "uint256"
        }
      ],
      "name": "ownerOf",
      "outputs": [
        {
          "internalType": "address",
          "name": "",
          "type": "address"
        }
      ],
      "stateMutability": "view",
      "type": "function",
      "constant": true
    },
    {
      "inputs": [
        {
          "internalType": "address",
          "name": "from",
          "type": "address"
        },
        {
          "internalType": "address",
          "name": "to",
          "type": "address"
        },
        {
          "internalType": "uint256",
          "name": "tokenId",
          "type": "uint256"
        }
      ],
      "name": "safeTransferFrom",
      "outputs": [],
      "stateMutability": "nonpayable",
      "type": "function"
    },
    {
      "inputs": [
        {
          "internalType": "address",
          "name": "from",
          "type": "address"
        },
        {
          "internalType": "address",
          "name": "to",
          "type": "address"
        },
        {
          "internalType": "uint256",
          "name": "tokenId",
          "type": "uint256"
        },
        {
          "internalType": "bytes",
          "name": "_data",
          "type": "bytes"
        }
      ],
      "name": "safeTransferFrom",
      "outputs": [],
      "stateMutability": "nonpayable",
      "type": "function"
    },
    {
      "inputs": [
        {
          "internalType": "address",
          "name": "operator",
          "type": "address"
        },
        {
          "internalType": "bool",
          "name": "approved",
          "type": "bool"
        }
      ],
      "name": "setApprovalForAll",
      "outputs": [],
      "stateMutability": "nonpayable",
      "type": "function"
    },
    {
      "inputs": [
        {
          "internalType": "bytes4",
          "name": "interfaceId",
          "type": "bytes4"
        }
      ],
      "name": "supportsInterface",
      "outputs": [
        {
          "internalType": "bool",
          "name": "",
          "type": "bool"
        }
      ],
      "stateMutability": "view",
      "type": "function",
      "constant": true
    },
    {
      "inputs": [],
      "name": "symbol",
      "outputs": [
        {
          "internalType": "string",
          "name": "",
          "type": "string"
        }
      ],
      "stateMutability": "view",
      "type": "function",
      "constant": true
    },
    {
      "inputs": [
        {
          "internalType": "uint256",
          "name": "index",
          "type": "uint256"
        }
      ],
      "name": "tokenByIndex",
      "outputs": [
        {
          "internalType": "uint256",
          "name": "",
          "type": "uint256"
        }
      ],
      "stateMutability": "view",
      "type": "function",
      "constant": true
    },
    {
      "inputs": [
        {
          "internalType": "address",
          "name": "owner",
          "type": "address"
        },
        {
          "internalType": "uint256",
          "name": "index",
          "type": "uint256"
        }
      ],
      "name": "tokenOfOwnerByIndex",
      "outputs": [
        {
          "internalType": "uint256",
          "name": "",
          "type": "uint256"
        }
      ],
      "stateMutability": "view",
      "type": "function",
      "constant": true
    },
    {
      "inputs": [
        {
          "internalType": "uint256",
          "name": "tokenId",
          "type": "uint256"
        }
      ],
      "name": "tokenURI",
      "outputs": [
        {
          "internalType": "string",
          "name": "",
          "type": "string"
        }
      ],
      "stateMutability": "view",
      "type": "function",
      "constant": true
    },
    {
      "inputs": [],
      "name": "totalSupply",
      "outputs": [
        {
          "internalType": "uint256",
          "name": "",
          "type": "uint256"
        }
      ],
      "stateMutability": "view",
      "type": "function",
      "constant": true
    },
    {
      "inputs": [
        {
          "internalType": "address",
          "name": "from",
          "type": "address"
        },
        {
          "internalType": "address",
          "name": "to",
          "type": "address"
        },
        {
          "internalType": "uint256",
          "name": "tokenId",
          "type": "uint256"
        }
      ],
      "name": "transferFrom",
      "outputs": [],
      "stateMutability": "nonpayable",
      "type": "function"
    },
    {
      "inputs": [
        {
          "internalType": "address",
          "name": "userAddress",
          "type": "address"
        }
      ],
      "name": "walletBalance",
      "outputs": [
        {
          "internalType": "uint256",
          "name": "",
          "type": "uint256"
        }
      ],
      "stateMutability": "view",
      "type": "function",
      "constant": true
    },
    {
      "inputs": [
        {
          "internalType": "uint256",
          "name": "tokenId",
          "type": "uint256"
        },
        {
          "internalType": "address",
          "name": "userAddress",
          "type": "address"
        }
      ],
      "name": "ownedShares",
      "outputs": [
        {
          "internalType": "uint256",
          "name": "",
          "type": "uint256"
        }
      ],
      "stateMutability": "view",
      "type": "function",
      "constant": true
    },
    {
      "inputs": [
        {
          "components": [
            {
              "internalType": "enum OrderModelV2.OrderType",
              "name": "orderType",
              "type": "uint8"
            },
            {
              "internalType": "enum OrderModelV2.OrderStrategy",
              "name": "orderStrategy",
              "type": "uint8"
            },
            {
              "internalType": "uint256",
              "name": "amount",
              "type": "uint256"
            },
            {
              "internalType": "uint256",
              "name": "price",
              "type": "uint256"
            },
            {
              "internalType": "uint256",
              "name": "tokenId",
              "type": "uint256"
            },
            {
              "internalType": "uint256",
              "name": "goodUntil",
              "type": "uint256"
            },
            {
              "internalType": "bytes32",
              "name": "key",
              "type": "bytes32"
            }
          ],
          "internalType": "struct OrderModelV2.OrderRequest",
          "name": "or",
          "type": "tuple"
        }
      ],
      "name": "postOrder",
      "outputs": [],
      "stateMutability": "nonpayable",
      "type": "function"
    },
    {
      "inputs": [
        {
          "internalType": "bytes32",
          "name": "key",
          "type": "bytes32"
        }
      ],
      "name": "getOrder",
      "outputs": [
        {
          "components": [
            {
              "components": [
                {
                  "internalType": "bytes32",
                  "name": "key",
                  "type": "bytes32"
                },
                {
                  "internalType": "uint256",
                  "name": "date",
                  "type": "uint256"
                }
              ],
              "internalType": "struct OrderModelV2.SortedKey",
              "name": "key",
              "type": "tuple"
            },
            {
              "internalType": "enum OrderModelV2.OrderType",
              "name": "orderType",
              "type": "uint8"
            },
            {
              "internalType": "enum OrderModelV2.OrderStrategy",
              "name": "orderStrategy",
              "type": "uint8"
            },
            {
              "internalType": "address",
              "name": "seller",
              "type": "address"
            },
            {
              "internalType": "address",
              "name": "buyer",
              "type": "address"
            },
            {
              "internalType": "uint256",
              "name": "tokenId",
              "type": "uint256"
            },
            {
              "internalType": "uint256",
              "name": "amountRemaining",
              "type": "uint256"
            },
            {
              "internalType": "uint256",
              "name": "originalAmount",
              "type": "uint256"
            },
            {
              "internalType": "uint256",
              "name": "price",
              "type": "uint256"
            },
            {
              "internalType": "enum OrderModelV2.OrderStatus",
              "name": "status",
              "type": "uint8"
            },
            {
              "internalType": "uint256",
              "name": "orderDate",
              "type": "uint256"
            },
            {
              "internalType": "uint256",
              "name": "statusDate",
              "type": "uint256"
            },
            {
              "internalType": "uint256",
              "name": "goodUntil",
              "type": "uint256"
            }
          ],
          "internalType": "struct OrderModelV2.Order",
          "name": "",
          "type": "tuple"
        }
      ],
      "stateMutability": "view",
      "type": "function",
      "constant": true
    },
    {
      "inputs": [
        {
          "components": [
            {
              "internalType": "uint256",
              "name": "tokenId",
              "type": "uint256"
            },
            {
              "internalType": "string",
              "name": "description",
              "type": "string"
            },
            {
              "internalType": "string",
              "name": "symbol",
              "type": "string"
            },
            {
              "internalType": "uint256",
              "name": "totalSupply",
              "type": "uint256"
            },
            {
              "internalType": "uint256",
              "name": "issuingPrice",
              "type": "uint256"
            },
            {
              "internalType": "address",
              "name": "issuer",
              "type": "address"
            }
          ],
          "internalType": "struct AssetModelV2.AssetRequest",
          "name": "ar",
          "type": "tuple"
        }
      ],
      "name": "mint",
      "outputs": [],
      "stateMutability": "nonpayable",
      "type": "function"
    },
    {
      "inputs": [
        {
          "internalType": "uint256",
          "name": "tokenId",
          "type": "uint256"
        },
        {
          "internalType": "address",
          "name": "recipient",
          "type": "address"
        },
        {
          "internalType": "uint256",
          "name": "amount",
          "type": "uint256"
        }
      ],
      "name": "transferShares",
      "outputs": [],
      "stateMutability": "nonpayable",
      "type": "function"
    },
    {
      "inputs": [
        {
          "internalType": "uint256",
          "name": "tokenId",
          "type": "uint256"
        },
        {
          "internalType": "address",
          "name": "recipient",
          "type": "address"
        }
      ],
      "name": "transferTokenOwnership",
      "outputs": [],
      "stateMutability": "nonpayable",
      "type": "function"
    },
    {
      "inputs": [
        {
          "internalType": "address",
          "name": "recipient",
          "type": "address"
        },
        {
          "internalType": "uint256",
          "name": "amount",
          "type": "uint256"
        }
      ],
      "name": "fundWallet",
      "outputs": [],
      "stateMutability": "nonpayable",
      "type": "function"
    },
    {
      "inputs": [
        {
          "internalType": "uint256",
          "name": "tokenId",
          "type": "uint256"
        }
      ],
      "name": "tokenShares",
      "outputs": [
        {
          "components": [
            {
              "internalType": "uint256",
              "name": "tokenId",
              "type": "uint256"
            },
            {
              "internalType": "address",
              "name": "owner",
              "type": "address"
            },
            {
              "internalType": "address",
              "name": "sharesContract",
              "type": "address"
            },
            {
              "internalType": "string",
              "name": "description",
              "type": "string"
            },
            {
              "internalType": "string",
              "name": "symbol",
              "type": "string"
            },
            {
              "internalType": "uint256",
              "name": "totalSupply",
              "type": "uint256"
            },
            {
              "internalType": "uint256",
              "name": "issuingPrice",
              "type": "uint256"
            },
            {
              "internalType": "address",
              "name": "issuer",
              "type": "address"
            }
          ],
          "internalType": "struct AssetModelV2.TokenShares",
          "name": "",
          "type": "tuple"
        }
      ],
      "stateMutability": "view",
      "type": "function",
      "constant": true
    }
  ],
  "bytecode": "0x60806040523480156200001157600080fd5b50604080518082018252601081526f4e5345204172742045786368616e676560801b60208083019190915282518084019093526004835263082a4a8b60e31b9083015290620000676301ffc9a760e01b62000149565b81516200007c906006906020850190620001a4565b50805162000092906007906020840190620001a4565b50620000a56380ac58cd60e01b62000149565b620000b7635b5e139f60e01b62000149565b620000c963780e9d6360e01b62000149565b5050600f80546001600160a01b03191633908117909155604051600160fa1b91600191620000f79062000229565b620001059392919062000285565b604051809103906000f08015801562000122573d6000803e3d6000fd5b50600b80546001600160a01b0319166001600160a01b0392909216919091179055620002e9565b6001600160e01b031980821614156200017f5760405162461bcd60e51b815260040162000176906200024e565b60405180910390fd5b6001600160e01b0319166000908152602081905260409020805460ff19166001179055565b828054600181600116156101000203166002900490600052602060002090601f016020900481019282601f10620001e757805160ff191683800117855562000217565b8280016001018555821562000217579182015b8281111562000217578251825591602001919060010190620001fa565b506200022592915062000237565b5090565b6110db806200610b83390190565b5b8082111562000225576000815560010162000238565b6020808252601c908201527f4552433136353a20696e76616c696420696e7465726661636520696400000000604082015260600190565b60a0808252600c908201526b2a32ba3432b9102a37b5b2b760a11b60c082015260e0602082018190526006908201526515d05313115560d21b610100820152604081019390935260608301919091526001600160a01b031660808201526101200190565b615e1280620002f96000396000f3fe60806040523480156200001157600080fd5b5060043610620001b45760003560e01c80635778472a11620000f357806395d89b4111620000a5578063c87b56dd116200007b578063c87b56dd14620003e4578063cf9cd8f814620003fb578063e985e9c51462000412578063e9cf64e6146200042957620001b4565b806395d89b4114620003ac578063a22cb46514620003b6578063b88d4fde14620003cd57620001b4565b80635778472a14620003205780636352211e14620003465780636c0360eb146200035d57806370a0823114620003675780637b8bb0b7146200037e57806384b9a6e6146200039557620001b4565b806323b872dd116200016b5780633ae64e0c11620001415780633ae64e0c14620002b557806342842e0e14620002db5780634bbef4ba14620002f25780634f6ccce7146200030957620001b4565b806323b872dd14620002705780632f745c5914620002875780633563922f146200029e57620001b4565b806301ffc9a714620001b957806302a1c41d14620001e857806306fdde03146200020e578063081812fc1462000227578063095ea7b3146200024d57806318160ddd1462000266575b600080fd5b620001d0620001ca36600462003f44565b62000440565b604051620001df91906200436e565b60405180910390f35b620001ff620001f9366004620040e8565b62000463565b604051620001df919062004b97565b6200021862000503565b604051620001df919062004379565b6200023e6200023836600462003f2b565b6200059d565b604051620001df91906200424e565b620002646200025e36600462003ede565b620005ee565b005b620001ff62000696565b620002646200028136600462003d4f565b620006a9565b620001ff6200029836600462003ede565b620006ea565b62000264620002af36600462003ede565b62000715565b620002cc620002c636600462003f2b565b6200083b565b604051620001df919062004af2565b62000264620002ec36600462003d4f565b6200095f565b620002646200030336600462003f9b565b6200097c565b620001ff6200031a36600462003f2b565b62000b07565b620003376200033136600462003f2b565b62000b1f565b604051620001df919062004a13565b6200023e6200035736600462003f2b565b62000c51565b6200021862000c7c565b620001ff6200037836600462003cf3565b62000ce0565b620002646200038f36600462004066565b62000d2e565b62000264620003a63660046200410f565b62001221565b6200021862001335565b62000264620003c736600462003e06565b62001399565b62000264620003de36600462003d94565b62001472565b62000218620003f536600462003f2b565b620014ba565b620001ff6200040c36600462003cf3565b62001617565b620001d06200042336600462003d12565b620016a0565b620002646200043a366004620040e8565b620016ce565b6001600160e01b0319811660009081526020819052604090205460ff165b919050565b6000828152600a6020526040808220549051636eb1769f60e11b81526001600160a01b0390911690819063dd62ed3e90620004a5908690309060040162004262565b60206040518083038186803b158015620004be57600080fd5b505afa158015620004d3573d6000803e3d6000fd5b505050506040513d601f19601f82011682018060405250810190620004f9919062003f82565b9150505b92915050565b60068054604080516020601f6002600019610100600188161502019095169490940493840181900481028201810190925282815260609390929091830182828015620005935780601f10620005675761010080835404028352916020019162000593565b820191906000526020600020905b8154815290600101906020018083116200057557829003601f168201915b5050505050905090565b6000620005aa826200187f565b620005d25760405162461bcd60e51b8152600401620005c990620047b7565b60405180910390fd5b506000908152600460205260409020546001600160a01b031690565b6000620005fb8262000c51565b9050806001600160a01b0316836001600160a01b03161415620006325760405162461bcd60e51b8152600401620005c990620048b8565b806001600160a01b0316620006466200188e565b6001600160a01b031614806200066657506200066681620004236200188e565b620006855760405162461bcd60e51b8152600401620005c9906200461c565b62000691838362001892565b505050565b6000620006a4600262001902565b905090565b620006be620006b76200188e565b826200190f565b620006dd5760405162461bcd60e51b8152600401620005c99062004917565b6200069183838362001999565b6001600160a01b03821660009081526001602052604081206200070e908362001ab9565b9392505050565b600f546001600160a01b03163314620007425760405162461bcd60e51b8152600401620005c990620048f9565b600b546040516323b872dd60e01b81526001600160a01b03909116906323b872dd9062000778903390869086906004016200427c565b602060405180830381600087803b1580156200079357600080fd5b505af1158015620007a8573d6000803e3d6000fd5b505050506040513d601f19601f82011682018060405250810190620007ce919062003f0c565b50600b5460405163363798f960e11b81526001600160a01b0390911690636c6f31f290620008039085908590600401620042df565b600060405180830381600087803b1580156200081e57600080fd5b505af115801562000833573d6000803e3d6000fd5b505050505050565b6200084562003aff565b6000620008528362000c51565b6000848152600a602052604080822054815163565974d360e01b815291519394506001600160a01b0316926060918291849182918291889163565974d3916004808201928692909190829003018186803b158015620008b057600080fd5b505afa158015620008c5573d6000803e3d6000fd5b505050506040513d6000823e601f3d908101601f19168201604052620008ef919081019062003e38565b9550955095509550955095506040518061010001604052808b8152602001896001600160a01b03168152602001876001600160a01b03168152602001868152602001858152602001848152602001838152602001826001600160a01b031681525098505050505050505050919050565b620006918383836040518060200160405280600081525062001472565b602081015160408201518151620009a75760405162461bcd60e51b8152600401620005c990620043de565b6000815111620009cb5760405162461bcd60e51b8152600401620005c990620044c6565b8251620009ec5760405162461bcd60e51b8152600401620005c990620049bd565b600083606001511162000a135760405162461bcd60e51b8152600401620005c990620049da565b60a08301516001600160a01b031662000a405760405162461bcd60e51b8152600401620005c99062004803565b600f546001600160a01b0316331462000a6d5760405162461bcd60e51b8152600401620005c990620045ff565b62000a7d33846000015162001ac7565b600083602001518460400151856060015186608001518760a0015160405162000aa69062003b5f565b62000ab69594939291906200438e565b604051809103906000f08015801562000ad3573d6000803e3d6000fd5b5093516000908152600a6020526040902080546001600160a01b0319166001600160a01b0390951694909417909355505050565b60008062000b1760028462001ae7565b509392505050565b62000b2962003b6d565b6000828152600c602090815260409182902082516101e0810190935280546101a084019081526001808301546101c08601529084526002820154919284019160ff169081111562000b7657fe5b600181111562000b8257fe5b81526020016002820160019054906101000a900460ff16600481111562000ba557fe5b600481111562000bb157fe5b815260028201546001600160a01b03620100009091048116602083015260038084015490911660408301526004830154606083015260058301546080830152600683015460a0830152600783015460c0830152600883015460e09092019160ff169081111562000c1d57fe5b600381111562000c2957fe5b815260098201546020820152600a8201546040820152600b9091015460609091015292915050565b6000620004fd8260405180606001604052806029815260200162005db4602991396002919062001b05565b60098054604080516020601f6002600019610100600188161502019095169490940493840181900481028201810190925282815260609390929091830182828015620005935780601f10620005675761010080835404028352916020019162000593565b60006001600160a01b03821662000d0b5760405162461bcd60e51b8152600401620005c99062004679565b6001600160a01b0382166000908152600160205260409020620004fd9062001902565b600081608001511162000d555760405162461bcd60e51b8152600401620005c990620045e1565b600081604001511162000d7c5760405162461bcd60e51b8152600401620005c990620046e2565b600081606001511162000da35760405162461bcd60e51b8152600401620005c9906200499f565b600080808351600181111562000db557fe5b141562000eee5733905060009150600062000de28460600151856040015162001b1c90919063ffffffff16565b600b54604051636eb1769f60e11b81529192506000916001600160a01b039091169063dd62ed3e9062000e1c908690309060040162004262565b60206040518083038186803b15801562000e3557600080fd5b505afa15801562000e4a573d6000803e3d6000fd5b505050506040513d601f19601f8201168201806040525081019062000e70919062003f82565b905081811062000ecc5762000e888383600062001b5c565b6001600160a01b03831660009081526010602052604090205462000ead908362001cf3565b6001600160a01b03841660009081526010602052604090205562000ee6565b60405162461bcd60e51b8152600401620005c990620049f7565b505062000fd1565b60018351600181111562000efe57fe5b141562000fd157505060808101516000908152600a6020526040808220549051636eb1769f60e11b81523392916001600160a01b0316908290829063dd62ed3e9062000f51908790309060040162004262565b60206040518083038186803b15801562000f6a57600080fd5b505afa15801562000f7f573d6000803e3d6000fd5b505050506040513d601f19601f8201168201806040525081019062000fa5919062003f82565b9050846040015181101562000fce5760405162461bcd60e51b8152600401620005c990620046c3565b50505b62000fdb62003bfb565b506040805180820190915260c0840151815242602082015262000ffd62003b6d565b604051806101a00160405280838152602001866000015160018111156200102057fe5b8152602001866020015160048111156200103657fe5b8152602001856001600160a01b03168152602001846001600160a01b0316815260200186608001518152602001866040015181526020018660400151815260200186606001518152602001600060038111156200108f57fe5b81526020014281526020014281526020018660a00151815250905080600c60008760c0015181526020019081526020016000206000820151816000016000820151816000015560208201518160010155505060208201518160020160006101000a81548160ff021916908360018111156200110657fe5b0217905550604082015160028201805461ff0019166101008360048111156200112b57fe5b0217905550606082015160028201805462010000600160b01b031916620100006001600160a01b03938416021790556080830151600380840180546001600160a01b031916929093169190911790915560a0830151600483015560c0830151600583015560e0830151600683015561010083015160078301556101208301516008830180549192909160ff1916906001908490811115620011c857fe5b0217905550610140820151816009015561016082015181600a015561018082015181600b01559050506200120f816000015182602001518360800151846060015162001d1b565b6200121a8162001f99565b5050505050565b6000838152600a6020526040908190205490516323b872dd60e01b81526001600160a01b03909116906323b872dd9062001264903390869086906004016200427c565b602060405180830381600087803b1580156200127f57600080fd5b505af115801562001294573d6000803e3d6000fd5b505050506040513d601f19601f82011682018060405250810190620012ba919062003f0c565b506000838152600a60205260409081902054905163363798f960e11b81526001600160a01b0390911690636c6f31f290620012fc9085908590600401620042df565b600060405180830381600087803b1580156200131757600080fd5b505af11580156200132c573d6000803e3d6000fd5b50505050505050565b60078054604080516020601f6002600019610100600188161502019095169490940493840181900481028201810190925282815260609390929091830182828015620005935780601f10620005675761010080835404028352916020019162000593565b620013a36200188e565b6001600160a01b0316826001600160a01b03161415620013d75760405162461bcd60e51b8152600401620005c9906200455e565b8060056000620013e66200188e565b6001600160a01b03908116825260208083019390935260409182016000908120918716808252919093529120805460ff1916921515929092179091556200142c6200188e565b6001600160a01b03167f17307eab39ab6107e8899845ad3d59bd9653f200f220920489ca2b5937696c31836040516200146691906200436e565b60405180910390a35050565b62001487620014806200188e565b836200190f565b620014a65760405162461bcd60e51b8152600401620005c99062004917565b620014b48484848462002763565b50505050565b6060620014c7826200187f565b620014e65760405162461bcd60e51b8152600401620005c99062004869565b60008281526008602090815260409182902080548351601f60026000196101006001861615020190931692909204918201849004840281018401909452808452606093928301828280156200157f5780601f1062001553576101008083540402835291602001916200157f565b820191906000526020600020905b8154815290600101906020018083116200156157829003601f168201915b505060095493945050505060026000196101006001841615020190911604620015aa5790506200045e565b805115620015e057600981604051602001620015c8929190620041c5565b6040516020818303038152906040529150506200045e565b6009620015ed846200279d565b60405160200162001600929190620041c5565b604051602081830303815290604052915050919050565b600b54604051636eb1769f60e11b81526000916001600160a01b03169063dd62ed3e906200164c908590309060040162004262565b60206040518083038186803b1580156200166557600080fd5b505afa1580156200167a573d6000803e3d6000fd5b505050506040513d601f19601f82011682018060405250810190620004fd919062003f82565b6001600160a01b03918216600090815260056020908152604080832093909416825291909152205460ff1690565b6000828152600a6020526040808220549051636eb1769f60e11b81526001600160a01b039091169063dd62ed3e906200170e903390309060040162004262565b60206040518083038186803b1580156200172757600080fd5b505afa1580156200173c573d6000803e3d6000fd5b505050506040513d601f19601f8201168201806040525081019062001762919062003f82565b6000848152600a6020526040908190205490516323b872dd60e01b81529192506001600160a01b0316906323b872dd90620017a6903390869086906004016200427c565b602060405180830381600087803b158015620017c157600080fd5b505af1158015620017d6573d6000803e3d6000fd5b505050506040513d601f19601f82011682018060405250810190620017fc919062003f0c565b506000838152600a60205260409081902054905163363798f960e11b81526001600160a01b0390911690636c6f31f2906200183e9085908590600401620042df565b600060405180830381600087803b1580156200185957600080fd5b505af11580156200186e573d6000803e3d6000fd5b50505050620006913383856200095f565b6000620004fd60028362002881565b3390565b600081815260046020526040902080546001600160a01b0319166001600160a01b0384169081179091558190620018c98262000c51565b6001600160a01b03167f8c5be1e5ebec7d5bd14f71427d1e84f3dd0314c0f7b2291e5b200ac8c7c3b92560405160405180910390a45050565b6000620004fd826200288f565b60006200191c826200187f565b6200193b5760405162461bcd60e51b8152600401620005c99062004595565b6000620019488362000c51565b9050806001600160a01b0316846001600160a01b03161480620019865750836001600160a01b03166200197b846200059d565b6001600160a01b0316145b80620004f95750620004f98185620016a0565b826001600160a01b0316620019ae8262000c51565b6001600160a01b031614620019d75760405162461bcd60e51b8152600401620005c99062004820565b6001600160a01b03821662001a005760405162461bcd60e51b8152600401620005c9906200451a565b62001a0d83838362000691565b62001a1a60008262001892565b6001600160a01b038316600090815260016020526040902062001a3e908262002893565b506001600160a01b038216600090815260016020526040902062001a639082620028a1565b5062001a7260028284620028af565b5080826001600160a01b0316846001600160a01b03167fddf252ad1be2c89b69c2b068fc378daa952ba7f163c4a11628f55a4df523b3ef60405160405180910390a4505050565b60006200070e8383620028c7565b62001ae382826040518060200160405280600081525062002910565b5050565b600080808062001af886866200294a565b9097909650945050505050565b600062001b14848484620029aa565b949350505050565b60008262001b2d57506000620004fd565b8282028284828162001b3b57fe5b04146200070e5760405162461bcd60e51b8152600401620005c99062004776565b801562001c6257600b54600f546040516323b872dd60e01b81526001600160a01b03928316926323b872dd9262001b9d92911690879087906004016200427c565b602060405180830381600087803b15801562001bb857600080fd5b505af115801562001bcd573d6000803e3d6000fd5b505050506040513d601f19601f8201168201806040525081019062001bf3919062003f0c565b50600b5460405163363798f960e11b81526001600160a01b0390911690636c6f31f29062001c289086908690600401620042df565b600060405180830381600087803b15801562001c4357600080fd5b505af115801562001c58573d6000803e3d6000fd5b5050505062000691565b600b54600f546040516323b872dd60e01b81526001600160a01b03928316926323b872dd9262001c9d9288929091169087906004016200427c565b602060405180830381600087803b15801562001cb857600080fd5b505af115801562001ccd573d6000803e3d6000fd5b505050506040513d601f19601f82011682018060405250810190620014b4919062003f0c565b6000828201838110156200070e5760405162461bcd60e51b8152600401620005c990620044e3565b60408051808201909152600e81526d50454e44494e475f4f524445525360901b602091820152600d815260008051602062005d428339815191528054600181018255600091825286517f034b52baf7691f83d40dfbe47e7633aab79f1d5ff22e1d7eb52db0f053a4386d600290920291820155918601517f034b52baf7691f83d40dfbe47e7633aab79f1d5ff22e1d7eb52db0f053a4386e9092019190915583600181111562001dc757fe5b141562001eb357604080518082018252600a8152694255595f4f524445525360b01b602091820152600d81527ff34c455ecb5de31f82d36825bad0aeb58d036a39fd40a24fec0ec35de170b3558054600181810183556000928352885160029283027f7825a2e82dba6400485829f8f9949481adf4dd15bacab3d9360b5903cb060a0981019190915589850180517f7825a2e82dba6400485829f8f9949481adf4dd15bacab3d9360b5903cb060a0a909201919091556001600160a01b0388168452600e85529483208054808301825590845293909220885193909102019182559151910155620014b4565b604080518082018252600b81526a53454c4c5f4f524445525360a81b602091820152600d81527f48c1c91527eb21aa80d2b076de8e4ab8fb1bcbd06905b9762cb5ba913a9d61c08054600181810183556000928352885160029283027fa62a6c2ca9635ef0f603da97b3e7e3b717763e8236a23ee14977899e7f4ea81581019190915589850180517fa62a6c2ca9635ef0f603da97b3e7e3b717763e8236a23ee14977899e7f4ea816909201919091556001600160a01b0387168452600e8552948320805480830182559084529390922088519390910201918255915191015550505050565b600062001fa562003b6d565b5060408051808201909152600e81526d50454e44494e475f4f524445525360901b60209182015260008051602062005d94833981519152600052600d905260008051602062005d428339815191525482906001811415620020095750505062002760565b60006200201882600162002a0d565b905060006103e883116200202e57600062002032565b6103e85b90505b80821015801562002044575084155b1562000833576200205462003b6d565b60408051808201909152600e81526d50454e44494e475f4f524445525360901b60209182015260008051602062005d948339815191526000908152600d90915260008051602062005d428339815191528054600c92919086908110620020b657fe5b6000918252602080832060029283020154845283810194909452604092830190912082516101e0810190935280546101a084019081526001808301546101c086015290845291810154929390929084019160ff909116908111156200211757fe5b60018111156200212357fe5b81526020016002820160019054906101000a900460ff1660048111156200214657fe5b60048111156200215257fe5b815260028201546001600160a01b03620100009091048116602083015260038084015490911660408301526004830154606083015260058301546080830152600683015460a0830152600783015460c0830152600883015460e09092019160ff1690811115620021be57fe5b6003811115620021ca57fe5b815260200160098201548152602001600a8201548152602001600b82015481525050905060008160a001518660a001511490506000866020015160018111156200221057fe5b836020015160018111156200222157fe5b6060850151911491506000906001600160a01b03161580159062002251575060808801516001600160a01b031615155b156200227c5787608001516001600160a01b031684606001516001600160a01b0316149050620022cb565b60808401516001600160a01b031615801590620022a5575060608801516001600160a01b031615155b15620022cb5787606001516001600160a01b031684608001516001600160a01b03161490505b6000838015620022ec575060008561012001516003811115620022ea57fe5b145b8015620022f7575082155b801562002302575081155b9050801562002735576200231562003b6d565b6200231f62003b6d565b6200232962003c12565b60008c6020015160018111156200233c57fe5b1415620024a9578b925087915062002355838362002a51565b905080600001519c50600c60008460000151600001518152602001908152602001600020604051806101a0016040529081600082016040518060400160405290816000820154815260200160018201548152505081526020016002820160009054906101000a900460ff166001811115620023cc57fe5b6001811115620023d857fe5b81526020016002820160019054906101000a900460ff166004811115620023fb57fe5b60048111156200240757fe5b815260028201546001600160a01b03620100009091048116602083015260038084015490911660408301526004830154606083015260058301546080830152600683015460a0830152600783015460c0830152600883015460e09092019160ff16908111156200247357fe5b60038111156200247f57fe5b815260200160098201548152602001600a8201548152602001600b820154815250509b5062002624565b60018c602001516001811115620024bc57fe5b141562002624578b9150879250620024d5838362002a51565b905080600001519c50600c60008360000151600001518152602001908152602001600020604051806101a0016040529081600082016040518060400160405290816000820154815260200160018201548152505081526020016002820160009054906101000a900460ff1660018111156200254c57fe5b60018111156200255857fe5b81526020016002820160019054906101000a900460ff1660048111156200257b57fe5b60048111156200258757fe5b815260028201546001600160a01b03620100009091048116602083015260038084015490911660408301526004830154606083015260058301546080830152600683015460a0830152600783015460c0830152600883015460e09092019160ff1690811115620025f357fe5b6003811115620025ff57fe5b815260200160098201548152602001600a8201548152602001600b820154815250509b505b600183610120015160038111156200263857fe5b1480620026565750600182610120015160038111156200265457fe5b145b15620027315760006200267c846101000151836060015162001b1c90919063ffffffff16565b9050806001846040015160048111156200269257fe5b14620026b1576101008401516080840151620026ae9162001b1c565b90505b60808501516001600160a01b0316600090815260106020526040902054620026da908362002a0d565b6080860180516001600160a01b0316600090815260106020526040902091909155516200270a9083600162001b5c565b6200272e85608001518660a001518660600151866060015189610100015162002ea9565b50505b5050505b866200274657505050505062000833565b6200275387600162002a0d565b9650505050505062002035565b50565b6200277084848462001999565b6200277e84848484620030b8565b620014b45760405162461bcd60e51b8152600401620005c9906200443d565b606081620027c457506040805180820190915260018152600360fc1b60208201526200045e565b8160005b8115620027de57600101600a82049150620027c8565b60608167ffffffffffffffff81118015620027f857600080fd5b506040519080825280601f01601f19166020018201604052801562002824576020820181803683370190505b50859350905060001982015b83156200287857600a840660300160f81b828280600190039350815181106200285557fe5b60200101906001600160f81b031916908160001a905350600a8404935062002830565b50949350505050565b60006200070e8383620031a4565b5490565b60006200070e8383620031bc565b60006200070e83836200328f565b600062001b1484846001600160a01b038516620032de565b81546000908210620028ed5760405162461bcd60e51b8152600401620005c990620043fb565b826000018281548110620028fd57fe5b9060005260206000200154905092915050565b6200291c838362003379565b6200292b6000848484620030b8565b620006915760405162461bcd60e51b8152600401620005c9906200443d565b815460009081908310620029725760405162461bcd60e51b8152600401620005c990620046ff565b60008460000184815481106200298457fe5b906000526020600020906002020190508060000154816001015492509250509250929050565b60008281526001840160205260408120548281620029dd5760405162461bcd60e51b8152600401620005c9919062004379565b50846000016001820381548110620029f157fe5b9060005260206000209060020201600101549150509392505050565b60006200070e83836040518060400160405280601e81526020017f536166654d6174683a207375627472616374696f6e206f766572666c6f7700008152506200344b565b62002a5b62003c12565b506040805160a08101825260008082526020820181905291810182905260608101829052608081019190915260c080840151908301516101808501511580159062002aaa575042856101800151105b1562002ab857600160208401525b600084610180015111801562002ad2575042846101800151105b1562002ae057600160408401525b8361010001518561010001511015801562002b0b5750602083015115801562002b0b57506040830151155b1562002b9b578082141562002b2d5762002b278386866200347a565b62002b95565b808211801562002b4e575060018560400151600481111562002b4b57fe5b14155b1562002b615762002b27838686620034b2565b808210801562002b82575060018460400151600481111562002b7f57fe5b14155b1562002b955762002b95838686620034ef565b62002c42565b60048460400151600481111562002bae57fe5b14801562002bbe57506040830151155b1562002c42578082141562002bda5762002b958386866200347a565b808211801562002bfb575060018560400151600481111562002bf857fe5b14155b1562002c0e5762002b95838686620034b2565b808210801562002c2f575060018460400151600481111562002c2c57fe5b14155b1562002c425762002c42838686620034ef565b8351516000908152600c6020908152604090912085518051825582015160018083019190915591860151600282018054889460ff1990911690838181111562002c8757fe5b0217905550604082015160028201805461ff00191661010083600481111562002cac57fe5b0217905550606082015160028201805462010000600160b01b031916620100006001600160a01b03938416021790556080830151600380840180546001600160a01b031916929093169190911790915560a0830151600483015560c0830151600583015560e0830151600683015561010083015160078301556101208301516008830180549192909160ff191690600190849081111562002d4957fe5b02179055506101408201516009820155610160820151600a82015561018090910151600b909101558451516000908152600c6020908152604090912086518051825582015160018083019190915591870151600282018054899460ff1990911690838181111562002db657fe5b0217905550604082015160028201805461ff00191661010083600481111562002ddb57fe5b0217905550606082015160028201805462010000600160b01b031916620100006001600160a01b03938416021790556080830151600380840180546001600160a01b031916929093169190911790915560a0830151600483015560c0830151600583015560e0830151600683015561010083015160078301556101208301516008830180549192909160ff191690600190849081111562002e7857fe5b0217905550610140820151816009015561016082015181600a015561018082015181600b0155905050505092915050565b600b546001600160a01b03166323b872dd868562002ec8868662001b1c565b6040518463ffffffff1660e01b815260040162002ee8939291906200427c565b602060405180830381600087803b15801562002f0357600080fd5b505af115801562002f18573d6000803e3d6000fd5b505050506040513d601f19601f8201168201806040525081019062002f3e919062003f0c565b50600b546001600160a01b0316636c6f31f28462002f5d858562001b1c565b6040518363ffffffff1660e01b815260040162002f7c929190620042df565b600060405180830381600087803b15801562002f9757600080fd5b505af115801562002fac573d6000803e3d6000fd5b5050506000858152600a6020526040908190205490516323b872dd60e01b81526001600160a01b03909116915081906323b872dd9062002ff59087908a9088906004016200427c565b602060405180830381600087803b1580156200301057600080fd5b505af115801562003025573d6000803e3d6000fd5b505050506040513d601f19601f820116820180604052508101906200304b919062003f0c565b5060405163363798f960e11b81526001600160a01b03821690636c6f31f2906200307c9089908790600401620042df565b600060405180830381600087803b1580156200309757600080fd5b505af1158015620030ac573d6000803e3d6000fd5b50505050505050505050565b6000620030ce846001600160a01b03166200352c565b620030dc5750600162001b14565b60606200316b630a85bd0160e11b620030f46200188e565b8887876040516024016200310c9493929190620042a0565b604051602081830303815290604052906001600160e01b0319166020820180516001600160e01b03838183161783525050505060405180606001604052806032815260200162005d62603291396001600160a01b038816919062003532565b905060008180602001905181019062003185919062003f63565b6001600160e01b031916630a85bd0160e11b1492505050949350505050565b60009081526001919091016020526040902054151590565b600081815260018301602052604081205480156200327d5783546000198083019190810190600090879083908110620031f157fe5b90600052602060002001549050808760000184815481106200320f57fe5b6000918252602080832090910192909255828152600189810190925260409020908401905586548790806200324057fe5b60019003818190600052602060002001600090559055866001016000878152602001908152602001600020600090556001945050505050620004fd565b6000915050620004fd565b5092915050565b60006200329d8383620031a4565b620032d557508154600181810184556000848152602080822090930184905584548482528286019093526040902091909155620004fd565b506000620004fd565b600082815260018401602052604081205480620033455750506040805180820182528381526020808201848152865460018181018955600089815284812095516002909302909501918255915190820155865486845281880190925292909120556200070e565b828560000160018303815481106200335957fe5b90600052602060002090600202016001018190555060009150506200070e565b6001600160a01b038216620033a25760405162461bcd60e51b8152600401620005c99062004741565b620033ad816200187f565b15620033cd5760405162461bcd60e51b8152600401620005c9906200448f565b620033db6000838362000691565b6001600160a01b0382166000908152600160205260409020620033ff9082620028a1565b506200340e60028284620028af565b5060405181906001600160a01b038416906000907fddf252ad1be2c89b69c2b068fc378daa952ba7f163c4a11628f55a4df523b3ef908290a45050565b60008184841115620034725760405162461bcd60e51b8152600401620005c9919062004379565b505050900390565b60c08083018051606086015290820180516080860152600185526000908190529052620034a78262003543565b620006918162003543565b60c080820180516060860152805160808601525190830151620034d59162002a0d565b60c080840191909152600090820152620006918162003543565b60c080830180516060860152805160808601525190820151620035129162002a0d565b60c080830191909152600090830152620006918262003543565b3b151590565b606062001b14848460008562003640565b6200354d62003bfb565b5080516200355b8162003712565b5060408051808201909152600e81526d4d4154434845445f4f524445525360901b6020918201527fadaaca5c8c3f56bf72f89abb1ed95701d44c650c5e04cf89df361454308f6f756000908152600d825282517fe0a80a76b0f7474dd1c95f95aeb280da4c84e313166cf753213a3f81fd868ff38054600180820183559190935281517f9902fc2ada66d7ac10fdf04358b59edcd8609e9aadaa0654b4ff4c3a5d09166e6002909402938401559201517f9902fc2ada66d7ac10fdf04358b59edcd8609e9aadaa0654b4ff4c3a5d09166f909101556101208201524261016090910152565b60606200364d856200352c565b6200366c5760405162461bcd60e51b8152600401620005c99062004968565b60006060866001600160a01b031685876040516200368b9190620041a7565b60006040518083038185875af1925050503d8060008114620036ca576040519150601f19603f3d011682016040523d82523d6000602084013e620036cf565b606091505b50915091508115620036e557915062001b149050565b805115620036f65780518082602001fd5b8360405162461bcd60e51b8152600401620005c9919062004379565b60408051808201909152600e81526d50454e44494e475f4f524445525360901b60209182015260008051602062005d94833981519152600052600d905260008051602062005d42833981519152546200376b5762002760565b60408051808201909152600e81526d50454e44494e475f4f524445525360901b60209182015260008051602062005d94833981519152600052600d905260008051602062005d4283398151915254600114156200383d5760408051808201909152600e81526d50454e44494e475f4f524445525360901b60209182015260008051602062005d94833981519152600052600d905260008051602062005d428339815191528054806200381957fe5b60008281526020812060026000199093019283020181815560010155905562002760565b60408051808201909152600e81526d50454e44494e475f4f524445525360901b60209182015260008051602062005d948339815191526000908152600d90915260008051602062005d42833981519152546200389b90600162002a0d565b604080518082018252600e81526d50454e44494e475f4f524445525360901b60209182015260008051602062005d948339815191526000908152600d909152905163191ee78360e01b81529192509073__ConstantsV2___________________________9063191ee783906200392b9060008051602062005d4283398151915290859087908990600401620042f8565b60206040518083038186803b1580156200394457600080fd5b505af415801562003959573d6000803e3d6000fd5b505050506040513d601f19601f820116820180604052508101906200397f919062003f82565b9050600081126200069157805b8281101562003a845760408051808201909152600e81526d50454e44494e475f4f524445525360901b60209182015260008051602062005d94833981519152600052600d905260008051602062005d42833981519152805460018301908110620039f257fe5b6000918252602080832060408051808201909152600e81526d50454e44494e475f4f524445525360901b9083015260008051602062005d94833981519152909352600d905260008051602062005d428339815191528054600290920290920191908390811062003a5e57fe5b60009182526020909120825460029092020190815560019182015490820155016200398c565b5060408051808201909152600e81526d50454e44494e475f4f524445525360901b60209182015260008051602062005d94833981519152600052600d905260008051602062005d4283398151915280548062003adc57fe5b600082815260208120600260001990930192830201818155600101559055505050565b6040518061010001604052806000815260200160006001600160a01b0316815260200160006001600160a01b031681526020016060815260200160608152602001600081526020016000815260200160006001600160a01b031681525090565b6110db8062004c6783390190565b604051806101a0016040528062003b8362003bfb565b8152602001600081526020016000815260200160006001600160a01b0316815260200160006001600160a01b03168152602001600081526020016000815260200160008152602001600081526020016000600381111562003be057fe5b81526020016000815260200160008152602001600081525090565b604080518082019091526000808252602082015290565b6040805160a08101825260008082526020820181905291810182905260608101829052608081019190915290565b8035620004fd8162004c1c565b600082601f83011262003c5e578081fd5b813562003c7562003c6f8262004bc8565b62004ba0565b915080825283602082850101111562003c8d57600080fd5b8060208401602084013760009082016020015292915050565b600082601f83011262003cb7578081fd5b815162003cc862003c6f8262004bc8565b915080825283602082850101111562003ce057600080fd5b6200328881602084016020860162004bed565b60006020828403121562003d05578081fd5b81356200070e8162004c1c565b6000806040838503121562003d25578081fd5b823562003d328162004c1c565b9150602083013562003d448162004c1c565b809150509250929050565b60008060006060848603121562003d64578081fd5b833562003d718162004c1c565b9250602084013562003d838162004c1c565b929592945050506040919091013590565b6000806000806080858703121562003daa578081fd5b843562003db78162004c1c565b9350602085013562003dc98162004c1c565b925060408501359150606085013567ffffffffffffffff81111562003dec578182fd5b62003dfa8782880162003c4d565b91505092959194509250565b6000806040838503121562003e19578182fd5b823562003e268162004c1c565b9150602083013562003d448162004c32565b60008060008060008060c0878903121562003e51578182fd5b865162003e5e8162004c1c565b602088015190965067ffffffffffffffff8082111562003e7c578384fd5b62003e8a8a838b0162003ca6565b9650604089015191508082111562003ea0578384fd5b5062003eaf89828a0162003ca6565b945050606087015192506080870151915060a087015162003ed08162004c1c565b809150509295509295509295565b6000806040838503121562003ef1578182fd5b823562003efe8162004c1c565b946020939093013593505050565b60006020828403121562003f1e578081fd5b81516200070e8162004c32565b60006020828403121562003f3d578081fd5b5035919050565b60006020828403121562003f56578081fd5b81356200070e8162004c41565b60006020828403121562003f75578081fd5b81516200070e8162004c41565b60006020828403121562003f94578081fd5b5051919050565b60006020828403121562003fad578081fd5b813567ffffffffffffffff8082111562003fc5578283fd5b9083019060c0828603121562003fd9578283fd5b62003fe560c062004ba0565b8235815260208301358281111562003ffb578485fd5b620040098782860162003c4d565b60208301525060408301358281111562004021578485fd5b6200402f8782860162003c4d565b6040830152506060830135606082015260808301356080820152620040588660a0850162003c40565b60a082015295945050505050565b600060e0828403121562004078578081fd5b6200408460e062004ba0565b8235620040918162004c58565b8152602083013560058110620040a5578283fd5b8060208301525060408301356040820152606083013560608201526080830135608082015260a083013560a082015260c083013560c08201528091505092915050565b60008060408385031215620040fb578182fd5b82359150602083013562003d448162004c1c565b60008060006060848603121562004124578081fd5b83359250602084013562003d838162004c1c565b6001600160a01b03169052565b600081518084526200415f81602086016020860162004bed565b601f01601f19169290920160200192915050565b600481106200417e57fe5b9052565b600581106200417e57fe5b600281106200417e57fe5b80518252602090810151910152565b60008251620041bb81846020870162004bed565b9190910192915050565b6000808454600180821660008114620041e75760018114620041ff5762004230565b60ff198316865260028304607f168601935062004230565b600283048886526020808720875b83811015620042285781548a8201529085019082016200420d565b505050860193505b50505083516200424581836020880162004bed565b01949350505050565b6001600160a01b0391909116815260200190565b6001600160a01b0392831681529116602082015260400190565b6001600160a01b039384168152919092166020820152604081019190915260600190565b6001600160a01b0385811682528416602082015260408101839052608060608201819052600090620042d59083018462004145565b9695505050505050565b6001600160a01b03929092168252602082015260400190565b600060a0820160a0835280875480835260c08501915088845260209250828420845b8281101562004344578154845260018083015486860152604090940193600290920191016200431a565b50505090830186905260408301859052905062004365606083018462004198565b95945050505050565b901515815260200190565b6000602082526200070e602083018462004145565b600060a08252620043a360a083018862004145565b8281036020840152620043b7818862004145565b6040840196909652505060608101929092526001600160a01b031660809091015292915050565b60208082526003908201526241444960e81b604082015260600190565b60208082526022908201527f456e756d657261626c655365743a20696e646578206f7574206f6620626f756e604082015261647360f01b606082015260800190565b60208082526032908201527f4552433732313a207472616e7366657220746f206e6f6e20455243373231526560408201527131b2b4bb32b91034b6b83632b6b2b73a32b960711b606082015260800190565b6020808252601c908201527f4552433732313a20746f6b656e20616c7265616479206d696e74656400000000604082015260600190565b60208082526003908201526241534960e81b604082015260600190565b6020808252601b908201527f536166654d6174683a206164646974696f6e206f766572666c6f770000000000604082015260600190565b60208082526024908201527f4552433732313a207472616e7366657220746f20746865207a65726f206164646040820152637265737360e01b606082015260800190565b60208082526019908201527f4552433732313a20617070726f766520746f2063616c6c657200000000000000604082015260600190565b6020808252602c908201527f4552433732313a206f70657261746f7220717565727920666f72206e6f6e657860408201526b34b9ba32b73a103a37b5b2b760a11b606082015260800190565b6020808252600490820152632a24a4a760e11b604082015260600190565b6020808252600390820152624f434360e81b604082015260600190565b60208082526038908201527f4552433732313a20617070726f76652063616c6c6572206973206e6f74206f7760408201527f6e6572206e6f7220617070726f76656420666f7220616c6c0000000000000000606082015260800190565b6020808252602a908201527f4552433732313a2062616c616e636520717565727920666f7220746865207a65604082015269726f206164647265737360b01b606082015260800190565b602080825260059082015264139150519560da1b604082015260600190565b60208082526003908201526220a4a760e91b604082015260600190565b60208082526022908201527f456e756d657261626c654d61703a20696e646578206f7574206f6620626f756e604082015261647360f01b606082015260800190565b6020808252818101527f4552433732313a206d696e7420746f20746865207a65726f2061646472657373604082015260600190565b60208082526021908201527f536166654d6174683a206d756c7469706c69636174696f6e206f766572666c6f6040820152607760f81b606082015260800190565b6020808252602c908201527f4552433732313a20617070726f76656420717565727920666f72206e6f6e657860408201526b34b9ba32b73a103a37b5b2b760a11b606082015260800190565b60208082526003908201526241524960e81b604082015260600190565b60208082526029908201527f4552433732313a207472616e73666572206f6620746f6b656e2074686174206960408201526839903737ba1037bbb760b91b606082015260800190565b6020808252602f908201527f4552433732314d657461646174613a2055524920717565727920666f72206e6f60408201526e3732bc34b9ba32b73a103a37b5b2b760891b606082015260800190565b60208082526021908201527f4552433732313a20617070726f76616c20746f2063757272656e74206f776e656040820152603960f91b606082015260800190565b60208082526004908201526327a1a1a360e11b604082015260600190565b60208082526031908201527f4552433732313a207472616e736665722063616c6c6572206973206e6f74206f6040820152701ddb995c881b9bdc88185c1c1c9bdd9959607a1b606082015260800190565b6020808252601d908201527f416464726573733a2063616c6c20746f206e6f6e2d636f6e7472616374000000604082015260600190565b60208082526004908201526327a824a760e11b604082015260600190565b60208082526003908201526254494960e81b604082015260600190565b60208082526003908201526254534960e81b604082015260600190565b602080825260029082015261262160f11b604082015260600190565b60006101c08201905062004a2982845162004198565b602083015162004a3d60408401826200418d565b50604083015162004a52606084018262004182565b50606083015162004a67608084018262004138565b50608083015162004a7c60a084018262004138565b5060a083015160c083015260c083015160e083015260e083015161010081818501528085015191505061012081818501528085015191505061014062004ac58185018362004173565b8401516101608481019190915284015161018080850191909152909301516101a090920191909152919050565b6000602082528251602083015260018060a01b036020840151166040830152604083015162004b25606084018262004138565b50606083015161010080608085015262004b4461012085018362004145565b91506080850151601f198584030160a086015262004b63838262004145565b92505060a085015160c085015260c085015160e085015260e085015162004b8d8286018262004138565b5090949350505050565b90815260200190565b60405181810167ffffffffffffffff8111828210171562004bc057600080fd5b604052919050565b600067ffffffffffffffff82111562004bdf578081fd5b50601f01601f191660200190565b60005b8381101562004c0a57818101518382015260200162004bf0565b83811115620014b45750506000910152565b6001600160a01b03811681146200276057600080fd5b80151581146200276057600080fd5b6001600160e01b0319811681146200276057600080fd5b600281106200276057600080fdfe60806040523480156200001157600080fd5b50604051620010db380380620010db8339810160408190526200003491620003dc565b8451859085906200004d90600390602085019062000299565b5080516200006390600490602084019062000299565b50506005805460ff191660121790555033620000808285620000bd565b6200008d828286620001a9565b50600691909155600780546001600160a01b0319166001600160a01b039092169190911790555062000577915050565b6001600160a01b038216620000ef5760405162461bcd60e51b8152600401620000e69062000537565b60405180910390fd5b620000fd6000838362000265565b62000119816002546200026a60201b620005621790919060201c565b6002556001600160a01b038216600090815260208181526040909120546200014c918390620005626200026a821b17901c565b6001600160a01b0383166000818152602081905260408082209390935591519091907fddf252ad1be2c89b69c2b068fc378daa952ba7f163c4a11628f55a4df523b3ef906200019d9085906200056e565b60405180910390a35050565b6001600160a01b038316620001d25760405162461bcd60e51b8152600401620000e690620004f3565b6001600160a01b038216620001fb5760405162461bcd60e51b8152600401620000e6906200047a565b6001600160a01b0380841660008181526001602090815260408083209487168084529490915290819020849055517f8c5be1e5ebec7d5bd14f71427d1e84f3dd0314c0f7b2291e5b200ac8c7c3b92590620002589085906200056e565b60405180910390a3505050565b505050565b600082820183811015620002925760405162461bcd60e51b8152600401620000e690620004bc565b9392505050565b828054600181600116156101000203166002900490600052602060002090601f016020900481019282601f10620002dc57805160ff19168380011785556200030c565b828001600101855582156200030c579182015b828111156200030c578251825591602001919060010190620002ef565b506200031a9291506200031e565b5090565b5b808211156200031a57600081556001016200031f565b600082601f83011262000346578081fd5b81516001600160401b03808211156200035d578283fd5b6040516020601f8401601f19168201810183811183821017156200037f578586fd5b806040525081945083825286818588010111156200039c57600080fd5b600092505b83831015620003c05785830181015182840182015291820191620003a1565b83831115620003d25760008185840101525b5050505092915050565b600080600080600060a08688031215620003f4578081fd5b85516001600160401b03808211156200040b578283fd5b6200041989838a0162000335565b965060208801519150808211156200042f578283fd5b506200043e8882890162000335565b6040880151606089015160808a0151929750909550935090506001600160a01b03811681146200046c578182fd5b809150509295509295909350565b60208082526022908201527f45524332303a20617070726f766520746f20746865207a65726f206164647265604082015261737360f01b606082015260800190565b6020808252601b908201527f536166654d6174683a206164646974696f6e206f766572666c6f770000000000604082015260600190565b60208082526024908201527f45524332303a20617070726f76652066726f6d20746865207a65726f206164646040820152637265737360e01b606082015260800190565b6020808252601f908201527f45524332303a206d696e7420746f20746865207a65726f206164647265737300604082015260600190565b90815260200190565b610b5480620005876000396000f3fe608060405234801561001057600080fd5b50600436106100f55760003560e01c8063565974d311610097578063a457c2d711610066578063a457c2d7146101e7578063a71b6426146101fa578063a9059cbb14610202578063dd62ed3e14610215576100f5565b8063565974d31461019d5780636c6f31f2146101b757806370a08231146101cc57806395d89b41146101df576100f5565b80631d143848116100d35780631d1438481461014d57806323b872dd14610162578063313ce56714610175578063395093511461018a576100f5565b806306fdde03146100fa578063095ea7b31461011857806318160ddd14610138575b600080fd5b610102610228565b60405161010f9190610924565b60405180910390f35b61012b61012636600461083b565b6102be565b60405161010f9190610919565b6101406102dc565b60405161010f9190610a7c565b6101556102e2565b60405161010f91906108b0565b61012b6101703660046107fb565b6102f1565b61017d610378565b60405161010f9190610a85565b61012b61019836600461083b565b610381565b6101a56103cf565b60405161010f969594939291906108c4565b6101ca6101c536600461083b565b610415565b005b6101406101da3660046107ac565b610439565b610102610454565b61012b6101f536600461083b565b6104b5565b61014061051d565b61012b61021036600461083b565b610523565b6101406102233660046107c7565b610537565b60038054604080516020601f60026000196101006001881615020190951694909404938401819004810282018101909252828152606093909290918301828280156102b45780601f10610289576101008083540402835291602001916102b4565b820191906000526020600020905b81548152906001019060200180831161029757829003601f168201915b5050505050905090565b60006102d26102cb610597565b848461059b565b5060015b92915050565b60025490565b6007546001600160a01b031690565b60006102fe84848461064f565b61036e8461030a610597565b61036985604051806060016040528060288152602001610ad2602891396001600160a01b038a16600090815260016020526040812090610348610597565b6001600160a01b031681526020810191909152604001600020549190610764565b61059b565b5060019392505050565b60055460ff1690565b60006102d261038e610597565b84610369856001600061039f610597565b6001600160a01b03908116825260208083019390935260409182016000908120918c168152925290205490610562565b60006060806000806000306103e2610228565b6103ea610454565b6103f26102dc565b6103fa61051d565b6104026102e2565b949b939a50919850965094509092509050565b3360006104228483610537565b905061043384836103698685610562565b50505050565b6001600160a01b031660009081526020819052604090205490565b60048054604080516020601f60026000196101006001881615020190951694909404938401819004810282018101909252828152606093909290918301828280156102b45780601f10610289576101008083540402835291602001916102b4565b60006102d26104c2610597565b8461036985604051806060016040528060258152602001610afa60259139600160006104ec610597565b6001600160a01b03908116825260208083019390935260409182016000908120918d16815292529020549190610764565b60065490565b60006102d2610530610597565b848461064f565b6001600160a01b03918216600090815260016020908152604080832093909416825291909152205490565b6000828201838110156105905760405162461bcd60e51b8152600401610587906109bc565b60405180910390fd5b9392505050565b3390565b6001600160a01b0383166105c15760405162461bcd60e51b815260040161058790610a38565b6001600160a01b0382166105e75760405162461bcd60e51b81526004016105879061097a565b6001600160a01b0380841660008181526001602090815260408083209487168084529490915290819020849055517f8c5be1e5ebec7d5bd14f71427d1e84f3dd0314c0f7b2291e5b200ac8c7c3b92590610642908590610a7c565b60405180910390a3505050565b6001600160a01b0383166106755760405162461bcd60e51b8152600401610587906109f3565b6001600160a01b03821661069b5760405162461bcd60e51b815260040161058790610937565b6106a6838383610790565b6106e381604051806060016040528060268152602001610aac602691396001600160a01b0386166000908152602081905260409020549190610764565b6001600160a01b0380851660009081526020819052604080822093909355908416815220546107129082610562565b6001600160a01b0380841660008181526020819052604090819020939093559151908516907fddf252ad1be2c89b69c2b068fc378daa952ba7f163c4a11628f55a4df523b3ef90610642908590610a7c565b600081848411156107885760405162461bcd60e51b81526004016105879190610924565b505050900390565b505050565b80356001600160a01b03811681146102d657600080fd5b6000602082840312156107bd578081fd5b6105908383610795565b600080604083850312156107d9578081fd5b6107e38484610795565b91506107f28460208501610795565b90509250929050565b60008060006060848603121561080f578081fd5b833561081a81610a93565b9250602084013561082a81610a93565b929592945050506040919091013590565b6000806040838503121561084d578182fd5b6108578484610795565b946020939093013593505050565b60008151808452815b8181101561088a5760208185018101518683018201520161086e565b8181111561089b5782602083870101525b50601f01601f19169290920160200192915050565b6001600160a01b0391909116815260200190565b600060018060a01b03808916835260c060208401526108e660c0840189610865565b83810360408501526108f88189610865565b606085019790975250608083019490945250911660a0909101529392505050565b901515815260200190565b6000602082526105906020830184610865565b60208082526023908201527f45524332303a207472616e7366657220746f20746865207a65726f206164647260408201526265737360e81b606082015260800190565b60208082526022908201527f45524332303a20617070726f766520746f20746865207a65726f206164647265604082015261737360f01b606082015260800190565b6020808252601b908201527f536166654d6174683a206164646974696f6e206f766572666c6f770000000000604082015260600190565b60208082526025908201527f45524332303a207472616e736665722066726f6d20746865207a65726f206164604082015264647265737360d81b606082015260800190565b60208082526024908201527f45524332303a20617070726f76652066726f6d20746865207a65726f206164646040820152637265737360e01b606082015260800190565b90815260200190565b60ff91909116815260200190565b6001600160a01b0381168114610aa857600080fd5b5056fe45524332303a207472616e7366657220616d6f756e7420657863656564732062616c616e636545524332303a207472616e7366657220616d6f756e74206578636565647320616c6c6f77616e636545524332303a2064656372656173656420616c6c6f77616e63652062656c6f77207a65726fa26469706673582212202e30a55647e91419b20fa268393dc96146ca804aae04dd1c072b91ddd4515c6a64736f6c634300060c00330f4b50b212a0af592f6b337de665fe7e50a5abd9c6040f4136b76bee99d83afe4552433732313a207472616e7366657220746f206e6f6e20455243373231526563656976657220696d706c656d656e746572e4ebe61b5154be65502ffd10f19bbd557c590ef2ce56d0959d42d567662e4e7f4552433732313a206f776e657220717565727920666f72206e6f6e6578697374656e7420746f6b656ea2646970667358221220ab556a290867e7aa50314fe4a2fcea3ab2b90450837ddbd16a748939c7fbd61164736f6c634300060c003360806040523480156200001157600080fd5b50604051620010db380380620010db8339810160408190526200003491620003dc565b8451859085906200004d90600390602085019062000299565b5080516200006390600490602084019062000299565b50506005805460ff191660121790555033620000808285620000bd565b6200008d828286620001a9565b50600691909155600780546001600160a01b0319166001600160a01b039092169190911790555062000577915050565b6001600160a01b038216620000ef5760405162461bcd60e51b8152600401620000e69062000537565b60405180910390fd5b620000fd6000838362000265565b62000119816002546200026a60201b620005621790919060201c565b6002556001600160a01b038216600090815260208181526040909120546200014c918390620005626200026a821b17901c565b6001600160a01b0383166000818152602081905260408082209390935591519091907fddf252ad1be2c89b69c2b068fc378daa952ba7f163c4a11628f55a4df523b3ef906200019d9085906200056e565b60405180910390a35050565b6001600160a01b038316620001d25760405162461bcd60e51b8152600401620000e690620004f3565b6001600160a01b038216620001fb5760405162461bcd60e51b8152600401620000e6906200047a565b6001600160a01b0380841660008181526001602090815260408083209487168084529490915290819020849055517f8c5be1e5ebec7d5bd14f71427d1e84f3dd0314c0f7b2291e5b200ac8c7c3b92590620002589085906200056e565b60405180910390a3505050565b505050565b600082820183811015620002925760405162461bcd60e51b8152600401620000e690620004bc565b9392505050565b828054600181600116156101000203166002900490600052602060002090601f016020900481019282601f10620002dc57805160ff19168380011785556200030c565b828001600101855582156200030c579182015b828111156200030c578251825591602001919060010190620002ef565b506200031a9291506200031e565b5090565b5b808211156200031a57600081556001016200031f565b600082601f83011262000346578081fd5b81516001600160401b03808211156200035d578283fd5b6040516020601f8401601f19168201810183811183821017156200037f578586fd5b806040525081945083825286818588010111156200039c57600080fd5b600092505b83831015620003c05785830181015182840182015291820191620003a1565b83831115620003d25760008185840101525b5050505092915050565b600080600080600060a08688031215620003f4578081fd5b85516001600160401b03808211156200040b578283fd5b6200041989838a0162000335565b965060208801519150808211156200042f578283fd5b506200043e8882890162000335565b6040880151606089015160808a0151929750909550935090506001600160a01b03811681146200046c578182fd5b809150509295509295909350565b60208082526022908201527f45524332303a20617070726f766520746f20746865207a65726f206164647265604082015261737360f01b606082015260800190565b6020808252601b908201527f536166654d6174683a206164646974696f6e206f766572666c6f770000000000604082015260600190565b60208082526024908201527f45524332303a20617070726f76652066726f6d20746865207a65726f206164646040820152637265737360e01b606082015260800190565b6020808252601f908201527f45524332303a206d696e7420746f20746865207a65726f206164647265737300604082015260600190565b90815260200190565b610b5480620005876000396000f3fe608060405234801561001057600080fd5b50600436106100f55760003560e01c8063565974d311610097578063a457c2d711610066578063a457c2d7146101e7578063a71b6426146101fa578063a9059cbb14610202578063dd62ed3e14610215576100f5565b8063565974d31461019d5780636c6f31f2146101b757806370a08231146101cc57806395d89b41146101df576100f5565b80631d143848116100d35780631d1438481461014d57806323b872dd14610162578063313ce56714610175578063395093511461018a576100f5565b806306fdde03146100fa578063095ea7b31461011857806318160ddd14610138575b600080fd5b610102610228565b60405161010f9190610924565b60405180910390f35b61012b61012636600461083b565b6102be565b60405161010f9190610919565b6101406102dc565b60405161010f9190610a7c565b6101556102e2565b60405161010f91906108b0565b61012b6101703660046107fb565b6102f1565b61017d610378565b60405161010f9190610a85565b61012b61019836600461083b565b610381565b6101a56103cf565b60405161010f969594939291906108c4565b6101ca6101c536600461083b565b610415565b005b6101406101da3660046107ac565b610439565b610102610454565b61012b6101f536600461083b565b6104b5565b61014061051d565b61012b61021036600461083b565b610523565b6101406102233660046107c7565b610537565b60038054604080516020601f60026000196101006001881615020190951694909404938401819004810282018101909252828152606093909290918301828280156102b45780601f10610289576101008083540402835291602001916102b4565b820191906000526020600020905b81548152906001019060200180831161029757829003601f168201915b5050505050905090565b60006102d26102cb610597565b848461059b565b5060015b92915050565b60025490565b6007546001600160a01b031690565b60006102fe84848461064f565b61036e8461030a610597565b61036985604051806060016040528060288152602001610ad2602891396001600160a01b038a16600090815260016020526040812090610348610597565b6001600160a01b031681526020810191909152604001600020549190610764565b61059b565b5060019392505050565b60055460ff1690565b60006102d261038e610597565b84610369856001600061039f610597565b6001600160a01b03908116825260208083019390935260409182016000908120918c168152925290205490610562565b60006060806000806000306103e2610228565b6103ea610454565b6103f26102dc565b6103fa61051d565b6104026102e2565b949b939a50919850965094509092509050565b3360006104228483610537565b905061043384836103698685610562565b50505050565b6001600160a01b031660009081526020819052604090205490565b60048054604080516020601f60026000196101006001881615020190951694909404938401819004810282018101909252828152606093909290918301828280156102b45780601f10610289576101008083540402835291602001916102b4565b60006102d26104c2610597565b8461036985604051806060016040528060258152602001610afa60259139600160006104ec610597565b6001600160a01b03908116825260208083019390935260409182016000908120918d16815292529020549190610764565b60065490565b60006102d2610530610597565b848461064f565b6001600160a01b03918216600090815260016020908152604080832093909416825291909152205490565b6000828201838110156105905760405162461bcd60e51b8152600401610587906109bc565b60405180910390fd5b9392505050565b3390565b6001600160a01b0383166105c15760405162461bcd60e51b815260040161058790610a38565b6001600160a01b0382166105e75760405162461bcd60e51b81526004016105879061097a565b6001600160a01b0380841660008181526001602090815260408083209487168084529490915290819020849055517f8c5be1e5ebec7d5bd14f71427d1e84f3dd0314c0f7b2291e5b200ac8c7c3b92590610642908590610a7c565b60405180910390a3505050565b6001600160a01b0383166106755760405162461bcd60e51b8152600401610587906109f3565b6001600160a01b03821661069b5760405162461bcd60e51b815260040161058790610937565b6106a6838383610790565b6106e381604051806060016040528060268152602001610aac602691396001600160a01b0386166000908152602081905260409020549190610764565b6001600160a01b0380851660009081526020819052604080822093909355908416815220546107129082610562565b6001600160a01b0380841660008181526020819052604090819020939093559151908516907fddf252ad1be2c89b69c2b068fc378daa952ba7f163c4a11628f55a4df523b3ef90610642908590610a7c565b600081848411156107885760405162461bcd60e51b81526004016105879190610924565b505050900390565b505050565b80356001600160a01b03811681146102d657600080fd5b6000602082840312156107bd578081fd5b6105908383610795565b600080604083850312156107d9578081fd5b6107e38484610795565b91506107f28460208501610795565b90509250929050565b60008060006060848603121561080f578081fd5b833561081a81610a93565b9250602084013561082a81610a93565b929592945050506040919091013590565b6000806040838503121561084d578182fd5b6108578484610795565b946020939093013593505050565b60008151808452815b8181101561088a5760208185018101518683018201520161086e565b8181111561089b5782602083870101525b50601f01601f19169290920160200192915050565b6001600160a01b0391909116815260200190565b600060018060a01b03808916835260c060208401526108e660c0840189610865565b83810360408501526108f88189610865565b606085019790975250608083019490945250911660a0909101529392505050565b901515815260200190565b6000602082526105906020830184610865565b60208082526023908201527f45524332303a207472616e7366657220746f20746865207a65726f206164647260408201526265737360e81b606082015260800190565b60208082526022908201527f45524332303a20617070726f766520746f20746865207a65726f206164647265604082015261737360f01b606082015260800190565b6020808252601b908201527f536166654d6174683a206164646974696f6e206f766572666c6f770000000000604082015260600190565b60208082526025908201527f45524332303a207472616e736665722066726f6d20746865207a65726f206164604082015264647265737360d81b606082015260800190565b60208082526024908201527f45524332303a20617070726f76652066726f6d20746865207a65726f206164646040820152637265737360e01b606082015260800190565b90815260200190565b60ff91909116815260200190565b6001600160a01b0381168114610aa857600080fd5b5056fe45524332303a207472616e7366657220616d6f756e7420657863656564732062616c616e636545524332303a207472616e7366657220616d6f756e74206578636565647320616c6c6f77616e636545524332303a2064656372656173656420616c6c6f77616e63652062656c6f77207a65726fa26469706673582212202e30a55647e91419b20fa268393dc96146ca804aae04dd1c072b91ddd4515c6a64736f6c634300060c0033",
  "immutableReferences": {},
  "source": "/// SPDX-License-Identifier: MIT-0\npragma solidity >=0.6.0 <0.8.0;\npragma experimental ABIEncoderV2;\n\nimport \"@openzeppelin/contracts/token/ERC721/ERC721.sol\";\nimport \"./ShareContract.sol\";\nimport \"./library/AssetModelV2.sol\";\nimport \"./library/OrderModelV2.sol\";\nimport \"./library/ConstantsV2.sol\";\n\ncontract AssetManagerV2 is ERC721(\"NSE Art Exchange\", \"ARTX\") {\n    event DEBUG(string str);\n    \n    mapping(uint256 => ShareContract) shares;\n\n    ShareContract wallet;\n\n    // Store All Orders. Key is OrderModelV2.Order Key\n    mapping(bytes32 => OrderModelV2.Order) orders;\n\n    // Store All Orders. Key is hash of keys\n    mapping(bytes32 => OrderModelV2.SortedKey[]) filtered;\n    mapping(address => OrderModelV2.SortedKey[]) userOrders;\n\n    address owner;\n\n    // store xether that is tied down by a buy order, key is address\n    mapping(address => uint256) escrow;\n\n    constructor() public {\n        owner = msg.sender;\n        wallet = new ShareContract(\"Tether Token\", \"WALLET\", 2**250, 1, msg.sender);\n    }\n\n    function walletBalance(address userAddress) external view returns (uint256) {\n        return wallet.allowance(userAddress, address(this));\n    }\n\n    function ownedShares(uint256 tokenId, address userAddress) external view returns (uint256) {\n        ShareContract shareContract = shares[tokenId];\n        return shareContract.allowance(userAddress, address(this));\n    }\n\n    function postOrder(OrderModelV2.OrderRequest memory or) external {\n        require(or.tokenId > 0, 'TIIN');\n        require(or.amount > 0, 'AIN');\n        require(or.price > 0, 'OPIN');\n\n        address seller;\n        address buyer;\n        if (or.orderType == OrderModelV2.OrderType.BUY) {\n            buyer = msg.sender;\n            seller = address(0);\n            uint256 totalCost = or.amount.mul(or.price);\n            uint256 buyerNgncBalance = wallet.allowance(buyer, address(this));\n\n            if (buyerNgncBalance >= totalCost) {\n                // deduct totalCost from wallet\n                _updateWalletBalance(buyer, totalCost, false);\n                // update escrow\n                escrow[buyer] = escrow[buyer].add(totalCost);\n            } else {\n                revert(\"LB\");\n            }\n        } else if (or.orderType == OrderModelV2.OrderType.SELL) {\n            buyer = address(0);\n            seller = msg.sender;\n            //check that you have the asset you want to sell\n            ShareContract shareContract = shares[or.tokenId];\n            uint256 sellerShares = shareContract.allowance(\n                seller,\n                address(this)\n            );\n            if (sellerShares < or.amount) {\n                revert(\"NEAFT\");\n            }\n        }\n\n        OrderModelV2.SortedKey memory sortedKey = OrderModelV2.SortedKey({ key: or.key, date: block.timestamp });\n\n        OrderModelV2.Order memory dbOrder = OrderModelV2.Order({\n            key: sortedKey,\n            orderType: or.orderType,\n            orderStrategy: or.orderStrategy,\n            seller: seller,\n            buyer: buyer,\n            tokenId: or.tokenId,\n            amountRemaining: or.amount,\n            originalAmount: or.amount,\n            price: or.price,\n            status: OrderModelV2.OrderStatus.NEW,\n            orderDate: block.timestamp,\n            statusDate: block.timestamp,\n            goodUntil: or.goodUntil\n        });\n\n        orders[or.key] = dbOrder;\n\n        _populateFilteredOrders(dbOrder.key, dbOrder.orderType, dbOrder.buyer, dbOrder.seller);\n\n        _matchOrder(dbOrder);\n    }\n\n    function getOrder(bytes32 key) external view returns (OrderModelV2.Order memory) {\n        return orders[key];\n    }\n\n    function mint(AssetModelV2.AssetRequest memory ar) external {\n        bytes memory b = bytes(ar.description);\n        bytes memory b1 = bytes(ar.symbol);\n        require(b.length > 0, 'ADI');\n        require(b1.length > 0, 'ASI');\n        require(ar.tokenId > 0, 'TII');\n        require(ar.totalSupply > 0, 'TSI');\n        require(ar.issuer != address(0), 'ARI');\n        require(owner == msg.sender, 'OCC');\n        _safeMint(msg.sender, ar.tokenId);\n        // create an ERC20 Smart contract and assign the shares to issuer\n        ShareContract shareContract = new ShareContract(\n            ar.description,\n            ar.symbol,\n            ar.totalSupply,\n            ar.issuingPrice,\n            ar.issuer\n        );\n        shares[ar.tokenId] = shareContract;\n    }\n\n    function transferShares(uint256 tokenId, address recipient, uint256 amount) external {\n        shares[tokenId].transferFrom(msg.sender, recipient, amount);\n        // Allow this contract to spend on recipients behalf\n        shares[tokenId].allow(recipient, amount);\n    }\n\n    function transferTokenOwnership(uint256 tokenId, address recipient) external {\n        uint256 sharesOwned = shares[tokenId].allowance(\n            msg.sender,\n            address(this)\n        );\n\n        // first transfer the shares owned by the caller in tokenId\n        shares[tokenId].transferFrom(msg.sender, recipient, sharesOwned);\n        shares[tokenId].allow(recipient, sharesOwned);\n        // then transfer ownership of the token\n        safeTransferFrom(msg.sender, recipient, tokenId);\n    }\n\n    function fundWallet(address recipient, uint256 amount) external {\n        require(owner == msg.sender, 'OCCF');\n        wallet.transferFrom(msg.sender, recipient, amount);\n        // Allow this contract to spend on recipients behalf\n        wallet.allow(recipient, amount);\n    }\n\n    function tokenShares(uint256 tokenId) external view returns (AssetModelV2.TokenShares memory) {\n        address tokenOwner = ownerOf(tokenId);\n\n        ShareContract shareContract = shares[tokenId];\n        (\n            address sharesContract,\n            string memory description,\n            string memory symbol,\n            uint256 totalSupply,\n            uint256 issuingPrice,\n            address issuer\n        ) = shareContract.details();\n\n        return AssetModelV2.TokenShares({\n                tokenId: tokenId,\n                owner: tokenOwner,\n                sharesContract: sharesContract,\n                description: description,\n                symbol: symbol,\n                totalSupply: totalSupply,\n                issuingPrice: issuingPrice,\n                issuer: issuer\n            });\n    }\n\n    function _updateWalletBalance(address recipient, uint256 amount, bool add) internal {\n        if (add) {\n            wallet.transferFrom(owner, recipient, amount);\n            // Allow this contract to spend on recipients behalf\n            wallet.allow(recipient, amount);\n        } else {\n            wallet.transferFrom(recipient, owner, amount);\n        }\n    }\n\n    function _populateFilteredOrders(\n        OrderModelV2.SortedKey memory key,\n        OrderModelV2.OrderType orderType, address buyer, address seller) internal {\n        filtered[ConstantsV2.PENDING_ORDERS_KEY].push(key);\n        if (orderType == OrderModelV2.OrderType.BUY) {\n            filtered[ConstantsV2.BUY_ORDERS_KEY].push(key);\n            userOrders[buyer].push(key);\n        } else {\n            filtered[ConstantsV2.SELL_ORDERS_KEY].push(key);\n            userOrders[seller].push(key);\n        }\n    }\n\n    function _matchOrder(OrderModelV2.Order memory mo) internal {\n        bool matched = false;\n        OrderModelV2.Order memory matchingOrder = mo;\n        uint256 pendingOrdersSize = filtered[ConstantsV2.PENDING_ORDERS_KEY].length;\n        if (pendingOrdersSize == 1) {\n            return;\n        }\n\n        uint256 k = pendingOrdersSize.sub(1);\n        uint256 end = pendingOrdersSize > ConstantsV2.MAX_ORDERS_TO_PROCESS ? ConstantsV2.MAX_ORDERS_TO_PROCESS : 0;\n\n        while (k >= end && matched == false) {\n            OrderModelV2.Order memory toMatch = orders[filtered[ConstantsV2.PENDING_ORDERS_KEY][k].key];\n            // tokenId equals\n            bool tokenIdEquals = matchingOrder.tokenId == toMatch.tokenId;\n            // Same Type\n            bool sameType = toMatch.orderType == matchingOrder.orderType;\n            // buyer is different from seller\n            bool buyerIsSeller = false;\n            if (toMatch.seller != address(0) && matchingOrder.buyer != address(0)) {\n                buyerIsSeller = toMatch.seller == matchingOrder.buyer;\n            } else if (toMatch.buyer != address(0) && matchingOrder.seller != address(0)) {\n                buyerIsSeller = toMatch.buyer == matchingOrder.seller;\n            }\n\n            bool shouldProcess = tokenIdEquals &&\n                toMatch.status == OrderModelV2.OrderStatus.NEW &&\n                !sameType &&\n                !buyerIsSeller;\n\n            if (shouldProcess) {\n                OrderModelV2.Order memory buyOrder;\n                OrderModelV2.Order memory sellOrder;\n                ConstantsV2.Values memory returnValues;\n                if (matchingOrder.orderType == OrderModelV2.OrderType.BUY) {\n                    buyOrder = matchingOrder;\n                    sellOrder = toMatch;\n                    returnValues = _processOrder(buyOrder, sellOrder);\n                    matched = returnValues.matched;\n                    matchingOrder = orders[buyOrder.key.key];\n                } else if (matchingOrder.orderType == OrderModelV2.OrderType.SELL) {\n                    sellOrder = matchingOrder;\n                    buyOrder = toMatch;\n                    returnValues = _processOrder(buyOrder, sellOrder);\n                    matched = returnValues.matched;\n                    matchingOrder = orders[sellOrder.key.key];\n                }\n\n                if (buyOrder.status == OrderModelV2.OrderStatus.MATCHED || sellOrder.status == OrderModelV2.OrderStatus.MATCHED) {\n                    // add totalCost back to wallet and remove from escrow\n                    uint256 totalCost = returnValues.toBuy.mul(buyOrder.price);\n                    uint256 toSeller = totalCost;\n                    if (sellOrder.orderStrategy != OrderModelV2.OrderStrategy.ALL_OR_NONE) {\n                        toSeller = returnValues.toSell.mul(sellOrder.price);\n                    }\n                    // buy the shares. buyer is buying from seller\n                    escrow[buyOrder.buyer] = escrow[buyOrder.buyer].sub(totalCost);\n                    _updateWalletBalance(buyOrder.buyer, totalCost, true);\n\n                    _buyShares(buyOrder.buyer, buyOrder.tokenId, sellOrder.seller, returnValues.toBuy, buyOrder.price);\n                }\n            }\n            if (k == 0) {\n                break;\n            } else {\n                k = k.sub(1);\n            }\n        }\n    }\n\n    function _processOrder(OrderModelV2.Order memory buyOrder, OrderModelV2.Order memory sellOrder) internal returns (ConstantsV2.Values memory returnValues) {\n        returnValues = ConstantsV2.Values({\n            matched: false,\n            buyExpired: false,\n            sellExpired: false,\n            toBuy: 0,\n            toSell: 0\n        });\n\n        uint256 buyerAmount = buyOrder.amountRemaining;\n        uint256 sellerAmount = sellOrder.amountRemaining;\n\n        if(buyOrder.goodUntil > 0 && buyOrder.goodUntil < block.timestamp) {\n            returnValues.buyExpired = true;\n        }\n        if(sellOrder.goodUntil > 0 && sellOrder.goodUntil < block.timestamp) {\n            returnValues.sellExpired = true;\n        }\n\n        if(buyOrder.price >= sellOrder.price && (returnValues.buyExpired == false && returnValues.sellExpired == false)) {\n            if(buyerAmount == sellerAmount) {\n                _processOrderSameAmount(returnValues, buyOrder, sellOrder);\n            } else if (buyerAmount > sellerAmount && buyOrder.orderStrategy != OrderModelV2.OrderStrategy.ALL_OR_NONE) {\n                _processOrderBuyPartial(returnValues, buyOrder, sellOrder);\n            } else if (buyerAmount < sellerAmount && sellOrder.orderStrategy != OrderModelV2.OrderStrategy.ALL_OR_NONE) {\n                _processOrderSellPartial(returnValues, buyOrder, sellOrder);\n            }\n        } else if(sellOrder.orderStrategy == OrderModelV2.OrderStrategy.MARKET_ORDER && returnValues.sellExpired == false) {\n            if(buyerAmount == sellerAmount) {\n                _processOrderSameAmount(returnValues, buyOrder, sellOrder);\n            } else if (buyerAmount > sellerAmount && buyOrder.orderStrategy != OrderModelV2.OrderStrategy.ALL_OR_NONE) {\n                _processOrderBuyPartial(returnValues, buyOrder, sellOrder);\n            } else if (buyerAmount < sellerAmount && sellOrder.orderStrategy != OrderModelV2.OrderStrategy.ALL_OR_NONE) {\n                _processOrderSellPartial(returnValues, buyOrder, sellOrder);\n            }\n        }\n\n        orders[sellOrder.key.key] = sellOrder;\n        orders[buyOrder.key.key] = buyOrder;\n    }\n\n    function _processOrderSameAmount(\n        ConstantsV2.Values memory returnValues,\n        OrderModelV2.Order memory buyOrder, OrderModelV2.Order memory sellOrder) internal {\n        returnValues.toBuy = buyOrder.amountRemaining;\n        returnValues.toSell = sellOrder.amountRemaining;\n        returnValues.matched = true;\n        sellOrder.amountRemaining = 0;\n        buyOrder.amountRemaining = 0;\n        _filterMatchedOrder(buyOrder);\n        _filterMatchedOrder(sellOrder);\n    }\n\n    function _processOrderBuyPartial(\n        ConstantsV2.Values memory returnValues,\n        OrderModelV2.Order memory buyOrder, OrderModelV2.Order memory sellOrder) internal {\n        returnValues.toBuy = sellOrder.amountRemaining;\n        returnValues.toSell = sellOrder.amountRemaining;\n        buyOrder.amountRemaining = buyOrder.amountRemaining.sub(sellOrder.amountRemaining);\n        sellOrder.amountRemaining = 0;\n        _filterMatchedOrder(sellOrder);\n    }\n\n    function _processOrderSellPartial(\n        ConstantsV2.Values memory returnValues,\n        OrderModelV2.Order memory buyOrder, OrderModelV2.Order memory sellOrder) internal {\n        returnValues.toBuy = buyOrder.amountRemaining;\n        returnValues.toSell = buyOrder.amountRemaining;\n        sellOrder.amountRemaining = sellOrder.amountRemaining.sub(buyOrder.amountRemaining);\n        buyOrder.amountRemaining = 0;\n        _filterMatchedOrder(buyOrder);\n    }\n\n    function _filterMatchedOrder(OrderModelV2.Order memory order) internal {\n        OrderModelV2.SortedKey memory key = order.key;\n        _deleteElement(key);\n\n        filtered[ConstantsV2.MATCHED_ORDERS_KEY].push(order.key);\n        order.status = OrderModelV2.OrderStatus.MATCHED;\n        order.statusDate = block.timestamp;\n    }\n\n    function _deleteElement(OrderModelV2.SortedKey memory key) internal {\n        if(filtered[ConstantsV2.PENDING_ORDERS_KEY].length == 0) {\n            return;\n        }\n\n        if(filtered[ConstantsV2.PENDING_ORDERS_KEY].length == 1) {\n            filtered[ConstantsV2.PENDING_ORDERS_KEY].pop();\n            return;\n        }\n\n        uint256 size = filtered[ConstantsV2.PENDING_ORDERS_KEY].length.sub(\n            1);\n        int256 pos = ConstantsV2.binarySearchV2(filtered[ConstantsV2.PENDING_ORDERS_KEY], 0, int256(size), key);\n\n        if (pos >= 0) {\n            for(uint256 i = uint256(pos); i < size; i++) {\n                filtered[ConstantsV2.PENDING_ORDERS_KEY][i] = filtered[ConstantsV2.PENDING_ORDERS_KEY][i + 1];\n            }\n            //delete filtered[ConstantsV2.PENDING_ORDERS_KEY][uint256(pos)];\n            filtered[ConstantsV2.PENDING_ORDERS_KEY].pop();\n        }\n    }\n\n    function _buyShares(address buyer, uint256 tokenId, address seller, uint256 amount, uint256 price) internal {\n        wallet.transferFrom(buyer, seller, amount.mul(price));\n        // Allow this contract to spend on seller's behalf\n        wallet.allow(seller, amount.mul(price));\n\n        ShareContract shareContract = shares[tokenId];\n        shareContract.transferFrom(seller, buyer, amount);\n        // Allow this contract to spend on buyer's behalf\n        shareContract.allow(buyer, amount);\n    }\n}\n",
  "sourcePath": "/Users/aardvocate/src/AssetManager/contracts/v2/AssetManagerV2.sol",
  "compiler": {
    "name": "solc",
    "version": "0.6.12+commit.27d51765.Emscripten.clang"
  },
  "schemaVersion": "3.3.1",
  "updatedAt": "2021-01-07T11:56:33.117Z",
  "networkType": "ethereum",
  "devdoc": {
    "kind": "dev",
    "methods": {
      "approve(address,uint256)": {
        "details": "See {IERC721-approve}."
      },
      "balanceOf(address)": {
        "details": "See {IERC721-balanceOf}."
      },
      "baseURI()": {
        "details": "Returns the base URI set via {_setBaseURI}. This will be automatically added as a prefix in {tokenURI} to each token's URI, or to the token ID if no specific URI is set for that token ID."
      },
      "getApproved(uint256)": {
        "details": "See {IERC721-getApproved}."
      },
      "isApprovedForAll(address,address)": {
        "details": "See {IERC721-isApprovedForAll}."
      },
      "name()": {
        "details": "See {IERC721Metadata-name}."
      },
      "ownerOf(uint256)": {
        "details": "See {IERC721-ownerOf}."
      },
      "safeTransferFrom(address,address,uint256)": {
        "details": "See {IERC721-safeTransferFrom}."
      },
      "safeTransferFrom(address,address,uint256,bytes)": {
        "details": "See {IERC721-safeTransferFrom}."
      },
      "setApprovalForAll(address,bool)": {
        "details": "See {IERC721-setApprovalForAll}."
      },
      "supportsInterface(bytes4)": {
        "details": "See {IERC165-supportsInterface}. Time complexity O(1), guaranteed to always use less than 30 000 gas."
      },
      "symbol()": {
        "details": "See {IERC721Metadata-symbol}."
      },
      "tokenByIndex(uint256)": {
        "details": "See {IERC721Enumerable-tokenByIndex}."
      },
      "tokenOfOwnerByIndex(address,uint256)": {
        "details": "See {IERC721Enumerable-tokenOfOwnerByIndex}."
      },
      "tokenURI(uint256)": {
        "details": "See {IERC721Metadata-tokenURI}."
      },
      "totalSupply()": {
        "details": "See {IERC721Enumerable-totalSupply}."
      },
      "transferFrom(address,address,uint256)": {
        "details": "See {IERC721-transferFrom}."
      }
    },
    "version": 1
  },
  "userdoc": {
    "kind": "user",
    "methods": {},
    "version": 1
  }
}